:020000040800F2
:100000000004002001C0000801D2000801D200084D
:1000100001D2000801D2000801D2000801D2000874
:1000200001D2000801D2000801D20008A1DC0008BA
:1000300001D2000801D2000801D20008E100010845
:1000400001D2000801D2000801D2000801D2000844
:1000500001D2000801D2000801D2000801D2000834
:1000600001D2000801D2000801D2000811E80008FE
:1000700041E8000871E80008A1E80008D1E800089C
:1000800001E9000831E900081112010851EE0008E9
:1000900091EE000801EF000871EF000801D200089E
:1000A00001D2000801D2000801D2000801D20008E4
:1000B00001D200082100010801D2000801D2000885
:1000C00001D20008A1F20008A1F3000801D2000843
:1000D00001D2000801D2000801D20008A1010108E4
:1000E0003112010801D2000801D2000801D2000833
:1000F00001D2000801D2000801D2000861E900081D
:1001000001D2000801D2000801D2000801D2000883
:1001100001D2000801D2000801D20008F111010843
:1001200091E90008C1E90008F1E9000821EA0008A6
:1001300051EA000801D2000801D2000801D20008EB
:1001400001D2000801D2000801D2000851FE0008C7
:1001500081EA0008B1EA0008E1EA0008C1010108EB
:1001600001D2000801D2000801D2000801D2000823
:1001700001D2000801D2000801D2000801D2000813
:1001800001D2000801D2000801D2000801D2000803
:1001900001D2000801D2000801D2000801D20008F3
:1001A00001D2000801D2000801D2000801D20008E3
:1001B00001D2000801D2000801D2000801D20008D3
:10C0000072B6334880F3098840F20000CCF2000099
:10C010004EF63471CEF200010860BFF34F8FBFF3CC
:10C020006F8F40F20000C0F2F0004EF68851CEF261
:10C0300000010860BFF34F8FBFF36F8F4FF0000018
:10C04000E1EE100A4EF63C71CEF2000108600620C7
:10C0500080F31488BFF36F8F01F0BAF804F0E8F8AA
:10C060001C481D491D4A91423CBF41F8040BFAE7A8
:10C070001B49174A91423CBF41F8040BFAE71949A2
:10C08000194A1A4B9A423EBF51F8040B42F8040B6E
:10C09000F8E700201649174A91423CBF41F8040BCB
:10C0A000FAE701F09DF8144C144DAC4203DA54F851
:10C0B000041B8847F9E706F03BFB114C114DAC42DD
:10C0C00003DA54F8041B8847F9E701F091B800003F
:10C0D00000080020555555550000002000040020A0
:10C0E00000040020B07B0108000800208C10002014
:10C0F00090100020442F002000C0000800C000085D
:10C1000000C0000800C0000800000000000000009F
:10C110002DE9F04F2DED108AC1F80CD0D0F80CD0DD
:10C12000BDEC108ABDE8F08F002383F31188284608
:10C13000A047002001F06CFB01F08AFA00DFFEE767
:10C1400081F0004102E000BF83F0004330B54FEAC8
:10C1500041044FEA430594EA050F08BF90EA020F35
:10C160001FBF54EA000C55EA020C7FEA645C7FEAC8
:10C17000655C00F0E2804FEA5454D4EB5555B8BFEB
:10C180006D420CDD2C4480EA020281EA030382EA5C
:10C19000000083EA010180EA020281EA0303362DEE
:10C1A00088BF30BD11F0004F4FEA01314FF4801CC1
:10C1B0004CEA113102D0404261EB410113F0004FD3
:10C1C0004FEA03334CEA133302D0524263EB43038A
:10C1D00094EA050F00F0A780A4F10104D5F1200E28
:10C1E0000DDB02FA0EFC22FA05F2801841F1000183
:10C1F00003FA0EF2801843FA05F359410EE0A5F157
:10C2000020050EF1200E012A03FA0EFC28BF4CF087
:10C21000020C43FA05F3C01851EBE37101F000453D
:10C2200007D54FF0000EDCF1000C7EEB00006EEB4A
:10C230000101B1F5801F1BD3B1F5001F0CD34908D4
:10C240005FEA30004FEA3C0C04F101044FEA44522B
:10C2500012F5800F80F09A80BCF1004F08BF5FEAB2
:10C26000500C50F1000041EB045141EA050130BD92
:10C270005FEA4C0C404141EB010111F4801FA4F135
:10C280000104E9D191F0000F04BF01460020B1FA8A
:10C2900081F308BF2033A3F10B03B3F120020CDAC2
:10C2A0000C3208DD02F1140CC2F10C0201FA0CF0A0
:10C2B00021FA02F10CE002F11402D8BFC2F1200C05
:10C2C00001FA02F120FA0CFCDCBF41EA0C019040BB
:10C2D000E41AA2BF01EB0451294330BD6FEA040404
:10C2E0001F3C1CDA0C340EDC04F11404C4F12002EF
:10C2F00020FA04F001FA02F340EA030021FA04F301
:10C3000045EA030130BDC4F10C04C4F1200220FA57
:10C3100002F001FA04F340EA0300294630BD21FA95
:10C3200004F0294630BD94F0000F83F4801306BF5B
:10C3300081F480110134013D4EE77FEA645C18BF4F
:10C340007FEA655C29D094EA050F08BF90EA020FE6
:10C3500005D054EA000C04BF1946104630BD91EADE
:10C36000030F1EBF0021002030BD5FEA545C05D1E1
:10C370004000494128BF41F0004130BD14F5800420
:10C380003CBF01F5801130BD01F0004545F0FE4194
:10C3900041F470014FF0000030BD7FEA645C1ABFC9
:10C3A000194610467FEA655C1CBF0B46024650EA00
:10C3B000013406BF52EA033591EA030F41F400212C
:10C3C00030BD00BF90F0000F04BF0021704730B5B2
:10C3D0004FF4806404F132044FF000054FF0000187
:10C3E00050E700BF90F0000F04BF0021704730B548
:10C3F0004FF4806404F1320410F0004548BF40421D
:10C400004FF000013EE700BF42004FEAE2014FEA71
:10C4100031014FEA02701FBF12F07F4393F07F4F4C
:10C4200081F06051704792F0000F14BF93F07F4F7E
:10C43000704730B54FF4607401F0004521F00041C1
:10C4400020E700BF50EA010208BF704730B54FF047
:10C4500000050AE050EA010208BF704730B511F04C
:10C46000004502D5404261EB41014FF4806404F184
:10C4700032045FEA915C3FF4DCAE4FF003025FEA06
:10C48000DC0C18BF03325FEADC0C18BF033202EB8E
:10C49000DC02C2F1200300FA03FC20FA02F001FAE8
:10C4A00003FE40EA0E0021FA02F11444C1E600BF87
:10C4B00070B54FF0FF0C4CF4E06C1CEA11541DBF3A
:10C4C0001CEA135594EA0C0F95EA0C0F00F0DEF805
:10C4D0002C4481EA030621EA4C5123EA4C5350EAEA
:10C4E000013518BF52EA033541F4801143F480133B
:10C4F00038D0A0FB02CE4FF00005E1FB02E506F0CC
:10C500000042E0FB03E54FF00006E1FB03569CF020
:10C51000000F18BF4EF0010EA4F1FF04B6F5007F26
:10C5200064F5407404D25FEA4E0E6D4146EB060698
:10C5300042EAC62141EA55514FEAC52040EA5E5021
:10C540004FEACE2EB4F1FD0C88BFBCF5E06F1ED8CB
:10C55000BEF1004F08BF5FEA500E50F1000041EB02
:10C56000045170BD06F0004646EA010140EA0200AF
:10C5700081EA0301B4EB5C04C2BFD4EB0C0541EAD1
:10C58000045170BD41F480114FF0000E013C00F3E6
:10C59000AB8014F1360FDEBF002001F0004170BD0A
:10C5A000C4F10004203C35DA0C341BDC04F1140423
:10C5B000C4F1200500FA05F320FA04F001FA05F2AF
:10C5C00040EA020001F0004221F0004110EBD3707C
:10C5D00021FA04F642EB06015EEA430E08BF20EAA8
:10C5E000D37070BDC4F10C04C4F1200500FA04F34B
:10C5F00020FA05F001FA04F240EA020001F00041DD
:10C6000010EBD37041F100015EEA430E08BF20EA4F
:10C61000D37070BDC4F1200500FA05F24EEA020E97
:10C6200020FA04F301FA05F243EA020321FA04F0C6
:10C6300001F0004121FA04F220EA020000EBD3707D
:10C640005EEA430E08BF20EAD37070BD94F0000F7D
:10C650000FD101F00046400041EB010111F4801FB1
:10C6600008BF013CF7D041EA060195F0000F18BF62
:10C67000704703F00046520043EB030313F4801F9E
:10C6800008BF013DF7D043EA0603704794EA0C0F58
:10C690000CEA135518BF95EA0C0F0CD050EA41066E
:10C6A00018BF52EA4306D1D181EA030101F00041EB
:10C6B0004FF0000070BD50EA410606BF1046194613
:10C6C00052EA430619D094EA0C0F02D150EA01361F
:10C6D00013D195EA0C0F05D152EA03361CBF104660
:10C6E00019460AD181EA030101F0004141F0FE41FF
:10C6F00041F470014FF0000070BD41F0FE4141F483
:10C70000780170BD70B54FF0FF0C4CF4E06C1CEA82
:10C7100011541DBF1CEA135594EA0C0F95EA0C0F37
:10C7200000F0A7F8A4EB050481EA030E52EA0335F2
:10C730004FEA013100F088804FEA03334FF0805513
:10C7400045EA131343EA12634FEA022245EA111540
:10C7500045EA10654FEA00260EF000419D4208BFF1
:10C76000964244F1FD0404F5407402D25B084FEA9E
:10C770003202B61A65EB03055B084FEA32024FF44A
:10C7800080104FF4002CB6EB020E75EB030E22BFA7
:10C79000B61A754640EA0C005B084FEA3202B6EB67
:10C7A000020E75EB030E22BFB61A754640EA5C0016
:10C7B0005B084FEA3202B6EB020E75EB030E22BFA6
:10C7C000B61A754640EA9C005B084FEA3202B6EBA7
:10C7D000020E75EB030E22BFB61A754640EADC0066
:10C7E00055EA060E18D04FEA051545EA16754FEAC8
:10C7F00006164FEAC30343EA52734FEAC2025FEAE6
:10C800001C1CC0D111F4801F0BD141EA00014FF074
:10C8100000004FF0004CB6E711F4801F04BF014345
:10C820000020B4F1FD0C88BFBCF5E06F3FF6AFAE61
:10C83000B5EB030C04BFB6EB020C5FEA500C50F1F1
:10C84000000041EB045170BD0EF0004E4EEA113174
:10C8500014EB5C04C2BFD4EB0C0541EA045170BD7B
:10C8600041F480114FF0000E013C90E645EA060EBF
:10C870008DE60CEA135594EA0C0F08BF95EA0C0FED
:10C880003FF43BAF94EA0C0F0AD150EA01347FF435
:10C8900034AF95EA0C0F7FF425AF104619462CE70C
:10C8A00095EA0C0F06D152EA03353FF4FDAE10466F
:10C8B000194622E750EA410618BF52EA43067FF4C0
:10C8C000C5AE50EA41047FF40DAF52EA43057FF450
:10C8D000EBAE12E7000000000000000000000000C6
:10C8E0004FEA410212F5001215D211D56FF4787398
:10C8F000B3EB625212D94FEAC12343F0004343EA3B
:10C90000505311F0004F23FA02F018BF4042704715
:10C910004FF00000704750EA013005D111F000409F
:10C9200008BF6FF0004070474FF00000704700BF35
:10C930004FEA4102B2F1E04324BFB3F5001CDCF141
:10C94000FE5C0DD901F0004C4FEAC0024CEA507079
:10C95000B2F1004F40EB830008BF20F001007047A8
:10C9600011F0804F21D113F13872BCBF01F00040AB
:10C97000704741F480114FEA5252C2F11802C2F1DD
:10C98000200C10FA0CF320FA02F018BF40F001005E
:10C990004FEAC1234FEAD32303FA0CFC40EA0C0010
:10C9A00023FA02F34FEA4303CCE77FEA625307D14D
:10C9B00050EA01331EBF4FF0FE4040F44000704784
:10C9C00001F0004040F0FE4040F40000704700BF1E
:10C9D000844641EA000313F003036DD1403A41D38A
:10C9E00051F8043B40F8043B51F8043B40F8043B49
:10C9F00051F8043B40F8043B51F8043B40F8043B39
:10CA000051F8043B40F8043B51F8043B40F8043B28
:10CA100051F8043B40F8043B51F8043B40F8043B18
:10CA200051F8043B40F8043B51F8043B40F8043B08
:10CA300051F8043B40F8043B51F8043B40F8043BF8
:10CA400051F8043B40F8043B51F8043B40F8043BE8
:10CA500051F8043B40F8043B51F8043B40F8043BD8
:10CA6000403ABDD2303211D351F8043B40F8043B78
:10CA700051F8043B40F8043B51F8043B40F8043BB8
:10CA800051F8043B40F8043B103AEDD20C3205D388
:10CA900051F8043B40F8043B043AF9D2043208D080
:10CAA000D2071CBF11F8013B00F8013B01D30B88F2
:10CAB00003806046704700BF082A13D38B078DD0D0
:10CAC00010F003038AD0C3F10403D21ADB071CBFA2
:10CAD00011F8013B00F8013B80D331F8023B20F80C
:10CAE000023B7BE7043AD9D3013A11F8013B00F845
:10CAF000013BF9D20B7803704B7843708B788370CD
:10CB000060467047000000000000000000000000C8
:10CB10004FF0FF3C06E000BF4FF0010C02E000BF09
:10CB20004FF0010C4DF804CD4FEA410C7FEA6C5CEC
:10CB30004FEA430C18BF7FEA6C5C1BD001B050EA8F
:10CB4000410C0CBF52EA430C91EA030F02BF90EA7A
:10CB5000020F0020704710F1000F91EA030F58BF39
:10CB6000994208BF90422CBFD8176FEAE37040F09B
:10CB7000010070474FEA410C7FEA6C5C02D150EA39
:10CB8000013C07D14FEA430C7FEA6C5CD6D152EAF4
:10CB9000033CD3D05DF8040B704700BF84461046B9
:10CBA00062468C461946634600E000BF01B5FFF7B8
:10CBB000B7FF002848BF10F1000F01BD4DF808ED88
:10CBC000FFF7F4FF0CBF012000205DF808FB00BF59
:10CBD0004DF808EDFFF7EAFF34BF012000205DF8B3
:10CBE00008FB00BF4DF808EDFFF7E0FF94BF012000
:10CBF00000205DF808FB00BF4DF808EDFFF7CEFF01
:10CC000094BF012000205DF808FB00BF4DF808ED3F
:10CC1000FFF7C4FF34BF012000205DF808FB00BF10
:10CC200053B94AB9002908BF00281CBF4FF0FF3193
:10CC30004FF0FF3000F03CB882B0EC462DE90050D8
:10CC400000F01EF8DDF804E002B00CBC704700BF35
:10CC50002DE9F041069C154606460F46984600F021
:10CC60002FF805FB01F300FB0838A5FB0023B21ADF
:10CC7000434467EB0303C4E90023BDE8F08100BF30
:10CC80002DE9F041069C904606460F461D4600F0F1
:10CC900067F900FB05F5A0FB082308FB0155B21A54
:10CCA0002B4467EB0303C4E90023BDE8F08100BF18
:10CCB000704700BF000000000000000000000000FE
:10CCC00000292DE9F043C0F2A6800026002BC0F217
:10CCD0009C80884694469E46154604460F46002B87
:10CCE0003DD18A4259D9B2FA82F33BB1C3F1200255
:10CCF0009F4020FA02F29D4017439C40290C220CD1
:10CD0000B7FBF1FEA8B201FB1E7742EA074700FB22
:10CD10000EF3BB420AD97F190EF1FF3280F0058174
:10CD2000BB4240F20281AEF1020E2F44FF1AA4B2C0
:10CD3000B7FBF1F301FB137744EA074700FB03F06D
:10CD4000B84208D97F1903F1FF3280F0F080B84271
:10CD500040F2ED80023B43EA0E43002203E08B42A7
:10CD60000FD900221346341C18BF012460424FF033
:10CD7000000565EB45015840514000196941BDE887
:10CD8000F083B3FA83F2002A40F086808B4202D30C
:10CD9000844500F2DB800123E5E712B90123B3FBF0
:10CDA000F2F5B5FA85F000283BD1781B4FEA154E15
:10CDB0001FFA85FC0122B0FBFEF8210C0EFB1807C0
:10CDC00041EA07470CFB08F3BB4207D97F1908F17A
:10CDD000FF3102D2BB4200F2BD808846FF1AA4B2E6
:10CDE000B7FBFEF30EFB137744EA07470CFB03FC8B
:10CDF000BC4507D97F1903F1FF3102D2BC4500F2CF
:10CE0000A7800B4643EA0843ADE752426FEA0606A5
:10CE100063EB43035DE7404261EB41014FF0FF36B6
:10CE200054E7C0F1200224FA02F107FA00F385402A
:10CE30004FEA154ED7401943B7FBFEF20B0C0EFB21
:10CE400012771FFA85FC43EA07430CFB02F79F4267
:10CE500004FA00F407D95B1902F1FF3074D29F4243
:10CE600072D9023A2B44DF1B89B2B7FBFEF80EFBE6
:10CE7000187341EA03430CFB08F79F4208D95B197A
:10CE800008F1FF315CD29F425AD9A8F102082B4425
:10CE9000D81B48EA02428EE7C2F120032CFA03F1C4
:10CEA0000EFA02FE20FA03F741EA0E0E08FA02F02B
:10CEB00028FA03F14FEA1E453843B1FBF5F8030C9D
:10CEC00005FB18111FFA8EF743EA014107FB08F32F
:10CED0008B420CFA02FC09D911EB0E0108F1FF3963
:10CEE00030D28B422ED9A8F102087144C91A80B2FF
:10CEF000B1FBF5F305FB131140EA014107FB03F712
:10CF00008F4208D911EB0E0103F1FF3016D28F4288
:10CF100014D9023B714443EA0843C91BA3FB0C89A3
:10CF2000494509D305D000221DE79646FEE6134683
:10CF300011E794404445F6D2013BF4E70346EAE7A3
:10CF40008846A5E7C846D1E702468CE713460AE7BC
:10CF5000023B57E7A8F102082F443FE7000000001A
:10CF60002DE9F041002B44D18A42154604464FD9A1
:10CF7000B2FA82F70E464FB1C7F12003B94020FA4A
:10CF800003F602FA07F50E4300FA07F44FEA154ECE
:10CF9000230CB6FBFEF0AFB20EFB106143EA014377
:10CFA00007FB00F1994209D95B1900F1FF3280F0CB
:10CFB000EC80994240F2E98002382B445A1AA4B21C
:10CFC000B2FBFEF30EFB132244EA024207FB03F717
:10CFD000974208D9521903F1FF3180F0D880974267
:10CFE00040F2D580023B43EA004000263146BDE8CE
:10CFF000F0818B4247D8B3FA83F6002E48D18B429A
:10D0000002D3824200F2CD8001203146BDE8F0819A
:10D0100012B90125B5FBF2F5B5FA85F8B8F1000FA4
:10D0200077D14A1B4FEA154EAFB20126B2FBFEF094
:10D03000230C0EFB102143EA014107FB00F38B4256
:10D0400007D9491900F1FF3202D28B4200F2BA80AF
:10D050001046C91AA4B2B1FBFEF30EFB131144EA49
:10D06000014407FB03F7A74208D9641903F1FF3213
:10D0700080F08F80A74240F28C80023B43EA004060
:10D080003146BDE8F081002630463146BDE8F081EA
:10D09000C6F1200422FA04F5B3402B4320FA04FC25
:10D0A00001FA06F721FA04F54FEA134E4CEA070796
:10D0B000B5FBFEF8390C0EFB18551FFA83FC41EA4C
:10D0C00005450CFB08F1A94202FA06F204D9ED1855
:10D0D00008F1FF3467D3A0466D1ABFB2B5FBFEF46A
:10D0E0000EFB145547EA05410CFB04FC8C4504D9A2
:10D0F000C91804F1FF355CD32C4644EA0844CCEB54
:10D100000101A4FB0223994248D344D020460026C3
:10D110006CE7C8F1200401FA08F305FA08F520FAD3
:10D1200004F7E1404FEA154E1F43B1FBFEF63A0CFF
:10D130000EFB16111FFA85FC42EA01430CFB06F2B6
:10D140009A4200FA08F407D95B1906F1FF3137D289
:10D150009A4235D9023E2B449B1ABFB2B3FBFEF074
:10D160000EFB103347EA03430CFB00F1994207D949
:10D170005B1900F1FF3221D299421FD902382B44AA
:10D180005A1A40EA0646674650E7104616E70B462D
:10D1900029E7134672E7B0409042B7D2601E0026DE
:10D1A00024E7304622E7A94295D9A8F102081D4498
:10D1B00092E78C45A0D9023C19449EE71046DFE770
:10D1C0000E46C9E70238294443E700BF00000000CB
:10D1D000704700BF000000000000000000000000D9
:10D1E000704700BF000000000000000000000000C9
:10D1F000FEE700BF0000000000000000000000008B
:10D20000FEE700BF0000000000000000000000007A
:10D21000FEE700BF0000000000000000000000006A
:10D22000204B214A2148F0B500249C60DF68204E45
:10D23000204D4FF6FF0139400A43DA60F26842F0B0
:10D240008072F2600268202142F001021026026022
:10D2500083B0DE7783F8221000F0FAF800F078F857
:10D2600000F05EFB00F0D4FC00F00AFD28464021EF
:10D2700000F0FEF9A5F1300301229861027784F3F2
:10D28000118862B69B690C49996105F150000094C0
:10D290004FF4EC71094B00F04BFA094B836103B07A
:10D2A000F0BD00BF00ED00E00003FA05001000E053
:10D2B000F0ED00E0C01000204071010811D200081C
:10D2C00030710108000000000000000000000000B4
:10D2D000F8B5134DAA69D37F0BB1013BD377116A1F
:10D2E000EB69104E01311162AA6AB34202F10102E8
:10D2F000AA6213D09C68013C9C607CB920271A6804
:10D30000D968DC605660EA6184F31188186988473F
:10D3100087F31188EB699A68002AF0D0F8BD00BF46
:10D3200090100020AC100020000000000000000061
:10D33000034A516853685B1A9842FBD8704700BF94
:10D34000001000E0000000000000000000000000ED
:10D35000054B4FF0FF3003F11C0200215862996227
:10D36000DA611A62704700BF9010002000000000D0
:10D3700070B40D4EF469A5680361A942C26004D976
:10D380002468491BA5688D42FAD363684360046032
:10D39000186060608160A3684FF0FF32591AA16085
:10D3A000726270BC704700BF901000200000000047
:10D3B00003688268416830B49D68064C2A449A60CC
:10D3C0000B60056800224FF0FF336960C260636242
:10D3D00030BC7047901000200000000000000000EA
:10D3E00010B4202383F31188037F072B0ED8DFE8C6
:10D3F00003F0270D0D2308040D08426A93680133DA
:10D40000936090E80C001A60026853604FF0FF349C
:10D41000002281680D4B446202771B689A688A4239
:10D42000FBD25A684260036000211060586081F3AB
:10D4300011885DF8044B7047436A00221A60E5E7E3
:10D44000002383F311885DF8044B7047901000208F
:10D45000034B00221B605B601B615B619A6070473D
:10D4600090100020000000000000000000000000FC
:10D4700000228168084B10B4044602771B689A6842
:10D480008A42FBD25A6862602360204614605C6066
:10D490005DF8044B704700BF9010002000000000B2
:10D4A000084B30B41A68996914680877012504207C
:10D4B000C877636015771C60104630BC9A61FEF730
:10D4C00027BE00BF901000200000000000000000F8
:10D4D00030B54B1C87B012D00C4C0D4AA3690546E1
:10D4E00001A8FFF745FF2846FFF7DAFF049B13B1B9
:10D4F00001A8FFF75DFFA369586A07B030BD034C70
:10D50000FFF7CEFFA369586A07B030BD9010002026
:10D51000E1D300080000000000000000000000004F
:10D52000144B70B49E6984680546B0686962844291
:10D530004FF000020BD82A771B689A689442FBD9F7
:10D540005A686A602B6015605D6070BC7047327706
:10D550001A46126891688842FBD9506870600124AD
:10D560003260066056602C77314628469D6170BC5B
:10D57000FEF7CEBD9010002000000000000000006B
:10D58000084B9A691B68D17F9B68906821B98342D8
:10D5900034BF002001207047834294BF0020012047
:10D5A000704700BF90100020000000000000000045
:10D5B0000E4A1068F0B403689469136001270426CA
:10D5C0000025A1685A6007779061E677257700E02B
:10D5D0001B689A688A42FBD25A68626023602146BF
:10D5E00014605C60F0BCFEF793BD00BF901000209B
:10D5F0000D4A106870B40368946913600126002511
:10D60000A1685A6006779061257700E01B689A68E8
:10D610008A42FBD85A6862602360214614605C60CD
:10D6200070BCFEF775BD00BF901000200000000028
:10D63000044B1A689B6992689B689A4200D87047AD
:10D64000FFF7D6BF9010002000000000000000008F
:10D65000034B9B69DB7F0BB1FFF7CABFFFF7A8BF86
:10D6600090100020000000000000000000000000FA
:10D670002DE9F041114C016466694661002200F118
:10D680002C054FF002084FF0040C4FF0010E00F192
:10D6900028078160046180F81C8080F81FC080F832
:10D6A0001EE04277C2638263026282613061606120
:10D6B0008762C5620563BDE8F08100BF901000205D
:10D6C0002DE9F04F6439184FDFF86090D7F814E077
:10D6D000099E01440025C1604FF0020B0B644FF01E
:10D6E000040A00F12C034FF0010800F1280C4E64ED
:10D6F000C1F8609082600761C0F814E0026480F8AD
:10D700001CB080F81FA080F81E804577C563856334
:10D7100005628561CEF81000C0F828C07861C36248
:10D720000363BDE8F08F00BF9010002029C10008FE
:10D730002DE9F84F0446202585F311881A4EDFF8AD
:10D740006CA0776964390144C16000250B6400F165
:10D750002C0B4FF0010C00F1280E0A9B4B644FF08C
:10D7600002094FF00408C1F860A0826006614761B9
:10D77000026480F81C9080F81F8080F81EC04577F6
:10D78000C56385630562856129463861C0F828E074
:10D79000C0F82CB0C0F830B07061FFF7C1FE85F35F
:10D7A00011882046BDE8F88F9010002029C100089C
:10D7B00008B50146202383F311880820FFF788FE6F
:10D7C000002383F3118808BD000000000000000062
:10D7D00038B50E4B9C69A36A606204F128059D422E
:10D7E00007D01A68A2621846FFF742FEA36AAB424E
:10D7F000F7D1637F9B0704D1636922691A612269AB
:10D8000053610F20BDE83840FFF74ABE901000205A
:10D81000202383F31188FFF7DBBF00BF0000000067
:10D8200010B5054CA369036002465A620320FFF756
:10D8300037FEA369586A10BD901000200000000058
:10D8400003682BB10022026018465962FFF710BE30
:10D85000704700BF00000000000000000000000052
:10D8600069B1084B10B4024644689B69042083E800
:10D870001400236053605DF8044BFFF729BE4FF09E
:10D88000FF307047901000200000000000000000F2
:10D8900038B50368984204460D4609D01A682260DC
:10D8A000184654605D62FFF7E3FD23689C42F5D1A2
:10D8B00038BD00BF000000000000000000000000B4
:10D8C000014B5B6883607047001000E000000000BF
:10D8D0000F4B10495A688368F0B48F6FC66841686F
:10D8E000D0E90445D31ADB1BE41845F100050136E5
:10D8F0008B42C6608360C0E9044505D80268934244
:10D9000038BF0360F0BC70474360F0BC704700BF95
:10D91000001000E090100020000000000000000057
:10D92000D0B50C4C86B000234FF0FF32684600267D
:10D930000027A3670193029303930092CDE9046744
:10D94000FFF7BEFF6846FFF7C3FF029BA36706B061
:10D95000D0BD00BF901000200000000000000000BB
:10D960000023006040608360704700BF000000003B
:10D97000836B027F19430A2A81630AD00B2A00D0E5
:10D980007047436A19408B42FAD100234362FFF784
:10D990006FBD436A1942F8D1704700BF0000000014
:10D9A00070B50468A04206460D460DD0E3682B43CF
:10D9B000E36015B12269134203D06068A168FFF7E4
:10D9C000D7FF2468A642F1D170BD00BF000000005F
:10D9D00030B4029C046200250A4485600261006044
:10D9E0004060C16081614161C36130BC704700BF6C
:10D9F0000021C2688160826142616FF00101FFF71E
:10DA000047BF00BF00000000000000000000000051
:10DA100070B520230E46044683F31188C3692BB1E9
:10DA2000984703E0FFF71CFF002815DBA568204698
:10DA30003146002DF6D0A169A36825694A1C013B37
:10DA4000AA42A360A26128BFE368087828BFA36147
:10DA5000002383F3118870BD85F3118870BD00BF6A
:10DA60002DE9F04F044683B0894693461D46D0F811
:10DA70001C80202787F3118800260197B246B8F151
:10DA8000000F05D02046C04702E0FFF7E9FEE0B9ED
:10DA9000A76820462946002FF7D0A269A368511C29
:10DAA000013BA161A360137809F8013B2369A269D6
:10DAB0009A4224BFE368A3618AF311880136B34513
:10DAC00005D0019B83F31188D9E787F3118830468D
:10DAD00003B0BDE8F08F00BF0000000000000000B0
:10DAE00030B4029C04628D18056100604060826061
:10DAF000C16081614161C36130BC704700000000BA
:10DB000010B40269C4688461121B44616FF00101A2
:10DB100082605DF8044BFFF7BBBE00BF0000000051
:10DB2000F8B504460F461646202383F3118803E018
:10DB3000FFF796FE002819DBA56820463146002D28
:10DB4000F6D06269A368511C013B6161A360177044
:10DB5000236962699A4224BFE3686361E3690BB198
:10DB600020469847002080F31188F8BD85F311887E
:10DB7000F8BD00BF00000000000000000000000031
:10DB80002DE9F04F83B004468B4615460193C769D3
:10DB90004FF0200888F311880026B146A3680BF1E6
:10DBA000010A2046FBB16269A368511C013B616117
:10DBB000A3609BF800301370236962699A4224BF06
:10DBC000E368636107B1B84789F31188013D06F145
:10DBD000010612D088F31188A368D3460BF1010A1D
:10DBE0002046002BDFD1204601990093FFF738FE35
:10DBF000009B0028D2D083F31188304603B0BDE8E3
:10DC0000F08F00BF000000000000000000000000D6
:10DC1000054A064B0648074922F0070223F007038E
:10DC200002600B60704700BF4B2F002000000220F5
:10DC3000EC120020E81200200000000000000000AC
:10DC400010B4202383F31188094C0A4B2268196809
:10DC5000C31D23F00703891A8B429DBF9B182360C5
:10DC600010460020002383F311885DF8044B7047B1
:10DC7000EC120020E812002000000000000000006C
:10DC8000044B054A1A6003F1100000229A60DA6022
:10DC9000FFF766BEF012002041DC00080000000023
:10DCA000064A536823F001035360EFF30983683396
:10DCB00083F30988002383F31188704730EF00E075
:10DCC000202383F31188124B5B6813F4006302D1A5
:10DCD00083F31188704710B5F1EE103AEFF3098421
:10DCE0000C4B4FF08072DB6844F8083C44F84C2C35
:10DCF000A4F1680383F30988FFF742FC18B1064BCF
:10DD000044F8503C10BD054B44F8503C10BD00BFDA
:10DD100000ED00E030EF00E039C100083CC1000830
:10DD200008B500F065FF0A4801F07AF900F018F82C
:10DD300000F046F800F054F800F022FA00F030FA53
:10DD400000F006F902F07CFABDE8084000F010BAD5
:10DD5000C072010800000000000000000000000088
:10DD600001F046B9000000000000000000000000C3
:10DD7000F0B500F1080200F110034FF0010C4FF074
:10DD8000000E00F1180700F11C0600F1200500F15B
:10DD9000240400F1280180F800C0C0F804E0876185
:10DDA000C6610562446281628260C2600361436150
:10DDB000F0BD00BF000000000000000000000000F7
:10DDC00001F05EBB00000000000000000000000049
:10DDD00001220023027043600C30FFF7C1BD00BF79
:10DDE00002F06EB90000000000000000000000001A
:10DDF0000122002302704360704700BF0000000052
:10DE000010B5046AD4F8542213681978042900D094
:10DE100010BD217A0229FBD111791A8901238B4087
:10DE20001A40F5D1216CE36BA06BCB1A1B1AEFD013
:10DE300082F31188D4F854221068117904F1300269
:10DE400000F00EFA202383F31188D4F85432BDE891
:10DE500010401868197900F02BBA00BF00000000CC
:10DE600038B5046AD4F8542213681978042900D00C
:10DE700038BD217A0229FBD15079598903EB8003FF
:10DE80000122DB6882400A405B8AF1D1A169E06926
:10DE90006569401A411B8B42EAD882F31188B1FBB5
:10DEA000F3F1D4F8542203FB01F31068517904F123
:10DEB0000C0200F0C5F9202383F31188D4F8543202
:10DEC00018685979BDE8384000F0DAB90000000060
:10DED0000C30FFF7C5BD00BF0000000000000000CF
:10DEE0000C304FF0FF33FFF7BBBD00BF0000000058
:10DEF0003030FFF745BE00BF00000000000000000A
:10DF000030304FF0FF33FFF73BBE00BF0000000092
:10DF10000C30FFF77DBD00BF0000000000000000D6
:10DF20000C304FF0FF31FFF773BD00BF0000000061
:10DF30003030FFF7F5BD00BF00000000000000001A
:10DF400030304FF0FF32FFF7EBBD00BF00000000A4
:10DF5000704700BF0000000000000000000000004B
:10DF600010B503460E4A43F8042B82B00446012242
:10DF7000009004F15401436002720A4B0C304FF4DC
:10DF80008072FFF725FD009404F1300004F5AA71BA
:10DF90004FF48072044BFFF7A3FD02B010BD00BF29
:10DFA0006071010861DE000801DE00080000000069
:10DFB0000B68202282F311880A7903EB82029061B8
:10DFC0004A79093243F822008A7912B103EB8203BD
:10DFD000986102230372C0F85412002383F311885E
:10DFE000704700BF000000000000000000000000BB
:10DFF00070B5D0F8543200F10C06044630461D6866
:10E00000FFF7F6FC04F13000FFF77AFD201D012137
:10E01000FFF7C6FCD4F85432597905EB8103284642
:10E02000DB6832465B8A00F00BF9D4F8543228469C
:10E030005979BDE8704000F023B900BF000000002E
:10E0400090F8443003F06003202B01D0002070478B
:10E0500090F84530212B03D0222B09D0202BF5D16D
:10E06000064B836307220023C263036401207047C9
:10E0700000238363C363036401207047000800200A
:10E08000F8B500EB81039C69BCB10E46054620271C
:10E0900087F311880821201DFFF782FC226CE36BB7
:10E0A000A16BD31A5B1A10D105EB8603DB685A69A2
:10E0B00052681AB9002383F31188F8BD1B8A013B0B
:10E0C0001340F7D183F3118802E0002282F3118814
:10E0D00004F130022846314600F0C2F887F3118877
:10E0E0002846314600F0E4F8E4E700BF00000000F5
:10E0F0002DE9F84301F1090350F82360BEB18046D1
:10E100000F464FF0200989F3118804217018FFF79A
:10E1100047FC08EB8703B469DA68F5697369518ACB
:10E120002D1BEC1AA14204D9002383F31188BDE80A
:10E13000F883002383F31188B4FBF1F306F10C029A
:10E1400001FB03F34046394600F07AF889F3118861
:10E150004046394600F094F8E6E700BF00000000B2
:10E16000704700BF00000000000000000000000039
:10E1700001F0C6BF00000000000000000000000029
:10E1800002F02EB8000000000000000000000000B7
:10E19000002301220270437083704360704700BF08
:10E1A00001F05EBB00000000000000000000000065
:10E1B0000023012202704360C36183620362C36271
:10E1C0004362036303814381704700BF0000000086
:10E1D00038B50446202383F3118800254160C560CB
:10E1E00005614561856101F053FB0223237085F3CE
:10E1F000118838BD00000000000000000000000091
:10E2000070B50646506914460D4618B10021142217
:10E2100005F0D6F9A06918B10021142205F0D0F953
:10E2200006EB85033046DC602946BDE8704001F00E
:10E230001FBC00BF00000000000000000000000044
:10E2400070B400EB81040126E468A4690025E26053
:10E2500063602670A56070BC01F0EABC000000009D
:10E2600070B400EB81040126E46864690025E26073
:10E2700063602670A56070BC01F05ABD000000000C
:10E28000012270B502FA01F344899BB213EA040635
:10E2900001D0104670BD2343438101F059FE304642
:10E2A00070BD00BF00000000000000000000000082
:10E2B000012270B502FA01F304899BB213EA040645
:10E2C00001D0104670BD2343038101F051FE30465A
:10E2D00070BD00BF00000000000000000000000052
:10E2E000002202210170A0F84C2080F84E2080F816
:10E2F0004F2002814281C26002614261826180F8E6
:10E30000342001F03DBB00BF000000000000000011
:10E31000F8B50023044680F8343000F1440201F0DF
:10E3200077FC63689B6863B32046984748B3E56B06
:10E3300094F8443094F84B1094F84A2042EA0122B1
:10E34000AA423CBFE263154613F0800FE36840F039
:10E350008880002D6DD15B69052284F83420204629
:10E360001D70DD605D609D60294601F0E1FC2023A9
:10E3700083F3118820462946FFF79AFF85F3118819
:10E38000F8BD94F8443013F0600711D02046002106
:10E3900001F016FE2046002101F002FE63681B68B2
:10E3A00013B1204605219847062384F83430F8BD80
:10E3B00094F8455003F07F0242EA0526B6F5407F07
:10E3C00000F0008117D9B6F5C06F00F0E28077D970
:10E3D000B6F5106F00F0878040F60242964200F0DA
:10E3E0000481B6F5006FD1D104F14F0201252764F5
:10E3F000A263E5639EE7022E00F0B48040F2A9809C
:10E40000B6F5807F00F09580B6F5817FBED194F897
:10E410004620002ABAD194F8482012F00F015DD0AE
:10E420001206204600F1098101F0DAFD94F844302B
:10E4300054E09B69A26B0026042184F83410204626
:10E44000DA605D601E709E60314601F0F1FB2023B2
:10E4500083F3118820463146FFF712FF86F31188B7
:10E46000F8BDBDB15B69A26B0026012184F83410B0
:10E470002046DA605D601E709E60314601F058FCF7
:10E48000202383F3118820463146FFF711FF86F3DE
:10E490001188F8BD9B69032284F8342020461D7042
:10E4A000DD605D609D60294601F0C2FB202383F39F
:10E4B000118820462946FFF7E3FE85F31188F8BD51
:10E4C00040F20232964221D0B6F5A06F7FF45EAFE3
:10E4D000B4F84420B2F5A06F00F09D800025A5633C
:10E4E000E563256426E794F8462084F84F20002A47
:10E4F00040F082800322227062681268002AEDD008
:10E5000020460221904794F84430E7E794F84620EB
:10E51000002A7FF43BAF94F8482012F00F01DDD0C1
:10E520001306204600F18E8001F03AFD94F8443045
:10E53000D4E794F84620012A7FF428AFB4F84C20A1
:10E54000A76322F00202E76327643D46A4F84C204B
:10E55000F0E6002E46D104F14C0202252664A263A7
:10E56000E563E7E694F8481011F0800F204601F0CB
:10E570000F0144D101F02CFB012844D002287FF484
:10E5800005AF334BA363E0632764054694F844303A
:10E59000D0E6626894F8490094F84830556894F8D9
:10E5A000471094F8462043EA00232046A847002855
:10E5B0003FF4ECAE43680568E563A363276494F811
:10E5C0004430B7E694F84620012A7FF4DFAEB4F871
:10E5D0004C20A76342F00202E76327643D46A4F89B
:10E5E0004C20A7E6012E7FF4D1AE1A4AA263022581
:10E5F0000022E56322649DE6042222707CE701F09C
:10E60000F7FA0128BAD1144BA363E66327643546B1
:10E6100094F844308EE694F8463084F84E30204624
:10E6200001F016FA63681B6813B120460121984770
:10E63000032294F84430227050E701F0E1FC94F892
:10E6400044304BE701F0BCFC94F8443046E700BF8F
:10E650009071010880710108A0710108000000009C
:10E6600038B590F834300446062B15D8DFE803F0AF
:10E6700004341C0404150400002101F0A1FC204610
:10E68000002101F08DFC63681B6813B12046052151
:10E690009847062384F8343038BD036C03B198479B
:10E6A000002384F8343038BDC3689B6900250322F9
:10E6B00084F8342029461D70DD605D609D60204631
:10E6C00001F0B6FA202383F3118820462946FFF78C
:10E6D000D7FD85F3118838BD90F84B2090F84A306B
:10E6E000C16B43EA02238B42C368DED91D8AB1FBAA
:10E6F000F5F205FB1215002DD7D15B6929461D7077
:10E70000DD605D609D6001F013FB202383F31188C1
:10E7100020462946FFF7CCFD85F31188022384F8B3
:10E72000343038BD00000000000000000000000090
:10E7300090F83420062A38B50AD80123934013F004
:10E74000670F044611D113F0080502D1DB061DD472
:10E7500038BDC3689B699B68002BF9D1036C03B17A
:10E760009847002384F8343038BD002101F028FC9C
:10E770002046002101F014FC63681B6813B1204699
:10E7800005219847062384F8343038BDC3685B6997
:10E79000052280F8342029461D70DD605D609D6093
:10E7A00001F0C6FA202383F3118820462946FFF79B
:10E7B0007FFD85F3118838BD0000000000000000D7
:10E7C00043099B0010B403F1604300F1604404F579
:10E7D000614403F56143090100F01F0001228240FA
:10E7E000C9B284F80013C3F880211A605DF8044BA5
:10E7F000704700BF000000000000000000000000A3
:10E8000000F1604000F56D400901C9B20176704722
:10E8100008B5074B074A196801F03D019960136874
:10E820000BB150689847BDE80840FFF749BA00BFF0
:10E8300000600240101300200000000000000000F3
:10E84000084B094819688268890901F03D0110B533
:10E850008C019C600AB1C0689047BDE81040FFF78A
:10E860002FBA00BF0060024010130020000000001B
:10E87000084B094819680269090C01F03D0110B5FF
:10E880000C049C600AB140699047BDE81040FFF756
:10E8900017BA00BF00600240101300200000000003
:10E8A000084B094819688269890D01F03D0110B5CE
:10E8B0008C059C600AB1C0699047BDE81040FFF725
:10E8C000FFB900BF006002401013002000000000EC
:10E8D00008B5074B07485968026A01F03D01D96045
:10E8E0000AB1406A9047BDE80840FFF7E9B900BFA8
:10E8F0000060024010130020000000000000000033
:10E90000084B09485968826A890901F03D0110B530
:10E910008C01DC600AB1C06A9047BDE81040FFF787
:10E92000CFB900BF006002401013002000000000BB
:10E93000084B09485968026B090C01F03D0110B5FC
:10E940000C04DC600AB1406B9047BDE81040FFF753
:10E95000B7B900BF006002401013002000000000A3
:10E96000084B09485968826B890D01F03D0110B5CB
:10E970008C05DC600AB1C06B9047BDE81040FFF722
:10E980009FB900BF0060024010130020000000008B
:10E9900008B5074B07481968026C01F03D01996002
:10E9A0000AB1406C9047BDE80840FFF789B900BF45
:10E9B000006402401013002000000000000000006E
:10E9C000084B09481968826C890901F03D0110B5AE
:10E9D0008C019C600AB1C06C9047BDE81040FFF705
:10E9E0006FB900BF00640240101300200000000057
:10E9F000084B09481968026D090C01F03D0110B57A
:10EA00000C049C600AB1406D9047BDE81040FFF7D0
:10EA100057B900BF0064024010130020000000003E
:10EA2000084B09481968826D890D01F03D0110B548
:10EA30008C059C600AB1C06D9047BDE81040FFF79F
:10EA40003FB900BF00640240101300200000000026
:10EA500008B5074B07485968026E01F03D01D960BF
:10EA60000AB1406E9047BDE80840FFF729B900BFE2
:10EA700000640240101300200000000000000000AD
:10EA8000084B09485968826E890901F03D0110B5AB
:10EA90008C01DC600AB1C06E9047BDE81040FFF702
:10EAA0000FB900BF006402401013002000000000F6
:10EAB000084B09485968026F090C01F03D0110B577
:10EAC0000C04DC600AB1406F9047BDE81040FFF7CE
:10EAD000F7B800BF006402401013002000000000DF
:10EAE000084B09485968826F890D01F03D0110B546
:10EAF0008C05DC600AB1C06F9047BDE81040FFF79D
:10EB0000DFB800BF006402401013002000000000C6
:10EB10000D4B30B400220D4D0D4C1A6011461346BA
:10EB2000A858016044F833100133102B02F10C0295
:10EB3000F6D10849084A4FF0FF338B6030BCCB60F8
:10EB40009360D360704700BF90130020B07101083C
:10EB5000101300200060024000640240000000002A
:10EB6000F8B51F4F467A3D68012404FA06FE1EEAF6
:10EB7000050F31D11B4C4EEA050504EBC60C15F010
:10EB8000FF0F3D6044F83620CCF8043004D0164C1A
:10EB9000236B43F40013236315F47F4F16D10568EC
:10EBA0002B6823F01F032B602B6813F00104FBD1AB
:10EBB000077A46683D23BB40212733602C606F6194
:10EBC00062B1807AFFF7FCFD2046F8BD064C236B4E
:10EBD00043F480032363E2E72046F8BD1046F8BD06
:10EBE00090130020101300200038024000000000A5
:10EBF000174B4FF0FF311A69002210B419611A61E6
:10EC0000586959615A61186A124C60F08050186254
:10EC10001A62586A59625A62196C41F0805119643B
:10EC2000216841F480712160196F01F44071B1F5E0
:10EC3000007F03D04FF4803119671A67054A5DF8E9
:10EC4000044B536823F400735360FFF761BF00BFA8
:10EC5000003802400070004000000000000000008A
:10EC60002C492D4B4FF080504FF4404208641A60FD
:10EC70000B6843F001030B600A68264B9007FBD535
:10EC80009A6822F003029A609A689A6019468B6823
:10EC9000204A13F00C03FAD1116801F0F901116058
:10ECA0009360136843F4803313601168194B890330
:10ECB000FBD55A6F42F001025A675A6F1549900707
:10ECC000FBD5164B4B600B68134A43F080730B6007
:10ECD00053685904FCD50F490A680E4B9201FBD5C5
:10ECE0000F4A1049996040F2057111609A6842F02C
:10ECF00002029A601A469368064903F00C03082B37
:10ED0000F9D14B6C43F480434B644B6E43F4804326
:10ED10004B667047003802400070004008544007BE
:10ED2000003C024000940838000000000000000091
:10ED3000F0B5434C434D236C43F000732364D5F886
:10ED400000321B0C1B0443F0010343EA0023C5F807
:10ED5000003200294ED00023C5F81C321846C5F8F1
:10ED600004321C46C5F80C32C5F81432C30003F156
:10ED7000804303F5C84301301C28C3F84042C3F860
:10ED80004442F3D12F480026012715681479EB007F
:10ED900003F1804314F0010F03F5C84306F10106A7
:10EDA00007FA05F505D0D0F804E245EA0E0EC0F8E2
:10EDB00004E214F0020F05D0D0F80CE245EA0E0E82
:10EDC000C0F80CE2640704D5D0F814422C43C0F814
:10EDD00014429468C3F84042D468C3F84442D0F85F
:10EDE0001C328E4243EA050302F11002C0F81C32C5
:10EDF000CBD118E0C20002F18042012302F5C842E3
:10EE0000834043F00103C5F84012C5F84412C2F82C
:10EE10004012C2F84412C5F80412C5F81412C5F81D
:10EE20000C32C5F81C320749054AD1F8003223F0EC
:10EE30000103C1F80032136C23F000731364F0BDBA
:10EE400000380240006400400000000000000000A4
:10EE500010B50C4C0C49E26A2023916083F31188B1
:10EE6000002104F10800FEF713FD04F11C0001214C
:10EE7000FEF796FD002383F31188BDE81040FEF7EE
:10EE80001FBF00BF9413002001010100000000001B
:10EE900038B5164DEB6ADC68A20711D1E3060BD535
:10EEA000EB6A1021D960202383F311881048FEF704
:10EEB00077FD002383F31188BDE83840FEF700BFDB
:10EEC0005A6922F002025A61202383F3118800213B
:10EED00005F11000FEF7DCFC05F118000121FEF73A
:10EEE0005FFD002383F31188D8E700BF941300204F
:10EEF000B41300200000000000000000000000002B
:10EF000038B5164DEB6A1C69A20711D1E3060BD583
:10EF1000EB6A10211961202383F311881048FEF752
:10EF20003FFD002383F31188BDE83840FEF7C8BEDB
:10EF30005A6922F010025A61202383F311880021BC
:10EF400005F11000FEF7A4FC05F118000221FEF700
:10EF500027FD002383F31188D8E700BF9413002016
:10EF6000B4130020000000000000000000000000BA
:10EF700038B51B4DEB6A5C681C225A6022071DD411
:10EF8000630717D5EA6A9369916921F0700191616D
:10EF900013F0700F03F0070118BF41F008012022A1
:10EFA00082F311880F4841EA0341FEF7F9FC002380
:10EFB00083F31188BDE83840FEF782BE1A68284600
:10EFC00022F00202032100F8281B20211A6081F39D
:10EFD00011880021FEF7E4FC002383F31188CFE7BA
:10EFE00094130020B4130020000000000000000073
:10EFF00010B5064C2046FEF7BBFE0021044BE36231
:10F000000A460E20BDE81040FFF792BE9413002080
:10F01000006400400000000000000000000000004C
:10F020002DE9F04FDFF8B481DFF8B4C1D8F830A093
:10F03000DFF8B0E1634F644E644D654C6549664A44
:10F04000DFF8A4B140F2FF194AEA090AC8F830A073
:10F05000D8F850A04AEA0909C8F850904368CCF89B
:10F0600004308368CCF80830C368CCF80C300369EE
:10F07000CCF814304369CCF820308369CCF82430C4
:10F080000368CCF80030036ACEF80430436ACEF847
:10F090000830836ACEF80C30C36ACEF81430036BA4
:10F0A000CEF82030436BCEF82430C369CEF8003060
:10F0B000C36B7B60036CBB60436CFB60836C7B61E8
:10F0C000C36C3B62036D7B62836B3B60876D7760D3
:10F0D000C76DB760076EF760476E7761876E3762FE
:10F0E000C76E7762476D3760466F6E60866FAE6041
:10F0F000C66FEE60D0F880606E61D0F884602E62DA
:10F10000D0F888606E62066F2E60D0F8905065600F
:10F11000D0F89450A560D0F89850E560D0F89C5095
:10F120006561D0F8A0502562D0F8A4506562D0F88F
:10F130008C502560D0F8AC404C60D0F8B0408C606A
:10F14000D0F8B440CC60D0F8B8404C61D0F8BC40A6
:10F150000C62D0F8C0404C62D0F8A8400C60D0F8E7
:10F16000C8105160D0F8CC109160D0F8D010D160A8
:10F17000D0F8D4105161D0F8D8101162D0F8DC105A
:10F180005162D0F8C4101160D0F8E420CBF804200C
:10F19000D0F8E820CBF80820D0F8EC20CBF80C20F1
:10F1A000D0F8F020CBF81420D0F8F420CBF82020B1
:10F1B000D0F8F820CBF82420D0F8E020CBF80020BD
:10F1C000BDE8F08F00080240000C02400010024031
:10F1D0000014024000180240001C024000380240A7
:10F1E0000000024000040240002002400000000035
:10F1F0002DE9F04F4FF00F0C02F0030EC2F3800721
:10F20000C2F3C106C2F341150024C2F3C3124FF08A
:10F2100001094FF003082BE0D0F820B02BEA0303DC
:10F2200043EA0A030362436809FA04FA23EA0A0379
:10F230003B4343604FEA440A836808FA0AFA6FEADC
:10F240000A0A0AEA030333438360C3680AEA030332
:10F250002B43C36003680AEA030343EA0E03036017
:10F26000490819D07F00B600AD004FEA8E0E013478
:10F2700004F007039B0011F0010F02FA03FA0CFAE5
:10F2800003F3EDD0072CC7D9D0F824B02BEA030341
:10F2900043EA0A034362C6E7BDE8F08F00000000BE
:10F2A0003A483B4A70B5446BA369656945EA034334
:10F2B00023F07F4393424CD01ED8073A93423CD070
:10F2C0000132934210D16268C36A22F400721B6853
:10F2D00062601A6842F001021A60626842F4805269
:10F2E00062605B68012B4BD915F00A0F18BFA36948
:10F2F000BDE87040FEF7E4BC264A934212D00232C9
:10F300009342F1D1C36A1B685E683EB32368028CE6
:10F3100043F4A06342F0010202842360BDE8704020
:10F32000FEF7CEBC6368026B23F40073126863605F
:10F33000136843F001031360D6E7038C1A0A0BD05D
:10F3400003F0010343F0F00302F0060213432361CC
:10F35000CAE7038CC3F347032361C5E7636823F45B
:10F3600000736360236843F400732360202383F3F6
:10F3700011881C303146FEF763FA86F31188B3E733
:10F38000236823F480632360AEE700BFC41300202A
:10F3900008000300820007000000000000000000D9
:10F3A0003448F8B5446B076B66693A68B1B201F44A
:10F3B0005F43DB436361136823F01F03136013682B
:10F3C000DB07FCD497F808E0C56A7F682A683D230C
:10F3D00003FA0EF33B60136823F01F0313601368F6
:10F3E00013F00103FBD12F7A6D683D22BA40CF059F
:10F3F0002A6048BF01238D05836044BF43F00203A8
:10F4000083604A050AD5626822F40072626022684D
:10F4100043F0040342F40072226083600F0544BF8E
:10F4200043F0080383604D0444BF43F0200383602E
:10F43000CC0413D543F010033104836016D4202389
:10F4400083F311880C486FF00101FEF7F9F90023EE
:10F4500083F31188BDE8F840FEF732BC320405D4CE
:10F46000002BECD1BDE8F840FEF72ABC43F0400386
:10F470008360E4E7C4130020E013002000000000D4
:10F4800010B5074C2046FEF7A3FC064B064A626304
:10F49000002103F13C02E161E362226310BD00BF81
:10F4A000C4130020C871010800580040000000008B
:10F4B0002DE9F04FB24BB3499A69D0F850A0916151
:10F4C00085B0202383F3118800F16003D3460393B2
:10F4D00082469AF80030012B06D0DAF85C3063B926
:10F4E000DBF81430DB0608D4DBF81830039843F05F
:10F4F0001003CBF81830FEF793F9002383F311883B
:10F500009846DBF8143013F0100324D0DAF85020BA
:10F51000136A03F4F011B1F5802F31D0B1F5402F0B
:10F52000EFD103F00F010AEB8101C3F30A13C9689D
:10F5300003339B080C6AE4D002F580520221106864
:10F5400011B144F8040B0139013BF8D1DBF8143058
:10F5500013F01003DAD10121DAF85C2001FA08F186
:10F560001142019168D108F10108DAF854309B6822
:10F570005FFA88F89845C4D9202383F31188A8E757
:10F5800003F00F050AEB8505C3F30A14EB689869CD
:10F590000378DBB943688168C6680333591AE31CF2
:10F5A0009B084FEA910109D002F58052B6461768D0
:10F5B00011B14EF8047B0139013BF8D12644C660F5
:10F5C000EB689A699368234493609AE7C06824B310
:10F5D00002F580522646032E416907D903699942F4
:10F5E00004D3C3684361032E4169F7D8D2F800E021
:10F5F000002701F1010C2EFA07F3C0F814C00B70BC
:10F6000003694169994224BFC3684361013E04D044
:10F61000182FE0D008374169EBE7202383F31188E6
:10F620008368234483600021FEF732F9FEF700F877
:10F63000002383F31188C3E7202282F31188DBF8CB
:10F640000810DAF85C20019821F0010122EA00029A
:10F65000CBF80810CAF85C2083F311880AEB8809FC
:10F66000D9F80C0041698A684B689A4280F0B180F1
:10F67000DAF85060078A4FEA4810044630189B1A9F
:10F68000D0F818299F4228BF1F4693B2B7EB830FCB
:10F6900008F101082ED8CDF808B0A3460B78002B4E
:10F6A0003DD1FB1CCC689B0806EB083618BF2246F0
:10F6B00004D052F8040B3060013BFAD13C44CC60DA
:10F6C000D9F80C0041698B684A683B449A428B60C8
:10F6D0007BD9DAF85060008A06EB0B04D71AD4F80D
:10F6E0001839874228BF07469BB2B7EB830FD5D99D
:10F6F000DDF808B00022202383F31188DBF80830FE
:10F7000043F00103CBF808302AB9DBF83438019A0A
:10F710001A43CBF83428002383F3118825E706EB3E
:10F720000836C868E7B1D0F810E03A4693082BD104
:10F73000836900210C465D1C85611B78754503FAC1
:10F7400001F344EA030424BFC3688361013A04D08F
:10F75000182902D008318369EDE73460002AE5D129
:10F76000202383F3118883683B4483600021FEF7E4
:10F770008FF8FDF75DFF002383F31188A0E700BF3A
:10F7800090100020807201088469BEEB040148BF1C
:10F79000033189108B4228BF0B464FEA830CCCEB18
:10F7A000020233B1214651F8045B3560013BFAD1C6
:10F7B0006444A645846104D8C3688361002AB5D136
:10F7C000CEE7002ACCD02346B3E7DDF808B001220B
:10F7D00091E708F10108FAE70000000000000000CE
:10F7E000F0B50024D1F808E025464FF0804C4FF0EA
:10F7F000FF3714E0C1F80059C218C2F81059C2F816
:10F800000879D1F8006B002E17DBC1F8005B0344C8
:10F810000134A645C3F8105BC3F8087B14D3630119
:10F82000C118D1F80029002AE4DAC1F800C90E464F
:10F83000D6F808299207FBD5DEE7C1F800CBD2F84D
:10F84000081BC906FBD5E2E74FF00113C0F81C38CE
:10F85000F0BD00BF0000000000000000000000003C
:10F8600010B5064C2046FEF7A3FC4FF0A043044A17
:10F870002365002362652366636610BD00140020C3
:10F88000707201080000000000000000000000008D
:10F8900070B50378066D012B82B001D002B070BD47
:10F8A000304B9842054618BF34463AD000232E48C4
:10F8B0002E49EB654FF43412F060C6F80018202092
:10F8C000C6F8003EB263FDF733FD012323612369CF
:10F8D000DB07FCD40C20FDF72BFD2369002BFCDAA1
:10F8E0000024B460286D696DFFF77AFF6B68C6F875
:10F8F0001048DB68C6F81448C6F81C486BB143F2E0
:10F900000803B3616B6E4FF0FF327261D3B1B3681D
:10F9100043F00103B36002B070BD4FF44053B361D4
:10F92000F0E7134B5A6B42F080025A635A69002188
:10F9300042F080025A61432059610E21FEF740FFD8
:10F940002C6DB3E74FF4067102220A4B009505F1C6
:10F950006800FDF7B5FE6866FDF78AFDFDF768FEF5
:10F96000D5E700BF0014002040140040030020022F
:10F9700000380240B1F40008000000000000000060
:10F98000F8B5056D202307462B612B6913F0200481
:10F99000FBD10C20FDF7CCFCD7F854E0DEF8086072
:10F9A00023464FF00060FF2105EB43120133B342C1
:10F9B000C2F80009C2F8000BC2F80819C2F8081B07
:10F9C000F2D9DEF800304FF0FF324FF00111C5F8E8
:10F9D00018283A6DC5F81C18BB65DEF800306B625C
:10F9E00010231361136913F01004FBD10C20FDF7F1
:10F9F0009FFCD5F80038114A114823F4FE63C5F87E
:10FA00000038AB6943F4402343F010030921AB6194
:10FA1000C5F81018C5F81418F860C5F8104BC5F8EB
:10FA2000002BC5F81049C5F80029BB6D03F1100281
:10FA300043F48013BA65AB62F8BD00BF408000108C
:10FA400090720108000000000000000000000000AB
:10FA5000026D90F84E10D2F8003823F4FE6343EAAA
:10FA60000113C2F8003870470000000000000000D9
:10FA70002DE9F0410FFA81F800EB88070D46FB688D
:10FA8000046D1A6802F00302022A5CD0032A5CD0DB
:10FA90004A4E4B49012A18BF0E466A01D96804EB49
:10FAA000020E4FF0000CCEF810CB002971D0B3F845
:10FAB00012E005F15801490146EA0E0E44F801E052
:10FAC00005F1100CD4F81C184FF0010E0EFA0CFEC4
:10FAD0004EEA0101C4F81C18224499684FF0000E48
:10FAE000C2F810E999B3998B1A8A01294FEA920357
:10FAF00088BF4B4305F13F0E816D04EB8E0EAA01CA
:10FB000003EB010C42F0200241EA0343C0F858C065
:10FB1000CEF80430226123699A06FCD40C20FDF74C
:10FB200007FCFB681A8A05F148035B0142EA85522B
:10FB30003243E2500123D4F81C28AB401343C4F8ED
:10FB40001C38BDE8F0811F4EA7E71F4EA5E705F161
:10FB50003F0204EB8202AB011C49516043F02003D9
:10FB6000236123699B06FCD404EB48180C20FDF7A5
:10FB7000DFFBD8F8002922F40042C8F80029D4F8A5
:10FB80001C280123AB4022EA0303C4F81C38BDE85B
:10FB9000F08104EB481105F1100CD1F800EB2EF4C4
:10FBA000004EC1F800EBD4F81C184FF0010E0EFA0D
:10FBB0000CFE21EA0E01C4F81C188DE70080041029
:10FBC000008000100080081000800C10000400026B
:10FBD0005831036D49015B5813F4004004D013F40D
:10FBE000001F14BF01200220704700BF000000006A
:10FBF0004831036D49015B5813F4004004D013F4FD
:10FC0000001F14BF01200220704700BF0000000049
:10FC100000EB8101CB681B6A19685B685360116057
:10FC2000704700BF0000000000000000000000005E
:10FC300000EB810330B4DD68AC696368236131B9DE
:10FC4000402B04D940236360094A3F2402E05C1E34
:10FC500043F0C042006D6D8A00EB41116319B3FBA4
:10FC6000F5F342EAC343C1F8103B30BC704700BF14
:10FC700040000060000000000000000000000000E4
:10FC80002DE9F041264E376D07EB40130546D3F8BA
:10FC9000084BC3F8084B200703D5D7F814381907C9
:10FCA0001DD4E20719D5D7F81438DB0715D506EBB4
:10FCB00085061B4CF1688B6958681A69904216D307
:10FCC0006289CE680123AB4022EA0303638129469F
:10FCD00020463346BDE8F0411847BDE8F08106EB09
:10FCE00085033046DB6829465B689847D9E7121AD6
:10FCF00000265A609E6020462946FFF799FF202380
:10FD000083F31188236D03EB4515D5F8003B43F0D1
:10FD10008063C5F8003B86F31188BDE8F08100BF21
:10FD2000001400200000000000000000000000009F
:10FD300000EB810310B4DC68626953681361ABB1F6
:10FD400071B15A1E006D248A00EB41112244B2FBAE
:10FD5000F4F243EAC243C1F810395DF8044B70472E
:10FD6000402BEED9402353603F22EBE7036D5DF853
:10FD7000044B03EB41114FF40023C1F810397047D5
:10FD80002DE9F041304F3D6D05EB40130646D3F8A9
:10FD90000849C3F80849E10703D5D5F81038DA0750
:10FDA00009D4230605D50123D5F83428B3401342DE
:10FDB00029D1BDE8F08107EB8003D9684B69586809
:10FDC0001A69904234D2121A4FF000085A60C3F8F0
:10FDD000088038463146FFF7ABFF202383F31188B4
:10FDE0003B6D03EB46100122D0F8001941F00441AD
:10FDF000C0F80019D3F83418B2400A43C3F83428C5
:10FE000088F31188CDE7202282F31188D5F83418C1
:10FE1000FA6D0E4821EA0301C5F834181343002196
:10FE2000FB65FDF70DFD002383F31188BDE8F0812C
:10FE30003A89D1F808C00123B34022EA03033B8189
:10FE400038463146E047ACE700140020601400203B
:10FE500070B53A4D2E6D7369B4691C40E10474614C
:10FE60002DD4A20448BFD6F80838230704D56B6800
:10FE7000DB680BB131489847E5062BD46003D6F810
:10FE8000185807D5E90745D4AA0748D46B074BD4BF
:10FE90002E074ED4240307D5E80330D4A90333D466
:10FEA0006A0326D42B0303D4BDE87040FDF708BFD6
:10FEB0000320FFF7E5FEBDE87040FDF701BF2846CF
:10FEC000FEF70EFA6B681B68002BCAD0284600218B
:10FED0009847C6E7202383F31188B369184823F0B5
:10FEE0001003B3610021FDF7ABFC002383F31188FD
:10FEF000C4E70220FFF7C4FE2B03D5D5D8E70020C6
:10FF0000FFF7BEFEA903CBD50120FFF7B9FE6A03B8
:10FF1000C8D5EEE70020FFF733FFAA07B6D50120CA
:10FF2000FFF72EFF6B07B3D50220FFF729FF2E073F
:10FF3000B0D50320FFF724FFACE700BF001400207A
:10FF4000601400200000000000000000000000001D
:10FF5000036D03EB4111D1F8003B43F08063C1F81E
:10FF6000003B70470000000000000000000000009F
:10FF7000036D10B403EB41140122D4F8000940F0E2
:10FF80000440C4F80009D3F834085DF8044B8A40F3
:10FF90000243C3F83428704700000000000000004E
:10FFA000036D03EB4111D1F8003B43F40013C1F89A
:10FFB000003B70470000000000000000000000004F
:10FFC000036D03EB4111D1F8003943F40013C1F87C
:10FFD0000039704700000000000000000000000031
:10FFE000036D03EB4111D1F8003B23F40013C1F87A
:10FFF000003B70470000000000000000000000000F
:020000040801F1
:10000000036D03EB4111D1F8003923F40013C1F85B
:1000100000397047000000000000000000000000F0
:1000200038B5254DEB6869681A69DC68087D1440AD
:10003000E2B2D2431A61F8B9600714D52B78042BC9
:100040000DD0A10715D4E40705D56B681A481B69C4
:10005000984703232B70BDE83840FDF731BE8B680D
:100060001BB328469847A107EDD52B78124A042BDD
:1000700014D004232B70E6E7A20709D52B78042BB4
:1000800002D06307F5D4DEE78B688BB1284698472A
:100090006307D8D52B78084A042BEAD15168CB687E
:1000A000002BE6D004489847E3E7A007F7D4CAE757
:1000B0006207F4D4C7E700BF9C16002000000000D0
:1000C00010B5034C2046FDF793FE024BE36010BDD4
:1000D0009C1600200004004000000000000000000A
:1000E00008B5202383F31188FDF7F2F8002383F38A
:1000F0001188BDE80840FDF7E3BD00BF0000000027
:10010000054B44F29F1000210722586099600B2094
:1001100008211A60FEF774BB10E000E00000000048
:100120002DE9F0418468E7682668626840F20F13A1
:1001300033400546EBB143681A696FF4807323605E
:10014000BAB1B3B213F0080F0CBF00211021D807C9
:1001500048BF41F00401980748BF41F00801580723
:1001600048BF41F02001D80548BF41F04001284672
:10017000904772060ED57B060CD56B685B6827F03E
:1001800040076FF040022260E7601BB12846BDE8DF
:10019000F0411847BDE8F0810000000000000000B9
:1001A00008B50348FFF7BCFFBDE80840FDF788BD70
:1001B000B416002000000000000000000000000055
:1001C00008B50348FFF7ACFFBDE80840FDF778BD70
:1001D000D016002000000000000000000000000019
:1001E00070B50C4D0C4C0D4E2846FDF7D1FF0C4B55
:1001F000AB60062204F1180330462C616B61EA60A3
:10020000FDF7C6FF074BB36004F16C03A8343361FC
:10021000746170BDB4160020BC710108D0160020B6
:1002200000480040001401400000000000000000F1
:10023000FEF716BD000000000000000000000000F6
:10024000704700BF00000000000000000000000038
:1002500010B504460846FDF7F3FC00B110BD0C23B1
:1002600023604FF0FF3010BD0000000000000000D0
:1002700008B5044B044A9B699A616420FDF798FA1B
:10028000FBE700BF90100020C073010800000000D1
:1002900008B5064B064A9B69064C9A610A20FDF791
:1002A00087FA00F095FF2070F8E700BF901000205B
:1002B000D0730108EC1600200000000000000000D0
:1002C00000B5D1B0FDF72CFDFCF7AAFF42F210708B
:1002D000FDF76EFA00F0F4FF01F0EAFA24A801F04D
:1002E000B7F824A800F04CF900F0BAFF01A801F01B
:1002F00017F8002051B05DF804FB00BF00000000BB
:1003000080B582B00024254B00944FF4B3614022A5
:100310002348244F244EDFF8A880DFED248A9FED88
:10032000248AFDF705FA00942248234B4FF4067106
:100330004022FDF7FDF9B9461FE0612B06D177EEAB
:10034000E87A002389F80030C2ED007A67EE887AF7
:1003500017EE900AFCF758F8D8ED007A67EE887A25
:10036000044617EE900A0D46FCF74EF82246CDE9FA
:1003700000012B46114800F00BFF0A20FDF718FA88
:100380003B78094AD6ED007A712BD6D177EEA87A60
:100390000023C6ED007A89F80030D7E77102010822
:1003A00010190020EC160020080800200AD7233C72
:1003B00000401C46F816002091020108E073010875
:1003C000F016002000000000000000000000000007
:1003D00008B5044B044A9B690A209A61FDF7E8F9C5
:1003E000002008BD90100020F073010800000000FC
:1003F000044B05490020402248621A8364205A8336
:1004000002F086B90004024000180040000000001D
:1004100010B5174CDFED177A2DED048B94ED048A9F
:10042000D4ED038AD4ED009AC4ED058A38EE088A2B
:10043000B0EE690A28EE278AA8EEA78A84ED068A1C
:1004400002F07EF9B0EE409AB0EE690A02F0B8F917
:1004500068EE097A28EE008AE8EEC07AA8EE898A6A
:10046000C4ED087A84ED078ABDEC048B10BD00BF93
:10047000942900203ACD133F000000000000000046
:1004800090ED067A90ED076AD0ED007AD0ED015A32
:10049000D0ED046A37EE466AB0EE677AA5EE867A4A
:1004A000B4EEE67AF1EE10FA0BDCD0ED056AB4EEAC
:1004B000E67AF1EE10FA04D4F0EE476A80ED087A9D
:1004C00001E0C0ED086A90ED025AD0ED035AE5EE66
:1004D000067A37EE667AE5EEC77AC0ED007A7047A5
:1004E0002DE9F0431A481B4C1B491C4A1C4D1D4E5C
:1004F000DFF87890DFF87880DFF878E01A4FC4F8FA
:10050000049000234FF0804CC0F80490A6608660F1
:10051000E5602561C5600561C4F81480C0F81480E9
:1005200023602362036003628E60CD600B600B6208
:100530009660D56013601362C1F804C0C2F804C0AD
:10054000C1F810E0C2F810E04F615761BDE8F083D8
:10055000B8280020D01E0020F81E0020F42800201B
:1005600058FF7F3F0AD7233C333373BFCDCC4C3D7C
:1005700058FF7FBF3333733F0000000000000000CE
:100580002DE9F04FA9B000F07BFED94BD94EDA4FE0
:10059000DFF890B300241C70D84B30461C7001F07B
:1005A0007FFD384601F07CFD0120014674627C62CB
:1005B000012501F045FD4FF0200E304603A9DBF880
:1005C0000020ADF80EE0ADF80C40ADF81440CC4B77
:1005D0008DF8165093FBF2F3049301F041FEF36A99
:1005E000ADF83A50EB4010934FF060034FF4807831
:1005F0004FF0040930460EA9ADF838304FF40073BF
:10060000ADF84A30ADF84440ADF84640ADF83C9006
:10061000ADF8488001F094FE30460EA901F0D0FEFE
:1006200030460EA901F01CFF30460EA901F060FF14
:100630003046082101F09CFF3046082101F0A0FF60
:100640003046082101F0ACFF3046082101F0B0FF30
:1006500050234FF4006A304606A9ADF81E304FF41F
:100660000053ADF82230ADF818A0ADF81AA0ADF8DF
:100670001C40ADF82040ADF8244001F0A9FF304601
:10068000294601F0CDFF3046294601F039FE2946C2
:100690009C4801F0B5FC29464FF4E06001F0D0FC25
:1006A0002346994A99480321FEF75AFA4FF400511C
:1006B000DFF874C2DFF874E29548CDF880A04FF4FB
:1006C00000334FF480624FF00C0A219119A9CDF844
:1006D0006CC0CDF868E023931F9219941C941E946B
:1006E000CDF888802494259426942794CDF874A07E
:1006F00001F056FB2946864801F08AFB10212A4664
:10070000834801F095FB16224FF480430AA80A9211
:100710000C930B940D9401F053FA4FF050634FF08B
:10072000005213A97B481693159213948DF85050DC
:100730008DF8514017948DF8609001F019FA13A9C3
:1007400075481594169401F013FA13A9734801F033
:100750000FFA01F075F9284601F0A2FA6D484FF43E
:10076000402101F0E5FA6C484FF4502101F0E0FA25
:1007700068484FF4001101F0E3FA67484FF40011A4
:1007800001F0DEFA2946634801F0CAFA29466248B8
:1007900001F0C6FA40F207412A465E4801F0E8FA45
:1007A0000323122202A88DF808208DF809308DF855
:1007B0000A308DF80B5001F0A3F92946554801F095
:1007C00017FA2946544801F013FA2946534801F014
:1007D0000FFA2946022001F033FC38460DEB0A01DE
:1007E000DBF80020ADF80C40ADF80E40ADF8144039
:1007F0008DF816404A4B93FBF2F3049301F030FD61
:100800004FF06002F36AADF8382038464FF40072BA
:100810000EA9ADF84A201093ADF83A50ADF8444017
:10082000ADF84640ADF8488001F08AFD3846082111
:1008300001F09EFE38460EA901F0C2FD384608219F
:1008400001F09EFE38460EA901F00AFE3846082146
:1008500001F0A6FE3846294601F052FD38462946E9
:1008600001F0DEFE3846294601F0CAFE304620215E
:1008700001F0F6FE3046802101F012FF3846214695
:1008800001F0E6FE3846494601F0FAFE38462946B0
:1008900001F046FD3046294601F042FD304629462A
:1008A00001F0AEFE2846294601F0BAFB4FF0FF32B8
:1008B00053230DEB0A014FF080400492ADF80C3049
:1008C000ADF81440ADF80E4001F0CAFC29464FF0D7
:1008D000804001F025FD00F0D3FC336843F00203B3
:1008E00033603B684FF4FA7243F002033B601FE051
:1008F000082A00200000014000040140E8280020F0
:1009000000BD010505004000F10301084072010827
:10091000706402400020014000210140002201409B
:10092000007A030A0C080020AC1E002008230140B6
:100930007A63F36ABB63F36AFB63336823F00203F1
:1009400033603B6823F002033B6000F0A9FC324BAC
:10095000324A8021402018835983A3F81A801983D2
:100960001369DB04FCD542F21070FCF721FF2C4C1C
:100970002C482D490023236003600B600B682A4A32
:10098000B3F57A6FFADB2949294F2368224E1468A0
:1009900093FBF4F30B600368126893FBF2F30125F9
:1009A0003B608024234B74832946402000241D7023
:1009B00001F036FB4FF0FF32072303A91E480492D3
:1009C000ADF80C30ADF81440ADF80E4001F048FC25
:1009D0002946194801F0A4FC184B0094402240F627
:1009E00098111748FCF7A4FE29464FF4006001F067
:1009F00017FB204601F064FEFF2001F071FE642029
:100A000001F08EFEFFF76CFD0E4B02221C801A7067
:100A100029B0BDE8F08F00BF00080240000402408A
:100A2000002A0020F41E0020E0280020A81E00203C
:100A3000FC290020E828002000180040D10301080C
:100A4000201F0020DC280020000000000000000023
:100A5000144A154B92ED007AD3ED007AB4EEE77AA2
:100A6000F1EE10FA11DC93ED007AD2ED007AB4EEDB
:100A7000E77AF1EE10FA07DDD2ED007A93ED007A15
:100A8000C7EE877A20EE270A704792ED007AD3ED01
:100A9000007AD3ED006A77EE677AC7EEA67AA7EE02
:100AA000800A70472429002020290020000000002F
:100AB000374B1B882DE9F041DFF8FC80002B55D027
:100AC000344F354D354C2B78354E590744BF3B6874
:100AD000BB60F269E26100232046A361FFF7D0FC0E
:100AE0002B7894ED080A1A073BD486ED090A20EE0C
:100AF000000A2C4BDFED2C7A83ED000A93ED000AFF
:100B000037EEC00AF1EEC07AF4EE677AF1EE10FA31
:100B100039D1264C326ABB68A361B1EE677A2046B0
:100B2000E261C4ED047A84ED057AFFF7A9FC2B7825
:100B30001B4E1B070ED4236AB362D8ED187AF5EE6C
:100B4000C07AF1EE10FA03D52B786FF341032B70C6
:100B5000BDE8F08194ED080AFFF77AFF86ED0A0AF6
:100B6000EBE7FFF775FF86ED090AC0E7104C114B64
:100B7000D8F85C20074FA3612046E261FFF780FCB4
:100B8000236ABB609DE701F05BFEF0EE407AC0E7B0
:100B900028290020C41E0020DC280020D01E0020B0
:100BA000942900201C2900203D0A673FB828002016
:100BB000F81E00200AD723BC3029002000000000C6
:100BC00010B5114C2DED048B94ED009A94ED098A2B
:100BD000B0EE490A01F0B4FDF0EE408AB0EE490AE9
:100BE00001F0EEFDD4ED0A7A20EE677A68EEA77A7E
:100BF000A8EE287AE8EE007ABDEC048B84ED0B7A3F
:100C0000C4ED0C7A10BD00BF942900200000000044
:100C1000184B194ADB6A92ED047AD2ED056A13602B
:100C200007EE903AF8EE677AB6EE006A27EE877A1A
:100C300067EEA66A77EEC77A82ED047A77EEE67AF7
:100C4000C2ED056A67EE867AFCEEE77AB8EE676A6F
:100C5000C2ED087A37EE067ABCEEC77AF8EE477A2C
:100C600082ED077A76EEA76AFCEEE66AC2ED066AC6
:100C7000704700BF00000140D8290020000000009C
:100C80002DE9F041164680460F4600F0F9FA0D4B6B
:100C90000D4C1D6845F002051D60256845F00205F4
:100CA0002560C3F834809F63DE631A6822F0020275
:100CB0001A60236823F002032360BDE8F04100F0CE
:100CC000EFBA00BF00000140000401400000000036
:100CD00010B53F4CD4ED017AF5EEC07AF1EE10FA82
:100CE00027DB94ED027AB5EEC07AF1EE10FA13DA52
:100CF000D4ED036AF5EEC06AF1EE10FA45DBC4EDFF
:100D0000057AC4ED046AFFF783FF206AA169E269EE
:100D1000BDE81040FFF7B4BF84ED057AC4ED047A56
:100D2000FFF776FF04F1180007C8BDE81040FFF791
:100D3000A7BFD4ED026AF5EEC06AF1EE10FA35DB1A
:100D400094ED037AB5EEC07AF1EE10FA0CDB84ED87
:100D5000057AC4ED046AFFF75BFFE069216AA269C6
:100D6000BDE81040FFF78CBFB1EE477AF1EE677A2D
:100D700084ED057AC4ED047AFFF74AFFA069216A81
:100D8000E269BDE81040FFF77BBFB1EE477AF1EEB4
:100D9000666A84ED057AC4ED046AFFF739FFE069FD
:100DA000A169226ABDE81040FFF76ABFF1EE677AD9
:100DB000F1EE666AC4ED057AC4ED046AFFF728FF18
:100DC000206AE169A269BDE81040FFF759BF00BF82
:100DD000D8290020000000000000000000000000F2
:100DE00070B5554B9FED557A9A885B88544C554E9B
:100DF00094ED000A2DED048B07EE903A08EE102AD0
:100E0000DFED518A514A524BB8EE488AF8EE677AC4
:100E100038EE688A77EEE87A88EE078A0546C7EEEC
:100E2000878A82ED008AC3ED008A01F089FC494B74
:100E3000B0EE409A94ED000A83ED009A01F0C0FCF8
:100E400028EE098A68EE808A434A9FED446AD2ED13
:100E5000007A86ED008A38EE688A414B4148D3ED2E
:100E6000006A4149C0ED008AD8EE067AB2EE047AF3
:100E700077EEA67A81ED000AC3ED007AD3ED007A11
:100E8000F4EEC77AF1EE10FA0ADCD3ED007ABAEE8E
:100E9000047AF4EEC77AF1EE10FA58BF93ED007AB7
:100EA00083ED007A82ED008AD3ED007AD4ED006AFA
:100EB0009FED2E7A224A77EEA67AC4ED007AD4ED21
:100EC000007AF4EEC77AF1EE10FAD2ED007A1EDD68
:100ED00037EEC77A82ED007A94ED007ADFED247A5E
:100EE000DFED226A77EE277AF4EEE67AF1EE10FA79
:100EF00019DCBDEC048BF5EEC07AF1EE10FA48BFB8
:100F000077EEA67A1B68C5ED167AEB6570BDF5EE37
:100F1000C07AF1EE10FADFD5D2ED007A37EE877A9B
:100F200082ED007AD8E7BDEC048B77EEE67A1B6899
:100F3000C5ED167AEB6570BDAC1E002000F07F4554
:100F40002C290020F028002000209B440C2A00209F
:100F5000102A0020D4290020EC2800200C02803F19
:100F6000042A0020E428002018290020DB0FC940B3
:100F70009A99993E00000000000000000000000067
:100F80002DE9F843414B4248DFF83081414E0027BC
:100F90005F62142100F0DCFE142105463E4800F09B
:100FA000D7FE04463D483E4903683E4A2B44036051
:100FB0000B6823440B601368404601331360FFF74E
:100FC0000FFF33789A075BD5DFF8F4E0364B374AEA
:100FD000D8F858C03649DFF8EC8080204FF040093F
:100FE000AEF818901883B2F804E0908992ED006A88
:100FF000D2ED026A0B88C8F800C00FFA8EFECEEB65
:10100000050502B207EE905AA41AB8EEE77A07EE89
:10101000904AF8EEE77A01339BB226EE077A66EE45
:10102000A77A102B14BF0B800F8088ED037AC8EDD0
:10103000047AFFF7EDF93378DB0723D5FFF7C0FD1E
:10104000D8ED0C6AD8ED0B5A9FED1A6A1A4BF1EEE7
:10105000667AB0EE677AA5EE867AE5EEC67AB6EEE7
:10106000006A27EE067A67EE867AC3ED016A83EDA1
:10107000027AC3ED037AFFF72BFE0B4B80225A83D3
:10108000BDE8F883FFF714FDD8E700BF0018004063
:1010900000200140DC28002000210140002A00201F
:1010A000F41E0020E028002000040240142A002042
:1010B00028290020D7B3DD3FD8290020302900207F
:1010C00000080240942900200000000000000000F9
:1010D000022906D0032906D00129064818BF00209E
:1010E000704705487047032A9ABF044B03EBC200C0
:1010F00000207047B0750108307401088075010840
:10110000022915D138B505460C46202383F31188F2
:101110000121084AFDF774F828462146064AFDF7E2
:101120006FF80648FCF764FF002383F3118838BD8D
:10113000704700BF0074010840740108382B00207C
:1011400038B50E4D0E4C2846FCF70AFF0D492846CF
:10115000FCF72EFF226D936B23F40023936343F679
:101160009820FCF725FB20460749FDF731F8226D52
:10117000936B43F40023936338BD00BF382B0020EA
:1011800000140020A0750108707401080000000020
:101190000FB430B583B006AB094C53F8042B019360
:1011A0002046FF2102F09CFA0246064805682146C7
:1011B0002C68A04703B0BDE8304004B0704700BFC2
:1011C000242A0020382B002000000000000000002E
:1011D00000B506480368A1B05B68694601229847DC
:1011E0009DF8000021B05DF804FB00BF382B002003
:1011F00008B50448012101F023FABDE80840FCF7D6
:101200005FBD00BF001400400000000000000000AF
:1012100008B5054840F2074100F0BAFDFFF7B0FEFF
:10122000BDE80840FCF74CBD002001400000000074
:1012300008B54FF4006000F01BFE00B908BD044B78
:1012400000225A624FF40060BDE8084000F020BE62
:101250000008004000000000000000000000000046
:1012600008B5FFF76DFF0248BDE80840FCF778BB02
:10127000B82D002000000000000000000000000069
:10128000044B1A6812B9202282F311881A680132BD
:101290001A607047C82D0020000000000000000008
:1012A000054B1A6832B11A68013A1A601B680BB90B
:1012B00083F31188704700BFC82D00200000000094
:1012C00008B500214FF4A072104802F079F9104AD5
:1012D0004FF47A7302F18C0122F8023F01338A4203
:1012E0009BB2F9D10B4A4FF4FA6302F18C0122F858
:1012F000023F01338A429BB2F9D100F0D1FDF220C6
:1013000000F0DEFDBDE8084000F01ABACC2D002048
:10131000CA2D0020562E0020000000000000000012
:101320002DE9F04F054683B0064600240AE0BDF8DB
:1013300006301A0A05F814200134462C737006F1A1
:1013400002066BD004F5FA6080B20DF1060100F0E0
:10135000BFF90028EBD000218C22284602F030F99A
:10136000304F314BDFF8D0C0304C31483149EB6160
:101370004FF4FA76002301226F63AF65C5F848C0C9
:101380002E616E66DFF8B4E0DFF8B4802C624FF4B3
:101390007A7B4FF00309F7EE007A4FF0804A4FF462
:1013A000E13C4FF07C574FF07A566C6428636865D7
:1013B000E96329662B702B732B7685F82C3085F822
:1013C000383085F8393085F8403085F8523085F866
:1013D000533085F85C3085F85D30C5F804B085F889
:1013E0001490C5ED097AC5F828A085F82D2085F858
:1013F000502085F8512085F86C20C5F84C80C5F840
:1014000068C02C67686785F8842085F88530C5F842
:101410008810C5F878E0EF67C5F8806003B0BDE8D4
:10142000F08F00BF0050434800606A469A99193E09
:10143000007C124800803B456666663F0024744885
:10144000000040400000000000000000000000001C
:101450002DE9F04F054683B0064600240BE0BDF8A9
:1014600006301A0A05F814200134582C737006F15E
:10147000020600F0888004F57A7080B20DF1060152
:1014800000F026F90028EAD0404B414ADFF830E16D
:10149000DFED407A4049414FDFF828A1DFF828917D
:1014A0003F4C4048DFF82481DFF824C16B60EB60DB
:1014B000EB646B65DFF81CB13B4BC5F818E0AA6321
:1014C000DFF814E12A649FED397A394EA9600122D0
:1014D0002965C5F814A0C5F81C902C626862354CCB
:1014E0003548C5F82C8000216F63EF63C5F848C00C
:1014F0006B66C5ED1B7A0023304FC5F870B0C5F898
:1015000074E02A7085F8302085F8312085F85C2059
:10151000DFF8C8A0DFF8C890DFF8C880DFF8C8C0DF
:10152000DFF8C8B06E64F2EE007A4FF07E5E40F6EF
:10153000B83285ED187A6B70AB702F61AF65C5ED71
:101540000A7AC5F868B0C5F878A0C5F89C6085F837
:101550007C3085F87D3085F87E30C5F88040C5F850
:101560009040C5F88400C5F89400C5F88810C5F807
:101570009810C5F88C90C5F8A480C5F8A8C0C5F827
:10158000A0E0C5F8AC2003B0BDE8F08F00007042C9
:101590000000C84200007842000070C20000A04273
:1015A000000096430080BB4400808944000016433D
:1015B0000AD7233C17B7D1386F12033B0000A0C1F4
:1015C0000050C3C7000002430050C3470000484218
:1015D0003333733FCDCC4C3F00409C470000164452
:1015E0000000614499BB963B0AD7233D000020418F
:1015F00038B51B4A1B4B1B88128892B29BB2EAB9C2
:101600004EF6EE629B1A18BF012303F50054164AEA
:10161000013301349B03A4031A44944203D310E022
:101620000434A2420DD923680133F9D1054620467E
:1016300000F0C6FC09280DD080B238BD1BB1AB202C
:1016400038BD802038BD4EF6EE63D31AB3FA83F36B
:101650005B09DAE7A01C294600F0B2FCECE700BF0A
:101660000080000800400008FE3F00080000000065
:1016700010B5044600F004F900F57F523F320138FE
:1016800001E0904209D010F8013FFF2BF9D020462D
:10169000022100F055FC80B210BD092010BD00BF32
:1016A00008B50820FFF7E4FFC0B2092800D008BD44
:1016B0000548002100F084FC0928F8D11020FFF72C
:1016C000D7FFC0B2F3E700BF0040000800000000F1
:1016D000154B164A1B8812889BB210B492B2BBB14C
:1016E0001AB1AB205DF8044B7047114B114C1A46F0
:1016F000128892B2824204D10EE01A8892B28242DB
:101700000AD0043B9C42F8D301205DF8044B70479B
:10171000094B0A4C1A46EBE733F8023C0B800020D9
:101720005DF8044B704700BF0040000800800008CF
:10173000FEBF000802800008FE7F0008024000088B
:101740002DE9F041484D494E2C883388A4B24EF61D
:10175000EE6294429BB248D04FF6FF78444534D0B5
:1017600024B1FFF79DFF80B2BDE8F081002BF8D0D7
:10177000434564D03E4D3F4E3F4F338835F8022FEE
:101780003D499BB2934208BF1FFA84F80FFA88F3D1
:101790009C42104604F1010409D0FFF799FF01288B
:1017A00005D028883988FFF723FF0928DCD1A02C31
:1017B000E3D12E48002100F003FC80B20928D3D1E8
:1017C0000820BDE8F041FFF753BF002BF8D093424B
:1017D000C7D10820FFF74CFF0928C5D130460021AA
:1017E00000F0EEFB80B2BDE8F0816BBB204D234ED4
:1017F000214F1C464FF6FF78338835F8022F1E49DB
:101800009BB2934208BF1FFA84F80FFA88F39C42F8
:10181000104604F1010409D0FFF75AFF012805D052
:1018200028883988FFF7E4FE09289DD1A02CE3D150
:101830000D48002100F0C4FB80B2092894D110208B
:10184000BDE8F041FFF714BF4FF6FF72934288D115
:101850001020FFF70DFF092886D12846002100F04F
:10186000AFFB80B2BDE8F0810040000800800008B6
:10187000CA2D0020068000080C2F0020064000081A
:10188000074A002332F8021B814204D001330C2B9B
:10189000F8D100207047034A52F82300704700BF78
:1018A000C0750108E075010800000000000000009C
:1018B00001202DE9F84301465E4E5F4C5F4D00F07C
:1018C0009FFB0220012100F09BFB0420012100F07E
:1018D00097FB304640211922FDF78AFC802188467B
:1018E000402730461922FDF783FC7783394620468E
:1018F000A6F81A801922FDF77BFC20464146678333
:101900001922FDF775FC4FF4807189462046192293
