:020000040800F2
:100000000008002011CB000831CC000831CC0008DA
:1000100031CC000831CC000831CC000831CC0008CC
:1000200031CC000831CC000831CC000831CC0008BC
:1000300031CC000831CC000871CC000841CD00085B
:1000400031CC000831CC000831CC000831CC00089C
:1000500031CC000831CC000831CC000831CC00088C
:1000600031CC000831CC000831CC000831E4000864
:1000700061E4000891E40008C1E40008F1E400082C
:1000800021E5000851E50008B1200108E1EA000877
:1000900021EB000881EB0008E1EB000831CC0008FF
:1000A00031CC000831CC000831CC000831CC00083C
:1000B00031CC00081102010831CC000831CC000815
:1000C00031CC000831F0000841F1000831CC0008C3
:1000D00031CC000831CC000831CC00088105010882
:1000E000D120010831CC000831CC000831CC000807
:1000F00031CC000831CC000831CC000881E5000883
:1001000031CC000831CC00082101010831CC0008B5
:1001100031CC000831CC000831CC00089120010816
:10012000B1E50008E1E5000811E6000841E6000835
:1001300071E6000831CC000831CC000831CC000851
:1001400031CC000831CC000831CC000861FF000838
:10015000A1E60008D1E6000801E70008A1050108B2
:1001600031CC000831CC000831CC000831CC00087B
:1001700031CC000831CC000831CC000831CC00086B
:1001800031CC000831CC000831CC000831CC00085B
:1001900031CC000831CC000831CC000831CC00084B
:0C01A00031CC000831CC000831CC000844
:10C0000008B504F065FF04F093FF002008BD00BFF1
:10C0100081F0004102E000BF83F0004330B54FEAF9
:10C0200041044FEA430594EA050F08BF90EA020F66
:10C030001FBF54EA000C55EA020C7FEA645C7FEAF9
:10C04000655C00F0E2804FEA5454D4EB5555B8BF1C
:10C050006D420CDD2C4480EA020281EA030382EA8D
:10C06000000083EA010180EA020281EA0303362D1F
:10C0700088BF30BD11F0004F4FEA01314FF4801CF2
:10C080004CEA113102D0404261EB410113F0004F04
:10C090004FEA03334CEA133302D0524263EB4303BB
:10C0A00094EA050F00F0A780A4F10104D5F1200E59
:10C0B0000DDB02FA0EFC22FA05F2801841F10001B4
:10C0C00003FA0EF2801843FA05F359410EE0A5F188
:10C0D00020050EF1200E012A03FA0EFC28BF4CF0B9
:10C0E000020C43FA05F3C01851EBE37101F000456F
:10C0F00007D54FF0000EDCF1000C7EEB00006EEB7C
:10C100000101B1F5801F1BD3B1F5001F0CD3490805
:10C110005FEA30004FEA3C0C04F101044FEA44525C
:10C1200012F5800F80F09A80BCF1004F08BF5FEAE3
:10C13000500C50F1000041EB045141EA050130BDC3
:10C140005FEA4C0C404141EB010111F4801FA4F166
:10C150000104E9D191F0000F04BF01460020B1FABB
:10C1600081F308BF2033A3F10B03B3F120020CDAF3
:10C170000C3208DD02F1140CC2F10C0201FA0CF0D1
:10C1800021FA02F10CE002F11402D8BFC2F1200C36
:10C1900001FA02F120FA0CFCDCBF41EA0C019040EC
:10C1A000E41AA2BF01EB0451294330BD6FEA040435
:10C1B0001F3C1CDA0C340EDC04F11404C4F1200220
:10C1C00020FA04F001FA02F340EA030021FA04F332
:10C1D00045EA030130BDC4F10C04C4F1200220FA89
:10C1E00002F001FA04F340EA0300294630BD21FAC7
:10C1F00004F0294630BD94F0000F83F4801306BF8D
:10C2000081F480110134013D4EE77FEA645C18BF80
:10C210007FEA655C29D094EA050F08BF90EA020F17
:10C2200005D054EA000C04BF1946104630BD91EA0F
:10C23000030F1EBF0021002030BD5FEA545C05D112
:10C240004000494128BF41F0004130BD14F5800451
:10C250003CBF01F5801130BD01F0004545F0FE41C5
:10C2600041F470014FF0000030BD7FEA645C1ABFFA
:10C27000194610467FEA655C1CBF0B46024650EA31
:10C28000013406BF52EA033591EA030F41F400215D
:10C2900030BD00BF90F0000F04BF0021704730B5E3
:10C2A0004FF4806404F132044FF000054FF00001B8
:10C2B00050E700BF90F0000F04BF0021704730B579
:10C2C0004FF4806404F1320410F0004548BF40424E
:10C2D0004FF000013EE700BF42004FEAE2014FEAA3
:10C2E00031014FEA02701FBF12F07F4393F07F4F7E
:10C2F00081F06051704792F0000F14BF93F07F4FB0
:10C30000704730B54FF4607401F0004521F00041F2
:10C3100020E700BF50EA010208BF704730B54FF078
:10C3200000050AE050EA010208BF704730B511F07D
:10C33000004502D5404261EB41014FF4806404F1B5
:10C3400032045FEA915C3FF4DCAE4FF003025FEA37
:10C35000DC0C18BF03325FEADC0C18BF033202EBBF
:10C36000DC02C2F1200300FA03FC20FA02F001FA19
:10C3700003FE40EA0E0021FA02F11444C1E600BFB8
:10C3800070B54FF0FF0C4CF4E06C1CEA11541DBF6B
:10C390001CEA135594EA0C0F95EA0C0F00F0DEF836
:10C3A0002C4481EA030621EA4C5123EA4C5350EA1B
:10C3B000013518BF52EA033541F4801143F480136C
:10C3C00038D0A0FB02CE4FF00005E1FB02E506F0FD
:10C3D0000042E0FB03E54FF00006E1FB03569CF052
:10C3E000000F18BF4EF0010EA4F1FF04B6F5007F58
:10C3F00064F5407404D25FEA4E0E6D4146EB0606CA
:10C4000042EAC62141EA55514FEAC52040EA5E5052
:10C410004FEACE2EB4F1FD0C88BFBCF5E06F1ED8FC
:10C42000BEF1004F08BF5FEA500E50F1000041EB33
:10C43000045170BD06F0004646EA010140EA0200E0
:10C4400081EA0301B4EB5C04C2BFD4EB0C0541EA02
:10C45000045170BD41F480114FF0000E013C00F317
:10C46000AB8014F1360FDEBF002001F0004170BD3B
:10C47000C4F10004203C35DA0C341BDC04F1140454
:10C48000C4F1200500FA05F320FA04F001FA05F2E0
:10C4900040EA020001F0004221F0004110EBD370AD
:10C4A00021FA04F642EB06015EEA430E08BF20EAD9
:10C4B000D37070BDC4F10C04C4F1200500FA04F37C
:10C4C00020FA05F001FA04F240EA020001F000410E
:10C4D00010EBD37041F100015EEA430E08BF20EA81
:10C4E000D37070BDC4F1200500FA05F24EEA020EC9
:10C4F00020FA04F301FA05F243EA020321FA04F0F8
:10C5000001F0004121FA04F220EA020000EBD370AE
:10C510005EEA430E08BF20EAD37070BD94F0000FAE
:10C520000FD101F00046400041EB010111F4801FE2
:10C5300008BF013CF7D041EA060195F0000F18BF93
:10C54000704703F00046520043EB030313F4801FCF
:10C5500008BF013DF7D043EA0603704794EA0C0F89
:10C560000CEA135518BF95EA0C0F0CD050EA41069F
:10C5700018BF52EA4306D1D181EA030101F000411C
:10C580004FF0000070BD50EA410606BF1046194644
:10C5900052EA430619D094EA0C0F02D150EA013650
:10C5A00013D195EA0C0F05D152EA03361CBF104691
:10C5B00019460AD181EA030101F0004141F0FE4130
:10C5C00041F470014FF0000070BD41F0FE4141F4B4
:10C5D000780170BD70B54FF0FF0C4CF4E06C1CEAB4
:10C5E00011541DBF1CEA135594EA0C0F95EA0C0F69
:10C5F00000F0A7F8A4EB050481EA030E52EA033524
:10C600004FEA013100F088804FEA03334FF0805544
:10C6100045EA131343EA12634FEA022245EA111571
:10C6200045EA10654FEA00260EF000419D4208BF22
:10C63000964244F1FD0404F5407402D25B084FEACF
:10C640003202B61A65EB03055B084FEA32024FF47B
:10C6500080104FF4002CB6EB020E75EB030E22BFD8
:10C66000B61A754640EA0C005B084FEA3202B6EB98
:10C67000020E75EB030E22BFB61A754640EA5C0047
:10C680005B084FEA3202B6EB020E75EB030E22BFD7
:10C69000B61A754640EA9C005B084FEA3202B6EBD8
:10C6A000020E75EB030E22BFB61A754640EADC0097
:10C6B00055EA060E18D04FEA051545EA16754FEAF9
:10C6C00006164FEAC30343EA52734FEAC2025FEA17
:10C6D0001C1CC0D111F4801F0BD141EA00014FF0A6
:10C6E00000004FF0004CB6E711F4801F04BF014377
:10C6F0000020B4F1FD0C88BFBCF5E06F3FF6AFAE93
:10C70000B5EB030C04BFB6EB020C5FEA500C50F122
:10C71000000041EB045170BD0EF0004E4EEA1131A5
:10C7200014EB5C04C2BFD4EB0C0541EA045170BDAC
:10C7300041F480114FF0000E013C90E645EA060EF0
:10C740008DE60CEA135594EA0C0F08BF95EA0C0F1E
:10C750003FF43BAF94EA0C0F0AD150EA01347FF466
:10C7600034AF95EA0C0F7FF425AF104619462CE73D
:10C7700095EA0C0F06D152EA03353FF4FDAE1046A0
:10C78000194622E750EA410618BF52EA43067FF4F1
:10C79000C5AE50EA41047FF40DAF52EA43057FF481
:10C7A000EBAE12E7000000000000000000000000F7
:10C7B0004FF0FF3C06E000BF4FF0010C02E000BF6D
:10C7C0004FF0010C4DF804CD4FEA410C7FEA6C5C50
:10C7D0004FEA430C18BF7FEA6C5C1BD001B050EAF3
:10C7E000410C0CBF52EA430C91EA030F02BF90EADE
:10C7F000020F0020704710F1000F91EA030F58BF9D
:10C80000994208BF90422CBFD8176FEAE37040F0FE
:10C81000010070474FEA410C7FEA6C5C02D150EA9C
:10C82000013C07D14FEA430C7FEA6C5CD6D152EA57
:10C83000033CD3D05DF8040B704700BF844610461C
:10C8400062468C461946634600E000BF01B5FFF71B
:10C85000B7FF002848BF10F1000F01BD4DF808EDEB
:10C86000FFF7F4FF0CBF012000205DF808FB00BFBC
:10C870004DF808EDFFF7EAFF34BF012000205DF816
:10C8800008FB00BF4DF808EDFFF7E0FF94BF012063
:10C8900000205DF808FB00BF4DF808EDFFF7CEFF64
:10C8A00094BF012000205DF808FB00BF4DF808EDA3
:10C8B000FFF7C4FF34BF012000205DF808FB00BF74
:10C8C0004FEA410212F5001215D211D56FF47873B8
:10C8D000B3EB625212D94FEAC12343F0004343EA5B
:10C8E000505311F0004F23FA02F018BF4042704736
:10C8F0004FF00000704750EA013005D111F00040C0
:10C9000008BF6FF0004070474FF00000704700BF55
:10C910004FEA4102B2F1E04324BFB3F5001CDCF161
:10C92000FE5C0DD901F0004C4FEAC0024CEA507099
:10C93000B2F1004F40EB830008BF20F001007047C8
:10C9400011F0804F21D113F13872BCBF01F00040CB
:10C95000704741F480114FEA5252C2F11802C2F1FD
:10C96000200C10FA0CF320FA02F018BF40F001007E
:10C970004FEAC1234FEAD32303FA0CFC40EA0C0030
:10C9800023FA02F34FEA4303CCE77FEA625307D16D
:10C9900050EA01331EBF4FF0FE4040F440007047A4
:10C9A00001F0004040F0FE4040F40000704700BF3E
:10C9B000844641EA000313F003036DD1403A41D3AA
:10C9C00051F8043B40F8043B51F8043B40F8043B69
:10C9D00051F8043B40F8043B51F8043B40F8043B59
:10C9E00051F8043B40F8043B51F8043B40F8043B49
:10C9F00051F8043B40F8043B51F8043B40F8043B39
:10CA000051F8043B40F8043B51F8043B40F8043B28
:10CA100051F8043B40F8043B51F8043B40F8043B18
:10CA200051F8043B40F8043B51F8043B40F8043B08
:10CA300051F8043B40F8043B51F8043B40F8043BF8
:10CA4000403ABDD2303211D351F8043B40F8043B98
:10CA500051F8043B40F8043B51F8043B40F8043BD8
:10CA600051F8043B40F8043B103AEDD20C3205D3A8
:10CA700051F8043B40F8043B043AF9D2043208D0A0
:10CA8000D2071CBF11F8013B00F8013B01D30B8812
:10CA900003806046704700BF082A13D38B078DD0F0
:10CAA00010F003038AD0C3F10403D21ADB071CBFC2
:10CAB00011F8013B00F8013B80D331F8023B20F82C
:10CAC000023B7BE7043AD9D3013A11F8013B00F865
:10CAD000013BF9D20B7803704B7843708B788370ED
:10CAE00060467047000000000000000000000000E9
:10CAF000704700BF000000000000000000000000C0
:10CB0000FEE700BF00000000000000000000000081
:10CB100072B6374880F30988364A374913684FF0B0
:10CB2000404443F4700313600C600023E1EE103ABC
:10CB300006228B6082F31488BFF36F8F2F4B304A2D
:10CB400093420BD2D9430A4422F0030204321A441E
:10CB50004FF0553143F8041B9342FBD1294B8342DC
:10CB60000CD2294A191D521A22F0030204321A4427
:10CB70004FF0553143F8041B9342FBD103F010FEF4
:10CB8000224A234B9A420CD2D043184420F003008F
:10CB9000204B0430184453F8041B42F8041B834212
:10CBA000F9D11D4B1D4A93420AD2D9430A4422F0BF
:10CBB000030204321A44002143F8041B9342FBD1C0
:10CBC000174D184CFFF794FFAC4204D254F8043BC5
:10CBD0009847AC42FAD3144D144CFFF711FAAC420B
:10CBE00004D254F8043B9847AC42FAD3FFF788FFCD
:10CBF0000010002088ED00E034EF00E0000000208D
:10CC00000008002000080020031000200010002071
:10CC10008C140020A878010890140020D020012056
:10CC200000C0000800C0000800C0000800C00008E4
:10CC3000FEE700BF00000000000000000000000050
:10CC400072B6FEE7000000000000000000000000D7
:10CC500000F0C6FA024B4FF080525A6062B6FEE70F
:10CC600000ED00E0000000000000000000000000F7
:10CC7000054A536823F001035360EFF309836833D7
:10CC800083F30988704700BF30EF00E00000000028
:10CC900008B5094B094A002199600720DA60102184
:10CCA00000F0BEF80A20102100F0BAF80B20802115
:10CCB000BDE8084000F0B4B800ED00E00003FA055C
:10CCC00072B6194B5B681B051FD5F1EE10FAEFF336
:10CCD0000983164A4FF08071D26843F8082C43F854
:10CCE0004C1CA3F1680282F3098811498A69D07F3C
:10CCF00068B10868916882688A4294BF0022012264
:10CD000072B10C4A43F8502C704762B670470868FD
:10CD1000916882688A4234BF00220122002AF0D141
:10CD2000054A43F8502C704700ED00E030EF00E07A
:10CD3000C016002051CC000854CC000800000000B0
:10CD400008B572B600F0C4F862B6BDE80840FFF757
:10CD5000B7BF00BF0000000000000000000000009E
:10CD60002DE9F04F2DED108AC1F80CD0D0F80CD081
:10CD7000BDEC108ABDE8F08F00000000000000004C
:10CD800062B62846A04700F003FB70470000000091
:10CD900020F0030202F1604202F5614270B44309DF
:10CDA00000F00304D2F80053E400FF269B00A640E5
:10CDB00003F16043A14025EA060503F56143012420
:10CDC00000F01F0004FA00F02943C2F8001370BC01
:10CDD000C3F88001186070470000000000000000E8
:10CDE000420930B4203200F01F050C4C20F0030340
:10CDF0000121A94003F1604344F8221003F5614387
:10CE000000F00300D3F80013C000FF22824021EAA3
:10CE10000202C3F8002330BC704700BF00E100E00D
:10CE200020F0030303F1604303F56D4300F00300BA
:10CE300010B4C0009A69FF24844022EA04028140B1
:10CE4000114399615DF8044B704700BF000000007A
:10CE5000024B034A9B699A61FEE700BFC01600209F
:10CE6000006C01080000000000000000000000004D
:10CE700000B583B0FFF70CFF00F0CAF800F050F8DF
:10CE800000F0AEFC00F0DCFC40210B4800F0B8F9EB
:10CE90000A4B01229861027762B69B690849996141
:10CEA000002300934FF4EC71064B074800F008FA9A
:10CEB00003B05DF804FB00BF90140020C0160020F2
:10CEC000106C010851CE0008D814002000000000AA
:10CED00038B5114B9B69DA7F0AB1013ADA771A6AE1
:10CEE0000E4C01321A62E26823680132A342E2600A
:10CEF00010D09D68013D9D6065B91A68D9682260AF
:10CF0000DD60546062B61869884772B623689A6813
:10CF1000002AF2D038BD00BFC0160020B016002095
:10CF2000044B4FF0FF3100225B601B609960DA60B8
:10CF3000704700BFB0160020000000000000000095
:10CF400070B40C4E3468A5680361A942C26004D96C
:10CF50002468491BA5688D42FAD363684360B442D4
:10CF6000046060601860816002D0A368591AA160F3
:10CF700070BC7047B01600200000000000000000E8
:10CF8000074A0368934203D0996882680A449A600A
:10CF900042681360016800234A60C360704700BFA5
:10CFA000B01600200000000000000000000000009B
:10CFB00010B472B6037F0D2B11D8DFE803F02010F8
:10CFC0001007100B101010101010100B426A93680D
:10CFD0000133936090E80C001A60026853604FF0D0
:10CFE000FF3400228168084B446202771B689A680C
:10CFF0008A42FBD25A68426003605860106062B691
:10D000005DF8044B704700BFC01600200000000010
:10D01000034B00225B601B605B611B619A60704781
:10D02000C01600200000000000000000000000000A
:10D0300000228168084B10B4044602771B689A6886
:10D040008A42FBD25A686260236020465C601460AA
:10D050005DF8044B704700BFC016002000000000C0
:10D06000084B30B41A6899691468087701250420C0
:10D07000C877636015771C60104630BC9A61FFF773
:10D080006FBE00BFC01600200000000000000000BE
:10D0900030B54B1C87B012D00C4C0D4AA369054625
:10D0A00001A8FFF74DFF2846FFF7DAFF049B13B1F5
:10D0B00001A8FFF765FFA369586A07B030BD034CAC
:10D0C000FFF7CEFFA369586A07B030BDC016002035
:10D0D000B1CF0008000000000000000000000000C8
:10D0E000144BF0B49E6984680546B0686962844256
:10D0F0004FF000020BD82A771B689A689442FBD93C
:10D100005A686A602B605D601560F0BC70473277CA
:10D110001A46126891688842FBD9546874600127E6
:10D120003260566026602F77314628469D61F0BCFC
:10D13000FFF716BEC016002000000000000000002F
:10D140000E4A1068F0B4036894691360012704263E
:10D150000025A1685A60077703469061E677257736
:10D1600000E01B689A688A42FBD25A6862602360BA
:10D1700021465C601460F0BCFFF7F2BDC0160020D1
:10D180000D4A106870B40368946913600126002585
:10D19000A1685A60067703469061257700E01B6816
:10D1A0009A688A42FBD85A686260236021465C60B4
:10D1B000146070BCFFF7D4BDC01600200000000052
:10D1C000044B1A689B6992689B689A4200D8704722
:10D1D000FFF7D6BFC01600200000000000000000CE
:10D1E000034B9B69DB7F0BB1FFF7CABFFFF7A8BFFB
:10D1F000C016002000000000000000000000000039
:10D200002DE9F041114C016466694661002200F18C
:10D210002C054FF002084FF0040C4FF0010E00F106
:10D2200028078160046180F81C80606180F81FC05D
:10D2300080F81EE04277C2638263026282613061DD
:10D2400087620563C562BDE8F08100BFC01600209B
:10D250002DE9F04F6439184FDFF86090D7F814E0EB
:10D26000099E01440025C1604FF0020B0B644FF092
:10D27000040A00F12C034FF0010800F1280C4E6461
:10D28000C1F8609082600761C0F814E0026480F821
:10D290001CB080F81FA080F81E8045777861C563B8
:10D2A000856305628561CEF81000C0F828C003636D
:10D2B000C362BDE8F08F00BFC016002081CD00081A
:10D2C0002DE9F84F044672B61A4EDFF86CA0776964
:10D2D00064390144C16000250B6400F12C0B4FF050
:10D2E000010C00F1280E0A9B4B644FF002094FF02D
:10D2F0000408C1F860A0826006614761026480F89A
:10D300001C9080F81F8080F81EC045777061C5634F
:10D3100085630562856129463861C0F828E0C0F858
:10D3200030B0C0F82CB0FFF7DBFE62B62046BDE897
:10D33000F88F00BFC016002081CD0008000000005B
:10D3400008B5014672B60620FFF7A2FE62B608BD18
:10D3500038B50E4B9C692546606255F8280FA842E7
:10D3600006D00368A362FFF763FEA06AA842F8D163
:10D37000637F9B0704D1636922691A612269536143
:10D380000E20BDE83840FFF76BBE00BFC01600207E
:10D3900072B6FFF7DDBF00BF000000000000000014
:10D3A00040600060816070470000000000000000E5
:10D3B00083680133002B836000DD704703681A68BF
:10D3C00002600021506018465962FFF731BE00BF6D
:10D3D0000023406000608360704700BF00000000D1
:10D3E000304B826870B59C69002A55D0A16893685B
:10D3F0009942054606D9137F9160042B33D0052B43
:10D400001DD09BB12B4603E09968A268914202D3DC
:10D410001B689D42F8D15A68626023605C601460AA
:10D4200065620420BDE87040FFF71ABE92E80A006A
:10D430001960116810464B60FFF7FAFDE2E792E8C9
:10D4400009001860566A10684360334602E0986825
:10D45000884202D31B689E42F9D15968516013601B
:10D460005A600A60CEE792E809001860566A1068B0
:10D470004360334602E09868884202D31B689E42AC
:10D48000F9D15968516013605A600A60B268A168A6
:10D4900093688B42AFD3B5E7E36BC3608460E0630E
:10D4A00070BD00BFC016002000000000000000009A
:10D4B00008B572B6FFF794FF62B608BD0000000021
:10D4C00038B5144B986972B6C46B2568E368C363BA
:10D4D000A5421AD0016C4BB11A689A4203D09268E7
:10D4E000914238BF1146DB68002BF5D12B68EA6BFF
:10D4F0008160236028465C600021A560E260EC63E7
:10D50000FFF7EEFD62B6204638BD0023A36062B689
:10D51000204638BDC01600200000000000000000BA
:10D5200008B5836B027F1943082A81630BD0092A4F
:10D5300000D008BD436A19408B42FAD1FFF778FD4D
:10D540000023436208BD436A1942F7D108BD00BFFA
:10D5500070B50468A04205460E4608D0201D0BC8D1
:10D560003343E360FFF7DCFF2468A542F6D170BDCA
:10D5700008B572B6FFF7D4FFFFF722FE62B608BD0A
:10D5800038B50A4B9D6972B6AB6B10EA030406D13D
:10D59000044668620820FFF763FDAB6B1C4023EA7A
:10D5A0000403AB6362B6204638BD00BFC01600203E
:10D5B00071B1094B9B6910B458624468024683E814
:10D5C00014000D20536023605DF8044BFFF760BD2D
:10D5D0004FF0FF30704700BFC01600200000000071
:10D5E00030B4029C046200250A44856002614060F8
:10D5F000006041618161C160C36130BC704700BFA0
:10D6000038B504460068E36863610022A042A26066
:10D61000A3610AD06FF00105036823605C60FFF727
:10D6200007FD45622068A042F6D138BD0000000029
:10D6300038B50D46044672B6C3692BB1984703E06E
:10D64000FFF7B6FF002810DBA36820462946002B11
:10D65000F6D0A16925694A1C013BAA42A360A261D8
:10D6600028BFE368087828BFA36162B638BD00BF51
:10D670002DE9F8430446884691461D46C76972B6AF
:10D6800000262FB12046B84702E0FFF791FFC0B94E
:10D69000A36820462946002BF7D0A269013B511C04
:10D6A000A161A360137808F8013B2369A2699A423B
:10D6B00024BFE368A36162B60136B14502D072B6F9
:10D6C000DFE762B63046BDE8F88300BF0000000027
:10D6D00030B4029C04628D18056140600060826075
:10D6E00041618161C160C36130BC704700000000CE
:10D6F00038B5C26803690446006862619B1AA0429B
:10D70000A261A3600AD06FF00105036823605C602A
:10D71000FFF78EFC45622068A042F6D138BD00BFFD
:10D7200070B504460E46154672B603E0FFF740FF9B
:10D73000002817DBA36820462946002BF6D0626933
:10D74000013B511C6161A3601670236962699A42B2
:10D7500024BFE3686361E3690BB12046984762B672
:10D76000002070BD62B670BD000000000000000027
:10D770002DE9F04704460D4616469946D0F81C8020
:10D7800072B60027A36805F1010A5A1E2046EBB1C4
:10D790006369A2605A1C62612A781A7023696269FF
:10D7A0009A4224BFE3686361B8F1000F00D0C0471C
:10D7B00062B6013E07F101070FD072B6A368554665
:10D7C0005A1E05F1010A2046002BE1D120464946A8
:10D7D000FFF7EEFE0028D5D062B63846BDE8F087E8
:10D7E000054A064B0648074922F0070223F00703C3
:10D7F00002600B60704700BFD720012000000220AC
:10D80000E0160020DC1600200000000000000000F0
:10D8100010B472B6084C094B22681968C31D23F076
:10D820000703891A8B429DBF9B1823601046002076
:10D8300062B65DF8044B7047E0160020DC1600204D
:10D84000044B054A1A6003F1100000229A60DA6066
:10D85000FFF7BEBDE816002011D800080000000048
:10D8600008B500F0FDFF0A4801F00AFA00F030F8B0
:10D8700000F056F800F07CF800F0F2F800F0C0FA82
:10D8800000F0EEFA00F0C4F9BDE8084002F090BFE5
:10D89000906D010800000000000000000000000082
:10D8A00008494A68104482424B6802D29A4202D91F
:10D8B00070479A42F7D9984294BF00230123002B66
:10D8C000F1D17047001000E00000000000000000EF
:10D8D00001F0BEB9000000000000000000000000E0
:10D8E00038B50123002504460370456029460830F9
:10D8F000FFF756FD294604F11400FFF751FD04F12E
:10D90000200504F1240004F1280104F12C0204F1A3
:10D91000300325626062A162E262236338BD00BF0A
:10D9200002F01EBC0000000000000000000000002B
:10D930000122002302704360704700BF0000000016
:10D9400010B5044672B6416002F01AFC022323703F
:10D9500062B610BD000000000000000000000000E2
:10D9600008B572B60322027002F042FC62B608BD2E
:10D9700001F05EBC0000000000000000000000009C
:10D9800001220023027043600C30FFF721BD00BF6D
:10D9900010B5044672B6416001F062FC02232370A8
:10D9A00062B610BD00000000000000000000000092
:10D9B00010B5044672B601F01BFD0123237062B658
:10D9C00010BD00BF000000000000000000000000CB
:10D9D000F0B585B004460A9F0B9E72B64FF0030E59
:10D9E000019600250C9E00970296856080F800E065
:10D9F00001F08EFD431C0CBF05230223237062B689
:10DA000005B0F0BD000000000000000000000000B4
:10DA1000F0B583B00446089F72B60026042500972F
:10DA20008660057001F00CFD431C0CBF052302232A
:10DA3000237062B603B0F0BD0000000000000000DB
:10DA40000C30FFF735BD00BF0000000000000000F3
:10DA5000FFF736BD000000000000000000000000DD
:10DA600002F01EBC000000000000000000000000EA
:10DA70000122002302704360704700BF00000000D5
:10DA800010B5044672B6416002F01AFC02232370FE
:10DA900062B610BD000000000000000000000000A1
:10DAA00010B5044672B602F06BFC0323237062B615
:10DAB00010BD00BF000000000000000000000000DA
:10DAC00010B5046AD4F854321A681178042900D0C9
:10DAD00010BD217A0229FBD112891B7942FA03F386
:10DAE000DB07F5D4226CE36BA16BD31A5B1AEFD082
:10DAF00062B6D4F854221068117904F1300200F0B3
:10DB000007FA72B6D4F85432BDE810401868197993
:10DB100000F026BA00000000000000000000000035
:10DB200010B5046AD4F8542213681978042900D077
:10DB300010BD217A0229FBD151795A8903EB810367
:10DB40000A41DB68D2075B8AF2D4A269E1696069A5
:10DB5000891A0A1A9342EBD862B6B2FBF3F2D4F8F0
:10DB6000541203FB02F30868497904F10C0200F037
:10DB7000BFF972B6D4F85432BDE81040186859792C
:10DB800000F0D6B900000000000000000000000016
:10DB90000C30FFF76DBD00BF00000000000000006A
:10DBA0000C304FF0FF33FFF763BD00BF00000000F3
:10DBB0003030FFF7DDBD00BF0000000000000000B6
:10DBC00030304FF0FF33FFF7D3BD00BF000000003F
:10DBD0000C30FFF72DBD00BF00000000000000006A
:10DBE0000C304FF0FF31FFF723BD00BF00000000F5
:10DBF0003030FFF795BD00BF0000000000000000BE
:10DC000030304FF0FF32FFF78BBD00BF0000000047
:10DC1000704700BF0000000000000000000000008E
:10DC200010B503460E4A43F8042B82B00446012285
:10DC3000009004F15401436002720A4B0C304FF41F
:10DC40008072FFF7CDFC009404F1300004F5AA7156
:10DC50004FF48072044BFFF73BFD02B010BD00BFD4
:10DC6000306C010821DB0008C1DA00080000000068
:10DC700010B40B6872B60A7903EB82020224906139
:10DC80004A79093243F822008A7903EB82039861CA
:10DC9000C0F85412047262B65DF8044B704700BFBE
:10DCA00070B5D0F8543200F10C06044630461D68B9
:10DCB000FFF7A6FC04F13000FFF71AFD201D01213B
:10DCC000FFF746FCD4F85432597905EB8103284616
:10DCD000DB6832465B8A00F00BF9D4F854322846F0
:10DCE0005979BDE8704000F023B900BF0000000082
:10DCF00090F8443003F06003202B01D000207047DF
:10DD000090F84530212B03D0222B09D0202BF5D1C0
:10DD1000064B836307220023C2630364012070471C
:10DD200000238363C3630364012070470010002055
:10DD3000F8B500EB8107BC698CB10E46054672B69A
:10DD40000821201DFFF704FC226CE36BA16BD31AA2
:10DD50005B1A09D1FB685A6952680AB962B6F8BD04
:10DD60001B8A013B1340F9D162B604F13002284608
:10DD7000314600F0CDF872B62846314600F0F0F892
:10DD8000ECE700BF00000000000000000000000001
:10DD90002DE9F04100EB8104666A86B10F468046AA
:10DDA00072B604217018FFF7D3FB06F11403E26882
:10DDB00038CB518A2D1BEC1AA14202D962B6BDE8BC
:10DDC000F08162B6B4FBF1F306F10C0201FB03F340
:10DDD0004046394600F08CF872B64046394600F0AD
:10DDE000A7F8EBE7000000000000000000000000C2
:10DDF000704700BF000000000000000000000000AD
:10DE000002F0DEBB00000000000000000000000087
:10DE1000002301220270437083704360704700BF8B
:10DE200010B5044672B6416002F0F2FB0223237083
:10DE300062B610BD000000000000000000000000FD
:10DE400010B5044672B602F09BFC0123637062B603
:10DE500010BD00BF00000000000000000000000036
:10DE600001F09EBD00000000000000000000000066
:10DE70000023012202704360C36183620362C362B4
:10DE80004362036303814381704700BF00000000C9
:10DE900010B5044672B60023C36003614361836119
:10DEA000416001F095FD0223237062B610BD00BFF2
:10DEB00070B50646506914460D4618B1002114226B
:10DEC00008F04EFEA06918B10021142208F048FEA7
:10DED00006EB85033046DC602946BDE8704001F062
:10DEE0005FBE00BF00000000000000000000000056
:10DEF00070B400EB81040126E468A4690025E260A7
:10DF000063602670A56070BC01F02ABF00000000AD
:10DF100070B400EB81040126E46864690025E260C6
:10DF200063602670A56070BC01F092BF0000000025
:10DF300070B5458945FA01F313F0010401D00120C1
:10DF400070BD01238B401D43458102F081F82046BE
:10DF500070BD00BF000000000000000000000000D5
:10DF600070B5058945FA01F313F0010401D00120D1
:10DF700070BD01238B401D43058102F079F82046D6
:10DF800070BD00BF000000000000000000000000A5
:10DF9000002202210170A0F84C2080F84E2080F869
:10DFA0004F2002814281C26002614261826180F839
:10DFB000342001F07DBD00BF000000000000000023
:10DFC000F8B50023044680F8343000F1440201F033
:10DFD000B7FE63689B684BB32046984730B3E56B48
:10DFE00094F8443094F84B1094F84A2042EA012205
:10DFF000AA423CBFE263154613F0800FE36840F08D
:10E000008180002D69D15B69052284F83420204687
:10E010001D70DD605D609D60294601F019FF72B6DC
:10E0200020462946FFF79CFF62B6F8BD94F84430BD
:10E0300013F0600711D02046002102F041F820467D
:10E04000002102F02DF863681B6813B120460521FA
:10E050009847062384F83430F8BD94F8455003F00F
:10E060007F0242EA0526B6F5407F00F0F68016DD15
:10E07000B6F5C06F00F0D8806DDDB6F5106F7DD0BD
:10E0800040F60242964200F0FB80B6F5006FD2D116
:10E0900004F14F0201252764A263E563A2E7022E83
:10E0A00000F0AB8040F3A080B6F5807F00F08C805C
:10E0B000B6F5817FBFD194F84620002ABBD194F8F1
:10E0C000482012F00F0154D01206204600F10081C2
:10E0D00002F006F894F844304BE09B69A26B0026EE
:10E0E000042184F8341020463146DA605D601E70E9
:10E0F0009E6001F035FE72B620463146FFF718FFEC
:10E1000062B6F8BDA5B15B69A26B0026012184F857
:10E11000341020463146DA605D601E709E6001F06A
:10E1200097FE72B620463146FFF71AFF62B6F8BD79
:10E130009B69032284F8342020461D70DD605D60F9
:10E140009D60294601F00CFE72B620462946FFF775
:10E15000EFFE62B6F8BD40F20232964221D0B6F52B
:10E16000A06F7FF468AFB4F84420B2F5A06F00F060
:10E170009D800025A563E563256433E794F8462078
:10E1800084F84F20002A40F08280032222706268C7
:10E190001268002AEDD020460221904794F84430BE
:10E1A000E7E794F84620002A7FF445AF94F848202A
:10E1B00012F00F01DDD01306204600F18E8001F031
:10E1C0006FFF94F84430D4E794F84620012A7FF496
:10E1D00032AFB4F84C20A76322F00202E763276451
:10E1E0003D46A4F84C20FDE6002E46D104F14C0239
:10E1F00002252664A263E563F4E694F8481011F062
:10E20000800F204601F00F0144D101F079FD012873
:10E2100044D002287FF40FAF324BA363E06327643E
:10E22000054694F84430DDE6626894F8490094F8B5
:10E230004830556894F8471094F8462043EA002384
:10E240002046A84700283FF4F6AE43680568E5631A
:10E25000A363276494F84430C4E694F84620012A66
:10E260007FF4E9AEB4F84C20A76342F00202E76302
:10E2700027643D46A4F84C20B4E6012E7FF4DBAEC3
:10E28000194AA26302250022E5632264AAE6042259
:10E2900022707CE701F044FD0128BAD1134BA3633F
:10E2A000E6632764354694F844309BE694F846309C
:10E2B00084F84E30204601F063FC63681B6813B19C
:10E2C000204601219847032294F84430227050E7F9
:10E2D00001F016FF94F844304BE701F0F1FE94F89A
:10E2E000443046E7606C0108506C0108706C01080E
:10E2F00038B590F83430022B04463FD0052B36D089
:10E30000012B10D0002101F0DBFE2046002101F09E
:10E31000C7FE63681B6813B1204605219847062392
:10E3200084F8343038BD90F84B2090F84A30C16BF7
:10E3300043EA02238B42C36805D91D8AB1FBF5F27B
:10E3400005FB1215E5B19B690025032284F83420F2
:10E3500029461D70DD605D609D60204601F000FD76
:10E3600072B620462946FFF7E3FD62B638BD036C5E
:10E3700003B19847002384F8343038BDC368E2E71E
:10E380005B6929461D70DD605D609D6001F060FD88
:10E3900072B629462046FFF7E3FD62B6022384F8F1
:10E3A000343038BD00000000000000000000000014
:10E3B00038B590F83430032B044627D0042B11D005
:10E3C0002046002101F07CFE2046002101F068FE7D
:10E3D00063681B6813B1204605219847062384F81B
:10E3E000343038BDC3685B690025052280F83420CD
:10E3F00029461D70DD605D609D6001F029FD72B6EB
:10E4000020462946FFF7ACFD62B638BDC3689B695C
:10E410009B68002BD4D1036C03B19847002384F888
:10E42000343038BD00000000000000000000000093
:10E4300008B5074B074A196801F03D019960136858
:10E440000BB150689847BDE80840FEF739BC00BFE3
:10E4500000600240081700200000000000000000DB
:10E46000084B094819688268890901F03D0110B517
:10E470008C019C600AB1C0689047BDE81040FEF76F
:10E480001FBC00BF00600240081700200000000011
:10E49000084B094819680269090C01F03D0110B5E3
:10E4A0000C049C600AB140699047BDE81040FEF73B
:10E4B00007BC00BF006002400817002000000000F9
:10E4C000084B094819688269890D01F03D0110B5B2
:10E4D0008C059C600AB1C0699047BDE81040FEF70A
:10E4E000EFBB00BF006002400817002000000000E2
:10E4F00008B5074B07485968026A01F03D01D96029
:10E500000AB1406A9047BDE80840FEF7D9BB00BF9A
:10E51000006002400817002000000000000000001A
:10E52000084B09485968826A890901F03D0110B514
:10E530008C01DC600AB1C06A9047BDE81040FEF76C
:10E54000BFBB00BF006002400817002000000000B1
:10E55000084B09485968026B090C01F03D0110B5E0
:10E560000C04DC600AB1406B9047BDE81040FEF738
:10E57000A7BB00BF00600240081700200000000099
:10E58000084B09485968826B890D01F03D0110B5AF
:10E590008C05DC600AB1C06B9047BDE81040FEF707
:10E5A0008FBB00BF00600240081700200000000081
:10E5B00008B5074B07481968026C01F03D019960E6
:10E5C0000AB1406C9047BDE80840FEF779BB00BF38
:10E5D0000064024008170020000000000000000056
:10E5E000084B09481968826C890901F03D0110B592
:10E5F0008C019C600AB1C06C9047BDE81040FEF7EA
:10E600005FBB00BF0064024008170020000000004C
:10E61000084B09481968026D090C01F03D0110B55D
:10E620000C049C600AB1406D9047BDE81040FEF7B5
:10E6300047BB00BF00640240081700200000000034
:10E64000084B09481968826D890D01F03D0110B52C
:10E650008C059C600AB1C06D9047BDE81040FEF784
:10E660002FBB00BF0064024008170020000000001C
:10E6700008B5074B07485968026E01F03D01D960A3
:10E680000AB1406E9047BDE80840FEF719BB00BFD5
:10E690000064024008170020000000000000000095
:10E6A000084B09485968826E890901F03D0110B58F
:10E6B0008C01DC600AB1C06E9047BDE81040FEF7E7
:10E6C000FFBA00BF006402400817002000000000ED
:10E6D000084B09485968026F090C01F03D0110B55B
:10E6E0000C04DC600AB1406F9047BDE81040FEF7B3
:10E6F000E7BA00BF006402400817002000000000D5
:10E70000084B09485968826F890D01F03D0110B529
:10E710008C05DC600AB1C06F9047BDE81040FEF781
:10E72000CFBA00BF006402400817002000000000BC
:10E730000D4B30B400220D4D0D4C1A60114613469E
:10E74000A858016044F833100133102B02F10C0279
:10E75000F6D10849084A4FF0FF338B6030BCCB60DC
:10E760009360D360704700BF88170020806C010859
:10E770000817002000600240006402400000000012
:10E78000F8B5204F467A3D68012404FA06FE1EEAD9
:10E79000050F32D11C4C4EEA050504EBC60C15F0F2
:10E7A000FF0F3D6044F83620CCF8043004D0174CFD
:10E7B000236B43F40013236315F47F4F17D10568CF
:10E7C0002B6823F01F032B602B6813F00104FBD18F
:10E7D000077A46683D23BB40212733602C606F6178
:10E7E0006AB1807A0901FEF7D3FA2046F8BD074CDA
:10E7F000236B43F480032363E1E72046F8BD104612
:10E80000F8BD00BF8817002008170020003802401C
:10E8100010B50446807AFEF7E3FA0C49607A0A687C
:10E820000123834022EA030313F0FF0F0B6004D19E
:10E8300007490A6B22F400120A6313F47F4F04D1D4
:10E84000034A136B23F48003136310BD8817002061
:10E85000003802400000000000000000000000003E
:10E86000204B21491A694FF0FF300022F0B51861A2
:10E870001A615C6958615A611C6A1C4F1C4E1D4D1F
:10E8800064F080541C6244F29F1E1A620724D3F87D
:10E8900024C058625A62C1F804E08A600C60F968CA
:10E8A00041F08071F960316841F001013160196C0B
:10E8B00041F080511964296841F480712960196F11
:10E8C00001F44071B1F5007F03D04FF48031196736
:10E8D0001A67084A536823F400735360BDE8F04098
:10E8E000FFF726BF0038024010E000E0F0ED00E046
:10E8F000001000E000700040000000000000000078
:10E900002A4A2B4B4FF080504FF44041106419605D
:10E91000136843F001031360136824499807FBD57B
:10E920000B68002203F0F9030B6008468A608268D6
:10E930001E4B12F00C0FFAD11A6842F480321A60A2
:10E940001A461168194B8903FBD55A6F42F0010230
:10E950005A675A6F15499007FBD5164B4B600B68E9
:10E96000134A43F080730B6053685904FCD50F4978
:10E970000A680E4B9201FBD50F4A1049996040F28C
:10E98000057111609A6842F002029A601A46936813
:10E99000064903F00C03082BF9D14B6C43F4804378
:10E9A0004B644B6E43F480434B6670470038024023
:10E9B0000070004008544007003C024000940838B2
:10E9C000F0B5434C434D236C43F000732364D5F8FA
:10E9D00000321B0C1B0443F0010343EA0023C5F87B
:10E9E000003200294ED00023C5F81C321846C5F865
:10E9F00004321C46C5F80C32C5F81432C30003F1CA
:10EA0000804303F5C84301301C28C3F84042C3F8D3
:10EA10004442F3D12F480026012715681479EB00F2
:10EA200003F1804314F0010F03F5C84306F101061A
:10EA300007FA05F505D0D0F804E245EA0E0EC0F855
:10EA400004E214F0020F05D0D0F80CE245EA0E0EF5
:10EA5000C0F80CE2640704D5D0F814422C43C0F887
:10EA600014429468C3F84042D468C3F84442D0F8D2
:10EA70001C328E4243EA050302F11002C0F81C3238
:10EA8000CBD118E0C20002F18042012302F5C84256
:10EA9000834043F00103C5F84012C5F84412C2F8A0
:10EAA0004012C2F84412C5F80412C5F81412C5F891
:10EAB0000C32C5F81C320749054AD1F8003223F060
:10EAC0000103C1F80032136C23F000731364F0BD2E
:10EAD0000038024000640040000000000000000018
:10EAE00010B50B4C0B4A636B9A6072B62369002B0E
:10EAF00005DA0948FEF75CFC2369002BF9DB0748BF
:10EB00000121FEF725FD62B6BDE81040FEF7D8B83A
:10EB10008C1700200101010094170020B01700207D
:10EB200038B5134C636BDD68AA0712D05A6922F01E
:10EB300002025A6172B6E369002B05DA0D48FEF74E
:10EB400037FCE369002BF9DB0B480121FEF700FDE0
:10EB500062B6EB0607D5636B1021D96072B6074821
:10EB6000FEF7F6FC62B6BDE83840FEF7A9B800BF74
:10EB70008C170020A0170020AC170020B41700202D
:10EB800038B5134C636B1D69AA0712D05A6922F07D
:10EB900010025A6172B6E369002B05DA0D48FEF7E0
:10EBA00007FCE369002BF9DB0B480221FEF7D0FCE0
:10EBB00062B6EB0607D5636B1021196172B6074880
:10EBC000FEF7C6FC62B6BDE83840FEF779B800BF74
:10EBD0008C170020A0170020AC170020B4170020CD
:10EBE00038B5174D6B6B5C681C225A60220719D42C
:10EBF000630713D56A6B9369916921F07001916184
:10EC000013F0700F03F0070118BF41F0080172B64E
:10EC10000C4841EA0341FEF79BFC62B6BDE8384070
:10EC2000FEF74EB81A68284622F00202032100F8C7
:10EC3000301B1A6072B60021FEF78AFC62B6D7E775
:10EC40008C170020B4170020000000000000000016
:10EC500010B5064C2046FEF743FE0021044B6363CB
:10EC60000A460E20BDE81040FFF7AABE8C17002010
:10EC700000640040000000000000000000000000F0
:10EC80002DE9F04FDFF8B481DFF8B4C1D8F830A037
:10EC9000DFF8B0E1634F644E644D654C6549664AE8
:10ECA000DFF8A4B140F2FF194AEA090AC8F830A017
:10ECB000D8F850A04AEA0909C8F850904368CCF83F
:10ECC00004308368CCF80830C368CCF80C30036992
:10ECD000CCF814304369CCF820308369CCF8243068
:10ECE0000368CCF80030036ACEF80430436ACEF8EB
:10ECF0000830836ACEF80C30C36ACEF81430036B48
:10ED0000CEF82030436BCEF82430C369CEF8003003
:10ED1000C36B7B60036CBB60436CFB60836C7B618B
:10ED2000C36C3B62036D7B62836B3B60876D776076
:10ED3000C76DB760076EF760476E7761876E3762A1
:10ED4000C76E7762476D3760466F6E60866FAE60E4
:10ED5000C66FEE60D0F880606E61D0F884602E627D
:10ED6000D0F888606E62066F2E60D0F890506560B3
:10ED7000D0F89450A560D0F89850E560D0F89C5039
:10ED80006561D0F8A0502562D0F8A4506562D0F833
:10ED90008C502560D0F8AC404C60D0F8B0408C600E
:10EDA000D0F8B440CC60D0F8B8404C61D0F8BC404A
:10EDB0000C62D0F8C0404C62D0F8A8400C60D0F88B
:10EDC000C8105160D0F8CC109160D0F8D010D1604C
:10EDD000D0F8D4105161D0F8D8101162D0F8DC10FE
:10EDE0005162D0F8C4101160D0F8E420CBF80420B0
:10EDF000D0F8E820CBF80820D0F8EC20CBF80C2095
:10EE0000D0F8F020CBF81420D0F8F420CBF8202054
:10EE1000D0F8F820CBF82420D0F8E020CBF8002060
:10EE2000BDE8F08F00080240000C024000100240D4
:10EE30000014024000180240001C0240003802404A
:10EE400000000240000402400020024000000000D8
:10EE50002DE9F04F4FF00F0C02F0030EC2F38007C4
:10EE6000C2F3C106C2F341150024C2F3C3124FF02E
:10EE700001094FF003082BE0D0F820B02BEA030380
:10EE800043EA0A030362436809FA04FA23EA0A031D
:10EE90003B4343604FEA440A836808FA0AFA6FEA80
:10EEA0000A0A0AEA030333438360C3680AEA0303D6
:10EEB0002B43C36003680AEA030343EA0E030360BB
:10EEC000490819D07F00B600AD004FEA8E0E01341C
:10EED00004F007039B0011F0010F02FA03FA0CFA89
:10EEE00003F3EDD0072CC7D9D0F824B02BEA0303E5
:10EEF00043EA0A034362C6E7BDE8F08F0000000062
:10EF000030B4436B046B4FF4004122681980002138
:10EF1000198099809982136823F01F031360136886
:10EF2000D907FCD4C16A257A60680A683D23AB40E2
:10EF30000360136823F01F0313601368DB07FCD41E
:10EF4000087A4A683D238340136030BC704700BF95
:10EF500038B572B6C56955B10446FFF7D1FF002236
:10EF60004FF0FF33E26128466B62FEF761F862B64C
:10EF700038BD00BF000000000000000000000000DD
:10EF800011F00C0F38B50546446B13D1296B0A6894
:10EF9000136823F01F0313601368DB07FCD4087A9F
:10EFA0004A683D2383401360A3889BB243F40073F7
:10EFB000A38038BDFDF744FEE8E700BF0000000075
:10EFC00011F00C0F38B50546446B29D1E96A0A687F
:10EFD000136823F01F031360136813F00103FBD1C0
:10EFE000087A49683D2282400A60A28822F4805251
:10EFF0001204120CA280228822F480621204120CE5
:10F000002280228892B242F40072228072B6EA69AB
:10F0100022B1EB6110465362FEF70AF862B638BDC2
:10F02000FDF70EFED2E700BF000000000000000068
:10F030003E4A3F4938B5546B238BA58AADB245EAA9
:10F04000034323F07F438B425AD021D807398B42A8
:10F050004AD001318B4213D1A388D26A23F40073C2
:10F060001B0412681B0CA380136843F00103136098
:10F07000A3889BB243F48053A3805368012B4ED9DD
:10F0800015F00A0F18BF238BBDE83840FDF718BEF6
:10F0900028498B421BD002318B42F1D1D36A1B68C5
:10F0A0005968002931D1A38823F400731B041B0C79
:10F0B000A38023889BB243F40073238072B6D06987
:10F0C00018B14162D161FDF7B3FF62B6D8E7A388FA
:10F0D000126B23F400731B0412681B0CA3801368CB
:10F0E00043F001031360CBE7138C1A0A0BD003F033
:10F0F000010343F0F00302F0060213432382BFE74B
:10F10000138CC3F347032382BAE72388118C9BB285
:10F1100043F4A06341F0010111842380B4E7238804
:10F1200023F480631B041B0C2380A9E7C417002071
:10F13000080003008200070000000000000000003B
:10F140003948F8B5446B066BA18A326889B201F47C
:10F150005F4383F47F4383F0FF03A382136823F0AC
:10F160001F0313601368DF07FCD4377AC56A76681B
:10F170002A683D23BB403360136823F01F031360EC
:10F18000136813F00103FBD12E7A6D683D22B24063
:10F190002A60CD0548BF01238A05836044BF43F040
:10F1A000020383604F050DD5A28822F40072120479
:10F1B000120CA280228892B243F0040342F400723F
:10F1C000228083600E0544BF43F0080383604D0432
:10F1D00044BF43F020038360CC0414D543F01003F4
:10F1E0000904836017D472B6C0690F4B30B16FF059
:10F1F000010242620022DA61FDF71AFF62B6BDE841
:10F20000F840FDF75DBD0A0405D4002BEBD1BDE845
:10F21000F840FDF755BD43F04003836072B6C06906
:10F22000014B0028E3D1E9E7C417002000000000EB
:10F2300010B5074C2046FEF7A3FB064B064A626357
:10F24000002103F13C02E161E362226310BD00BFD3
:10F25000C4170020986C010800580040000000000E
:10F260002DE9F8430378456B40F256428262012B48
:10F2700040F216420446426244D02B46E16A226BB9
:10F280006068D1F80090D2F800804468077A4E4E4A
:10F2900005F110024FF4004C00214FF4106EC9F834
:10F2A0000820C8F80820A5F800C02980A5F804E0C7
:10F2B0009A8822F03F021204120C9A809A8892B225
:10F2C00042F02A02B4429A8050DD404A944207DC60
:10F2D000022F6AD0032F5BD048F6FF710D221A84EB
:10F2E000998301781A88022992B24BD0032946D01B
:10F2F000012937D01A802B889BB243F001032B8061
:10F30000BDE8F883324B9842B7D1324EC06A336AB7
:10F31000314A43F4800300273362052123463762D4
:10F32000FFF72EFA2D4A206B05212346FFF728FA16
:10F33000336C43F48003336421205021FDF728FD12
:10F3400050212220FDF724FD616AA26A636B41F01F
:10F35000606142F0606241F4403142F440326162E7
:10F36000A2628BE722F00A0292B2C3E72B26610069
:10F370001B4A1E8492FBF1F1C1F30B01B0E742F08E
:10F380000A02B7E722F0080292B242F00202B1E7A5
:10F3900004EB840101EB8101114A92FBF1F16FEA68
:10F3A00081416FEA914189B298E702F11E7204EB44
:10F3B000440102F5313292FBF1F16FEA41416FEA0B
:10F3C000514189B28AE700BFA0860100801A060079
:10F3D000C417002000380240C1EF000881EF000888
:10F3E00080DE80020000000000000000000000003D
:10F3F0000278012A0DD010B50446FFF781FD206B7D
:10F40000FFF706FAE06AFFF703FA084B9C4201D0C7
:10F4100010BD70472120FDF7E3FC2220FDF7E0FC42
:10F42000034A136C23F480031364F1E7C41700202C
:10F430000038024000000000000000000000000052
:10F440002DE9F04387B006460E9D446B681C0F46BD
:10F450009146984605D001A829462B4A3346FDF728
:10F460006FFD62B6F36A726A1B687F0047F001079E
:10F4700000213784B1601A60C3F80C90C3F804808F
:10F4800000E062B6238B9A0702D423889B050AD535
:10F4900072B6691CF5D0049B002BF2D14FF0FF30FF
:10F4A00007B0BDE8F08372B601351CD0049B002B79
:10F4B000F4D0A388154D9BB243F40073A380238836
:10F4C000AA699BB243F4A06323800220F261FDF796
:10F4D000C7FD049B13B101A8FDF752FDAB69586A43
:10F4E00007B0BDE8F083A388084D9BB243F40073D6
:10F4F000A3802388AA699BB243F4A06323800220DF
:10F50000F261FDF7ADFDE9E751EF0008C0160020FC
:10F510002DE9F04387B08046109D446B681C8946F6
:10F5200017461E4605D001A82946324A4346FDF734
:10F5300007FD62B6D8F83020D8F82C3012681B6866
:10F54000D8F824000021C8F808104FEA4909D8F873
:10F550002810A8F820901160D76056600E9A1860A5
:10F56000DA600F9A5A6000E062B6238B9A0702D4E1
:10F5700023889B050AD572B6691CF5D0049B002B25
:10F58000F2D14FF0FF3007B0BDE8F08372B601351D
:10F590001DD0049B002BF4D0A388174D9BB243F4DD
:10F5A0000073A3802388AA699BB243F480732380ED
:10F5B0000220C8F81C20FDF753FD049B13B101A8DD
:10F5C000FDF7DEFCAB69586A07B0BDE8F083A3889D
:10F5D000094D9BB243F40073A3802388AA699BB2B0
:10F5E00043F4807323800220C8F81C20FDF738FD07
:10F5F000E8E700BF51EF0008C0160020000000003F
:10F600002DE9F04FA24BA34A9B69066D9A6185B024
:10F61000834672B64FF000099BF80030012B05D0ED
:10F62000DBF85C306BB97369DA060AD4B369984ABF
:10F6300043F010039269B3610220CBF86420FDF718
:10F640000FFD62B64FF0000A7369DB0622D5DBF8C6
:10F6500050100B6A03F4F012B2F5802F2DD0B2F5E2
:10F66000402FF1D103F00F020BEB8202C3F30A1318
:10F67000D26803339B08146AE6D001F58051022258
:10F68000086812B144F8040B013A013BF8D17369E0
:10F69000DB06DCD40122DBF85C3002FA0AF21A4203
:10F6A000029271D10AF1010ADBF854309B685FFACB
:10F6B0008AFA9A45C8D972B6AEE703F00F070BEB8A
:10F6C0008707C3F30A15FB6898690378EBB94368A9
:10F6D0008268D0F80CE003339A1AEB1C9B084FEABF
:10F6E000920209D001F58051F4460C6812B14CF831
:10F6F000044B013A013BF8D10EEB0504C460FB68F2
:10F700009A6993682B4493609EE7C4683DB301F502
:10F71000805128460328626907D923699A4204D395
:10F72000E368636103286269F7D8D1F800C04FF03D
:10F73000000E02F101082CFA0EF3C4F814801370C5
:10F74000236962699A4224BFE3686361013806D085
:10F75000BEF1180FDED00EF1080E6269E9E772B64D
:10F76000A36820682B44A042A36009D003682360EB
:10F770005C60FDF75DFCC0F824902068A042F5D1E4
:10F78000FDF71EFD62B6BAE772B6B268DBF85C3010
:10F79000029922F0010223EA0103B260CBF85C3047
:10F7A00062B60BEB8A031F46DC6862699168536896
:10F7B000994280F0AF80DBF85000258A4FEA4A1466
:10F7C000019404195B1AD4F818199D4228BF1D46EC
:10F7D0008BB2B5EB830F0AF1010A2CD803963E4693
:10F7E0001378002B36D1EB1C00EB0A3ED0689B0847
:10F7F00018BF014605D051F8044BCEF80040013B3C
:10F80000F9D12844D060F4686269936851682B4448
:10F81000994293607BD9019DDBF85000248A4719F7
:10F82000CD1AD7F81839A54228BF25469BB2B5EBAB
:10F83000830FD5D9039E002272B6B36843F001034B
:10F84000B3602AB9D6F83438029A1A43C6F8342875
:10F8500062B629E700EB0A3ED4680DB3D4F810C0B5
:10F860002A46930831D1A369002108465F1CA7618D
:10F870001B78674503FA01F340EA030024BFE368FD
:10F88000A361013A08D0182906D00831A369EDE731
:10F89000C0160020506D0108CEF80000002AE0D10B
:10F8A00072B6A36820682B44A042A36009D0036805
:10F8B00023605C60FDF7BCFBC0F824902068A04288
:10F8C000F5D1FDF77DFC62B69DE7A069BCEB0001B8
:10F8D00048BF033189108B4228BF0B464FEA83088B
:10F8E000C8EB02023BB1014651F8047BCEF8007030
:10F8F000013BF9D140448445A06104D8E368A36189
:10F90000002AAED1CCE7002ACAD00346ACE7039E5A
:10F91000012291E70AF1010AFAE700BF00000000A6
:10F92000F0B50024D1F808E025464FF0804C4FF0A8
:10F93000FF3714E0C1F80059C218C2F81059C2F8D4
:10F940000879D1F8006B002E17DBC1F8005B034487
:10F950000134A645C3F8105BC3F8087B14D36301D8
:10F96000C118D1F80029002AE4DAC1F800C90E460E
:10F97000D6F808299207FBD5DEE7C1F800CBD2F80C
:10F98000081BC906FBD5E2E74FF00113C0F81C388D
:10F99000F0BD00BF000000000000000000000000FB
:10F9A00010B5064C2046FEF763FA4FF0A043044A18
:10F9B0002365002362652366636610BD001800207E
:10F9C000406D010800000000000000000000000081
:10F9D00070B50378066D012B82B001D002B070BD06
:10F9E0002E4B9842054649D02B6E0022EA65002B2B
:10F9F00038D02B4BF3602B492C6DC6F800184FF410
:10FA000034130022C6F8002E2020B363FDF748FF10
:10FA1000012323612369DB07FCD40C20FDF740FFA1
:10FA20002369002BFCDA0024B460286D696DFFF7B0
:10FA300077FF6B68C6F81048DB68C6F81448C6F84C
:10FA40001C485BB143F20803B3614FF0FF337361AD
:10FA5000B36843F00103B36002B070BD4FF440538C
:10FA6000B361F2E7009505F168004FF406710222D8
:10FA70000D4BFDF7EDFB68662866BAE70B4B5A6B3A
:10FA800042F080025A635A69002142F080025A61B2
:10FA900043205961E021FDF77BF9A5E7001800201C
:10FAA000401400400300200201F600080038024024
:10FAB000F8B5056D202307462B612B6913F0200450
:10FAC000FBD10C20FDF7ECFED7F854E0DEF808601F
:10FAD00023464FF00060FF2105EB43120133B34290
:10FAE000C2F80009C2F8000BC2F80819C2F8081BD6
:10FAF000F2D9DEF800304FF0FF324FF00111C5F8B7
:10FB000018283A6DC5F81C18BB65DEF800306B622A
:10FB100010231361136913F01004FBD10C20FDF7BF
:10FB2000BFFED5F80038114A114823F4FE63C5F82A
:10FB30000038AB6943F4402343F010030921AB6163
:10FB4000C5F81018C5F81418F860C5F8104BC5F8BA
:10FB5000002BC5F81049C5F80029BB6D03F1100250
:10FB600043F48013BA65AB62F8BD00BF408000105B
:10FB7000606D0108000000000000000000000000AF
:10FB8000026D90F84E10D2F8003823F4FE6343EA79
:10FB90000113C2F8003870470000000000000000A8
:10FBA0002DE9F0410FFA81F800EB88070D46FB685C
:10FBB000046D1A6802F00302022A5CD0032A5CD0AA
:10FBC0004A4E4B49012A18BF0E466A01D96804EB18
:10FBD000020E4FF0000CCEF810CB002971D0B3F814
:10FBE00012E005F15801490146EA0E0E44F801E021
:10FBF00005F1100CD4F81C184FF0010E0EFA0CFE93
:10FC00004EEA0101C4F81C18224499684FF0000E16
:10FC1000C2F810E999B3998B1A8A01294FEA920325
:10FC200088BF4B4305F13F0E816D04EB8E0EAA0198
:10FC300003EB010C42F0200241EA0343C0F858C034
:10FC4000CEF80430226123699A06FCD40C20FDF71B
:10FC500027FEFB681A8A05F148035B0142EA8552D8
:10FC60003243E2500123D4F81C28AB401343C4F8BC
:10FC70001C38BDE8F0811F4EA7E71F4EA5E705F130
:10FC80003F0204EB8202AB011C49516043F02003A8
:10FC9000236123699B06FCD404EB48180C20FDF774
:10FCA000FFFDD8F8002922F40042C8F80029D4F852
:10FCB0001C280123AB4022EA0303C4F81C38BDE82A
:10FCC000F08104EB481105F1100CD1F800EB2EF493
:10FCD000004EC1F800EBD4F81C184FF0010E0EFADC
:10FCE0000CFE21EA0E01C4F81C188DE700800410F8
:10FCF000008000100080081000800C10000400023A
:10FD00005831036D49015B5813F4004004D013F4DB
:10FD1000001F14BF01200220704700BF0000000038
:10FD20004831036D49015B5813F4004004D013F4CB
:10FD3000001F14BF01200220704700BF0000000018
:10FD400000EB8101CB681B6A19685B685360116026
:10FD5000704700BF0000000000000000000000002D
:10FD600000EB810330B4DD68AC696368236131B9AD
:10FD7000402B04D940236360094A3F2402E05C1E03
:10FD800043F0C042006D6D8A00EB41116319B3FB73
:10FD9000F5F342EAC343C1F8103B30BC704700BFE3
:10FDA00040000060000000000000000000000000B3
:10FDB0002DE9F041244E376D07EB40130546D3F88B
:10FDC000084BC3F8084B200703D5D7F81438190798
:10FDD0001DD4E20719D5D7F81438DB0715D506EB83
:10FDE0008506194CF1688B6958681A69904216D3D8
:10FDF0006289CE680123AB4022EA0303638129466E
:10FE000020463346BDE8F0411847BDE8F08106EBD7
:10FE100085033046DB6829465B689847D9E7121AA4
:10FE2000002199605A6020462946FFF799FF72B673
:10FE3000236D03EB4515D5F8003B43F08063C5F80F
:10FE4000003B62B6BDE8F081001800200000000011
:10FE500000EB810310B4DC68626953681361ABB1D5
:10FE600071B15A1E006D248A00EB41112244B2FB8D
:10FE7000F4F243EAC243C1F810395DF8044B70470D
:10FE8000402BEED9402353603F22EBE7036D5DF832
:10FE9000044B03EB41114FF40023C1F810397047B4
:10FEA000F8B52C4D2E6D06EB40130746D3F80849E4
:10FEB000C3F80849E10703D5D6F81038DA071AD491
:10FEC000230617D50123D6F83428BB40134211D09E
:10FED00072B6E96DD6F83428686E1E4C194322EAD2
:10FEE0000303E965C6F8343818B1FDF7A1F800231B
:10FEF000636662B6F8BD05EB8003D9684B69586844
:10FF00001A6990421AD2121A002199605A60284642
:10FF10003946FFF79DFF72B62B6D03EB47100122A8
:10FF2000D0F8001941F00441C0F80019D3F8341892
:10FF3000BA400A43C3F8342862B6C1E72A89D1F827
:10FF400008C00123BB4022EA03032B81284639461F
:10FF5000E047B5E7001800200000000000000000A6
:10FF600070B5394D2E6D7369B4691C40E00474613D
:10FF70003AD4A10448BFD6F80838220704D56B68E4
:10FF8000DB680BB130489847E3060CD572B6B3690D
:10FF9000686E2D4D23F01003B36118B1FDF748F8DA
:10FFA00000236B6662B66003D6F8185807D5E907D8
:10FFB00036D4AA0739D46B073CD42E073FD4240388
:10FFC00007D5E80321D4A90324D46A0317D42B034B
:10FFD00003D4BDE87040FCF773BE0320FFF7E8FED2
:10FFE000BDE87040FCF76CBE2846FDF7D1FF6B689A
:10FFF0001B68002BBDD0284600219847B9E7022096
:020000040801F1
:10000000FFF7D6FE2B03E4D5E7E70020FFF7D0FE8D
:10001000A903DAD50120FFF7CBFE6A03D7D5EEE7B7
:100020000020FFF73DFFAA07C5D50120FFF738FFE5
:100030006B07C2D50220FFF733FF2E07BFD5032081
:10004000FFF72EFFBBE700BF0018002000000000F4
:10005000036D03EB4111D1F8003B43F08063C1F81D
:10006000003B70470000000000000000000000009E
:10007000036D10B403EB41140122D4F8000940F0E1
:100080000440C4F80009D3F834085DF8044B8A40F2
:100090000243C3F83428704700000000000000004D
:1000A000036D03EB4111D1F8003B43F40013C1F899
:1000B000003B70470000000000000000000000004E
:1000C000036D03EB4111D1F8003943F40013C1F87B
:1000D0000039704700000000000000000000000030
:1000E000036D03EB4111D1F8003B23F40013C1F879
:1000F000003B70470000000000000000000000000E
:10010000036D03EB4111D1F8003923F40013C1F85A
:1001100000397047000000000000000000000000EF
:1001200008B50B4B1878DA6800210428116107D153
:100130000220187011601161D16821F0FF01D160B7
:100140005B6803485B689847BDE80840FCF7B8BDAA
:100150009C1A0020000000000000000000000000C9
:100160000248034BC360FDF7E3BB00BF9C1A0020AD
:10017000000C004000000000000000000000000033
:100180000378012B10B5044610D06168A368086895
:10019000E268B3FBF0F3013B087A9BB2002108242C
:1001A000116054609362D060116110BD0A4B984297
:1001B000EBD10A4B1A6C42F008021A641A6A002149
:1001C00042F008021A62322019627021FCF7E0FD49
:1001D000034BA360D9E700BF9C1A002000380240FF
:1001E00000BD01050000000000000000000000004C
:1001F000C368002201390120D96258615A621A612C
:10020000DA6805210243DA601960704700000000D7
:1002100038B5224DEB6869681C69DA68087DD2B28E
:100220001440E2431A61A8B9A20707D52B7804222B
:10023000032B2A702FD0CB682846984763071FD41A
:10024000E20703D56B6815481B699847BDE838403D
:10025000FCF736BDA00707D52B78032B04D0052269
:100260008B682A70284698476107E9D52B780B4898
:100270000422032B2A70E3D04368DB689847DFE74A
:100280002B78064A032BDBD051688B680348052284
:100290002A709847D4E76307F7D4D1E7AC1A002057
:1002A00010B5034C2046FDF7E3FB024BE36010BDA5
:1002B000AC1A002000040040000000000000000014
:1002C000F8B50378012B04463BD0C36800221A60BE
:1002D0005A639A635A626168A26888694E680D7DA4
:1002E000B2FBF6F2013A92B220F0FF0000274FF67F
:1002F000FF761F61D8609A62DE620A786DB940F2BB
:100300000120542198619960C2B113221A6203F14D
:100310003802343322616361F8BD4FF48170642187
:10032000986199603AB131221A6203F1340238338C
:1003300022616361F8BD13221A62F6E731221A6264
:10034000E5E70B4B984201D0E368C4E7094B1A6C10
:1003500042F002021A641A6A002142F002021A6292
:100360001D2019627021FCF713FD034BA360EBE71E
:10037000AC1A00200038024000BD0105000000005A
:10038000C36842685969107D10B441F0010100242E
:1003900059611C61B0B9D16819B1D96841F0020145
:1003A000D960916819B1D96841F00401D960126926
:1003B0001AB1DA6842F00102DA6005221A605DF8CB
:1003C000044B7047916819B1D96841F00201D960B6
:1003D000D1680029E7D1EAE7000000000000000032
:1003E00030B404692268136823F01F031360136894
:1003F000DB07FCD4257A416964680A683D23AB4079
:100400002360136823F01F031360136813F00103C4
:10041000FBD10C7A826848683D21A140016030BC64
:100420009381138293827047000000000000000057
:1004300070B585682C88AA8840F20F13A4B22340B7
:100440000646E3B143681B694FF6FF622A80B3B1E9
:1004500014F0080F0CBF00211021E00748BF41F045
:100460000401A20748BF41F00801600748BF41F0FE
:100470002001E20548BF41F040013046984763063D
:1004800009D573685B684FF6BF722A801BB130468E
:10049000BDE87040184770BD00000000000000007B
:1004A00011F00C0F38B504461BD161690A68136856
:1004B00023F01F0313601368DB07FCD463680D7A15
:1004C00048681A683D23AB400221036061702AB17D
:1004D000204690476378022B00D038BD002363701C
:1004E00038BDFCF7ADFBE0E70000000000000000B5
:1004F00011F00C0F70B504463BD1A3784BB963687B
:10050000DB68002B34D0218B204689B2BDE87040D7
:10051000184721690A68136823F01F0313601368E2
:10052000DB07FCD460680D7A4E6881683D23AB40E0
:1005300002253360A57039B120468847A378AB42C5
:1005400016D1236960681A68C168E36800290CBF86
:100550004FF480714FF488710B430025012104F1A1
:100560001800A570D0605160136013680B431360CE
:1005700070BDFCF765FBC0E7000000000000000054
:1005800008B50348FFF754FFBDE80840FCF798BBE7
:10059000C41A00200000000000000000000000005D
:1005A00008B50348FFF744FFBDE80840FCF788BBE7
:1005B000E01A002000000000000000000000000021
:1005C00070B50C4D0C4C0D4E2846FDF721FC0C4B24
:1005D000AB60062204F1180330462C616B61EA60BF
:1005E000FDF716FC074BB36004F16C03A8343361CC
:1005F000746170BDC41A00208C6C0108E01A0020E0
:10060000004800400014014000000000000000000D
:100610000378012B2DE9F041044648D0856800237A
:10062000A37063702046FFF7DBFEA3684C4A934239
:1006300055D002F58062934251D06368494A5969A6
:10064000B2FBF1F292B22A81D868D3F804802E88E6
:100650001F8BAE88598B9A8B236942F24C1C42F255
:100660000C16B8F1000F18BF66460028E0681B683A
:1006700041F0400142F0C1020CBF4FF4807C4FF4C6
:10068000887C92B23E4389B201274FF0000E4CEABB
:1006900000001834A5F800E02982AA82AE81DC604F
:1006A0005F6018601A683A431A60BDE8F0812E4B0B
:1006B00098423BD02D4B98421ED063681B8B03F4AD
:1006C000A053B3F5805F12D022696369A5681068F2
:1006D000196800222B1D83608B6022839FE763686B
:1006E000234A5969B2FBF1F292B22A81ACE7E3687E
:1006F00043F42053E360E7E71E4A00690C212346D8
:10070000FEF73EF81C4A60690C212346FEF738F8D4
:100710001A4A536C43F0200353644720C021FCF76E
:1007200037FBE36843F02063E360C6E7114A0069E2
:100730000C212346FEF724F80F4A60690C2123465A
:10074000FEF71EF80D4A136C43F480231364272030
:10075000C021FCF71DFBE36843F00063E360ACE7F6
:100760000010014080DE8002C41A0020E01A002040
:1007700000BD0105F1040108A10401080038024090
:100780004369C0681B6840F48A60DA605960186089
:100790001A6842F001021A60704700BF00000000B2
:1007A000FEF7AEB8000000000000000000000000EE
:1007B000704700BF000000000000000000000000C3
:1007C000F0B400F10B07002B08BF0B463D46B1FB10
:1007D000F2F602FB161101F13004392CC8BF01F109
:1007E0003704E4B205F8014DB3FBF2F33146002BB8
:1007F000EDD17B1B034401E015F8014F00F8014BDC
:100800009842F9D1F0BC70470000000000000000E1
:100810002DE9F04F2DED028B8BB006460D461746A5
:100820000DF1100929786B1C51B125290DD03268C2
:100830001D4692683046904729786B1C0029F4D1F8
:100840000BB0BDEC028BBDE8F08F6A782D2A03BF98
:10085000AA78AB1C4FF0010A4FF0000A2E2A00F0D4
:100860005C81302A00F059814FF02008591C002487
:1008700005E03B7804372A7803EB40040131A2F10C
:100880003003DBB2092B0D4604EB8400F3D92A2A8E
:10089000EFD02E2A4FF0000143D002F0DF034C2BA3
:1008A0004ED0A2F14400342800F22E81DFE810F08F
:1008B00012012C012C012C012C0112012C012C0104
:1008C0002C012C012C01E3002C012C012C012C010A
:1008D0002C011A012C012C0129012C012C012C01C5
:1008E0002C012C012C012C012C012C012C011C01B0
:1008F00012012C01A1002C012C0112012C012C0150
:100900002C012C012C01E3002C012C012C016F0087
:100910002C011A012C012C0129013B78043703EB2F
:10092000400115F8012BA2F13003DBB2092B01EBDA
:100930008100F4D92A2AF0D002F0DF034C2BB0D189
:100940002B78002B00F0E080A3F144020135342A1B
:1009500000F2D980DFE802F0BED7D7D7D7BED7D70D
:10096000D7D7D78FD7D7D7D7D7C6D7D7D5D7D7D772
:10097000D7D7D7D7D7D7D7C8BED74DD7D7BED7D7D2
:10098000D7D7D78FD7D7D71BD7C6D7D7D500D7F8C4
:1009900000B07D4BBBF1000F08BF9B4604379BF8AE
:1009A0000030002900F0BE80002B00F0C08001392B
:1009B000584601E0013903D410F8013F002BF9D16A
:1009C000CBEB0000241A431E4FF0200824EAE47405
:1009D000BAF1000F60D0B3F1000A6FDA002C3FF4D7
:1009E00021AF336830469B6841469847013CF8D1B7
:1009F00018E7073727F00707D7E90001FBF788FF5B
:100A000008EE100AB5EEC08AF1EE10FA07F10807F9
:100A100000F1A3804846FDEEC87A0A2217EE901A2C
:100A20000023CDED017AFFF7CBFE83462E230BF892
:100A3000013B18EE100AFBF74FFCCDE902010198CB
:100A4000FBF738FC02460B46DDE90201FBF7E4FA4E
:100A50004BA3D3E90023FBF793FCFBF731FF42F2F2
:100A6000107301460A225846FFF7AAFEC9EB0000A0
:100A7000431ECB460AE00822396848460437002363
:100A8000FFF79EFEC9EB0000431ECB46241A24EA62
:100A9000E474BAF1000F9ED19A46644254B19BF8B7
:100AA00000102D294DD0336830469B684146984749
:100AB0000134F8D1BAF1000FFFF6B4AE33681BF879
:100AC000011B9B680AF1FF3A30469847BAF1FF3F95
:100AD000F4D183E73968002907F1040745DB48466C
:100AE0000A22CCE70A22C7E70DF111003B688DF816
:100AF0001030C9EB0000431E04374FF02008CB46EE
:100B0000C4E71022B8E71A460DF11100C9EB000046
:100B10008DF81020431ECB46B8E75A784FF03008C6
:100B20000133A3E647F6FE71002B7FF441AF24EAC0
:100B3000E474BAF1000F1FD14FF0FF3A4FF02008D4
:100B4000ABE7B8F1300FAED1336830469B689847B9
:100B50000BF1010B0AF1FF3AA5E72D23B1EE488A0C
:100B60008DF810300DF1110055E72D2349428DF815
:100B700010300DF11100B3E74FF020082EE700BF51
:100B800000000000006AF840906E010800000000BC
:100B9000C36882689A4206D04268D154C368013360
:100BA000C360002070476FF0010070470000000034
:100BB0000369C1689942024604D04168C85C0133A8
:100BC000136170476FF00100704700BF0000000024
:100BD00038B5054608462B69EC686968E41A944202
:100BE00028BF144619442246FBF7E2FE2B69234432
:100BF0002B61204638BD00BF00000000000000004F
:100C000038B5C3688468E41A05469442406828BF32
:100C1000144618442246FBF7CBFEEB682344EB60F6
:100C2000204638BD00000000000000000000000069
:100C300010B44160044C046000218260C360016113
:100C40005DF8044B704700BFA06E01080000000073
:100C500000B50A4B0A4A9B690A4D0B4C9A61A1B038
:100C60000A20FCF76DFB2B6806485B686946012289
:100C700098479DF800302370F2E700BFC0160020AF
:100C8000B06E01083CBF00209C2000200000000046
:100C900008B5054B054A9B699A6101F0D9FC0A2009
:100CA000FCF74EFBF9E700BFC0160020C06E01083C
:100CB0002DE9F04F3D4B3E4A9B693E49DFF810B1AC
:100CC000DFF810A1DFF81091DFF810813A4F3B4EAA
:100CD0003B4D3C4C996189B013600120FCF750FCFE
:100CE000394B1B68002BF8DD00233BF813003BF861
:100CF00013208DF80D203AF813103AF813E039F864
:100D000013208DF80FE039F813E08DF811E042F36D
:100D1000072238F813E08DF810202C4A38F813C059
:100D20008DF813C040F3072041F307214EF3072E3F
:100D30008DF80C008DF80E1037F813008DF812E0C6
:100D400037F8131036F813C036F813E0D25C8DF87C
:100D500015108DF8182035F8131035F813208DF87C
:100D60001A2034F813208DF817E040F3072041F3E0
:100D7000072134F813E08DF8140042F307224CF3F6
:100D8000072C8DF8191003A8112101938DF816C0B6
:100D90008DF81B208DF81CE002F092F80A4B1A68BF
:100DA000019B01339A42A0DC97E700BFC0160020E8
:100DB000C46E0020CC6E0108A0200020844F0020CB
:100DC00040300020E03F0020081000201C8600205A
:100DD000245F0020EC8D0020E0700020A8A30020FC
:100DE00038B51D4B1D4A9B699A6101F0E1F8022854
:100DF00008BFB7EE000A4FF0000018BF9FED180AB9
:100E000001F0FEF901F0DCF80546F8B10024B7EE78
:100E1000000A012001F0F4F940F6C410FCF790FA42
:100E200001209FED100A044401F0EAF940F6C410D5
:100E3000FCF786FAAC42EAD141F28830FCF780FA3E
:100E400001F0B6F86420FCF77BFACEE701209FEDB5
:100E5000050A01F0D5F9F3E7C0160020D86E0108A5
:100E6000CDCC4C3E0000000000000000000000005F
:100E70000FB470B586B00AAC114D54F8046B294616
:100E800001A800234FF48062FFF7D2FE22463146CC
:100E900001A80094FFF7BCFC019B01A89B680021FE
:100EA0009847049C0748013C294622460023FCF74A
:100EB0005FFC204606B0BDE8704004B0704700BF3C
:100EC0008C9D00206CBF002000000000000000008E
:100ED00000B5D1B0FCF7C4FCFBF7CAFF42F21070BA
:100EE000FCF72EFA01F084FC02F0EAF802F0D0F8E8
:100EF00001F056F924A801F043FD24A800F0D0FD2C
:100F000001F0B6FF01F024F901A801F0A1FC01A84D
:100F100002F0DEFA02F00CF802989DED030A02F0EE
:100F200037F8002051B05DF804FB00BF000000005E
:100F300080B582B00024394B00944FF4B361402255
:100F40003748384F384EDFF81081DFED388A9FED93
:100F5000388AFCF7B5F9374B00944FF4B3613F2260
:100F60003548FCF7ADF9354B00944FF4067140223B
:100F70003348FCF7A5F900943248334B4FF406711F
:100F80004022FCF79DF9B9461AE0612B34D0D6ED2A
:100F9000007A67EE887A17EE900AFBF79DF9D8ED94
:100FA000007A67EE887A044617EE900A0D46FBF742
:100FB00093F92246CDE900012B462448FFF758FF5C
:100FC0000A20FCF7BDF93B78712BDED1D6ED007A13
:100FD00077EEA87A002317EE900A89F80030C6ED64
:100FE000007AFBF779F902460B461948FFF740FFF4
:100FF00099F80030612BCAD1D6ED007A77EEE87A05
:1010000000233B7017EE900AC6ED007AFBF764F9F7
:1010100002460B460F48FFF72BFFB8E7E10D01082A
:10102000001B00209C200020982000206F12833A93
:1010300000401C46B10C010880800020910C010882
:1010400090A10020C86E0020510C0108086F010813
:10105000E86E0108F86E0108188600200000000004
:1010600008B5044B044A9B690A209A61FCF768F9A9
:10107000002008BDC0160020206F010800000000FD
:10108000044B05490020402248621A8364205A8399
:1010900004F05EB8000402400018004000000000A8
:1010A00010B5174CDFED177A2DED048B94ED048A03
:1010B000D4ED038AD4ED009AC4ED058A38EE088A8F
:1010C000B0EE690A28EE278AA8EEA78A84ED068A80
:1010D00004F04EF8B0EE409AB0EE690A04F0B8F8A9
:1010E00068EE097A28EE008AE8EEC07AA8EE898ACE
:1010F000C4ED087A84ED078ABDEC048B10BD00BFF7
:101100003CBE00203ACD133F00000000000000006C
:1011100090ED067A90ED076AD0ED007AD0ED015A95
:10112000D0ED046A37EE466AB0EE677AA5EE867AAD
:10113000B4EEE67AF1EE10FA0BDCD0ED056AB4EE0F
:10114000E67AF1EE10FA04D4F0EE476A80ED087A00
:1011500001E0C0ED086A90ED025AD0ED035AE5EEC9
:10116000067A37EE667AE5EEC77AC0ED007A704708
:101170002DE9F0431A481B4C1B491C4A1C4D1D4EBF
:10118000DFF87890DFF87880DFF878E01A4FC4F85D
:10119000049000234FF0804CC0F80490A660866055
:1011A000E5602561C5600561C4F81480C0F814804D
:1011B00023602362036003628E60CD600B600B626C
:1011C0009660D56013601362C1F804C0C2F804C011
:1011D000C1F810E0C2F810E04F615761BDE8F0833C
:1011E00038BD002068B3002064BD0020A0BD0020F1
:1011F00058FF7F3F0AD7233C333373BFCDCC4C3DE0
:1012000058FF7FBF3333733F000000000000000031
:10121000144A154B92ED007AD3ED007AB4EEE77ADA
:10122000F1EE10FA11DC93ED007AD2ED007AB4EE13
:10123000E77AF1EE10FA07DDD2ED007A93ED007A4D
:10124000C7EE877A20EE270A704792ED007AD3ED39
:10125000007AD3ED006A77EE677AC7EEA67AA7EE3A
:10126000800A7047D0BD0020CCBD002000000000E7
:101270002DE9F041804E337813F001023ED09C06F8
:1012800000F1B5807D4C60687D4B7E4A1B88A26072
:101290001BB97D4A7D4BD26DDA617D4E7D4DB061CB
:1012A000EB69F3613046FFF733FFD6ED087A7A4BEE
:1012B000C5ED097A67EEA77A9FED787AC3ED007ADB
:1012C00093ED000A37EE400AF1EEC07AF4EE677A49
:1012D000F1EE10FA40F0C580714E2B6AA268F361FE
:1012E000B1EE677A3046B261C6ED047A86ED057AD2
:1012F000FFF70EFF336AAB62BDE8F08198065F4CE2
:101300000DD5624D67486849DFF8A8E1A768C4F8C1
:1013100000E062F3451333702F6002600A60584B9F
:10132000DFF864811B88002B00F082803378D4EDD5
:10133000007A59075D4B48BFC4ED027A93ED027AFB
:10134000F0EEE77AF4EEC77AF1EE10FA4CD977EEC8
:10135000C77A5A68C3ED057AFDEEE77AC3ED047AE1
:101360004B4F4C4D62600023E969BB613846F9611F
:10137000FFF7CEFE337897ED080A1A076CD485ED97
:10138000090A20EE000A444BDFED447A83ED000A9F
:1013900093ED000A37EEC00AF1EEC07AF4EE677AF8
:1013A000F1EE10FA62D13E4FA3682A6ABB61B1EE3A
:1013B000677A3846FA61C7ED047A87ED057AFFF758
:1013C000A7FE3378334C1B073FD43B6AA362D8EDAA
:1013D000187AF5EEC07AF1EE10FA03D533786FF390
:1013E00041033370BDE8F081DA695A60B8E72649F5
:1013F000224CDFF8B0E02C4F002200256FF345139C
:1014000062601046337022600A604A608A60CA6077
:101410004A61CA610A624A628A62CA620A634A63AC
:101420000A644A648A65CA65CEF800503D602BE7BD
:10143000164D1F4BD8F85C201B68AB612846EA614B
:10144000FFF766FE2B6AA36070E797ED080AFFF7C7
:10145000DFFE84ED0A0ABAE7FFF7DAFE85ED090A36
:101460008FE704F0DDF8F0EE407A35E704F0D8F8C5
:10147000F0EE407A97E700BF5CBD002090B30020FB
:101480009CBD002049E1A336D8BD002064BD0020EA
:1014900068B300203CBE0020C8BD00203D0A673F65
:1014A00038BD002098BD002064B30020ACBE0020F1
:1014B000982000206F12833B000000000000000015
:1014C00010B5114C2DED048B94ED009A94ED098A22
:1014D000B0EE490A03F04CFEF0EE408AB0EE490A45
:1014E00003F0B6FED4ED0A7A20EE677A68EEA77AAA
:1014F000A8EE287AE8EE007ABDEC048B84ED0B7A36
:10150000C4ED0C7A10BD00BF3CBE002000000000FE
:10151000184B194ADB6A92ED047AD2ED056A136022
:1015200007EE903AF8EE677AB6EE006A27EE877A11
:1015300067EEA66A77EEC77A82ED047A77EEE67AEE
:10154000C2ED056A67EE867AFCEEE77AB8EE676A66
:10155000C2ED087A37EE067ABCEEC77AF8EE477A23
:1015600082ED077A76EEA76AFCEEE66AC2ED066ABD
:10157000704700BF0000014080BE00200000000056
:101580002DE9F04116460746884600F049FF104B0A
:10159000104D1C88A4B244F002041C802C88A4B214
:1015A00044F002042C805F63C3F83880DE631A883D
:1015B00022F002021204120C1A802B8823F002037C
:1015C0001B041B0C2B80BDE8F04100F039BF00BFAD
:1015D0000000014000040140000000000000000085
:1015E00010B53F4CD4ED017AF5EEC07AF1EE10FA69
:1015F00027DB94ED027AB5EEC07AF1EE10FA13DA39
:10160000D4ED036AF5EEC06AF1EE10FA45DBC4EDE5
:10161000057AC4ED046AFFF77BFF206AA169E269DD
:10162000BDE81040FFF7ACBF84ED057AC4ED047A45
:10163000FFF76EFF04F1180007C8BDE81040FFF780
:101640009FBFD4ED026AF5EEC06AF1EE10FA35DB09
:1016500094ED037AB5EEC07AF1EE10FA0CDB84ED6E
:10166000057AC4ED046AFFF753FFE069216AA269B5
:10167000BDE81040FFF784BFB1EE477AF1EE677A1C
:1016800084ED057AC4ED047AFFF742FFA069216A70
:10169000E269BDE81040FFF773BFB1EE477AF1EEA3
:1016A000666A84ED057AC4ED046AFFF731FFE069EC
:1016B000A169226ABDE81040FFF762BFF1EE677AC8
:1016C000F1EE666AC4ED057AC4ED046AFFF720FF07
:1016D000206AE169A269BDE81040FFF751BF00BF71
:1016E00080BE00200000000000000000000000009C
:1016F00038B5564B9FED567A9A885B88554C564DB7
:1017000094ED000A2DED048B07EE903A08EE102AB6
:10171000DFED528A524A534BB8EE488AF8EE677AA8
:1017200038EE688A77EEE87A88EE078AC7EE878A0D
:1017300082ED008AC3ED008A03F01AFD4A4BB0EE39
:10174000409A94ED000A83ED009A03F081FD28EEA3
:10175000098A68EE808A454A9FED456AD2ED007A93
:1017600085ED008A38EE688A424B4348D3ED006A23
:101770004249C0ED008AD8EE067AB2EE047A77EEDE
:10178000A67A81ED000AC3ED007AD3ED007AF4EE7B
:10179000C77AF1EE10FA0ADCD3ED007ABAEE047AD9
:1017A000F4EEC77AF1EE10FA58BF93ED007A83EDAC
:1017B000007A82ED008AD3ED007AD4ED006A9FEDC5
:1017C000307A244A77EEA67AC4ED007A2168D4ED07
:1017D000007AF4EEC77AF1EE10FAD2ED007A1FDD4E
:1017E00037EEC77A82ED007A94ED007ADFED257A44
:1017F000DFED236A77EE277AF4EEE67AF1EE10FA5F
:101800001ADCBDEC048BF5EEC07AF1EE10FA1E4A3C
:101810001B68D36548BF77EEA67AC2ED167A38BD4D
:10182000F5EEC07AF1EE10FADED5D2ED007A37EEA1
:10183000877A82ED007AD7E7BDEC048B124A1B68E9
:10184000D36577EEE67AC2ED167A38BD4CB3002048
:1018500000F07F45D4BD002060BD002000209B44E7
:1018600010BF002014BF00207CBE002094BD0020CB
:101870000C02803F08BF00208CBD0020C4BD0020AA
:10188000DB0FC9406666A63FD8BD002000000000FF
:101890002DE9F843444B4548454E00275F6214212B
:1018A00003F02EF814210546424803F029F80446B7
:1018B000414842490368424A2B4403600B68234471
:1018C0000B601368304601331360FFF711FF3D4B87
:1018D0001B789B0765D53C483C4B3D4AD6F858E001
:1018E000DFF80491DFF804814FF0400C8021A0F86C
:1018F00018C019839088918992ED006AD2ED026A2E
:10190000B9F80030C8F800E000B22D1A0AB207EEAC
:10191000905AA41AB8EEE77A07EE904AF8EEE77A02
:10192000013326EE077A66EEA77A9BB2102B18BF1A
