:020000040800F2
:1000000000080020C1CB0008E1CC0008E1CC0008CA
:10001000E1CC0008E1CC0008E1CC0008E1CC00080C
:10002000E1CC0008E1CC0008E1CC0008E1CC0008FC
:10003000E1CC0008E1CC000821CD0008F1CD00089A
:10004000E1CC0008E1CC0008E1CC0008E1CC0008DC
:10005000E1CC0008E1CC0008E1CC0008E1CC0008CC
:10006000E1CC0008E1CC0008E1CC0008B1E40008D4
:10007000E1E4000811E5000841E5000871E5000829
:10008000A1E50008D1E50008210F010881EB000877
:10009000C1EB000821EC000881EC0008E1CC00086D
:1000A000E1CC0008E1CC0008E1CC0008E1CC00087C
:1000B000E1CC0008E1010108E1CC0008E1CC000836
:1000C000E1CC0008F1F0000801F20008E1CC0008E2
:1000D000E1CC0008E1CC0008E1CC000851050108A2
:1000E000410F0108E1CC0008E1CC0008E1CC000898
:1000F000E1CC0008E1CC0008E1CC000801E60008F2
:10010000E1CC0008E1CC0008E1CC0008E1CC00081B
:10011000E1CC0008E1CC0008E1CC0008010F0108A7
:1001200031E6000861E6000891E60008C1E6000833
:10013000F1E60008E1CC0008E1CC0008E1CC0008C1
:10014000E1CC0008E1CC0008E1CC00081100010876
:1001500021E7000851E7000881E700087105010860
:10016000E1CC0008E1CC0008E1CC0008E1CC0008BB
:10017000E1CC0008E1CC0008E1CC0008E1CC0008AB
:10018000E1CC0008E1CC0008E1CC0008E1CC00089B
:10019000E1CC0008E1CC0008E1CC0008E1CC00088B
:0C01A000E1CC0008E1CC0008E1CC000834
:10C0000030B5D3B001F094FC00F092FF42F2107012
:10C0100001F0F6F906F06CF806F062FC05F0B8F8ED
:10C0200026A806F02DF926A805F05AFB06F0A0FB7D
:10C0300005F066F803A806F08BF803A806F0A8FE42
:10C04000002506F0F5FB9DED050A0498134C06F05B
:10C050001FFC134B00954FF4B3614022114801F0CF
:10C060008FF9114B00954FF4B3613F220F4801F057
:10C0700087F900950E480F4B4FF40671402201F0EE
:10C080007FF921680C4804F0A3FE23684FF4FA609E
:10C090000C33236001F0B4F9F3E700BFC4220020A1
:10C0A000410D010880AB0020010C0108E87400205C
:10C0B00060A90020E10B0108C8660108AFF3008009
:10C0C00081F0004102E000BF83F0004330B54FEA49
:10C0D00041044FEA430594EA050F08BF90EA020FB6
:10C0E0001FBF54EA000C55EA020C7FEA645C7FEA49
:10C0F000655C00F0E2804FEA5454D4EB5555B8BF6C
:10C100006D420CDD2C4480EA020281EA030382EADC
:10C11000000083EA010180EA020281EA0303362D6E
:10C1200088BF30BD11F0004F4FEA01314FF4801C41
:10C130004CEA113102D0404261EB410113F0004F53
:10C140004FEA03334CEA133302D0524263EB43030A
:10C1500094EA050F00F0A780A4F10104D5F1200EA8
:10C160000DDB02FA0EFC22FA05F2801841F1000103
:10C1700003FA0EF2801843FA05F359410EE0A5F1D7
:10C1800020050EF1200E012A03FA0EFC28BF4CF008
:10C19000020C43FA05F3C01851EBE37101F00045BE
:10C1A00007D54FF0000EDCF1000C7EEB00006EEBCB
:10C1B0000101B1F5801F1BD3B1F5001F0CD3490855
:10C1C0005FEA30004FEA3C0C04F101044FEA4452AC
:10C1D00012F5800F80F09A80BCF1004F08BF5FEA33
:10C1E000500C50F1000041EB045141EA050130BD13
:10C1F0005FEA4C0C404141EB010111F4801FA4F1B6
:10C200000104E9D191F0000F04BF01460020B1FA0A
:10C2100081F308BF2033A3F10B03B3F120020CDA42
:10C220000C3208DD02F1140CC2F10C0201FA0CF020
:10C2300021FA02F10CE002F11402D8BFC2F1200C85
:10C2400001FA02F120FA0CFCDCBF41EA0C0190403B
:10C25000E41AA2BF01EB0451294330BD6FEA040484
:10C260001F3C1CDA0C340EDC04F11404C4F120026F
:10C2700020FA04F001FA02F340EA030021FA04F381
:10C2800045EA030130BDC4F10C04C4F1200220FAD8
:10C2900002F001FA04F340EA0300294630BD21FA16
:10C2A00004F0294630BD94F0000F83F4801306BFDC
:10C2B00081F480110134013D4EE77FEA645C18BFD0
:10C2C0007FEA655C29D094EA050F08BF90EA020F67
:10C2D00005D054EA000C04BF1946104630BD91EA5F
:10C2E000030F1EBF0021002030BD5FEA545C05D162
:10C2F0004000494128BF41F0004130BD14F58004A1
:10C300003CBF01F5801130BD01F0004545F0FE4114
:10C3100041F470014FF0000030BD7FEA645C1ABF49
:10C32000194610467FEA655C1CBF0B46024650EA80
:10C33000013406BF52EA033591EA030F41F40021AC
:10C3400030BD00BF90F0000F04BF0021704730B532
:10C350004FF4806404F132044FF000054FF0000107
:10C3600050E700BF90F0000F04BF0021704730B5C8
:10C370004FF4806404F1320410F0004548BF40429D
:10C380004FF000013EE700BF42004FEAE2014FEAF2
:10C3900031014FEA02701FBF12F07F4393F07F4FCD
:10C3A00081F06051704792F0000F14BF93F07F4FFF
:10C3B000704730B54FF4607401F0004521F0004142
:10C3C00020E700BF50EA010208BF704730B54FF0C8
:10C3D00000050AE050EA010208BF704730B511F0CD
:10C3E000004502D5404261EB41014FF4806404F105
:10C3F00032045FEA915C3FF4DCAE4FF003025FEA87
:10C40000DC0C18BF03325FEADC0C18BF033202EB0E
:10C41000DC02C2F1200300FA03FC20FA02F001FA68
:10C4200003FE40EA0E0021FA02F11444C1E600BF07
:10C4300070B54FF0FF0C4CF4E06C1CEA11541DBFBA
:10C440001CEA135594EA0C0F95EA0C0F00F0DEF885
:10C450002C4481EA030621EA4C5123EA4C5350EA6A
:10C46000013518BF52EA033541F4801143F48013BB
:10C4700038D0A0FB02CE4FF00005E1FB02E506F04C
:10C480000042E0FB03E54FF00006E1FB03569CF0A1
:10C49000000F18BF4EF0010EA4F1FF04B6F5007FA7
:10C4A00064F5407404D25FEA4E0E6D4146EB060619
:10C4B00042EAC62141EA55514FEAC52040EA5E50A2
:10C4C0004FEACE2EB4F1FD0C88BFBCF5E06F1ED84C
:10C4D000BEF1004F08BF5FEA500E50F1000041EB83
:10C4E000045170BD06F0004646EA010140EA020030
:10C4F00081EA0301B4EB5C04C2BFD4EB0C0541EA52
:10C50000045170BD41F480114FF0000E013C00F366
:10C51000AB8014F1360FDEBF002001F0004170BD8A
:10C52000C4F10004203C35DA0C341BDC04F11404A3
:10C53000C4F1200500FA05F320FA04F001FA05F22F
:10C5400040EA020001F0004221F0004110EBD370FC
:10C5500021FA04F642EB06015EEA430E08BF20EA28
:10C56000D37070BDC4F10C04C4F1200500FA04F3CB
:10C5700020FA05F001FA04F240EA020001F000415D
:10C5800010EBD37041F100015EEA430E08BF20EAD0
:10C59000D37070BDC4F1200500FA05F24EEA020E18
:10C5A00020FA04F301FA05F243EA020321FA04F047
:10C5B00001F0004121FA04F220EA020000EBD370FE
:10C5C0005EEA430E08BF20EAD37070BD94F0000FFE
:10C5D0000FD101F00046400041EB010111F4801F32
:10C5E00008BF013CF7D041EA060195F0000F18BFE3
:10C5F000704703F00046520043EB030313F4801F1F
:10C6000008BF013DF7D043EA0603704794EA0C0FD8
:10C610000CEA135518BF95EA0C0F0CD050EA4106EE
:10C6200018BF52EA4306D1D181EA030101F000416B
:10C630004FF0000070BD50EA410606BF1046194693
:10C6400052EA430619D094EA0C0F02D150EA01369F
:10C6500013D195EA0C0F05D152EA03361CBF1046E0
:10C6600019460AD181EA030101F0004141F0FE417F
:10C6700041F470014FF0000070BD41F0FE4141F403
:10C68000780170BD70B54FF0FF0C4CF4E06C1CEA03
:10C6900011541DBF1CEA135594EA0C0F95EA0C0FB8
:10C6A00000F0A7F8A4EB050481EA030E52EA033573
:10C6B0004FEA013100F088804FEA03334FF0805594
:10C6C00045EA131343EA12634FEA022245EA1115C1
:10C6D00045EA10654FEA00260EF000419D4208BF72
:10C6E000964244F1FD0404F5407402D25B084FEA1F
:10C6F0003202B61A65EB03055B084FEA32024FF4CB
:10C7000080104FF4002CB6EB020E75EB030E22BF27
:10C71000B61A754640EA0C005B084FEA3202B6EBE7
:10C72000020E75EB030E22BFB61A754640EA5C0096
:10C730005B084FEA3202B6EB020E75EB030E22BF26
:10C74000B61A754640EA9C005B084FEA3202B6EB27
:10C75000020E75EB030E22BFB61A754640EADC00E6
:10C7600055EA060E18D04FEA051545EA16754FEA48
:10C7700006164FEAC30343EA52734FEAC2025FEA66
:10C780001C1CC0D111F4801F0BD141EA00014FF0F5
:10C7900000004FF0004CB6E711F4801F04BF0143C6
:10C7A0000020B4F1FD0C88BFBCF5E06F3FF6AFAEE2
:10C7B000B5EB030C04BFB6EB020C5FEA500C50F172
:10C7C000000041EB045170BD0EF0004E4EEA1131F5
:10C7D00014EB5C04C2BFD4EB0C0541EA045170BDFC
:10C7E00041F480114FF0000E013C90E645EA060E40
:10C7F0008DE60CEA135594EA0C0F08BF95EA0C0F6E
:10C800003FF43BAF94EA0C0F0AD150EA01347FF4B5
:10C8100034AF95EA0C0F7FF425AF104619462CE78C
:10C8200095EA0C0F06D152EA03353FF4FDAE1046EF
:10C83000194622E750EA410618BF52EA43067FF440
:10C84000C5AE50EA41047FF40DAF52EA43057FF4D0
:10C85000EBAE12E700000000000000000000000046
:10C860004FF0FF3C06E000BF4FF0010C02E000BFBC
:10C870004FF0010C4DF804CD4FEA410C7FEA6C5C9F
:10C880004FEA430C18BF7FEA6C5C1BD001B050EA42
:10C89000410C0CBF52EA430C91EA030F02BF90EA2D
:10C8A000020F0020704710F1000F91EA030F58BFEC
:10C8B000994208BF90422CBFD8176FEAE37040F04E
:10C8C000010070474FEA410C7FEA6C5C02D150EAEC
:10C8D000013C07D14FEA430C7FEA6C5CD6D152EAA7
:10C8E000033CD3D05DF8040B704700BF844610466C
:10C8F00062468C461946634600E000BF01B5FFF76B
:10C90000B7FF002848BF10F1000F01BD4DF808ED3A
:10C91000FFF7F4FF0CBF012000205DF808FB00BF0B
:10C920004DF808EDFFF7EAFF34BF012000205DF865
:10C9300008FB00BF4DF808EDFFF7E0FF94BF0120B2
:10C9400000205DF808FB00BF4DF808EDFFF7CEFFB3
:10C9500094BF012000205DF808FB00BF4DF808EDF2
:10C96000FFF7C4FF34BF012000205DF808FB00BFC3
:10C970004FEA410212F5001215D211D56FF4787307
:10C98000B3EB625212D94FEAC12343F0004343EAAA
:10C99000505311F0004F23FA02F018BF4042704785
:10C9A0004FF00000704750EA013005D111F000400F
:10C9B00008BF6FF0004070474FF00000704700BFA5
:10C9C0004FEA4102B2F1E04324BFB3F5001CDCF1B1
:10C9D000FE5C0DD901F0004C4FEAC0024CEA5070E9
:10C9E000B2F1004F40EB830008BF20F00100704718
:10C9F00011F0804F21D113F13872BCBF01F000401B
:10CA0000704741F480114FEA5252C2F11802C2F14C
:10CA1000200C10FA0CF320FA02F018BF40F00100CD
:10CA20004FEAC1234FEAD32303FA0CFC40EA0C007F
:10CA300023FA02F34FEA4303CCE77FEA625307D1BC
:10CA400050EA01331EBF4FF0FE4040F440007047F3
:10CA500001F0004040F0FE4040F40000704700BF8D
:10CA6000844641EA000313F003036DD1403A41D3F9
:10CA700051F8043B40F8043B51F8043B40F8043BB8
:10CA800051F8043B40F8043B51F8043B40F8043BA8
:10CA900051F8043B40F8043B51F8043B40F8043B98
:10CAA00051F8043B40F8043B51F8043B40F8043B88
:10CAB00051F8043B40F8043B51F8043B40F8043B78
:10CAC00051F8043B40F8043B51F8043B40F8043B68
:10CAD00051F8043B40F8043B51F8043B40F8043B58
:10CAE00051F8043B40F8043B51F8043B40F8043B48
:10CAF000403ABDD2303211D351F8043B40F8043BE8
:10CB000051F8043B40F8043B51F8043B40F8043B27
:10CB100051F8043B40F8043B103AEDD20C3205D3F7
:10CB200051F8043B40F8043B043AF9D2043208D0EF
:10CB3000D2071CBF11F8013B00F8013B01D30B8861
:10CB400003806046704700BF082A13D38B078DD03F
:10CB500010F003038AD0C3F10403D21ADB071CBF11
:10CB600011F8013B00F8013B80D331F8023B20F87B
:10CB7000023B7BE7043AD9D3013A11F8013B00F8B4
:10CB8000013BF9D20B7803704B7843708B7883703C
:10CB90006046704700000000000000000000000038
:10CBA000704700BFAFF30080AFF30080AFF30080A9
:10CBB000FEE700BFAFF30080AFF30080AFF300806B
:10CBC00072B6374880F30988364B37491A684FF0F8
:10CBD000404442F470021A600C600023E1EE103A07
:10CBE00006228B6082F31488BFF36F8F2F4B304A7D
:10CBF00093420BD2D943114421F0030119444FF061
:10CC00005532043B43F8042F8B42FBD1294B83421E
:10CC10000CD229491A1D891A21F0030119444FF039
:10CC20005532043B43F8042F8B42FBD103F0A8FD9F
:10CC30002249234B99420BD2C843184420F00300E9
:10CC4000204C04300023E258CA5004338342FAD106
:10CC50001D4B1E4A93420AD2D943114421F00301CD
:10CC600019440022043B43F8042F8B42FBD1184D9A
:10CC7000184CFFF795FFAC4204D254F8043B984798
:10CC8000AC42FAD3144D154CFFF7BAF9AC4204D2BA
:10CC900054F8043B9847AC42FAD3FFF789FF00BF32
:10CCA0000010002088ED00E034EF00E000000020DC
:10CCB00000080020000800200310002000100020C1
:10CCC000941400208870010898140020E840012086
:10CCD00000C0000800C0000800C0000800C0000834
:10CCE000FEE700BFAFF30080AFF30080AFF300803A
:10CCF00072B6FEE7AFF30080AFF30080AFF30080C1
:10CD000000F0CEFA024B4FF080525A6062B6FEE756
:10CD100000ED00E0AFF30080AFF30080AFF30080E0
:10CD2000054B5A6822F001025A60EFF30983683319
:10CD300083F30988704700BF30EF00E0AFF3008055
:10CD400008B5094B094A002199600720DA601021D3
:10CD500000F0C6F80A20102100F0C2F80B20802154
:10CD6000BDE8084000F0BCB800ED00E00003FA05A3
:10CD700072B6184B5B681B051FD5F1EE10FAEFF386
:10CD80000983154A4FF08071D26843F8082C43F8A4
:10CD90004C1CA3F1680282F3098810498A6909686A
:10CDA000D07F8968926850B1914294BF00220122DD
:10CDB0005AB10B4A43F8502C704762B67047914203
:10CDC00034BF00220122002AF3D1064A43F8502C36
:10CDD000704700BF00ED00E030EF00E0C816002013
:10CDE00001CD000804CD0008AFF30080AFF3008050
:10CDF00008B572B600F0CCF862B6BDE80840FFF79F
:10CE0000B7BF00BFAFF30080AFF30080AFF3008087
:10CE10002DE9F04F2DED108AC1F80CD0D0F80CD0D0
:10CE2000BDEC108ABDE8F08FAFF30080AFF3008057
:10CE300062B62846A04700F00BFB7047AFF30080B6
:10CE400020F0030202F1604202F56142F0B44309AE
:10CE500000F00304D2F80053E400FF269B00A64034
:10CE600003F1604325EA060503F561430127A1406C
:10CE700000F01F0007FA00F045EA0104C2F8004381
:10CE8000C3F88001F0BC1860704700BFAFF30080AA
:10CE9000410930B4203100F01F0401250C4A20F074
:10CEA000030305FA04F403F1604342F8214003F55B
:10CEB000614300F00300D3F80023C000FF2101FA12
:10CEC00000F022EA0000C3F8000330BC704700BF46
:10CED00000E100E0AFF30080AFF30080AFF300802B
:10CEE00020F0030303F1604303F56D4300F00300FA
:10CEF00010B4C0009A69FF24844022EA04028140F1
:10CF00000A439A615DF8044B704700BFAFF300809D
:10CF1000024B034A9B699A61FEE700BFC8160020D6
:10CF2000F0630108AFF30080AFF30080AFF300803F
:10CF300000B583B0FFF704FF00F0CAF800F050F826
:10CF400000F0B6FC00F0E4FC40210B4800F0B8F91A
:10CF50000A4B01229861027762B69B690849996180
:10CF6000002300934FF4EC71064B074800F008FAD9
:10CF700003B05DF804FB00BF98140020C816002021
:10CF80000064010811CF0008E0140020AFF3008016
:10CF900038B5114B9B69DA7F0AB1013ADA771A6A20
:10CFA0000E4C01321A62E26823680132A342E26049
:10CFB00010D09D68013D9D6065B91A68D9682260EE
:10CFC000DD60546062B61869884772B623689A6853
:10CFD000002AF2D038BD00BFC8160020B8160020C5
:10CFE000044B4FF0FF3100225B601B609960DA60F8
:10CFF000704700BFB8160020AFF30080AFF3008089
:10D0000070B40C4E3468A5680361A942C26004D9AB
:10D010002468491BA5688D42FAD363684360B44213
:10D02000046060601860816002D0A368591AA16032
:10D0300070BC7047B8160020AFF30080AFF30080DB
:10D04000074A0368934203D0996882680A449A6049
:10D0500042681360036800215A60C160704700BFD6
:10D06000B8160020AFF30080AFF30080AFF300806C
:10D0700010B472B6037F0D2B11D8DFE803F0201037
:10D080001007100B101010101010100B436A9A6844
:10D0900001329A6090E80C001A60026853604FF009
:10D0A000FF3400228168084B446202771B689A684B
:10D0B0008A42FBD25A68426003605860106062B6D0
:10D0C0005DF8044B704700BFC8160020AFF3008026
:10D0D000034B00225B601B605B611B619A607047C1
:10D0E000C8160020AFF30080AFF30080AFF30080DC
:10D0F00000228168084B10B4044602771B689A68C6
:10D100008A42FBD25A686260236020465C601460E9
:10D110005DF8044B704700BFC8160020AFF30080D5
:10D12000084B30B41A6899691468087701250420FF
:10D13000C877636015771C60104630BC9A61FFF7B2
:10D1400067BE00BFC8160020AFF30080AFF30080B9
:10D1500030B54B1C87B0054611D00C4C0C4AA36966
:10D1600001A8FFF74DFF2846FFF7DAFF049B13B134
:10D1700001A8FFF765FFA369586A07B030BD034CEB
:10D18000FFF7CEFFA369586A07B030BDC81600206C
:10D1900071D00008AFF30080AFF30080AFF30080E0
:10D1A000DFF858C0F0B4DCF818708568BC684162DC
:10D1B000A54206460DD80022634602771B689A688E
:10D1C0009542FBD95A68726033605E601660F0BCAD
:10D1D000704700233B7763461B689A689442FBD9EB
:10D1E0005A687A6001243B605F6017603477394683
:10D1F0003046CCF81860F0BCFFF70ABEC816002015
:10D200000E4A1068F0B4036895691360012704267C
:10D210000021AC685A60077703469061EE77297762
:10D2200000E01B689A68A242FBD25A686A602B60D1
:10D2300029465D601560F0BCFFF7EABDC816002006
:10D240000D4A106870B403689569136001260021C7
:10D25000AC685A60067703469061297700E01B6846
:10D260009A68A242FBD85A686A602B6029465D60C2
:10D27000156070BCFFF7CCBDC8160020AFF300806E
:10D28000044B1A689B6992689B689A4200D8704761
:10D29000FFF7D6BFC8160020AFF30080AFF30080C1
:10D2A000034B9B69DB7F0BB1FFF7CABFFFF7A8BF3A
:10D2B000C8160020AFF30080AFF30080AFF300800A
:10D2C0002DE9F003114C016465694561002200F10C
:10D2D0002C064FF002094FF0040800F128074FF028
:10D2E000010C0461816080F81C90606180F81F80EF
:10D2F00080F81EC04277C263826302628261286145
:10D3000087620663C662BDE8F0037047C816002056
:10D310002DE9F00F174D089E6F69DFF85CC0643986
:10D320000144C1604FF0020B0B644E64002300F116
:10D330002C064FF0040A4FF0010900F12808C1F84B
:10D3400060C005614761826080F81CB080F81FA052
:10D3500080F81E90686102644377C363836303624D
:10D3600083613861C0F828800663C662BDE8F00FAB
:10D37000704700BFC816002031CE0008AFF3008010
:10D380002DE9F84F044672B61A4E0A9FD6F814E0FB
:10D39000DFF864B064390144C16000250B6400F11A
:10D3A000280C00F12C034FF0020A4FF004094FF053
:10D3B00001084F64C1F860B082600661C0F814E0F3
:10D3C000026480F81CA080F81F9080F81E804577CA
:10D3D0007061C5638563056285612946CEF81000DA
:10D3E000C0F828C00363C362FFF7DAFE62B62046C6
:10D3F000BDE8F88FC816002031CE0008AFF30080DA
:10D4000008B5014672B60620FFF7A2FE62B608BD57
:10D4100038B50E4B9C692546606255F8280FA84226
:10D4200006D00368A362FFF763FEA06AA842F8D1A2
:10D43000637F9B0704D1636922691A612269536182
:10D440000E20BDE83840FFF76BBE00BFC8160020B5
:10D4500072B6FFF7DDBF00BFAFF30080AFF300800F
:10D460004060006081607047AFF30080AFF30080E0
:10D4700083680133002B836000DD704703681A68FE
:10D4800002600021506018465962FFF731BE00BFAC
:10D490000023406000608360704700BFAFF30080EE
:10D4A00070B52F4B054680689C69002853D0A26850
:10D4B00083689A4206D9037F8260042B32D0052B01
:10D4C0001CD09BB12B4603E09968A268914202D31D
:10D4D0001B689D42F8D15A68626023605C601460EA
:10D4E00065620420BDE87040FFF71ABE90E80C00AA
:10D4F0001A6002685360FFF7FBFDE3E790E80A005B
:10D500001960466A01684B60334602E099688A42B6
:10D5100002D81B689E42F9D15A6842600360586085
:10D520001060CFE790E80A001960466A01684B6016
:10D53000334602E09968914202D31B689E42F9D1BA
:10D540005A684260036058601060B068A2688368DF
:10D550009342B0D3B6E7E36BEB60AC60E56370BDBC
:10D56000C8160020AFF30080AFF30080AFF3008057
:10D5700008B572B6FFF794FF62B608BDAFF300803E
:10D5800038B5144B986972B6C46B2568E368C363F9
:10D59000A5421AD0016C4BB11A689A4203D0926826
:10D5A000914238BF1146DB68002BF5D12B68EA6B3E
:10D5B0008160236028465C600021A560E260EC6326
:10D5C000FFF7EEFD62B6204638BD0023A36062B6C9
:10D5D000204638BDC8160020AFF30080AFF30080AE
:10D5E00008B5826B037F1143082B81630BD0092B95
:10D5F00000D008BD436A19408B42FAD1FFF778FD8D
:10D600000023436208BD436A1942F7D108BD00BF39
:10D6100070B50468A04205460E4608D0201D0BC810
:10D620003343E360FFF7DCFF2468A542F6D170BD09
:10D6300008B572B6FFF7D4FFFFF722FE62B608BD49
:10D6400038B5094B05469C6972B6A36B184006D1E4
:10D6500008206562FFF764FDA36B05EA030023EA77
:10D660000003A36362B638BDC8160020AFF3008084
:10D6700010B4024661B1094B9B69586244680D20A1
:10D6800083E81400536023605DF8044BFFF760BD2E
:10D690004FF0FF305DF8044B704700BFC816002004
:10D6A00030B4029C046200250A4485600261406037
:10D6B000006041618161C160C36130BC704700BFDF
:10D6C00038B504460068E36863610022A042A260A6
:10D6D000A3610AD06FF00105036823605C60FFF767
:10D6E00007FD45622068A042F6D138BDAFF3008047
:10D6F00038B50D46044672B6C3692BB1984703E0AE
:10D70000FFF7B6FF002810DBA36820462946002B50
:10D71000F6D0A16925694A1C013BAA42A360A26117
:10D7200028BFE368087828BFA36162B638BD00BF90
:10D730002DE9F04704461E46D0F81C8072B64FF023
:10D74000000901EB020A4F1CB8F1000F05D020467A
:10D75000C04702E0FFF78CFFD0B9A56820463146EC
:10D76000002DF7D0A369013D5A1CA261A5601B786A
:10D7700007F8013C2369A2699A4224BFE368A361C8
:10D7800062B6574509F1010903D072B60137DBE7EC
:10D7900062B64846BDE8F087AFF30080AFF3008083
:10D7A00030B4029C04628D180561406000608260A4
:10D7B00041618161C160C36130BC7047AFF30080DB
:10D7C00038B50269C368044600686361D21AA04292
:10D7D000A361A2600AD06FF00105036823605C605A
:10D7E000FFF786FC45622068A042F6D138BD00BF35
:10D7F00070B504460E46154672B603E0FFF738FFD3
:10D80000002817DBA36820462946002BF6D0626962
:10D81000013B511C6161A3601670236962699A42E1
:10D8200024BFE3686361E3690BB12046984762B6A1
:10D83000002070BD62B670BDAFF30080AFF3008012
:10D840002DE9F84F04460E4617469A46D0F81C902C
:10D8500072B64FF00008A56806F1010B20466B1E5A
:10D86000BDB16269A360531C63613378137023698F
:10D8700062699A4224BFE3686361B9F1000F00D086
:10D88000C84762B6013F08F1010809D072B65E468A
:10D89000E1E720465146FFF7EBFE0028DBD062B6F9
:10D8A0004046BDE8F88F00BFAFF30080AFF30080C3
:10D8B0000548064A0649074B20F0070022F00702F8
:10D8C00008601A60704700BFEF400120000002208E
:10D8D000E8160020E4160020AFF30080AFF30080CC
:10D8E00072B6084A084913680968073020F0070033
:10D8F000C91A88429BBFC01810600020184662B643
:10D90000704700BFE8160020E4160020AFF3008047
:10D91000044B054A1A6003F1100000229A60DA6095
:10D92000FFF7B6BDF0160020E1D80008AFF3008085
:10D9300008B500F0DDFF094801F0F2F900F030F819
:10D9400000F056F800F0CCF800F09AFA00F0C8FAAF
:10D9500000F09EF9BDE8084002F01ABF806501089A
:10D960000C494A68104482424B680CD29A4203D94F
:10D970000023002BF7D17047984294BF0023012366
:10D98000002BF0D1F7E79A42F6D80123002BEAD119
:10D99000F1E700BF001000E0AFF30080AFF30080BC
:10D9A00001F0A6B9AFF30080AFF30080AFF30080C1
:10D9B00038B5012300250446037045602946083028
:10D9C000FFF74EFD294604F11400FFF749FD04F16D
:10D9D000200504F1240004F1280104F12C0204F1D3
:10D9E000300325626062A162E262236338BD00BF3A
:10D9F00001F076BCAFF30080AFF30080AFF300809E
:10DA000001220023027043600C30FFF741BD00BFCC
:10DA100010B5044672B6416001F07AFC022323700F
:10DA200062B610BDAFF30080AFF30080AFF30080AB
:10DA300010B5044672B601F02BFD0123237062B6C7
:10DA400010BD00BFAFF30080AFF30080AFF30080E4
:10DA5000F0B585B004460A9F0B9E72B64FF0030ED8
:10DA6000019600250C9E00970296856080F800E0E4
:10DA700001F0A6FD431C0CBF05230223237062B6F0
:10DA800005B0F0BDAFF30080AFF30080AFF30080CE
:10DA9000F0B583B00446089D72B6002704260095B1
:10DAA0008760067001F01CFD431C0CBF0523022398
:10DAB000237062B603B0F0BDAFF30080AFF3008017
:10DAC0000C30FFF755BD00BFAFF30080AFF300800F
:10DAD000FFF756BDAFF30080AFF30080AFF30080D7
:10DAE00002F0C6BBAFF30080AFF30080AFF300805D
:10DAF0000122002302704360704700BFAFF3008033
:10DB000010B5044672B6416002F0C2FB02232370D6
:10DB100062B610BDAFF30080AFF30080AFF30080BA
:10DB200010B5044672B602F013FC0323237062B6EC
:10DB300010BD00BFAFF30080AFF30080AFF30080F3
:10DB400010B5046AD4F854321A681178042900D048
:10DB500010BD217A0229FBD112891B7942FA03F305
:10DB6000DB07F5D4216CE26BA36B8A1AD31AEFD0D2
:10DB700062B6D4F854221068117904F1300200F032
:10DB800007FA72B6D4F85432BDE810401868197913
:10DB900000F026BAAFF30080AFF30080AFF300804F
:10DBA00010B5046AD4F8542213681978042900D0F7
:10DBB00010BD217A0229FBD15279598903EB8203E6
:10DBC00041FA02F2DB68D2075B8AF1D4E069A2690C
:10DBD0006169821A521A9342EAD862B6D4F8541292
:10DBE000B2FBF3F203FB02F30868497904F10C027B
:10DBF00000F0BEF972B6D4F85432BDE8104018688F
:10DC0000597900F0D5B900BFAFF30080AFF30080C1
:10DC10000C30FFF78DBD00BFAFF30080AFF3008085
:10DC20000C304FF0FF33FFF783BD00BFAFF3008030
:10DC30003030FFF705BE00BFAFF30080AFF30080C8
:10DC400030304FF0FF33FFF7FBBD00BFAFF3008074
:10DC50000C30FFF74DBD00BFAFF30080AFF3008085
:10DC60000C304FF0FF31FFF743BD00BFAFF3008032
:10DC70003030FFF7BDBD00BFAFF30080AFF30080D1
:10DC800030304FF0FF32FFF7B3BD00BFAFF300807D
:10DC9000704700BFAFF30080AFF30080AFF30080A8
:10DCA00010B503460E4A43F8042B82B00446012205
:10DCB000009004F15401436002720A4B0C304FF49F
:10DCC0008072FFF7EDFC009404F1300004F5AA71B6
:10DCD0004FF48072044BFFF763FD02B010BD00BF2C
:10DCE00020640108A1DB000841DB0008AFF30080DD
:10DCF00010B40B6872B60C7903EB84040222A061A5
:10DD00004C79093443F824008C7903EB840398613F
:10DD1000C0F85412027262B65DF8044B704700BF3F
:10DD200070B5D0F8543200F10C06044630461D6838
:10DD3000FFF7C6FC04F13000FFF742FD201D012172
:10DD4000FFF766FCD4F85432597905EB8103284675
:10DD5000DB6832465B8A00F00BF9D4F8543228466F
:10DD60005979BDE8704000F023B900BFAFF30080DF
:10DD700090F8443003F06003202B01D0002070475E
:10DD800090F84530212B03D0222B09D0202BF5D140
:10DD9000064B836307220023C2630364012070479C
:10DDA00000238363C36303640120704700100020D5
:10DDB00000EB810370B59C6906460D468CB172B6C6
:10DDC0000821201DFFF724FC216CE26BA36B8A1A4B
:10DDD000D31A0BD106EB8503DA6853695B680BB97C
:10DDE00062B670BD128A013A1340F9D162B604F1ED
:10DDF00030023046294600F0CBF872B6304629464C
:10DE000000F0EEF8ECE700BFAFF30080AFF3008066
:10DE100001F1090370B550F823400D46064684B160
:10DE200072B604216018FFF7F3FB06EB8503E06987
:10DE3000DB68A26961695B8A821A521A934201D92E
:10DE400062B670BD62B6B2FBF3F203FB02F330467A
:10DE500004F10C02294600F08BF872B630462946D0
:10DE600000F0A6F8ECE700BFAFF30080AFF300804E
:10DE7000704700BFAFF30080AFF30080AFF30080C6
:10DE800002F086BBAFF30080AFF30080AFF30080F9
:10DE9000002301220270437083704360704700BF0B
:10DEA00010B5044672B6416002F09AFB022323705B
:10DEB00062B610BDAFF30080AFF30080AFF3008017
:10DEC00010B5044672B602F04BFC0123637062B6D3
:10DED00010BD00BFAFF30080AFF30080AFF3008050
:10DEE00001F0BEBDAFF30080AFF30080AFF3008060
:10DEF0000023012202704360C36183620362C36234
:10DF00004362036303814381704700BFAFF3008026
:10DF100010B5044672B60023C36003614361836198
:10DF2000416001F0B5FD0223237062B610BD00BF51
:10DF300070B50646506914460D4618B100211422EA
:10DF400008F006FAA06918B10021142208F000FABE
:10DF500006EB85033046DC602946BDE8704001F0E1
:10DF600077BE00BFAFF30080AFF30080AFF3008057
:10DF700070B400EB81040126E468A4690025E26026
:10DF800063602670A56070BC01F04ABFAFF30080EB
:10DF900070B400EB81040126E46864690025E26046
:10DFA00063602670A56070BC01F0AABFAFF300806B
:10DFB00070B5448944FA01F313F0010601D0012041
:10DFC00070BD012303FA01F52C43448102F0A0F84F
:10DFD000304670BDAFF30080AFF30080AFF3008038
:10DFE00070B5048944FA01F313F0010601D0012051
:10DFF00070BD012303FA01F52C43048102F098F867
:10E00000304670BDAFF30080AFF30080AFF3008007
:10E01000002202210170A0F84C2080F84E2080F8E8
:10E020004F2002814281C26002614261826180F8B8
:10E03000342001F09DBD00BFAFF30080AFF300803E
:10E04000F8B50023044680F8343000F1440201F0B2
:10E05000D7FE63689B684BB32046984730B3E56BA7
:10E0600094F8443094F84B1094F84A2042EA012284
:10E07000AA423CBFE263154613F0800FE36840F00C
:10E080008180002D69D15B69052284F83420204607
:10E090001D70DD605D609D60294601F031FF72B644
:10E0A00020462946FFF79CFF62B6F8BD94F844303D
:10E0B00013F0600711D02046002102F061F82046DD
:10E0C000002102F04DF863681B6813B1204605215A
:10E0D0009847062384F83430F8BD94F8456003F07F
:10E0E0007F0242EA0626B6F5407F00F0F68016DD94
:10E0F000B6F5C06F00F0D8806DDDB6F5106F7DD03D
:10E1000040F60242964200F0FB80B6F5006FD2D195
:10E1100004F14F0201252764A263E563A2E7022E02
:10E1200000F0AB8040F3A080B6F5807F00F08C80DB
:10E13000B6F5817FBFD194F84620002ABBD194F870
:10E14000482012F00F0154D01206204600F1008141
:10E1500002F026F894F844304BE09B69A26B00264D
:10E16000042184F8341020463146DA605D601E7068
:10E170009E6001F055FE72B620463146FFF718FF4B
:10E1800062B6F8BDA5B15B69A26B0026012184F8D7
:10E19000341020463146DA605D601E709E6001F0EA
:10E1A000AFFE72B620463146FFF71AFF62B6F8BDE1
:10E1B0009B69032284F8342020461D70DD605D6079
:10E1C0009D60294601F02CFE72B620462946FFF7D5
:10E1D000EFFE62B6F8BD40F20232964221D0B6F5AB
:10E1E000A06F7FF468AFB4F84420B2F5A06F00F0E0
:10E1F0009D800025A563E563256433E794F84620F8
:10E2000084F84F20002A40F0828003222270626846
:10E210001268002AEDD020460221904794F844303D
:10E22000E7E794F84620002A7FF445AF94F84820A9
:10E2300012F00F01DDD01306204600F18E8001F0B0
:10E240008FFF94F84430D4E794F84620012A7FF4F5
:10E2500032AFB4F84C20A76322F00202E7632764D0
:10E260003D46A4F84C20FDE6002E46D104F14C02B8
:10E2700002252664A263E563F4E694F8481011F0E1
:10E28000800F204601F00F0144D101F099FD0128D3
:10E2900044D002287FF40FAF324BA363E0632764BE
:10E2A000054694F84430DDE6626894F8490094F835
:10E2B0004830556894F8471094F8462043EA002304
:10E2C0002046A84700283FF4F6AE43680568E5639A
:10E2D000A363276494F84430C4E694F84620012AE6
:10E2E0007FF4E9AEB4F84C20A76342F00202E76382
:10E2F00027643D46A4F84C20B4E6012E7FF4DBAE43
:10E30000194AA26302250022E5632264AAE60422D8
:10E3100022707CE701F064FD0128BAD1134BA3639E
:10E32000E6632764354694F844309BE694F846301B
:10E3300084F84E30204601F07BFC63681B6813B103
:10E34000204601219847032294F84430227050E778
:10E3500001F036FF94F844304BE701F011FF94F8D8
:10E36000443046E7506401084064010860640108D5
:10E3700038B590F83430022B04463FD0052B36D008
:10E38000012B10D0002101F0FBFE2046002101F0FE
:10E39000E7FE63681B6813B12046052198470623F2
:10E3A00084F8343038BD90F84B1090F84A30C26B86
:10E3B00043EA01239342C36805D9198AB2FBF1F5F8
:10E3C00001FB1525E5B19B690025032284F8342063
:10E3D00029461D70DD605D609D60204601F020FDD6
:10E3E00072B620462946FFF7E3FD62B638BD036CDE
:10E3F00003B19847002384F8343038BDC368E2E79E
:10E400005B6929461D70DD605D609D6001F078FDEF
:10E4100072B629462046FFF7E3FD62B6022384F870
:10E42000343038BDAFF30080AFF30080AFF300802D
:10E4300038B590F83430032B044627D0042B11D084
:10E440002046002101F09CFE2046002101F088FEBC
:10E4500063681B6813B1204605219847062384F89A
:10E46000343038BDC3685B690025052280F834204C
:10E4700029461D70DD605D609D6001F041FD72B652
:10E4800020462946FFF7ACFD62B638BDC3689B69DC
:10E490009B68002BD4D1036C03B19847002384F808
:10E4A000343038BDAFF30080AFF30080AFF30080AD
:10E4B00008B5074B074A196801F03D0199601368D8
:10E4C0000BB150689847BDE80840FEF751BC00BF4B
:10E4D0000060024010170020AFF30080AFF300800F
:10E4E000084B094819688268890901F03D0110B597
:10E4F0008C019C600AB1C0689047BDE81040FEF7EF
:10E5000037BC00BF0060024010170020AFF300804E
:10E51000084B094819680269090C01F03D0110B562
:10E520000C049C600AB140699047BDE81040FEF7BA
:10E530001FBC00BF0060024010170020AFF3008036
:10E54000084B094819688269890D01F03D0110B531
:10E550008C059C600AB1C0699047BDE81040FEF789
:10E5600007BC00BF0060024010170020AFF300801E
:10E5700008B5074B07485968026A01F03D01D960A8
:10E580000AB1406A9047BDE80840FEF7F1BB00BF02
:10E590000060024010170020AFF30080AFF300804E
:10E5A000084B09485968826A890901F03D0110B594
:10E5B0008C01DC600AB1C06A9047BDE81040FEF7EC
:10E5C000D7BB00BF0060024010170020AFF30080EF
:10E5D000084B09485968026B090C01F03D0110B560
:10E5E0000C04DC600AB1406B9047BDE81040FEF7B8
:10E5F000BFBB00BF0060024010170020AFF30080D7
:10E60000084B09485968826B890D01F03D0110B52E
:10E610008C05DC600AB1C06B9047BDE81040FEF786
:10E62000A7BB00BF0060024010170020AFF30080BE
:10E6300008B5074B07481968026C01F03D01996065
:10E640000AB1406C9047BDE80840FEF791BB00BF9F
:10E650000064024010170020AFF30080AFF3008089
:10E66000084B09481968826C890901F03D0110B511
:10E670008C019C600AB1C06C9047BDE81040FEF769
:10E6800077BB00BF0064024010170020AFF300808A
:10E69000084B09481968026D090C01F03D0110B5DD
:10E6A0000C049C600AB1406D9047BDE81040FEF735
:10E6B0005FBB00BF0064024010170020AFF3008072
:10E6C000084B09481968826D890D01F03D0110B5AC
:10E6D0008C059C600AB1C06D9047BDE81040FEF704
:10E6E00047BB00BF0064024010170020AFF300805A
:10E6F00008B5074B07485968026E01F03D01D96023
:10E700000AB1406E9047BDE80840FEF731BB00BF3C
:10E710000064024010170020AFF30080AFF30080C8
:10E72000084B09485968826E890901F03D0110B50E
:10E730008C01DC600AB1C06E9047BDE81040FEF766
:10E7400017BB00BF0064024010170020AFF3008029
:10E75000084B09485968026F090C01F03D0110B5DA
:10E760000C04DC600AB1406F9047BDE81040FEF732
:10E77000FFBA00BF0064024010170020AFF3008012
:10E78000084B09485968826F890D01F03D0110B5A9
:10E790008C05DC600AB1C06F9047BDE81040FEF701
:10E7A000E7BA00BF0064024010170020AFF30080FA
:10E7B0000C4B30B400220C4D0C4C1A601146134621
:10E7C000E8580C33C02B0160A15002F10802F7D1C8
:10E7D0000749084A4FF0FF338B6030BCCB60936031
:10E7E000D360704790170020706401081017002054
:10E7F0000060024000640240AFF30080AFF300808D
:10E800002DE9F041214E447A3768012505FA04FCD0
:10E810001CEA070F33D11E4D4CEA070705EBC4086D
:10E8200017F0FF0F45F834203760C8F8043004D0E3
:10E83000184B1C6B44F400141C6317F47F4F18D161
:10E840000468236823F01F032360236813F0010585
:10E85000FBD1067A43683D27B74021261F6025601B
:10E8600066617AB1807A0901FEF7EAFA2846BDE8C6
:10E87000F081084B1C6B44F480041C63E0E72846DD
:10E88000BDE8F0811046BDE8F08100BF9017002080
:10E890001017002000380240AFF30080AFF3008073
:10E8A00010B50446807AFEF7F3FA0D4A637A1168D0
:10E8B000012000FA03F321EA030313F0FF0F1360B2
:10E8C00004D1084A116B21F40011116313F47F4F36
:10E8D00004D1044B1A6B22F480021A6310BD00BFEE
:10E8E0009017002000380240AFF30080AFF30080A3
:10E8F000214B22491A694FF0FF3000222DE9F00127
:10E9000018611A615F6958615A611F6A1C4E1D4D7A
:10E910001D4C67F080571F6244F29F1C1A62072744
:10E92000D3F8248058625A62C1F804C08A600F602C
:10E93000F16841F08071F160296841F001012960BE
:10E94000196C41F080511964216841F48071216093
:10E95000196F01F44071B1F5007F03D04FF480319D
:10E9600019671A67084B5A6822F400725A60BDE8AA
:10E97000F001FFF71DBF00BF0038024010E000E0CB
:10E98000F0ED00E0001000E000700040AFF3008008
:10E990002B492C4B4FF080504FF4404208641A60D2
:10E9A0000B6843F001030B600B68254A9807FBD501
:10E9B0001168002301F0F9011160114693608B6822
:10E9C0001F4A13F00C0FFAD1136843F4803313601D
:10E9D00011460B681A4A9B03FBD5536F43F00103A2
:10E9E000536711464B6F164A9807FBD5164B536079
:10E9F0001368144943F0807313604B685A04FCD5C4
:10EA00000F490B680E4A9B01FBD5104B10499160D2
:10EA100040F205711960936843F002039360114658
:10EA20008B68074A03F00C03082BF9D1536C43F4AD
:10EA300080435364536E43F480435366704700BF72
:10EA4000003802400070004008544007003C02407B
:10EA500000940838AFF30080AFF30080AFF300807C
:10EA6000F0B4444C444B256C45F000752564D3F854
:10EA70000042240C240444F0010444EA0024C3F8B6
:10EA8000004200295BD00025C3F81C522846C3F879
:10EA900004522C46C3F80C52C3F81452C30003F1BD
:10EAA000804303F5C84301301C28C3F84042C3F833
:10EAB0004442F3D1304B0026012715681479E80051
:10EAC00000F1804014F0010F00F5C84006F1010686
:10EAD00007FA05F505D0D3F804422C43C3F80442E5
:10EAE000147914F0020F05D0D3F80C422C43C3F86C
:10EAF0000C421479640704D5D3F814422C43C3F8AC
:10EB000014429468C0F84042D468C0F84442D3F834
:10EB10001C028E4245EA000502F11002C3F81C52A5
:10EB2000CBD1154A134BD2F8001221F00101C2F8E3
:10EB300000121A6C22F000721A64F0BC7047C20016
:10EB4000012402F1804202F5C84204FA00F0204399
:10EB5000C3F84012C3F84412C2F84012C2F844127B
:10EB6000C3F80412C3F81412C3F80C02C3F81C0251
:10EB7000D7E700BF0038024000640040AFF30080D8
:10EB800010B50B4C0B4A636B9A6072B62369002B6D
:10EB900005DA0948FEF76CFC2369002BF9DB07480E
:10EBA0000121FEF735FD62B6BDE81040FEF7E0B882
:10EBB00094170020010101009C170020B8170020C5
:10EBC00038B5134C636BDD68AA0712D05A6922F07E
:10EBD00002025A6172B6E369002B05DA0D48FEF7AE
:10EBE00047FCE369002BF9DB0B480121FEF710FD20
:10EBF00062B6EB0607D5636B1021D96072B6074881
:10EC0000FEF706FD62B6BDE83840FEF7B1B800BFBA
:10EC100094170020A8170020B4170020BC1700206C
:10EC200038B5134C636B1D69AA0712D05A6922F0DC
:10EC300010025A6172B6E369002B05DA0D48FEF73F
:10EC400017FCE369002BF9DB0B480221FEF7E0FC1F
:10EC500062B6EB0607D5636B1021196172B60748DF
:10EC6000FEF7D6FC62B6BDE83840FEF781B800BFBB
:10EC700094170020A8170020B4170020BC1700200C
:10EC800038B5174D6B6B5C681C225A60220719D48B
:10EC9000630713D56A6B9369916921F070019161E3
:10ECA00013F0700F03F0070118BF41F0080172B6AE
:10ECB0000C4841EA0341FEF7ABFC62B6BDE83840C0
:10ECC000FEF756B81A68284622F00202032100F81F
:10ECD000301B1A6072B60021FEF79AFC62B6D7E7C5
:10ECE00094170020BC170020AFF30080AFF3008022
:10ECF00010B5064C2046FEF75BFE0021044B636313
:10ED00000A460E20BDE81040FFF7AABE9417002067
:10ED100000640040AFF30080AFF30080AFF30080E9
:10ED20002DE9F00FDFF8AC91DFF8AC81D9F830B005
:10ED3000DFF8A8C1604F614E614D624C6249634A81
:10ED400040F2FF1A4BEA0A0BC9F830B0D9F850B0BC
:10ED50004BEA0A0AC9F850A04368C8F8043083682F
:10ED6000C8F80830C368C8F80C300369C8F8143014
:10ED70004369C8F820308369C8F824300368C8F8AC
:10ED80000030036ACCF80430436ACCF80830836A58
:10ED9000CCF80C30C36ACCF81430036BCCF82030BC
:10EDA000436BCCF82430C369CCF80030C36B7B6074
:10EDB000036CBB60436CFB60836C7B61C36C3B6228
:10EDC000036D7B62836B3B60876D7760C76DB76057
:10EDD000076EF760476E7761876E3762C76E77623E
:10EDE000476D3760466F6E60866FAE60C66FEE60CF
:10EDF000D0F880606E61D0F884602E62D0F88860B0
:10EE00006E62066F2E60D0F890506560D0F8945016
:10EE1000A560D0F89850E560D0F89C506561D0F8B6
:10EE2000A0502562D0F8A4506562D0F88C502560BF
:10EE3000D0F8AC404C60D0F8B0408C60D0F8B44012
:10EE4000CC60D0F8B8404C61D0F8BC400C62D0F82F
:10EE5000C0404C62D0F8A8400C60D0F8C810516097
:10EE6000D0F8CC109160D0F8D010D160D0F8D41088
:10EE70005161D0F8D8101162D0F8DC105162D0F88E
:10EE8000C4101160124BD0F8E4205A60D0F8E8208A
:10EE90009A60D0F8EC20DA60D0F8F0205A61D0F80F
:10EEA000F4201A62D0F8F8205A62D0F8E0201A60F4
:10EEB000BDE8F00F704700BF00080240000C0240A0
:10EEC000001002400014024000180240001C0240E2
:10EED00000200240003802400000024000040240CE
:10EEE0002DE9F00F002302F00307C2F38006C2F3FE
:10EEF000C105C2F341144FF00F09C2F3C3124FF022
:10EF0000010A38E0D0F820B02BEA0C0C4CEA0808D3
:10EF1000C0F82080D0F804C00AFA03F82CEA080CE4
:10EF20004CEA060CC0F804C04FF0030B4FEA430C48
:10EF3000D0F808800BFA0CFC6FEA0C0C0CEA0808FD
:10EF400048EA0508C0F80880D0F80C800CEA0808E8
:10EF500048EA0408C0F80C80D0F800800CEA080CDD
:10EF60004CEA070CC0F800C049081AD07600AD0082
:10EF7000A400BF00013303F0070C4FEA8C0C11F022
:10EF8000010F02FA0CF809FA0CFCEDD0072BB9D9E5
:10EF9000D0F824B02BEA0C0C4CEA0808C0F8248006
:10EFA000B8E7BDE8F00F7047AFF30080AFF3008023
:10EFB00010B4436B046B4FF40041226819800021A8
:10EFC000198099809982136823F01F0313601368D6
:10EFD000D907FCD4C16A207A63680A683D2404FA20
:10EFE00000F01860136823F01F0313601368DB0739
:10EFF000FCD40A7A4B685DF8044B3D2101FA02F219
:10F000001A607047AFF30080AFF30080AFF3008069
:10F0100038B5054672B6C4694CB1FFF7C9FF002286
:10F020004FF0FF33EA6120466362FEF761F862B693
:10F0300038BD00BFAFF30080AFF30080AFF30080B6
:10F0400011F00C0F38B50546446B14D1296B0A68D2
:10F05000136823F01F0313601368DB07FCD40A7ADC
:10F060004B683D2101FA02F21A60A3889BB243F477
:10F070000073A38038BDFDF73BFEE7E7AFF30080E8
:10F0800011F00C0F38B50546446B29D1E96A0A68BE
:10F09000136823F01F031360136813F00103FBD1FF
:10F0A000087A4A683D2181401160A28822F480528A
:10F0B0001204120CA280228822F480621204120C24
:10F0C0002280228892B242F40072228072B6EA69EB
:10F0D00022B1EB6110465362FEF70AF862B638BD02
:10F0E000FDF706FED2E700BFAFF30080AFF300806C
:10F0F0003E4A3F4938B5546B238BA58AADB245EAE9
:10F10000034323F07F438B425AD021D807398B42E7
:10F110004AD001318B4213D1A388D26A23F4007301
:10F120001B0412681B0CA380136843F001031360D7
:10F13000A3889BB243F48053A3805368012B4ED91C
:10F1400015F00A0F18BF238BBDE83840FDF710BE3D
:10F1500028498B421BD002318B42F1D1D36A1B6804
:10F160005968002931D1A38823F400731B041B0CB8
:10F17000A38023889BB243F40073238072B6D069C6
:10F1800018B14162D161FDF7B3FF62B6D8E7A38839
:10F19000126B23F400731B0412681B0CA38013680A
:10F1A00043F001031360CBE7138C1A0A0BD003F072
:10F1B000010343F0F00302F006021A432282BFE784
:10F1C000138CC3F347032382BAE72388118C9BB2C5
:10F1D00043F4A06341F0010111842380B4E7238844
:10F1E00023F480631B041B0C2380A9E7CC170020A9
:10F1F0000800030082000700AFF30080AFF3008037
:10F200003548F8B5446B066BA18A326889B201F4BF
:10F210005F4383F47F4383F0FF03A382136823F0EB
:10F220001F0313601368DF07FCD4377AC56A73685D
:10F230002A683D26BE401E60136823F01F0313603A
:10F24000136813F00103FBD12E7A6A683D25B5409F
:10F250001560CD0548BF01238A05836044BF43F094
:10F26000020383604F050DD5A28822F400721204B8
:10F27000120CA280228892B243F0040342F400727E
:10F28000228083600E0544BF43F0080383604D0471
:10F2900044BF43F020038360CC0444BF43F0100319
:10F2A00083600A0404D433B9BDE8F840FDF760BDBB
:10F2B00043F04003836072B6C069074B30B16FF012
:10F2C000010242620022DA61FDF712FF62B6BDE878
:10F2D000F840FDF74DBD00BFCC170020AFF3008014
:10F2E00010B5074C2046FEF78BFB064B064A6263BF
:10F2F000002103F13C02E161E362226310BD00BF23
:10F30000CC1700208864010800580040AFF300804B
:10F31000037840F256422DE9F047012B826240F219
:10F32000164204464262456B51D02A46E16A236B7D
:10F33000D1F80090D3F800A061684D4E48680F7A6C
:10F3400005F110034FF4004800244FF4106CC9F885
:10F350000830CAF80830A5F800802C80A5F804C051
:10F36000938823F03F031B041B0C938093889BB26C
:10F3700043F02A03B042938020DD3E4B984207DCE5
:10F38000022F6AD0032F5BD048F6FF740D2313843D
:10F3900094830978138802299BB24BD0032946D065
:10F3A000012907D013802B889BB243F001032B80E7
:10F3B000BDE8F08723F00A039BB2F3E72E4C400030
:10F3C00094FBF0F42B23C4F30B041384E0E72B4BE2
:10F3D0009842AAD12A4EC06A316A2A4A41F4800171
:10F3E00000233162052133622346FFF709FA264ADA
:10F3F000206B05212346FFF703FA336C43F48003A7
:10F40000336421205021FDF71BFD50212220FDF700
:10F4100017FD616AA36A626B41F0606143F060634B
:10F4200041F4403143F440336162A3627EE743F02C
:10F430000A03B7E723F008039BB243F00203B1E7E6
:10F4400000EB80000C4C00EB800094FBF0F46FEAC2
:10F4500084446FEA9444A4B298E7074C00EB400060
:10F4600094FBF0F46FEA44446FEA5444A4B28DE78D
:10F47000A0860100801A060080DE8002CC170020E2
:10F480000038024081F0000841F00008AFF300802E
:10F490000378012B10B504460AD0FFF789FD206BD5
:10F4A000FFF7FEF9E06AFFF7FBF9084B9C4200D03A
:10F4B00010BD2120FDF7ECFC2220FDF7E9FC044BF8
:10F4C0001A6C22F480021A64F2E700BFCC17002005
:10F4D00000380240AFF30080AFF30080AFF300804C
:10F4E0002DE9F04687B006460E9D446B681C8A469F
:10F4F00091461F4605D001A829462C4A3346FDF700
:10F500007FFD62B6F06A726A00684FEA4A0A4AF002
:10F51000010A0023A6F820A0B3600260C0F80C9096
:10F52000476000E062B6228B920702D422889305DE
:10F530000AD572B6691CF5D0049A002AF2D14FF0B0
:10F54000FF3007B0BDE8F08672B601351CD0049BD1
:10F55000002BF4D0A388164D9BB243F40073A38014
:10F560002288AB6992B242F4A06222800220F36149
:10F57000FDF7D6FD049B13B101A8FDF761FDAB6952
:10F58000586A07B0BDE8F086A388094D9BB243F4E2
:10F590000073A3802288AB6992B242F4A0622280F9
:10F5A0000220F361FDF7BCFDE9E700BF11F00008A0
:10F5B000C8160020AFF30080AFF30080AFF30080E7
:10F5C0002DE9F04987B08046109D446B681C8B463E
:10F5D00017461E4605D001A82946324A4346FDF784
:10F5E0000FFD62B6D8F82C20D8F8303010681B68B0
:10F5F000D8F824100022C8F808204FEA4B0BD8F89E
:10F600002820A8F820B01A60DF600F9A5E600E9B79
:10F610000160C360426000E062B6228B920702D4B0
:10F62000228893050AD572B6691CF5D0049A002A7F
:10F63000F2D14FF0FF3007B0BDE8F08972B6013566
:10F640001DD0049B002BF4D0A388174D9BB243F42C
:10F650000073A3802288AB6992B242F48072228048
:10F660000220C8F81C30FDF75BFD049B13B101A814
:10F67000FDF7E6FCAB69586A07B0BDE8F089A388DE
:10F68000094D9BB243F40073A3802288AB6992B208
:10F6900042F4807222800220C8F81C30FDF740FD41
:10F6A000E8E700BF11F00008C8160020AFF30080A3
:10F6B0002DE9F04FA549A64A8B69D0F850909A6180
:10F6C00085B0834672B600264F469BF80030012B6A
:10F6D00005D0DBF85C306BB97B69DA060AD4BA690D
:10F6E0009A4D42F01002AB69BA610220CBF8643047
:10F6F000FDF716FD62B64FF0000A7B69DB0622D5E6
:10F70000DBF85000056A05F4F013B3F5802F2DD017
:10F71000B3F5402FF1D105F00F030BEB8303C5F3D5
:10F720000A15DA68EB1C9B08146AE6D000F58050D5
:10F730000222016812B144F8041B013A013BF8D1DE
:10F740007B69DB06DCD40122DBF85C3002FA0AF2CA
:10F750001A42019272D10AF1010ADBF854309B6817
:10F760005FFA8AFA9A45C8D972B6AEE705F00F0873
:10F770000BEB8808C5F30A15D8F80C3099690B789B
:10F78000EBB90A1D92E80C400332D21AEB1C9B081D
:10F790004FEA920209D000F58050F446046812B195
:10F7A0004CF8044B013A013BF8D10EEB0504CC6058
:10F7B000D8F80C309B699A6815449D609DE7CC6829
:10F7C00045B3626900F58050AE46BEF1030F07D91C
:10F7D00023699A4204D3E2686261BEF1030FF7D84D
:10F7E000D0F800C0002302F101092CFA03F1C4F89B
:10F7F0001490117022696169914224BFE2686261CC
:10F80000BEF1010E06D0182B02D008336269EAE778
:10F810006269DAE772B6A36820682B44A042A3604D
:10F8200008D0036823605C60FDF762FC46622068D4
:10F83000A042F6D1FDF724FD62B6B9E772B6BA6808
:10F84000DBF85C30019922F0010223EA0103BA607F
:10F85000CBF85C3062B60BEB8A0CDCF80C406069CC
:10F86000836841688B4280F0B380DBF85020248AA3
:10F870004FEA4A1500951544C91AD5F81839A1421E
:10F8800034BF0D4625469BB2B5EB830F0AF1010A42
:10F890002DD8039767460378002B37D1EB1CC4683B
:10F8A0009B0802EB0A3E18BF224605D052F8041B03
:10F8B000CEF80010013BF9D12C44C460FC686069AB
:10F8C000836841682B44994283607ED9DBF85020DD
:10F8D000DDF800E0248A9644CD1ADEF81839A542F6
:10F8E00028BF25469BB2B5EB830FD4D9039F0022D6
:10F8F00072B6BB6843F00103BB602AB9D7F834384D
:10F9000001990B43C7F8343862B626E702EB0A3E8A
:10F91000C46825B3D4F8108002952A46910832D1E4
:10F92000A36900218C46581CA0611B78804503FA0E
:10F9300001F34CEA030C9CBFE368A361013A09D0D0
:10F94000182907D00831A369EDE700BFC8160020C9
:10F9500040650108CEF800C0002ADFD1029D72B6D2
:10F96000A36820682B44A042A36008D003682360EA
:10F970005C60FDF7BDFB46622068A042F6D1FDF752
:10F980007FFC62B69AE7A569B8EB050348BF03336D
:10F990009B10994238BF0B464FEA8309C9EB02021C
:10F9A0003BB1294651F8040BCEF80000013BF9D1D8
:10F9B0004D444545A56104D3E368A361002AADD158
:10F9C000CCE7002ACAD02B46ABE7039F01228FE782
:10F9D0000AF1010AFAE700BFAFF30080AFF300803D
:10F9E000D1F808C000212DE9F0010D464FF0804804
:10F9F0004FF0FF3714E0C2F800590319C3F810594B
:10FA0000C3F80879D2F8006B002E17DBC2F8005B50
:10FA1000044401316145C4F8105BC4F8087B15D873
:10FA20004C010219D2F80039002BE4DAC2F800893F
:10FA30001646D6F808399B07FBD5DEE7C2F8008BDF
:10FA40001A46D2F8083BDB06FBD5E1E74FF001137D
:10FA5000C0F81C38BDE8F001704700BFAFF300806C
:10FA600010B5064C2046FEF743FA4FF0A043044A77
:10FA70002365002362652366636610BD08180020B5
:10FA800030650108AFF30080AFF30080AFF3008072
:10FA900070B50378066D012B82B0054601D002B027
:10FAA00070BD2E4B984249D02B6E0022EA65002B88
:10FAB00038D02B4BF3602B49C6F800184FF43413A1
:10FAC0000022C6F8002EB3632C6D2020FDF748FFFE
:10FAD000012323612369DB07FCD40C20FDF740FFE1
:10FAE0002369002BFCDA0024B460286D696DFFF7F0
:10FAF00077FF6B68C6F81048DB68C6F81448C6F88C
:10FB00001C485BB143F20803B3614FF0FF337361EC
:10FB1000B36843F00103B36002B070BD4FF44053CB
:10FB2000B361F2E7009505F168004FF40671022217
:10FB30000D4BFDF7EDFB68662866BAE70B4B5A6B79
:10FB400042F080025A635969002241F080015961F4
:10FB500043205A61E021FDF773F9A5E7081800205A
:10FB60004014004003002002B1F6000800380240B3
:10FB7000F8B5046D202307462361226912F02005A1
:10FB8000FBD10C20FDF7ECFE7B6D9E682A46FF2121
:10FB90004FF0006504EB42130132B242C3F8005942
:10FBA000C3F8005BC3F80819C3F8081BF2D94FF07B
:10FBB000FF324FF00113C4F81828C4F81C387B6DCD
:10FBC0001A68BA651B6863623A6D10231361136982
:10FBD00013F01005FBD10C20FDF7C2FED4F800385D
:10FBE000104A114823F4FE63C4F80038A36943F4B3
:10FBF000402343F010030921A361C4F81018C4F88E
:10FC00001418F860C4F8105BC4F8002BC4F810593D
:10FC1000C4F80029BB6D03F1100243F48013BA65E8
:10FC2000A362F8BD4080001050650108AFF300806A
:10FC3000036D90F84E10D3F8002822F4FE6242EAD9
:10FC40000112C3F800287047AFF30080AFF30080C3
:10FC50002DE9F0410FFA81F800EB88060D46F368B4
:10FC6000046D1A6802F00302022A5ED0032A5ED0F5
:10FC70004C4F4D49012A18BF0F46690104EB010E94
:10FC8000DA684FF0000CCEF810CB002A75D0B3F82C
:10FC900012E005F15802520147EA0E0E44F802E064
:10FCA0004FF0010CD4F81C2805F1100E0CFA0EFED2
:10FCB0004EEA0202C4F81C2821449A684FF0000E54
:10FCC000C1F810E9002A34D09A8B198A012A4FEA28
:10FCD000910388BF534305F13F01826D04EB81011D
:10FCE00003EB020E42EA0343C0F858E04B60026D9A
:10FCF000AB0143F02003136113699906FCD40C2077
:10FD0000FDF72EFEF3681A8A05F1480342EA855290
:10FD10005B011743E7500122D4F81C3802FA05F5BD
:10FD20001D43C4F81C58BDE8F081204FA5E7204FC3
:10FD3000A3E705F13F0304EB83031E4A5A60026DFB
:10FD4000AB0143F02003136113699B06FCD404EB61
:10FD500048180C20FDF704FED8F8003923F40043BE
:10FD6000C8F80039D4F81C38012202FA05F523EA54
:10FD70000503C4F81C38BDE8F08104EB481205F116
:10FD8000100ED2F800CB2CF4004CC2F800CBD4F803
:10FD90001C284FF0010C0CFA0EFE22EA0E02C4F8E9
:10FDA0001C2889E7008004100080001000800810E3
:10FDB00000800C1000040002AFF30080AFF300805D
:10FDC0005831036D49015B5813F4004004D013F41B
:10FDD000001F0CBF02200120704700BFAFF300805E
:10FDE0004831036D49015B5813F4004004D013F40B
:10FDF000001F0CBF02200120704700BFAFF300803E
:10FE000000EB8101CB681B6A19685B685360116065
:10FE1000704700BFAFF30080AFF30080AFF3008006
:10FE200000EB810330B4DC68A2695368136131B917
:10FE3000402B04D940255560094B3F2502E05D1E4B
:10FE400043F0C043628A006DAC18B4FBF2F200EBE1
:10FE5000411143EAC242C1F8102B30BC704700BFC9
:10FE600040000060AFF30080AFF30080AFF300808C
:10FE7000F8B5076D07EB41130546D3F8084BC3F8F7
:10FE8000084B22070E4603D5D7F814381B0719D4A0
:10FE9000E20716D5D7F81438DB0712D505EB860331
:10FEA000DA68936959681869814211D36989D368FE
:10FEB000012000FA06F221EA02026A813146284650
:10FEC0009847F8BD00EB8103DB685B689847DFE784
:10FED000411A002259609A6028463146FFF7A0FF78
:10FEE00072B62B6D03EB4616D6F8003B43F08063E9
:10FEF000C6F8003B62B6F8BDAFF30080AFF30080F8
:10FF000000EB810330B4DC68626953681361A3B10C
:10FF100069B15D1E228A006DAC18B4FBF2F200EBF1
:10FF2000411143EAC243C1F8103930BC7047402B3D
:10FF3000EFD9402353603F25ECE7036D03EB4111FC
:10FF40004FF40023C1F8103930BC7047AFF3008084
:10FF5000F8B5066D06EB41130446D3F80859C3F80B
:10FF60000859EB070F4603D5D6F81038DA071AD42C
:10FF70002B0617D50122D6F8343802FA07F71F42AC
:10FF800010D072B6E36DD6F83428606E3B4322EA97
:10FF90000707E365C6F8347818B1FDF7A9F8002320
:10FFA000636662B6F8BD00EB8103DA685369D3F883
:10FFB00004E0D3F810C0E6451BD2CEEB0C0E0022B5
:10FFC000C3F804E09A60FFF79BFF72B6236D03EB62
:10FFD00047120120D2F8001941F00441C2F800197B
:10FFE000D3F8341800FA07F20A43C3F8342862B68B
:10FFF000BEE7B0F808E093684FF0010C0CFA01F28C
:020000040801F1
:100000002EEA020202819847B2E700BFAFF30080F8
:1000100070B53D4E356D6B69AC691C40E0046C6198
:100020003BD4A10448BFD5F80838220704D573682B
:10003000DB680BB134489847E3060CD572B6AB6960
:10004000706E314E23F01003AB6118B1FDF750F81C
:100050000023736662B66003D5F8185807D5E90720
:100060003AD4AA073ED46B0742D42E0746D42403C1
:1000700007D5E80323D4A90327D46A0318D42B0394
:1000800003D4BDE87040FCF773BE1F480321FFF79F
:10009000EFFEBDE87040FCF76BBE3046FDF7B8FFE1
:1000A00073681B68002BBCD0304600219847B8E726
:1000B00015480221FFF7DCFE2B03E2D5E5E700211E
:1000C0001148FFF7D5FEA903D7D50F480121FFF747
:1000D000CFFE6A03D3D5EBE70B480021FFF738FFCB
:1000E000AA07C0D508480121FFF732FF6B07BCD52E
:1000F00005480221FFF72CFF2E07B8D5024803213F
:10010000FFF726FFB3E700BF08180020AFF3008019
:10011000036D03EB4111D1F8003B43F08063C1F85C
:10012000003B7047AFF30080AFF30080AFF3008077
:10013000036D03EB411210B4D2F8004944F00444BB
:10014000C2F80049D3F834285DF8044B012000FAC6
:1001500001F11143C3F83418704700BFAFF30080BA
:10016000036D03EB4111D1F8003B43F40013C1F8D8
:10017000003B7047AFF30080AFF30080AFF3008027
:10018000036D03EB4111D1F8003943F40013C1F8BA
:1001900000397047AFF30080AFF30080AFF3008009
:1001A000036D03EB4111D1F8003B23F40013C1F8B8
:1001B000003B7047AFF30080AFF30080AFF30080E7
:1001C000036D03EB4111D1F8003923F40013C1F89A
:1001D00000397047AFF30080AFF30080AFF30080C9
:1001E00038B5214CE36862681869DD68117D054007
:1001F000ADB2E8B2C0431861A9B9AB0707D52378FF
:100200000421032B217002D0D36820469847680749
:100210001FD4EB0703D5636813481B699847BDE8F3
:100220003840FCF7A5BDA90707D52378032B04D0D8
:10023000052193682170204698476A07E9D52378FD
:1002400009480422032B2270E3D04368DB689847F7
:10025000DFE723780448032BDBD0436805229B6843
:1002600002709847D5E700BFA41A0020AFF30080C2
:1002700010B5034C2046FDF73BFC024BE36010BD7C
:10028000A41A002000040040AFF30080AFF3008008
:10029000F8B50378012B04463BD0C36800221A60EE
:1002A0005A639A635A626268A56850689169167DBC
:1002B0001278B5FBF0F0013880B221F0FF01002583
:1002C0004FF6FF771D61D9609862DF626EB940F228
:1002D0000120542198619960C2B113221A6203F17E
:1002E0003802343322616361F8BD4FF481706421B8
:1002F000986199603AB131221A6203F134023833BD
:1003000022616361F8BD13221A62F6E731221A6294
:10031000E5E70B4B984201D0E368C4E7094B1A6C40
:1003200042F002021A64196A002241F002011962C5
:100330001D201A627021FCF783FD034BA360EBE7DD
:10034000A41A00200038024000BD0105AFF3008070
:10035000C36842685869117D10B440F00100002460
:1003600058611C61B1B9D16819B1D96841F0020175
:10037000D960916819B1D96841F00401D960126956
:100380001AB1DA6842F00102DA6005221A605DF8FB
:10039000044B7047916819B1D96841F00201D960E6
:1003A000D1680029E7D1EAE7AFF30080AFF300801E
:1003B00030B404692268136823F01F0313601368C4
:1003C000DB07FCD4257A416963680A683D24AC40A8
:1003D0001C60136823F01F031360136813F00103FC
:1003E000FBD10C7A826849683D20A040086030BC8F
:1003F0009381138293827047AFF30080AFF3008044
:1004000070B585682C88AA8840F20F13A4B22340E7
:100410000646E3B143681B694FF6FF622A80B3B119
:1004200014F0080F14BF10210021E00748BF41F06D
:100430000401A20748BF41F00801600748BF41F02E
:100440002001E20548BF41F040013046984763066D
:1004500007D573685B684FF6BF722A800BB13046D0
:10046000984770BDAFF30080AFF30080AFF300801A
:1004700011F00C0F10B504461BD161690A681368AE
:1004800023F01F0313601368DB07FCD463680A7A48
:100490001B6849683D2090400222086062702BB1C1
:1004A000204698476378022B00D010BD002363706C
:1004B00010BDFCF71DFCE0E7AFF30080AFF3008058
:1004C00011F00C0F70B504463BD1A37843B96368B3
:1004D000DB68002B34D0218B204689B2984770BD51
:1004E00021690A68136823F01F0313601368DB0790
:1004F000FCD460680E7A4D6883683D2101FA06F6E7
:1005000002212E60A1703BB120469847A378022BB0
:1005100016D1236960681A68C168E368002914BFAE
:100520004FF488714FF480710B430025012104F1D1
:100530001800A570D0605160136013680B431360FE
:1005400070BDFCF7D5FBC0E7AFF30080AFF30080D0
:1005500008B50348FFF754FFBDE80840FCF708BCA6
:10056000BC1A0020AFF30080AFF30080AFF300802F
:1005700008B50348FFF744FFBDE80840FCF7F8BBA7
:10058000D81A0020AFF30080AFF30080AFF30080F3
:1005900070B50C4C0C4E0D4D2046FDF779FC0C4B04
:1005A000A360062206F11803284626616361E26013
:1005B000FDF76EFC074BAB6006F16C03A8362B61B0
:1005C0006E6170BDBC1A00207C640108D81A00203E
:1005D0000048004000140140AFF30080AFF30080FA
:1005E0002DE9F8430378012B04464BD0856800239E
:1005F000A37063702046FFF7DBFEA3684E4A934268
:1006000058D002F58062934254D063684B495A69CE
:10061000B1FBF2F292B22A812169DA68D3F8049030
:10062000B3F818805F8B9E8B0B682988A98842F2EB
:100630004C1042F20C11B9F1000F08BF0846002A15
:10064000E26814BF4FF488714FF4807147F040079F
:1006500046F0C10640EA0800BFB241EA02084FF086
:10066000000C0121B6B21834A5F800C02F82AE826A
:10067000A881DC605960C3F800801A680A431A60D8
:10068000BDE8F8832E4B98423BD02E4B98421ED0AB
:1006900063681B8B03F4A053B3F5805F12D022690B
:1006A0006369A5681068196800222B1D83608B6040
:1006B00022839CE7636824495A69B1FBF2F292B243
:1006C0002A81A9E7E36843F42053E360E7E71F4A80
:1006D00000690C212346FEF793F81D4A60690C213E
:1006E0002346FEF78DF81B4B5A6C42F020025A64E9
:1006F0004720C021FCF7A4FBE36843F02063E360DC
:10070000C6E7124A00690C212346FEF779F8104A21
:1007100060690C212346FEF773F80E4B1A6C42F405
:1007200080221A642720C021FCF78AFBE36843F08B
:100730000063E360ACE700BF0010014080DE800290
:10074000BC1A0020D81A002000BD0105C104010810
:100750007104010800380240AFF30080AFF300805D
:100760004369C0681B6840F48A60DA6059601860A9
:100770001A6842F001021A60704700BFAFF30080B0
:10078000FEF706B9AFF30080AFF30080AFF300804F
:10079000704700BFAFF30080AFF30080AFF300807D
:1007A000F0B4002B08BF0B4600F10B0700F10A055F
:1007B000B1FBF2F602FB161101F13004392CC8BF6F
:1007C00001F13704E4B2B3FBF2F331462E4605F8EB
:1007D0000149002BECD1BA1B3346024401E013F867
:1007E000014F00F8014B9042F9D1F0BC704700BFB7
:1007F0002DE9F04F2DED028B8BB005460C461746C8
:100800000DF1100B2178631C51B125290DD02A68F8
:100810001C469268284690472178631C0029F4D131
:100820000BB0BDEC028BBDE8F08F62782D2A03BFC0
:10083000A278A31C4FF0010C4FF0000C2E2A00F000
:100840003981302A00F036814FF020081C460026FE
:1008500006E03B78043706EB8606227803EB460673
:10086000A2F13003DBB2092B04F10104F3D92A2AE7
:10087000EFD02E2A4FF0000145D002F0DF034C2BC1
:100880004ED0A2F14403342B00F20A81DFE813F0CA
:100890000001080108010801080100010801080120
:1008A000080108010801FE0008010801080108010B
:1008B00008014E00080108018B0008010801080129
:1008C0000801080108010801080108010801F000F9
:1008D00000010801AF00080108010001080108013A
:1008E000080108010801FE000801080108018D0047
:1008F00008014E00080108018B003B78043701EB2A
:10090000810103EB410114F8012BA2F13003DBB2AA
:10091000092BF4D92A2AF0D002F0DF034C2BB0D1F6
:100920002378002BADD001341A46AAE70A22396891
:10093000584604370023CDF804C0FFF731FFDDF837
:1009400004C0CBEB000000F1FF3AD946361A26EA84
:10095000E676BCF1000F0DD176425EB199F8001039
:100960002D2900F0AC802B6828469B6841469847AB
:100970000136F8D1BAF1000F0ADBCA4409F1FF3998
:100980002B6819F8011F9B6828469847D145F7D175
:10099000002E3FF437AF2B6828469B6841469847A6
:1009A000013EF8D12EE71022C1E7D7F800905A4B4C
:1009B000B9F1000F08BF994647F6FF7399F8000098
:1009C0000437002908BF1946002800F09B804944DD
:1009D0004B4601E08B427FD05A780133002AF9D18F
:1009E000C9EB030000F1FF3A4FF02008AEE70737EC
:1009F00027F00707D7E90001CDF804C0FBF7E0FFB7
:100A000008EE100AB5EEC08AF1EE10FA07F10807F9
:100A1000DDF804C06ED45846FDEEC87A0A2217EEFF
:100A2000901A002317EE90AACDF804C0FFF7B8FE85
:100A300081462E2309F8013B18EE100AFBF7A4FCAF
:100A4000CDE902015046FBF78DFC02460B46DDE97D
:100A50000201FBF739FB2EA3D3E90023FBF7E8FCE7
:100A6000FBF786FF0A22014642F21073484664E70C
:100A70000DF111003B688DF81030CBEB000000F158
:100A8000FF3A04374FF02008D9465FE708224EE7C7
:100A90003968002907F1040725DB58460A2249E78F
:100AA0000DF11100CBEB00008DF8102000F1FF3AA2
:100AB000D9464BE75A784FF030080133C6E6B8F113
:100AC000300F7FF450AF2B6828469B68984709F198
:100AD00001090AF1FF3A46E7C9EB010000F1FF3ACC
:100AE0004FF0200832E72D2349428DF810300DF1E8
:100AF0001100D3E72D23B1EE488A8DF810300DF1A7
:100B0000110089E74FF0FF3A4FF020081EE700BFC1
:100B100000000000006AF84080660108AFF3008022
:100B2000C36882689A4206D04268D154C3680133D0
:100B3000C360002070476FF001007047AFF3008082
:100B40000269C1689142034604D04168885C013261
:100B50001A6170476FF00100704700BFAFF300806B
:100B600038B5044608462369E5686168ED1AAA426B
:100B700038BF154619442A46FBF772FF23692B44F8
:100B80002361284638BD00BFAFF30080AFF300807B
:100B900038B5C36885680446ED1A4068AA4238BF74
:100BA000154618442A46FBF75BFFE3682B44E360D5
:100BB000284638BDAFF30080AFF30080AFF300806C
:100BC00010B44160044C046000218260C360016184
:100BD0005DF8044B704700BF90660108AFF30080DA
:100BE00008B5054B054A9B699A6101F0B9F90A20DD
:100BF000FCF706FCF9E700BFC8160020A066010854
:100C00002DE9F04F3E4B3F4A9B693F49DFF810B159
:100C1000DFF810A1DFF81091DFF810813B4F3C4E58
:100C20003C4D3D4C996189B013600120FCF708FDF3
:100C30003A490B68002BF8DD00233BF813E03BF842
:100C400013203AF813103AF813008DF80D208DF8A0
:100C50000F0039F8132039F813008DF8110038F817
:100C6000130038F813C08DF813C04EF3072E41F36C
:100C70000721DFF8BCC08DF80CE042F3072237F8FB
:100C800013E08DF80E1040F3072037F813108DF89D
:100C900010208DF8120036F813208DF8151036F854
:100CA00013001CF803108DF817008DF8181035F894
:100CB000130035F813108DF81A1034F8131042F39E
:100CC000072240F3072041F307214EF3072E8DF84A
:100CD00016208DF8190034F813208DF81B1003A886
:100CE00011218DF814E08DF81C20019301F068FDAE
:100CF0000A49019B0A6801339A429EDC95E700BFCE
:100D0000C816002078AB0020AC660108807A00206D
:100D10000842002048650020C8220020081000205A
:100D2000A8510020208A0020C099002068320020AD
:100D3000F41A0020AFF30080AFF30080AFF300801F
:100D400038B51D4B1D4A9B699A6100F009FF0228C6
:100D500008BFB7EE000A4FF0000018BF9FED180A59
:100D600000F046FA00F004FF0546F8B10024B7EEA3
:100D7000000A012000F03CFA40F6C410FCF740FBEA
:100D800001209FED100A044400F032FA40F6C4102E
:100D9000FCF736FBAC42EADB41F28830FCF730FB73
:100DA00000F0DEFE6420FCF72BFBCEE701209FED78
:100DB000050A00F01DFAF3E7C8160020B86601081E
:100DC000CDCC4C3E00000000AFF30080AFF30080BC
:100DD0000FB470B586B00AAC114D54F8046B2946B7
:100DE00001A800234FF48062FFF7EAFE2246314655
:100DF00001A80094FFF7FCFC019B01A89B6800215F
:100E00009847049C0748013C294622460023FCF7EA
:100E100017FD204606B0BDE8704004B0704700BF23
:100E2000486100205CB10020AFF30080AFF3008088
:100E3000022906D0032906D00748012918BF00203F
:100E4000704706487047032A03D8054800EBC200E4
:100E500070470020704700BF9068010810670108C4
:100E600060680108AFF30080AFF30080AFF300804B
:100E7000022938B50C4605460DD172B60121064A45
:100E8000FDF756F828462146044AFDF751F8044874
:100E9000FCF746FF62B638BDE0660108206701082E
:100EA0002CB10020AFF30080AFF30080AFF30080DF
:100EB00038B50E4D0E4C2846FCF7F2FE0D4928467B
:100EC000FCF716FF236D9A6B22F400229A6342F21C
:100ED0001070FCF795FA20460749FDF719F8236DC5
:100EE0009A6B42F400229A6338BD00BF2CB10020F7
:100EF000081800208068010850670108AFF30080DF
:100F000008B50548012103F02BFD00F039FFBDE8CD
:100F10000840FBF72DBF00BF00140040AFF3008076
:100F200008B5054840F2074103F08AF900F018FBC4
:100F3000BDE80840FBF71CBF00200140AFF3008074
:100F400008B54FF4006003F083F900B908BD044B05
:100F500000225A624FF40060BDE8084003F088B9EF
:100F600000080040AFF30080AFF30080AFF30080D3
:100F7000136830B45D1C0C161560C45413680C144F
:100F80005D1C1560C45413680C125D1C1560C454BC
:100F900013685C1C1460C15430BC7047AFF3008010
:100FA0000B68C218C05C5278023342EA00200B6022
:100FB00000B27047AFF30080AFF30080AFF3008062
:100FC0002DE9F843114B124A9B69124C1249134EFA
:100FD000DFF84C9099611360A0460120FCF730FBCC
:100FE00000272368D9F800209A4203F101054FF049
:100FF0000001F2D0F05C256000F0DAFF2368B3F561
:10100000006FEFD1C8F80070EBE700BFC8160020F2
:10101000F4D00020F0D00020A068010858C50020BE
:10102000ACB30020AFF30080AFF30080AFF30080DB
:101030002DE9F041134B144A9B69144E144DDFF80F
:101040005880144F9A61A0B0336810485B686946B5
:10105000012298470028F7DD2A680023511CB1F5CA
:10106000006F1DF8034008F8024003F1010314BFAC
:101070000A4600228342F1DB38682A600121FCF72E
:10108000D7FAE1E7C8160020B46801082CB10020A7
:10109000ACB30020F4D0002058C50020AFF300808E
:1010A00038B504460D46044801F07AFB204629462F
:1010B000BDE8384001F07CBBC1100108AFF30080EF
:1010C000002200F0F5BE00BFAFF30080AFF3008058
:1010D00070B5064606480D46FCF74AFA054804680E
:1010E00031462A462468A047BDE87040FCF748BA5C
:1010F000B0B300202CB10020AFF30080AFF300802C
:1011000010B582B0FFF7D4FE0D490E48002200F062
:10111000BFFE00240C48FCF7BBF900940B4B0C48B5
:101120004FF466714022FCF72BF90094094B0A48F2
:1011300041F298114022FCF723F902B010BD00BF24
:10114000A1100108D1100108B0B30020311001082E
:1011500058CD0020C10F0108C0B30020AFF30080BC
:1011600030B489B1094D0144002310F8012BC3F3B9
:101170000F246240884235F8122082EA03239BB292
:10118000F3D1184630BC70470B46FAE7D068010827
:1011900038B5114B114D2DED028B00249FED108AB7
:1011A0001C605C6007EE904AB8EEE70ADFED0D0ABE
:1011B00080EE080A03F0FCFC20EE080A03F088FC2D
:1011C000BDEEC00A10EE103A2B550134C92CE9D1FE
:1011D000BDEC028B38BD00BFF8D0002000D100204C
:1011E00000004843E4380E40AFF30080AFF30080C6
:1011F000012800D97047B5EEC00AF1EE10FA0ED4FE
:10120000F7EE007AB4EEE70AF1EE10FAC8BFC82391
:1012100007DD0849084ACB5C42F8203070470023BC
:10122000F7E7DFED067A20EE270ABDEEC00A10EEE2
:10123000103AEEE700D10020F8D00020000048432B
:1012400008B5044B044A9B699A614FF4FA60FCF7B5
:10125000D7F8FAE7C8160020D06A0108AFF300807B
:10126000044B05490020802248621A8364205A8377
:1012700003F0DEBB0000024000180040AFF3008026
:101280002DE9F0031449154A154B164C164D174F0E
:10129000174EDFF86090DFF86080DFF860C04D60C7
:1012A00000208F60976055605D60C3F80890C3F8B8
:1012B0001080CC600C61D4601461DC604E615661BA
:1012C000C3F814C0086008621060106218601862E9
:1012D000BDE8F003704700BFCCD10020E4DB002064
:1012E000F8DC002058FF7F3FCDCC4C3D0AD7233C93
:1012F00058FF7FBF0AD7233B3333733F333373BF6A
:1013000038B51421124802F07BFF1421044611481D
:1013100002F076FF104B114A99889D8993ED006A7F
:10132000D3ED026A09B22BB2611AC01A07EE101A85
:1013300005EE900AB8EEC77AF8EEE57A26EE077A5F
:1013400066EEA77A82ED037AC2ED047A38BD00BF5B
:101350000020014000210140E8DC0020A8DC002042
:1013600010B5114C2DED048B94ED009A94ED098A83
:10137000B0EE490A03F06CFBF0EE408AB0EE490A89
:1013800003F0D6FBD4ED0A7A20EE677A68EEA77AEE
:10139000A8EE287AE8EE007ABDEC048B84ED0B7A97
:1013A000C4ED0C7A10BD00BFA8DC0020AFF30080B4
:1013B000184A194BD26A93ED047AD3ED057A1A6074
:1013C00006EE102AF8EE466AB6EE006A26EE877A36
:1013D00066EEA77A76EEC76A83ED047A76EEE76A60
:1013E000C3ED057A66EE866AFCEEE66AB8EE666ADA
:1013F000C3ED086A37EE067ABCEEC77AF8EE476AA4
:1014000083ED077A77EEA67AFCEEE77AC3ED067AEB
:10141000704700BF0000014084DC0020AFF3008073
:1014200070B5164604460D4600F08AFC094B1A8832
:1014300092B242F002021A805C639D63DE631A88F6
:1014400022F002021204120C1A80BDE8704000F073
:1014500087BC00BF00000140AFF30080AFF3008005
:1014600010B53D4CD4ED017A94ED027AF5EEC07AD8
:10147000F1EE10FAB5EEC07A23DBF1EE10FA13DAD2
:10148000D4ED036AF5EEC06AF1EE10FA41DBC4ED6B
:10149000057AC4ED046AFFF78BFF206AA169E2694F
:1014A000BDE81040FFF7BCBF84ED057AC4ED047AB7
:1014B000FFF77EFF04F1180007C8BDE81040FFF7F2
:1014C000AFBFF1EE10FA35DBD4ED036AF5EEC06A7A
:1014D000F1EE10FA0CDBC4ED056A84ED047AFFF737
:1014E00067FFE069216AA269BDE81040FFF798BF75
:1014F000F1EE666AF1EE677AC4ED056AC4ED047A2E
:10150000FFF756FFA069216AE269BDE81040FFF7C6
:1015100087BFB1EE477AF1EE666A84ED057AC4EDD5
:10152000046AFFF745FFE069A169226ABDE810403F
:10153000FFF776BFF1EE677AB1EE477AC4ED057A30
:1015400084ED047AFFF734FF206AE169A269BDE8FF
:101550001040FFF765BF00BF84DC0020AFF30080C0
:10156000264B2748002270B55A62FFF731FC254B05
:10157000254D1A78254C42F0020210261A702E834F
:10158000FFF7BEFE94ED006A9FED217ADFED216A40
:10159000DFED217A36EE077A4FF07E53B4EEE67A2D
:1015A000F1EE10FAC8BFB0EE677A636284ED007A9C
:1015B000C4ED0A7AFFF7D4FED4ED0C7A94ED0B6AF1
:1015C000DFED166A164BB1EE677AF0EE475AA6EEDB
:1015D000667AE6EE265AB0EE476AB6EE007A65EE17
:1015E000876A26EE077AC3ED017AC3ED026A83EDBE
:1015F000037AFFF735FF6E8370BD00BF001800400F
:10160000DC6A01081CDD002000080240A8DC002084
:101610006F12033BDB0FC94000000000D7B3DD3F72
:1016200084DC0020AFF30080AFF30080AFF30080D4
:101630002DE9F00F174B184D18481949194ADFF8D2
:1016400084B0DFF884A0DFF88490DFF88480164F40
:10165000164EDFF880C09D600024154DDC611862D5
:10166000144C154859629A621449154AC3F82CB0B3
:10167000C3F830A0C3F83490C3F838801F645E64A8
:101680009D64DC64C3F83CC0186559659A65BDE883
:10169000F00F704788DB0020CDCCCC3E0CD723B9AF
:1016A000666626B9C3F528B9ED5138B949E13AB9AA
:1016B000A5703DB9010040B95D8F42B9B81E45B96A
:1016C00015AE47B920852BB97C142EB9D8A330B9F3
:1016D000333333B98FC235B9AFF30080AFF3008035
:1016E0002DE9F04FC14EDFF828A3C14FDFF8248366
:1016F000ABB000F025FB3046002402F071FE012063
:101700000146746202F04CFCBA4BBB4A1B68ADF850
:1017100014404FF0200C92FBF3F3304605A9ADF8CE
:1017200016C0CDF808C00693ADF81C408DF81E40D9
:1017300002F036FFF36AADF84C405B084FF06002F0
:1017400001254FF0040B304610A91293ADF840204C
:101750004FF480734FF40072ADF85220ADF8503062
:10176000ADF84250ADF844B0ADF84E4002F088FFFD
:10177000304610A902F0C4FF304610A903F008F863
:10178000304610A903F04CF83046082103F080F8E9
:101790003046082103F084F83046082103F090F821
:1017A0003046082103F094F850234FF40069304686
:1017B00008A9ADF826304FF40053ADF82A30ADF843
:1017C0002440ADF82840ADF82C40ADF82090ADF89D
:1017D000229003F08DF83046294603F0B1F83046E8
:1017E000294602F02DFF2946844802F0B9FB29461C
:1017F0004FF4E06002F0D4FB2346814A8148032184
:10180000FCF7FEFF4FF4005123914FF480712491B7
:101810007D4A7E491D924FF480634FF00C0E4FF4C9
:10182000003250461C911BA921930393CDF87CE014
:1018300025921B941E942094CDF88890269427948A
:101840002894299402F024FB5046294602F058FBC4
:1018500050462A46102102F063FB16214FF48042C5
:101860000CA80C910E92DFF8B0A10D940F9402F029
:10187000F7FB4FF0005E4FF05062384615A9CDF8E7
:101880005CE018928DF858508DF868B015948DF87A
:101890005940199402F0B4FB15A9404617941894C6
:1018A00002F0AEFB15A9504602F0AAFB01F0C8F801
:1018B000284602F04DFC38464FF4402102F090FCDF
:1018C00040464FF4402102F08BFC38464FF40011A3
:1018D00002F08EFC40464FF4001102F089FC3846BD
:1018E000294602F075FC4046294602F071FC384654
:1018F0002A4640F2074102F093FC0322122104A879
:101900008DF811208DF812208DF813508DF81010DD
:1019100002F07EFA3846294602F0BAFB40462946D4
:1019200002F0B6FB50462946A7F5E05702F0B0FB9F
