:020000040800F2
:100000000004002001C0000841CD000841CD0008D7
:1000100041CD000841CD000841CD000841CD000888
:1000200041CD000841CD000841CD000851DA00085B
:1000300041CD000841CD000841CD0008B1070108BD
:1000400041CD000841CD000841CD000841CD000858
:1000500041CD000841CD000841CD000841CD000848
:1000600041CD000841CD000841CD0008D1E700088E
:1000700001E8000831E8000861E8000891E800089C
:10008000C1E80008F1E800081140010861EE00082D
:10009000A1EE000811EF000881EF000841CD000833
:1000A00041CD000841CD000841CD000841CD0008F8
:1000B00041CD0008D10501085140010841CD00089B
:1000C00041CD0008B1F40008B1F5000841CD0008A9
:1000D00041CD000841CD000841CD0008A10901082B
:1000E0003140010841CD000841CD000841CD000854
:1000F00041CD000841CD00088140010821E90008F8
:1001000041CD000841CD000841CD000841CD000897
:1001100041CD000841CD000841CD000841CD000887
:1001200051E9000881E90008B1E90008E1E90008A7
:1001300011EA000841CD000841CD000841CD00087A
:1001400041CD000841CD000841CD0008B1030108B0
:1001500041EA000871EA0008A1EA0008C1090108A3
:1001600041CD000841CD000841CD000841CD000837
:1001700041CD000841CD000841CD000841CD000827
:1001800041CD000841CD000841CD000841CD000817
:1001900041CD000841CD000841CD000841CD000807
:1001A00041CD000841CD000841CD000841CD0008F7
:1001B00041CD000841CD000841CD000841CD0008E7
:10C0000072B6334880F3098840F20000CCF2000099
:10C010004EF63471CEF200010860BFF34F8FBFF3CC
:10C020006F8F40F20000C0F2F0004EF68851CEF261
:10C0300000010860BFF34F8FBFF36F8F4FF0000018
:10C04000E1EE100A4EF63C71CEF2000108600620C7
:10C0500080F31488BFF36F8F00F05AFE04F090FD58
:10C060004FF055301B491C4A91423CBF41F8040B2C
:10C07000FAE71A49164A91423CBF41F8040BFAE725
:10C080001749184A184B9A423EBF51F8040B42F820
:10C09000040BF8E700201549154A91423CBF41F8CE
:10C0A000040BFAE700F03CFE124C134DAC4203DAED
:10C0B00054F8041B8847F9E709F0DAF90F4C104DE2
:10C0C000AC4203DA54F8041B8847F9E700F030BEAD
:10C0D00000080020000000200004002000040020D0
:10C0E000A88A010800080020900C0020900C002075
:10C0F00000AF002000C0000800C0000800C0000819
:10C1000000C0000800000000000000000000000067
:10C110002DE9F04F2DED108AC1F80CD0D0F80CD0DD
:10C12000BDEC108ABDE8F08F002383F31188284608
:10C13000A047002001F0FCF801F032F800DFFEE734
:10C1400081F0004102E000BF83F0004330B54FEAC8
:10C1500041044FEA430594EA050F08BF90EA020F35
:10C160001FBF54EA000C55EA020C7FEA645C7FEAC8
:10C17000655C00F0E2804FEA5454D4EB5555B8BFEB
:10C180006D420CDD2C4480EA020281EA030382EA5C
:10C19000000083EA010180EA020281EA0303362DEE
:10C1A00088BF30BD11F0004F4FEA01314FF4801CC1
:10C1B0004CEA113102D0404261EB410113F0004FD3
:10C1C0004FEA03334CEA133302D0524263EB43038A
:10C1D00094EA050F00F0A780A4F10104D5F1200E28
:10C1E0000DDB02FA0EFC22FA05F2801841F1000183
:10C1F00003FA0EF2801843FA05F359410EE0A5F157
:10C2000020050EF1200E012A03FA0EFC28BF4CF087
:10C21000020C43FA05F3C01851EBE37101F000453D
:10C2200007D54FF0000EDCF1000C7EEB00006EEB4A
:10C230000101B1F5801F1BD3B1F5001F0CD34908D4
:10C240005FEA30004FEA3C0C04F101044FEA44522B
:10C2500012F5800F80F09A80BCF1004F08BF5FEAB2
:10C26000500C50F1000041EB045141EA050130BD92
:10C270005FEA4C0C404141EB010111F4801FA4F135
:10C280000104E9D191F0000F04BF01460020B1FA8A
:10C2900081F308BF2033A3F10B03B3F120020CDAC2
:10C2A0000C3208DD02F1140CC2F10C0201FA0CF0A0
:10C2B00021FA02F10CE002F11402D8BFC2F1200C05
:10C2C00001FA02F120FA0CFCDCBF41EA0C019040BB
:10C2D000E41AA2BF01EB0451294330BD6FEA040404
:10C2E0001F3C1CDA0C340EDC04F11404C4F12002EF
:10C2F00020FA04F001FA02F340EA030021FA04F301
:10C3000045EA030130BDC4F10C04C4F1200220FA57
:10C3100002F001FA04F340EA0300294630BD21FA95
:10C3200004F0294630BD94F0000F83F4801306BF5B
:10C3300081F480110134013D4EE77FEA645C18BF4F
:10C340007FEA655C29D094EA050F08BF90EA020FE6
:10C3500005D054EA000C04BF1946104630BD91EADE
:10C36000030F1EBF0021002030BD5FEA545C05D1E1
:10C370004000494128BF41F0004130BD14F5800420
:10C380003CBF01F5801130BD01F0004545F0FE4194
:10C3900041F470014FF0000030BD7FEA645C1ABFC9
:10C3A000194610467FEA655C1CBF0B46024650EA00
:10C3B000013406BF52EA033591EA030F41F400212C
:10C3C00030BD00BF90F0000F04BF0021704730B5B2
:10C3D0004FF4806404F132044FF000054FF0000187
:10C3E00050E700BF90F0000F04BF0021704730B548
:10C3F0004FF4806404F1320410F0004548BF40421D
:10C400004FF000013EE700BF42004FEAE2014FEA71
:10C4100031014FEA02701FBF12F07F4393F07F4F4C
:10C4200081F06051704732F07F4208BF704793F04F
:10C430007F4F04BF41F40021704730B54FF4607462
:10C4400001F0004521F000411CE700BF50EA010265
:10C4500008BF704730B54FF000050AE050EA01020E
:10C4600008BF704730B511F0004502D5404261EB7E
:10C4700041014FF4806404F132045FEA915C3FF4BF
:10C48000D8AE4FF003025FEADC0C18BF03325FEA5C
:10C49000DC0C18BF033202EBDC02C2F1200300FA0D
:10C4A00003FC20FA02F001FA03FE40EA0E0021FA32
:10C4B00002F11444BDE600BF0000000000000000CF
:10C4C00070B54FF0FF0C4CF4E06C1CEA11541DBF2A
:10C4D0001CEA135594EA0C0F95EA0C0F00F0DEF8F5
:10C4E0002C4481EA030621EA4C5123EA4C5350EADA
:10C4F000013518BF52EA033541F4801143F480132B
:10C5000038D0A0FB02CE4FF00005E1FB02E506F0BB
:10C510000042E0FB03E54FF00006E1FB03569CF010
:10C52000000F18BF4EF0010EA4F1FF04B6F5007F16
:10C5300064F5407404D25FEA4E0E6D4146EB060688
:10C5400042EAC62141EA55514FEAC52040EA5E5011
:10C550004FEACE2EB4F1FD0C88BFBCF5E06F1ED8BB
:10C56000BEF1004F08BF5FEA500E50F1000041EBF2
:10C57000045170BD06F0004646EA010140EA02009F
:10C5800081EA0301B4EB5C04C2BFD4EB0C0541EAC1
:10C59000045170BD41F480114FF0000E013C00F3D6
:10C5A000AB8014F1360FDEBF002001F0004170BDFA
:10C5B000C4F10004203C35DA0C341BDC04F1140413
:10C5C000C4F1200500FA05F320FA04F001FA05F29F
:10C5D00040EA020001F0004221F0004110EBD3706C
:10C5E00021FA04F642EB06015EEA430E08BF20EA98
:10C5F000D37070BDC4F10C04C4F1200500FA04F33B
:10C6000020FA05F001FA04F240EA020001F00041CC
:10C6100010EBD37041F100015EEA430E08BF20EA3F
:10C62000D37070BDC4F1200500FA05F24EEA020E87
:10C6300020FA04F301FA05F243EA020321FA04F0B6
:10C6400001F0004121FA04F220EA020000EBD3706D
:10C650005EEA430E08BF20EAD37070BD94F0000F6D
:10C660000FD101F00046400041EB010111F4801FA1
:10C6700008BF013CF7D041EA060195F0000F18BF52
:10C68000704703F00046520043EB030313F4801F8E
:10C6900008BF013DF7D043EA0603704794EA0C0F48
:10C6A0000CEA135518BF95EA0C0F0CD050EA41065E
:10C6B00018BF52EA4306D1D181EA030101F00041DB
:10C6C0004FF0000070BD50EA410606BF1046194603
:10C6D00052EA430619D094EA0C0F02D150EA01360F
:10C6E00013D195EA0C0F05D152EA03361CBF104650
:10C6F00019460AD181EA030101F0004141F0FE41EF
:10C7000041F470014FF0000070BD41F0FE4141F472
:10C71000780170BD70B54FF0FF0C4CF4E06C1CEA72
:10C7200011541DBF1CEA135594EA0C0F95EA0C0F27
:10C7300000F0A7F8A4EB050481EA030E52EA0335E2
:10C740004FEA013100F088804FEA03334FF0805503
:10C7500045EA131343EA12634FEA022245EA111530
:10C7600045EA10654FEA00260EF000419D4208BFE1
:10C77000964244F1FD0404F5407402D25B084FEA8E
:10C780003202B61A65EB03055B084FEA32024FF43A
:10C7900080104FF4002CB6EB020E75EB030E22BF97
:10C7A000B61A754640EA0C005B084FEA3202B6EB57
:10C7B000020E75EB030E22BFB61A754640EA5C0006
:10C7C0005B084FEA3202B6EB020E75EB030E22BF96
:10C7D000B61A754640EA9C005B084FEA3202B6EB97
:10C7E000020E75EB030E22BFB61A754640EADC0056
:10C7F00055EA060E18D04FEA051545EA16754FEAB8
:10C8000006164FEAC30343EA52734FEAC2025FEAD5
:10C810001C1CC0D111F4801F0BD141EA00014FF064
:10C8200000004FF0004CB6E711F4801F04BF014335
:10C830000020B4F1FD0C88BFBCF5E06F3FF6AFAE51
:10C84000B5EB030C04BFB6EB020C5FEA500C50F1E1
:10C85000000041EB045170BD0EF0004E4EEA113164
:10C8600014EB5C04C2BFD4EB0C0541EA045170BD6B
:10C8700041F480114FF0000E013C90E645EA060EAF
:10C880008DE60CEA135594EA0C0F08BF95EA0C0FDD
:10C890003FF43BAF94EA0C0F0AD150EA01347FF425
:10C8A00034AF95EA0C0F7FF425AF104619462CE7FC
:10C8B00095EA0C0F06D152EA03353FF4FDAE10465F
:10C8C000194622E750EA410618BF52EA43067FF4B0
:10C8D000C5AE50EA41047FF40DAF52EA43057FF440
:10C8E000EBAE12E7000000000000000000000000B6
:10C8F0004FF0FF3C06E000BF4FF0010C02E000BF2C
:10C900004FF0010C4DF804CD4FEA410C7FEA6C5C0E
:10C910004FEA430C18BF7FEA6C5C1BD001B050EAB1
:10C92000410C0CBF52EA430C91EA030F02BF90EA9C
:10C93000020F0020704710F1000F91EA030F58BF5B
:10C94000994208BF90422CBFD8176FEAE37040F0BD
:10C95000010070474FEA410C7FEA6C5C02D150EA5B
:10C96000013C07D14FEA430C7FEA6C5CD6D152EA16
:10C97000033CD3D05DF8040B704700BF84461046DB
:10C9800062468C461946634600E000BF01B5FFF7DA
:10C99000B7FF002848BF10F1000F01BD4DF808EDAA
:10C9A000FFF7F4FF0CBF012000205DF808FB00BF7B
:10C9B0004DF808EDFFF7EAFF34BF012000205DF8D5
:10C9C00008FB00BF4DF808EDFFF7E0FF94BF012022
:10C9D00000205DF808FB00BF4DF808EDFFF7CEFF23
:10C9E00094BF012000205DF808FB00BF4DF808ED62
:10C9F000FFF7C4FF34BF012000205DF808FB00BF33
:10CA00004FEA410212F5001215D211D56FF4787376
:10CA1000B3EB625212D94FEAC12343F0004343EA19
:10CA2000505311F0004F23FA02F018BF40427047F4
:10CA30004FF00000704750EA013005D111F000407E
:10CA400008BF6FF0004070474FF00000704700BF14
:10CA50004FEA4102B2F1E04324BFB3F5001CDCF120
:10CA6000FE5C0DD901F0004C4FEAC0024CEA507058
:10CA7000B2F1004F40EB830008BF20F00100704787
:10CA800011F0804F21D113F13872BCBF01F000408A
:10CA9000704741F480114FEA5252C2F11802C2F1BC
:10CAA000200C10FA0CF320FA02F018BF40F001003D
:10CAB0004FEAC1234FEAD32303FA0CFC40EA0C00EF
:10CAC00023FA02F34FEA4303CCE77FEA625307D12C
:10CAD00050EA01331EBF4FF0FE4040F44000704763
:10CAE00001F0004040F0FE4040F40000704700BFFD
:10CAF000844641EA000313F003036DD1403A41D369
:10CB000051F8043B40F8043B51F8043B40F8043B27
:10CB100051F8043B40F8043B51F8043B40F8043B17
:10CB200051F8043B40F8043B51F8043B40F8043B07
:10CB300051F8043B40F8043B51F8043B40F8043BF7
:10CB400051F8043B40F8043B51F8043B40F8043BE7
:10CB500051F8043B40F8043B51F8043B40F8043BD7
:10CB600051F8043B40F8043B51F8043B40F8043BC7
:10CB700051F8043B40F8043B51F8043B40F8043BB7
:10CB8000403ABDD2303211D351F8043B40F8043B57
:10CB900051F8043B40F8043B51F8043B40F8043B97
:10CBA00051F8043B40F8043B103AEDD20C3205D367
:10CBB00051F8043B40F8043B043AF9D2043208D05F
:10CBC000D2071CBF11F8013B00F8013B01D30B88D1
:10CBD00003806046704700BF082A13D38B078DD0AF
:10CBE00010F003038AD0C3F10403D21ADB071CBF81
:10CBF00011F8013B00F8013B80D331F8023B20F8EB
:10CC0000023B7BE7043AD9D3013A11F8013B00F823
:10CC1000013BF9D20B7803704B7843708B788370AB
:10CC200060467047000000000000000000000000A7
:10CC300090F800F06DE9024520F007016FF0000C5C
:10CC400010F0070491F820F040F049804FF0000404
:10CC50006FF00700D1E9002391F840F000F10800DF
:10CC600082FA4CF2A4FA8CF283FA4CF3A2FA8CF317
:10CC70004BBBD1E9022382FA4CF200F10800A4FA7E
:10CC80008CF283FA4CF3A2FA8CF3E3B9D1E90423D2
:10CC900082FA4CF200F10800A4FA8CF283FA4CF309
:10CCA000A2FA8CF37BB9D1E9062301F1200182FAC3
:10CCB0004CF200F10800A4FA8CF283FA4CF3A2FAC9
:10CCC0008CF3002BC6D0002A04BF04301A4612BAD7
:10CCD000B2FA82F2FDE8024500EBD2007047D1E9DA
:10CCE000002304F00305C4F100004FEAC50514F069
:10CCF000040F91F840F00CFA05F562EA05021CBF3A
:10CD000063EA050362464FF00004A9E70000000053
:10CD1000704700BF0000000000000000000000009D
:10CD2000704700BF0000000000000000000000008D
:10CD3000FEE700BF0000000000000000000000004F
:10CD4000FEE700BF0000000000000000000000003F
:10CD5000FEE700BF0000000000000000000000002F
:10CD6000204B214A214830B500249C60D9684FF6F9
:10CD7000FF0529400A43DA60C2681D491D4D42F093
:10CD80008072C2600A6842F001020A60102020220C
:10CD900083B0D87783F8222000F002F900F080F801
:10CDA00000F05EFB00F00CFE00F042FE2846402141
:10CDB00000F006FAA5F1300301229861027784F3AE
:10CDC000118862B69B690C49996105F15000009485
:10CDD0000A4B4FF4EC7100F043FA094B836103B046
:10CDE00030BD00BF00ED00E00003FA05F0ED00E00B
:10CDF000001000E0C00C00206078010851CD000850
:10CE00005078010800000000000000000000000051
:10CE100072B6014BD862FEE7900C002000000000C3
:10CE2000F8B5134CA269D37F0BB1013BD377116ADC
:10CE3000E369104E01311162A26AB34202F10102AC
:10CE4000A26213D09D68013D9D607DB920271A68BC
:10CE5000D968DD605660E26185F3118818698847FA
:10CE600087F31188E3699A68002AF0D0F8BD00BF03
:10CE7000900C0020AC0C002000000000000000001E
:10CE8000034A516853685B1A9842FBD8704700BF49
:10CE9000001000E0000000000000000000000000A2
:10CEA000054B4FF0FF30002103F11C0258629962DC
:10CEB000C3E90722704700BF900C0020000000006B
:10CEC00030B40D4DEC690361A368C260994204D986
:10CED0002468C91AA3688B42FAD36368C0E9004387
:10CEE000186060608160A3684FF0FF32591AA1603A
:10CEF0006A6230BC704700BF900C00200000000048
:10CF0000036841689A6830B48568064C2A449A6080
:10CF10000B60056800224FF0FF336960C2606362F6
:10CF200030BC7047900C00200000000000000000A2
:10CF3000202383F31188037F072B0ED8DFE803F04B
:10CF4000280D0D2408040D08426A9368013393608C
:10CF5000D0E900231A600268536010B400224FF039
:10CF6000FF3481680C4B446202771B689A688A42DE
:10CF7000FBD25A680021C0E900321060586081F38A
:10CF800011885DF8044B7047436A00221A60E4E799
:10CF9000002383F311887047900C002000000000EC
:10CFA000034B0022C3E90033C3E904339A6070479E
:10CFB000900C0020000000000000000000000000B5
:10CFC00001460022064B80680A771B689A688242F5
:10CFD000FBD25A680846C1E90032116059607047B7
:10CFE000900C002000000000000000000000000085
:10CFF000084B99691A6810B408770420C87710683C
:10D00000186001244360147710465DF8044B9A6160
:10D01000FFF77EB8900C0020000000000000000028
:10D0200030B54B1C87B012D00C4C0D4AA369054695
:10D0300001A8FFF745FF2846FFF7DAFF049B13B16D
:10D0400001A8FFF75DFFA369586A07B030BD034C24
:10D05000FFF7CEFFA369586A07B030BD900C0020DF
:10D0600031CF0008000000000000000000000000B8
:10D07000144B70B49E6985680446B068616285424D
:10D080004FF000020BD822771B689A689542FBD9B3
:10D090005A68C4E9003214605C6070BC7047327733
:10D0A0001A46126891688842FBD951687160012064
:10D0B00032600E6056602077314620469C6170BC1D
:10D0C000FFF726B8900C00200000000000000000D0
:10D0D000084A93691168DA7F88689B6822B9984288
:10D0E00034BF002001207047984294BF00200120E7
:10D0F000704700BF900C00200000000000000000FE
:10D100000D4B186870B402689C691A60A16853607E
:10D1100001260425002206779861E57722771B68AF
:10D120009A689142FBD95A682146C4E900321460DA
:10D130005C6070BCFEF7ECBF900C002000000000AB
:10D140000C4B186830B402689C691A60A16853607F
:10D15000012500220577986122771B689A68914221
:10D16000FBD35A682146C4E9003214605C6030BCCD
:10D17000FEF7CEBF900C0020000000000000000071
:10D18000044B1A689B6992689B689A4200D8704762
:10D19000FFF7D6BF900C0020000000000000000048
:10D1A000034B9B69DB7F0BB1FFF7CABFFFF7A8BF3B
:10D1B000900C0020000000000000000000000000B3
:10D1C00070B40E4C016404226569C277816000224C
:10D1D000012102268177C0E90E220262826100F1FC
:10D1E000280100F12C024561046186832861606199
:10D1F000C0E90A12026370BC704700BF900C0020A7
:10D20000F0B4124E049D776964390144C160C1E9EC
:10D2100010350F4B0B668260022104230264012249
:10D220008183C3778277002300F1280100F12C026B
:10D23000C0E90467C0E90E3303628361386170613D
:10D240008162C0E90B22F0BC704700BF900C002047
:10D2500029C10008000000000000000000000000DC
:10D26000F8B51D460446202383F311886439014430
:10D27000134E144B7769C1600D64069D4D640B66B7
:10D2800002250423826002648583C377002500F1B0
:10D290002C0300F1280201218177C0E90467C0E96D
:10D2A0000E550562856129463861C0E90A2303638A
:10D2B0007061FFF7DDFE85F311882046F8BD00BFE1
:10D2C000900C002029C100080000000000000000B0
:10D2D00008B50146202383F311880820FFF7A0FE3C
:10D2E000002383F3118808BD000000000000000047
:10D2F00038B50E4B9C69A36A606204F12805AB4205
:10D3000007D01A68A2621846FFF75AFEA36AAB421A
:10D31000F7D1637F9B0704D1D4E904231A61226902
:10D3200053610F20BDE83840FFF762BE900C00202B
:10D33000202383F31188FFF7DBBF00BF000000004C
:10D3400010B5054CA369036002465A620320FFF73B
:10D350004FFEA369586A10BD900C00200000000029
:10D36000054B02469B6921B1036003205A62FFF717
:10D3700057BE4FF0FF307047900C002000000000B7
:10D3800003682BB10022026018465962FFF718BEED
:10D39000704700BF00000000000000000000000017
:10D3A00069B1084B10B4024644689B690420C3E984
:10D3B0000024236053605DF8044BFFF731BE4FF04B
:10D3C000FF307047900C00200000000000000000BB
:10D3D00038B5036898420BD004460D461A6822609F
:10D3E000184654605D62FFF7EBFD23689C42F5D15F
:10D3F00038BD00BF00000000000000000000000079
:10D40000014B5B6883607047001000E00000000083
:10D410000F4B104A5B68C168F0B48468966F42682D
:10D420001B1BD0E904459B1BE61845F100070131A1
:10D430009342C0E90231C0E9046705D8026893420B
:10D4400038BF0360F0BC70474360F0BC704700BF5A
:10D45000001000E0900C0020000000000000000020
:10D4600010B50C4C86B000234FF0FF310022684607
:10D47000A367CDE9013303930023CDE90423009191
:10D48000FFF7BEFF6846FFF7C3FF029BA36706B026
:10D4900010BD00BF900C0020000000000000000044
:10D4A0000023C0E900008360704700BF0000000057
:10D4B000F8B5364A83689569002B3FD0A9689A6809
:10D4C0009142044606D91A7F9960062A3BD0072A62
:10D4D00015D042B32646234603E09968AA689142D4
:10D4E0002AD31B689C42F8D173680620C5E9006303
:10D4F0001D6075606C62BDE8F840FFF779BDD3E947
:10D50000000210605E6A18684260324602E090686D
:10D51000884232D312689642F9D17268C3E9006238
:10D5200013607360D6E7D3E90012116019681846DA
:10D530004A60FFF745FDCDE71E46D5E7EB6BC0E936
:10D540000253E863F8BDD3E9000210605E6A186810
:10D5500037464260324602E09068884214D312682F
:10D560009642F9D17A68A968C3E9007213607B60BA
:10D57000B3689A688A42A6D3ACE716467268C3E9D4
:10D58000006213607360A5E71746EBE7900C00207C
:10D5900008B5202383F31188FFF78AFF002383F364
:10D5A000118808BD0000000000000000000000001D
:10D5B000174B70B59D69202383F311880468C368F5
:10D5C000EB6384421DD0296C4BB11A68934203D09F
:10D5D0009268914238BF1146DB68002BF5D10346B3
:10D5E0002268E66BA96020461A605360C3E90246D0
:10D5F000E363FFF7E5FCFFF7C3FD002383F3118826
:10D6000070BD0023A360002383F3118870BD00BFA9
:10D61000900C00200000000000000000000000004E
:10D6200030B4202484F31188064D0468AD690C6081
:10D6300000240160C1E90152C1E9034384F3118868
:10D6400030BC7047900C002000000000000000007B
:10D65000202383F31188024602E08B4207D01A464A
:10D6600013688342F9D1002383F3118870470B6854
:10D670001360002383F31188704700BF000000008F
:10D68000836B027F19430A2A816309D00B2A00D0D9
:10D690007047436A8B43FBD100234362FFF790BC82
:10D6A000436A1942F8D170470000000000000000F2
:10D6B00070B50468A0420FD006460D46E3682B43C0
:10D6C000E36015B12269134203D0D4E90101FFF7E9
:10D6D000D7FF2468A642F1D170BD00BF0000000052
:10D6E00008B5202383F31188FFF7CAFFFFF748FD31
:10D6F000002383F3118808BD000000000000000033
:10D7000038B50C4B9D69202383F31188AB6B13EA6A
:10D71000000406D1044668620A20FFF769FCAB6B7F
:10D720001C4023EA0403AB63002383F311882046E3
:10D7300038BD00BF900C0020000000000000000079
:10D74000104B70B59E69202383F31188B36B13EAE5
:10D7500000050ED119B985F31188284670BD706295
:10D7600004460A20FFF75CFC0028F4DBB36B03EAF5
:10D77000040523EA0503B363002383F311882846D5
:10D7800070BD00BF900C00200000000000000000F1
:10D7900030B4029C046200250A4485600261C0E93D
:10D7A0000000C160C0E90511C36130BC704700BF13
:10D7B000C26800218160C0E905226FF00101FFF716
:10D7C00007BE00BF000000000000000000000000D5
:10D7D00070B520230E46044683F31188C3692BB12C
:10D7E000984703E0FFF7DCFD002815DBA56831460C
:10D7F0002046002DF6D0A169A36825694A1C013B8B
:10D80000AA42A360A26128BFE368087828BFA36189
:10D81000002383F3118870BD85F3118870BD00BFAC
:10D820002DE9F04F044683B0894693461D46D0F853
:10D830001C80202787F3118800260197B246B8F193
:10D84000000F05D02046C04702E0FFF7A9FDE0B970
:10D85000A76829462046002FF7D0A269A368511C6B
:10D86000013BA161A360137809F8013B2369A26918
:10D870009A4224BFE368A3618AF311880136B34555
:10D8800005D0019B83F31188D9E787F311883046CF
:10D8900003B0BDE8F08F00BF0000000000000000F2
:10D8A00030B4029C82608D18C0E90315C0E90734CA
:10D8B000C0E90000C0E9051130BC7047000000005D
:10D8C00010B4D0E90342121B846144616FF001017E
:10D8D00082605DF8044BFFF77BBD00BF00000000D5
:10D8E000F8B504460F461646202383F3118803E05B
:10D8F000FFF756FD002818DBA56831462046002DAD
:10D90000F6D06269A368511C013B6161A360177086
:10D91000D4E904329A4224BFE3686361E36903B146
:10D920009847002080F31188F8BD85F31188F8BD71
:10D930002DE9F04F83B004460D4616460193D0F80A
:10D940001C804FF0200989F311880027BA46A3688C
:10D9500005F1010B204603B36169A3684A1C013B32
:10D960006261A3602B780B70D4E90431994224BF23
:10D97000E3686361B8F1000F00D0C0478AF31188F3
:10D98000013E07F1010712D089F31188A3685D46B3
:10D9900005F1010B2046002BDED1019900932046B2
:10D9A000FFF7FEFC009B0028D1D083F31188384696
:10D9B00003B0BDE8F08F00BF0000000000000000D1
:10D9C000054A064B0648074922F0070223F00703E1
:10D9D00002600B60704700BF07AF0020000002200C
:10D9E000EC0E0020E80E0020000000000000000007
:10D9F0000346202282F311880849094A0868126800
:10DA0000073323F00703121A93429ABF1B180B60C7
:10DA10000020002383F31188704700BFEC0E002024
:10DA2000E80E0020000000000000000000000000E0
:10DA3000044B054A1A6003F110000022C3E90222D8
:10DA4000FFF72EBDF00E0020F1D900080000000005
:10DA500080B4094A536823F0010300AF5360EFF329
:10DA60000983683383F30988002383F31188BD4653
:10DA70005DF8047B704700BF30EF00E0000000005D
:10DA800098B5202300AF83F31188114B5B6813F422
:10DA9000006302D183F3118898BDF1EE103AEFF3E1
:10DAA00009840C4B4FF08072DB6844F8083C44F862
:10DAB0004C2CA4F1680383F30988FFF709FB18B124
:10DAC000054B44F8503C98BD044B44F8503C98BD7D
:10DAD00000ED00E030EF00E039C100083CC1000873
:10DAE00008B501F095F80B4801F052FB00F018F86A
:10DAF00000F076F800F0ECF800F0E2FA00F0F8FA46
:10DB000000F016FB00F0CCF903F042F8BDE8084045
:10DB100000F0E6BAF0790108000000000000000003
:10DB200001F06EBA000000000000000000000000DC
:10DB300030B40021012400F1180200F11C0300F1AF
:10DB400020050470416000F1240400F12801826185
:10DB5000C36100F1080200F11003C0E908548162BA
:10DB6000C0E90222C0E9043330BC70470000000065
:10DB700010B52023044683F311880223037041600B
:10DB800001F056FA03232370002383F3118810BD9C
:10DB90002DE9F0411F4604460D469046202383F3AD
:10DBA000118800F110062378042B2946204602D064
:10DBB00001F076FA50B939463046FFF7F1FB0028FC
:10DBC000F1D0002383F31188BDE8F081204642465E
:10DBD000294601F085FA002080F31188BDE8F08124
:10DBE00001F056BD00000000000000000000000031
:10DBF00001220023027043600C30FFF751BC00BFCC
:10DC000010B52023044683F31188416001F058FDCC
:10DC100002232370002383F3118810BD000000004D
:10DC200010B52023044683F3118801F001FE01237F
:10DC30002370002383F3118810BD00BF0000000093
:10DC4000F0B585B00446DDE90B674FF0200C8CF38E
:10DC500011884FF0030CCDE9016700250A9E00965C
:10DC6000856080F800C001F06BFE431C0CBF0523EB
:10DC700002232370002383F3118805B0F0BD00BF99
:10DC8000F0B583B00446089F202585F3118800264F
:10DC9000042500978660057001F012FE431C0CBF3E
:10DCA000052302232370002383F3118803B0F0BD02
:10DCB0000C30FFF76DBC00BF00000000000000004A
:10DCC0000C30FFF775BC00BF000000000000000032
:10DCD00002F0CEBC000000000000000000000000C8
:10DCE0000122002302704360704700BF0000000063
:10DCF00010B52023044683F31188416002F0C8FC6C
:10DD000002232370002383F3118810BD000000005C
:10DD100010B52023044683F3118802F019FD032374
:10DD20002370002383F3118810BD00BF00000000A2
:10DD300008B5202383F3118802F01AFD002383F332
:10DD4000118808BD00000000000000000000000075
:10DD500010B5046AD4F8542213681978042900D045
:10DD600010BD217A0229FBD111791A8901238B4038
:10DD70001A40F5D1D4E90F03A16B1B1A5B1AEFD03F
:10DD800082F31188D4F854221179106804F130021A
:10DD900000F026FA202383F31188D4F85432BDE82A
:10DDA00010401979186800F043BA00BF0000000065
:10DDB00038B5046AD4F8542213681978042900D0BD
:10DDC00038BD217A0229FBD150795989012282403C
:10DDD0000A40F5D103EB8003A169E069DB6865695E
:10DDE0005B8A411A491B8B42EAD882F31188B1FB46
:10DDF000F3F1D4F8542203FB01F31068517904F1D4
:10DE00000C0200F0DDF9202383F31188D4F854329A
:10DE100059791868BDE8384000F0F2B900000000F8
:10DE20000C30FFF7FDBC00BF000000000000000048
:10DE30000C304FF0FF33FFF7F3BC00BF00000000D1
:10DE40003030FFF775BD00BF00000000000000008B
:10DE500030304FF0FF33FFF76BBD00BF0000000014
:10DE60000C30FFF7B5BC00BF000000000000000050
:10DE70000C304FF0FF31FFF7ABBC00BF00000000DB
:10DE80003030FFF72DBD00BF000000000000000093
:10DE900030304FF0FF32FFF723BD00BF000000001D
:10DEA000704700BF000000000000000000000000FC
:10DEB00010B503460E4A43F8042B82B001220446F3
:10DEC000009000F15401436002720A4B0C304FF491
:10DED0008072FFF75DFC009404F5AA7104F1300034
:10DEE000054B4FF48072FFF7DBFC02B010BD00BFA2
:10DEF00080780108B1DD000851DD00080000000055
:10DF00000B68202282F311880A7903EB8202906168
:10DF10004A79093243F822008A7912B103EB82036D
:10DF2000986102230372C0F85412002383F311880E
:10DF3000704700BF0000000000000000000000006B
:10DF400070B5D0F8543200F10C06044630461D6816
:10DF5000FFF72EFC04F13000FFF7B2FC201D012179
:10DF6000FFF7A6FBD4F85432597905EB8103284614
:10DF7000DB6832465B8A00F023F9D4F85432284635
:10DF80005979BDE8704000F03BB900BF00000000C7
:10DF900090F8443003F06003202B01D0002070473C
:10DFA00090F84530202BF9D3212B07D8074B8363FA
:10DFB00007220023C0E90F2301207047222BEDD157
:10DFC0000023C0E90E3303640120704700080020DD
:10DFD000F8B500EB81039C694CB30E46054620273B
:10DFE00087F311880821201DFFF762FBD4E90F1386
:10DFF000A26B5B1A9B1A1BD105EB8603DB685A697F
:10E0000052688AB11B8A013B13400DD183F31188FA
:10E0100004F130023146284600F0E2F887F3118817
:10E020003146284600F004F9002383F31188F8BD37
:10E03000002282F31188EBE70000000000000000DE
:10E0400001F109032DE9F04150F82340BCB1074626
:10E050000E464FF0200888F3118804216018FFF75E
:10E0600027FB07EB8603E569D968A2696369498ADA
:10E07000AA1AD21A914204D9002383F31188BDE869
:10E08000F081002383F31188B2FBF1F3384601FBE2
:10E0900003F304F10C02314600F092F888F3118882
:10E0A0003146384600F0ACF8E6E700BF000000005B
:10E0B000704700BF000000000000000000000000EA
:10E0C00002F05EBA00000000000000000000000046
:10E0D000012200230270C0E901330C30FFF7E0B9E0
:10E0E00002F076BB0000000000000000000000000D
:10E0F00002F076BC000000000000000000000000FC
:10E10000002301220270437083704360704700BF98
:10E1100010B52023044683F31188416002F088FC87
:10E1200002232370002383F3118810BD0000000038
:10E1300001F056BE000000000000000000000000DA
:10E14000002301220270C36183620362C3624362DF
:10E150000363C0E9013370470000000000000000C5
:10E1600038B50446202383F3118800254160C0E9B7
:10E170000355C0E9055501F04BFE0223237085F3DA
:10E18000118838BD00000000000000000000000001
:10E19000536910B42BB100241C605C609C60DC608F
:10E1A0001C6193692BB100241C605C609C60DC6086
:10E1B0001C6100EB81035DF8044BDA6001F010BFD5
:10E1C00030B400EB81040125E468A469E260002218
:10E1D00063602570A26030BC01F0EABF000000005F
:10E1E00030B400EB81040125E4686469E260002238
:10E1F00063602570A26030BC02F04AB800000000E5
:10E20000012270B502FA01F344899BB214EA0306B5
:10E2100001D0104670BD2343438102F049F93046D6
:10E2200070BD00BF00000000000000000000000002
:10E23000012270B502FA01F304899BB214EA0306C5
:10E2400001D0104670BD2343038102F041F93046EE
:10E2500070BD00BF000000000000000000000000D2
:10E26000002202210170C264C0E90222C0E9042236
:10E27000826180F8342001F043BE00BF000000003E
:10E2800070B50023044680F8343000F1440201F0F8
:10E290007FFF63689B68002B33D02046984780B38C
:10E2A000E16B94F8443094F84B0094F84A2042EA29
:10E2B00000228A422CBF0A46E2631806E16800F198
:10E2C0009980002A7BD08B69A06B0021042584F8FB
:10E2D0003450D8605A6019709960204601F068FF88
:10E2E000202383F31188638913F0010105D143F0E2
:10E2F00001036381204602F0DBF8002383F31188D9
:10E3000070BD94F8443013F06005184611D0002118
:10E31000204602F005F90021204602F0F1F863687A
:10E320001B6813B1052120469847062384F8343032
:10E3300070BD94F8451003F07F0242EA0122B2F565
:10E34000407F00F0148117D9B2F5C06F00F0F6805D
:10E3500040F29980B2F5106F73D040F602418A42C4
:10E3600000F0D280B2F5006FD1D104F14F0201214B
:10E370002564C4E90E2196E7022A00F0AB8040F242
:10E38000A180B2F5807F6FD0B2F5817FBFD194F8C4
:10E390004630002BBBD194F8483013F00F0107D062
:10E3A0001E06204600F1FB8002F0CAF894F84400F3
:10E3B0000023C4E90E3323640306E16836D44A69B6
:10E3C0000023052184F83410204619461370D360C9
:10E3D000C2E9013301F05CFF202383F31188238914
:10E3E00013F0010189D143F001032381204602F09B
:10E3F0006FF882E7D2B14B69A06B0021012584F848
:10E400003450D8605A6019709960204601F040FF7E
:10E41000202383F31188238913EA05017FF46DAF6C
:10E420002B432381204602F053F866E78A690023D4
:10E43000032184F8341019461370D360C2E9013304
:10E440004BE794F8463084F84F30002B40F09E8024
:10E450000323237063681B68002BA9D02046022188
:10E46000984794F84400A3E794F84630012B7FF4D2
:10E470004EAFB4F84C30A56323F00203C4E90F5546
:10E48000A4F84C3098E740F202339A4243D0B2F5F8
:10E49000A06F7FF43CAFB4F84430B3F5A06F87D1E0
:10E4A00094F8463084F84E30204601F089FD6368C8
:10E4B0001B6813B1012120469847032394F84400B8
:10E4C000237075E7EAB904F14C0002212264C4E923
:10E4D0000E01E8E694F8483003F00F011B062046D1
:10E4E00057D401F035FE012857D002287FF40FAF32
:10E4F000304BA36302210023C4E90F1394F8443086
:10E50000D1E6012A7FF403AF2B4AA2630221002245
:10E51000C4E90F12C7E694F84630002B7FF4F7AE3B
:10E5200094F8483013F00F013FF442AF1D06204627
:10E530003AD401F0E5FF94F8440039E794F8490033
:10E54000616894F848304E6894F8462094F8471073
:10E5500043EA00232046B04700283FF4D8AED0E974
:10E5600000132564C4E90E3194F844309BE694F816
:10E570004630012B7FF4CBAEB4F84C30A56343F0AA
:10E580000203C4E90F55A4F84C3015E704232370A7
:10E5900060E701F0EDFD0128A7D1084BA9E701F0E4
:10E5A000DFFF94F8440003E701F0BAFF94F8440059
:10E5B000FEE600BFA0780108C0780108B078010825
:10E5C00090F8343010B50446062B23D8DFE803F06A
:10E5D000582A045858235800C3689A690321002315
:10E5E00084F83410204619461370D360C2E9013311
:10E5F00001F0DEFD202383F31188638913F001010C
:10E6000005D143F001036381204601F051FF00234F
:10E6100083F3118810BD036C03B19847002384F87D
:10E62000343010BD90F84B0094F84A20E16BE36859
:10E6300042EA00229142D0D2188AB1FBF0F200FBEC
:10E640001212002AC9D15B6911461A70DA60C3E957
:10E650000122204601F01CFE202383F31188238928
:10E6600013F0010105D143F001032381204601F09D
:10E670002FFF002383F31188022384F8343010BD68
:10E68000002101F04DFF0021204601F039FF6368B1
:10E690001B6813B1052120469847062384F83430BF
:10E6A00010BD00BF000000000000000000000000DE
:10E6B00090F83420062A14D80123934013F0670FF2
:10E6C00010B5044627D113F008020BD0C3689B692C
:10E6D0009B682BB9036C03B19847002384F834304E
:10E6E00010BD7047DB06FBD5C3685B69052180F868
:10E6F00034101A70DA60C3E90122114601F0C8FD36
:10E70000202383F31188238913F0010114D00023FF
:10E7100083F3118810BD002101F002FF0021204683
:10E7200001F0EEFE63681B6813B10521204698478F
:10E73000062384F8343010BD43F0010323812046C2
:10E7400001F0C6FEE3E700BF00000000000000008B
:10E75000430910B49B0000F1604404F5614403F1E7
:10E760006043090103F5614300F01F000122C9B2B3
:10E7700084F8001302FA00F0C3F880015DF8044B3E
:10E78000186070470000000000000000000000005A
:10E790000849430910B4203300F01F040122084443
:10E7A000A240002441F8232080F800435DF8044B88
:10E7B000704700BF00E100E0000000000000000022
:10E7C00000F1604000F56D400901C9B20176704763
:10E7D00008B5074B074A196801F03D0199601368B5
:10E7E0000BB150689847BDE80840FFF749B900BF32
:10E7F00000600240100F0020000000000000000038
:10E80000084B094819688268890901F03D0110B573
:10E810008C019C600AB1C0689047BDE81040FFF7CA
:10E820002FB900BF00600240100F00200000000060
:10E83000084B094819680269090C01F03D0110B53F
:10E840000C049C600AB140699047BDE81040FFF796
:10E8500017B900BF00600240100F00200000000048
:10E86000084B094819688269890D01F03D0110B50E
:10E870008C059C600AB1C0699047BDE81040FFF765
:10E88000FFB800BF00600240100F00200000000031
:10E8900008B5074B07485968026A01F03D01D96085
:10E8A0000AB1406A9047BDE80840FFF7E9B800BFE9
:10E8B00000600240100F0020000000000000000077
:10E8C000084B09485968826A890901F03D0110B571
:10E8D0008C01DC600AB1C06A9047BDE81040FFF7C8
:10E8E000CFB800BF00600240100F00200000000001
:10E8F000084B09485968026B090C01F03D0110B53D
:10E900000C04DC600AB1406B9047BDE81040FFF793
:10E91000B7B800BF00600240100F002000000000E8
:10E92000084B09485968826B890D01F03D0110B50B
:10E930008C05DC600AB1C06B9047BDE81040FFF762
:10E940009FB800BF00600240100F002000000000D0
:10E9500008B5074B07481968026C01F03D01996042
:10E960000AB1406C9047BDE80840FFF789B800BF86
:10E9700000640240100F00200000000000000000B2
:10E98000084B09481968826C890901F03D0110B5EE
:10E990008C019C600AB1C06C9047BDE81040FFF745
:10E9A0006FB800BF00640240100F0020000000009C
:10E9B000084B09481968026D090C01F03D0110B5BA
:10E9C0000C049C600AB1406D9047BDE81040FFF711
:10E9D00057B800BF00640240100F00200000000084
:10E9E000084B09481968826D890D01F03D0110B589
:10E9F0008C059C600AB1C06D9047BDE81040FFF7E0
:10EA00003FB800BF00640240100F0020000000006B
:10EA100008B5074B07485968026E01F03D01D960FF
:10EA20000AB1406E9047BDE80840FFF729B800BF23
:10EA300000640240100F00200000000000000000F1
:10EA4000084B09485968826E890901F03D0110B5EB
:10EA50008C01DC600AB1C06E9047BDE81040FFF742
:10EA60000FB800BF00640240100F0020000000003B
:10EA7000084B09485968026F090C01F03D0110B5B7
:10EA80000C04DC600AB1406F9047BDE81040FEF70F
:10EA9000F7BF00BF00640240100F0020000000001C
:10EAA000084B09485968826F890D01F03D0110B586
:10EAB0008C05DC600AB1C06F9047BDE81040FEF7DE
:10EAC000DFBF00BF00640240100F00200000000004
:10EAD0000E490F4A0F48002310B40B600E4C194624
:10EAE00001E052F80C0C016044F833100133102B94
:10EAF00002F10C02F5D10949094A5DF8044B4FF0C7
:10EB0000FF338B60CB609360D3607047900F002021
:10EB1000DC78010810600240100F00200060024005
:10EB2000006402400000000000000000000000003F
:10EB3000F8B5204F467AD7F800C0012404FA06F54C
:10EB400015EA0C0F33D11C4C45EA0C0504EBC60C3E
:10EB500015F0FF0F3D6044F83620CCF8043004D0A7
:10EB6000164C236B43F40013236315F47F4F16D127
:10EB700005682B6823F01F032B602C6814F0010438
:10EB8000FBD1077A46683D23BB40212733602C60C8
:10EB90006F6152B1807AFFF7DBFD2046F8BD074C6C
:10EBA000236B43F480032363E2E71046F8BD20465D
:10EBB000F8BD00BF900F0020100F00200038024069
:10EBC00010B50446807AFFF7E3FD0C49607A0B68C4
:10EBD0000122824023EA020313F0FF0F0B6004D1ED
:10EBE00007490A6B22F400120A6313F47F4F04D121
:10EBF000034A136B23F48003136310BD900F0020AE
:10EC0000003802400000000000000000000000008A
:10EC1000174B4FF0FF311A69002210B419611A61C5
:10EC2000586959615A61186A124C60F08050186234
:10EC30001A62586A59625A62196C41F0805119641B
:10EC4000216841F480712160196F01F44071B1F5C0
:10EC5000007F03D04FF4803119671A67054A5DF8C9
:10EC6000044B536823F400735360FFF731BF00BFB8
:10EC7000003802400070004000000000000000006A
:10EC80002A4B2B4A4FF080504FF4404118641160DA
:10EC90001A6842F001021A601A689207FCD5996856
:10ECA000224A21F00301996099689960936813F0F2
:10ECB0000C03FBD110681D4900F0F900106093604F
:10ECC000136843F4803313600B689803FCD54B6FD3
:10ECD000164A43F001034B67536F9907FCD5154B58
:10ECE00053601368124943F0807313604B685A04F1
:10ECF000FCD50E490B689B01FCD50F4B0F4A8A606F
:10ED000040F205721A608B68084A43F002038B6078
:10ED1000936803F00C03082BFAD1536C43F480433F
:10ED20005364536E43F48043536670470038024087
:10ED30000070004008544007003C0240009408382E
:10ED4000F0B4444D444C2B6C43F000732B64D4F866
:10ED500000321B0C1B0443F0010343EA0023C4F8F8
:10ED6000003200295BD00023C4F81C321846C4F8D6
:10ED70000432C4F80C32C4F814321C46C30003F148
:10ED8000804303F5C84301301C28C3F84042C3F850
:10ED90004442F3D1304D0026012710681479C30096
:10EDA00003F1804314F0010F03F5C84306F1010697
:10EDB00007FA00F005D0D5F804C24CEA000CC5F8FB
:10EDC00004C214F0020F05D0D5F80CC24CEA000CB6
:10EDD000C5F80CC2640704D5D5F814420443C5F83D
:10EDE00014429468C3F84042D468C3F84442D5F84A
:10EDF0001C32B14240EA030002F11002C5F81C02C5
:10EE0000CBD11549134AD1F8003223F00103C1F8E0
:10EE10000032136C23F000731364F0BC7047C2001F
:10EE200002F18042012302F5C842834043F001030E
:10EE3000C4F84012C4F84412C2F84012C2F8441296
:10EE4000C4F80412C4F81412C4F80C32C4F81C320A
:10EE5000D7E700BF00380240006400400000000017
:10EE600010B50C4C0C49E26A2023916083F31188A1
:10EE7000002104F10800FEF7ABFA04F11C000121A7
:10EE8000FEF716FC002383F31188BDE81040FEF75F
:10EE9000F7BD00BF940F0020010101000000000039
:10EEA00038B5164CE36ADD68AA0711D1EB060BD51D
:10EEB000E36A1021D960202383F311881048FEF7FC
:10EEC000F7FB002383F31188BDE83840FEF7D8BD77
:10EED0005A6922F002025A61202383F3118800212B
:10EEE00004F11000FEF774FA04F118000121FEF796
:10EEF000DFFB002383F31188D8E700BF940F0020C5
:10EF0000B40F00200000000000000000000000001E
:10EF100038B5164CE36A1D69AA0711D1EB060BD56B
:10EF2000E36A10211961202383F311881048FEF74A
:10EF3000BFFB002383F31188BDE83840FEF7A0BD76
:10EF40005A6922F010025A61202383F311880021AC
:10EF500004F11000FEF73CFA04F118000221FEF75C
:10EF6000A7FB002383F31188D8E700BF940F00208C
:10EF7000B40F0020000000000000000000000000AE
:10EF800038B51B4DEB6A5C681C225A6022071DD401
:10EF9000630717D5EA6A9369916921F0700191615D
:10EFA00013F0700F03F0070118BF41F00801202291
:10EFB00082F311880F4841EA0341FEF779FB0023F1
:10EFC00083F31188BDE83840FEF75ABD1A68284619
:10EFD00022F00202032100F8281B20211A6081F38D
:10EFE00011880021FEF764FB002383F31188CFE72B
:10EFF000940F0020B40F002000000000000000006B
:10F0000010B5064C2046FEF793FD0022044BE36248
:10F0100011460E20BDE81040FFF792BE940F00206D
:10F02000006400400000000000000000000000003C
:10F03000184B984210B5044615D0E36A01221A60B5
:10F040005A68D10707D401210820FDF7E9FFE36AD8
:10F050005A68D207F7D562680F49D2E90020D86113
:10F060001A60596110BD0B211320FFF771FB0B21B2
:10F070001420FFF76DFB0B211520FFF769FB0B2117
:10F080001620FFF765FB054A136C43F00073136409
:10F09000D3E700BF940F00205B8F010000380240CF
:10F0A000012911D00AD3022906D1C36A186910F0C8
:10F0B000030018BF0120704700207047C36ADA6858
:10F0C0009207F3D001207047C36AD86810F003009C
:10F0D00018BF0120704700BF0000000000000000C2
:10F0E00030B400292FD1C36AD968880744D0D3F837
:10F0F000B001D3F8B411D3F8B841D3F8BC51D460FF
:10F1000020241561DC60DC68A50703D15C6944F04C
:10F1100002045C611379440864F30413840864F303
:10F12000451313719B062BD59368C00860F31C032D
:10F1300093601379080A61F30303090C13711070CB
:10F14000518030BC7047012920D00229F9D1C36A0F
:10F15000D3F8C001D3F8C411D3F8C841D3F8CC51C7
:10F16000D460202415611C611C69A407D2D15C699C
:10F1700044F010045C61CDE719698907E8D1E0E744
:10F180001389400D60F30A031381D2E7C36AAEE727
:10F190006849694A694B70B40D6B40F2FF163543FC
:10F1A0000D630C6D34430C6541685160816891605A
:10F1B000C168D1600169516141691162816951621F
:10F1C00001681160026A5A60426A9A60826ADA6073
:10F1D000C26A5A61026B1A62426B5A62C2691A6051
:10F1E000C26BC3F80424026CC3F80824426CC3F851
:10F1F0000C24826CC3F81424C26CC3F82024026D62
:10F20000C3F82424826BC3F8002403F50063826DE5
:10F210005A60C26D9A60026EDA60426E5A61826E06
:10F220001A62C26E5A62426D1A60426FC3F80424B9
:10F23000826FC3F80824C26FC3F80C24D0F8802072
:10F24000C3F81424D0F88420C3F82024D0F88820F0
:10F25000C3F82424026FC3F80024D0F89020C3F828
:10F260000428D0F89420C3F80828D0F89820C3F8D0
:10F270000C28D0F89C20C3F81428D0F8A020C3F89C
:10F280002028D0F8A420C3F82428D0F88C20C3F874
:10F29000002803F54063D0F8AC205A60D0F8B020C5
:10F2A0009A60D0F8B420DA60D0F8B8205A61D0F86B
:10F2B000BC201A62D0F8C0205A62D0F8A8201A6088
:10F2C000D0F8C820C3F80424D0F8CC20C3F8082410
:10F2D000D0F8D020C3F80C24D0F8D420C3F81424DC
:10F2E000D0F8D820C3F82024D0F8DC20C3F8242498
:10F2F000D0F8C420C3F80024D0F8E420C3F80428D0
:10F30000D0F8E820C3F80828D0F8EC20C3F80C287F
:10F31000D0F8F020C3F81428D0F8F420C3F820283F
:10F32000D0F8F820C3F82428D0F8E020C3F800284B
:10F3300070BC7047003802400000024000040240E8
:10F340002DE9F04F02F0030CC2F38007C2F3C106AF
:10F35000C2F341150024C2F3C3124FF00F0E4FF059
:10F3600001094FF0030830E0D0F820B00BEA0A0A98
:10F370004AEA03030362436809FA04FA23EA0A0328
:10F380003B4343606300D0F808A008FA03F3DB4373
:10F390000AEA030A4AEA060AC0F808A0D0F80CA054
:10F3A00003EA0A0A4AEA050AC0F80CA0D0F800A04D
:10F3B00003EA0A0343EA0C03036049081BD07F00F9
:10F3C000B600AD004FEA8C0C013404F007039B003B
:10F3D0000EFA03FA11F0010F02FA03F36FEA0A0AB8
:10F3E000EBD0072CC0D9D0F824B00BEA0A0A4AEABD
:10F3F00003034362BFE7BDE8F08F00BF00000000D9
:10F4000011F00C0F38B50546446B12D1296B0A6810
:10F41000136823F01F0313601368DB07FCD4087A1A
:10F420004A683D2383401360636843F4007363605C
:10F4300038BD0248FDF7ECFCE8E700BF9079010811
:10F4400011F00C0F70B50646456B25D1F26A1368B2
:10F45000196821F01F0119601C6814F00104FBD128
:10F46000117A52683D238B4013606B6823F48053FC
:10F470006B602B6823F480632B602B6843F400736C
:10F480002B60202383F3118806F11C002146FDF731
:10F4900077FF84F3118870BD0148FDF7B9FCD5E70B
:10F4A000907901080000000000000000000000004A
:10F4B00039483A4A70B5446BA369656945EA034324
:10F4C00023F07F43934250D022D8073A934240D052
:10F4D0000132934214D16268C36A22F400721B683D
:10F4E00062601A6842F001021A60626842F4805257
:10F4F00062605B68012B03D8236823F48063236078
:10F5000015F00A0F18BFA369BDE87040FEF7B8BA3E
:10F51000234A934212D002329342F1D1C36A1B684C
:10F520005E683EB32368028C43F4A06342F001029C
:10F5300002842360BDE87040FEF7A2BA6368026BE4
:10F5400023F4007312686360136843F001031360CF
:10F55000D6E7038C1A0A0BD003F0010343F0F00343
:10F5600002F0060213432361CAE7038CC3F3470387
:10F570002361C5E7636823F400736360236843F481
:10F5800000732360202383F311881C303146FDF77C
:10F59000F7FE86F31188B3E7C40F002008000300CC
:10F5A00082000700000000000000000000000000D2
:10F5B0003448F8B5D0E90C756C693A6804F45F43D7
:10F5C000DB436B61136823F01F031360A1B2136860
:10F5D000DB07FCD43A7AC66A7F683D2393403268E1
:10F5E0003B60136823F01F0313601368DF07FCD42C
:10F5F000377A72683D23BB40136011F4807318BFE3
:10F6000001238A05836044BF43F0020383604F05F2
:10F610000AD56A6822F400726A602A6843F004031B
:10F6200042F400722A6083600E0544BF43F0080371
:10F6300083604D0444BF43F020038360CA0424B2B6
:10F6400013D543F01003002C836016DB202383F3D3
:10F6500011886FF001010C48FDF792FE002383F33F
:10F660001188BDE8F840FEF70BBA002C05DB002B33
:10F67000ECD1BDE8F840FEF703BA43F040038360E5
:10F68000E4E700BFC40F0020E00F002000000000EE
:10F6900010B5074C2046FEF7ABFA064B064A6263EC
:10F6A000002103F13C02E161C4E90B3210BD00BF4F
:10F6B000C40F0020E8780108005800400000000056
:10F6C000F8B50378456B40F256428262012B40F256
:10F6D0001642044642623CD02B46D4E90B126068C5
:10F6E0000F68D2F800C04168464E05F11002BA60BA
:10F6F0004FF41064CCF808204FF4004700222F602C
:10F700002A606C605C684FF6C0773C40077A5C60AA
:10F710005C68B14244F02A045C6049DD3A4CA14285
:10F7200007DC022F56D0032F5FD048F6FF720D2161
:10F730001962DA6101781A68022992B244D0032969
:10F740003FD0012930D01A602B6843F001032B60B1
:10F75000F8BD2E4B9842BFD12D4EC06A336A2D4A58
:10F7600043F4800300213362234631620521FFF711
:10F77000DFF9294A206B23460521FFF7D9F9336CBD
:10F7800043F48003336405212120FEF7E1FF0521C6
:10F790002220FEF7DDFF616A2048A26A636B014305
:10F7A0000243C4E9091298E722F00A0292B2CAE7BA
:10F7B0002B2449001A4A1C62B2FBF1F2C2F30B027D
:10F7C000B7E742F00A02BEE722F0080292B242F026
:10F7D0000202B8E701EB4101114AB2FBF1F26FEA14
:10F7E00042426FEA524292B2A1E701EB810202EB80
:10F7F00082010B4AB2FBF1F26FEA82426FEA924257
:10F8000092B294E7A0860100801A0600C40F00207F
:10F810000038024041F4000801F400080000030E23
:10F8200080DE8002000000000000000000000000F8
:10F8300038B50378012B2DD0D0E90C1300240A68C9
:10F840004FF400451D601C605C605C61136823F030
:10F850001F0313601368DC07FCD40A7AC56A4C687E
:10F860003D2393402A682360136823F01F0313602D
:10F870001368DB07FCD40446287A6A683D2383407A
:10F8800013600846FFF79CF9E06AFFF799F9084B07
:10F890009C4200D038BD2120FEF77AFF2220FEF7DF
:10F8A00077FF044A136C23F48003136438BD00BF50
:10F8B000C40F0020003802400000000000000000DB
:10F8C0004900F0B441F0010100250184446B8560DA
:10F8D000DDF810C085F31188C66A416A3768144E96
:10F8E0003960FA607B602A46B76A202501E082F31E
:10F8F000118885F31188A369990702D423689B05B1
:10F9000008D5B36ADB1BB3F5FA7FF0D34FF0FF30B5
:10F91000F0BC7047636843F400736360236843F48A
:10F92000A063236061461C30F0BCFDF719BD00BF29
:10F93000900C00200000000000000000000000000B
:10F940002DE9F04349000025164601849E46446B8C
:10F950008560DDE90728DDF824C085F31188D0E94A
:10F960000B7109683F68836A0B60D0F82490CE6001
:10F97000164EC1F804E0C7F80090FA60C7F804809A
:10F980002A46B76A202501E082F3118885F31188A1
:10F99000A369990702D423689B0508D5B36ADB1BCA
:10F9A000B3F5FA7FF0D34FF0FF30BDE8F083636822
:10F9B00043F400736360236843F4807323606146FB
:10F9C0001C30BDE8F043FDF7CBBC00BF900C00201D
:10F9D0002DE9F04FB84BB9499A69056D916187B02F
:10F9E000202383F31188009300F16003A946059357
:10F9F00005462B78012B05D0EB6D63B9D9F814308F
:10FA0000DB0608D4D9F81830059843F01003C9F87C
:10FA10001830FDF795FC002383F311889A46D9F836
:10FA2000143013F0100358D02A6D136A03F4F01148
:10FA3000B1F5802F24D0B1F5402FF0D103F00F01A4
:10FA400005EB8101C3F30A13C96803339B080C6AF1
:10FA5000E5D002F5805202211668581E49B10346CE
:10FA600044F8046B0139002BD9D01668581E0029C0
:10FA7000F5D10028D3D0023B1068002BF5D1CEE79A
:10FA800003F00F0605EB8606C3F30A14F3689F69BB
:10FA90003B78F868002B3BD1D7E9011CCE1CE11C58
:10FAA000A6EB0C0689084FEA96060DD002F58052A7
:10FAB00086469046D8F800204B1E0EB319464EF8E5
:10FAC000042B013E0029F5D12044F860D9F8143008
:10FAD000644413F01003BC60A6D10126EA6D06FA57
:10FAE0000AF6164250D10AF1010302936B6D9DF89C
:10FAF00008A09B689A4592D9009B83F3118878E708
:10FB0000002BE1D00239D8F800300029D2D1DBE750
:10FB10003CB3416902F58052A446BCF1030F07D9FA
:10FB200003698B4204D8C1684161BCF1030FF7D867
:10FB3000D2F800E000232EFA03F701F10108C0F823
:10FB400014800F70D0E904178F4224BFC16841614F
:10FB5000BCF1010C03F1080303D0202B4169EAD169
:10FB6000DBE7009B83F311888368234483600021D3
:10FB7000FDF72EFCFDF704FB002383F31188F368E7
:10FB80009F69D7F808C0A1E7009A82F31188D9F8D5
:10FB90000810EA6D21F0010122EA0602C9F80810F6
:10FBA000EA6583F3118805EB8A031F46D9684A6921
:10FBB000D2E90130984280F0B680D5F850E00C8A46
:10FBC0004FEA4A180EEB080C1B1ADCF818099C4285
:10FBD00028BF1C4683B2B4EB830F00F2B1800AF158
:10FBE000010302931B03CDE903960193B946019EDD
:10FBF0001378D068B644002B7ED0FCB1D0F810B09A
:10FC00002246970883695ED0BBEB030148BF0331EE
:10FC10008E10BE4228BF3E46B100521A002E7CD044
:10FC2000194453F8046BCEF800608B42F9D1594562
:10FC3000816145D3C3688361002AE2D1009B83F3CD
:10FC400011888368234483600021FDF7C1FBFDF721
:10FC500097FA002383F31188D9F80C104A69D2E986
:10FC600001031C44A042946059D9D5F850E0B1F882
:10FC700010C00EEB080A041BDAF81839644528BFD7
:10FC800064469BB2B4EB830FB1D9DDE90396002241
:10FC9000009B83F31188D9F8083043F00103C9F8B9
:10FCA000083022B9D9F834381E43C9F83468002323
:10FCB00083F311881AE700BF900C0020E079010857
:10FCC000002ABBD00B4600210E465F1C87611B78C3
:10FCD0005F4503FA01F346EA030624BFC368836164
:10FCE000013A04D0182902D008318369EDE7CEF833
:10FCF0000060002A85D1A1E7E31C9B080AD000EB35
:10FD00008301034653F8046BCEF800608B42F9D1AF
:10FD1000D9F80C102044D060A0E7194687E7DDE948
:10FD200003960122B4E7009B83F31188D9F80830C9
:10FD30000AF1010243F001030292C9F80830B6E764
:10FD4000009B83F31188D9F808300AF1010243F0CF
:10FD500001030292C9F80830A4E700BF00000000C8
:10FD60008B68F0B5002403F1010C25464FF0804E5E
:10FD70004FF0FF3614E0C2F80059C118C1F810590D
:10FD8000C1F80869D2F8007B002F17DBC2F8005BCE
:10FD9000034401346445C3F8105BC3F8086B14D006
:10FDA0006301C218D2F800190029E4DAC2F800E9A8
:10FDB0001746D7F808198907FBD5DEE7C2F800EB2C
:10FDC000D1F8082BD206FBD5E2E74FF00113C0F8BB
:10FDD0001C38F0BD00000000000000000000000022
:10FDE00010B5064C2046FEF7ABF94FF0A043044A8D
:10FDF000236500236265C4E9183310BD001000209C
:10FE0000D0790108000000000000000000000000A0
:10FE10000378012B00D0704770B5314B066D9842C6
:10FE200082B005463BD0344600232E4AEB652E496E
:10FE3000F2604FF43412C6F800182020C6F8003ED5
:10FE4000B263FDF71DF8012323612369DB07FCD4AE
:10FE50000C20FDF715F82369002BFCDA0024B460B0
:10FE6000D5E91401FFF77CFF6B68C6F81048DB6822
:10FE7000C6F81448C6F81C486BB143F20803B361D6
:10FE80006B6E4FF0FF327261D3B1B36843F0010380
:10FE9000B36002B070BD4FF44053B361F0E7134B51
:10FEA0005A6B42F080025A635A69002042F0800285
:10FEB0005A610E2158614320FEF74AFC2C6DB3E7CE
:10FEC0000B4B009502224FF4067105F16800FDF717
:10FED00097F96866FDF774F8FDF752F9D5E700BFAA
:10FEE00000100020401400400300200200380240AF
:10FEF000D1F9000800000000000000000000000030
:10FF0000F8B5056D202306462B612C6914F02004FA
:10FF1000FBD10C20FCF7B4FF776DBA6823464FF095
:10FF20000060541CFF2105EB431201339C42C2F8D0
:10FF30000009C2F8000BC2F80819C2F8081BF2D178
:10FF40003B684FF001124FF0FF31C5F81818C5F8A3
:10FF50001C28B3653B68326D6B6210231361146912
:10FF600014F01004FBD10C20FCF78AFFD5F8003800
:10FF7000104A114923F4FE63C5F80038AB6943F415
:10FF8000402343F01003AB610923C5F81038C5F8CE
:10FF90001438F160C5F8104BC5F8002BC5F81049AE
:10FFA000C5F80029B36D03F1100243F48013B26564
:10FFB000AB62F8BD40800010A0790108000000008D
:10FFC000026D90F84E10D2F8003823F4FE6343EA35
:10FFD0000113C2F800387047000000000000000064
:10FFE0002DE9F8430FFA81F800EB88070D46FB680E
:10FFF0001A6802F00302022A00F09780032A00F038
:020000040801F1
:1000000091804B4C4B49012A0CBFA1468946046D97
:10001000DE68690162184FF0000CC2F810CB05F1E0
:1000200010024FF0010C0CFA02F2002E4BD0B3F884
:1000300012C005F1580676014CEA090C44F806C0D6
:10004000D4F81C683243C4F81C286618D3F808C0DA
:100050000022A901C6F8102941F020016A1EBCF156
:10006000000F3FD0B3F81CC01E8ABCF1010F4FEA4D
:10007000960302F14002866D88BF0CFB03F304EB8C
:10008000820203EB060C46EA0343C0F858C05360F3
:10009000216123699A06FCD40C20FCF7F1FEFB6871
:1000A0001A8A05F1480342EA85525B0142EA0902D5
:1000B000E2500121D4F81C3801FA05F51D43C4F8BB
:1000C0001C58BDE8F88304EB481CDCF8006B26F4F0
:1000D0000046CCF8006BD4F81C6826EA0202C4F88B
:1000E0001C28B2E705F13F0304EB8303124A5A6070
:1000F000216123699B06FCD404EB48180C20FCF713
:10010000BFFED8F8003923F40043C8F80039D4F80A
:100110001C38012101FA05F523EA0505C4F81C582D
:10012000BDE8F883DFF8149071E7DFF814906EE70C
:1001300000800410008000100004000200800C10F9
:100140000080081000000000000000000000000017
:100150005831036D49015B5813F4004004D013F487
:10016000001F14BF01200220704700BF00000000E4
:100170004831036D49015B5813F4004004D013F477
:10018000001F14BF01200220704700BF00000000C4
:1001900000EB8101CB681B6A19685B6853601160D2
:1001A000704700BF000000000000000000000000D9
:1001B00000EB810370B4DE68B5696A682A6129B909
:1001C000402A03D94022094C6A6001E042F0C04451
:1001D000758A006D6B1E00EB41111344B3FBF5F300
:1001E00044EAC343C1F8103B70BC70474000006054
:1001F0002DE9F041244E376D07EB40130546D3F847
:10020000084BC3F8084B20070AD5D7F8143819074C
:1002100006D506EB85032946DB6830465B689847C0
:10022000E2072ED5D7F81438DB072AD506EB85036D
:10023000D9688B6958681A6990420CD37389CC6865
:1002400011480122AA4023EA02037381294623466A
:10025000BDE8F0411847121A0024C3E901242946D9
:100260000948FFF7A5FF202383F31188336D03EBC3
:100270004515D5F8003B43F08063C5F8003B84F397
:100280001188BDE8F08100BF0010002000000000D0
:1002900000EB810310B4DC68026D606943680361A0
:1002A0009BB169B1208A5DF8044B02EB4112411EFB
:1002B0001944B1FBF0F143EAC143C2F81039704769
:1002C000402B84BF40234360ECE702EB41124FF424
:1002D0000023C2F810395DF8044B7047000000009D
:1002E0002DE9F041304E356D05EB40130746D3F84C
:1002F0000849C3F80849E10716D5D5F81038DA07D8
:1003000012D506EB8003D9684B6958681A69904288
:100310002AD33389D1F808800122BA4023EA0203A4
:10032000338139463046C047230606D50123D5F828
:10033000342803FA07F7174201D1BDE8F0812023E2
:1003400083F31188D5F83428F36D184822EA0702A0
:10035000C5F834281F430021F765FDF711F8002385
:1003600083F31188BDE8F081121A4FF00008C3E949
:10037000012839463046FFF78BFF202383F311888D
:10038000326D02EB47100123D0F8001941F004410F
:10039000C0F80019D2F83418BB400B43C2F8343807
:1003A00088F31188C0E700BF001000206010002013
:1003B00070B53A4D2E6D7469B3691C40E1047461E7
:1003C00026D4A20448BFD6F80838230704D56B68A2
:1003D000DB680BB131489847E50624D46003D6F8B2
:1003E000185807D5E9074FD4AA0742D46B0745D45C
:1003F0002E074FD4240307D5E8032AD4A9032DD40C
:100400006A0330D42B031DD4BDE87040FDF738BB20
:100410002846FDF725FF6B681B68002BD1D0002113
:1004200028469847CDE7202383F31188B3691C48F9
:1004300023F01003B3610021FCF7A2FF002383F334
:100440001188CBE70320FFF7D3FEBDE87040FDF72E
:1004500017BB0020FFF7CCFEA903D1D50120FFF781
:10046000C7FE6A03CED50220FFF7C2FE2B03CBD511
:10047000E8E70120FFF734FF6B07B9D50220FFF74B
:100480002FFF2E07B6D505E00020FFF729FFAA07AA
:10049000ACD5EEE70320FFF723FFABE70010002009
:1004A00060100020000000000000000000000000BC
:1004B000036D03EB4111D1F8003B43F08063C1F8B9
:1004C000003B70470000000000000000000000003A
:1004D000026D10B402EB41140123D4F8000940F07E
:1004E0000440C4F80009D2F834085DF8044B03FA5C
:1004F00001F10143C2F83418704700BF000000004A
:10050000036D03EB4111D1F8003B43F40013C1F834
:10051000003B7047000000000000000000000000E9
:10052000036D03EB4111D1F8003943F40013C1F816
:1005300000397047000000000000000000000000CB
:10054000036D03EB4111D1F8003B23F40013C1F814
:10055000003B7047000000000000000000000000A9
:10056000036D03EB4111D1F8003923F40013C1F8F6
:10057000003970470000000000000000000000008B
:1005800010B50A4C0A4B4FF6FF7220461A80FDF751
:100590009FFD084B08480949094AE06103F124001E
:1005A000C4E90830C4E90A1210BD00BF9C12002043
:1005B000CC120020307901080030014016000106FD
:1005C00046000106000000000000000000000000DE
:1005D000F8B5264DEB6869681C69DA68087D144037
:1005E000E2B2D2431A6104F0020688B9620730D53C
:1005F0002B78042B29D09EB9E30705D56B681B48DF
:100600001B69984703232B70BDE8F840FDF738BA03
:1006100004F004075EB12B78042B04D0002FEBD03C
:1006200004232B70E8E78B68E3B128469847002F36
:10063000E2D02B78042BF3D16968CB68002BEFD084
:100640000A48984704232B70D6E78B683BB12846AD
:100650009847002ED0D02B78042BE1D1ECE7002E68
:10066000CAD0EAE7002FC7D0E7E700BFD0120020CA
:1006700010B5034C2046FDF733FB024BE36010BD81
:10068000D012002000040040000000000000000024
:100690000378012B70B504463AD0C36800221A6073
:1006A0005A639A635A62D4E9011288690D7D20F079
:1006B000FF0000261E61D8604868B2FBF0F24FF6DA
:1006C000FF70013A9A620A78D8626DB940F201204F
:1006D000542198619960C2B113221A6203F1380261
:1006E0003433C4E9042370BD4FF4817064219861F0
:1006F00099603AB131221A6203F134023833C4E905
:10070000042370BD13221A62F6E731221A62E5E76C
:100710000B4B984201D0E368C5E70A4B1A6C42F0D4
:1007200002021A641A6A002042F002021A620721C9
:1007300018621D20FEF70CF8034BA360EBE700BF27
:10074000D01200200038024000BD0105000000006A
:10075000C3685A69002042F0010205215A611861FC
:100760001960704700000000000000000000000059
:10077000C268D36810B413F0FF040CD1416814614F
:100780000C7D886854B970B143F00603096909B15A
:1007900043F00103D3605DF8044B70470028F3D1A8
:1007A00043F00403F2E743F00203EFE70000000028
:1007B00008B5202383F31188FCF732FB002383F371
:1007C0001188BDE80840FDF75BB900BF00000000DC
:1007D000054B44F29F1100200722596098600821C0
:1007E0000B201A60FDF7ECBF10E000E000000000F5
:1007F00001690A68136823F01F0330B4136013689B
:10080000DB07FCD40D7A4469496822683D23AB407C
:100810000B60136823F01F031360136813F00103C8
:10082000FBD1257A826860683D21A940016030BC17
:10083000D3601361536170470000000000000000A6
:100840002DE9F0418468E7682668626840F20F137A
:100850001E4205461DD043681A696FF480732360F9
:10086000BAB1B3B213F0080F0CBF00211021D807A2
:1008700048BF41F00401980748BF41F008015807FC
:1008800048BF41F02001D80548BF41F0400128464B
:10089000904772060ED57B060CD56B685B6827F017
:1008A00040076FF040022260E7601BB12846BDE8B8
:1008B000F0411847BDE8F081000000000000000092
:1008C00011F00C0F38B504461BD161690A68136832
:1008D00023F01F0313601368DB07FCD463680D7AF1
:1008E00048681A683D23AB400221036061702AB159
:1008F000204690476378022B00D038BD00236370F8
:1009000038BD0248FCF784FADFE700BF90790108A0
:1009100011F00C0F2DE9F04104463AD1A37861683B
:100920003BB9CB68002B32D0218B2046BDE8F0418B
:10093000184720690268136823F01F0313601368C7
:10094000DB07FCD4077A46688D683D23BB40022054
:100950003360A0703DB12046A847A378022B16D182
:10096000236961681A68CB68E168002B14BF4FF4F3
:1009700088734FF480730B430025012104F11800A4
:10098000A570D0605160136013680B431360BDE81D
:10099000F0810248FCF73CFAC0E700BF90790108FB
:1009A00008B50348FFF74CFFBDE80840FDF768B8FD
:1009B000E81200200000000000000000000000001D
:1009C00008B50348FFF73CFFBDE80840FDF758B8FD
:1009D00004130020000000000000000000000000E0
:1009E00070B50C4D0C4C0D4E2846FDF789FB0C4B99
:1009F000AB60062204F118033046C5E903246B619D
:100A0000FDF77EFB074BB36004F16C03A834C6E925
:100A1000043470BDE8120020DC78010804130020C3
:100A200000480040001401400000000000000000E9
:100A3000F8B50378012B044640D085680023A370E5
:100A400063702046FFF7D4FE444BA2689A42636865
:100A500008D043485969824205D0424AB2FBF1F2BC
:100A6000AA6004E05969404AB2FBF1F2AA60D96871
:100A70005E8B1A8B988B2B686B68D4E90373002903
:100A80004FF000011B68296040F0C10042F404529D
:100A900046F0400614BF4FF488714FF480712E6108
:100AA00042F00C026861183401203943EA60DC60CE
:100AB000586019601A6802431A60F8BD2B4B9842BF
:100AC00032D02B4B984215D063681B8B03F4A05394
:100AD000B3F5805F03D1E36843F42053E360D4E9C6
:100AE0000423A5681068196800222B1D83608B60A1
:100AF0002283A3E703461F4A00690C21FEF718F87A
:100B000023461D4A60690C21FEF712F81B4A536CFC
:100B100043F0200353640C214720FDF719FEE368DE
:100B200043F02063E360CFE70346124A00690C21DB
:100B3000FDF7FEFF2346104A60690C21FDF7F8FF20
:100B40000E4A136C43F4802313640C212720FDF715
:100B5000FFFDE36843F00063E360B5E70010014088
:100B60000014014080DE800200BD0105E812002073
:100B70000413002011090108C108010800380240CF
:100B8000FEF77EB80000000000000000000000003A
:100B9000704700BF000000000000000000000000DF
:100BA0002DE9F04F2DED028B064691B08946924615
:100BB0004FF0000B99F8001009F1010271B12529DD
:100BC00012D0336891469B683046984799F80010D8
:100BD0000BF1010B09F101020029F0D1584611B0C7
:100BE000BDEC028BBDE8F08F99F801102D2903BFF1
:100BF00099F8021009F1020201230023302908BFED
:100C00005178029306BF0132302720270132002499
:100C100007E09AF800300AF1040A12F8011B03EB0E
:100C20004004A1F13003DBB2092B154604EB84002C
:100C3000F3D92A29EDD02E294FF000084AD001F02F
:100C4000DF034C2B05F1010950D0A1F14103A1F1C3
:100C50004402DBB2342A00F2D381DFE812F01E0234
:100C6000D101D101D101D1011E02D101D101D101A6
:100C7000D101D101CD01D101D101D101D101D101E8
:100C80009701D101D1012702D101D101D101D101B7
:100C9000D101D101D101D101D101D1014E011E02F9
:100CA000D101AA00D101D1011E02D101D101D1018E
:100CB000D101D101CD01D101D101D1018800D101F2
:100CC0009701D101D10127029AF800300AF1040AF4
:100CD00003EB420815F8011BA1F13003DBB2092B2D
:100CE00008EB8802F4D92A29EED0A8E72B78DBB3E9
:100CF000A3F14402342A00F28581DFE812F0A20158
:100D00008301830183018301A201830183018301A4
:100D1000830183017E0183018301830183018301B8
:100D20004801830183019F018301830183018301C2
:100D3000830183018301830183018301FF00A201F9
:100D400083015B0083018301A2018301830183018D
:100D5000830183017E0183018301830139008301C3
:100D60004801830183019F010B46A946C0E7A946BC
:100D7000DAF800500AF1040A002D00F0A6812B7861
:100D80002946B8F1000F40F0BF81002B00F0CC8164
:100D900047F6FE782B4602E0B8F1010803D413F8B9
:100DA000012F002AF8D15B1AE41A013B0193202796
:100DB000AFE0A9460AF1070A2AF0070ADAE90001BA
:100DC000FBF746FE08EE100AB5EEC08AF1EE10FA07
:100DD0000AF1080A00F16E810AAB0393019318EE41
:100DE000100AFBF711FB08F1FF38B8F1080FCDE945
:100DF000040100F27381C04B53F828502846FBF7DA
:100E0000E1FABE4BCDE90601A3FB0535EB080993DA
:100E10001D46FDEEC87A019BDFF8E0E2CDED087AD1
:100E200003F10B0817EE901A4246AEFB0103DB08F4
:100E300003EB830C1846A1EB4C033033DBB202F812
:100E4000013D01460028F0D10199A8EB02080846AF
:100E5000404401E012F8013F01F8013B8142F9D121
:100E6000019A08982E2308F1FF3842440B70019232
:100E7000FBF7B8FA02460B46DDE90401FBF764F91B
:100E8000DDE90623FBF71CFBFBF7BAFD019B099A82
:100E90009A4903F10D080233002A08BF054608935A
:100EA0004246A1FB00C3DB0803EB830E9C46A0EB8C
:100EB0004E033033A1FB0505DBB2ED0802F8013D1E
:100EC0006046EED1A8EB0208019908F10200014446
:100ED0000846089901E012F8013F01F8013B814200
:100EE000F9D1089B039D43449846A8EB050808F1F7
:100EF000FF33A4EB080401930BE0A94610ADDAF828
:100F0000003005F8183D0023013C0AF1040A019362
:100F10002027002C6ADB029B002B7BD16342002C34
:100F200077D0297832682D29926877D0984601E0E9
:100F300033689A6839463046904718F10108F7D16E
:100F4000019A002A4346A344FFF634AE1C46DDF85E
:100F50000480336815F8011B9B6808F1FF383046A0
:100F60009847B8F1FF3FF4D1019B0BF1010B5B44B3
:100F70009B46002C3FF41EAE2546336839469B68DD
:100F800030469847013DF8D1A34413E6A9464FF0F7
:100F90000A0C5AF8042B0DF1330100E00146B2FBB4
:100FA000FCF50CFB152202F13003392BC8BF02F10E
:100FB0003703DBB201F8013C481E2A46002DEDD173
:100FC0000DF133050AAAA5EB00080392404401E0A5
:100FD00011F8013B02F8013B8142F9D1A4EB08046E
:100FE00008F1FF33002C0193039D94DA019B002B41
:100FF000FFF6E0AD0024AAE7A9464FF0080CC8E7C9
:101000000B46A94610AD013C05F8183D002301939D
:101010007FE71C46019B002B99DAAAE7302F85D188
:10102000304602939047019B3268013B0193029B3B
:1010300092680BF1010B013598467BE74FF0100CDD
:10104000A7E70AF10402DAF800109246002962DBF1
:101050000AAD039505F10B02DFF8A0801046A8FB4E
:1010600001C3DB0803EB830E9C46A1EB4E03303338
:10107000DBB2614600F8013D0029F0D1121A2A4482
:1010800001E010F8013F05F8013BAA42F9D1039DA8
:10109000521B531EA41A01933BE75246192B52F8D8
:1010A000041BA94688BF9246D0D8CCE7A9464FF08A
:1010B000100C6EE72D238DF828300DF129030193D4
:1010C0000AABB1EE488A039389E60D490D46B8F1A3
:1010D000000F3FF45DAE08F1FF385BE69FED047B47
:1010E000084D09958DED067B93E600BFAFF30080B8
:1010F0000000000065CDCD41007B0108CDCCCCCCFB
:10110000F07A010800E1F505002BE4D14FF0FF3340
:1011100001932027FDE62D238DF828300AAB4942A4
:101120000DF12905039395E74FF0FF330193202735
:10113000F1E600BF00000000000000000000000019
:101140000121F8B50846484D484E494C04F0F0FCE2
:101150000121022004F0ECFC0121042004F0E8FC51
:10116000284619224021FEF7EBF84FF48067284605
:1011700019228021FEF7E4F8304639461922FEF79D
:10118000DFF82846778319224FF48051FEF7D8F80C
:1011900020469A224FF48071FEF7D2F820469A2218
:1011A0004FF40071FEF7CCF8394620469A22FEF73C
:1011B000C7F828469A224FF40051FEF7C1F8284696
:1011C0009A224FF48041FEF7BBF828469A224FF44A
:1011D0000041FEF7B5F8304620224FF48051FEF76B
:1011E000AFF8204603220121FEF7AAF82046032289
:1011F0000221FEF7A5F8204603220421FEF7A0F8FD
:10120000204603220821FEF79BF8204603221021E6
:10121000FEF796F8204603222021FEF791F820469B
:1012200003224021FEF78CF8284603220121FEF715
:1012300087F8284603220221FEF782F8304603226F
:101240000121FEF77DF8304603220221FEF778F8EF
:10125000304603220421FEF773F8304603220821AA
:10126000BDE8F840FEF76CB80004024000080240F8
:10127000000002400000000000000000000000002C
:1012800070B5324D324C334E012328461A460021A8
:1012900004F0BEF9284601230222082104F0B8F91F
:1012A000284601230322112104F0B2F90422284622
:1012B0001146012304F0ACF9012320461A461946D1
:1012C00004F0A6F9204601230222092104F0A0F926
:1012D000204601230322062104F09AF92046012327
:1012E0000422052104F094F9012330461A46022114
:1012F00004F08EF9304601230222032104F088F91C
:101300003046012303220C2104F082F930460123E8
:101310000422032104F07CF9012328461A460921FE
:1013200004F0CEF9284601230222082104F0C8F96E
:10133000012320461A46082104F0C2F92046012361
:1013400002220921BDE8704004F0BAB90020014032
:1013500000210140002201400000000000000000C8
:1013600010B50F4C0F48FCF7A3FC23789BB940F253
:101370002E224FF480610C48FDF7E2FF40F22E224E
:101380004FF400610848FDF7DBFF08490548FCF70A
:1013900037FC012323700348BDE81040FCF790BCE4
:1013A00038130020C40F002000040240307B0108E5
:1013B00010B50E4C0E48FCF77BFC237883B100225D
:1013C0004FF480610B48FDF7BBFF00224FF4006132
:1013D0000848FDF7B5FF0648FCF722FC0023237000
:1013E0000348BDE81040FCF76BBC00BF3813002079
:1013F000C40F0020000402400000000000000000B4
:10140000F8B5284B1B7803B9F8BD274D2748FCF7E2
:101410004FFC28462C224FF48061FDF791FF2846AF
:101420002C224FF40061FDF78BFF4FF480664FF4E0
:1014300000632E8301202B83FBF74AFF37461024DD
:1014400001206F83FBF744FF2E830120FBF740FF51
:10145000013CF5D14FF400676F830120FBF738FFA3
:101460006E830120FBF734FF2E830120FBF730FF52
:101470000E4C2F8340F22E224FF480610A48FDF774
:101480005FFF394640F22E220748FDF759FF01233E
:10149000204607492370FCF7B3FB2046BDE8F8401F
:1014A000FCF70EBC3813002000040240C40F0020DB
:1014B000307B010800000000000000000000000078
:1014C00008B54FF4A0720021104806F071F9104AD7
:1014D0004FF47A7302F1A00122F8023F01338A42ED
:1014E0009BB2F9D10B4A4FF4FA6302F1A00122F842
:1014F000023F013391429BB2F9D104F069FAF22024
:1015000004F076FABDE8084002F0CABC3C130020A3
:101510003A130020DA130020000000000000000051
:1015200070B5D422002106F043F90346174C184940
:101530001848194A1C629962184C1949194D586289
:101540001A631948194ADC631966194C194E5D6310
:101550000121194D1C64D865184C1948997283F8FB
:1015600048101A6100219A61DA665A674FF0824288
:10157000D972197359735E611E67DD619D679A6345
:101580005A64DC645C651865986570BD00000243B0
:101590000050C3470050C3C7000096430000644298
:1015A0003333733F0080BB440AD7A33B0000704233
:1015B00000002041000070C2000020C20000A042D4
:1015C0000000C84200000000000000000000000011
:1015D00070B5064682B0451C4FF4FA640AE0BDF8C7
:1015E0000630B4F5026F4FEA132205F8012C05F816
:1015F000023B10D020460DF1060102F019FC013427
:10160000A4B20028EBD03046A022002102B0BDE8F1
:10161000704006F0CDB802B070BD00BF0000000001
:10162000F0B5074683B0451C4FF47A7440F2524639
:1016300009E0BDF80630B4424FEA132205F8012C48
:1016400005F8023B16D020460DF1060102F0F0FB32
:101650000134A4B20028ECD009490A48FFF7A0FAE7
:101660003846FFF75DFF3A7B07490648FFF798FACF
:1016700003B0F0BD02490348FFF792FAF3E700BF59
:10168000487B0108A86C0020407B01080000000096
:10169000234B244A9B69244E244D254C9FED259ACB
:1016A000DFED258A9FED258A80B580279A61B846AF
:1016B00040F6C410A4F81880FBF70AFE6B899FED72
:1016C000200A06EE903AF8EEE66A2B8A88EE267A31
:1016D00007EE903AF8EE677A37EE407A67EE897A4D
:1016E00087EE000A67EEA87AC6ED007A04F058FE8D
:1016F000DFED146ADFED147A9FED147A678380EED4
:10170000260A41F64C50F7EE006A30EE270AC6EE84
:10171000807A77EEC77AC6ED017AFBF7D9FDC7E785
:10172000900C0020907B0108F42100202013002061
:10173000000402406740533A74D195413C361C4C3A
:1017400000401C4600A056450FCF5B3B33938843B7
:10175000F8B5944C944D22680132A5FB02139B0A04
:101760004FF47A5606FB1323A3F5FA61B1F57A7F9D
:101770002DED048B2260C0F0FF80A3F57A72B2F5E4
:101780007A7FC0F0E280B3F5FA5F5AD28749884A7F
:10179000884B0020486210781989DA88864BC00788
:1017A00056D5864C588A1D8AD4ED008ADFED847A9E
:1017B0009FED848A121A491B78EEE78A89B292B2A9
:1017C0005018F4EEC88A4042F1EE10FA1980988061
:1017D0005A8000F1DB80B0EE680AC4ED008A04F0A4
:1017E00097FDB0EE409AB0EE680A05F079F869EE20
:1017F000086AF6EE005A68EE407AE0EE256AE9EEF5
:10180000257A9FED715AB1EE667AB0EE476AA7EE7F
:10181000856AA7EEC57A26EE256A27EE257A00228C
:101820004FF07C53A2626362684BC4ED0B7AC4ED47
:101830000C6AC3ED016A83ED026A83ED037A00F05E
:10184000F7FDBDEC048B6420BDE8F84004F050BD0A
:101850005C8A188A93ED036A9FED5D7AD3ED026A84
:101860001E8B141BA4B227B207EE907A081A80B21E
:10187000F8EEE77A251800B267EE867A06EE100ACF
:1018800037EEA78AF8EEC68A28EE078A68EEA68A9F
:10189000741C504E1C83A8EE878A9C8A188096ED93
:1018A0002E9AD88A5F802144444C9982024469422E
:1018B000B0EE490ADA829980C4ED047A84ED068A92
:1018C000C4ED038AC4ED058A84ED009A04F020FD7E
:1018D000F0EE409AB0EE490A05F002F868EE297A77
:1018E00028EE008AE8EE807AA8EEE98AC4ED087A4C
:1018F00084ED078A00F0ACFCD4ED009A94ED0A8ADE
:1019000094ED099AB0EE690A04F002FDF0EE408A07
