:020000040800F2
:100000000004002001C0000801CA000801CA00085D
:1000100001CA000801CA000801CA000801CA000894
:1000200001CA000801CA000801CA000801D6000878
:1000300001CA000801CA000801CA000851F40008FA
:1000400001CA000801CA000801CA000801CA000864
:1000500001CA000801CA000801CA000801CA000854
:1000600001CA000801CA000801CA000811DF00081F
:1000700041DF000871DF0008A1DF0008D1DF0008C0
:1000800001E0000831E0000801CA0008B1E50008FD
:10009000F1E5000861E60008D1E6000801CA0008A1
:1000A00001CA000801CA000801CA000801CA000804
:1000B00001CA000801CA000871F2000801CA00085C
:1000C00001CA0008F1E90008F1EA000801CA0008C5
:1000D00001CA000801CA000801CA0008A1F400080A
:1000E000010E010801CA000801CA000801CA00087F
:1000F00001CA000801CA000801CA000861E000083E
:1001000001CA000801CA000811F2000801CA00086B
:1001100001CA000801CA000801CA0008E10D01086F
:1001200091E00008C1E00008F1E0000821E10008CA
:1001300051E1000801CA000801CA000801CA00080C
:1001400001CA000801CA000801CA000841F00008FD
:1001500081E10008B1E10008E1E1000801CA0008FE
:1001600001CA000801CA000801CA000801CA000843
:1001700001CA000801CA000801CA000801CA000833
:1001800001CA000801CA000801CA000801CA000823
:1001900001CA000801CA000801CA000801CA000813
:1001A00001CA000801CA000801CA000801CA000803
:1001B00001CA000801CA000801CA000801CA0008F3
:10C0000072B6334880F3098840F20000CCF2000099
:10C010004EF63471CEF200010860BFF34F8FBFF3CC
:10C020006F8F40F20000C0F2F0004EF68851CEF261
:10C0300000010860BFF34F8FBFF36F8F4FF0000018
:10C04000E1EE100A4EF63C71CEF2000108600620C7
:10C0500080F31488BFF36F8F00F0BAFC03F018FB75
:10C060004FF055301B491C4A91423CBF41F8040B2C
:10C07000FAE71A49164A91423CBF41F8040BFAE725
:10C080001749184A184B9A423EBF51F8040B42F820
:10C09000040BF8E700201549154A91423CBF41F8CE
:10C0A000040BFAE700F09CFC124C134DAC4203DA8F
:10C0B00054F8041B8847F9E705F022FD0F4C104D9A
:10C0C000AC4203DA54F8041B8847F9E700F090BC4F
:10C0D00000080020000000200004002000040020D0
:10C0E00088310108000800206C0C0020700C002032
:10C0F000E022002000C0000800C0000800C00008C6
:10C1000000C0000800000000000000000000000067
:10C110002DE9F04F2DED108AC1F80CD0D0F80CD0DD
:10C12000BDEC108ABDE8F08F002383F31188284608
:10C13000A047002000F02CFF00F08AFE00DFFEE7A1
:10C1400081F0004102E000BF83F0004330B54FEAC8
:10C1500041044FEA430594EA050F08BF90EA020F35
:10C160001FBF54EA000C55EA020C7FEA645C7FEAC8
:10C17000655C00F0E2804FEA5454D4EB5555B8BFEB
:10C180006D420CDD2C4480EA020281EA030382EA5C
:10C19000000083EA010180EA020281EA0303362DEE
:10C1A00088BF30BD11F0004F4FEA01314FF4801CC1
:10C1B0004CEA113102D0404261EB410113F0004FD3
:10C1C0004FEA03334CEA133302D0524263EB43038A
:10C1D00094EA050F00F0A780A4F10104D5F1200E28
:10C1E0000DDB02FA0EFC22FA05F2801841F1000183
:10C1F00003FA0EF2801843FA05F359410EE0A5F157
:10C2000020050EF1200E012A03FA0EFC28BF4CF087
:10C21000020C43FA05F3C01851EBE37101F000453D
:10C2200007D54FF0000EDCF1000C7EEB00006EEB4A
:10C230000101B1F5801F1BD3B1F5001F0CD34908D4
:10C240005FEA30004FEA3C0C04F101044FEA44522B
:10C2500012F5800F80F09A80BCF1004F08BF5FEAB2
:10C26000500C50F1000041EB045141EA050130BD92
:10C270005FEA4C0C404141EB010111F4801FA4F135
:10C280000104E9D191F0000F04BF01460020B1FA8A
:10C2900081F308BF2033A3F10B03B3F120020CDAC2
:10C2A0000C3208DD02F1140CC2F10C0201FA0CF0A0
:10C2B00021FA02F10CE002F11402D8BFC2F1200C05
:10C2C00001FA02F120FA0CFCDCBF41EA0C019040BB
:10C2D000E41AA2BF01EB0451294330BD6FEA040404
:10C2E0001F3C1CDA0C340EDC04F11404C4F12002EF
:10C2F00020FA04F001FA02F340EA030021FA04F301
:10C3000045EA030130BDC4F10C04C4F1200220FA57
:10C3100002F001FA04F340EA0300294630BD21FA95
:10C3200004F0294630BD94F0000F83F4801306BF5B
:10C3300081F480110134013D4EE77FEA645C18BF4F
:10C340007FEA655C29D094EA050F08BF90EA020FE6
:10C3500005D054EA000C04BF1946104630BD91EADE
:10C36000030F1EBF0021002030BD5FEA545C05D1E1
:10C370004000494128BF41F0004130BD14F5800420
:10C380003CBF01F5801130BD01F0004545F0FE4194
:10C3900041F470014FF0000030BD7FEA645C1ABFC9
:10C3A000194610467FEA655C1CBF0B46024650EA00
:10C3B000013406BF52EA033591EA030F41F400212C
:10C3C00030BD00BF90F0000F04BF0021704730B5B2
:10C3D0004FF4806404F132044FF000054FF0000187
:10C3E00050E700BF90F0000F04BF0021704730B548
:10C3F0004FF4806404F1320410F0004548BF40421D
:10C400004FF000013EE700BF42004FEAE2014FEA71
:10C4100031014FEA02701FBF12F07F4393F07F4F4C
:10C4200081F06051704792F0000F14BF93F07F4F7E
:10C43000704730B54FF4607401F0004521F00041C1
:10C4400020E700BF50EA010208BF704730B54FF047
:10C4500000050AE050EA010208BF704730B511F04C
:10C46000004502D5404261EB41014FF4806404F184
:10C4700032045FEA915C3FF4DCAE4FF003025FEA06
:10C48000DC0C18BF03325FEADC0C18BF033202EB8E
:10C49000DC02C2F1200300FA03FC20FA02F001FAE8
:10C4A00003FE40EA0E0021FA02F11444C1E600BF87
:10C4B00070B54FF0FF0C4CF4E06C1CEA11541DBF3A
:10C4C0001CEA135594EA0C0F95EA0C0F00F0DEF805
:10C4D0002C4481EA030621EA4C5123EA4C5350EAEA
:10C4E000013518BF52EA033541F4801143F480133B
:10C4F00038D0A0FB02CE4FF00005E1FB02E506F0CC
:10C500000042E0FB03E54FF00006E1FB03569CF020
:10C51000000F18BF4EF0010EA4F1FF04B6F5007F26
:10C5200064F5407404D25FEA4E0E6D4146EB060698
:10C5300042EAC62141EA55514FEAC52040EA5E5021
:10C540004FEACE2EB4F1FD0C88BFBCF5E06F1ED8CB
:10C55000BEF1004F08BF5FEA500E50F1000041EB02
:10C56000045170BD06F0004646EA010140EA0200AF
:10C5700081EA0301B4EB5C04C2BFD4EB0C0541EAD1
:10C58000045170BD41F480114FF0000E013C00F3E6
:10C59000AB8014F1360FDEBF002001F0004170BD0A
:10C5A000C4F10004203C35DA0C341BDC04F1140423
:10C5B000C4F1200500FA05F320FA04F001FA05F2AF
:10C5C00040EA020001F0004221F0004110EBD3707C
:10C5D00021FA04F642EB06015EEA430E08BF20EAA8
:10C5E000D37070BDC4F10C04C4F1200500FA04F34B
:10C5F00020FA05F001FA04F240EA020001F00041DD
:10C6000010EBD37041F100015EEA430E08BF20EA4F
:10C61000D37070BDC4F1200500FA05F24EEA020E97
:10C6200020FA04F301FA05F243EA020321FA04F0C6
:10C6300001F0004121FA04F220EA020000EBD3707D
:10C640005EEA430E08BF20EAD37070BD94F0000F7D
:10C650000FD101F00046400041EB010111F4801FB1
:10C6600008BF013CF7D041EA060195F0000F18BF62
:10C67000704703F00046520043EB030313F4801F9E
:10C6800008BF013DF7D043EA0603704794EA0C0F58
:10C690000CEA135518BF95EA0C0F0CD050EA41066E
:10C6A00018BF52EA4306D1D181EA030101F00041EB
:10C6B0004FF0000070BD50EA410606BF1046194613
:10C6C00052EA430619D094EA0C0F02D150EA01361F
:10C6D00013D195EA0C0F05D152EA03361CBF104660
:10C6E00019460AD181EA030101F0004141F0FE41FF
:10C6F00041F470014FF0000070BD41F0FE4141F483
:10C70000780170BD70B54FF0FF0C4CF4E06C1CEA82
:10C7100011541DBF1CEA135594EA0C0F95EA0C0F37
:10C7200000F0A7F8A4EB050481EA030E52EA0335F2
:10C730004FEA013100F088804FEA03334FF0805513
:10C7400045EA131343EA12634FEA022245EA111540
:10C7500045EA10654FEA00260EF000419D4208BFF1
:10C76000964244F1FD0404F5407402D25B084FEA9E
:10C770003202B61A65EB03055B084FEA32024FF44A
:10C7800080104FF4002CB6EB020E75EB030E22BFA7
:10C79000B61A754640EA0C005B084FEA3202B6EB67
:10C7A000020E75EB030E22BFB61A754640EA5C0016
:10C7B0005B084FEA3202B6EB020E75EB030E22BFA6
:10C7C000B61A754640EA9C005B084FEA3202B6EBA7
:10C7D000020E75EB030E22BFB61A754640EADC0066
:10C7E00055EA060E18D04FEA051545EA16754FEAC8
:10C7F00006164FEAC30343EA52734FEAC2025FEAE6
:10C800001C1CC0D111F4801F0BD141EA00014FF074
:10C8100000004FF0004CB6E711F4801F04BF014345
:10C820000020B4F1FD0C88BFBCF5E06F3FF6AFAE61
:10C83000B5EB030C04BFB6EB020C5FEA500C50F1F1
:10C84000000041EB045170BD0EF0004E4EEA113174
:10C8500014EB5C04C2BFD4EB0C0541EA045170BD7B
:10C8600041F480114FF0000E013C90E645EA060EBF
:10C870008DE60CEA135594EA0C0F08BF95EA0C0FED
:10C880003FF43BAF94EA0C0F0AD150EA01347FF435
:10C8900034AF95EA0C0F7FF425AF104619462CE70C
:10C8A00095EA0C0F06D152EA03353FF4FDAE10466F
:10C8B000194622E750EA410618BF52EA43067FF4C0
:10C8C000C5AE50EA41047FF40DAF52EA43057FF450
:10C8D000EBAE12E7000000000000000000000000C6
:10C8E0004FEA410212F5001215D211D56FF4787398
:10C8F000B3EB625212D94FEAC12343F0004343EA3B
:10C90000505311F0004F23FA02F018BF4042704715
:10C910004FF00000704750EA013005D111F000409F
:10C9200008BF6FF0004070474FF00000704700BF35
:10C930004FEA4102B2F1E04324BFB3F5001CDCF141
:10C94000FE5C0DD901F0004C4FEAC0024CEA507079
:10C95000B2F1004F40EB830008BF20F001007047A8
:10C9600011F0804F21D113F13872BCBF01F00040AB
:10C97000704741F480114FEA5252C2F11802C2F1DD
:10C98000200C10FA0CF320FA02F018BF40F001005E
:10C990004FEAC1234FEAD32303FA0CFC40EA0C0010
:10C9A00023FA02F34FEA4303CCE77FEA625307D14D
:10C9B00050EA01331EBF4FF0FE4040F44000704784
:10C9C00001F0004040F0FE4040F40000704700BF1E
:10C9D000704700BF000000000000000000000000E1
:10C9E000704700BF000000000000000000000000D1
:10C9F000FEE700BF00000000000000000000000093
:10CA0000FEE700BF00000000000000000000000082
:10CA1000FEE700BF00000000000000000000000072
:10CA2000204B214A2148F0B500249C60DF68204E4D
:10CA3000204D4FF6FF0139400A43DA60F26842F0B8
:10CA40008072F2600268202142F00102102602602A
:10CA500083B0DE7783F8221000F0FAF800F078F85F
:10CA600000F01EFB00F084FD00F0BAFD28464021D6
:10CA700000F0FEF9A5F1300301229861027784F3FA
:10CA8000118862B69B690C49996105F150000094C8
:10CA90000A4B4FF4EC7100F013FA094B836103B0B9
:10CAA000F0BD00BF00ED00E00003FA05001000E05B
:10CAB000F0ED00E0A00C0020302A010811CA0008A7
:10CAC000202A010800000000000000000000000013
:10CAD000F8B5134DAA69D37F0BB1013BD377116A27
:10CAE000EB69104E01311162AA6AB34202F10102F0
:10CAF000AA6213D09C68013C9C607CB920271A680C
:10CB0000D968DC605660EA6184F311881869884747
:10CB100087F31188EB699A68002AF0D0F8BD00BF4E
:10CB2000700C00208C0C00200000000000000000B1
:10CB3000034A516853685B1A8342FBD3704700BFB6
:10CB4000001000E0000000000000000000000000F5
:10CB5000054B4FF0FF3003F11C020021586299622F
:10CB6000DA611A62704700BF700C002000000000FC
:10CB700070B40D4EF469A5680361A942C26004D97E
:10CB80002468491BA5688D42FAD36368436004603A
:10CB9000186060608160A3684FF0FF32591AA1608D
:10CBA000726270BC704700BF700C00200000000073
:10CBB00003688268416830B49D68064C2A449A60D4
:10CBC0000B60056800224FF0FF336960C26063624A
:10CBD00030BC7047700C0020000000000000000016
:10CBE00010B4202383F31188037F072B0ED8DFE8CE
:10CBF00003F0270D0D2308040D08426A93680133E2
:10CC0000936090E80C001A60026853604FF0FF34A4
:10CC1000002281680D4B446202771B689A688A4241
:10CC2000FBD25A684260036000211060586081F3B3
:10CC300011885DF8044B7047436A00221A60E5E7EB
:10CC4000002383F311885DF8044B7047700C0020BB
:10CC5000034B00221B605B601B615B619A60704745
:10CC6000700C002000000000000000000000000028
:10CC700000228168084B10B4044602771B689A684A
:10CC80008A42FBD25A6862602360204614605C606E
:10CC90005DF8044B704700BF700C002000000000DE
:10CCA000084B99691A6810B408770420C87710688F
:10CCB000186001244360147710465DF8044B9A61B4
:10CCC000FFF726BA700C00200000000000000000F2
:10CCD00030B54B1C87B012D00C4C0D4AA3690546E9
:10CCE00001A8FFF745FF2846FFF7DAFF049B13B1C1
:10CCF00001A8FFF75DFFA369586A07B030BD034C78
:10CD0000FFF7CEFFA369586A07B030BD700C002052
:10CD1000E1CB00080000000000000000000000005F
:10CD2000144B70B404469D694162A868A1688142B1
:10CD30004FF000020BD822771B689A689142FBD90A
:10CD40005A686260236014605C6070BC70472A7728
:10CD50001A46126891688842FBD9506868600126BB
:10CD60002A60056055602677294620469C6170BC84
:10CD7000FFF7CEB9700C002000000000000000009A
:10CD8000084B9A691B68D17F9B68906821B98342E0
:10CD900034BF002001207047834294BF002001204F
:10CDA000704700BF700C0020000000000000000071
:10CDB0000E4A1068036870B4012194695A60042611
:10CDC00001770025A16813609061E677257700E080
:10CDD0001B689A688A42FBD25A68626023602146C7
:10CDE00014605C6070BCFFF793B900BF700C00204A
:10CDF0000D4A1068036830B4012194695A60002517
:10CE00000177A16813609061257700E01B689A683C
:10CE10008A42FBD85A6862602360214614605C60D5
:10CE200030BCFFF775B900BF700C00200000000097
:10CE3000044B1A689B6992689B689A4200D87047B5
:10CE4000FFF7D6BF700C00200000000000000000BB
:10CE5000034B9B69DB7F0BB1FFF7CABFFFF7A8BF8E
:10CE6000700C002000000000000000000000000026
:10CE7000F0B50F4C016465698160022600220677D7
:10CE800000F12C014FF0040E012700F12806456146
:10CE9000046180F81FE087774277C2638263026291
:10CEA0008261286160618662C1620163F0BD00BF7A
:10CEB000700C0020000000000000000000000000D6
:10CEC000F8B51D460446202383F3118864390144D4
:10CED000134E144B7769C1600D64069D4D640B665B
:10CEE00002250423826002640577C377002500F1E0
:10CEF0002C0300F128020121817706614761457703
:10CF0000C563856305628561294638618262C362B3
:10CF100003637061FFF704FF85F311882046F8BDB5
:10CF2000700C002029C10008000000000000000073
:10CF300008B50146202383F311880820FFF7C8FEB7
:10CF4000002383F3118808BD0000000000000000EA
:10CF500038B50E4B9C69A36A606204F128059D42B6
:10CF600007D01A68A2621846FFF782FEA36AAB4296
:10CF7000F7D1637F9B0704D1636922691A61226933
:10CF800053610F20BDE83840FFF78ABE700C0020C7
:10CF9000202383F31188FFF7DBBF00BF00000000F0
:10CFA00003682BB10022026018465962FFF760BE89
:10CFB000704700BF000000000000000000000000FB
:10CFC00069B1084B10B4024644689B69042083E8A9
:10CFD0001400236053605DF8044BFFF779BE4FF0F7
:10CFE000FF307047700C00200000000000000000BF
:10CFF000026890420AD010B414680460034663606B
:10D00000516210465DF8044BFFF732BE704700BF17
:10D0100038B5036898420BD004460D461A68226062
:10D02000184654605D62FFF723FE23689C42F5D1E9
:10D0300038BD00BF0000000000000000000000003C
:10D04000014B5B6883607047001000E00000000047
:10D050000F4B10495A688368F0B48F6FC6684168F7
:10D06000D0E90445D31ADB1BE41845F1000501366D
:10D070008B42C6608360C0E9044505D802689342CC
:10D0800038BF0360F0BC70474360F0BC704700BF1E
:10D09000001000E0700C0020000000000000000004
:10D0A000D0B50C4C86B000234FF0FF326846002606
:10D0B0000027A3670193029303930092CDE90467CD
:10D0C000FFF7BEFF6846FFF7C3FF029BA36706B0EA
:10D0D000D0BD00BF700C0020000000000000000068
:10D0E0000023006040608360704700BF00000000C4
:10D0F000304B826870B59C69002A55D0A16893684E
:10D100008B42054606D2137F9160062B33D0072B46
:10D110001DD09BB12B4603E09968A268914202D3CF
:10D120001B689D42F8D15A686260236014605C609D
:10D1300065620620BDE87040FFF7B2BD92E80A00C4
:10D140001960116810464B60FFF792FDE2E792E824
:10D150000900186010684360566A334602E0986818
:10D16000884202D31B689E42F9D15968516013600E
:10D170000A605A60CEE792E80900186010684360C0
:10D18000566A334602E09868884202D31B689E4282
:10D19000F9D15968516013600A605A60B268A16899
:10D1A00093688B42AFD3B5E7E36BC3608460E06301
:10D1B00070BD00BF700C00200000000000000000E7
:10D1C00008B5202383F31188FFF792FF002383F330
:10D1D000118808BD000000000000000000000000F1
:10D1E000174B70B59D69202383F311880468C368C9
:10D1F000EB6384421DD0296C4BB11A68934203D073
:10D200009268914238BF1146DB68002BF5D1034686
:10D210002268E66BA96020461A6053609C60DE605D
:10D22000E363FFF725FDFFF703FE002383F3118877
:10D2300070BD0023A360002383F3118870BD00BF7D
:10D24000700C002000000000000000000000000042
:10D25000836B027F19430A2A816309D00B2A00D00D
:10D260007047436A8B43FBD100234362FFF700BD45
:10D27000436A1942F8D17047000000000000000026
:10D2800070B50468A0420FD006460D46E3682B43F4
:10D29000E36015B12269134203D0A1686068FFF70B
:10D2A000D7FF2468A642F1D170BD00BF0000000086
:10D2B00038B50C4B9D69202383F31188AB6B13EABF
:10D2C000000406D1044668620A20FFF7E9FCAB6B54
:10D2D0001C4023EA0403AB63002383F31188204638
:10D2E00038BD00BF700C00200000000000000000EE
:10D2F00030B4029C046200250A448560026100602B
:10D300004060C16081614161C36130BC704700BF52
:10D3100043698269934210B510D082685C1C013267
:10D32000826044611970426903699A4201D3C368FB
:10D3300043610021FFF75CFE002010BD8268002AD7
:10D34000EBD06FF0030010BD0000000000000000F3
:10D3500070B520230E46044683F31188C3692BB1B0
:10D36000984703E0FFF72CFE002815DBA56831463F
:10D370002046002DF6D0A169A36825694A1C013B0F
:10D38000AA42A360A26128BFE368087828BFA3610E
:10D39000002383F3118870BD85F3118870BD00BF31
:10D3A0002DE9F04F044683B0894693461D46D0F8D8
:10D3B0001C80202787F3118800260197B246B8F118
:10D3C000000F05D02046C04702E0FFF7F9FDE0B9A5
:10D3D000A76829462046002FF7D0A269A368511CF0
:10D3E000013BA161A360137809F8013B2369A2699D
:10D3F0009A4224BFE368A3618AF311880136B345DA
:10D4000005D0019B83F31188D9E787F31188304653
:10D4100003B0BDE8F08F00BF000000000000000076
:10D4200030B4029C04628D18056100604060826027
:10D43000C16081614161C36130BC70470000000080
:10D44000F8B504460F461646202383F3118803E0FF
:10D45000FFF7B6FD002819DBA56831462046002DF0
:10D46000F6D06269A368511C013B6161A36017702B
:10D47000236962699A4224BFE3686361E3690BB17F
:10D4800020469847002080F31188F8BD85F3118865
:10D49000F8BD00BF00000000000000000000000018
:10D4A00038B5426983699A420FD082680569591C70
:10D4B000013282608161A9421C7801D3C368836113
:10D4C0000021FFF795FD204638BD8268002AECD088
:10D4D0006FF0020038BD00BF000000000000000037
:10D4E0002DE9F04F83B004460D4616460193D0F85F
:10D4F0001C804FF0200989F311880027BA46A368E1
:10D5000005F1010B204603B36169A3684A1C013B86
:10D510006261A3602B780B7023696169994224BF13
:10D52000E3686361B8F1000F00D0C0478AF3118847
:10D53000013E07F1010712D089F31188A3685D4607
:10D5400005F1010B2046002BDED101990093204606
:10D55000FFF736FD009B0028D1D083F311883846B1
:10D5600003B0BDE8F08F00BF000000000000000025
:10D57000054A064B0648074922F0070223F0070335
:10D5800002600B60704700BFE7220020000002200D
:10D59000CC0E0020C80E002000000000000000009B
:10D5A00010B4202383F31188094C0A4B22681968B0
:10D5B000C31D23F00703891A8B429DBF9B1823606C
:10D5C00010460020002383F311885DF8044B704758
:10D5D000CC0E0020C80E002000000000000000005B
:10D5E000044B054A1A6003F1100000229A60DA60C9
:10D5F000FFF776BDD00E0020A1D500080000000086
:10D60000064A536823F001035360EFF3098368333C
:10D6100083F30988002383F31188704730EF00E01B
:10D62000202383F31188124B5B6813F4006302D14B
:10D6300083F31188704710B5F1EE103AEFF30984C7
:10D640000C4B4FF08072DB6844F8083C44F84C2CDB
:10D65000A4F1680383F30988FFF792FB18B1064B26
:10D6600044F8503C10BD054B44F8503C10BD00BF81
:10D6700000ED00E030EF00E039C100083CC10008D7
:10D6800008B500F065FE0A4801F07AF800F018F8D5
:10D6900000F03EF800F04CF800F07AF800F0F8F8EE
:10D6A00000F05EF901F0FCFFBDE8084000F050B961
:10D6B000B02B010800000000000000000000000086
:10D6C00001F046B80000000000000000000000006B
:10D6D000F0B40122002300F1180700F11C0600F14C
:10D6E000200500F1240400F128010270436000F1DC
:10D6F000080200F110038761C6610562446281621D
:10D700008260C26003614361F0BC704700000000AA
:10D7100001F09EBD000000000000000000000000BD
:10D720000122002302704360704700BF0000000028
:10D7300001F04EBA000000000000000000000000F0
:10D7400001220023027043600C30FFF7C9BC00BF08
:10D7500010B52023044683F3118801F051FA012308
:10D760002370002383F3118810BD00BF0000000068
:10D770000C30FFF725BD00BF0000000000000000D6
:10D780000C30FFF72DBD00BF0000000000000000BE
:10D7900001F0BEBD0000000000000000000000001D
:10D7A0000122002302704360704700BF00000000A8
:10D7B00010B52023044683F31188416001F0B8FDC1
:10D7C00002232370002383F3118810BD00000000A2
:10D7D00010B52023044683F3118801F009FE0323CA
:10D7E0002370002383F3118810BD00BF00000000E8
:10D7F00008B5202383F3118801F00AFE002383F388
:10D80000118808BD000000000000000000000000BA
:10D810000C30FFF7C5BD00BF000000000000000095
:10D820000C304FF0FF33FFF7BBBD00BF000000001E
:10D830003030FFF755BE00BF0000000000000000C0
:10D8400030304FF0FF33FFF74BBE00BF0000000049
:10D850000C30FFF77DBD00BF00000000000000009D
:10D860000C304FF0FF31FFF773BD00BF0000000028
:10D870003030FFF7E5BD00BF0000000000000000F1
:10D8800030304FF0FF32FFF7DBBD00BF000000007B
:10D8900001F096BE00000000000000000000000043
:10D8A00070B50F4B044682B040F8043B012600944B
:10D8B00015460B46606004F1540104F10C00267219
:10D8C0004FF48072FFF714FD00942B4604F5AA7103
:10D8D00004F130004FF48072FFF7A2FD02B070BD7A
:10D8E000502A0108000000000000000000000000B5
:10D8F00010B52023044683F3118801F079FE02233A
:10D900002372002383F3118810BD00BF00000000C4
:10D9100038B5436904460D463BB1294604F10C0075
:10D92000FFF7F6FC00280BDB38BD04210844FFF7A5
:10D93000A7FC294604F10C00FFF7EAFC0028F3DA03
:10D94000201D8021BDE83840FFF79ABC0000000090
:10D9500001F08EBD0000000000000000000000008B
:10D9600001F096B900000000000000000000000077
:10D970000023012202704360C36183620362C362B9
:10D980004362036303814381704700BF00000000CE
:10D99000002202210170A0F84C2080F84E2080F86F
:10D9A0004F2002814281C26002614261826180F83F
:10D9B000342001F085B900BF000000000000000025
:10D9C000F8B50023044680F8343000F1440201F039
:10D9D0000FFA63689B68002B36D0204698470028D2
:10D9E00032D0E06B94F8443094F84B1094F84A200D
:10D9F00042EA012282423CBFE26310461A0600F16D
:10DA0000AB80002800F08B80E368A56B9B69002247
:10DA1000042184F834101146DD6058601A709A6051
:10DA2000204601F0F5F9202383F31188638913F070
:10DA3000010105D143F001036381204601F080FB21
:10DA4000002383F31188F8BD94F8443013F0600785
:10DA50001E4611D00021204601F0AAFB00212046DD
:10DA600001F096FB63681B6813B1052120469847B7
:10DA7000062384F83430F8BD94F8450003F07F02A3
:10DA800042EA0025B5F5407F00F0EB8016D9B5F5E8
:10DA9000C06F00F0CE802FD9B5F5106F76D040F66C
:10DAA0000242954200F0EF80B5F5006FD2D104F14B
:10DAB0004F0201202764A263E06395E7022D00F086
:10DAC000A28040F29780B5F5807F00F08480B5F5A4
:10DAD000817FBFD194F84630002BBBD194F84830F9
:10DAE00013F00F0115D01E06204600F1F48001F05E
:10DAF0006FFB94F844600CE040F202339D4257D033
:10DB0000B5F5A06FA6D1B4F84430B3F5A06F00F01E
:10DB1000D0800023A363E363236433062AD4E3683D
:10DB20005A690521002384F8341019461370D36014
:10DB300053609360204601F0EBF9202383F31188B2
:10DB4000238913F001017FF47BAF43F001032381AC
:10DB5000204601F005FB73E760B1E368A56B5B69E4
:10DB60000022012184F834101146DD6058601A70DB
:10DB70009A60DFE7E3689A690321002384F8341090
:10DB800019461370D3605360936049E794F84630A8
:10DB900084F84F30002B7DD10323237063681B680A
:10DBA000002BB6D002212046984794F84460B0E795
:10DBB00094F84630002B7FF44DAF94F8483013F0C2
:10DBC0000F01A6D01D06204600F18A8001F0E0FA80
:10DBD00094F844609DE794F84630012B7FF43AAF07
:10DBE000B4F84C30A76323F00203E7632764A4F87A
:10DBF0004C3092E7002D43D104F14C020220256401
:10DC0000A263E063F0E694F8481011F0800F20461C
:10DC100001F00F0141D101F0CBF8012841D00228D9
:10DC20007FF418AF314BA363E063276494F844306A
:10DC3000DAE694F84900616894F848304D6894F841
:10DC4000462094F8471043EA00232046A8470028BE
:10DC50003FF400AF09C82764A363E06394F844303D
:10DC6000C2E694F84630012B7FF4F4AEB4F84C30A1
:10DC7000A76343F00203E7632764A4F84C304CE742
:10DC8000012D7FF4E7AE1A4AA26302200022E0636E
:10DC90002264A9E60423237080E701F099F80128A3
:10DCA000BDD1144BA363E5632764284694F8443040
:10DCB0009AE694F8463084F84E30204601F068F831
:10DCC00063681B6813B1012120469847032394F829
:10DCD000446023701DE701F08BFA94F8446018E764
:10DCE00001F066FA94F8446013E700BF802A010847
:10DCF000702A0108902A01080000000000000000BE
:10DD000090F8343010B50446062B15D8DFE803F040
:10DD1000043B1C0404150400002101F049FA002111
:10DD2000204601F035FA63681B6813B105212046CF
:10DD30009847062384F8343010BD036C03B198472C
:10DD4000002384F8343010BDC3689A69032100238E
:10DD500084F83410204619461370D36053609360E2
:10DD600001F056F8202383F31188638913F0010131
:10DD700005D143F001036381204601F0E1F900235E
:10DD800083F3118810BD90F84B1090F84A30C26BA5
:10DD900043EA01239342C368D7D9188AB2FBF0F152
:10DDA00000FB1122002AD0D15B6911461A70DA609B
:10DDB0005A609A60204601F0ABF8202383F3118863
:10DDC000238913F0010105D143F00103238120468B
:10DDD00001F0C6F9002383F31188022384F834305C
:10DDE00010BD00BF000000000000000000000000A7
:10DDF00090F83420062A0CD80123934013F0670FC3
:10DE000010B5044612D113F0080203D1DB061ED46C
:10DE100010BD7047C3689B699B68002BF8D1036CE9
:10DE200003B19847002384F8343010BD002101F07D
:10DE3000BFF90021204601F0ABF963681B6813B1FC
:10DE4000052120469847062384F8343010BDC36866
:10DE50005B69052180F834101A70DA605A609A60A4
:10DE6000114601F055F8202383F31188238913F01C
:10DE7000010103D0002383F3118810BD43F0010397
:10DE80002381204601F06CF9F4E700BF0000000098
:10DE900043099B0010B403F1604300F1604404F5B2
:10DEA000614403F56143090100F01F00012202FAF9
:10DEB00000F0C9B284F80013C3F8800118605DF85F
:10DEC000044B70470000000000000000000000004C
:10DED0000849430910B4203300F01F04012208440C
:10DEE000A240002441F8232080F800435DF8044B51
:10DEF000704700BF00E100E00000000000000000EB
:10DF000000F1604000F56D400901C9B2017670472B
:10DF100008B5074B074A196801F03D01996013687D
:10DF20000BB150689847BDE80840FFF779BB00BFC8
:10DF300000600240F00E0020000000000000000021
:10DF4000084B094819688268890901F03D0110B53C
:10DF50008C019C600AB1C0689047BDE81040FFF793
:10DF60005FBB00BF00600240F00E00200000000018
:10DF7000084B094819680269090C01F03D0110B508
:10DF80000C049C600AB140699047BDE81040FFF75F
:10DF900047BB00BF00600240F00E00200000000000
:10DFA000084B094819688269890D01F03D0110B5D7
:10DFB0008C059C600AB1C0699047BDE81040FFF72E
:10DFC0002FBB00BF00600240F00E002000000000E8
:10DFD00008B5074B07485968026A01F03D01D9604E
:10DFE0000AB1406A9047BDE80840FFF719BB00BF7F
:10DFF00000600240F00E0020000000000000000061
:10E00000084B09485968826A890901F03D0110B539
:10E010008C01DC600AB1C06A9047BDE81040FFF790
:10E02000FFBA00BF00600240F00E002000000000B8
:10E03000084B09485968026B090C01F03D0110B505
:10E040000C04DC600AB1406B9047BDE81040FFF75C
:10E05000E7BA00BF00600240F00E002000000000A0
:10E06000084B09485968826B890D01F03D0110B5D4
:10E070008C05DC600AB1C06B9047BDE81040FFF72B
:10E08000CFBA00BF00600240F00E00200000000088
:10E0900008B5074B07481968026C01F03D0199600B
:10E0A0000AB1406C9047BDE80840FFF7B9BA00BF1D
:10E0B00000640240F00E002000000000000000009C
:10E0C000084B09481968826C890901F03D0110B5B7
:10E0D0008C019C600AB1C06C9047BDE81040FFF70E
:10E0E0009FBA00BF00640240F00E00200000000054
:10E0F000084B09481968026D090C01F03D0110B583
:10E100000C049C600AB1406D9047BDE81040FFF7D9
:10E1100087BA00BF00640240F00E0020000000003B
:10E12000084B09481968826D890D01F03D0110B551
:10E130008C059C600AB1C06D9047BDE81040FFF7A8
:10E140006FBA00BF00640240F00E00200000000023
:10E1500008B5074B07485968026E01F03D01D960C8
:10E160000AB1406E9047BDE80840FFF759BA00BFBA
:10E1700000640240F00E00200000000000000000DB
:10E18000084B09485968826E890901F03D0110B5B4
:10E190008C01DC600AB1C06E9047BDE81040FFF70B
:10E1A0003FBA00BF00640240F00E002000000000F3
:10E1B000084B09485968026F090C01F03D0110B580
:10E1C0000C04DC600AB1406F9047BDE81040FFF7D7
:10E1D00027BA00BF00640240F00E002000000000DB
:10E1E000084B09485968826F890D01F03D0110B54F
:10E1F0008C05DC600AB1C06F9047BDE81040FFF7A6
:10E200000FBA00BF00640240F00E002000000000C2
:10E210000E490F4A0F48002310B40B600E4C1946EC
:10E2200001E052F80C0C016044F833100133102B5C
:10E2300002F10C02F5D10949094A5DF8044B4FF08F
:10E24000FF338B60CB609360D3607047700F00200A
:10E25000AC2A010810600240F00E0020006002406D
:10E260000064024000000000000000000000000008
:10E27000F8B51F4F467A3D68012404FA06FE1EEAEF
:10E28000050F31D11B4C4EEA050504EBC60E15F007
:10E29000FF0F3D6044F83620CEF8043004D0164C11
:10E2A000236B43F40013236315F47F4F16D10568E5
:10E2B0002B6823F01F032B602B6813F00104FBD1A4
:10E2C000077A46683D23BB40212733602C606F618D
:10E2D00062B1807AFFF7DCFD2046F8BD064C236B67
:10E2E00043F480032363E2E72046F8BD1046F8BDFF
:10E2F000700F0020F00E00200038024000000000E7
:10E3000010B50446807AFFF7E3FD0C49607A0A688D
:10E310000123834022EA030313F0FF0F0B6004D1B3
:10E3200007490A6B22F400120A6313F47F4F04D1E9
:10E33000034A136B23F48003136310BD700F002096
:10E340000038024000000000000000000000000053
:10E35000174B4FF0FF311A69002210B419611A618E
:10E36000586959615A61186A124C60F080501862FD
:10E370001A62586A59625A62196C41F080511964E4
:10E38000216841F480712160196F01F44071B1F589
:10E39000007F03D04FF4803119671A67054A5DF892
:10E3A000044B536823F400735360FFF731BF00BF81
:10E3B0000038024000700040000000000000000033
:10E3C0002C492D4B4FF080504FF4404208641A60A6
:10E3D0000B6843F001030B600A68264B9007FBD5DE
:10E3E0009A6822F003029A609A689A6019468B68CC
:10E3F000204A13F00C03FAD1116801F0F901116001
:10E400009360136843F4803313601168194B8903D8
:10E41000FBD55A6F42F001025A675A6F15499007AF
:10E42000FBD5164B4B600B68134A43F080730B60AF
:10E4300053685904FCD50F490A680E4B9201FBD56D
:10E440000F4A1049996040F2057111609A6842F0D4
:10E4500002029A601A469368064903F00C03082BDF
:10E46000F9D14B6C43F480434B644B6E43F48043CF
:10E470004B66704700380240007000400854400767
:10E48000003C02400094083800000000000000003A
:10E49000F0B5434C434D236C43F000732364D5F82F
:10E4A00000321B0C1B0443F0010343EA0023C5F8B0
:10E4B000003200295AD00023C5F81C321846C5F88E
:10E4C00004321C46C5F80C32C5F81432C30003F1FF
:10E4D000804303F5C84301301C28C3F84042C3F809
:10E4E0004442F3D12F4D0026012710681479C30050
:10E4F00003F1804314F0010F03F5C84306F1010650
:10E5000007FA00F005D0D5F804E240EA0E0EC5F88F
:10E5100004E214F0020F05D0D5F80CE240EA0E0E2A
:10E52000C5F80CE2640704D5D5F814420443C5F8D5
:10E5300014429468C3F84042D468C3F84442D5F802
:10E540001C32B14240EA030002F11002C5F81C027D
:10E55000CBD11449124AD1F8003223F00103C1F89B
:10E560000032136C23F000731364F0BDC20002F19B
:10E570008042012302F5C842834043F00103C5F8FD
:10E580004012C5F84412C2F84012C2F84412C5F84D
:10E590000412C5F81412C5F80C32C5F81C32D8E7BD
:10E5A000003802400064004000000000000000004D
:10E5B00010B50C4C0C49E26A2023916083F311885A
:10E5C000002104F10800FEF723FD04F11C000121E5
:10E5D000FEF756FE002383F31188BDE81040FFF7D5
:10E5E0001FB800BF740F00200101010000000000EF
:10E5F00038B5164DEB6ADC68A20711D1E3060BD5DE
:10E60000EB6A1021D960202383F311881048FEF7AC
:10E6100037FE002383F31188BDE83840FFF700B8C8
:10E620005A6922F002025A61202383F311880021E3
:10E6300005F11000FEF7ECFC05F118000121FEF7D2
:10E640001FFE002383F31188D8E700BF740F00205A
:10E65000940F0020000000000000000000000000F7
:10E6600038B5164DEB6A1C69A20711D1E3060BD52C
:10E67000EB6A10211961202383F311881048FEF7FB
:10E68000FFFD002383F31188BDE83840FEF7C8BFC3
:10E690005A6922F010025A61202383F31188002165
:10E6A00005F11000FEF7B4FC05F118000221FEF799
:10E6B000E7FD002383F31188D8E700BF740F002023
:10E6C000940F002000000000000000000000000087
:10E6D00038B51B4DEB6A5C681C225A6022071DD4BA
:10E6E000630717D5EA6A9369916921F07001916116
:10E6F00013F0700F03F0070118BF41F0080120224A
:10E7000082F311880F4841EA0341FEF7B9FD002367
:10E7100083F31188BDE83840FEF782BF1A682846A7
:10E7200022F00202032100F8281B20211A6081F345
:10E7300011880021FEF7A4FD002383F31188CFE7A1
:10E74000740F0020940F0020000000000000000063
:10E7500010B5064C2046FEF7BBFF0022044BE362D7
:10E7600011460E20BDE81040FFF792BE740F002046
:10E7700000640040000000000000000000000000F5
:10E78000F0B4654D654C2F6B6549664A664B40F2A7
:10E79000FF1637432F632F6D3E432E654568656036
:10E7A0008568A560C568E56005696561456925629C
:10E7B0008569656205682560046A4C60446A8C60FE
:10E7C000846ACC60C46A4C61046B0C62446B4C621A
:10E7D000C4690C60C16B5160016C9160416CD16087
:10E7E000816C5161C16C1162016D5162816B11606C
:10E7F000826D5A60C26D9A60026EDA60426E5A6132
:10E80000826E1A62C26E5A62426D1A60426FC3F81B
:10E810000424826FC3F80824C26FC3F80C24D0F814
:10E820008020C3F81424D0F88420C3F82024D0F822
:10E830008820C3F82424026FC3F80024D0F8902065
:10E84000C3F80428D0F89420C3F80828D0F89820FA
:10E85000C3F80C28D0F89C20C3F81428D0F8A020C6
:10E86000C3F82028D0F8A420C3F82428D0F88C209E
:10E87000C3F8002803F54063D0F8AC205A60D0F804
:10E88000B0209A60D0F8B420DA60D0F8B8205A618D
:10E89000D0F8BC201A62D0F8C0205A62D0F8A82064
:10E8A0001A60D0F8C820C3F80424D0F8CC20C3F8EC
:10E8B0000824D0F8D020C3F80C24D0F8D420C3F812
:10E8C0001424D0F8D820C3F82024D0F8DC20C3F8D2
:10E8D0002424D0F8C420C3F80024D0F8E420C3F8DE
:10E8E0000428D0F8E820C3F80828D0F8EC20C3F8B2
:10E8F0000C28D0F8F020C3F81428D0F8F420C3F87E
:10E900002028D0F8F820C3F82428D0F8E020C3F855
:10E910000028F0BC704700BF0038024000000240F1
:10E920000004024000080240000C02400000000009
:10E930002DE9F04F4FF00F0C02F0030EC2F38007E9
:10E94000C2F3C106C2F341150024C2F3C3124FF053
:10E9500001094FF0030830E0D0F820B02BEA0303A0
:10E9600043EA0A030362436809FA04FA23EA0A0342
:10E970003B4343606300D0F808A008FA03F3DB438D
:10E980000AEA030A4AEA060AC0F808A0D0F80CA06E
:10E9900003EA0A0A4AEA050AC0F80CA0D0F800A067
:10E9A00003EA0A0343EA0E030360490819D07F0013
:10E9B000B600AD004FEA8E0E013404F007039B0051
:10E9C00011F0010F02FA03FA0CFA03F3EDD0072C51
:10E9D000C2D9D0F824B02BEA030343EA0A03436206
:10E9E000C1E7BDE8F08F00BF00000000000000009C
:10E9F0003A483B4A70B5446BA369656945EA0343ED
:10EA000023F07F4393424CD01ED8073A93423CD028
:10EA10000132934210D16268C36A22F400721B680B
:10EA200062601A6842F001021A60626842F4805221
:10EA300062605B68012B4BD915F00A0F18BFA36900
:10EA4000BDE87040FEF7ECBD264A934212D0023278
:10EA50009342F1D1C36A1B685E683EB32368028C9F
:10EA600043F4A06342F0010202842360BDE87040D9
:10EA7000FEF7D6BD6368026B23F40073126863600F
:10EA8000136843F001031360D6E7038C1A0A0BD016
:10EA900003F0010343F0F00302F006021343236185
:10EAA000CAE7038CC3F347032361C5E7636823F414
:10EAB00000736360236843F400732360202383F3AF
:10EAC00011881C303146FEF76BFA86F31188B3E7E4
:10EAD000236823F480632360AEE700BFA40F002007
:10EAE0000800030082000700000000000000000092
:10EAF0003348F8B5446B076B66693A68B1B201F404
:10EB00005F43DB436361136823F01F0313601368E3
:10EB1000DB07FCD43A7AC56A7F683D2393402A68B4
:10EB20003B60136823F01F031360136813F00103A5
:10EB3000FBD12F7A6D683D22BA40CF052A6048BFCD
:10EB400001238D05836044BF43F0020383604A05BF
:10EB50000AD5626822F400726260226843F00403FE
:10EB600042F40072226083600F0544BF43F0080343
:10EB700083604D0444BF43F020038360CC0413D56D
:10EB800043F010033104836016D4202383F31188EB
:10EB90006FF001010B48FEF703FA002383F311889D
:10EBA000BDE8F840FEF73CBD320405D4002BECD1A3
:10EBB000BDE8F840FEF734BD43F040038360E4E76E
:10EBC000A40F0020C00F0020000000000000000083
:10EBD00010B5074C2046FEF7B3FD064B064A6263AC
:10EBE000002103F13C02E161E362226310BD00BF3A
:10EBF000A40F0020B82A01080058004000000000BF
:10EC00000378012B2FD0016B436B0A6870B5002489
:10EC10004FF400451D601C605C605C61136823F06C
:10EC20001F0313601368DC07FCD40E7AC56A4C68B6
:10EC30002A683D23B3402360136823F01F03136049
:10EC40001368DB07FCD40446287A6A683D238340B6
:10EC500013600846FFF754FBE06AFFF751FB084BCF
:10EC60009C4201D070BD70472120FFF731F922206E
:10EC7000FFF72EF9034A136C23F480031364F1E7C2
:10EC8000A40F002000380240000000000000000037
:10EC900010B5064C2046FEF76BFE4FF0A043044A29
:10ECA0002365002362652366636610BDE00F0020C4
:10ECB000602B0108000000000000000000000000C0
:10ECC000F8B5056D202307462B612B6913F020044E
:10ECD000FBD10C20FDF72CFFD7F854E0DEF80860DC
:10ECE00023464FF00060FF2105EB43120133B3428E
:10ECF000C2F80009C2F8000BC2F80819C2F8081BD4
:10ED0000F2D9DEF800304FF0FF324FF00111C5F8B4
:10ED100018283A6DC5F81C18BB65DEF800306B6228
:10ED200010231361136913F01004FBD10C20FDF7BD
:10ED3000FFFED5F80038114A114823F4FE63C5F8E8
:10ED40000038AB6943F4402343F010030921AB6161
:10ED5000C5F81018C5F81418F860C5F8104BC5F8B8
:10ED6000002BC5F81049C5F80029BB6D03F110024E
:10ED700043F48013BA65AB62F8BD00BF4080001059
:10ED8000702B0108000000000000000000000000DF
:10ED9000026D90F84E10D2F8003823F4FE6343EA77
:10EDA0000113C2F8003870470000000000000000A6
:10EDB0005831036D49015B5813F4004004D013F43B
:10EDC000001F14BF01200220704700BF0000000098
:10EDD0004831036D49015B5813F4004004D013F42B
:10EDE000001F14BF01200220704700BF0000000078
:10EDF00000EB8101CB681B6A19685B685360116086
:10EE0000704700BF0000000000000000000000008C
:10EE100000EB810330B4DD68AC696368236131B90C
:10EE2000402B04D940236360094A3F2402E05C1E62
:10EE300043F0C042006D6D8A00EB41112B19B3FB0A
:10EE4000F5F342EAC343C1F8103B30BC704700BF42
:10EE50004000006000000000000000000000000012
:10EE60002DE9F041264E376D07EB40130546D3F8E8
:10EE7000084BC3F8084B200703D5D7F814381907F7
:10EE80001DD4E20719D5D7F81438DB0715D506EBE2
:10EE900085061B4CF1688B6958681A69904216D335
:10EEA0006289CE680123AB4022EA030363812946CD
:10EEB00020463346BDE8F0411847BDE8F08106EB37
:10EEC00085032946DB6830465B689847D9E7121A04
:10EED00000265A609E6029462046FFF799FF2023AE
:10EEE00083F31188236D03EB4515D5F8003B43F000
:10EEF0008063C5F8003B86F31188BDE8F08100BF50
:10EF0000E00F0020000000000000000000000000F2
:10EF100000EB810310B4DC68626953681361ABB124
:10EF200071B15A1E006D248A00EB41112244B2FBDC
:10EF3000F4F243EAC243C1F810395DF8044B70475C
:10EF4000402BEED9402353603F22EBE7036D5DF881
:10EF5000044B03EB41114FF40023C1F81039704703
:10EF60002DE9F041314F3D6D05EB40130646D3F8D6
:10EF70000849C3F80849E10703D5D5F81038DA077E
:10EF80000AD4230606D50123D5F8342803FA06F659
:10EF9000164229D1BDE8F08107EB8003D9684B699F
:10EFA00058681A69904234D2121A4FF000085A6019
:10EFB000C3F8088031463846FFF7AAFF202383F3C1
:10EFC00011883B6D03EB46100122D0F8001941F087
:10EFD0000441C0F80019D3F83418B2400A43C3F80A
:10EFE000342888F31188CCE7202383F31188D5F8DF
:10EFF0003438FA6D0E4823EA0603C5F83438164350
:10F000000021FE65FDF7CCFF002383F31188BDE8E6
:10F01000F0813A89D1F808800123B34022EA030342
:10F020003B8131463846C047ABE700BFE00F0020C8
:10F030004010002000000000000000000000000060
:10F0400070B53A4D2E6D7469B3691C40E10474616A
:10F050002DD4A20448BFD6F80838230704D56B681E
:10F06000DB680BB131489847E5062BD46003D6F82E
:10F07000185807D5E90745D4AA0748D46B074BD4DD
:10F080002E074ED4240307D5E80330D4A90333D484
:10F090006A0326D42B0303D4BDE87040FEF7C0BA40
:10F0A0000320FFF7DDFEBDE87040FEF7B9BA284641
:10F0B000FEF76EFC6B681B68002BCAD00021284647
:10F0C0009847C6E7202383F31188B369184823F0D3
:10F0D0001003B3610021FDF763FF002383F3118860
:10F0E000C4E70220FFF7BCFE2B03D5D5D8E70020EC
:10F0F000FFF7B6FEA903CBD50120FFF7B1FE6A03E7
:10F10000C8D5EEE70020FFF72BFFAA07B6D50120F0
:10F11000FFF726FF6B07B3D50220FFF721FF2E076D
:10F12000B0D50320FFF71CFFACE700BFE00F0020C5
:10F13000401000200000000000000000000000005F
:10F14000036D03EB4111D1F8003B43F08063C1F83C
:10F15000003B7047000000000000000000000000BD
:10F16000036D10B403EB41140120D4F8002942F0E0
:10F170000442C4F80029D3F834285DF8044B00FA9F
:10F1800001F11143C3F83418704700BF00000000BC
:10F19000036D03EB4111D1F8003B43F40013C1F8B8
:10F1A000003B70470000000000000000000000006D
:10F1B000036D03EB4111D1F8003943F40013C1F89A
:10F1C000003970470000000000000000000000004F
:10F1D000036D03EB4111D1F8003B23F40013C1F898
:10F1E000003B70470000000000000000000000002D
:10F1F000036D03EB4111D1F8003923F40013C1F87A
:10F20000003970470000000000000000000000000E
:10F2100008B50B4B1878DA6800210428116107D172
:10F220000220187011601161D16821F0FF01D160D6
:10F230005B6803485B689847BDE80840FEF7F0B993
:10F240007C12002000000000000000000000000010
:10F250000248034BC360FEF763BA00BF7C12002074
:10F26000000C004000000000000000000000000052
:10F2700038B5254DEB6869681C69DA68087D14406B
:10F28000E2B2D2431A6190B960072FD52B78042BD4
:10F2900028D0A10712D4E40705D56B681A481B696A
:10F2A000984703232B70BDE83840FEF7B9B9A20791
:10F2B0000BD52B78042B04D06307ECD504232B70DB
:10F2C000E9E78B68E3B1284698476307E3D52B78D5
:10F2D0000D4A042BF2D15168CB68002BEED00A48BE
:10F2E0009847EBE78B6843B128469847A107D2D5EA
:10F2F0002B78054A042BE1D1EDE7A007ECD4CAE74F
:10F300006207E9D4C7E700BF8C12002000000000AC
:10F3100010B5034C2046FEF743FA024BE36010BDE4
:10F320008C120020000800400000000000000000D7
:10F33000F8B50378012B04463AD0C36800221A605E
:10F340005A639A635A626168A26888690D7D4E6843
:10F35000B2FBF6F220F0FF00013A00274FF6FF76ED
:10F360001F61D8609A62DE620A786DB940F20120AE
:10F37000542198619960C2B113221A6203F13802D4
:10F38000343322616361F8BD4FF481706421986168
:10F3900099603AB131221A6203F1340238332261A2
:10F3A0006361F8BD13221A62F6E731221A62E5E7BB
:10F3B0000B4B984201D0E368C5E70A4B1A6C42F048
:10F3C00004021A641A6A002042F004021A62072139
:10F3D00018621E20FEF75CFD034BA360EBE700BF45
:10F3E0008C1200200038024000BD01050000000022
:10F3F000C3685A69002042F0010205215A61186170
:10F4000019607047000000000000000000000000CC
:10F41000C268D36810B413F0FF040CD141681461C2
:10F42000087D58B1886878B143F00603096909B1CD
:10F4300043F00103D3605DF8044B704788680028EF
:10F44000F2D143F00203F1E743F00403EEE700BF1B
:10F4500008B5202383F31188FDF73AFB002383F3DB
:10F460001188BDE80840FEF7DBB800BF00000000CF
:10F47000054B44F29F110020072259609860082133
:10F480000B201A60FEF73CBD10E000E00000000019
:10F49000024AD36843F08003D360704700480040BD
:10F4A000F8B5434ED6F85452EF682B68DA059CB293
:10F4B0004FD4202383F3118814F02F0F08D129E0B3
:10F4C000A00669681DD42C68A4B214F02F0F21D0B7
:10F4D0002307F5D014F0080F0CBF00218021E007AE
:10F4E00048BF41F02001A20748BF41F04001630737
:10F4F00048BF41F480712F48FDF7C2FEA00669683D
:10F50000E1D5C9B22A48FEF703FA2C68A4B214F078
:10F510002F0FDDD1002383F31188390601D5220690
:10F5200026D4630611D5202383F31188726CB36C43
:10F530001F489A4229D04FF6BF733B406FF04002FC
:10F54000EB6000232A6083F31188BDE8F840FEF7E2
:10F5500067B8202383F311884FF40071301DFDF745
:10F560008FFE6FF480732B60002383F31188A0E774
:10F57000202383F311881048FDF792FF00280CDB4D
:10F580006860002383F31188CBE7836B002BD2D014
:10F5900004301021FDF774FECDE708210548FDF782
:10F5A0006FFE4FF63F733B4043F04003EB60E8E7EC
:10F5B000A4120020A8120020D41200200000000095
:10F5C00010B5054C054A20460021FEF769F9044BA9
:10F5D000C4F8543210BD00BFA412002091F40008FA
:10F5E0000048004000000000000000000000000093
:10F5F00038B51F4C037A002918BF0C46012B05466D
:10F6000023D0D5F854321B4A93422BD002F58062A6
:10F61000934227D02168184AB2FBF1F29A60A2887F
:10F62000E088218942F4045240F0400042F02C026C
:10F6300041F0010192B280B289B20024186159618F
:10F64000DA601C601A685B6838BD0C4B9842D8D1F0
:10F650000B4A136C43F4802313640C212720FEF71C
:10F6600017FCCEE72168074AB2FBF1F29A60D6E7B1
:10F67000A02B01080010014080DE8002A4120020AF
:10F680000038024000BD010500000000000000003D
:10F69000FEF796BE00000000000000000000000021
:10F6A000704700BF000000000000000000000000E4
:10F6B000F0B400F10B073C460D46B1FBF2F602FB3D
:10F6C000161101F13003392BC8BF01F13703DBB24A
:10F6D00004F8013DB5FBF2F53146002DEDD13A1BA2
:10F6E000024401E014F8013F00F8013B9042F9D1D7
:10F6F000F0BC7047000000000000000000000000A7
:10F700002DE9F04F2DED028B91B0002306468B467C
:10F71000924600939BF800100BF1010379B1252963
:10F7200013D0009C32689B469268304601340094A6
:10F7300090479BF800100BF101030029EFD10098CE
:10F7400011B0BDEC028BBDE8F08F9BF801202D2A93
:10F7500003BF9BF802200BF1020301210021302A94
:10F7600008BF5A78019106BF013330272027591C62
:10F77000002408E09AF800300AF1040A9BF80020FF
:10F7800003EB40040131A2F13003DBB2092B8B46BD
:10F7900004EB8400F2D92A2AECD02E2A4FF000087C
:10F7A00045D002F0DF034C2B50D0A2F14403342BA0
:10F7B00000F2C981DFE813F0B701C701C701C70133
:10F7C000C701B701C701C701C701C701C701B5011B
:10F7D000C701C701C701C701C7010601C701C701AA
:10F7E0008D00C701C701C701C701C701C701C70114
:10F7F000C701C701C701A701B701C7010801C701B8
:10F80000C701B701C701C701C701C701C701B501DA
:10F81000C701C701C701DB00C7010601C701C70156
:10F820008D009AF800300AF1040A03EB41081BF836
:10F83000012BA2F13003DBB2092B08EB8801F4D9CC
:10F840002A2AEED002F0DF034C2BAED19BF8001039
:10F85000002900F07881A1F144030BF1010B342B56
:10F8600000F27081DFE813F05F016E016E016E013E
:10F870006E015F016E016E016E016E016E015D0130
:10F880006E016E016E016E016E01AE006E016E01C1
:10F8900035006E016E016E016E016E016E016E012A
:10F8A0006E016E016E014F015F016E01B0006E01CD
:10F8B0006E015F016E016E016E016E016E015D01F0
:10F8C0006E016E016E0183006E01AE006E016E016D
:10F8D000350010220AADDAF800102846FFF7E8FEDE
:10F8E000401B0AF1040A00F1FF38019B241A24EAA4
:10F8F000E474002B62D1C4F10009B9F1000F00F0EB
:10F900002B8129782D2900F03A81336839469B688C
:10F910003046984719F10109F7D1009BB8F1000F63
:10F9200023440093FFF6F6AE4C46C146336815F803
:10F93000011B9B6809F1FF3930469847B9F1FF3F39
:10F94000F4D1009B0133B8F1000FA8BF43440093EA
:10F95000002C3FF4DFAE2546336839469B683046BD
:10F960009847013DF8D1009B23440093D2E6DAF892
:10F9700000509B4B002D08BF1D460AF1040A2B784E
:10F98000B8F1000F00F0EE80002B00F0F08008F1DD
:10F99000FF38284602E0B8F1FF3F05D010F8013FDC
:10F9A00008F1FF38002BF6D1401B019B241A00F10F
:10F9B000FF38202724EAE474002B9CD0B8F1000F14
:10F9C000B3DAC5E70A2285E70AF1070A2AF0070A2F
:10F9D000DAE90001FCF7ACFF08EE100AB5EEC08AC8
:10F9E000F1EE10FA0AF1080A00F1E8800AAD2A46A1
:10F9F00018EE100A0492FCF707FD08F1FF38B8F181
:10FA0000080FCDE90201049A00F2C780754B53F844
:10FA100028804046FCF7D6FC734B049AA3FB0838B9
:10FA2000CDE906014FEAD80309939846FDEEC87A5E
:10FA300002F10B0317EE901A17EE90EACDED047A5F
:10FA4000059318460892684BA3FB0E23DB0803EBD3
:10FA50008309654A9C46AEEB49033033A2FB012182
:10FA6000DBB2C90800F8013DE646ECD10599089AD9
:10FA7000C0EB0109914401E010F8013F02F8013B9D
:10FA80004A45F9D14A462E2302F80C3B04980492C9
:10FA9000FCF7A8FC02460B46DDE90201FCF754FB2B
:10FAA000DDE90623FCF704FDFCF71AFF0999049A27
:10FAB000002908BF804609F1010E4B4BA3FB001340
:10FAC000DB0803EB830C1946A0EB4C0346483033AC
:10FAD000A0FB0808DBB25FEAD80802F8013D08463F
:10FAE000EBD10499891A481C8144704601E012F850
:10FAF000013F00F8013B8145F9D10EEB0100401BAD
:10FB000000F1FF38F1E610ADDAF8003005F8183DE5
:10FB10000DF12900401B0AF1040A00F1FF382027EB
:10FB2000E3E60822D6E6DAF8001000290AF1040A12
:10FB30003CDB0AAD28460A22FFF7BAFD401B00F164
:10FB4000FF38D2E60A4610AD0DF1290005F8182D50
:10FB5000401B00F1FF38C8E6B8F1000FFFF6DAAD40
:10FB60004C46E2E647F6FE78002B7FF412AF019B8D
:10FB700024EAE4745BBB4FF0FF382027BBE6302F4C
:10FB80007FF4C3AE336830469B689847009B0133CF
:10FB90000135009308F1FF38B7E69FED0F7BDFF8E2
:10FBA0004C80CDF824808DED067B3FE72D23494224
:10FBB0008DF828300DF129000AADBCE72D23B1EEF8
:10FBC000488A8DF828300DF129020AAD10E7202768
:10FBD000BEE600BFAFF300800000000065CDCD4160
:10FBE000B02C0108C02C0108CDCCCCCC00E1F5052F
:10FBF00001212DE9F04108465A4E5B4C5B4D01F066
:10FC0000FFFB01210220402701F0FAFB0121042023
:10FC100001F0F6FB304639461922FEF789FE3946D7
:10FC2000204677831922FEF783FE4FF48078204622
:10FC3000678319228021FEF77BFE20464146192268
:10FC4000FEF776FE3046A4F81A8020224FF4805149
:10FC5000FEF76EFE414628469A22FEF769FE2846C8
:10FC60009A224FF40071FEF763FE28469A224FF461
:10FC70008061FEF75DFE30469A224FF40051FEF798
:10FC800057FE30469A224FF48041FEF751FE30462F
:10FC90009A224FF40041FEF74BFE204620224FF4FB
:10FCA0000051FEF745FE204620224FF48041FEF72A
:10FCB0003FFE204620224FF40041FEF739FE284641
:10FCC00003220121FEF734FE284603220221FEF71B
:10FCD0002FFE284603220421FEF72AFE284603228F
:10FCE0000821FEF725FE284603221021FEF720FEFC
:10FCF000284603222021FEF71BFE39462846032210
:10FD0000FEF716FE284603228021FEF711FE30463C
:10FD100003220121FEF70CFE304603220221FEF7EA
:10FD200007FE204603220121FEF702FE20460322A1
:10FD30000221FEF7FDFD204603220421FEF7F8FD17
:10FD4000204603220821FEF7F3FD2046032210215E
:10FD5000FEF7EEFD204603222021BDE8F041FEF72C
:10FD6000E7BD00BF0004024000080240000002405E
:10FD700070B5264E264D274C012330461A460021E9
:10FD800001F066FA304601230222082101F060FAF0
:10FD90003046012303220A2101F05AFA0422304698
:10FDA0001146012301F054FA012328461A46194648
:10FDB00001F04EFA284601230222092101F048FAF7
:10FDC0002846012303220B2101F042FA2846012391
:10FDD00004220F2101F03CFA012320461A46022199
:10FDE00001F036FA204601230222032101F030FA05
:10FDF0002046012303220C2101F02AFA2046012388
:10FE000004220521BDE8704001F022BA0020014023
:10FE1000002101400022014000000000000000001D
:10FE200010B50E4C0E48FDF7A3FC237883B10022D9
:10FE30004FF480610B48FEF77BFD00224FF4006118
:10FE40000848FEF775FD0648FDF782FC0023237085
:10FE50000348BDE81040FDF793BC00BFFC14002030
:10FE6000A40F002000040240000000000000000079
:10FE700008B5094B094A9B69094C9A6140252E46F1
:10FE8000268341F28830FDF753F8658341F28830CC
:10FE9000FDF74EF8F4E700BF700C0020F02C0108CD
:10FEA000000402400000000000000000000000000C
:10FEB00010B582B0FDF7E4FBFCF7B2FD42F2107022
:10FEC000FDF736F80024FFF793FE00F059FF0849CC
:10FED000084800F075FF00F0DBF80094064B074877
:10FEE00040224FF40671FCF7EBFF204602B010BD34
:10FEF000002D0108A412002071FE0008001500204A
:10FF0000F8B51B4B1B4A802119831369DB04FCD510
:10FF100042F21070FDF70CF8174D184818490023ED
:10FF20002B6003600B600B68154AB3F57A6FFADB40
:10FF30001449154C0E4F154E2B68156893FBF5F3BD
:10FF40004FF0800E0B6001250368126893FBF2F3FB
:10FF50002360A7F81AE035700A680D480D4900F0D3
:10FF60002FFF22680C490A48BDE8F84000F028BF7E
:10FF7000000802400004024098180020E018002009
:10FF80004417002018170020E4180020DC18002077
:10FF9000A4120020102D0108242D010800000000EB
:10FFA00090ED067A90ED076AD0ED007AD0ED015A17
:10FFB000D0ED046A37EE466AB0EE677AA6EE257A8F
:10FFC000B4EEE67AF1EE10FA0BDCD0ED056AB4EE91
:10FFD000E67AF1EE10FA04D4F0EE476A80ED087A82
:10FFE00001E0C0ED086A90ED025AD0ED035AE6EE4A
:10FFF000057A37EE667AE7EE657AC0ED007A7047EB
:020000040801F1
:10000000F0B51748174C184A1849194D194E1A4F90
:10001000E5602561C5600561D560CD60174DDFF8ED
:1000200068E0676000234760A660154F86609660B1
:100030004D60144EC4F814E04FF08045C0F814E051
:1000400023602362036003620B600B621360136220
:100050008D6055600F6117614E615661F0BD00BF44
:100060009C180020201700200C190020E818002000
:1000700058FF7F3F0AD7233CCDCC4C3D0000404188
:100080003333733F333373BF58FF7FBF000000002B
:100090002DE9F04FD649D74DD748D84FDFF88C938C
:1000A000A7B000F08DFE00F003FFD54B00242846DA
:1000B0001C7001F0F5F9384601F0F2F901216C628B
:1000C00008467C6201F0BCF9CE4BADF80440012635
:1000D0004FF0200E284601A91A68ADF806E08DF809
:1000E0000E60ADF80C40C84B93FBF2F3029301F0A5
:1000F000B7FAEB6AADF83260F3400E934FF060034D
:10010000ADF830304FF004034FF4807B28460CA943
:10011000ADF834304FF40073ADF84230ADF83C40E8
:10012000ADF83E40ADF840B001F00AFB0CA92846FE
:1001300001F046FB0CA9284601F082FB0CA92846D9
:1001400001F0C6FB2846082101F0FAFB28460821E9
:1001500001F0FEFB2846082101F00AFC2846082190
:1001600001F00EFC4FF40068502328464FF4005A6B
:1001700004A9ADF81630ADF81AA0ADF81440ADF8EA
:100180001840ADF81C40ADF81080ADF8128001F0B9
:1001900007FC3146284601F02BFC3146284601F089
:1001A000AFFA3146994801F02BF931464FF4E0603F
:1001B00001F046F92346964A96480321FEF758F87F
:1001C0009549964B18914FF00C0E4FF4003C4FF4AC
:1001D0008062484617A9CDF86CE0CDF884C0199329
:1001E0001D92CDF87CA017941A941C94CDF87880B9
:1001F000CDF880B0229423942494259401F088F8BB
:100200003146484601F0B4F832464846102101F024
:10021000BFF816224FF4804308A8DFF814A2089212
:100220000A9309940B9400F0EBFF4FF000534FF04A
:10023000040211A91393DFF8FC9179488DF8582036
:100240004FF0506314938DF8486011948DF8494035
:10025000159400F0ADFF11A9504600F0A9FF11A9B7
:10026000484600F0A5FFFFF783FD304601F040F857
:1002700031466B4800F0DCFF3146504600F0D8FFB5
:100280003146484600F0D4FF3146022001F0D8F84C
:100290005C4BADF8044001A938461A68ADF8064039
:1002A000ADF80C408DF80E405E4B93FBF2F30293D9
:1002B00001F0D6F94FF06002EB6AADF830200CA9DE
:1002C0004FF400723846ADF842200E93ADF832601C
:1002D000ADF83C40ADF83E40ADF840B001F030FA2A
:1002E0003846082101F02CFB0CA9384601F068FAC9
:1002F0003846082101F02CFB0CA9384601F0A0FA81
:100300003846082101F034FB3146384601F0F8F94F
:100310003146384601F06CFB3146384601F058FB57
:100320002846202101F084FB2846802101F0A0FB13
:100330002146384601F074FB3846042101F088FB61
:100340003146384601F0ECF93146284601F0E8F92B
:100350003146284601F03CFB3146304601F060F85A
:100360004FF0FF3A532301A94FF08040ADF804301D
:10037000ADF80C40ADF80640CDF808A001F070F9DA
:1003800031464FF0804001F0CBF900F091FD2B6831
:1003900043F002032B603B6843F002033B60EB6ACF
:1003A0007B63EB6ABB63EB6AFB632B6823F002039E
:1003B0002B603B6823F002033B6000F089FD1A4B81
:1003C000802240271F835A83A3F81AB0FFF798FDB5
:1003D000A9F585393146384601F022F8072301A9ED
:1003E0004846ADF80430CDF808A0ADF80C4023E045
:1003F000382D010800000140A41200200004014033
:10040000DC1800200008002000BD010505004000A8
:10041000D1090108302B01080823014048170020AA
:1004200000200140007A030A000802407064024084
:100430000021014000220140ADF8064001F010F912
:100440003146484601F06CF93146404600F0E8FF7D
:10045000204601F01DFBFF2001F02AFB642001F083
:1004600047FB154B9FED157A1B8A1549154A164E09
:10047000164807EE903A164BF8EE677A83ED007A4D
:1004800067EE877A83ED027A09681268B3EE007A24
:1004900067EE877A89B292B299809A81C6ED007A26
:1004A000EB6A0360FFF7ACFD0A4B02221C801A7056
:1004B00027B0BDE8F08F00BF481700206740533ACF
:1004C00018170020E41800203419002034180020E8
:1004D000C0180020301900200000000000000000BB
:1004E000144A154B92ED007AD3ED007AB4EEE77A18
:1004F000F1EE10FA11DC93ED007AD2ED007AB4EE51
:10050000E77AF1EE10FA07DDD2ED006A93ED007A9A
:10051000C6EE877A20EE270A7047D2ED007A93ED77
:10052000007AD3ED006A77EEC77A87EEA67AA7EE57
:10053000000A7047341900201C170020000000003A
:10054000304B1B8870B5002B3DD02F4E2F4C304DBB
:100550002378E969580744BF3368B3602D4B002204
:100560001846D9619A61FFF71BFD227893ED080ABE
:10057000110736D485ED090A20EE000A264BDFED7F
:10058000277A83ED000A93ED000A37EEC00AF1EEF8
:10059000C07AF4EE677AF1EE10FA2ED1204B296A78
:1005A000B268D961B1EE677A18469A61C3ED047AF0
:1005B00083ED057AFFF7F4FC22781549120715D46C
:1005C0001B6A8B6270BD174B174A0F4ED2F8C810CA
:1005D0003268D96118469A61FFF7E2FC1B6AB36082
:1005E000B4E7FFF77DFF85ED090AC5E793ED080A3B
:1005F000FFF776FF81ED0A0A70BD01F029FBF0EEEE
:10060000407ACBE760170020D01800203019002076
:100610005818002020170020381900203D0A673F95
:100620009C180020E818002064170020000000003B
:10063000184B194ADB6A92ED046AD2ED056A136021
:1006400007EE903AF8EE677AB6EE007A27EE866A01
:1006500067EEA66A77EEC67A82ED046A77EEE67AEE
:10066000C2ED056A67EE877AFCEEE77AB8EE677A44
:10067000C2ED087A77EE067AFCEEE77AB8EE677A92
:10068000C2ED077A77EE267AFCEEE77AC2ED067ABB
:10069000704700BF00000140341800200000000037
:1006A0002DE9F041164680460F4600F001FC0D4B47
:1006B0000D4C1D6845F002051D60256845F00205DA
:1006C0002560C3F834809F63DE631A6822F002025B
:1006D0001A60236823F002032360BDE8F04100F0B4
:1006E000F7BB00BF00000140000401400000000013
:1006F0003E48D0ED017AF5EEC07AF1EE10FA08B579
:1007000026DB90ED027AB5EEC07AF1EE10FA13DA3C
:10071000D0ED036AF5EEC06AF1EE10FA44DBC0EDED
:10072000057AC0ED046AFFF783FFBDE80840C2699F
:100730008169006AFFF7B4BF80ED057AC0ED047AE5
:10074000FFF776FF183007C8BDE80840FFF7A8BFDD
:10075000D0ED026AF5EEC06AF1EE10FA35DB90EDED
:10076000037AB5EEC07AF1EE10FA0CDB80ED057A73
:10077000C0ED046AFFF75CFFBDE808408269016ACA
:10078000C069FFF78DBFB1EE477AF1EE677A80ED71
:10079000057AC0ED047AFFF74BFFBDE80840C26957
:1007A000016A8069FFF77CBFB1EE477AF1EE666AB5
:1007B00080ED057AC0ED046AFFF73AFFBDE8084016
:1007C000026A8169C069FFF76BBFF1EE677AF1EEEB
:1007D000666AC0ED057AC0ED046AFFF729FFBDE83F
:1007E00008408269C169006AFFF75ABF34180020C7
:1007F000684B9FED696A9A885B88DFED686A07EE4F
:10080000102A07EE903A10B5B8EE477AF8EE677AFC
:1008100037EE467A77EEC67A2DED048BC7EE268A40
:10082000044687EEA69A90ED2E8AC0ED128A80EDDE
:10083000149AB0EE480A01F073F9F0EE409AC4ED54
:10084000249AB0EE480A01F0B3F968EEA98A29EEBD
:10085000009AD4ED117A9FED526AC4ED218A78EEA8
:10086000C98AD4ED106A84ED229AD8EE867AB2EE67
:10087000047A77EEA67A84ED250AF4EEC77AF1EED3
:1008800010FA0FDCBAEE047AF4EEC77AF1EE10FA41
:1008900061D5F0EE477ADFED435ADFED436A9FED15
:1008A000437A07E0F0EE477ADFED415ADFED416A27
:1008B0009FED417A9FED416AC4ED107A37EE880AC8
:1008C000C4ED118AB4EEC60AF1EE10FA2FDD30EE57
:1008D000460A84ED2E0A9FED3A5A9FED386A30EEB3
:1008E000050AB4EEC60AF1EE10FA2ADD30EE460A29
:1008F00084ED2F0A94ED305A9FED306AC4ED327AC0
:1009000077EE057AF4EEC67AF1EE10FA36DCBDEC3D
:10091000048BF5EEC07AF1EE10FA48BF77EE867AD6
:10092000C4ED316AC4ED307AC4ED335A10BDB5EE72
:10093000C00AF1EE10FA48BF30EE060A84ED2E0A26
:10094000C9E7B5EEC00AF1EE10FA48BF30EE060A6C
:1009500084ED2F0ACEE7DFED195ADFED1A6A9FED1D
:100960001A6A87EEA57AB1EE0C5A67EE266A87EE10
:10097000857A26EE866AC6EE055A9BE7BDEC048BA7
:1009800077EEC67AC4ED316AC4ED307AC4ED335ADD
:1009900010BD00BF4817002000209B4400F07F4599
:1009A0000C02803F6927D5C895F1C6C66EDBB6BF7D
:1009B0006927D54895F1C6466EDBB63FDB0FC940C7
:1009C0009A99993E00007A460000F042000000002B
:1009D000F8B55C4A5C4C5D4E2389B4F806E05C488F
:1009E0005C4F00252DED048B55623168013131607B
:1009F0000268594E1A4402603B68304673443B60BB
:100A0000FFF7F6FE554A137843F0020313709B0775
:100A100040F18D80524896ED2E9A52492289E38802
:100A2000514C524F402606838E88888991ED007A7A
:100A3000D1ED027A84ED009A01B25B1A08EE103A09
:100A400036B2B8EEC88A921B08EE902A28EE278AA2
:100A5000F8EEE88ADFED467A84ED048A38EE088AFB
:100A600068EE878A28EE278A3B88C4ED038AA8EEC1
:100A7000A78A01339BB2102BB0EE490A14BF3B800A
:100A80003D80C4ED058A84ED068A01F049F8F0EE58
:100A9000409AB0EE490A01F08BF868EE297A28EE08
:100AA000008AE8EE807AA8EEE98AC4ED087A84ED3F
:100AB000078AFFF745FDD4ED009A94ED099AB0EE50
:100AC000690A01F02DF894ED0A8AF0EE408AB0EE42
:100AD000690A01F06DF868EE886A60EE487AE9EE1E
:100AE000006A244BE9EE287ADFED235AC4ED0B7A35
:100AF000B1EE667AB0EE476AA7EEA56AA7EEE57A90
:100B0000F6EE005A66EE257A27EE257AC4ED0C6AD9
:100B1000C3ED016AC3ED027A83ED037AFFF7E8FDC6
:100B2000BDEC048B6420BDE8F84000F0D9BF0C4B4D
:100B300040225A83BDEC048B6420BDE8F84000F0ED
:100B4000CFBF00BF00180040481700204417002006
:100B500098180020E01800206417002030190020A9
:100B600000080240C018002058180020601700201C
:100B70003ACD133F34180020D7B3DD3F000000000A
:100B8000704700BF000000000000000000000000EF
:100B90000369DFED3F6A1B683E493F4A3F48013326
:100BA00007EE903AF8EE677A70B587EEA67A2DEDEB
:100BB000028B81ED007AD1ED007A92ED006A90ED22
:100BC000007AD2ED006A77EEC67A37EE667AF4EEF6
:100BD000C77AF1EE10FA2DDDDFED316A67EE266A95
:100BE000F4EEE67AF1EE10FA3BD5F0EE477AF5EE48
:100BF000C07AF1EE10FA34DB77EEA77A294B1B7836
:100C000077EEC77A83BBC7EE876A274BC3ED006ACE
:100C1000202383F31188254A0023916A83F31188E6
:100C2000234B244A1B681160DBB1BDEC028BBDE88D
:100C300070401847F5EEC07AF1EE10FAD7D5D2ED34
:100C4000005A9FED1D6AD2ED006A77EEA57A66EE36
:100C5000866AF4EEE67AF1EE10FA02DDDFED177A3D
:100C6000CCE7BDEC028B70BD87EE878A144C154D26
:100C7000D4ED000A95ED001AB0EE480A00F0D8F85D
:100C8000094B22682A6084ED008A83ED000ABFE7E1
:100C900000007A44441900201008002004080020B5
:100CA0009A99993F481900203C190020700C0020A7
:100CB0004C19002040190020CDCC4C3F0000000012
:100CC0000C080020080800200000000000000000C0
:100CD00038B50D4C0D4905462046FCF769FD4FF42B
:100CE000817280210A48FDF723FE2046FCF770FD43
:100CF0002046FCF77DFD07480749084A05600023A8
:100D00000B60136038BD00BF8C1200201408002057
:100D1000000402404C1900203C1900204419002016
:100D20000449054A054B81ED000AC2ED000A18701E
:100D3000704700BF10080020040800204819002058
:100D40000028DDBF034B03EB800090ED000A9FED10
:100D5000020A70473C19002000000000000000005B
:100D60000EB400B582B003AA52F8041B0192FEF73C
:100D7000C7FC02B05DF804EB03B070470000000050
:100D800010B50A4C0A490B48FCF7B2FD204640F268
:100D900082324FF48061FDF7CBFD204640F2823273
:100DA0004FF40061BDE81040FDF7C2BD00080240ED
:100DB00030080020A4120020000000000000000005
:100DC0000EB400B50199FFF7CBFF5DF804EB03B05B
:100DD000704700BF0000000000000000000000009D
:100DE00008B50121034800F013FEBDE80840FCF7F8
:100DF00017BC00BF0014004000000000000000000D
:100E000008B54FF4006000F0E3FA00B908BD044BE8
:100E100000225A624FF40060BDE8084000F0E8BAD2
:100E2000000800400000000000000000000000007A
:100E3000B4EEE00AF1EE10FA0ED8B4EEC10AF1EE0B
:100E400010FA25D8F4EE410AF1EE10FA98BFB0EE90
:100E5000601AB0EE410A70470BDAB4EEE00AF1EE28
:100E600010FA8CBFB0EE601AB0EE401AB0EE410A34
:100E70007047F4EEC10AF1EE10FAEED8B4EE410A72
:100E8000F1EE10FA98BFB0EE401AB0EE410A70478A
:100E9000B4EEE00AF1EE10FA04DBF4EEC10AF1EE72
:100EA00010FAEBD9B0EE401AB0EE410A704700BF1D
:100EB000044B1A6812B9202282F311881A68013291
:100EC0001A60704750190020000000000000000068
:100ED000054B1A6832B11A68013A1A601B680BB9DF
:100EE00083F31188704700BF5019002000000000F4
:100EF00080B5144F144CBB69144ADFF858A0144D48
:100F0000DFF854909A61A046002614E0DAF8001049
:100F1000BA6AD8F8000003FB00F303F2E733521A71
:100F2000A9FB0313B2EB931F4FF0010308D92B70F9
:100F30006420FBF7FDFF226842F21073002AE5D11E
:100F40002E70F5E7700C0020F81C0020502D0108D1
:100F5000F41C0020F01C0020D34D621000000000A3
:100F6000014B1860704700BFF81C00200000000013
:100F7000024A034B926A1A60704700BF700C00204F
:100F8000F01C002000000000000000000000000035
:100F9000F0B50A490A4E0B4D0B4B0C4883B00024A8
:100FA0004FF47A77009440220F604FF466713460FA
:100FB0002C70FBF785FF03B0F0BD00BFF81C0020CC
:100FC000F01C0020F41C0020F10E0108581900202C
:100FD00008B5084B1B78012B06D0032B03D1BDE8C5
:100FE0000840FEF71DBF08BD00F08AF8BDE80840C4
:100FF00000F0AEB83C080020000000000000000037
:1010000010B5174B174A9B691749184C2DED028BE9
:1010100000209961F0EE000AB7EE000A1360FFF7B6
:101020007FFE1348DFED138AFFF752FE124B0122B9
:101030001A700120FCF73CF90020FFF781FE10EE4A
:10104000100AB0EE408AFBF7DFF902460B460B4868
:101050000B49FFF7B5FEC8EE287AC4ED007AE8E741
:10106000700C0020001D0020602D0108D018002009
:10107000911001080000C842FC1C0020A4120020AE
:10108000682D0108000000000000000000000000C2
:1010900008B5202383F31188FFF76AFF044B012171
:1010A0001868FCF7D5F8002383F3118808BD00BF4A
:1010B000001D0020000000000000000000000000F3
:1010C00010B52023044683F311880A48C3680BB186
:1010D000FBF76EFD2346084A06481421FBF748FD3E
:1010E000064B01211868FCF7B3F8002383F311883D
:1010F00010BD00BFA4220020C1100108001D002067
:10110000F0B405460FCD0C4E0C4F34460FC40FCD36
:101110000FC495E8030084E803000022084B3A60FE
:101120001B780BB9F0BC704796ED030AD6ED040AA4
:10113000307DF0BCFFF7F4BDB8220020A0220020D3
:10114000FC1C002000000000000000000000000067
:1011500000B583B00023009340220F4B0F484FF49B
:10116000B361FBF7ADFE0E490E48FFF729FE2023C1
:1011700083F311880C48C3680BB1FBF719FD0023FA
:101180000A4A09480A21FBF7F3FC002383F311887C
:1011900003B05DF804FB00BF01100108081D00202A
:1011A000782D0108A4120020A4220020C1100108FB
:1011B000F0B544680A680E79D1F810E0CD680F4B9D
:1011C00024F0407424F48074224342EA06224260F0
:1011D00087688A684E794EEA050422433B401343F0
:1011E00043EA460383600A7DC36A013AD2B223F41C
:1011F000700343EA0253C362F0BD00BFFDF7FFC0B6
:1012000070B442680668064D8468C168054B68681A
:10121000324322430A43034013436B6070BC704760
:1012200000230140E030FCFF00000000000000004F
:10123000836819B923F001038360704743F0010309
:101240008360704700000000000000000000000004
:10125000092970B41DD9A1F10A0606EB4606C56836
:101260000724B440B34025EA04042343062AC3609C
:101270001BD90C2A27D90D3A02EB8202C36A1F241C
:10128000944001FA02F223EA04010A43C26270BCEC
:10129000704701EB410605690724B440B34025EAD5
:1012A00004042343062A0361E3D8013A02EB8202D5
:1012B000436B1F24944001FA02F223EA04010A431B
:1012C000426370BC7047073A02EB8202036B1F2433
:1012D000944001FA02F223EA04010A43026370BC5B
:1012E000704700BF00000000000000000000000088
:1012F000054A536818B923F400535360704743F408
:1013000000535360704700BF0023014000000000FD
:1013100001F11802F0B48CCACD680E684C692E43F6
:10132000264316431E434A6A8B6A4D6B8C6B3E43C1
:1013300016431E430B4A0368CF6A35432C431A40B9
:10134000224302600B6B42690D694C6889683B431C
:1013500022F007021343436145608460C160F0BC22
:10136000704700BF3F801CF000000000000000003C
:10137000036819B923F001030360704743F00103C8
:101380000360704700000000000000000000000043
:101390000B060CD54369AAB143F080038029436151
:1013A0000FD0036801F01E011943016070478029C6
:1013B00007D0002AF5D1036801F01E0123EA0101DC
:1013C0000160704723F0800380294361F3D17047A7
:1013D000034B5B69034214BF01200020704700BF2C
:1013E000003C014000000000000000000000000080
:1013F000014B5861704700BF003C014000000000F5
:1014000029B9054A136B23EA000010637047024BA9
:101410001A6B104318637047003802400000000048
:1014200029B9054A136C23EA000010647047024B87
:101430001A6C104318647047003802400000000026
:1014400029B9054A536C23EA000050647047024BE7
:101450005A6C104358647047003802400000000086
:1014600029B9054A136A23EA000010627047024B4B
:101470001A6A1043186270470038024000000000EA
:1014800029B9054A536A23EA000050627047024BAB
:101490005A6A10435862704700380240000000004A
:1014A00008B5604B984235D0B0F1804F3CD05E4BD0
:1014B000984243D05D4B98424AD05D4B984251D000
:1014C0005C4B984258D05C4B98425FD05B4B984243
:1014D00066D05B4B98426DD05A4B984276D05A4BAF
:1014E00098427FD0594B984200F08880584B9842E0
:1014F00000F08E80574B984200D008BD01214FF478
:101500008070FFF7ADFF00214FF48070BDE8084008
:10151000FFF7A6BF01210846FFF7B2FF0021012017
:10152000BDE80840FFF7ACBF01210846FFF798FF70
:1015300000210120BDE80840FFF792BF01210220F1
:10154000FFF78EFF00210220BDE80840FFF788BFAB
:1015500001210420FFF784FF00210420BDE808409A
:10156000FFF77EBF01210820FFF77AFF0021082046
:10157000BDE80840FFF774BF01211020FFF770FF9E
:1015800000211020BDE80840FFF76ABF012120209C
:10159000FFF766FF00212020BDE80840FFF760BF8D
:1015A00001210220FFF76CFF00210220BDE8084066
:1015B000FFF766BF01214FF48030FFF761FF002184
:1015C0004FF48030BDE80840FFF75ABF01214FF4C7
:1015D0000030FFF755FF00214FF40030BDE8084010
:1015E000FFF74EBF01214FF48020FFF749FF002194
:1015F0004FF48020BDE80840FFF742BF01214020A2
:10160000FFF72EFF00214020BDE80840FFF728BF6C
:1016100001218020FFF724FF00218020BDE8084041
:10162000FFF71EBF0000014000040040000800401A
:10163000000C004000100040001400400004014075
:1016400000400140004401400048014000180040B3
:10165000001C0040002000400000000000000000CE
:10166000224A036890429BB212D002F580629042F7
:101670000ED0B0F1804F0BD0A2F58032904207D04F
:1016800002F58062904203D002F58062904203D15D
:101690004A8823F070031343154A90421ED002F586
:1016A000806290421AD00A8970B423F440730F4CC0
:1016B0004E680D889BB21343A0420360C6628562E8
:1016C00006D00C4B984203D00123436170BC704795
:1016D0008B7A03630123436170BC704703604A68DF
:1016E0000B88C2628362012343617047000001409E
:1016F0000010004000040140000000000000000055
:1017000029B902684FF67F7313400360704703687E
:1017100043F08003036070470000000000000000F9
:1017200029B902684FF6FE731340036070470368DF
:1017300043F0010303607047000000000000000058
:10174000026A4FF6FE7313400362F0B54A88056AD9
:101750008B894468154FD0F818E04FF6FD762E407F
:10176000134333434FF68C750E880EEA0505B842D5
:10177000A2B29BB245EA060408D00D4DA84205D09E
:1017800089684260846141630362F0BDCE890F8A3B
:101790004D8A23F00803334322F440728E883D4380
:1017A00023F004032A43334392B2E9E700000140E7
:1017B00000040140000000000000000000000000E4
:1017C000026A4FF6EF731340F0B503624A888C89C2
:1017D000D0F820E046688769184D144348F6FF4268
:1017E0003A404FF6DF730F880EEA030343EA04130F
:1017F00042EA0722A8429BB2B4B292B209D005F5E0
:101800008065A84205D08968446082618163036273
:10181000F0BDCD890F8A4E8A23F0800343EA051379
:101820004FF6BF751D408B8824F440643E4345EA63
:10183000031344EA86049BB2A4B2E4E7000001402B
:10184000026A4FF6FF6313400362F0B54A88D0F88E
:1018500020E08C8945681A4EC7694FF6FF53144340
:101860000EEA030343EA04234FF68C720C883A40D5
:10187000B0429BB2ADB242EA040209D006F58066DE
:10188000B04205D089684560C261C1630362F0BDA2
:10189000CE890C8AB1F812E023F4006343EA0623F0
:1018A0004FF6FF361E408B8825F4405744EA0E055C
:1018B00046EA032347EA05159BB2ADB2E2E700BF53
:1018C00000000140000000000000000000000000D7
:1018D000026A4EF6FF731340F0B503624A888D89A1
:1018E000D0F820E04468C769114E154348F6FF421E
:1018F0003A404DF6FF730F880EEA030343EA0533BF
:1019000042EA0722B0429BB2A4B292B208D0094D7B
