:020000040800F2
:100000000004002001C0000861CC000861CC000899
:1000100061CC000861CC000861CC000861CC00080C
:1000200061CC000861CC000861CC0008C1D6000892
:1000300061CC000861CC000861CC000801F2000826
:1000400061CC000861CC000861CC000861CC0008DC
:1000500061CC000861CC000861CC000861CC0008CC
:1000600061CC000861CC000861CC000821DF0008E9
:1000700051DF000881DF0008B1DF0008E1DF000880
:1000800011E0000841E000081112010861E50008D4
:10009000A1E5000811E6000881E6000861CC00082F
:1000A00061CC000861CC000861CC000861CC00087C
:1000B00061CC000841F100085112010861CC000830
:1000C00061CC0008A1E90008A1EA000861CC0008A1
:1000D00061CC000851F2000861CC000861CC000836
:1000E0003112010861CC000861CC000861CC000825
:1000F00061CC000861CC00088112010871E00008A1
:1001000061CC000861CC000861CC000861CC00081B
:1001100061CC000861CC000861CC000861CC00080B
:10012000A1E00008D1E0000801E1000831E1000889
:1001300061E1000861CC000861CC000861CC0008D6
:1001400061CC000861CC000861CC000821EF0008F8
:1001500091E10008C1E10008F1E1000831F4000874
:1001600061CC000861CC000861CC000861CC0008BB
:1001700061CC000861CC000861CC000861CC0008AB
:1001800061CC000861CC000861CC000861CC00089B
:1001900061CC000861CC000861CC000861CC00088B
:1001A00061CC000861CC000861CC000861CC00087B
:1001B00061CC000861CC000861CC000861CC00086B
:10C0000072B6334880F3098840F20000CCF2000099
:10C010004EF63471CEF200010860BFF34F8FBFF3CC
:10C020006F8F40F20000C0F2F0004EF68851CEF261
:10C0300000010860BFF34F8FBFF36F8F4FF0000018
:10C04000E1EE100A4EF63C71CEF2000108600620C7
:10C0500080F31488BFF36F8F00F0EAFD03F040FA1D
:10C060004FF055301B491C4A91423CBF41F8040B2C
:10C07000FAE71A49164A91423CBF41F8040BFAE725
:10C080001749184A184B9A423EBF51F8040B42F820
:10C09000040BF8E700201549154A91423CBF41F8CE
:10C0A000040BFAE700F0CCFD124C134DAC4203DA5E
:10C0B00054F8041B8847F9E705F0EAF90F4C104DD6
:10C0C000AC4203DA54F8041B8847F9E700F0C0BD1E
:10C0D00000080020000000200004002000040020D0
:10C0E000A841010800080020400C0020400C00205E
:10C0F000B02B002000C0000800C0000800C00008ED
:10C1000000C0000800000000000000000000000067
:10C110002DE9F04F2DED108AC1F80CD0D0F80CD0DD
:10C12000BDEC108ABDE8F08F002383F31188284608
:10C13000A047002001F044F800F0AAFF00DFFEE76E
:10C1400081F0004102E000BF83F0004330B54FEAC8
:10C1500041044FEA430594EA050F08BF90EA020F35
:10C160001FBF54EA000C55EA020C7FEA645C7FEAC8
:10C17000655C00F0E2804FEA5454D4EB5555B8BFEB
:10C180006D420CDD2C4480EA020281EA030382EA5C
:10C19000000083EA010180EA020281EA0303362DEE
:10C1A00088BF30BD11F0004F4FEA01314FF4801CC1
:10C1B0004CEA113102D0404261EB410113F0004FD3
:10C1C0004FEA03334CEA133302D0524263EB43038A
:10C1D00094EA050F00F0A780A4F10104D5F1200E28
:10C1E0000DDB02FA0EFC22FA05F2801841F1000183
:10C1F00003FA0EF2801843FA05F359410EE0A5F157
:10C2000020050EF1200E012A03FA0EFC28BF4CF087
:10C21000020C43FA05F3C01851EBE37101F000453D
:10C2200007D54FF0000EDCF1000C7EEB00006EEB4A
:10C230000101B1F5801F1BD3B1F5001F0CD34908D4
:10C240005FEA30004FEA3C0C04F101044FEA44522B
:10C2500012F5800F80F09A80BCF1004F08BF5FEAB2
:10C26000500C50F1000041EB045141EA050130BD92
:10C270005FEA4C0C404141EB010111F4801FA4F135
:10C280000104E9D191F0000F04BF01460020B1FA8A
:10C2900081F308BF2033A3F10B03B3F120020CDAC2
:10C2A0000C3208DD02F1140CC2F10C0201FA0CF0A0
:10C2B00021FA02F10CE002F11402D8BFC2F1200C05
:10C2C00001FA02F120FA0CFCDCBF41EA0C019040BB
:10C2D000E41AA2BF01EB0451294330BD6FEA040404
:10C2E0001F3C1CDA0C340EDC04F11404C4F12002EF
:10C2F00020FA04F001FA02F340EA030021FA04F301
:10C3000045EA030130BDC4F10C04C4F1200220FA57
:10C3100002F001FA04F340EA0300294630BD21FA95
:10C3200004F0294630BD94F0000F83F4801306BF5B
:10C3300081F480110134013D4EE77FEA645C18BF4F
:10C340007FEA655C29D094EA050F08BF90EA020FE6
:10C3500005D054EA000C04BF1946104630BD91EADE
:10C36000030F1EBF0021002030BD5FEA545C05D1E1
:10C370004000494128BF41F0004130BD14F5800420
:10C380003CBF01F5801130BD01F0004545F0FE4194
:10C3900041F470014FF0000030BD7FEA645C1ABFC9
:10C3A000194610467FEA655C1CBF0B46024650EA00
:10C3B000013406BF52EA033591EA030F41F400212C
:10C3C00030BD00BF90F0000F04BF0021704730B5B2
:10C3D0004FF4806404F132044FF000054FF0000187
:10C3E00050E700BF90F0000F04BF0021704730B548
:10C3F0004FF4806404F1320410F0004548BF40421D
:10C400004FF000013EE700BF42004FEAE2014FEA71
:10C4100031014FEA02701FBF12F07F4393F07F4F4C
:10C4200081F06051704732F07F4208BF704793F04F
:10C430007F4F04BF41F40021704730B54FF4607462
:10C4400001F0004521F000411CE700BF50EA010265
:10C4500008BF704730B54FF000050AE050EA01020E
:10C4600008BF704730B511F0004502D5404261EB7E
:10C4700041014FF4806404F132045FEA915C3FF4BF
:10C48000D8AE4FF003025FEADC0C18BF03325FEA5C
:10C49000DC0C18BF033202EBDC02C2F1200300FA0D
:10C4A00003FC20FA02F001FA03FE40EA0E0021FA32
:10C4B00002F11444BDE600BF0000000000000000CF
:10C4C00070B54FF0FF0C4CF4E06C1CEA11541DBF2A
:10C4D0001CEA135594EA0C0F95EA0C0F00F0DEF8F5
:10C4E0002C4481EA030621EA4C5123EA4C5350EADA
:10C4F000013518BF52EA033541F4801143F480132B
:10C5000038D0A0FB02CE4FF00005E1FB02E506F0BB
:10C510000042E0FB03E54FF00006E1FB03569CF010
:10C52000000F18BF4EF0010EA4F1FF04B6F5007F16
:10C5300064F5407404D25FEA4E0E6D4146EB060688
:10C5400042EAC62141EA55514FEAC52040EA5E5011
:10C550004FEACE2EB4F1FD0C88BFBCF5E06F1ED8BB
:10C56000BEF1004F08BF5FEA500E50F1000041EBF2
:10C57000045170BD06F0004646EA010140EA02009F
:10C5800081EA0301B4EB5C04C2BFD4EB0C0541EAC1
:10C59000045170BD41F480114FF0000E013C00F3D6
:10C5A000AB8014F1360FDEBF002001F0004170BDFA
:10C5B000C4F10004203C35DA0C341BDC04F1140413
:10C5C000C4F1200500FA05F320FA04F001FA05F29F
:10C5D00040EA020001F0004221F0004110EBD3706C
:10C5E00021FA04F642EB06015EEA430E08BF20EA98
:10C5F000D37070BDC4F10C04C4F1200500FA04F33B
:10C6000020FA05F001FA04F240EA020001F00041CC
:10C6100010EBD37041F100015EEA430E08BF20EA3F
:10C62000D37070BDC4F1200500FA05F24EEA020E87
:10C6300020FA04F301FA05F243EA020321FA04F0B6
:10C6400001F0004121FA04F220EA020000EBD3706D
:10C650005EEA430E08BF20EAD37070BD94F0000F6D
:10C660000FD101F00046400041EB010111F4801FA1
:10C6700008BF013CF7D041EA060195F0000F18BF52
:10C68000704703F00046520043EB030313F4801F8E
:10C6900008BF013DF7D043EA0603704794EA0C0F48
:10C6A0000CEA135518BF95EA0C0F0CD050EA41065E
:10C6B00018BF52EA4306D1D181EA030101F00041DB
:10C6C0004FF0000070BD50EA410606BF1046194603
:10C6D00052EA430619D094EA0C0F02D150EA01360F
:10C6E00013D195EA0C0F05D152EA03361CBF104650
:10C6F00019460AD181EA030101F0004141F0FE41EF
:10C7000041F470014FF0000070BD41F0FE4141F472
:10C71000780170BD70B54FF0FF0C4CF4E06C1CEA72
:10C7200011541DBF1CEA135594EA0C0F95EA0C0F27
:10C7300000F0A7F8A4EB050481EA030E52EA0335E2
:10C740004FEA013100F088804FEA03334FF0805503
:10C7500045EA131343EA12634FEA022245EA111530
:10C7600045EA10654FEA00260EF000419D4208BFE1
:10C77000964244F1FD0404F5407402D25B084FEA8E
:10C780003202B61A65EB03055B084FEA32024FF43A
:10C7900080104FF4002CB6EB020E75EB030E22BF97
:10C7A000B61A754640EA0C005B084FEA3202B6EB57
:10C7B000020E75EB030E22BFB61A754640EA5C0006
:10C7C0005B084FEA3202B6EB020E75EB030E22BF96
:10C7D000B61A754640EA9C005B084FEA3202B6EB97
:10C7E000020E75EB030E22BFB61A754640EADC0056
:10C7F00055EA060E18D04FEA051545EA16754FEAB8
:10C8000006164FEAC30343EA52734FEAC2025FEAD5
:10C810001C1CC0D111F4801F0BD141EA00014FF064
:10C8200000004FF0004CB6E711F4801F04BF014335
:10C830000020B4F1FD0C88BFBCF5E06F3FF6AFAE51
:10C84000B5EB030C04BFB6EB020C5FEA500C50F1E1
:10C85000000041EB045170BD0EF0004E4EEA113164
:10C8600014EB5C04C2BFD4EB0C0541EA045170BD6B
:10C8700041F480114FF0000E013C90E645EA060EAF
:10C880008DE60CEA135594EA0C0F08BF95EA0C0FDD
:10C890003FF43BAF94EA0C0F0AD150EA01347FF425
:10C8A00034AF95EA0C0F7FF425AF104619462CE7FC
:10C8B00095EA0C0F06D152EA03353FF4FDAE10465F
:10C8C000194622E750EA410618BF52EA43067FF4B0
:10C8D000C5AE50EA41047FF40DAF52EA43057FF440
:10C8E000EBAE12E7000000000000000000000000B6
:10C8F0004FF0FF3C06E000BF4FF0010C02E000BF2C
:10C900004FF0010C4DF804CD4FEA410C7FEA6C5C0E
:10C910004FEA430C18BF7FEA6C5C1BD001B050EAB1
:10C92000410C0CBF52EA430C91EA030F02BF90EA9C
:10C93000020F0020704710F1000F91EA030F58BF5B
:10C94000994208BF90422CBFD8176FEAE37040F0BD
:10C95000010070474FEA410C7FEA6C5C02D150EA5B
:10C96000013C07D14FEA430C7FEA6C5CD6D152EA16
:10C97000033CD3D05DF8040B704700BF84461046DB
:10C9800062468C461946634600E000BF01B5FFF7DA
:10C99000B7FF002848BF10F1000F01BD4DF808EDAA
:10C9A000FFF7F4FF0CBF012000205DF808FB00BF7B
:10C9B0004DF808EDFFF7EAFF34BF012000205DF8D5
:10C9C00008FB00BF4DF808EDFFF7E0FF94BF012022
:10C9D00000205DF808FB00BF4DF808EDFFF7CEFF23
:10C9E00094BF012000205DF808FB00BF4DF808ED62
:10C9F000FFF7C4FF34BF012000205DF808FB00BF33
:10CA00004FEA410212F5001215D211D56FF4787376
:10CA1000B3EB625212D94FEAC12343F0004343EA19
:10CA2000505311F0004F23FA02F018BF40427047F4
:10CA30004FF00000704750EA013005D111F000407E
:10CA400008BF6FF0004070474FF00000704700BF14
:10CA50004FEA4102B2F1E04324BFB3F5001CDCF120
:10CA6000FE5C0DD901F0004C4FEAC0024CEA507058
:10CA7000B2F1004F40EB830008BF20F00100704787
:10CA800011F0804F21D113F13872BCBF01F000408A
:10CA9000704741F480114FEA5252C2F11802C2F1BC
:10CAA000200C10FA0CF320FA02F018BF40F001003D
:10CAB0004FEAC1234FEAD32303FA0CFC40EA0C00EF
:10CAC00023FA02F34FEA4303CCE77FEA625307D12C
:10CAD00050EA01331EBF4FF0FE4040F44000704763
:10CAE00001F0004040F0FE4040F40000704700BFFD
:10CAF000844641EA000313F003036DD1403A41D369
:10CB000051F8043B40F8043B51F8043B40F8043B27
:10CB100051F8043B40F8043B51F8043B40F8043B17
:10CB200051F8043B40F8043B51F8043B40F8043B07
:10CB300051F8043B40F8043B51F8043B40F8043BF7
:10CB400051F8043B40F8043B51F8043B40F8043BE7
:10CB500051F8043B40F8043B51F8043B40F8043BD7
:10CB600051F8043B40F8043B51F8043B40F8043BC7
:10CB700051F8043B40F8043B51F8043B40F8043BB7
:10CB8000403ABDD2303211D351F8043B40F8043B57
:10CB900051F8043B40F8043B51F8043B40F8043B97
:10CBA00051F8043B40F8043B103AEDD20C3205D367
:10CBB00051F8043B40F8043B043AF9D2043208D05F
:10CBC000D2071CBF11F8013B00F8013B01D30B88D1
:10CBD00003806046704700BF082A13D38B078DD0AF
:10CBE00010F003038AD0C3F10403D21ADB071CBF81
:10CBF00011F8013B00F8013B80D331F8023B20F8EB
:10CC0000023B7BE7043AD9D3013A11F8013B00F823
:10CC1000013BF9D20B7803704B7843708B788370AB
:10CC200060467047000000000000000000000000A7
:10CC3000704700BF0000000000000000000000007E
:10CC4000704700BF0000000000000000000000006E
:10CC5000FEE700BF00000000000000000000000030
:10CC6000FEE700BF00000000000000000000000020
:10CC7000FEE700BF00000000000000000000000010
:10CC8000204B214A214830B500249C60D9684FF6DA
:10CC9000FF0529400A43DA60C2681D491D4D42F074
:10CCA0008072C2600A6842F001020A6010202022ED
:10CCB00083B0D87783F8222000F0FAF800F078F8F3
:10CCC00000F006FB00F0B4FC00F0EAFC284640212E
:10CCD00000F0EEF9A5F1300301229861027784F3A8
:10CCE000118862B69B690C49996105F15000009466
:10CCF0000A4B4FF4EC7100F0FBF9094B836103B070
:10CD000030BD00BF00ED00E00003FA05F0ED00E0EB
:10CD1000001000E0700C00206036010871CC0008A3
:10CD20005036010800000000000000000000000074
:10CD3000F8B5134CA269D37F0BB1013BD377116ACD
:10CD4000E369104E01311162A26AB34202F101029D
:10CD5000A26213D09D68013D9D607DB920271A68AD
:10CD6000D968DD605660E26185F3118818698847EB
:10CD700087F31188E3699A68002AF0D0F8BD00BFF4
:10CD8000400C00205C0C00200000000000000000AF
:10CD9000034A516853685B1A9842FBD8704700BF3A
:10CDA000001000E000000000000000000000000093
:10CDB000054B4FF0FF30002103F11C0258629962CD
:10CDC000C3E90722704700BF400C002000000000AC
:10CDD00030B40D4DEC690361A368C260994204D977
:10CDE0002468C91AA3688B42FAD36368C0E9004378
:10CDF000186060608160A3684FF0FF32591AA1602B
:10CE00006A6230BC704700BF400C00200000000088
:10CE1000036841689A6830B48568064C2A449A6071
:10CE20000B60056800224FF0FF336960C2606362E7
:10CE300030BC7047400C00200000000000000000E3
:10CE4000202383F31188037F072B0ED8DFE803F03C
:10CE5000280D0D2408040D08426A9368013393607D
:10CE6000D0E900231A600268536010B400224FF02A
:10CE7000FF3481680C4B446202771B689A688A42CF
:10CE8000FBD25A680021C0E900321060586081F37B
:10CE900011885DF8044B7047436A00221A60E4E78A
:10CEA000002383F311887047400C0020000000002D
:10CEB000034B0022C3E90033C3E904339A6070478F
:10CEC000400C0020000000000000000000000000F6
:10CED00001460022064B80680A771B689A688242E6
:10CEE000FBD25A680846C1E90032116059607047A8
:10CEF000400C0020000000000000000000000000C6
:10CF0000084B99691A6810B408770420C87710682C
:10CF1000186001244360147710465DF8044B9A6151
:10CF2000FFF7F6B8400C00200000000000000000F1
:10CF300030B54B1C87B012D00C4C0D4AA369054686
:10CF400001A8FFF745FF2846FFF7DAFF049B13B15E
:10CF500001A8FFF75DFFA369586A07B030BD034C15
:10CF6000FFF7CEFFA369586A07B030BD400C002020
:10CF700041CE00080000000000000000000000009A
:10CF8000144B70B49E6985680446B068616285423E
:10CF90004FF000020BD822771B689A689542FBD9A4
:10CFA0005A68C4E9003214605C6070BC7047327724
:10CFB0001A46126891688842FBD951687160012055
:10CFC00032600E6056602077314620469C6170BC0E
:10CFD000FFF79EB8400C0020000000000000000099
:10CFE000084A93691168DA7F88689B6822B9984279
:10CFF00034BF002001207047984294BF00200120D8
:10D00000704700BF400C002000000000000000003E
:10D010000D4B186870B402689C691A60A16853606F
:10D0200001260425002206779861E57722771B68A0
:10D030009A689142FBD95A682146C4E900321460CB
:10D040005C6070BCFFF764B8400C0020000000007A
:10D050000C4B186830B402689C691A60A168536070
:10D06000012500220577986122771B689A68914212
:10D07000FBD35A682146C4E9003214605C6030BCBE
:10D08000FFF746B8400C0020000000000000000040
:10D09000034B9B69DB7F0BB1FFF7DABFFFF7B8BF2C
:10D0A000400C002000000000000000000000000014
:10D0B00070B40E4C016404226569C277816000225D
:10D0C000012102268177C0E90E220262826100F10D
:10D0D000280100F12C0245610461868328616061AA
:10D0E000C0E90A12026370BC704700BF400C002008
:10D0F000F8B51D460446202383F3118864390144A2
:10D10000134E144B7769C1600D64069D4D640B6628
:10D1100002250423826002648583C377002500F121
:10D120002C0300F1280201218177C0E90467C0E9DE
:10D130000E550562856129463861C0E90A230363FB
:10D140007061FFF71DFF85F311882046F8BD00BF11
:10D15000400C002029C10008000000000000000071
:10D1600008B50146202383F311880820FFF7E0FE6D
:10D17000002383F3118808BD0000000000000000B8
:10D1800038B50E4B9C69A36A606204F12805AB4276
:10D1900007D01A68A2621846FFF79AFEA36AAB424C
:10D1A000F7D1637F9B0704D1D4E904231A61226974
:10D1B00053610F20BDE83840FFF7A2BE400C0020AD
:10D1C000202383F31188FFF7DBBF00BF00000000BE
:10D1D00003682BB10022026018465962FFF778BE3F
:10D1E000704700BF000000000000000000000000C9
:10D1F00069B1084B10B4024644689B690420C3E936
:10D200000024236053605DF8044BFFF791BE4FF09C
:10D21000FF307047400C00200000000000000000BC
:10D22000026890420AD010B4146804600346636038
:10D23000104651625DF8044BFFF74ABE704700BFCD
:10D2400038B5036898420BD004460D461A68226030
:10D25000184654605D62FFF73BFE23689C42F5D19F
:10D2600038BD00BF0000000000000000000000000A
:10D27000014B5B6883607047001000E00000000015
:10D280000F4B104A5B68C168F0B48468966F4268BF
:10D290001B1BD0E904459B1BE61845F10007013133
:10D2A0009342C0E90231C0E9046705D8026893429D
:10D2B00038BF0360F0BC70474360F0BC704700BFEC
:10D2C000001000E0400C0020000000000000000002
:10D2D00010B50C4C86B000234FF0FF310022684699
:10D2E000A367CDE9013303930023CDE90423009123
:10D2F000FFF7BEFF6846FFF7C3FF029BA36706B0B8
:10D3000010BD00BF400C0020000000000000000025
:10D310000023C0E900008360704700BF00000000E8
:10D32000836B027F19430A2A816309D00B2A00D03C
:10D330007047436A8B43FBD100234362FFF7C8BDAC
:10D34000436A1942F8D17047000000000000000055
:10D3500070B50468A0420FD006460D46E3682B4323
:10D36000E36015B12269134203D0D4E90101FFF74C
:10D37000D7FF2468A642F1D170BD00BF00000000B5
:10D3800038B50C4B9D69202383F31188AB6B13EAEE
:10D39000000406D1044668620A20FFF7B1FDAB6BBA
:10D3A0001C4023EA0403AB63002383F31188204667
:10D3B00038BD00BF400C002000000000000000004D
:10D3C00030B4029C046200250A4485600261C0E911
:10D3D0000000C160C0E90511C36130BC704700BFE7
:10D3E000D0E90532934211D0826810B501325C1C3D
:10D3F000826044611970D0E904329A4201D3C36853
:10D4000043610021FFF70CFF002010BD8268002A55
:10D41000EAD06FF003007047000000000000000039
:10D4200070B520230E46044683F31188C3692BB1DF
:10D43000984703E0FFF7DCFE002815DBA5683146BE
:10D440002046002DF6D0A169A36825694A1C013B3E
:10D45000AA42A360A26128BFE368087828BFA3613D
:10D46000002383F3118870BD85F3118870BD00BF60
:10D470002DE9F04F044683B0894693461D46D0F807
:10D480001C80202787F3118800260197B246B8F147
:10D49000000F05D02046C04702E0FFF7A9FEE0B923
:10D4A000A76829462046002FF7D0A269A368511C1F
:10D4B000013BA161A360137809F8013B2369A269CC
:10D4C0009A4224BFE368A3618AF311880136B34509
:10D4D00005D0019B83F31188D9E787F31188304683
:10D4E00003B0BDE8F08F00BF0000000000000000A6
:10D4F00030B4029C82608D18C0E90315C0E907347E
:10D50000C0E90000C0E9051130BC70470000000010
:10D51000F8B504460F461646202383F3118803E02E
:10D52000FFF766FE002818DBA56831462046002D6F
:10D53000F6D06269A368511C013B6161A36017705A
:10D54000D4E904329A4224BFE3686361E36903B11A
:10D550009847002080F31188F8BD85F31188F8BD45
:10D5600038B5D0E905239A420FD082680569591C65
:10D57000013282608161A9421C7801D3C368836152
:10D580000021FFF74DFE204638BD8268002AECD00E
:10D590006FF0020038BD00BF000000000000000076
:10D5A0002DE9F04F83B004460D4616460193D0F89E
:10D5B0001C804FF0200989F311880027BA46A36820
:10D5C00005F1010B204603B36169A3684A1C013BC6
:10D5D0006261A3602B780B70D4E90431994224BFB7
:10D5E000E3686361B8F1000F00D0C0478AF3118887
:10D5F000013E07F1010712D089F31188A3685D4647
:10D6000005F1010B2046002BDED101990093204645
:10D61000FFF7EEFD009B0028D1D083F31188384638
:10D6200003B0BDE8F08F00BF000000000000000064
:10D63000054A064B0648074922F0070223F0070374
:10D6400002600B60704700BFB72B00200000022073
:10D650009C0E0020980E002000000000000000003A
:10D660000346202282F311880849094A0868126893
:10D67000073323F00703121A93429ABF1B180B605B
:10D680000020002383F31188704700BF9C0E002008
:10D69000980E0020000000000000000000000000C4
:10D6A000044B054A1A6003F110000022C3E902226C
:10D6B000FFF72EBEA00E002061D60008000000007B
:10D6C00080B4094A536823F0010300AF5360EFF3BD
:10D6D0000983683383F30988002383F31188BD46E7
:10D6E0005DF8047B704700BF30EF00E000000000F1
:10D6F00098B5202300AF83F31188114B5B6813F4B6
:10D70000006302D183F3118898BDF1EE103AEFF374
:10D7100009840C4B4FF08072DB6844F8083C44F8F5
:10D720004C2CA4F1680383F30988FFF759FC18B166
:10D73000054B44F8503C98BD044B44F8503C98BD10
:10D7400000ED00E030EF00E039C100083CC1000806
:10D7500008B500F0DDFD0C4800F0EAFF00F018F815
:10D7600000F03EF800F04CF800F09AF800F0F8F8FD
:10D7700000F00EF900F01CF900F0EAF801F0B8FE34
:10D78000BDE8084000F0FCB8E037010800000000E8
:10D7900000F0B6BF00000000000000000000000024
:10D7A00030B40021012400F1180200F11C0300F143
:10D7B00020050470416000F1240400F12801826119
:10D7C000C36100F1080200F11003C0E9085481624E
:10D7D000C0E90222C0E9043330BC704700000000F9
:10D7E00001F0CEB9000000000000000000000000C1
:10D7F00001220023027043600C30FFF789BD00BF97
:10D8000001F0EEBC0000000000000000000000007D
:10D810000122002302704360704700BF0000000037
:10D820000C30FFF725BE00BF000000000000000024
:10D830000C304FF0FF33FFF71BBE00BF00000000AD
:10D840003030FFF7ADBE00BF000000000000000058
:10D8500030304FF0FF33FFF7A3BE00BF00000000E1
:10D860000C30FFF7DDBD00BF00000000000000002D
:10D870000C304FF0FF31FFF7D3BD00BF00000000B8
:10D880003030FFF745BE00BF000000000000000080
:10D8900030304FF0FF32FFF73BBE00BF000000000A
:10D8A00001F06EBD0000000000000000000000005C
:10D8B00070B50E4B044682B040F8043B012600943C
:10D8C00015460B46606004F1540104F10C00267209
:10D8D0001022FFF775FD00942B4604F1640104F15A
:10D8E00030001022FFF704FE02B070BD8036010840
:10D8F00010B52023044683F3118801F051FD022363
:10D900002372002383F3118810BD00BF00000000C4
:10D9100038B5436904460D463BB1294604F10C0075
:10D92000FFF75EFD00280BDB38BD04210844FFF73C
:10D930000FFD294604F10C00FFF752FD0028F3DA31
:10D94000201D8021BDE83840FFF702BD0000000027
:10D95000704700BF00000000000000000000000051
:10D9600001F0C6BB00000000000000000000000045
:10D97000012200230270C0E901330C30FFF7C8BC5C
:10D9800001F04EBC0000000000000000000000009C
:10D9900001F08EBD0000000000000000000000004B
:10D9A000002301220270437083704360704700BF00
:10D9B00001F0FEB8000000000000000000000000C0
:10D9C000002301220270C36183620362C362436267
:10D9D0000363C0E90133704700000000000000004D
:10D9E000002202210170C264C0E90222C0E90422BF
:10D9F000826180F8342001F0F3B800BF000000001D
:10DA000070B50023044680F8343000F1440201F080
:10DA100077F963689B68002B33D02046984780B322
:10DA2000E16B94F8443094F84B0094F84A2042EAB1
:10DA300000228A422CBF0A46E2631806E16800F120
:10DA40009980002A7BD08B69A06B0021042584F883
:10DA50003450D8605A6019709960204601F060F91E
:10DA6000202383F31188638913F0010105D143F06A
:10DA700001036381204601F0D3FA002383F3118868
:10DA800070BD94F8443013F06005184611D00021A1
:10DA9000204601F0FDFA0021204601F0E9FA636812
:10DAA0001B6813B1052120469847062384F83430BB
:10DAB00070BD94F8451003F07F0242EA0122B2F5EE
:10DAC000407F00F0148117D9B2F5C06F00F0F680E6
:10DAD00040F29980B2F5106F73D040F602418A424D
:10DAE00000F0D280B2F5006FD1D104F14F020121D4
:10DAF0002564C4E90E2196E7022A00F0AB8040F2CB
:10DB0000A180B2F5807F6FD0B2F5817FBFD194F84C
:10DB10004630002BBBD194F8483013F00F0107D0EA
:10DB20001E06204600F1FB8001F0C2FA94F8440082
:10DB30000023C4E90E3323640306E16836D44A693E
:10DB40000023052184F83410204619461370D36051
:10DB5000C2E9013301F054F9202383F311882389AA
:10DB600013F0010189D143F001032381204601F024
:10DB700067FA82E7D2B14B69A06B0021012584F8D6
:10DB80003450D8605A6019709960204601F038F915
:10DB9000202383F31188238913EA05017FF46DAFF5
:10DBA0002B432381204601F04BFA66E78A69002364
:10DBB000032184F8341019461370D360C2E901338D
:10DBC0004BE794F8463084F84F30002B40F09E80AD
:10DBD0000323237063681B68002BA9D02046022111
:10DBE000984794F84400A3E794F84630012B7FF45B
:10DBF0004EAFB4F84C30A56323F00203C4E90F55CF
:10DC0000A4F84C3098E740F202339A4243D0B2F580
:10DC1000A06F7FF43CAFB4F84430B3F5A06F87D168
:10DC200094F8463084F84E30204601F039F86368A5
:10DC30001B6813B1012120469847032394F8440040
:10DC4000237075E7EAB904F14C0002212264C4E9AB
:10DC50000E01E8E694F8483003F00F011B06204659
:10DC600057D401F02DF8012857D002287FF40FAFC8
:10DC7000304BA36302210023C4E90F1394F844300E
:10DC8000D1E6012A7FF403AF2B4AA26302210022CE
:10DC9000C4E90F12C7E694F84630002B7FF4F7AEC4
:10DCA00094F8483013F00F013FF442AF1D062046B0
:10DCB0003AD401F0DDF994F8440039E794F84900CA
:10DCC000616894F848304E6894F8462094F84710FC
:10DCD00043EA00232046B04700283FF4D8AED0E9FD
:10DCE00000132564C4E90E3194F844309BE694F89F
:10DCF0004630012B7FF4CBAEB4F84C30A56343F033
:10DD00000203C4E90F55A4F84C3015E7042323702F
:10DD100060E700F0E5FF0128A7D1084BA9E701F073
:10DD2000D7F994F8440003E701F0B2F994F84400FD
:10DD3000FEE600BFA0360108C0360108B036010873
:10DD400090F8343010B50446062B23D8DFE803F0F2
:10DD5000582A045858235800C3689A69032100239D
:10DD600084F83410204619461370D360C2E9013399
:10DD700000F0D6FF202383F31188638913F001019B
:10DD800005D143F001036381204601F049F90023E6
:10DD900083F3118810BD036C03B19847002384F806
:10DDA000343010BD90F84B0094F84A20E16BE368E2
:10DDB00042EA00229142D0D2188AB1FBF0F200FB75
:10DDC0001212002AC9D15B6911461A70DA60C3E9E0
:10DDD0000122204601F014F8202383F311882389BF
:10DDE00013F0010105D143F001032381204601F026
:10DDF00027F9002383F31188022384F8343010BDFF
:10DE0000002101F045F90021204601F031F9636855
:10DE10001B6813B1052120469847062384F8343047
:10DE200010BD00BF00000000000000000000000066
:10DE300090F83420062A14D80123934013F0670F7A
:10DE400010B5044627D113F008020BD0C3689B69B4
:10DE50009B682BB9036C03B19847002384F83430D6
:10DE600010BD7047DB06FBD5C3685B69052180F8F0
:10DE700034101A70DA60C3E90122114600F0C0FFC5
:10DE8000202383F31188238913F0010114D0002388
:10DE900083F3118810BD002101F0FAF8002120461B
:10DEA00001F0E6F863681B6813B105212046984726
:10DEB000062384F8343010BD43F00103238120464B
:10DEC00001F0BEF8E3E700BF000000000000000022
:10DED000430910B49B0000F1604404F5614403F170
:10DEE0006043090103F5614300F01F000122C9B23C
:10DEF00084F8001302FA00F0C3F880015DF8044BC7
:10DF000018607047000000000000000000000000E2
:10DF100000F1604000F56D400901C9B2017670471B
:10DF200008B5074B074A196801F03D01996013686D
:10DF30000BB150689847BDE80840FFF7D9BB00BF58
:10DF400000600240C00E0020000000000000000041
:10DF5000084B094819688268890901F03D0110B52C
:10DF60008C019C600AB1C0689047BDE81040FFF783
:10DF7000BFBB00BF00600240C00E002000000000D8
:10DF8000084B094819680269090C01F03D0110B5F8
:10DF90000C049C600AB140699047BDE81040FFF74F
:10DFA000A7BB00BF00600240C00E002000000000C0
:10DFB000084B094819688269890D01F03D0110B5C7
:10DFC0008C059C600AB1C0699047BDE81040FFF71E
:10DFD0008FBB00BF00600240C00E002000000000A8
:10DFE00008B5074B07485968026A01F03D01D9603E
:10DFF0000AB1406A9047BDE80840FFF779BB00BF0F
:10E0000000600240C00E0020000000000000000080
:10E01000084B09485968826A890901F03D0110B529
:10E020008C01DC600AB1C06A9047BDE81040FFF780
:10E030005FBB00BF00600240C00E00200000000077
:10E04000084B09485968026B090C01F03D0110B5F5
:10E050000C04DC600AB1406B9047BDE81040FFF74C
:10E0600047BB00BF00600240C00E0020000000005F
:10E07000084B09485968826B890D01F03D0110B5C4
:10E080008C05DC600AB1C06B9047BDE81040FFF71B
:10E090002FBB00BF00600240C00E00200000000047
:10E0A00008B5074B07481968026C01F03D019960FB
:10E0B0000AB1406C9047BDE80840FFF719BB00BFAC
:10E0C00000640240C00E00200000000000000000BC
:10E0D000084B09481968826C890901F03D0110B5A7
:10E0E0008C019C600AB1C06C9047BDE81040FFF7FE
:10E0F000FFBA00BF00640240C00E00200000000014
:10E10000084B09481968026D090C01F03D0110B572
:10E110000C049C600AB1406D9047BDE81040FFF7C9
:10E12000E7BA00BF00640240C00E002000000000FB
:10E13000084B09481968826D890D01F03D0110B541
:10E140008C059C600AB1C06D9047BDE81040FFF798
:10E15000CFBA00BF00640240C00E002000000000E3
:10E1600008B5074B07485968026E01F03D01D960B8
:10E170000AB1406E9047BDE80840FFF7B9BA00BF4A
:10E1800000640240C00E00200000000000000000FB
:10E19000084B09485968826E890901F03D0110B5A4
:10E1A0008C01DC600AB1C06E9047BDE81040FFF7FB
:10E1B0009FBA00BF00640240C00E002000000000B3
:10E1C000084B09485968026F090C01F03D0110B570
:10E1D0000C04DC600AB1406F9047BDE81040FFF7C7
:10E1E00087BA00BF00640240C00E0020000000009B
:10E1F000084B09485968826F890D01F03D0110B53F
:10E200008C05DC600AB1C06F9047BDE81040FFF795
:10E210006FBA00BF00640240C00E00200000000082
:10E220000E490F4A0F48002310B40B600E4C1946DC
:10E2300001E052F80C0C016044F833100133102B4C
:10E2400002F10C02F5D10949094A5DF8044B4FF07F
:10E25000FF338B60CB609360D3607047400F00202A
:10E26000DC36010810600240C00E00200060024051
:10E2700000640240000000000000000000000000F8
:10E28000F8B5204F467AD7F800C0012404FA06F505
:10E2900015EA0C0F33D11C4C45EA0C0504EBC60CF7
:10E2A00015F0FF0F3D6044F83620CCF8043004D060
:10E2B000164C236B43F40013236315F47F4F16D1E0
:10E2C00005682B6823F01F032B602C6814F00104F1
:10E2D000FBD1077A46683D23BB40212733602C6081
:10E2E0006F6152B1807AFFF7F3FD2046F8BD074C0D
:10E2F000236B43F480032363E2E71046F8BD204616
:10E30000F8BD00BF400F0020C00E002000380240C2
:10E31000174B4FF0FF311A69002210B419611A61CE
:10E32000586959615A61186A124C60F0805018623D
:10E330001A62586A59625A62196C41F08051196424
:10E34000216841F480712160196F01F44071B1F5C9
:10E35000007F03D04FF4803119671A67054A5DF8D2
:10E36000044B536823F400735360FFF759BF00BF99
:10E370000038024000700040000000000000000073
:10E380002A4B2B4A4FF080504FF4404118641160E3
:10E390001A6842F001021A601A689207FCD599685F
:10E3A000224A21F00301996099689960936813F0FB
:10E3B0000C03FBD110681D4900F0F9001060936058
:10E3C000136843F4803313600B689803FCD54B6FDC
:10E3D000164A43F001034B67536F9907FCD5154B61
:10E3E00053601368124943F0807313604B685A04FA
:10E3F000FCD50E490B689B01FCD50F4B0F4A8A6078
:10E4000040F205721A608B68084A43F002038B6081
:10E41000936803F00C03082BFAD1536C43F4804348
:10E420005364536E43F48043536670470038024090
:10E430000070004008544007003C02400094083837
:10E44000F0B4444D444C2B6C43F000732B64D4F86F
:10E4500000321B0C1B0443F0010343EA0023C4F801
:10E46000003200295BD00023C4F81C321846C4F8DF
:10E470000432C4F80C32C4F814321C46C30003F151
:10E48000804303F5C84301301C28C3F84042C3F859
:10E490004442F3D1304D0026012710681479C3009F
:10E4A00003F1804314F0010F03F5C84306F10106A0
:10E4B00007FA00F005D0D5F804C24CEA000CC5F804
:10E4C00004C214F0020F05D0D5F80CC24CEA000CBF
:10E4D000C5F80CC2640704D5D5F814420443C5F846
:10E4E00014429468C3F84042D468C3F84442D5F853
:10E4F0001C32B14240EA030002F11002C5F81C02CE
:10E50000CBD11549134AD1F8003223F00103C1F8E9
:10E510000032136C23F000731364F0BC7047C20028
:10E5200002F18042012302F5C842834043F0010317
:10E53000C4F84012C4F84412C2F84012C2F844129F
:10E54000C4F80412C4F81412C4F80C32C4F81C3213
:10E55000D7E700BF00380240006400400000000020
:10E5600010B50C4C0C49E26A2023916083F31188AA
:10E57000002104F10800FEF763FE04F11C000121F4
:10E58000FEF7E6FE002383F31188BDE81040FFF795
:10E59000AFB800BF440F00200101010000000000DF
:10E5A00038B5164CE36ADD68AA0711D1EB060BD526
:10E5B000E36A1021D960202383F311881048FEF705
:10E5C000C7FE002383F31188BDE83840FFF790B8F9
:10E5D0005A6922F002025A61202383F31188002134
:10E5E00004F11000FEF72CFE04F118000121FEF7E3
:10E5F000AFFE002383F31188D8E700BF440F00204B
:10E60000640F002000000000000000000000000077
:10E6100038B5164CE36A1D69AA0711D1EB060BD574
:10E62000E36A10211961202383F311881048FEF753
:10E630008FFE002383F31188BDE83840FFF758B8F8
:10E640005A6922F010025A61202383F311880021B5
:10E6500004F11000FEF7F4FD04F118000221FEF7AA
:10E6600077FE002383F31188D8E700BF440F002012
:10E67000640F002000000000000000000000000007
:10E6800038B51B4DEB6A5C681C225A6022071DD40A
:10E69000630717D5EA6A9369916921F07001916166
:10E6A00013F0700F03F0070118BF41F0080120229A
:10E6B00082F311880F4841EA0341FEF749FE002327
:10E6C00083F31188BDE83840FFF712B81A6828466E
:10E6D00022F00202032100F8281B20211A6081F396
:10E6E00011880021FEF734FE002383F31188CFE761
:10E6F000440F0020640F0020000000000000000014
:10E7000010B5064C2046FFF74BF80022044BE3629D
:10E7100011460E20BDE81040FFF792BE440F0020C6
:10E720000064004000000000000000000000000045
:10E730006849694A694B70B40D6B40F2FF16354366
:10E740000D630C6D34430C654168516081689160C4
:10E75000C168D16001695161416911628169516289
:10E7600001681160026A5A60426A9A60826ADA60DD
:10E77000C26A5A61026B1A62426B5A62C2691A60BB
:10E78000C26BC3F80424026CC3F80824426CC3F8BB
:10E790000C24826CC3F81424C26CC3F82024026DCC
:10E7A000C3F82424826BC3F8002403F50063826D50
:10E7B0005A60C26D9A60026EDA60426E5A61826E71
:10E7C0001A62C26E5A62426D1A60426FC3F8042424
:10E7D000826FC3F80824C26FC3F80C24D0F88020DD
:10E7E000C3F81424D0F88420C3F82024D0F888205B
:10E7F000C3F82424026FC3F80024D0F89020C3F893
:10E800000428D0F89420C3F80828D0F89820C3F83A
:10E810000C28D0F89C20C3F81428D0F8A020C3F806
:10E820002028D0F8A420C3F82428D0F88C20C3F8DE
:10E83000002803F54063D0F8AC205A60D0F8B0202F
:10E840009A60D0F8B420DA60D0F8B8205A61D0F8D5
:10E85000BC201A62D0F8C0205A62D0F8A8201A60F2
:10E86000D0F8C820C3F80424D0F8CC20C3F808247A
:10E87000D0F8D020C3F80C24D0F8D420C3F8142446
:10E88000D0F8D820C3F82024D0F8DC20C3F8242402
:10E89000D0F8C420C3F80024D0F8E420C3F804283A
:10E8A000D0F8E820C3F80828D0F8EC20C3F80C28EA
:10E8B000D0F8F020C3F81428D0F8F420C3F82028AA
:10E8C000D0F8F820C3F82428D0F8E020C3F80028B6
:10E8D00070BC704700380240000002400004024053
:10E8E0002DE9F04F02F0030CC2F38007C2F3C1061A
:10E8F000C2F341150024C2F3C3124FF00F0E4FF0C4
:10E9000001094FF0030830E0D0F820B00BEA0A0A02
:10E910004AEA03030362436809FA04FA23EA0A0392
:10E920003B4343606300D0F808A008FA03F3DB43DD
:10E930000AEA030A4AEA060AC0F808A0D0F80CA0BE
:10E9400003EA0A0A4AEA050AC0F80CA0D0F800A0B7
:10E9500003EA0A0343EA0C03036049081BD07F0063
:10E96000B600AD004FEA8C0C013404F007039B00A5
:10E970000EFA03FA11F0010F02FA03F36FEA0A0A22
:10E98000EBD0072CC0D9D0F824B00BEA0A0A4AEA27
:10E9900003034362BFE7BDE8F08F00BF0000000043
:10E9A00039483A4A70B5446BA369656945EA03433F
:10E9B00023F07F43934250D022D8073A934240D06D
:10E9C0000132934214D16268C36A22F400721B6858
:10E9D00062601A6842F001021A60626842F4805272
:10E9E00062605B68012B03D8236823F48063236093
:10E9F00015F00A0F18BFA369BDE87040FEF778BE96
:10EA0000234A934212D002329342F1D1C36A1B6867
:10EA10005E683EB32368028C43F4A06342F00102B7
:10EA200002842360BDE87040FEF762BE6368026B3B
:10EA300023F4007312686360136843F001031360EA
:10EA4000D6E7038C1A0A0BD003F0010343F0F0035E
:10EA500002F0060213432361CAE7038CC3F34703A2
:10EA60002361C5E7636823F400736360236843F49C
:10EA700000732360202383F311881C303146FEF796
:10EA8000A7FB86F31188B3E7740F0020080003008A
:10EA900082000700000000000000000000000000ED
:10EAA0003448F8B5D0E90C756C693A6804F45F43F2
:10EAB000DB436B61136823F01F031360A1B213687B
:10EAC000DB07FCD43A7AC66A7F683D2393403268FC
:10EAD0003B60136823F01F0313601368DF07FCD447
:10EAE000377A72683D23BB40136011F4807318BFFE
:10EAF00001238A05836044BF43F0020383604F050E
:10EB00000AD56A6822F400726A602A6843F0040336
:10EB100042F400722A6083600E0544BF43F008038C
:10EB200083604D0444BF43F020038360CA0424B2D1
:10EB300013D543F01003002C836016DB202383F3EE
:10EB400011886FF001010C48FEF742FB002383F3AC
:10EB50001188BDE8F840FEF7CBBD002C05DB002B8B
:10EB6000ECD1BDE8F840FEF7C3BD43F0400383603D
:10EB7000E4E700BF740F0020900F002000000000A9
:10EB800010B5074C2046FEF733FE064B064A62637B
:10EB9000002103F13C02E161C4E90B3210BD00BF6A
:10EBA000740F0020E8360108005800400000000003
:10EBB00010B5064C2046FEF703FF4FF0A043044A71
:10EBC000236500236265C4E9183310BDB00F00202F
:10EBD000C037010800000000000000000000000035
:10EBE000F8B5056D202306462B612C6914F020042E
:10EBF000FBD10C20FEF7CCF8776DBA6823464FF0B6
:10EC00000060541CFF2105EB431201339C42C2F803
:10EC10000009C2F8000BC2F80819C2F8081BF2D1AB
:10EC20003B684FF001124FF0FF31C5F81818C5F8D6
:10EC30001C28B3653B68326D6B6210231361146945
:10EC400014F01004FBD10C20FEF7A2F8D5F8003820
:10EC5000104A114923F4FE63C5F80038AB6943F448
:10EC6000402343F01003AB610923C5F81038C5F801
:10EC70001438F160C5F8104BC5F8002BC5F81049E1
:10EC8000C5F80029B36D03F1100243F48013B26597
:10EC9000AB62F8BD40800010903701080000000012
:10ECA000026D90F84E10D2F8003823F4FE6343EA68
:10ECB0000113C2F800387047000000000000000097
:10ECC0005831036D49015B5813F4004004D013F42C
:10ECD000001F14BF01200220704700BF0000000089
:10ECE0004831036D49015B5813F4004004D013F41C
:10ECF000001F14BF01200220704700BF0000000069
:10ED000000EB8101CB681B6A19685B685360116076
:10ED1000704700BF0000000000000000000000007D
:10ED200000EB810370B4DE68B5696A682A6129B9AD
:10ED3000402A03D94022094C6A6001E042F0C044F5
:10ED4000758A006D6B1E00EB41111344B3FBF5F3A4
:10ED500044EAC343C1F8103B70BC704740000060F8
:10ED60002DE9F041244E376D07EB40130546D3F8EB
:10ED7000084BC3F8084B20070AD5D7F814381907F1
:10ED800006D506EB85032946DB6830465B68984765
:10ED9000E2072ED5D7F81438DB072AD506EB850312
:10EDA000D9688B6958681A6990420CD37389CC680A
:10EDB00011480122AA4023EA02037381294623460F
:10EDC000BDE8F0411847121A0024C3E9012429467E
:10EDD0000948FFF7A5FF202383F31188336D03EB68
:10EDE0004515D5F8003B43F08063C5F8003B84F33C
:10EDF0001188BDE8F08100BFB00F002000000000C6
:10EE000000EB810310B4DC68026D60694368036144
:10EE10009BB169B1208A5DF8044B02EB4112411E9F
:10EE20001944B1FBF0F143EAC143C2F8103970470D
:10EE3000402B84BF40234360ECE702EB41124FF4C8
:10EE40000023C2F810395DF8044B70470000000041
:10EE50002DE9F041304E356D05EB40130746D3F8F0
:10EE60000849C3F80849E10716D5D5F81038DA077C
:10EE700012D506EB8003D9684B6958681A6990422D
:10EE80002AD33389D1F808800122BA4023EA020349
:10EE9000338139463046C047230606D50123D5F8CD
:10EEA000342803FA07F7174201D1BDE8F081202387
:10EEB00083F31188D5F83428F36D184822EA070245
:10EEC000C5F834281F430021F765FEF781F90023B8
:10EED00083F31188BDE8F081121A4FF00008C3E9EE
:10EEE000012839463046FFF78BFF202383F3118832
:10EEF000326D02EB47100123D0F8001941F00441B4
:10EF0000C0F80019D2F83418BB400B43C2F83438AB
:10EF100088F31188C0E700BFB00F00201010002058
:10EF200070B53A4D2E6D7469B3691C40E10474618B
:10EF300026D4A20448BFD6F80838230704D56B6846
:10EF4000DB680BB131489847E50624D46003D6F856
:10EF5000185807D5E9074FD4AA0742D46B0745D400
:10EF60002E074FD4240307D5E8032AD4A9032DD4B0
:10EF70006A0330D42B031DD4BDE87040FEF7B8BB44
:10EF80002846FEF72DFD6B681B68002BD1D00021B1
:10EF900028469847CDE7202383F31188B3691C489E
:10EFA00023F01003B3610021FEF712F9002383F36D
:10EFB0001188CBE70320FFF7D3FEBDE87040FEF7D2
:10EFC00097BB0020FFF7CCFEA903D1D50120FFF7A6
:10EFD000C7FE6A03CED50220FFF7C2FE2B03CBD5B6
:10EFE000E8E70120FFF734FF6B07B9D50220FFF7F0
:10EFF0002FFF2E07B6D505E00020FFF729FFAA074F
:10F00000ACD5EEE70320FFF723FFABE7B00F0020FE
:10F0100010100020000000000000000000000000B0
:10F02000036D03EB4111D1F8003B43F08063C1F85D
:10F03000003B7047000000000000000000000000DE
:10F04000026D10B402EB41140123D4F8000940F022
:10F050000440C4F80009D2F834085DF8044B03FA00
:10F0600001F10143C2F83418704700BF00000000EE
:10F07000036D03EB4111D1F8003B43F40013C1F8D9
:10F08000003B70470000000000000000000000008E
:10F09000036D03EB4111D1F8003943F40013C1F8BB
:10F0A0000039704700000000000000000000000070
:10F0B000036D03EB4111D1F8003B23F40013C1F8B9
:10F0C000003B70470000000000000000000000004E
:10F0D000036D03EB4111D1F8003923F40013C1F89B
:10F0E0000039704700000000000000000000000030
:10F0F00010B50A4C0A4B4FF6FF7220461A80FEF7F5
:10F1000037FC084B08480949094AE06103F124002B
:10F11000C4E90830C4E90A1210BD00BF4C12002037
:10F120007C12002030370108003001401600010633
:10F130004600010600000000000000000000000082
:10F14000F8B5264DEB6869681C69DA68087D1440DB
:10F15000E2B2D2431A6104F0020688B9620730D5E0
:10F160002B78042B29D09EB9E30705D56B681B4883
:10F170001B69984703232B70BDE8F840FEF7B8BA27
:10F1800004F004075EB12B78042B04D0002FEBD0E1
:10F1900004232B70E8E78B68E3B128469847002FDB
:10F1A000E2D02B78042BF3D16968CB68002BEFD029
:10F1B0000A48984704232B70D6E78B683BB1284652
:10F1C0009847002ED0D02B78042BE1D1ECE7002E0D
:10F1D000CAD0EAE7002FC7D0E7E700BF80120020BF
:10F1E00010B5034C2046FEF713FB024BE36010BD45
:10F1F0008012002000040040000000000000000019
:10F2000008B5202383F31188FDF792FD002383F3D3
:10F210001188BDE80840FEF76BBA00BF000000008F
:10F22000054B44F29F110020072259609860082185
:10F230000B201A60FEF76CBE10E000E0000000003A
:10F24000024AD36843F08003D36070470010014046
:10F250002DE9F843454E756FD5F80C902B68DA050B
:10F260009CB253D4202383F3118814F02F0F2DD098
:10F270003F4FA7F1040807E0A00669681DD42C6879
:10F28000A4B214F02F0F21D02307F5D014F0080FEB
:10F290000CBF00218021E00748BF41F02001A207F8
:10F2A00048BF41F04001630748BF41F480713846D0
:10F2B000FEF74EF8A0066968E1D5C9B24046FEF7F0
:10F2C00027FB2C68A4B214F02F0FDDD1002383F3A9
:10F2D000118819F0800F01D0220626D4630611D5BB
:10F2E000202383F31188D6E911239A422AD04FF6BE
:10F2F000BF7309EA03036FF04002EB6000232A604A
:10F3000083F31188BDE8F843FEF7F2B9202383F3B5
:10F3100011884FF40071301DFEF71AF86FF48073F6
:10F320002B60002383F311889CE7202383F311884B
:10F330001048FEF715F900280CDB6860002383F302
:10F340001188CBE7B36B002BD1D010210848FDF713
:10F35000FFFFCCE708210648FDF7FAFF4FF63F73A1
:10F3600009EA030343F04003EB60E7E7981200204B
:10F370009C120020C81200200000000000000000C5
:10F3800010B5044C044A20460021FEF791FA034BC5
:10F39000636710BD9812002041F200080010014080
:10F3A00038B51C4C037A002918BF0C46012B0546C2
:10F3B00023D06B6F184920688B4219D0174A9342AB
:10F3C00016D0174AB2FBF0F29A60A288E088218931
:10F3D00042F4045242F02C0240F0400041F001019E
:10F3E000002418615961DA601C601A685B6838BDD6
:10F3F0000C4AB2FBF0F29A60E7E70B4B9842D8D187
:10F400000A4A536C43F0100353640C212520FEF785
:10F410005FFDCEE7D0370108001001400014014025
:10F4200080DE800200BD01059812002000380240F5
:10F43000F8B51D4EB468E7682568636840F20F139D
:10F440001D421DD073681A696FF480732360BAB1CE
:10F45000ABB213F0080F0CBF00211021D80748BF32
:10F4600041F00401980748BF41F00801580748BF20
:10F4700041F02001D80548BF41F040010A489047BB
:10F480006A060CD57B060AD573685B6827F04007CF
:10F490006FF040022260E7600BB103489847BDE877
:10F4A000F840FEF725B900BF10130020000000004F
:10F4B00010B5064C2046FEF773FA054B054AA260CC
:10F4C00003F13C02C4E9043210BD00BF1013002058
:10F4D000483701080014014000000000000000004F
:10F4E000FEF74EBF0000000000000000000000001A
:10F4F000704700BF00000000000000000000000096
:10F500002DE9F04F2DED028B064691B089469246CB
:10F510004FF0000B99F8001009F1010271B1252993
:10F5200012D0336891469B683046984799F800108E
:10F530000BF1010B09F101020029F0D1584611B07D
:10F54000BDEC028BBDE8F08F99F801102D2903BFA7
:10F5500099F8021009F1020201230023302908BFA3
:10F560005178029306BF0132302720270132002450
:10F5700007E09AF800300AF1040A12F8011B03EBC5
:10F580004004A1F13003DBB2092B154604EB8400E3
:10F59000F3D92A29EDD02E294FF000084AD001F0E6
:10F5A000DF034C2B05F1010950D0A1F14103A1F17A
:10F5B0004402DBB2342A00F2D381DFE812F01E02EB
:10F5C000D101D101D101D1011E02D101D101D1015D
:10F5D000D101D101CD01D101D101D101D101D1019F
:10F5E0009701D101D1012702D101D101D101D1016E
:10F5F000D101D101D101D101D101D1014E011E02B0
:10F60000D101AA00D101D1011E02D101D101D10144
:10F61000D101D101CD01D101D101D1018800D101A8
:10F620009701D101D10127029AF800300AF1040AAA
:10F6300003EB420815F8011BA1F13003DBB2092BE3
:10F6400008EB8802F4D92A29EED0A8E72B78DBB39F
:10F65000A3F14402342A00F28581DFE812F0A2010E
:10F660008301830183018301A2018301830183015B
:10F67000830183017E01830183018301830183016F
:10F680004801830183019F01830183018301830179
:10F69000830183018301830183018301FF00A201B0
:10F6A00083015B0083018301A20183018301830144
:10F6B000830183017E01830183018301390083017A
:10F6C0004801830183019F010B46A946C0E7A94673
:10F6D000DAF800500AF1040A002D00F0A6812B7818
:10F6E0002946B8F1000F40F0BF81002B00F0CC811B
:10F6F00047F6FE782B4602E0B8F1010803D413F870
:10F70000012F002AF8D15B1AE41A013B019320274C
:10F71000AFE0A9460AF1070A2AF0070ADAE9000170
:10F72000FDF796F908EE100AB5EEC08AF1EE10FA70
:10F730000AF1080A00F16E810AAB0393019318EEF7
:10F74000100AFCF761FE08F1FF38B8F1080FCDE9A7
:10F75000040100F27381C04B53F828502846FCF78F
:10F7600031FEBE4BCDE90601A3FB0535EB0809933D
:10F770001D46FDEEC87A019BDFF8E0E2CDED087A88
:10F7800003F10B0817EE901A4246AEFB0103DB08AB
:10F7900003EB830C1846A1EB4C033033DBB202F8C9
:10F7A000013D01460028F0D10199A8EB0208084666
:10F7B000404401E012F8013F01F8013B8142F9D1D8
:10F7C000019A08982E2308F1FF3842440B700192E9
:10F7D000FCF708FE02460B46DDE90401FCF7B4FC29
:10F7E000DDE90623FCF76CFEFDF70AF9019B099A97
:10F7F0009A4903F10D080233002A08BF0546089311
:10F800004246A1FB00C3DB0803EB830E9C46A0EB42
:10F810004E033033A1FB0505DBB2ED0802F8013DD4
:10F820006046EED1A8EB0208019908F102000144FC
:10F830000846089901E012F8013F01F8013B8142B6
:10F84000F9D1089B039D43449846A8EB050808F1AD
:10F85000FF33A4EB080401930BE0A94610ADDAF8DE
:10F86000003005F8183D0023013C0AF1040A019319
:10F870002027002C6ADB029B002B7BD16342002CEB
:10F8800077D0297832682D29926877D0984601E0A0
:10F8900033689A6839463046904718F10108F7D125
:10F8A000019A002A4346A344FFF634AE1C46DDF815
:10F8B0000480336815F8011B9B6808F1FF38304657
:10F8C0009847B8F1FF3FF4D1019B0BF1010B5B446A
:10F8D0009B46002C3FF41EAE2546336839469B6894
:10F8E00030469847013DF8D1A34413E6A9464FF0AE
:10F8F0000A0C5AF8042B0DF1330100E00146B2FB6B
:10F90000FCF50CFB152202F13003392BC8BF02F1C4
:10F910003703DBB201F8013C481E2A46002DEDD129
:10F920000DF133050AAAA5EB00080392404401E05B
:10F9300011F8013B02F8013B8142F9D1A4EB080424
:10F9400008F1FF33002C0193039D94DA019B002BF7
:10F95000FFF6E0AD0024AAE7A9464FF0080CC8E77F
:10F960000B46A94610AD013C05F8183D0023019354
:10F970007FE71C46019B002B99DAAAE7302F85D13F
:10F98000304602939047019B3268013B0193029BF2
:10F9900092680BF1010B013598467BE74FF0100C94
:10F9A000A7E70AF10402DAF800109246002962DBA8
:10F9B0000AAD039505F10B02DFF8A0801046A8FB05
:10F9C00001C3DB0803EB830E9C46A1EB4E033033EF
:10F9D000DBB2614600F8013D0029F0D1121A2A4439
:10F9E00001E010F8013F05F8013BAA42F9D1039D5F
:10F9F000521B531EA41A01933BE75246192B52F88F
:10FA0000041BA94688BF9246D0D8CCE7A9464FF040
:10FA1000100C6EE72D238DF828300DF1290301938A
:10FA20000AABB1EE488A039389E60D490D46B8F159
:10FA3000000F3FF45DAE08F1FF385BE69FED047BFD
:10FA4000084D09958DED067B93E600BFAFF300806E
:10FA50000000000065CDCD41F0380108CDCCCCCC04
:10FA6000E038010800E1F505002BE4D14FF0FF3349
:10FA700001932027FDE62D238DF828300AAB49425B
:10FA80000DF12905039395E74FF0FF3301932027EC
:10FA9000F1E600BF000000000000000000000000D0
:10FAA00001212DE9F84308464B4C4C4E4C4D01F0DA
:10FAB00087FF0121022001F083FF0121042001F0D2
:10FAC0007FFF2027204619221021FEF709FF4FF45F
:10FAD0008069204639464FF010081922FEF700FFD2
:10FAE000678320464946A4F81A801922FEF7F8FEDB
:10FAF0003046A4F81A9019224FF48051FEF7F0FE18
:10FB000028469A224FF48071FEF7EAFE28469A2290
:10FB10004FF40071FEF7E4FE494628469A22FEF7AC
:10FB2000DFFE30469A224FF40051FEF7D9FE3046F0
:10FB30009A224FF48041FEF7D3FE30469A224FF4CA
:10FB40000041FEF7CDFE3A4620464FF48051FEF7C5
:10FB5000C7FE284603220121FEF7C2FE28460322E3
:10FB60000221FEF7BDFE284603220421FEF7B8FE5F
:10FB7000284603220821FEF7B3FE41462846032209
:10FB8000FEF7AEFE394628460322FEF7A9FE2846B8
:10FB900003224021FEF7A4FE304603220121FEF796
:10FBA0009FFE304603220221FEF79AFE20460322E2
:10FBB0000121FEF795FE204603220221FEF790FE6A
:10FBC000204603220421FEF78BFE20460322082153
:10FBD000BDE8F843FEF784BE00080240000402407E
:10FBE00000000240000000000000000000000000D3
:10FBF00070B5324D324C334E012328461A4600214F
:10FC000001F0E6FC284601230222082101F0E0FC75
:10FC1000284601230322112101F0DAFC04222846A0
:10FC20001146012301F0D4FC012320461A4619464F
:10FC300001F0CEFC204601230222092101F0C8FC7C
:10FC4000204601230322062101F0C2FC20460123A5
:10FC50000422052101F0BCFC012330461A46022192
:10FC600001F0B6FC304601230222032101F0B0FC72
:10FC70003046012303220C2101F0AAFC3046012367
:10FC80000422032101F0A4FC012328461A4609217D
:10FC900001F0F6FC284601230222082101F0F0FCC5
:10FCA000012320461A46082101F0EAFC20460123E0
:10FCB00002220921BDE8704001F0E2BC00200140B1
:10FCC000002101400022014000000000000000006F
:10FCD00008B54FF4A0720021104803F069FC104AE7
:10FCE0004FF47A7302F1A00122F8023F01338A42F5
:10FCF0009BB2F9D10B4A4FF4FA6302F1A00122F84A
:10FD0000023F013391429BB2F9D101F0A9FDF220EB
:10FD100001F0B6FDBDE8084001F0C2B9441300206F
:10FD200042130020E2130020000000000000000049
:10FD300070B5D422002103F03BFC0346184C19494E
:10FD400019481A4A1C629962194C1A491A4D58628C
:10FD50001A631A481A4ADC6319661A4C1A4E5D6314
:10FD600001211A4D1C64D865194C1A48997283F800
:10FD700048101A6100219A61DA665A674FF0824290
:10FD8000D9721973597383F884105E611E67DD613F
:10FD90009D679A635A64DC645C651865986570BDFC
:10FDA000000002430050C3470050C3C70000964301
:10FDB000000064423333733F0080BB440AD7A33B47
:10FDC0000000704200002041000070C2000020C20C
:10FDD0000000A0420000C842000000000000000037
:10FDE000F0B5074683B0451C4FF47A7440F2524692
:10FDF00009E0BDF80630B4424FEA132205F8012CA1
:10FE000005F8023B0BD020460DF1060101F010F978
:10FE10000134A4B20028ECD03846FFF789FF03B0C4
:10FE2000F0BD00BF00000000000000000000000066
:10FE300008B5224B224A9B6922499A612248234DE8
:10FE4000234CDFED24AA9FED24AADFED249A9FED39
:10FE5000248A9FED249ADFED248AFFF751FB40F6B8
:10FE6000C410FDF77DF9638907EE103AB8EEC77A42
:10FE7000238A89EE870A07EE903AF8EE677A30EE29
:10FE8000480A67EEAA7A80EE080A67EE8A7AC5ED1C
:10FE9000007A02F0BDF980EE090A41F64C50F7EE07
:10FEA000006A30EE280A9FED117AC6EE807A77EE6E
:10FEB000C77AC5ED017AFDF753F9D0E7400C002071
:10FEC000403901084C39010898120020FC2100201B
:10FED0002C1300206740533A74D195413C361C4C9A
:10FEE00000401C4600A056450FCF5B3B3393884330
:10FEF00070B5714C2368013303F00F02022A2DED17
:10FF0000048B236000F08B80012A79D013F0010369
:10FF10006FD16A4C6A4A217853626A4A11F0010F24
:10FF200013896949D28808D10E8B8D8AC88A013617
:10FF30001D4410440E838D82C8820D8A488A5B1B43
:10FF4000121A20789BB292B29D1840F001006D42C7
:10FF50001BB212B22070C0078D800B804A8065D51D
:10FF60005A4C9FED5B7AD4ED008ADFED5A7A9FED13
:10FF70005A8A78EE878AB6EE009AF4EEE78AF1EEB6
:10FF800010FAA8BF77EEE88A84ED0A8AC4ED008AE9
:10FF900084ED099AB0EE680A02F0F2F8F0EE409AA9
:10FFA000B0EE680A02F0D4FB69EE886A68EE407A27
:10FFB000E0EE096A494BE9EE897ADFED495AC4ED72
:10FFC0000B7AB1EE667AB0EE476AA7EEA56AA7EEA5
:10FFD000E57AF6EE005A66EE257A27EE257AC4ED2C
:10FFE0000C6AC3ED016AC3ED027A83ED037A00F077
:10FFF0003FFCBDEC048B6420BDE8704002F0B0B85B
:020000040801F1
:10000000384D394B394ED3F8C8203368EA61284659
:10001000AB6100F005FB2A6A2368B26076E73248DC
:1000200000F06EFE236803F00F026DE707EE902AE2
:1000300091ED036A9FED2E7AD1ED026A2A4A234C94
:1000400092ED2E9AF8EEE77AB0EE490A67EE867ADC
:1000500006EE103A77EEA78AB8EEC68A68EE878A6F
:1000600028EE268AC4ED047AE8EE078A84ED038A36
:10007000C4ED068A84ED058A84ED009A02F080F8CA
:10008000F0EE409AB0EE490A02F062FB68EEA97AFF
:1000900068EE808AE8EE007AE8EE698AC4ED087AB4
:1000A000C4ED078A00F0F4FA94ED099A94ED0A8AF7
:1000B000D4ED008A6EE700BF84140020E820002001
:1000C000001800402C130020E02100207C2100209B
:1000D0006F12033BDB0FC94000000000BC21002071
:1000E000D7B3DD3F582100202C220020D82000204B
:1000F0003ACD133F000000000000000000000000A7
:100100002DE9F04FD14DD24FD249D348DFF880933B
:10011000ABB0FFF7F5F901F0E3F8284601F0B8FCC1
:100120003846002401F0B4FC01216C6208467C6270
:10013000012601F065FC284605A94FF4001241F2A2
:100140008243CDE90523ADF81C408DF81E6001F017
:100150007FFDEB6AC14A1092F3404FF00408284635
:1001600010A9CDE91234BE4B1493ADF8448001F0D0
:10017000E7FD10A9284601F01BFE10A9284601F052
:100180005FFE10A9284601F0A3FE2846082101F0D1
:10019000D7FE2846082101F0DBFE2846082101F0A1
:1001A000E7FE2846082101F0EBFE4FF008224FF44D
:1001B000A003CDE9082328464FF0005308A90A936D
:1001C000ADF82C4001F0ECFE3146284601F010FF5E
:1001D0003146284601F094FD3146A24801F0F0FB7B
:1001E00031464FF4E06001F00BFC23469E4A9F48E5
:1001F0000321FEF745F89E4B1D930C231F939D4A48
:100200001C924FF400534FF480724FF4806A4846BA
:100210004FF4006B23931BA94FF40033CDE9242343
:100220001B941E942094CDE92644CDE92844CDE9C1
:1002300021AB01F05DFA3146484601F089FA3246B9
:100240004846102101F094FA16224FF480430CA87E
:100250000C920E930D940F9401F092F94FF000530D
:1002600015A91793DFF82C9283488DF868804FF01A
:100270005063189315948DF858608DF8594019946F
:1002800001F056F915A97D4801F052F915A9484623
:1002900001F04EF9FFF7ACFC304601F0E1F93146D0
:1002A000754801F085F93146744801F081F931460D
:1002B000484601F07DF93146022001F0A1FB05A975
:1002C000384642F6041306930594ADF81C408DF8A9
:1002D0001E4001F0BDFCEB6A604A109210A9604A12
:1002E00014923846CDE9123401F02AFD384608212F
:1002F00001F026FE10A9384601F05AFD38460821C3
:1003000001F026FE10A9384601F09AFD3846082172
:1003100001F02EFE3146384601F0F2FC31463846F7
:1003200001F066FE3146384601F052FE2846202193
:1003300001F09EFE2846802101F0BAFE2146384693
:1003400001F08EFE4146384601F0A2FE31463846A5
:1003500001F0E6FC3146284601F0E2FC3146284631
:1003600001F036FE3146304601F03AFB4FF0FF32E5
:10037000532305A94FF08040CDE905320392ADF833
:100380001C4001F065FC31464FF0804001F0C8FC94
:100390002B68DFF8048143F002032B603B6843F0D5
:1003A00002033B60EB6A7B63EB6ABB63EB6AFB6354
:1003B0002B6823F002032B603B6823F002033B60B1
:1003C00000F09EFFA9F585393146402001F008FB79
:1003D000039A0692072305A948460593ADF81C40E9
:1003E00001F036FC3146484601F09AFC3146584649
:1003F00001F0F6FA204601F08BFEFF2001F098FE96
:10040000642001F0B5FE00F08BF91D4A1D4BA2F8E7
:1004100018A04FF480525A8398F8003064F3000318
:1004200088F8003000F0A4FA98F80020164B0094E9
:1004300060F3000288F800204FF4B36140221348B3
:10044000FCF756FE2BB0BDE8F08F00BF0000014066
:1004500000040140203901089812002060000100CA
:100460000001000205004000F1FE000860370108AD
:100470002C130020082301400020014000210140EE
:10048000000802400004024031FE000888140020E9
:100490007064024000220140E820002000000000BB
:1004A0002DE9F041164680460F4600F019FF0D4B2E
:1004B0000D4C1D6845F002051D60256845F00205DC
:1004C0002560C3F834809F63DE631A6822F002025D
:1004D0001A60236823F002032360BDE8F04100F0B6
:1004E0000FBF00BF000001400004014000000000F9
:1004F00008B5044B044A9B699A610120FCF740FF50
:10050000FBE700BF400C002070390108000000002C
:10051000F0B52C4C2C4D2D4F2D4E83B00146D422DE
:100520002046FCF7E5FA2B4B2B492C4A0020009083
:100530001860002328700870294D136029492A4A41
:100540002B600B60294D136029492A4A2B600B60F0
:10055000294D136029492A4A2B600B60294D1360ED
:10056000294A2A494FF47A733B6001232B601360B8
:10057000274D284A086002213060274B1060287000
:1005800084F884103F224FF4B3612448FCF7B0FD97
:1005900094F88430DBB2012B09D0022B01D100F09A
:1005A00087FA084803B0BDE8F040FFF7A9BDD4F8CA
:1005B000880000F01DFA034803B0BDE8F040FFF7E3
:1005C0009FBD00BF281A0020101B0020281B002000
:1005D000201B0020FC1A0020111B0020181B0020EB
:1005E000081B0020141B0020041B0020201A0020E0
:1005F000241A0020381B00203C1B00201C1B00205C
:100600000C1B0020241B0020301B00202C1B002072
:10061000001B0020341B0020F1040108401B0020B7
:10062000D0ED075A90ED066AD0ED007A90ED017A90
:10063000D0ED046A36EE656AF0EE675AE7EE065AC8
:10064000F4EEE56AF1EE10FAB0EE657A0BD4D0ED77
:10065000056AF4EEE56AF1EE10FA04DCF0EE656A84
:10066000C0ED085A01E0C0ED086A90ED025AD0EDE5
:10067000035AE5EE067A37EE667AE5EEC77AC0ED04
:10068000007A704700000000000000000000000039
:1006900010B51B4B1B4C2DED028BE169D96100227B
:1006A00018469A61FFF7BCFFD3ED087A9FED160A52
:1006B000C4ED097A67EEA77A144B30EE670AC3EDF2
:1006C000007AB5EE400AF1EE10FAB1EEC08A13D40A
:1006D0000F4B104A18469168226A9961DA61F1EE6F
:1006E000487A83ED048AC3ED057AFFF799FFBDECE4
:1006F000028B1B6AA36210BD02F07AF8E8E700BF24
:10070000EC2000207C2100203D0A673FDC210020F6
:1007100034210020D820002000000000000000004C
:100720002148224B2249234ADFF8C0C0F0B40578A3
:10073000214C224FE46A1C60002666F30005057018
:100740001F4D204C20480E610023C1E902551F4E69
:100750001F4D20495360A660E56025616761136005
:10076000936023601C4A2362C4F804C01B4C86605B
:10077000C5601B4E05614761C0F804C00360036299
:10078000184F19484C604FF08044CD608C60546025
:100790000E610B600B6248619760D5601661506115
:1007A00013601362F0BC7047E8200020BC210020D9
:1007B000E0210020D82000200000014058FF7FBF2A
:1007C0006740533AEC20002034210020CDCC4C3D32
:1007D00058FF7F3F58210020102100200000404199
:1007E0003333733F0AD7233C333373BF0AD7A33C59
:1007F0001B4AD2ED007AD2ED046A92ED057AF8EE4A
:10080000677AB6EE006A67EEA66A27EE877A77EE19
:10081000E67AC2ED046A77EEC77A82ED057A67EE72
:10082000867AFCEEE77A17EE903A9BB207EE903AA2
:10083000F8EEE77A938377EEA67AFCEEE77A17EE86
:10084000903A9BB207EE903AF8EEE77A538377EE50
:10085000877AFCEEE77A17EE903A1383704700BF71
:10086000BC2100200000000000000000000000008B
:100870003D4890ED017AD0ED027AB5EEC07AF1EE06
:1008800010FA08B5F5EEC07A23DBF1EE10FA13DAB0
:10089000D0ED036AF5EEC06AF1EE10FA41DB80EDAF
:1008A000057AC0ED046AFFF7A3FFBDE80840428B5C
:1008B000018B808BFFF7F4BDC0ED057A80ED047AE3
:1008C000FFF796FFBDE80840828B418B008BFFF756
:1008D000E7BDF1EE10FA35DBD0ED036AF5EEC06A44
:1008E000F1EE10FA0CDBC0ED056AC0ED047AFFF7FB
:1008F0007FFFBDE80840028B818B408BFFF7D0BDA6
:10090000F1EE666AB1EE477AC0ED056A80ED047AD1
:10091000FFF76EFFBDE80840428B818B008BFFF72D
:10092000BFBDF1EE677AF1EE666AC0ED057AC0ED03
:10093000046AFFF75DFFBDE80840828B018B408BA6
:10094000FFF7AEBDB1EE477AF1EE677A80ED057A3A
:10095000C0ED047AFFF74CFFBDE80840028B418BE5
:10096000808BFFF79DBD00BFBC2100200000000070
:10097000F8B5194B194D4FF480521A832B69DB04DB
:1009800058BF05240DD442F21070FCF7E9FB2B6927
:10099000013C13F4805FA4B203D1002CF3D12046B4
:1009A000F8BD0F4D0F4C104E0B4F002342F210704C
:1009B0002B8023803380FCF7D3FB0C4923883088BD
:1009C0002A88B3FBF0F34FF48054B2FBF0F24B8271
:1009D0000A8201207C83F8BD000402400008024026
:1009E000082200200A2200200C220020E021002002
:1009F00070B5284E284C294B306082B00025204627
:100A00004FF4817240211D70FDF76AFF4FF481722F
:100A100020468021FDF764FF01210420A4F5FE3467
:100A200000F0DEFF01214FF4804000F0E9FF2A468C
:100A30002B462046032101F04BFB3168204601394B
:100A400001F056F9A36943F4C04343F06003A36186
:100A5000E36943F06003E3612046012101F060F99E
:100A60000B21022000F0FCFF01244FF40062082358
:100A700068468DF8053000928DF804508DF80640D8
:100A800000F096FE29462820FDF722FA044B1C7040
:100A900002B070BD00080020000402401C220020AB
:100AA00024220020000000000000000000000000E0
:100AB00030B51F4C1F4D85B0204600224021FDF768
:100AC0000FFF204619222021FDF70AFF2046192298
:100AD0001021FDF705FF204619228021FDF700FFB8
:100AE000802323830121042000F07AFF002328467D
:100AF00041F2670201A90193ADF80C308DF80E3078
:100B0000029201F0A5F801221146284601F080FA70
:100B10002846012101F004F906211E20FDF7D8F92D
:100B20000549064B0220012208701A7005B030BD3D
:100B30000000024000080040242200201C22002067
:100B400000BF00BF00BF00BF144B1B691B051DD5B4
:100B5000134A14491378486A9BB11349134B096827
:100B6000A3FB01C31B09C91A814210D398420ED3BB
:100B70000F490B680133052B0B6007DD0023137051
:100B800070470B484B6201210360117070470549A3
:100B9000074A00234B621360704700BF0008024001
:100BA0001C2200200008004000080020CDCCCCCC46
:100BB00010220020000000000000000000000000E3
:100BC0003F4B404A1B782DE9F041022B4FF02007A4
:100BD000178326D0042B04D03A4B20225A83BDE839
:100BE000F081394B1A699007F6D5DA689107F3D589
:100BF000364937480A884FF6FD7401320A801C6175
:100C0000026952064DD433495A6B09883248334C35
:100C100092B2511A02801A6A218042F002021A62CC
:100C2000DAE72B4D1026B8466E83002400BF00BFC4
:100C300000BF00BFA5F8188000BF00BF00BF00BF05
:100C4000286900BF296900BF2A696400C1F38011C7
:100C5000C0F38010C2F38012A4B200F021FB08B1EF
:100C600044F001046F8300BF00BF00BF00BF013E1E
:100C7000DCD1C4F30D0307EE903ADFED196A9FED66
:100C8000197A194BF8EE677A102267EEA67A2A8352
:100C900067EE877A2022C3ED007A0A4B5A83BDE8BB
:100CA000F08112485A6B01880A4C114D92B2511AC8
:100CB000028022801A6A298022F002021A628BE7DF
:100CC00024220020000802400008004014220020D6
:100CD00000000240182200201622002028220020B6
:100CE0000000B44300008038202200201A22002097
:100CF000262200200000000000000000000000008C
:100D0000684B9FED696A9A885B88DFED686A07EE39
:100D1000102A07EE903A10B5B8EE477AF8EE677AE7
:100D200037EE467A77EEC67A2DED048BC7EE268A2B
:100D3000044687EEA69A90ED2E8AC0ED128A80EDC9
:100D4000149AB0EE480A01F01BFAF0EE409AC4ED96
:100D5000249AB0EE480A01F0FBFC68EEA98A29EE5D
:100D6000009AD4ED117A9FED526AC4ED218A78EE93
:100D7000C98AD4ED106A84ED229AD8EE867AB2EE52
:100D8000047A77EEA67A84ED250AF4EEC77AF1EEBE
:100D900010FA0FDCBAEE047AF4EEC77AF1EE10FA2C
:100DA00061D5F0EE477ADFED435ADFED436A9FED00
:100DB000437A07E0F0EE477ADFED415ADFED416A12
:100DC0009FED417A9FED416AC4ED107A38EE270A13
:100DD000C4ED118AB4EEC60AF1EE10FA2FDD30EE42
:100DE000460A84ED2E0A9FED3A5A9FED386A30EE9E
:100DF000050AB4EEC60AF1EE10FA2ADD30EE460A14
:100E000084ED2F0A94ED305A9FED306AC4ED327AAA
:100E100077EE057AF4EEC67AF1EE10FA36DCBDEC28
:100E2000048BF5EEC07AF1EE10FA48BF77EE867AC1
:100E3000C4ED316AC4ED307AC4ED335A10BDB5EE5D
:100E4000C00AF1EE10FA48BF30EE060A84ED2E0A11
:100E5000C9E7B5EEC00AF1EE10FA48BF30EE060A57
:100E600084ED2F0ACEE7DFED195A9FED1A7A9FED38
:100E70001A6AC7EEA56AB1EE0C5A66EE876A87EE6B
:100E8000857A26EE866AC6EE055A9BE7BDEC048B92
:100E900077EEC67AC4ED316AC4ED307AC4ED335AC8
:100EA00010BD00BF2C13002000209B4400F07F45A4
:100EB000C520803F6927D5C695F1C6C46EDBB6BF95
:100EC0006927D54695F1C6446EDBB63FDB0FC940B6
:100ED0009A99993E00007A440000F0420000000018
:100EE00070B5144B144D2DED028B00229FED138A2B
:100EF000DFED138A1A6005F1C9065A602C46631BA0
:100F000000EE103AB8EEC00AF0EE680A80EE080A69
:100F100001F016FA20EE080A01F0EAFBFDEEC07AB5
:100F200017EE903A04F8013BB442E8D1BDEC028BD5
:100F300070BD00BFC8230020FC22002000004843F1
:100F4000E4380E4000000000000000000000000037
:100F500038B51B4A1B4B12881B889CB292B2ECB965
:100F60004EF6EE63D31A18BF012303F50054164A58
:100F700001340133A40302EB8332944203D315E01E
:100F80000434A24212D923680133F9D10546204620
:100F900000F0F6FC09280DD080B238BD42B94EF6FB
:100FA000EE63E31AB3FA83F35B09DEE7802038BD12
:100FB000AB2038BD2946A01C00F0E2FCECE700BFE6
:100FC0000040000800800008FE3F0008000000000C
:100FD00010B5044600F004F900F57F523F320138A5
:100FE00001E0904209D010F8013FFF2BF9D02046D4
:100FF000022100F085FC80B210BD092010BD00BFA9
:1010000008B50820FFF7E4FFC0B2092800D008BDEA
:101010000021054800F0B4FC0928F8D11020FFF7A2
:10102000D7FFC0B208BD00BF0040000800000000AC
:10103000144B154A1B8812889BB210B42BB192B284
:10104000DAB9124B124C1A4602E0124B124C1A46F5
:101050001288904203D109E01A88904206D0043BDE
:10106000A342F9D801205DF8044B704733F8023CE5
:101070000B8000205DF8044B7047AB205DF8044BFB
:10108000704700BF0040000800800008FEBF000855
:1010900002800008FE7F00080240000800000000F7
:1010A0002DE9F041474D484E2C883388A4B24EF6C6
:1010B000EE6294429BB248D04FF6FF718C4235D01D
:1010C00024B1FFF79DFF80B2BDE8F081002BF8D07E
:1010D0008B4262D03D4D3E4FDFF8F8804FF0FF3637
:1010E00035F8023B3A883B49934208BF26B2B442E6
:1010F000184604F101040BD0FFF79AFF012807D02E
:10110000B8F8001035F8020CFFF722FF0928DBD1F0
:10111000A02CE5D100212C4800F032FC80B2092837
:10112000D2D10820BDE8F041FFF752BF002BF8D024
:101130009342C6D10820FFF74BFF0928C4D130469F
:10114000002100F01DFC80B2BEE75BBB1F4D224EAC
:10115000204F1C464FF0FF3835F8023B32881D49BE
:10116000934208BF0FFA84F84445184604F101047D
:101170000AD0FFF75DFF012806D0398835F8020C48
:10118000FFF7E6FE09289FD1A02CE5D100210D48EC
:1011900000F0F6FB80B2092896D11020BDE8F0419E
:1011A000FFF716BF4FF6FF7293428AD11020FFF768
:1011B0000FFF092888D12846002100F0E1FB80B20A
:1011C00082E700BF004000080080000844130020B0
:1011D00006800008D0230020064000080000000020
:1011E00000220849134601E031F8022F824204D060
:1011F00001330C2BF8D100207047034A52F823002A
:10120000704700BFB03901088039010800000000B4
:1012100008B540F20521034800F062FABDE8084035
:10122000FCF766BA0020014000000000000000004A
:1012300008B54FF4006000F003FB00B908BDFFF7EC
:101240007FFC4FF40060BDE8084000F001BB00BF28
:1012500008B50121064800F0EBFE00B908BDFFF714
:10126000AFFC01210248BDE8084000F0F1BE00BF1C
:101270000008004000000000000000000000000026
:1012800008B50221054800F0D3FE00B908BD0221CF
:101290000248BDE8084000F0DBBE00BF000401408A
:1012A000884205DD91420BDD8842A8BF08467047A1
:1012B000904209DD8842F5DA8842A8BF08467047A7
:1012C0009042A8BF104670479142A8BF11460846F9
:1012D000704700BF00000000000000000000000098
:1012E000044B1A6812B9202282F311881A6801325D
:1012F0001A607047D42300200000000000000000A6
:10130000054B1A6832B11A68013A1A601B680BB9AA
:1013100083F31188704700BFD42300200000000031
:1013200080B5134F134ABB69134CDFF854A0134D1B
:10133000DFF850909A61002642F2107813E0DAF854
:101340000010BA6A236808FB03F303F2E733521A6A
:10135000A9FB0313B2EB931F4FF0010306D92B70C7
:101360006420FBF7FDFE2368002BE8D12E70F7E721
:10137000400C0020D0390108E0230020D8230020B1
:10138000DC230020D34D62100000000000000000AC
:10139000014B1860704700BFE023002000000000F0
:1013A00030B50A4A0A490B4D0B4B0C4883B04FF439
:1013B0007A7414600024009440220C604FF466712B
:1013C0002C70FBF795FE03B030BD00BFE02300207A
:1013D000DC230020D823002021130108E82300206B
:1013E00010B5094C09490A48FCF782FA204640F238
:1013F00082324021FDF774FA204640F28232802189
:10140000BDE81040FDF76CBA00040240040800205B
:101410009812002000000000000000000000000002
:1014200008B5044B044A9B699A610A20FBF798FEB1
:10143000FBE700BF400C0020103A0108000000004C
:1014400008B50E4B0E4A9B690E4C9A6110252E462C
:1014500026834FF4FA70FBF783FE65834FF4FA702E
:10146000FBF77EFE25834FF4FA70FBF779FE658368
:1014700042F23410FBF774FEEAE700BF400C002094
:10148000003A0108000802400000000000000000CF
:1014900000B5B9B0FCF75CF9FBF7F2FB42F2107053
:1014A000FBF75EFEFEF7FCFAFEF712FCFFF718FDF5
:1014B000FFF796FF14491548FEF722F81449134820
:1014C000FEF71EF803A8FEF78BFC03A8FFF720F831
:1014D0000024FFF765FF4FF47A70FFF759FF0D4BBB
:1014E000009440224FF406710B48FBF701FE009474
:1014F0000A4B0B4840224FF40671FBF7F9FD6420BC
:10150000FBF72EFEFBE700BFE03901089812002030
:10151000EC3901084114010880270020211401083A
:1015200098290020000000000000000000000000DA
:1015300042680B6970B422F040720E790D688C68B5
:1015400022F4807242EA06222A434260CE6885680D
:10155000094A33432A4023434C79134343EA440363
:1015600083600A7DC36A013AD2B223F4700343EA6E
:101570000253C36270BC7047FDF7FFC0000000005B
:101580000749084A30B4D0E900354C682240D0E918
:1015900002402B431343234303434B6030BC70474B
:1015A00000230140E030FCFF0000000000000000CC
:1015B000836819B923F001038360704743F0010386
:1015C0008360704700000000000000000000000081
:1015D000092970B41CD9A1F10A0404EB4404C568BC
:1015E0000726A640A34025EA06042343062AC36033
:1015F0001AD90C2A25D90D3A02EB8202C36A1F249C
:101600009440914023EA04021143C16270BC7047C8
:1016100001EB410604690725B540B34024EA0504FF
:101620002343062A0361E4D8013A02EB8202436BAA
:101630001F249440914023EA04021143416370BC8B
:101640007047073A02EB8202036B1F2494409140DB
:1016500023EA04021143016370BC704700000000DC
:10166000054A536818B923F400535360704743F494
:1016700000535360704700BF00230140000000008A
:10168000092970B41AD801EB410604690725B54051
:10169000B34024EA050423430361836B0232C3F39E
:1016A0000154121BD2B202EB82021F24944023EA9F
:1016B000040391401943816370BC7047A1F10A048F
:1016C00004EB4404C5680726A640A34025EA0604A7
:1016D0002343C360E1E700BF0000000000000000FA
:1016E0006FEA112101607047000000000000000057
:1016F0000B6870B4D1E90524CD682B431343D1E9BD
:10170000072523431343D1E909422B43D1E90D6552
:101710002343134304680B4A334322402B431343B0
:101720000360D1E90B3442690D6922F007022343BB
:101730001343D1E90142436145608460C26070BCDB
:10174000704700BF3F801CF0000000000000000058
:10175000036819B923F001030360704743F00103E4
:10176000036070470000000000000000000000005F
:101770000B060CD54369AAB143F08003802943616D
:101780000FD0036801F01E011943016070478029E2
:1017900007D0002AF5D1036801F01E0123EA0101F8
:1017A0000160704723F0800380294361F3D17047C3
:1017B0000379827970B4056803F1804303F59E33A1
:1017C000EC43F2B1154A4179166826401660566816
:1017D000344054601C6825431D6000689468C3430E
:1017E0001C409460D468102903EA0403D3600DD030
:1017F00001F1804303F59E3370BC1A6810431860F2
:1018000070471A6814401C6070BC704793680343AB
:101810009360D3681843D06070BC7047003C0140AF
:10182000034B5B69034214BF01200020704700BFD7
:10183000003C01400000000000000000000000002B
:10184000FFF7EEBF000000000000000000000000F5
:10185000014B5861704700BF003C01400000000090
:10186000044B1A69002A03DA0349044A59605A6092
:10187000704700BF003C024023016745AB89EFCDB4
:10188000014BD860704700BF003C024000000000E0
:101890000E4BDA68D20310D4DA68D1060FD4DA68B6
:1018A000D20510D4DA6812F0E00F0AD1DB6813F029
:1018B000020F14BF0820092070470120704706203E
:1018C0007047072070470220704700BF003C02406D
:1018D00000B583B009238DF80730FFF7D9FF8DF8E5
:1018E00007009DF80730012BF7D09DF8070003B0E3
:1018F0005DF804FB00000000000000000000000094
:1019000070B5064661B101292FD002290CBF4FF4F2
