:020000040800F2
:100000000004002001C0000831CD000831CD0008F7
:1000100031CD000831CD000831CD000831CD0008C8
:1000200031CD000831CD000831CD000851DA00088B
:1000300031CD000831CD000831CD0008C1070108DD
:1000400031CD000831CD000831CD000831CD000898
:1000500031CD000831CD000831CD000831CD000888
:1000600031CD000831CD000831CD0008D1E70008BE
:1000700001E8000831E8000861E8000891E800089C
:10008000C1E80008F1E80008E142010871EE00084B
:10009000B1EE000821EF000891EF000831CD000813
:1000A00031CD000831CD000831CD000831CD000838
:1000B00031CD0008E10501082143010831CD0008D8
:1000C00031CD0008D1F40008D1F5000831CD000889
:1000D00031CD000831CD000831CD0008B10901084B
:1000E0000143010831CD000831CD000831CD0008B1
:1000F00031CD000831CD00085143010821E9000845
:1001000031CD000831CD000831CD000831CD0008D7
:1001100031CD000831CD000831CD000831CD0008C7
:1001200051E9000881E90008B1E90008E1E90008A7
:1001300011EA000831CD000831CD000831CD0008AA
:1001400031CD000831CD000831CD0008C1030108D0
:1001500041EA000871EA0008A1EA0008D109010893
:1001600031CD000831CD000831CD000831CD000877
:1001700031CD000831CD000831CD000831CD000867
:1001800031CD000831CD000831CD000831CD000857
:1001900031CD000831CD000831CD000831CD000847
:1001A00031CD000831CD000831CD000831CD000837
:1001B00031CD000831CD000831CD000831CD000827
:10C0000072B6334880F3098840F20000CCF2000099
:10C010004EF63471CEF200010860BFF34F8FBFF3CC
:10C020006F8F40F20000C0F2F0004EF68851CEF261
:10C0300000010860BFF34F8FBFF36F8F4FF0000018
:10C04000E1EE100A4EF63C71CEF2000108600620C7
:10C0500080F31488BFF36F8F00F052FE04F0A0FD50
:10C060004FF055301B491C4A91423CBF41F8040B2C
:10C07000FAE71A49164A91423CBF41F8040BFAE725
:10C080001749184A184B9A423EBF51F8040B42F820
:10C09000040BF8E700201549154A91423CBF41F8CE
:10C0A000040BFAE700F034FE124C134DAC4203DAF5
:10C0B00054F8041B8847F9E709F05AFB0F4C104D60
:10C0C000AC4203DA54F8041B8847F9E700F028BEB5
:10C0D00000080020000000200004002000040020D0
:10C0E0008092010800080020940C0020980C002089
:10C0F00010AF002000C0000800C0000800C0000809
:10C1000000C0000800000000000000000000000067
:10C110002DE9F04F2DED108AC1F80CD0D0F80CD0DD
:10C12000BDEC108ABDE8F08F002383F31188284608
:10C13000A047002001F0FCF801F02AF800DFFEE73C
:10C1400081F0004102E000BF83F0004330B54FEAC8
:10C1500041044FEA430594EA050F08BF90EA020F35
:10C160001FBF54EA000C55EA020C7FEA645C7FEAC8
:10C17000655C00F0E2804FEA5454D4EB5555B8BFEB
:10C180006D420CDD2C4480EA020281EA030382EA5C
:10C19000000083EA010180EA020281EA0303362DEE
:10C1A00088BF30BD11F0004F4FEA01314FF4801CC1
:10C1B0004CEA113102D0404261EB410113F0004FD3
:10C1C0004FEA03334CEA133302D0524263EB43038A
:10C1D00094EA050F00F0A780A4F10104D5F1200E28
:10C1E0000DDB02FA0EFC22FA05F2801841F1000183
:10C1F00003FA0EF2801843FA05F359410EE0A5F157
:10C2000020050EF1200E012A03FA0EFC28BF4CF087
:10C21000020C43FA05F3C01851EBE37101F000453D
:10C2200007D54FF0000EDCF1000C7EEB00006EEB4A
:10C230000101B1F5801F1BD3B1F5001F0CD34908D4
:10C240005FEA30004FEA3C0C04F101044FEA44522B
:10C2500012F5800F80F09A80BCF1004F08BF5FEAB2
:10C26000500C50F1000041EB045141EA050130BD92
:10C270005FEA4C0C404141EB010111F4801FA4F135
:10C280000104E9D191F0000F04BF01460020B1FA8A
:10C2900081F308BF2033A3F10B03B3F120020CDAC2
:10C2A0000C3208DD02F1140CC2F10C0201FA0CF0A0
:10C2B00021FA02F10CE002F11402D8BFC2F1200C05
:10C2C00001FA02F120FA0CFCDCBF41EA0C019040BB
:10C2D000E41AA2BF01EB0451294330BD6FEA040404
:10C2E0001F3C1CDA0C340EDC04F11404C4F12002EF
:10C2F00020FA04F001FA02F340EA030021FA04F301
:10C3000045EA030130BDC4F10C04C4F1200220FA57
:10C3100002F001FA04F340EA0300294630BD21FA95
:10C3200004F0294630BD94F0000F83F4801306BF5B
:10C3300081F480110134013D4EE77FEA645C18BF4F
:10C340007FEA655C29D094EA050F08BF90EA020FE6
:10C3500005D054EA000C04BF1946104630BD91EADE
:10C36000030F1EBF0021002030BD5FEA545C05D1E1
:10C370004000494128BF41F0004130BD14F5800420
:10C380003CBF01F5801130BD01F0004545F0FE4194
:10C3900041F470014FF0000030BD7FEA645C1ABFC9
:10C3A000194610467FEA655C1CBF0B46024650EA00
:10C3B000013406BF52EA033591EA030F41F400212C
:10C3C00030BD00BF90F0000F04BF0021704730B5B2
:10C3D0004FF4806404F132044FF000054FF0000187
:10C3E00050E700BF90F0000F04BF0021704730B548
:10C3F0004FF4806404F1320410F0004548BF40421D
:10C400004FF000013EE700BF42004FEAE2014FEA71
:10C4100031014FEA02701FBF12F07F4393F07F4F4C
:10C4200081F06051704792F0000F14BF93F07F4F7E
:10C43000704730B54FF4607401F0004521F00041C1
:10C4400020E700BF50EA010208BF704730B54FF047
:10C4500000050AE050EA010208BF704730B511F04C
:10C46000004502D5404261EB41014FF4806404F184
:10C4700032045FEA915C3FF4DCAE4FF003025FEA06
:10C48000DC0C18BF03325FEADC0C18BF033202EB8E
:10C49000DC02C2F1200300FA03FC20FA02F001FAE8
:10C4A00003FE40EA0E0021FA02F11444C1E600BF87
:10C4B00070B54FF0FF0C4CF4E06C1CEA11541DBF3A
:10C4C0001CEA135594EA0C0F95EA0C0F00F0DEF805
:10C4D0002C4481EA030621EA4C5123EA4C5350EAEA
:10C4E000013518BF52EA033541F4801143F480133B
:10C4F00038D0A0FB02CE4FF00005E1FB02E506F0CC
:10C500000042E0FB03E54FF00006E1FB03569CF020
:10C51000000F18BF4EF0010EA4F1FF04B6F5007F26
:10C5200064F5407404D25FEA4E0E6D4146EB060698
:10C5300042EAC62141EA55514FEAC52040EA5E5021
:10C540004FEACE2EB4F1FD0C88BFBCF5E06F1ED8CB
:10C55000BEF1004F08BF5FEA500E50F1000041EB02
:10C56000045170BD06F0004646EA010140EA0200AF
:10C5700081EA0301B4EB5C04C2BFD4EB0C0541EAD1
:10C58000045170BD41F480114FF0000E013C00F3E6
:10C59000AB8014F1360FDEBF002001F0004170BD0A
:10C5A000C4F10004203C35DA0C341BDC04F1140423
:10C5B000C4F1200500FA05F320FA04F001FA05F2AF
:10C5C00040EA020001F0004221F0004110EBD3707C
:10C5D00021FA04F642EB06015EEA430E08BF20EAA8
:10C5E000D37070BDC4F10C04C4F1200500FA04F34B
:10C5F00020FA05F001FA04F240EA020001F00041DD
:10C6000010EBD37041F100015EEA430E08BF20EA4F
:10C61000D37070BDC4F1200500FA05F24EEA020E97
:10C6200020FA04F301FA05F243EA020321FA04F0C6
:10C6300001F0004121FA04F220EA020000EBD3707D
:10C640005EEA430E08BF20EAD37070BD94F0000F7D
:10C650000FD101F00046400041EB010111F4801FB1
:10C6600008BF013CF7D041EA060195F0000F18BF62
:10C67000704703F00046520043EB030313F4801F9E
:10C6800008BF013DF7D043EA0603704794EA0C0F58
:10C690000CEA135518BF95EA0C0F0CD050EA41066E
:10C6A00018BF52EA4306D1D181EA030101F00041EB
:10C6B0004FF0000070BD50EA410606BF1046194613
:10C6C00052EA430619D094EA0C0F02D150EA01361F
:10C6D00013D195EA0C0F05D152EA03361CBF104660
:10C6E00019460AD181EA030101F0004141F0FE41FF
:10C6F00041F470014FF0000070BD41F0FE4141F483
:10C70000780170BD70B54FF0FF0C4CF4E06C1CEA82
:10C7100011541DBF1CEA135594EA0C0F95EA0C0F37
:10C7200000F0A7F8A4EB050481EA030E52EA0335F2
:10C730004FEA013100F088804FEA03334FF0805513
:10C7400045EA131343EA12634FEA022245EA111540
:10C7500045EA10654FEA00260EF000419D4208BFF1
:10C76000964244F1FD0404F5407402D25B084FEA9E
:10C770003202B61A65EB03055B084FEA32024FF44A
:10C7800080104FF4002CB6EB020E75EB030E22BFA7
:10C79000B61A754640EA0C005B084FEA3202B6EB67
:10C7A000020E75EB030E22BFB61A754640EA5C0016
:10C7B0005B084FEA3202B6EB020E75EB030E22BFA6
:10C7C000B61A754640EA9C005B084FEA3202B6EBA7
:10C7D000020E75EB030E22BFB61A754640EADC0066
:10C7E00055EA060E18D04FEA051545EA16754FEAC8
:10C7F00006164FEAC30343EA52734FEAC2025FEAE6
:10C800001C1CC0D111F4801F0BD141EA00014FF074
:10C8100000004FF0004CB6E711F4801F04BF014345
:10C820000020B4F1FD0C88BFBCF5E06F3FF6AFAE61
:10C83000B5EB030C04BFB6EB020C5FEA500C50F1F1
:10C84000000041EB045170BD0EF0004E4EEA113174
:10C8500014EB5C04C2BFD4EB0C0541EA045170BD7B
:10C8600041F480114FF0000E013C90E645EA060EBF
:10C870008DE60CEA135594EA0C0F08BF95EA0C0FED
:10C880003FF43BAF94EA0C0F0AD150EA01347FF435
:10C8900034AF95EA0C0F7FF425AF104619462CE70C
:10C8A00095EA0C0F06D152EA03353FF4FDAE10466F
:10C8B000194622E750EA410618BF52EA43067FF4C0
:10C8C000C5AE50EA41047FF40DAF52EA43057FF450
:10C8D000EBAE12E7000000000000000000000000C6
:10C8E0004FF0FF3C06E000BF4FF0010C02E000BF3C
:10C8F0004FF0010C4DF804CD4FEA410C7FEA6C5C1F
:10C900004FEA430C18BF7FEA6C5C1BD001B050EAC1
:10C91000410C0CBF52EA430C91EA030F02BF90EAAC
:10C92000020F0020704710F1000F91EA030F58BF6B
:10C93000994208BF90422CBFD8176FEAE37040F0CD
:10C94000010070474FEA410C7FEA6C5C02D150EA6B
:10C95000013C07D14FEA430C7FEA6C5CD6D152EA26
:10C96000033CD3D05DF8040B704700BF84461046EB
:10C9700062468C461946634600E000BF01B5FFF7EA
:10C98000B7FF002848BF10F1000F01BD4DF808EDBA
:10C99000FFF7F4FF0CBF012000205DF808FB00BF8B
:10C9A0004DF808EDFFF7EAFF34BF012000205DF8E5
:10C9B00008FB00BF4DF808EDFFF7E0FF94BF012032
:10C9C00000205DF808FB00BF4DF808EDFFF7CEFF33
:10C9D00094BF012000205DF808FB00BF4DF808ED72
:10C9E000FFF7C4FF34BF012000205DF808FB00BF43
:10C9F0004FEA410212F5001215D211D56FF4787387
:10CA0000B3EB625212D94FEAC12343F0004343EA29
:10CA1000505311F0004F23FA02F018BF4042704704
:10CA20004FF00000704750EA013005D111F000408E
:10CA300008BF6FF0004070474FF00000704700BF24
:10CA40004FEA4102B2F1E04324BFB3F5001CDCF130
:10CA5000FE5C0DD901F0004C4FEAC0024CEA507068
:10CA6000B2F1004F40EB830008BF20F00100704797
:10CA700011F0804F21D113F13872BCBF01F000409A
:10CA8000704741F480114FEA5252C2F11802C2F1CC
:10CA9000200C10FA0CF320FA02F018BF40F001004D
:10CAA0004FEAC1234FEAD32303FA0CFC40EA0C00FF
:10CAB00023FA02F34FEA4303CCE77FEA625307D13C
:10CAC00050EA01331EBF4FF0FE4040F44000704773
:10CAD00001F0004040F0FE4040F40000704700BF0D
:10CAE000844641EA000313F003036DD1403A41D379
:10CAF00051F8043B40F8043B51F8043B40F8043B38
:10CB000051F8043B40F8043B51F8043B40F8043B27
:10CB100051F8043B40F8043B51F8043B40F8043B17
:10CB200051F8043B40F8043B51F8043B40F8043B07
:10CB300051F8043B40F8043B51F8043B40F8043BF7
:10CB400051F8043B40F8043B51F8043B40F8043BE7
:10CB500051F8043B40F8043B51F8043B40F8043BD7
:10CB600051F8043B40F8043B51F8043B40F8043BC7
:10CB7000403ABDD2303211D351F8043B40F8043B67
:10CB800051F8043B40F8043B51F8043B40F8043BA7
:10CB900051F8043B40F8043B103AEDD20C3205D377
:10CBA00051F8043B40F8043B043AF9D2043208D06F
:10CBB000D2071CBF11F8013B00F8013B01D30B88E1
:10CBC00003806046704700BF082A13D38B078DD0BF
:10CBD00010F003038AD0C3F10403D21ADB071CBF91
:10CBE00011F8013B00F8013B80D331F8023B20F8FB
:10CBF000023B7BE7043AD9D3013A11F8013B00F834
:10CC0000013BF9D20B7803704B7843708B788370BB
:10CC100060467047000000000000000000000000B7
:10CC200090F800F06DE9024520F007016FF0000C6C
:10CC300010F0070491F820F040F049804FF0000414
:10CC40006FF00700D1E9002391F840F000F10800EF
:10CC500082FA4CF2A4FA8CF283FA4CF3A2FA8CF327
:10CC60004BBBD1E9022382FA4CF200F10800A4FA8E
:10CC70008CF283FA4CF3A2FA8CF3E3B9D1E90423E2
:10CC800082FA4CF200F10800A4FA8CF283FA4CF319
:10CC9000A2FA8CF37BB9D1E9062301F1200182FAD3
:10CCA0004CF200F10800A4FA8CF283FA4CF3A2FAD9
:10CCB0008CF3002BC6D0002A04BF04301A4612BAE7
:10CCC000B2FA82F2FDE8024500EBD2007047D1E9EA
:10CCD000002304F00305C4F100004FEAC50514F079
:10CCE000040F91F840F00CFA05F562EA05021CBF4A
:10CCF00063EA050362464FF00004A9E70000000064
:10CD0000704700BF000000000000000000000000AD
:10CD1000704700BF0000000000000000000000009D
:10CD2000FEE700BF0000000000000000000000005F
:10CD3000FEE700BF0000000000000000000000004F
:10CD4000FEE700BF0000000000000000000000003F
:10CD5000204B214A2148F0B500249C60DF68204E1A
:10CD6000204D4FF6FF0139400A43DA60F26842F085
:10CD70008072F2600268202142F0010210260260F7
:10CD800083B0DE7783F8221000F002F900F080F81B
:10CD900000F066FB00F014FE00F04AFE2846402139
:10CDA00000F006FAA5F1300301229861027784F3BE
:10CDB000118862B69B690C49996105F15000009495
:10CDC0000A4B4FF4EC7100F04BFA094B836103B04E
:10CDD000F0BD00BF00ED00E00003FA05001000E028
:10CDE000F0ED00E0C80C0020E083010841CD000810
:10CDF000D0830108000000000000000000000000D7
:10CE000072B6014BD862FEE7980C002000000000CB
:10CE1000F8B5134DAA69D37F0BB1013BD377116AE3
:10CE2000EB69104E01311162AA6AB34202F10102AC
:10CE3000AA6213D09C68013C9C607CB920271A68C8
:10CE4000D968DC605660EA6184F311881869884704
:10CE500087F31188EB699A68002AF0D0F8BD00BF0B
:10CE6000980C0020B40C002000000000000000001E
:10CE7000034A516853685B1A8342FBD3704700BF73
:10CE8000001000E0000000000000000000000000B2
:10CE9000054B4FF0FF3003F11C02002158629962EC
:10CEA000DA611A62704700BF980C00200000000091
:10CEB00070B40D4EF469A5680361A942C26004D93B
:10CEC0002468491BA5688D42FAD3636843600460F7
:10CED000186060608160A3684FF0FF32591AA1604A
:10CEE000726270BC704700BF980C00200000000008
:10CEF00003688268416830B49D68064C2A449A6091
:10CF00000B60056800224FF0FF336960C260636206
:10CF100030BC7047980C00200000000000000000AA
:10CF200010B4202383F31188037F072B0ED8DFE88A
:10CF300003F0270D0D2308040D08426A936801339E
:10CF4000936090E80C001A60026853604FF0FF3461
:10CF5000002281680D4B446202771B689A688A42FE
:10CF6000FBD25A684260036000211060586081F370
:10CF700011885DF8044B7047436A00221A60E5E7A8
:10CF8000002383F311885DF8044B7047980C002050
:10CF9000034B00221B605B601B615B619A60704702
:10CFA000980C0020000000000000000000000000BD
:10CFB00000228168084B10B4044602771B689A6807
:10CFC0008A42FBD25A6862602360204614605C602B
:10CFD0005DF8044B704700BF980C00200000000073
:10CFE000084B99691A6810B408770420C87710684C
:10CFF000186001244360147710465DF8044B9A6171
:10D00000FFF786B8980C0020000000000000000028
:10D0100030B54B1C87B012D00C4C0D4AA3690546A5
:10D0200001A8FFF745FF2846FFF7DAFF049B13B17D
:10D0300001A8FFF75DFFA369586A07B030BD034C34
:10D04000FFF7CEFFA369586A07B030BD980C0020E7
:10D0500021CF0008000000000000000000000000D8
:10D06000144B70B404469D694162A868A16881426E
:10D070004FF000020BD822771B689A689142FBD9C7
:10D080005A686260236014605C6070BC70472A77E5
:10D090001A46126891688842FBD950686860012678
:10D0A0002A60056055602677294620469C6170BC41
:10D0B000FFF72EB8980C00200000000000000000D0
:10D0C000084B9A691B68D17F9B68906821B983429D
:10D0D00034BF002001207047834294BF002001200C
:10D0E000704700BF980C0020000000000000000006
:10D0F0000E4A1068036870B4012194695A600426CE
:10D1000001770025A16813609061E677257700E03C
:10D110001B689A688A42FBD25A6862602360214683
:10D1200014605C6070BCFEF7F3BF00BF980C002079
:10D130000D4A1068036830B4012194695A600025D3
:10D140000177A16813609061257700E01B689A68F9
:10D150008A42FBD85A6862602360214614605C6092
:10D1600030BCFEF7D5BF00BF980C002000000000C7
:10D17000044B1A689B6992689B689A4200D8704772
:10D18000FFF7D6BF980C0020000000000000000050
:10D19000034B9B69DB7F0BB1FFF7CABFFFF7A8BF4B
:10D1A000980C0020000000000000000000000000BB
:10D1B000F0B50F4C01646569816002260022067794
:10D1C00000F12C014FF0040E012700F12806456103
:10D1D000046180F81FE087774277C263826302624E
:10D1E0008261286160618662C1620163F0BD00BF37
:10D1F000980C00200000000000000000000000006B
:10D200006439F0B50144124E124D7769C1600B6468
:10D21000059B4B6402230D664FF0040E826002648E
:10D22000037700F12C020023012500F1280106619B
:10D23000476180F81FE085774377C36383630362A8
:10D240008361386181627061C2620263F0BD00BFB8
:10D25000980C002029C10008000000000000000018
:10D26000F8B51D460446202383F311886439014430
:10D27000134E144B7769C1600D64069D4D640B66B7
:10D2800002250423826002640577C377002500F13C
:10D290002C0300F12802012181770661476145775F
:10D2A000C563856305628561294638618262C36210
:10D2B00003637061FFF7D4FE85F311882046F8BD43
:10D2C000980C002029C100080000000000000000A8
:10D2D00008B50146202383F311880820FFF798FE44
:10D2E000002383F3118808BD000000000000000047
:10D2F00038B50E4B9C69A36A606204F128059D4213
:10D3000007D01A68A2621846FFF752FEA36AAB4222
:10D31000F7D1637F9B0704D1636922691A6122698F
:10D3200053610F20BDE83840FFF75ABE980C00202B
:10D33000202383F31188FFF7DBBF00BF000000004C
:10D3400010B5054CA369036002465A620320FFF73B
:10D3500047FEA369586A10BD980C00200000000029
:10D36000054B02469B6921B1036003205A62FFF717
:10D370004FBE4FF0FF307047980C002000000000B7
:10D3800003682BB10022026018465962FFF710BEF5
:10D39000704700BF00000000000000000000000017
:10D3A00069B1084B10B4024644689B69042083E8C5
:10D3B0001400236053605DF8044BFFF729BE4FF063
:10D3C000FF307047980C00200000000000000000B3
:10D3D00038B5036898420BD004460D461A6822609F
:10D3E000184654605D62FFF7E3FD23689C42F5D167
:10D3F00038BD00BF00000000000000000000000079
:10D40000014B5B6883607047001000E00000000083
:10D410000F4B10495A688368F0B48F6FC668416833
:10D42000D0E90445D31ADB1BE41845F100050136A9
:10D430008B42C6608360C0E9044505D80268934208
:10D4400038BF0360F0BC70474360F0BC704700BF5A
:10D45000001000E0980C0020000000000000000018
:10D46000D0B50C4C86B000234FF0FF326846002642
:10D470000027A3670193029303930092CDE9046709
:10D48000FFF7BEFF6846FFF7C3FF029BA36706B026
:10D49000D0BD00BF980C002000000000000000007C
:10D4A0000023006040608360704700BF0000000000
:10D4B000304B826870B59C69002A55D0A16893688A
:10D4C0008B42054606D2137F9160062B33D0072B83
:10D4D0001DD09BB12B4603E09968A268914202D30C
:10D4E0001B689D42F8D15A686260236014605C60DA
:10D4F00065620620BDE87040FFF772BD92E80A0041
:10D500001960116810464B60FFF752FDE2E792E8A0
:10D510000900186010684360566A334602E0986854
:10D52000884202D31B689E42F9D15968516013604A
:10D530000A605A60CEE792E80900186010684360FC
:10D54000566A334602E09868884202D31B689E42BE
:10D55000F9D15968516013600A605A60B268A168D5
:10D5600093688B42AFD3B5E7E36BC3608460E0633D
:10D5700070BD00BF980C00200000000000000000FB
:10D5800008B5202383F31188FFF792FF002383F36C
:10D59000118808BD0000000000000000000000002D
:10D5A000174B70B59D69202383F311880468C36805
:10D5B000EB6384421DD0296C4BB11A68934203D0AF
:10D5C0009268914238BF1146DB68002BF5D10346C3
:10D5D0002268E66BA96020461A6053609C60DE609A
:10D5E000E363FFF7E5FCFFF7C3FD002383F3118836
:10D5F00070BD0023A360002383F3118870BD00BFBA
:10D60000980C002000000000000000000000000056
:10D6100030B4202484F31188064D0468AD690C6091
:10D62000002401604D608A600B61CC6084F3118836
:10D6300030BC7047980C0020000000000000000083
:10D64000202383F31188024602E08B4207D01A465A
:10D6500013689842F9D1002383F3118870470B684F
:10D660001360002383F31188704700BF000000009F
:10D67000836B027F19430A2A816309D00B2A00D0E9
:10D680007047436A8B43FBD100234362FFF790BC92
:10D69000436A1942F8D17047000000000000000002
:10D6A00070B50468A0420FD006460D46E3682B43D0
:10D6B000E36015B12269134203D0A1686068FFF7E7
:10D6C000D7FF2468A642F1D170BD00BF0000000062
:10D6D00008B5202383F31188FFF7CAFFFFF748FD41
:10D6E000002383F3118808BD000000000000000043
:10D6F00038B50C4B9D69202383F31188AB6B13EA7B
:10D70000000406D1044668620A20FFF769FCAB6B8F
:10D710001C4023EA0403AB63002383F311882046F3
:10D7200038BD00BF980C0020000000000000000081
:10D73000124B70B59E69202383F31188B36B13EAF3
:10D7400000040ED119B981F31188084670BD7062CA
:10D7500005460A20FFF75CFC00280ADBB36B05EAEC
:10D76000030423EA0403B363002383F311882046F0
:10D7700070BD84F31188204670BD00BF980C002056
:10D7800030B4029C046200250A4485600261006096
:10D790004060C16081614161C36130BC704700BFBE
:10D7A0000021C2688160826142616FF00101FFF770
:10D7B0000FBE00BF000000000000000000000000DD
:10D7C00070B520230E46044683F31188C3692BB13C
:10D7D000984703E0FFF7E4FD002815DBA568314614
:10D7E0002046002DF6D0A169A36825694A1C013B9B
:10D7F000AA42A360A26128BFE368087828BFA3619A
:10D80000002383F3118870BD85F3118870BD00BFBC
:10D810002DE9F04F044683B0894693461D46D0F863
:10D820001C80202787F3118800260197B246B8F1A3
:10D83000000F05D02046C04702E0FFF7B1FDE0B978
:10D84000A76829462046002FF7D0A269A368511C7B
:10D85000013BA161A360137809F8013B2369A26928
:10D860009A4224BFE368A3618AF311880136B34565
:10D8700005D0019B83F31188D9E787F311883046DF
:10D8800003B0BDE8F08F00BF000000000000000002
:10D8900030B4029C04628D180561006040608260B3
:10D8A000C16081614161C36130BC7047000000000C
:10D8B00010B40269C4688461121B44616FF00101F5
:10D8C00082605DF8044BFFF783BD00BF00000000DD
:10D8D000F8B504460F461646202383F3118803E06B
:10D8E000FFF75EFD002819DBA56831462046002DB4
:10D8F000F6D06269A368511C013B6161A360177097
:10D90000236962699A4224BFE3686361E3690BB1EA
:10D9100020469847002080F31188F8BD85F31188D0
:10D92000F8BD00BF00000000000000000000000083
:10D930002DE9F04F83B004460D4616460193D0F80A
:10D940001C804FF0200989F311880027BA46A3688C
:10D9500005F1010B204603B36169A3684A1C013B32
:10D960006261A3602B780B7023696169994224BFBF
:10D97000E3686361B8F1000F00D0C0478AF31188F3
:10D98000013E07F1010712D089F31188A3685D46B3
:10D9900005F1010B2046002BDED1019900932046B2
:10D9A000FFF7FEFC009B0028D1D083F31188384696
:10D9B00003B0BDE8F08F00BF0000000000000000D1
:10D9C000054A064B0648074922F0070223F00703E1
:10D9D00002600B60704700BF17AF002000000220FC
:10D9E000F40E0020F00E00200000000000000000F7
:10D9F00010B4202383F31188094C0A4B226819685C
:10DA0000C31D23F00703891A8B429DBF9B18236017
:10DA100010460020002383F311885DF8044B704703
:10DA2000F40E0020F00E00200000000000000000B6
:10DA3000044B054A1A6003F1100000229A60DA6074
:10DA4000FFF72EBDF80E0020F1D9000800000000FD
:10DA5000064A536823F001035360EFF309836833E8
:10DA600083F30988002383F31188704730EF00E0C7
:10DA7000202383F31188124B5B6813F4006302D1F7
:10DA800083F31188704710B5F1EE103AEFF3098473
:10DA90000C4B4FF08072DB6844F8083C44F84C2C87
:10DAA000A4F1680383F30988FFF70AFB18B1064B5A
:10DAB00044F8503C10BD054B44F8503C10BD00BF2D
:10DAC00000ED00E030EF00E039C100083CC1000883
:10DAD00008B501F09DF80B4801F06AFB00F018F85A
:10DAE00000F076F800F0ECF800F0E2FA00F0F8FA56
:10DAF00000F016FB00F0CCF903F05AF8BDE808403E
:10DB000000F0E6BA70850108000000000000000087
:10DB100001F07EBA000000000000000000000000DC
:10DB2000F0B40122002300F1180700F11C0600F1F7
:10DB3000200500F1240400F128010270436000F187
:10DB4000080200F110038761C661056244628162C8
:10DB50008260C26003614361F0BC70470000000056
:10DB600010B52023044683F311880223037041601B
:10DB700001F066FA03232370002383F3118810BD9C
:10DB80002DE9F0411F4604460D469046202383F3BD
:10DB9000118800F110062378042B2946204602D074
:10DBA00001F086FA50B939463046FFF7F9FB0028F4
:10DBB000F1D0002383F31188BDE8F081204642466E
:10DBC000294601F095FA002080F31188BDE8F08124
:10DBD00001F06EBD00000000000000000000000029
:10DBE00001220023027043600C30FFF759BC00BFD4
:10DBF00010B52023044683F31188416001F070FDC5
:10DC000002232370002383F3118810BD000000005D
:10DC100010B52023044683F3118801F019FE012377
:10DC20002370002383F3118810BD00BF00000000A3
:10DC3000F0B585B004460B9E0C9F4FF0200E8EF37E
:10DC400011884FF0030E019600250A9E0297009658
:10DC5000856080F800E001F083FE431C0CBF0523C3
:10DC600002232370002383F3118805B0F0BD00BFA9
:10DC7000F0B583B00446089F202585F3118800265F
:10DC8000042500978660057001F02AFE431C0CBF36
:10DC9000052302232370002383F3118803B0F0BD12
:10DCA0000C30FFF76DBC00BF00000000000000005A
:10DCB0000C30FFF775BC00BF000000000000000042
:10DCC00002F0DEBC000000000000000000000000C8
:10DCD0000122002302704360704700BF0000000073
:10DCE00010B52023044683F31188416002F0D8FC6C
:10DCF00002232370002383F3118810BD000000006D
:10DD000010B52023044683F3118802F029FD032374
:10DD10002370002383F3118810BD00BF00000000B2
:10DD200008B5202383F3118802F02AFD002383F332
:10DD3000118808BD00000000000000000000000085
:10DD400010B5046AD4F8542213681978042900D055
:10DD500010BD217A0229FBD110791989012202FA1A
:10DD600000F313EA0102F3D1216CE36BA06BCB1A31
:10DD70001B1AEDD082F31188D4F85422117910685F
:10DD800004F1300200F024FA202383F31188D4F840
:10DD90005432BDE810401979186800F041BA00BF4C
:10DDA00038B5046AD4F8542213681978042900D0CD
:10DDB00038BD217A0229FBD150795989012282404C
:10DDC0000A40F5D103EB8003A169E069DB6865696E
:10DDD0005B8A401A411B8B42EAD882F31188B1FB5F
:10DDE000F3F1D4F8542203FB01F31068517904F1E4
:10DDF0000C0200F0DDF9202383F31188D4F85432AB
:10DE000059791868BDE8384000F0F2B90000000008
:10DE10000C30FFF7FDBC00BF000000000000000058
:10DE20000C304FF0FF33FFF7F3BC00BF00000000E1
:10DE30003030FFF77DBD00BF000000000000000093
:10DE400030304FF0FF33FFF773BD00BF000000001C
:10DE50000C30FFF7B5BC00BF000000000000000060
:10DE60000C304FF0FF31FFF7ABBC00BF00000000EB
:10DE70003030FFF72DBD00BF0000000000000000A3
:10DE800030304FF0FF32FFF723BD00BF000000002D
:10DE9000704700BF0000000000000000000000000C
:10DEA00010B503460E4A43F8042B82B00122044603
:10DEB000009000F15401436002720A4B0C304FF4A1
:10DEC0008072FFF75DFC009404F5AA7104F1300044
:10DED000054B4FF48072FFF7DBFC02B010BD00BFB2
:10DEE00000840108A1DD000841DD000800000000F9
:10DEF0000B68202282F311880A7903EB8202906179
:10DF00004A79093243F822008A7912B103EB82037D
:10DF1000986102230372C0F85412002383F311881E
:10DF2000704700BF0000000000000000000000007B
:10DF300070B5D0F8543200F10C06044630461D6826
:10DF4000FFF72EFC04F13000FFF7B2FC201D012189
:10DF5000FFF7A6FBD4F85432597905EB8103284624
:10DF6000DB6832465B8A00F023F9D4F85432284645
:10DF70005979BDE8704000F03BB900BF00000000D7
:10DF800090F8443003F06003202B01D0002070474C
:10DF900090F84530212B03D0222B09D0202BF5D12E
:10DFA000064B836307220023C2630364012070478A
:10DFB00000238363C36303640120704700080020CB
:10DFC000F8B500EB81039C69BCB10E4605462027DD
:10DFD00087F311880821201DFFF762FB226CE36B99
:10DFE000A16BD31A5B1A10D105EB8603DB685A6963
:10DFF00052681AB9002383F31188F8BD1B8A013BCC
:10E000001340F7D183F3118802E0002282F31188D4
:10E0100004F130023146284600F0DAF887F311881F
:10E020003146284600F0FCF8E4E700BF000000009D
:10E030002DE9F84301F1090350F82360BEB1804691
:10E040000F464FF0200989F3118804217018FFF75B
:10E0500027FB08EB8703B469DA68F5697369518AAD
:10E060002D1BEC1AA14204D9002383F31188BDE8CB
:10E07000F883002383F31188B4FBF1F306F10C025B
:10E0800001FB03F34046394600F092F889F311880A
:10E090003946404600F0ACF8E6E700BF000000005B
:10E0A000704700BF000000000000000000000000FA
:10E0B00002F06EBA00000000000000000000000046
:10E0C000002301220270436083600C30FFF7E8B93F
:10E0D00002F086BB0000000000000000000000000D
:10E0E00002F086BC000000000000000000000000FC
:10E0F000002301220270437083704360704700BFA9
:10E1000010B52023044683F31188416002F098FC87
:10E1100002232370002383F3118810BD0000000048
:10E1200001F046BE000000000000000000000000FA
:10E130000023012202704360C36183620362C362F1
:10E140004362036303814381704700BF0000000006
:10E1500038B50446202383F3118800254160C5604B
:10E1600005614561856101F03BFE0223237085F363
:10E17000118838BD00000000000000000000000011
:10E18000536910B42BB100241C605C609C60DC609F
:10E190001C6193692BB100241C605C609C60DC6096
:10E1A0001C6100EB81035DF8044BDA6001F008BFED
:10E1B00070B400EB81040126E468A4690025E260E4
:10E1C00063602670A56070BC01F0E2BF0000000033
:10E1D00070B400EB81040126E46864690025E26004
:10E1E00063602670A56070BC02F052B800000000A9
:10E1F000012270B502FA01F344899BB214EA0306C6
:10E2000001D0104670BD2343438102F059F93046D6
:10E2100070BD00BF00000000000000000000000012
:10E22000012270B502FA01F304899BB214EA0306D5
:10E2300001D0104670BD2343038102F051F93046EE
:10E2400070BD00BF000000000000000000000000E2
:10E25000002202210170A0F84C2080F84E2080F8A6
:10E260004F2002814281C26002614261826180F876
:10E27000342001F02DBE00BF0000000000000000AF
:10E28000F8B50023044680F8343000F1440201F070
:10E290006FFF63689B68002B36D0204698470028A4
:10E2A00032D0E06B94F8443094F84B1094F84A2044
:10E2B00042EA012282423CBFE26310461A0600F1A4
:10E2C000AB80002800F08B80E368A56B9B6900227F
:10E2D000042184F834101146DD6058601A709A6089
:10E2E000204601F055FF202383F31188638913F042
:10E2F000010105D143F001036381204602F0E0F8FB
:10E30000002383F31188F8BD94F8443013F06007BC
:10E310001E4611D00021204602F00AF900212046B5
:10E3200002F0F6F863681B6813B105212046984790
:10E33000062384F83430F8BD94F8450003F07F02DA
:10E3400042EA0025B5F5407F00F0EB8016D9B5F51F
:10E35000C06F00F0CE802FD9B5F5106F76D040F6A3
:10E360000242954200F0EF80B5F5006FD2D104F182
:10E370004F0201202764A263E06395E7022D00F0BD
:10E38000A28040F29780B5F5807F00F08480B5F5DB
:10E39000817FBFD194F84630002BBBD194F8483030
:10E3A00013F00F0115D01E06204600F1F48002F094
:10E3B000CFF894F844600CE040F202339D4257D00D
:10E3C000B5F5A06FA6D1B4F84430B3F5A06F00F056
:10E3D000D0800023A363E363236433062AD4E36875
:10E3E0005A690521002384F8341019461370D3604C
:10E3F00053609360204601F04BFF202383F3118884
:10E40000238913F001017FF47BAF43F001032381E3
:10E41000204602F065F873E760B1E368A56B5B69BD
:10E420000022012184F834101146DD6058601A7012
:10E430009A60DFE7E3689A690321002384F83410C7
:10E4400019461370D3605360936049E794F84630DF
:10E4500084F84F30002B7DD10323237063681B6841
:10E46000002BB6D002212046984794F84460B0E7CC
:10E4700094F84630002B7FF44DAF94F8483013F0F9
:10E480000F01A6D01D06204600F18A8002F040F858
:10E4900094F844609DE794F84630012B7FF43AAF3E
:10E4A000B4F84C30A76323F00203E7632764A4F8B1
:10E4B0004C3092E7002D43D104F14C020220256438
:10E4C000A263E063F0E694F8481011F0800F204654
:10E4D00001F00F0141D101F02BFE012841D00228AB
:10E4E0007FF418AF314BA363E063276494F84430A2
:10E4F000DAE694F84900616894F848304D6894F879
:10E50000462094F8471043EA00232046A8470028F5
:10E510003FF400AF09C82764A363E06394F8443074
:10E52000C2E694F84630012B7FF4F4AEB4F84C30D8
:10E53000A76343F00203E7632764A4F84C304CE779
:10E54000012D7FF4E7AE1A4AA26302200022E063A5
:10E550002264A9E60423237080E701F0F9FD012875
:10E56000BDD1144BA363E5632764284694F8443077
:10E570009AE694F8463084F84E30204601F010FDBB
:10E5800063681B6813B1012120469847032394F860
:10E59000446023701DE701F0EBFF94F8446018E736
:10E5A00001F0C6FF94F8446013E700BF308401080F
:10E5B00020840108408401080000000000000000E1
:10E5C00090F8343010B50446062B15D8DFE803F078
:10E5D000043B1C0404150400002101F0A9FF0021E4
:10E5E000204601F095FF63681B6813B105212046A2
:10E5F0009847062384F8343010BD036C03B1984764
:10E60000002384F8343010BDC3689A6903210023C5
:10E6100084F83410204619461370D3605360936019
:10E6200001F0B6FD202383F31188638913F0010103
:10E6300005D143F001036381204601F041FF00232F
:10E6400083F3118810BD90F84B1090F84A30C26BDC
:10E6500043EA01239342C368D7D9188AB2FBF0F189
:10E6600000FB1122002AD0D15B6911461A70DA60D2
:10E670005A609A60204601F00BFE202383F3118834
:10E68000238913F0010105D143F0010323812046C2
:10E6900001F026FF002383F31188022384F834302D
:10E6A00010BD00BF000000000000000000000000DE
:10E6B00090F83420062A0CD80123934013F0670FFA
:10E6C00010B5044612D113F0080203D1DB061ED4A4
:10E6D00010BD7047C3689B699B68002BF8D1036C21
:10E6E00003B19847002384F8343010BD002101F0B5
:10E6F0001FFF0021204601F00BFF63681B6813B168
:10E70000052120469847062384F8343010BDC3689D
:10E710005B69052180F834101A70DA605A609A60DB
:10E72000114601F0B5FD202383F31188238913F0EE
:10E73000010103D0002383F3118810BD43F00103CE
:10E740002381204601F0CCFEF4E700BF000000006A
:10E7500043099B0010B403F1604300F1604404F5E9
:10E76000614403F56143090100F01F00012202FA30
:10E7700000F0C9B284F80013C3F8800118605DF896
:10E78000044B704700000000000000000000000083
:10E790000849430910B4203300F01F040122084443
:10E7A000A240002441F8232080F800435DF8044B88
:10E7B000704700BF00E100E0000000000000000022
:10E7C00000F1604000F56D400901C9B20176704763
:10E7D00008B5074B074A196801F03D0199601368B5
:10E7E0000BB150689847BDE80840FFF741B900BF3A
:10E7F00000600240180F0020000000000000000030
:10E80000084B094819688268890901F03D0110B573
:10E810008C019C600AB1C0689047BDE81040FFF7CA
:10E8200027B900BF00600240180F00200000000060
:10E83000084B094819680269090C01F03D0110B53F
:10E840000C049C600AB140699047BDE81040FFF796
:10E850000FB900BF00600240180F00200000000048
:10E86000084B094819688269890D01F03D0110B50E
:10E870008C059C600AB1C0699047BDE81040FFF765
:10E88000F7B800BF00600240180F00200000000031
:10E8900008B5074B07485968026A01F03D01D96085
:10E8A0000AB1406A9047BDE80840FFF7E1B800BFF1
:10E8B00000600240180F002000000000000000006F
:10E8C000084B09485968826A890901F03D0110B571
:10E8D0008C01DC600AB1C06A9047BDE81040FFF7C8
:10E8E000C7B800BF00600240180F00200000000001
:10E8F000084B09485968026B090C01F03D0110B53D
:10E900000C04DC600AB1406B9047BDE81040FFF793
:10E91000AFB800BF00600240180F002000000000E8
:10E92000084B09485968826B890D01F03D0110B50B
:10E930008C05DC600AB1C06B9047BDE81040FFF762
:10E9400097B800BF00600240180F002000000000D0
:10E9500008B5074B07481968026C01F03D01996042
:10E960000AB1406C9047BDE80840FFF781B800BF8E
:10E9700000640240180F00200000000000000000AA
:10E98000084B09481968826C890901F03D0110B5EE
:10E990008C019C600AB1C06C9047BDE81040FFF745
:10E9A00067B800BF00640240180F0020000000009C
:10E9B000084B09481968026D090C01F03D0110B5BA
:10E9C0000C049C600AB1406D9047BDE81040FFF711
:10E9D0004FB800BF00640240180F00200000000084
:10E9E000084B09481968826D890D01F03D0110B589
:10E9F0008C059C600AB1C06D9047BDE81040FFF7E0
:10EA000037B800BF00640240180F0020000000006B
:10EA100008B5074B07485968026E01F03D01D960FF
:10EA20000AB1406E9047BDE80840FFF721B800BF2B
:10EA300000640240180F00200000000000000000E9
:10EA4000084B09485968826E890901F03D0110B5EB
:10EA50008C01DC600AB1C06E9047BDE81040FFF742
:10EA600007B800BF00640240180F0020000000003B
:10EA7000084B09485968026F090C01F03D0110B5B7
:10EA80000C04DC600AB1406F9047BDE81040FEF70F
:10EA9000EFBF00BF00640240180F0020000000001C
:10EAA000084B09485968826F890D01F03D0110B586
:10EAB0008C05DC600AB1C06F9047BDE81040FEF7DE
:10EAC000D7BF00BF00640240180F00200000000004
:10EAD0000E490F4A0F48002310B40B600E4C194624
:10EAE00001E052F80C0C016044F833100133102B94
:10EAF00002F10C02F5D10949094A5DF8044B4FF0C7
:10EB0000FF338B60CB609360D3607047980F002019
:10EB10005C84010810600240180F00200060024071
:10EB2000006402400000000000000000000000003F
:10EB3000F8B51F4F467A3D68012404FA06FE1EEA26
:10EB4000050F31D11B4C4EEA050504EBC60E15F03E
:10EB5000FF0F3D6044F83620CEF8043004D0164C48
:10EB6000236B43F40013236315F47F4F16D105681C
:10EB70002B6823F01F032B602B6813F00104FBD1DB
:10EB8000077A46683D23BB40212733602C606F61C4
:10EB900062B1807AFFF7DCFD2046F8BD064C236B9E
:10EBA00043F480032363E2E72046F8BD1046F8BD36
:10EBB000980F0020180F00200038024000000000CD
:10EBC00010B50446807AFFF7E3FD0C49607A0A68C5
:10EBD0000123834022EA030313F0FF0F0B6004D1EB
:10EBE00007490A6B22F400120A6313F47F4F04D121
:10EBF000034A136B23F48003136310BD980F0020A6
:10EC0000003802400000000000000000000000008A
:10EC1000174B4FF0FF311A69002210B419611A61C5
:10EC2000586959615A61186A124C60F08050186234
:10EC30001A62586A59625A62196C41F0805119641B
:10EC4000216841F480712160196F01F44071B1F5C0
:10EC5000007F03D04FF4803119671A67054A5DF8C9
:10EC6000044B536823F400735360FFF731BF00BFB8
:10EC7000003802400070004000000000000000006A
:10EC80002C492D4B4FF080504FF4404208641A60DD
:10EC90000B6843F001030B600A68264B9007FBD515
:10ECA0009A6822F003029A609A689A6019468B6803
:10ECB000204A13F00C03FAD1116801F0F901116038
:10ECC0009360136843F4803313601168194B890310
:10ECD000FBD55A6F42F001025A675A6F15499007E7
:10ECE000FBD5164B4B600B68134A43F080730B60E7
:10ECF00053685904FCD50F490A680E4B9201FBD5A5
:10ED00000F4A1049996040F2057111609A6842F00B
:10ED100002029A601A469368064903F00C03082B16
:10ED2000F9D14B6C43F480434B644B6E43F4804306
:10ED30004B6670470038024000700040085440079E
:10ED4000003C024000940838000000000000000071
:10ED5000F0B5434C434D236C43F000732364D5F866
:10ED600000321B0C1B0443F0010343EA0023C5F8E7
:10ED7000003200295AD00023C5F81C321846C5F8C5
:10ED800004321C46C5F80C32C5F81432C30003F136
:10ED9000804303F5C84301301C28C3F84042C3F840
:10EDA0004442F3D12F4D0026012710681479C30087
:10EDB00003F1804314F0010F03F5C84306F1010687
:10EDC00007FA00F005D0D5F804E240EA0E0EC5F8C7
:10EDD00004E214F0020F05D0D5F80CE240EA0E0E62
:10EDE000C5F80CE2640704D5D5F814420443C5F80D
:10EDF00014429468C3F84042D468C3F84442D5F83A
:10EE00001C32B14240EA030002F11002C5F81C02B4
:10EE1000CBD11449124AD1F8003223F00103C1F8D2
:10EE20000032136C23F000731364F0BDC20002F1D2
:10EE30008042012302F5C842834043F00103C5F834
:10EE40004012C5F84412C2F84012C2F84412C5F884
:10EE50000412C5F81412C5F80C32C5F81C32D8E7F4
:10EE60000038024000640040000000000000000084
:10EE700010B50C4C0C49E26A2023916083F3118891
:10EE8000002104F10800FEF7A3FA04F11C0001219F
:10EE9000FEF706FC002383F31188BDE81040FEF75F
:10EEA000E7BD00BF9C0F0020010101000000000031
:10EEB00038B5164DEB6ADC68A20711D1E3060BD515
:10EEC000EB6A1021D960202383F311881048FEF7E4
:10EED000E7FB002383F31188BDE83840FEF7C8BD87
:10EEE0005A6922F002025A61202383F3118800211B
:10EEF00005F11000FEF76CFA05F118000121FEF78C
:10EF0000CFFB002383F31188D8E700BF9C0F0020BC
:10EF1000BC0F002000000000000000000000000006
:10EF200038B5164DEB6A1C69A20711D1E3060BD563
:10EF3000EB6A10211961202383F311881048FEF732
:10EF4000AFFB002383F31188BDE83840FEF790BD86
:10EF50005A6922F010025A61202383F3118800219C
:10EF600005F11000FEF734FA05F118000221FEF752
:10EF700097FB002383F31188D8E700BF9C0F002084
:10EF8000BC0F002000000000000000000000000096
:10EF900038B51B4DEB6A5C681C225A6022071DD4F1
:10EFA000630717D5EA6A9369916921F0700191614D
:10EFB00013F0700F03F0070118BF41F00801202281
:10EFC00082F311880F4841EA0341FEF769FB0023F1
:10EFD00083F31188BDE83840FEF74ABD1A68284619
:10EFE00022F00202032100F8281B20211A6081F37D
:10EFF00011880021FEF754FB002383F31188CFE72B
:10F000009C0F0020BC0F002000000000000000004A
:10F0100010B5064C2046FEF783FD0022044BE36248
:10F0200011460E20BDE81040FFF792BE9C0F002055
:10F03000006400400000000000000000000000002C
:10F04000184B984210B5044615D0E36A01221A60A5
:10F050005A68D10707D401210820FDF7D9FFE36AD8
:10F060005A68D207F7D562680F4950681268D861AC
:10F070001A60596110BD0B211320FFF769FB0B21AA
:10F080001420FFF765FB0B211520FFF761FB0B2117
:10F090001620FFF75DFB054A136C43F00073136401
:10F0A000D3E700BF9C0F00205B8F010000380240B7
:10F0B000012911D00AD3022906D1C36A186910F0B8
:10F0C000030018BF0120704700207047C36ADA6848
:10F0D0009207F3D001207047C36AD86810F003008C
:10F0E00018BF0120704700BF0000000000000000B2
:10F0F00010B471BBC36AD968890731D0D3F8B04165
:10F10000D3F8B411D3F8B831D360C36AD3F8BC31A3
:10F110001361C36A2020D860D86880073FD0137974
:10F12000600860F30413A00860F3451313719B0695
:10F130002FD59368E40864F31C03936013795DF89A
:10F14000044B080A61F30303090C1371107051801A
:10F150007047012928D0022928D05DF8044B704758
:10F1600019698C07F9D0D3F8C041D3F8C411D3F88A
:10F17000C831D360C36AD3F8CC311361C36A20208D
:10F18000186118698007CAD1586940F010005861A9
:10F19000C5E71389640D64F30A031381CEE7586948
:10F1A00040F002005861BAE7C36AA7E7C36ADAE72A
:10F1B000F0B4654D654C2F6B6549664A664B40F26D
:10F1C000FF1637432F632F6D3E432E6545686560FC
:10F1D0008568A560C568E560056965614569256262
:10F1E0008569656205682560046A4C60446A8C60C4
:10F1F000846ACC60C46A4C61046B0C62446B4C62E0
:10F20000C4690C60C16B5160016C9160416CD1604C
:10F21000816C5161C16C1162016D5162816B116031
:10F22000826D5A60C26D9A60026EDA60426E5A61F7
:10F23000826E1A62C26E5A62426D1A60426FC3F8E1
:10F240000424826FC3F80824C26FC3F80C24D0F8DA
:10F250008020C3F81424D0F88420C3F82024D0F8E8
:10F260008820C3F82424026FC3F80024D0F890202B
:10F27000C3F80428D0F89420C3F80828D0F89820C0
:10F28000C3F80C28D0F89C20C3F81428D0F8A0208C
:10F29000C3F82028D0F8A420C3F82428D0F88C2064
:10F2A000C3F8002803F54063D0F8AC205A60D0F8CA
:10F2B000B0209A60D0F8B420DA60D0F8B8205A6153
:10F2C000D0F8BC201A62D0F8C0205A62D0F8A8202A
:10F2D0001A60D0F8C820C3F80424D0F8CC20C3F8B2
:10F2E0000824D0F8D020C3F80C24D0F8D420C3F8D8
:10F2F0001424D0F8D820C3F82024D0F8DC20C3F898
:10F300002424D0F8C420C3F80024D0F8E420C3F8A3
:10F310000428D0F8E820C3F80828D0F8EC20C3F877
:10F320000C28D0F8F020C3F81428D0F8F420C3F843
:10F330002028D0F8F820C3F82428D0F8E020C3F81B
:10F340000028F0BC704700BF0038024000000240B7
:10F350000004024000080240000C024000000000CF
:10F360002DE9F04F4FF00F0C02F0030EC2F38007AF
:10F37000C2F3C106C2F341150024C2F3C3124FF019
:10F3800001094FF0030830E0D0F820B02BEA030366
:10F3900043EA0A030362436809FA04FA23EA0A0308
:10F3A0003B4343606300D0F808A008FA03F3DB4353
:10F3B0000AEA030A4AEA060AC0F808A0D0F80CA034
:10F3C00003EA0A0A4AEA050AC0F80CA0D0F800A02D
:10F3D00003EA0A0343EA0E030360490819D07F00D9
:10F3E000B600AD004FEA8E0E013404F007039B0017
:10F3F00011F0010F02FA03FA0CFA03F3EDD0072C17
:10F40000C2D9D0F824B02BEA030343EA0A034362CB
:10F41000C1E7BDE8F08F00BF000000000000000061
:10F4200011F00C0F38B50546446B12D1296B0A68F0
:10F43000136823F01F0313601368DB07FCD4087AFA
:10F440004A683D2383401360636843F4007363603C
:10F4500038BD0248FDF7D4FCE8E700BF108501087D
:10F4600011F00C0F70B50646456B25D1F26A136892
:10F47000196821F01F011960196811F00104FBD10E
:10F48000117A52683D238B4013606B6823F48053DC
:10F490006B602B6823F480632B602B6843F400734C
:10F4A0002B60202383F3118806F11C002146FDF711
:10F4B00067FF84F3118870BD0148FDF7A1FCD5E713
:10F4C000108501080000000000000000000000009E
:10F4D0003A483B4A70B5446BA369656945EA034302
:10F4E00023F07F4393424CD01ED8073A93423CD03E
:10F4F0000132934210D16268C36A22F400721B6821
:10F5000062601A6842F001021A60626842F4805236
:10F5100062605B68012B4BD915F00A0F18BFA36915
:10F52000BDE87040FEF7A4BA264A934212D00232D8
:10F530009342F1D1C36A1B685E683EB32368028CB4
:10F5400043F4A06342F0010202842360BDE87040EE
:10F55000FEF78EBA6368026B23F40073126863606F
:10F56000136843F001031360D6E7038C1A0A0BD02B
:10F5700003F0010343F0F00302F00602134323619A
:10F58000CAE7038CC3F347032361C5E7636823F429
:10F5900000736360236843F400732360202383F3C4
:10F5A00011881C303146FDF7EBFE86F31188B3E776
:10F5B000236823F480632360AEE700BFCC0F0020F4
:10F5C00008000300820007000000000000000000A7
:10F5D0003348F8B5446B076B66693A68B1B201F419
:10F5E0005F43DB436361136823F01F0313601368F9
:10F5F000DB07FCD43A7AC56A7F683D2393402A68CA
:10F600003B60136823F01F031360136813F00103BA
:10F61000FBD12F7A6D683D22BA40CF052A6048BFE2
:10F6200001238D05836044BF43F0020383604A05D4
:10F630000AD5626822F400726260226843F0040313
:10F6400042F40072226083600F0544BF43F0080358
:10F6500083604D0444BF43F020038360CC0413D582
:10F6600043F010033104836016D4202383F3118800
:10F670006FF001010B48FDF783FE002383F311882F
:10F68000BDE8F840FEF7F4B9320405D4002BECD104
:10F69000BDE8F840FEF7ECB943F040038360E4E7CF
:10F6A000CC0F0020E80F0020000000000000000048
:10F6B00010B5074C2046FEF793FA064B064A6263E4
:10F6C000002103F13C02E161E362226310BD00BF4F
:10F6D000CC0F0020688401080058004000000000A2
:10F6E000F8B50378456B40F256428262012B40F236
:10F6F0001642044642623CD02B46E16A226B6068A7
:10F700000F68D2F800E04168494E05F11002BA6076
:10F710004FF41064CEF808204FF4004700222F6009
:10F720002A606C605F684FF6C0743C40077A5C608A
:10F730005C68B14244F02A045C604EDD3D4CA1425D
:10F7400007DC022F68D0032F59D048F6FF720D2135
:10F750001962DA6101781A68022992B249D0032944
:10F7600044D0012935D01A602B6843F001032B6087
:10F77000F8BD314B9842BFD1304EC06A336A304A2F
:10F7800043F4800300213362234631620521FFF7F1
:10F79000CFF92C4A206B23460521FFF7C9F9336CBA
:10F7A00043F48003336405212120FEF7D1FF0521B6
:10F7B0002220FEF7CDFF616AA26A636B41F06061AF
:10F7C00042F0606241F4403142F440326162A26230
:10F7D00093E722F00A0292B2C5E72B2449001A4AA5
:10F7E0001C62B2FBF1F2C2F30B02B2E742F00A0272
:10F7F000B9E722F0080292B242F00202B3E701EB4D
:10F80000810202EB8201104AB2FBF1F26FEA8242FE
:10F810006FEA924292B29AE701EB41020A49B1FBC8
:10F82000F2F26FEA42426FEA524292B28FE700BFB1
:10F83000A0860100801A0600CC0F0020003802408C
:10F8400061F4000821F4000880DE8002000000005E
:10F850000378012B2FD0016B436B0A6870B500242D
:10F860004FF400451D601C605C605C61136823F010
:10F870001F0313601368DC07FCD40E7AC56A4C685A
:10F880002A683D23B3402360136823F01F031360ED
:10F890001368DB07FCD40446287A6A683D2383405A
:10F8A00013600846FFF78CF9E06AFFF789F9084B07
:10F8B0009C4201D070BD70472120FEF769FF2220D5
:10F8C000FEF766FF034A136C23F480031364F1E729
:10F8D000CC0F0020003802400000000000000000B3
:10F8E0004900F0B541F0010100250184446B8560B9
:10F8F000DDF814E085F31188C66A416A3768144E52
:10F900003960FA607B602A46B76A202501E082F3FD
:10F91000118885F31188A369990702D423689B0590
:10F9200007D5B36ADB1BB3F5FA7FF0D34FF0FF3096
:10F93000F0BD636843F400736360236843F4A0631D
:10F94000714623601C30BDE8F040FDF709BD00BFE3
:10F95000980C0020000000000000000000000000E3
:10F960002DE9F04349000025164607AA01849C466C
:10F97000446B856092E8044185F31188016BC76A86
:10F9800009683F68836A0B60D0F82490CE60164EF9
:10F99000C1F804C0C7F80090FA60C7F804802A468E
:10F9A000B76A202501E082F3118885F31188A369E5
:10F9B000990702D423689B0508D5B36ADB1BB3F50E
:10F9C000FA7FF0D34FF0FF30BDE8F083636843F473
:10F9D00000736360236843F48073714623601C30B6
:10F9E000BDE8F043FDF7BCBC980C0020000000000F
:10F9F0002DE9F04FB44BB5499A69D0F85090916118
:10FA000087B0202383F31188019300F16003CA4675
:10FA10000593814699F80030012B06D0D9F85C3067
:10FA200063B9DAF81430DB0608D4DAF81830059830
:10FA300043F01003CAF81830FDF782FC002383F36B
:10FA400011889B46DAF8143013F0100324D0D9F84B
:10FA50005060336A03F4F012B2F5802F32D0B2F561
:10FA6000402FEFD103F00F0209EB8202C3F30A1318
:10FA7000D26803339B08106AE4D006F58056022250
:10FA8000316812B140F8041B013A013BF8D1DAF8B1
:10FA9000143013F01003DAD1D9F85C20012101FAF7
:10FAA0000BF11142039169D10BF101030293D9F8D3
:10FAB00054309DF808B09B689B45C3D9019B83F3E4
:10FAC0001188A7E703F00F0509EB8505C3F30A14B6
:10FAD000EB6899690B78DBB94B688A68C8680333AF
:10FAE0009A1AE31C9B084FEA920209D006F5805649
:10FAF0008646376812B14EF8047B013A013BF8D1D3
:10FB00002044C860EB689A6993682344936099E73E
:10FB1000C86824B3426906F580562746032F06D9E4
:10FB200003699A4203D3C2684261032FF8D8D6F81A
:10FB300000E000232EFA03F102F1010CC0F814C01A
:10FB4000117002694169914224BFC2684261013F5C
:10FB500003F1080303D0202B4269EBD1DEE7019BC0
:10FB600083F311888368234483600021FDF730FC10
:10FB7000FDF7FEFA002383F31188C3E7019A82F3AD
:10FB80001188DAF80810D9F85C20039821F00101F7
:10FB900022EA0002CAF80810C9F85C2083F3118831
:10FBA00009EB8B07FC68626991685368994280F0A1
:10FBB000B580D9F85000268A4FEA4B1800EB0804AC
:10FBC0005B1AD4F818199E4228BF1E468BB2B6EBBA
:10FBD000830F0BF1010302932FD81B03CDF810A064
:10FBE0009A461378002B3DD1F31CD4689B0800EB98
:10FBF0000A0E18BF214605D051F8040BCEF80000BC
:10FC0000013BF9D13444D460FC686269936851685F
:10FC10003344994293607DD9D9F85000248A00EB8F
:10FC20000805CE1AD5F81839A64228BF26469BB239
:10FC3000B6EB830FD5D9DDF810A00022019B83F32A
:10FC40001188DAF8083043F00103CAF808302AB9FD
:10FC5000DAF83438039A1A43CAF83428002383F3B5
:10FC6000118824E700EB0A0ED068F6B1D0F810C076
:10FC7000324691082CD1836900210C465D1C8561B8
:10FC80001B78654503FA01F344EA030424BFC36803
:10FC90008361013A01F1080103D0202901D0836971
:10FCA000ECE7CEF80040002AE3D1019B83F31188F2
:10FCB0008368334483600021FDF78AFBFDF758FA1F
:10FCC000002383F311889FE7980C002030850108FA
:10FCD0008469BCEB040348BF03339B108B4228BFED
:10FCE0000B464FEA830BCBEB02023BB1214651F8A6
:10FCF000045BCEF80050013BF9D15C44A44584611B
:10FD000004D8C3688361002AB3D1CEE7002ACCD0DF
:10FD10002346B1E7DDF810A001228FE70BF10103C4
:10FD20000293F9E70000000000000000000000005E
:10FD3000F0B50024D1F808E025464FF0804C4FF094
:10FD4000FF3714E0C1F80059C218C2F81059C2F8C0
:10FD50000879D1F8006B002E17DBC1F8005B034473
:10FD600001347445C3F8105BC3F8087B14D86301F1
:10FD7000C118D1F80029002AE4DAC1F800C90E46FA
:10FD8000D6F808299207FBD5DEE7C1F800CBD2F8F8
:10FD9000081BC906FBD5E2E74FF00113C0F81C3879
:10FDA000F0BD00BF000000000000000000000000E7
:10FDB00010B5064C2046FEF7BBF94FF0A043044AAD
:10FDC0002365002362652366636610BD081000206A
:10FDD0002085010800000000000000000000000075
:10FDE0000378012B00D0704770B5314B066D9842F7
:10FDF00082B0054618BF34463AD000232D482E491C
:10FE0000EB654FF43412F060C6F800182020C6F8F5
:10FE1000003EB263FDF72CF8012323612369DB0761
:10FE2000FCD40C20FDF724F82369002BFCDA002415
:10FE3000B460696D286DFFF77BFF6B68C6F81048EA
:10FE4000DB68C6F81448C6F81C486BB143F20803D7
:10FE5000B3616B6E4FF0FF327261D3B1B36843F0A0
:10FE60000103B36002B070BD4FF44053B361F0E7DB
:10FE7000124B5A6B42F080025A635A69002042F0DA
:10FE800080025A610E2158614320FEF761FC2C6DFF
:10FE9000B3E70B4B009502224FF4067105F16800A1
:10FEA000FDF7AEF96866FDF783F8FDF761F9D5E770
:10FEB00008100020401400400300200200380240D7
:10FEC000F1F9000800000000000000000000000040
:10FED000F8B5056D202307462B612B6913F020042C
:10FEE000FBD10C20FCF7C4FFD7F854E0DEF8086023
:10FEF00023464FF00060FF2105EB43120133B3426C
:10FF0000C2F80009C2F8000BC2F80819C2F8081BB1
:10FF1000F2D9DEF800304FF0FF324FF00111C5F892
:10FF200018283A6DC5F81C18BB65DEF800306B6206
:10FF300010231361136913F01004FBD10C20FCF79C
:10FF400097FFD5F80038114A114823F4FE63C5F82D
:10FF50000038AB6943F4402343F010030921AB613F
:10FF6000C5F81018C5F81418F860C5F8104BC5F896
:10FF7000002BC5F81049C5F80029BB6D03F110022C
:10FF800043F48013BA65AB62F8BD00BF4080001037
:10FF90004085010800000000000000000000000093
:10FFA000026D90F84E10D2F8003823F4FE6343EA55
:10FFB0000113C2F800387047000000000000000084
:10FFC0002DE9F8430FFA81F800EB88070D46FB682E
:10FFD0001A6802F00302022A5ED0032A5ED04C4E59
:10FFE0004C49012A18BF0E46046DD9686A0104EB1A
:10FFF000020E4FF0000CCEF810CB002973D0B3F8EE
:020000040801F1
:1000000012E005F1580149014EEA060E44F801E0FC
:1000100005F1100CD4F81C184FF0010E0EFA0CFE6E
:100020004EEA0101C4F81C18224499684FF0000EF2
:10003000C2F810E9002933D0998B1A8A01294FEAB6
:100040009203826D88BF4B4305F13F0103EB020E23
:1000500004EB810142EA0343AA0142F02002C0F806
:1000600058E04B60226123699A06FCD40C20FCF70F
:10007000FFFEFB681A8A05F1480342EA85525B01DC
:100080003243E2500121D4F81C3801FA05F51D4332
:10009000C4F81C58BDE8F8831F4EA5E71F4EA3E720
:1000A00005F13F0204EB8202AB011D49516043F0B0
:1000B0002003236123699B06FCD404EB48180C2021
:1000C000FCF7D6FED8F8003923F40043C8F800390D
:1000D000D4F81C38012202FA05F523EA0503C4F816
:1000E0001C38BDE8F88304EB481105F11009D1F87C
:1000F00000CB2CF4004CC1F800CBD4F81C184FF006
:10010000010E0EFA09FE21EA0E01C4F81C188BE755
:1001100000800410008000100080081000800C1087
:1001200000040002000000000000000000000000C9
:100130005831036D49015B5813F4004004D013F4A7
:10014000001F14BF01200220704700BF0000000004
:100150004831036D49015B5813F4004004D013F497
:10016000001F14BF01200220704700BF00000000E4
:1001700000EB8101CB681B6A19685B6853601160F2
:10018000704700BF000000000000000000000000F9
:1001900000EB810330B4DD68AC696368236131B979
:1001A000402B04D940236360094A3F2402E05C1ECF
:1001B00043F0C042006D6D8A00EB41112B19B3FB77
:1001C000F5F342EAC343C1F8103B30BC704700BFAF
:1001D000400000600000000000000000000000007F
:1001E0002DE9F041264E376D07EB40130546D3F855
:1001F000084BC3F8084B200703D5D7F81438190764
:100200001DD4E20719D5D7F81438DB0715D506EB4E
:1002100085061B4CF1688B6958681A69904216D3A1
:100220006289CE680123AB4022EA03036381294639
:1002300020463346BDE8F0411847BDE8F08106EBA3
:1002400085032946DB6830465B689847D9E7121A70
:1002500000265A609E6029462046FFF799FF20231A
:1002600083F31188236D03EB4515D5F8003B43F06C
:100270008063C5F8003B86F31188BDE8F08100BFBC
:100280000810002000000000000000000000000036
:1002900000EB810310B4DC68626953681361ABB191
:1002A00071B15A1E006D248A00EB41112244B2FB49
:1002B000F4F243EAC243C1F810395DF8044B7047C9
:1002C000402BEED9402353603F22EBE7036D5DF8EE
:1002D000044B03EB41114FF40023C1F81039704770
:1002E0002DE9F041314F3D6D05EB40130646D3F843
:1002F0000849C3F80849E10703D5D5F81038DA07EB
:100300000AD4230606D50123D5F8342803FA06F6C5
:10031000164229D1BDE8F08107EB8003D9684B690B
:1003200058681A69904234D2121A4FF000085A6085
:10033000C3F8088031463846FFF7AAFF202383F32D
:1003400011883B6D03EB46100122D0F8001941F0F3
:100350000441C0F80019D3F83418B2400A43C3F876
:10036000342888F31188CCE7202383F31188D5F84B
:100370003438FA6D0E4823EA0603C5F834381643BC
:100380000021FE65FCF7FCFF002383F31188BDE824
:10039000F0813A89D1F808800123B34022EA0303AF
:1003A0003B8131463846C047ABE700BF081000200C
:1003B00068100020000000000000000000000000A5
:1003C00070B53A4D2E6D7469B3691C40E1047461D7
:1003D0002DD4A20448BFD6F80838230704D56B688B
:1003E000DB680BB131489847E5062BD46003D6F89B
:1003F000185807D5E90745D4AA0748D46B074BD44A
:100400002E074ED4240307D5E80330D4A90333D4F0
:100410006A0326D42B0303D4BDE87040FDF728BB44
:100420000320FFF7DDFEBDE87040FDF721BB284645
:10043000FDF70EFF6B681B68002BCAD00021284611
:100440009847C6E7202383F31188B369184823F03F
:100450001003B3610021FCF793FF002383F311889D
:10046000C4E70220FFF7BCFE2B03D5D5D8E7002058
:10047000FFF7B6FEA903CBD50120FFF7B1FE6A0353
:10048000C8D5EEE70020FFF72BFFAA07B6D501205D
:10049000FFF726FF6B07B3D50220FFF721FF2E07DA
:1004A000B0D50320FFF71CFFACE700BF0810002009
:1004B00068100020000000000000000000000000A4
:1004C000036D03EB4111D1F8003B43F08063C1F8A9
:1004D000003B70470000000000000000000000002A
:1004E000036D10B403EB41140120D4F8002942F04D
:1004F0000442C4F80029D3F834285DF8044B00FA0C
:1005000001F11143C3F83418704700BF0000000028
:10051000036D03EB4111D1F8003B43F40013C1F824
:10052000003B7047000000000000000000000000D9
:10053000036D03EB4111D1F8003943F40013C1F806
:1005400000397047000000000000000000000000BB
:10055000036D03EB4111D1F8003B23F40013C1F804
:10056000003B704700000000000000000000000099
:10057000036D03EB4111D1F8003923F40013C1F8E6
:10058000003970470000000000000000000000007B
:1005900010B50A4C0A4B4FF6FF7220461A80FDF741
:1005A0008FFD084B08480949094AE06103F124001E
:1005B00023626062A162E26210BD00BFA812002047
:1005C000A4120020B084010800300140160001068A
:1005D00046000106000000000000000000000000CE
:1005E00038B5254DEB6869681C69DA68087D1440E8
:1005F000E2B2D2431A6190B960072FD52B78042B51
:1006000028D0A10712D4E40705D56B681A481B69E6
:10061000984703232B70BDE83840FDF729BAA2079D
:100620000BD52B78042B04D06307ECD504232B7057
:10063000E9E78B68E3B1284698476307E3D52B7851
:100640000D4A042BF2D15168CB68002BEED00A483A
:100650009847EBE78B6843B128469847A107D2D566
:100660002B78054A042BE1D1EDE7A007ECD4CAE7CB
:100670006207E9D4C7E700BFD812002000000000DD
:1006800010B5034C2046FDF723FB024BE36010BD81
:10069000D81200200004004000000000000000000C
:1006A000F8B50378012B04463AD0C36800221A60DB
:1006B0005A639A635A626168A26888690D7D4E68C0
:1006C000B2FBF6F220F0FF00013A00274FF6FF766A
:1006D0001F61D8609A62DE620A786DB940F201202B
:1006E000542198619960C2B113221A6203F1380251
:1006F000343322616361F8BD4FF4817064219861E5
:1007000099603AB131221A6203F13402383322611E
:100710006361F8BD13221A62F6E731221A62E5E737
:100720000B4B984201D0E368C5E70A4B1A6C42F0C4
:1007300002021A641A6A002042F002021A620721B9
:1007400018621D20FEF704F8034BA360EBE700BF1F
:10075000D81200200038024000BD01050000000052
:10076000C3685A69002042F0010205215A611861EC
:100770001960704700000000000000000000000049
:10078000C268D36810B413F0FF040CD1416814613F
:10079000087D58B1886878B143F00603096909B14A
:1007A00043F00103D3605DF8044B7047886800286C
:1007B000F2D143F00203F1E743F00403EEE700BF98
:1007C00008B5202383F31188FCF722FB002383F371
:1007D0001188BDE80840FDF74BB900BF00000000DC
:1007E000054B44F29F1100200722596098600821B0
:1007F0000B201A60FDF7E4BF10E000E000000000ED
:1008000001690A68136823F01F0313601368DB078C
:10081000FCD430B444690D7A496822683D23AB406A
:100820000B60136823F01F031360136813F00103B8
:10083000FBD1257A826860683D21A940016030BC07
:10084000D360136153617047000000000000000096
:100850002DE9F0418468E7682668626840F20F136A
:1008600033400546EBB143681A696FF48073236027
:10087000BAB1B3B213F0080F0CBF00211021D80792
:1008800048BF41F00401980748BF41F008015807EC
:1008900048BF41F02001D80548BF41F0400128463B
:1008A000904772060ED57B060CD56B685B6827F007
:1008B00040076FF040022260E7601BB12846BDE8A8
:1008C000F0411847BDE8F081000000000000000082
:1008D00011F00C0F38B504461BD161690A68136822
:1008E00023F01F0313601368DB07FCD463680D7AE1
:1008F00048681A683D23AB400221036061702AB149
:10090000204690476378022B00D038BD00236370E7
:1009100038BD0248FCF774FADFE700BF1085010814
:1009200011F00C0F70B504463BD1A3784BB9636846
:10093000DB68002B34D0218B204689B2BDE87040A3
:10094000184721690A68136823F01F0313601368AE
:10095000DB07FCD460680D7A4E6881683D23AB40AC
:1009600002253360A57039B120468847A378AB4291
:1009700016D1236960681A68C168E368002914BF4A
:100980004FF488714FF480710B430025012104F16D
:100990001800A570D0605160136013680B4313609A
:1009A00070BD0248FCF72CFABFE700BF10850108B4
:1009B00008B50348FFF74CFFBDE80840FDF758B8FD
:1009C000F012002000000000000000000000000005
:1009D00008B50348FFF73CFFBDE80840FDF748B8FD
:1009E0000C130020000000000000000000000000C8
:1009F00070B50C4D0C4C0D4E2846FDF779FB0C4B99
:100A0000AB60062204F1180330462C616B61EA608A
:100A1000FDF76EFB074BB36004F16C03A834336140
:100A2000746170BDF01200205C8401080C1300207A
:100A300000480040001401400000000000000000D9
:100A4000F8B50378012B04463ED085680023A370D7
:100A500063702046FFF7D4FEA368474A93424BD009
:100A600002F58062934247D06268444B5169B3FB00
:100A7000F1F3AB60D768138B508B918B22692E6892
:100A80006E68E6681268002F43F404534FF00007C5
:100A90002F6040F0400014BF4FF488774FF4807708
:100AA00043F00C0341F0C1019BB23E4380B20127E9
:100AB00089B2183428616961EB60D46057601660B0
:100AC00013683B431360F8BD2D4B98423AD02D4B31
:100AD00098421DD063681B8B03F4A053B3F5805F6D
:100AE00011D022696369A5681068196800222B1D5E
:100AF00083608B602283A9E76268234B5169B3FB53
:100B0000F1F3AB60B6E7E36843F42053E360E8E752
:100B100003461E4A00690C21FEF70AF823461C4AC8
:100B200060690C21FEF704F81A4A536C43F0200365
:100B300053640C214720FDF70BFEE36843F020636C
:100B4000E360C7E70346114A00690C21FDF7F0FF97
:100B500023460F4A60690C21FDF7EAFF0D4A136C2A
:100B600043F4802313640C212720FDF7F1FDE36893
:100B700043F00063E360ADE70010014080DE8002D7
:100B8000F01200200C13002000BD0105210901080E
:100B9000D1080108003802400000000000000000F9
:100BA000FEF76EB80000000000000000000000002A
:100BB000704700BF000000000000000000000000BF
:100BC000F0B400F10B073C460D46B1FBF2F602FB18
:100BD000161101F13003392BC8BF01F13703DBB225
:100BE00004F8013DB5FBF2F53146002DEDD13A1B7D
:100BF000024401E014F8013F00F8013B9042F9D1B2
:100C0000F0BC704700000000000000000000000081
:100C10002DE9F04F2DED028B91B0002306468B4657
:100C2000924600939BF800100BF1010379B125293E
:100C300013D0009C32689B46926830460134009481
:100C400090479BF800100BF101030029EFD10098A9
:100C500011B0BDEC028BBDE8F08F9BF801202D2A6E
:100C600003BF9BF802200BF1020301210021302A6F
:100C700008BF5A78019106BF013330272027591C3D
:100C8000002408E09AF800300AF1040A9BF80020DA
:100C900003EB40040131A2F13003DBB2092B8B4698
:100CA00004EB8400F2D92A2AECD02E2A4FF0000857
:100CB00045D002F0DF034C2B50D0A2F14403342B7B
:100CC00000F2C981DFE813F0B701C701C701C7010E
:100CD000C701B701C701C701C701C701C701B501F6
:100CE000C701C701C701C701C7010601C701C70185
:100CF0008D00C701C701C701C701C701C701C701EF
:100D0000C701C701C701A701B701C7010801C70192
:100D1000C701B701C701C701C701C701C701B501B5
:100D2000C701C701C701DB00C7010601C701C70131
:100D30008D009AF800300AF1040A03EB41081BF811
:100D4000012BA2F13003DBB2092B08EB8801F4D9A7
:100D50002A2AEED002F0DF034C2BAED19BF8001014
:100D6000002900F07881A1F144030BF1010B342B31
:100D700000F27081DFE813F05F016E016E016E0119
:100D80006E015F016E016E016E016E016E015D010B
:100D90006E016E016E016E016E01AE006E016E019C
:100DA00035006E016E016E016E016E016E016E0105
:100DB0006E016E016E014F015F016E01B0006E01A8
:100DC0006E015F016E016E016E016E016E015D01CB
:100DD0006E016E016E0183006E01AE006E016E0148
:100DE000350010220AADDAF800102846FFF7E8FEB9
:100DF000401B0AF1040A00F1FF38019B241A24EA7F
:100E0000E474002B62D1C4F10009B9F1000F00F0C5
:100E10002B8129782D2900F03A81336839469B6867
:100E20003046984719F10109F7D1009BB8F1000F3E
:100E300023440093FFF6F6AE4C46C146336815F8DE
:100E4000011B9B6809F1FF3930469847B9F1FF3F14
:100E5000F4D1009B0133B8F1000FA8BF43440093C5
:100E6000002C3FF4DFAE2546336839469B68304698
:100E70009847013DF8D1009B23440093D2E6DAF86D
:100E800000509B4B002D08BF1D460AF1040A2B7829
:100E9000B8F1000F00F0EE80002B00F0F08008F1B8
:100EA000FF38284602E0B8F1FF3F05D010F8013FB7
:100EB00008F1FF38002BF6D1401B019B241A00F1EA
:100EC000FF38202724EAE474002B9CD0B8F1000FEF
:100ED000B3DAC5E70A2285E70AF1070A2AF0070A0A
:100EE000DAE90001FBF7ACFD08EE100AB5EEC08AA6
:100EF000F1EE10FA0AF1080A00F1E8800AAD2A467C
:100F000018EE100A0492FBF77FFA08F1FF38B8F1E7
:100F1000080FCDE90201049A00F2C780754B53F81F
:100F200028804046FBF74EFA734B049AA3FB08381F
:100F3000CDE906014FEAD80309939846FDEEC87A39
:100F400002F10B0317EE901A17EE90EACDED047A3A
:100F5000059318460892684BA3FB0E23DB0803EBAE
:100F60008309654A9C46AEEB49033033A2FB01215D
:100F7000DBB2C90800F8013DE646ECD10599089AB4
:100F8000C0EB0109914401E010F8013F02F8013B78
:100F90004A45F9D14A462E2302F80C3B04980492A4
:100FA000FBF720FA02460B46DDE90201FBF7CCF81D
:100FB000DDE90623FBF77CFAFBF71AFD0999049A91
:100FC000002908BF804609F1010E4B4BA3FB00131B
:100FD000DB0803EB830C1946A0EB4C034648303387
:100FE000A0FB0808DBB25FEAD80802F8013D08461A
:100FF000EBD10499891A481C8144704601E012F82B
:10100000013F00F8013B8145F9D10EEB0100401B87
:1010100000F1FF38F1E610ADDAF8003005F8183DC0
:101020000DF12900401B0AF1040A00F1FF382027C6
:10103000E3E60822D6E6DAF8001000290AF1040AED
:101040003CDB0AAD28460A22FFF7BAFD401B00F13F
:10105000FF38D2E60A4610AD0DF1290005F8182D2B
:10106000401B00F1FF38C8E6B8F1000FFFF6DAAD1B
:101070004C46E2E647F6FE78002B7FF412AF019B68
:1010800024EAE4745BBB4FF0FF382027BBE6302F27
:101090007FF4C3AE336830469B689847009B0133AA
:1010A0000135009308F1FF38B7E69FED0F7BDFF8BD
:1010B0004C80CDF824808DED067B3FE72D234942FF
:1010C0008DF828300DF129000AADBCE72D23B1EED3
:1010D000488A8DF828300DF129020AAD10E7202743
:1010E000BEE600BFAFF300800000000065CDCD413B
:1010F0007086010880860108CDCCCCCC00E1F505D6
:101100000121F8B50846484D484E494C04F078FE98
:101110000121022004F074FE0121042004F070FE7D
:10112000284619221021FEF71BF94FF48067284644
:1011300019222021FEF714F9284639461922FEF714
:101140000FF930466F8319224FF48051FEF708F9EA
:1011500020469A224FF48071FEF702F920469A2227
:101160004FF40071FEF7FCF8394620469A22FEF74C
:10117000F7F830469A224FF40051FEF7F1F8304666
:101180009A224FF48041FEF7EBF830469A224FF452
:101190000041FEF7E5F8284620224FF48051FEF783
:1011A000DFF8204603220121FEF7DAF82046032269
:1011B0000221FEF7D5F8204603220421FEF7D0F8DD
:1011C000204603220821FEF7CBF8204603221021F7
:1011D000FEF7C6F8204603222021FEF7C1F820467C
:1011E00003224021FEF7BCF8304603220121FEF71E
:1011F000B7F8304603220221FEF7B2F82846032250
:101200000121FEF7ADF8284603220221FEF7A8F8D7
:10121000284603220421FEF7A3F8284603220821CA
:10122000BDE8F840FEF79CB8000802400004024008
:10123000000002400000000000000000000000006C
:1012400070B5324D324C334E012328461A460021E8
:1012500004F03EFB284601230222082104F038FB5B
:10126000284601230322112104F032FB04222846E0
:101270001146012304F02CFB012320461A4619468F
:1012800004F026FB204601230222092104F020FB62
:10129000204601230322062104F01AFB20460123E5
:1012A0000422052104F014FB012330461A460221D2
:1012B00004F00EFB304601230222032104F008FB58
:1012C0003046012303220C2104F002FB30460123A7
:1012D0000422032104F0FCFA012328461A460921BE
:1012E00004F056FB284601230222082104F050FB9B
:1012F000012320461A46082104F04AFB2046012318
:1013000002220921BDE8704004F042BB00200140E8
:101310000021014000220140000000000000000008
:1013200010B50F4C0F48FCF7BBFC23789BB940F27B
:101330002E224FF480610C48FEF712F840F22E2264
:101340004FF400610848FEF70BF808490548FCF720
:101350004FFC012323700348BDE81040FCF7A8BCF4
:1013600028130020CC0F002000040240B0860108A2
:1013700010B50E4C0E48FCF793FC237883B1002285
:101380004FF480610B48FDF7EBFF00224FF4006142
:101390000848FDF7E5FF0648FCF73AFC00232370F8
:1013A0000348BDE81040FCF783BC00BF28130020B1
:1013B000CC0F0020000402400000000000000000EC
:1013C0002DE9F8432B4B1B780BB9BDE8F8832A4D68
:1013D0002A48FCF765FC28462C224FF48061FDF773
:1013E000BFFF28462C224FF40061FDF7B9FF4FF4F0
:1013F00080674FF400632F8301202B83FBF768FF86
:10140000B94610240120A5F81A90FBF761FF2F833D
:101410000120FBF75DFF013C174E4FF48068F1D1CE
:101420004FF4006575830120FBF752FFA6F81A8080
:101430000120FBF74DFFA6F818800120FBF748FFBD
:101440000E4C35834146304640F22E22FDF788FF90
:101450002946304640F22E22FDF782FF0123204626
:1014600007492370FCF7C4FB2046BDE8F843FCF7AE
:101470001FBC00BF2813002000040240CC0F002036
:10148000B08601080000000000000000000000001D
:1014900008B54FF4A07200210F4806F049FF0F492C
:1014A0004FF47A7301F1A00221F8023F01338A421E
:1014B0009BB2F9D10A494FF4FA6322F8023F013393
:1014C00091429BB2F9D104F0EBFBF22004F0F8FB5F
:1014D000BDE8084002F0E4BD4413002042130020A0
:1014E0008214002000000000000000000000000046
:1014F000F8B5D4220446002106F01AFF174D184A09
:101500001849194B194F1A4E1A482262E1631A4AB8
:101510001A49E56501256362A762194B194F2663D5
:101520006063194E1948216422661949A572002288
:1015300084F848504FF08245E2722273627323614F
:10154000A361E366636767612767E661A667A563D2
:101550006564E06460652165A165F8BD0AD7A33BB9
:1015600000000243000064420050C3C70050C3475C
:10157000000096430080BB443333733F000020419A
:1015800000007042000070C2000020C20000A042B3
:101590000000C84200000000000000000000000041
:1015A00070B5064682B0451C4FF4FA640AE0BDF8F7
:1015B0000630B4F5026F4FEA132205F8012C05F846
:1015C000023B10D020460DF1060102F031FD01343E
:1015D000A4B20028EBD03046A022002102B0BDE822
:1015E000704006F0A5BE02B070BD00BF0000000054
:1015F000F0B5074683B0451C4FF47A7440F252466A
:1016000009E0BDF80630B4424FEA132205F8012C78
:1016100005F8023B11D020460DF1060102F008FD4D
:101620000134A4B20028ECD00649002001F050FD9E
:101630003846FFF75DFF03B0F0BD024901F048FDF9
:1016400003B0F0BDC08601080000000000000000EB
:1016500070B51B490546002001F03AFD00F0C0FDC1
:1016600002F0F6FE00214FF4006004F0D9FBF220F6
:1016700004F026FB01354FF47A7440F2524601E043
:10168000B4421BD015F8011C2B78204643EA0121F7
:1016900002F0AEFD01340928A4B205F10205EFD035
:1016A000002401214FF4006004F0BAFB02F0E0FED8
:1016B0000449002001F00CFD204670BD0124F0E734
:1016C000FC860108208701080000000000000000DF
:1016D00008B5204B204A9B69204D214CDFED21AA03
:1016E0009FED21AADFED219A9FED218A9FED219A9E
:1016F000DFED218A9A6140F6C410FBF7E9FD6389AA
:1017000007EE103AB8EEC77A238A89EE870A07EE09
:10171000903AF8EE677A30EE480A67EEAA7A80EEE1
:10172000080A67EE8A7AC5ED007A05F029F880EE9E
:10173000090A41F64C50F7EE006A30EE280A9FED98
:101740000F7AC6EE807A77EEC77AC5ED017AFBF79D
:10175000BFFDD0E7980C002030870108F021002061
:101760002C1300206740533A74D195413C361C4CF1
:1017700000401C4600A056450FCF5B3B3393884387
:10178000F8B5754C2368013303F00F02022A2DEDE2
:10179000048B236000F0C780012A00F0CD8013F095
:1017A000010366D16D4A6E4C53622378D80767D522
:1017B0006C4A6D491389D2884D8A0F8A20786A4E07
:1017C000521BDB1B9BB292B29D1840F001006D4290
:1017D0001BB212B28D800B804A80C10720705DD58C
:1017E000624CDFED638AD4ED007A9FED627A9FED63
:1017F000629A9FED628A84ED099A77EEA88A84ED59
:101800000A8AF4EEC78AF1EE10FAA8BF77EE688A6A
:10181000C4ED008AB0EE680A04F0EAFEF0EE409AE9
:10182000B0EE680A04F05CFF69EE886A68EE407A00
:10183000E0EE096A524BE9EE897ADFED525AC4EDC7
:101840000B7AB1EE667AB0EE476AA7EEA56AA7EE0C
:10185000E57AF6EE005A66EE257A27EE257AC4ED93
:101860000C6AC3ED016AC3ED027A83ED037A00F0DE
:10187000FFFDBDEC048B6420BDE8F84004F0A8BE79
:101880003949384A0E8B8D8A1389C88AD288013625
:101890001D4410440E838D82C8828DE707EE902A86
:1018A00096ED037ADFED386A96ED028A374A2F4CBF
:1018B00092ED2E9AF8EEE77AB0EE490A27EE877A93
:1018C00007EE903A77EE078AF8EEE77A68EEA68A96
:1018D00027EE888A84ED047AE8EE268A84ED038A6E
:1018E000C4ED068A84ED058A84ED009A04F080FE3A
:1018F000F0EE409AB0EE490A04F0F2FE68EEA97AE2
:1019000068EE808AE8EE007AE8EE698AC4ED087A2B
