:020000040800F2
:100000000004002001C00008B1C90008B1C90008FF
:10001000B1C90008B1C90008B1C90008B1C90008D8
:10002000B1C90008B1C90008B1C9000831D400083D
:10003000B1C90008B1C90008B1C90008E1F9000858
:10004000B1C90008B1C90008B1C90008B1C90008A8
:10005000B1C90008B1C90008B1C90008B1C9000898
:10006000B1C90008B1C90008B1C90008E1DF000842
:1000700011E0000841E0000871E00008A1E000087C
:10008000D1E0000801E10008D10F010831E60008C5
:1000900071E60008E1E6000851E70008B1C9000870
:1000A000B1C90008B1C90008B1C90008B1C9000848
:1000B000B1C9000821F90008B1C90008B1C9000898
:1000C000B1C9000871EA000871EB0008B1C9000865
:1000D000B1C90008B1C90008B1C90008A1FA0008F7
:1000E000F10F0108B1C90008B1C90008B1C9000881
:1000F000B1C90008B1C90008B1C9000831E1000860
:10010000B1C90008B1C9000821F80008B1C9000848
:10011000B1C90008B1C90008B1C90008B10F010890
:1001200061E1000891E10008C1E10008F1E1000887
:1001300021E20008B1C90008B1C90008B1C900082E
:10014000B1C90008B1C90008B1C9000851F60008DA
:1001500051E2000881E20008B1E20008C1FA00089B
:10016000B1C90008B1C90008B1C90008B1C9000887
:10017000B1C90008B1C90008B1C90008B1C9000877
:10018000B1C90008B1C90008B1C90008B1C9000867
:10019000B1C90008B1C90008B1C90008B1C9000857
:1001A000B1C90008B1C90008B1C90008B1C9000847
:1001B000B1C90008B1C90008B1C90008B1C9000837
:10C0000072B6334880F3098840F20000CCF2000099
:10C010004EF63471CEF200010860BFF34F8FBFF3CC
:10C020006F8F40F20000C0F2F0004EF68851CEF261
:10C0300000010860BFF34F8FBFF36F8F4FF0000018
:10C04000E1EE100A4EF63C71CEF2000108600620C7
:10C0500080F31488BFF36F8F00F092FC03F068FD4B
:10C060004FF055301B491C4A91423CBF41F8040B2C
:10C07000FAE71A49164A91423CBF41F8040BFAE725
:10C080001749184A184B9A423EBF51F8040B42F820
:10C09000040BF8E700201549154A91423CBF41F8CE
:10C0A000040BFAE700F074FC124C134DAC4203DAB7
:10C0B00054F8041B8847F9E705F05AFE0F4C104D61
:10C0C000AC4203DA54F8041B8847F9E700F068BC77
:10C0D00000080020000000200004002000040020D0
:10C0E000A835010800080020440C0020480C00205E
:10C0F000A023002000C0000800C0000800C0000805
:10C1000000C0000800000000000000000000000067
:10C110002DE9F04F2DED108AC1F80CD0D0F80CD0DD
:10C12000BDEC108ABDE8F08F002383F31188284608
:10C13000A047002000F034FF00F062FE00DFFEE7C1
:10C1400081F0004102E000BF83F0004330B54FEAC8
:10C1500041044FEA430594EA050F08BF90EA020F35
:10C160001FBF54EA000C55EA020C7FEA645C7FEAC8
:10C17000655C00F0E2804FEA5454D4EB5555B8BFEB
:10C180006D420CDD2C4480EA020281EA030382EA5C
:10C19000000083EA010180EA020281EA0303362DEE
:10C1A00088BF30BD11F0004F4FEA01314FF4801CC1
:10C1B0004CEA113102D0404261EB410113F0004FD3
:10C1C0004FEA03334CEA133302D0524263EB43038A
:10C1D00094EA050F00F0A780A4F10104D5F1200E28
:10C1E0000DDB02FA0EFC22FA05F2801841F1000183
:10C1F00003FA0EF2801843FA05F359410EE0A5F157
:10C2000020050EF1200E012A03FA0EFC28BF4CF087
:10C21000020C43FA05F3C01851EBE37101F000453D
:10C2200007D54FF0000EDCF1000C7EEB00006EEB4A
:10C230000101B1F5801F1BD3B1F5001F0CD34908D4
:10C240005FEA30004FEA3C0C04F101044FEA44522B
:10C2500012F5800F80F09A80BCF1004F08BF5FEAB2
:10C26000500C50F1000041EB045141EA050130BD92
:10C270005FEA4C0C404141EB010111F4801FA4F135
:10C280000104E9D191F0000F04BF01460020B1FA8A
:10C2900081F308BF2033A3F10B03B3F120020CDAC2
:10C2A0000C3208DD02F1140CC2F10C0201FA0CF0A0
:10C2B00021FA02F10CE002F11402D8BFC2F1200C05
:10C2C00001FA02F120FA0CFCDCBF41EA0C019040BB
:10C2D000E41AA2BF01EB0451294330BD6FEA040404
:10C2E0001F3C1CDA0C340EDC04F11404C4F12002EF
:10C2F00020FA04F001FA02F340EA030021FA04F301
:10C3000045EA030130BDC4F10C04C4F1200220FA57
:10C3100002F001FA04F340EA0300294630BD21FA95
:10C3200004F0294630BD94F0000F83F4801306BF5B
:10C3300081F480110134013D4EE77FEA645C18BF4F
:10C340007FEA655C29D094EA050F08BF90EA020FE6
:10C3500005D054EA000C04BF1946104630BD91EADE
:10C36000030F1EBF0021002030BD5FEA545C05D1E1
:10C370004000494128BF41F0004130BD14F5800420
:10C380003CBF01F5801130BD01F0004545F0FE4194
:10C3900041F470014FF0000030BD7FEA645C1ABFC9
:10C3A000194610467FEA655C1CBF0B46024650EA00
:10C3B000013406BF52EA033591EA030F41F400212C
:10C3C00030BD00BF90F0000F04BF0021704730B5B2
:10C3D0004FF4806404F132044FF000054FF0000187
:10C3E00050E700BF90F0000F04BF0021704730B548
:10C3F0004FF4806404F1320410F0004548BF40421D
:10C400004FF000013EE700BF42004FEAE2014FEA71
:10C4100031014FEA02701FBF12F07F4393F07F4F4C
:10C4200081F06051704792F0000F14BF93F07F4F7E
:10C43000704730B54FF4607401F0004521F00041C1
:10C4400020E700BF50EA010208BF704730B54FF047
:10C4500000050AE050EA010208BF704730B511F04C
:10C46000004502D5404261EB41014FF4806404F184
:10C4700032045FEA915C3FF4DCAE4FF003025FEA06
:10C48000DC0C18BF03325FEADC0C18BF033202EB8E
:10C49000DC02C2F1200300FA03FC20FA02F001FAE8
:10C4A00003FE40EA0E0021FA02F11444C1E600BF87
:10C4B00070B54FF0FF0C4CF4E06C1CEA11541DBF3A
:10C4C0001CEA135594EA0C0F95EA0C0F00F0DEF805
:10C4D0002C4481EA030621EA4C5123EA4C5350EAEA
:10C4E000013518BF52EA033541F4801143F480133B
:10C4F00038D0A0FB02CE4FF00005E1FB02E506F0CC
:10C500000042E0FB03E54FF00006E1FB03569CF020
:10C51000000F18BF4EF0010EA4F1FF04B6F5007F26
:10C5200064F5407404D25FEA4E0E6D4146EB060698
:10C5300042EAC62141EA55514FEAC52040EA5E5021
:10C540004FEACE2EB4F1FD0C88BFBCF5E06F1ED8CB
:10C55000BEF1004F08BF5FEA500E50F1000041EB02
:10C56000045170BD06F0004646EA010140EA0200AF
:10C5700081EA0301B4EB5C04C2BFD4EB0C0541EAD1
:10C58000045170BD41F480114FF0000E013C00F3E6
:10C59000AB8014F1360FDEBF002001F0004170BD0A
:10C5A000C4F10004203C35DA0C341BDC04F1140423
:10C5B000C4F1200500FA05F320FA04F001FA05F2AF
:10C5C00040EA020001F0004221F0004110EBD3707C
:10C5D00021FA04F642EB06015EEA430E08BF20EAA8
:10C5E000D37070BDC4F10C04C4F1200500FA04F34B
:10C5F00020FA05F001FA04F240EA020001F00041DD
:10C6000010EBD37041F100015EEA430E08BF20EA4F
:10C61000D37070BDC4F1200500FA05F24EEA020E97
:10C6200020FA04F301FA05F243EA020321FA04F0C6
:10C6300001F0004121FA04F220EA020000EBD3707D
:10C640005EEA430E08BF20EAD37070BD94F0000F7D
:10C650000FD101F00046400041EB010111F4801FB1
:10C6600008BF013CF7D041EA060195F0000F18BF62
:10C67000704703F00046520043EB030313F4801F9E
:10C6800008BF013DF7D043EA0603704794EA0C0F58
:10C690000CEA135518BF95EA0C0F0CD050EA41066E
:10C6A00018BF52EA4306D1D181EA030101F00041EB
:10C6B0004FF0000070BD50EA410606BF1046194613
:10C6C00052EA430619D094EA0C0F02D150EA01361F
:10C6D00013D195EA0C0F05D152EA03361CBF104660
:10C6E00019460AD181EA030101F0004141F0FE41FF
:10C6F00041F470014FF0000070BD41F0FE4141F483
:10C70000780170BD70B54FF0FF0C4CF4E06C1CEA82
:10C7100011541DBF1CEA135594EA0C0F95EA0C0F37
:10C7200000F0A7F8A4EB050481EA030E52EA0335F2
:10C730004FEA013100F088804FEA03334FF0805513
:10C7400045EA131343EA12634FEA022245EA111540
:10C7500045EA10654FEA00260EF000419D4208BFF1
:10C76000964244F1FD0404F5407402D25B084FEA9E
:10C770003202B61A65EB03055B084FEA32024FF44A
:10C7800080104FF4002CB6EB020E75EB030E22BFA7
:10C79000B61A754640EA0C005B084FEA3202B6EB67
:10C7A000020E75EB030E22BFB61A754640EA5C0016
:10C7B0005B084FEA3202B6EB020E75EB030E22BFA6
:10C7C000B61A754640EA9C005B084FEA3202B6EBA7
:10C7D000020E75EB030E22BFB61A754640EADC0066
:10C7E00055EA060E18D04FEA051545EA16754FEAC8
:10C7F00006164FEAC30343EA52734FEAC2025FEAE6
:10C800001C1CC0D111F4801F0BD141EA00014FF074
:10C8100000004FF0004CB6E711F4801F04BF014345
:10C820000020B4F1FD0C88BFBCF5E06F3FF6AFAE61
:10C83000B5EB030C04BFB6EB020C5FEA500C50F1F1
:10C84000000041EB045170BD0EF0004E4EEA113174
:10C8500014EB5C04C2BFD4EB0C0541EA045170BD7B
:10C8600041F480114FF0000E013C90E645EA060EBF
:10C870008DE60CEA135594EA0C0F08BF95EA0C0FED
:10C880003FF43BAF94EA0C0F0AD150EA01347FF435
:10C8900034AF95EA0C0F7FF425AF104619462CE70C
:10C8A00095EA0C0F06D152EA03353FF4FDAE10466F
:10C8B000194622E750EA410618BF52EA43067FF4C0
:10C8C000C5AE50EA41047FF40DAF52EA43057FF450
:10C8D000EBAE12E7000000000000000000000000C6
:10C8E0004FEA4102B2F1E04324BFB3F5001CDCF192
:10C8F000FE5C0DD901F0004C4FEAC0024CEA5070CA
:10C90000B2F1004F40EB830008BF20F001007047F8
:10C9100011F0804F21D113F13872BCBF01F00040FB
:10C92000704741F480114FEA5252C2F11802C2F12D
:10C93000200C10FA0CF320FA02F018BF40F00100AE
:10C940004FEAC1234FEAD32303FA0CFC40EA0C0060
:10C9500023FA02F34FEA4303CCE77FEA625307D19D
:10C9600050EA01331EBF4FF0FE4040F440007047D4
:10C9700001F0004040F0FE4040F40000704700BF6E
:10C98000704700BF00000000000000000000000031
:10C99000704700BF00000000000000000000000021
:10C9A000FEE700BF000000000000000000000000E3
:10C9B000FEE700BF000000000000000000000000D3
:10C9C000FEE700BF000000000000000000000000C3
:10C9D000204B214A2148F0B500249C60DF68204E9E
:10C9E000204D4FF6FF0139400A43DA60F26842F009
:10C9F0008072F2600268202142F00102102602607B
:10CA000083B0DE7783F8221000F0FAF800F078F8AF
:10CA100000F04EFB00F0C4FC00F0FAFC2846402178
:10CA200000F0FEF9A5F1300301229861027784F34A
:10CA3000118862B69B690C49996105F15000009418
:10CA40000A4B4FF4EC7100F043FA094B836103B0D9
:10CA5000F0BD00BF00ED00E00003FA05001000E0AB
:10CA6000F0ED00E0780C0020402C0108C1C900085E
:10CA7000302C010800000000000000000000000051
:10CA8000F8B5134DAA69D37F0BB1013BD377116A77
:10CA9000EB69104E01311162AA6AB34202F1010240
:10CAA000AA6213D09C68013C9C607CB920271A685C
:10CAB000D968DC605660EA6184F311881869884798
:10CAC00087F31188EB699A68002AF0D0F8BD00BF9F
:10CAD000480C0020640C0020000000000000000052
:10CAE000034A516853685B1A8342FBD3704700BF07
:10CAF000001000E000000000000000000000000046
:10CB0000054B4FF0FF3003F11C020021586299627F
:10CB1000DA611A62704700BF480C00200000000074
:10CB200070B40D4EF469A5680361A942C26004D9CE
:10CB30002468491BA5688D42FAD36368436004608A
:10CB4000186060608160A3684FF0FF32591AA160DD
:10CB5000726270BC704700BF480C002000000000EB
:10CB600003688268416830B49D68064C2A449A6024
:10CB70000B60056800224FF0FF336960C26063629A
:10CB800030BC7047480C002000000000000000008E
:10CB900010B4202383F31188037F072B0ED8DFE81E
:10CBA00003F0270D0D2308040D08426A9368013332
:10CBB000936090E80C001A60026853604FF0FF34F5
:10CBC000002281680D4B446202771B689A688A4292
:10CBD000FBD25A684260036000211060586081F304
:10CBE00011885DF8044B7047436A00221A60E5E73C
:10CBF000002383F311885DF8044B7047480C002034
:10CC0000034B00221B605B601B615B619A60704795
:10CC1000480C0020000000000000000000000000A0
:10CC200000228168084B10B4044602771B689A689A
:10CC30008A42FBD25A6862602360204614605C60BE
:10CC40005DF8044B704700BF480C00200000000056
:10CC5000084B99691A6810B408770420C8771068DF
:10CC6000186001244360147710465DF8044B9A6104
:10CC7000FFF74EBA480C0020000000000000000042
:10CC800030B54B1C87B012D00C4C0D4AA369054639
:10CC900001A8FFF745FF2846FFF7DAFF049B13B111
:10CCA00001A8FFF75DFFA369586A07B030BD034CC8
:10CCB000FFF7CEFFA369586A07B030BD480C0020CB
:10CCC00091CB000800000000000000000000000000
:10CCD000144B70B404469D694162A868A168814202
:10CCE0004FF000020BD822771B689A689142FBD95B
:10CCF0005A686260236014605C6070BC70472A7779
:10CD00001A46126891688842FBD95068686001260B
:10CD10002A60056055602677294620469C6170BCD4
:10CD2000FFF7F6B9480C00200000000000000000EA
:10CD3000084B9A691B68D17F9B68906821B9834230
:10CD400034BF002001207047834294BF002001209F
:10CD5000704700BF480C00200000000000000000E9
:10CD60000E4A1068036870B4012194695A60042661
:10CD700001770025A16813609061E677257700E0D0
:10CD80001B689A688A42FBD25A6862602360214617
:10CD900014605C6070BCFFF7BBB900BF480C00209A
:10CDA0000D4A1068036830B4012194695A60002567
:10CDB0000177A16813609061257700E01B689A688D
:10CDC0008A42FBD85A6862602360214614605C6026
:10CDD00030BCFFF79DB900BF480C002000000000E8
:10CDE000044B1A689B6992689B689A4200D8704706
:10CDF000FFF7D6BF480C0020000000000000000034
:10CE0000034B9B69DB7F0BB1FFF7CABFFFF7A8BFDE
:10CE1000480C00200000000000000000000000009E
:10CE2000F0B50F4C01646569816002260022067727
:10CE300000F12C014FF0040E012700F12806456196
:10CE4000046180F81FE087774277C26382630262E1
:10CE50008261286160618662C1620163F0BD00BFCA
:10CE6000480C00200000000000000000000000004E
:10CE70006439F0B50144124E124D7769C1600B64FC
:10CE8000059B4B6402230D664FF0040E8260026422
:10CE9000037700F12C020023012500F1280106612F
:10CEA000476180F81FE085774377C363836303623C
:10CEB0008361386181627061C2620263F0BD00BF4C
:10CEC000480C002029C100080000000000000000FC
:10CED000F8B51D460446202383F3118864390144C4
:10CEE000134E144B7769C1600D64069D4D640B664B
:10CEF00002250423826002640577C377002500F1D0
:10CF00002C0300F1280201218177066147614577F2
:10CF1000C563856305628561294638618262C362A3
:10CF200003637061FFF7D4FE85F311882046F8BDD6
:10CF3000480C002029C1000800000000000000008B
:10CF400008B50146202383F311880820FFF798FED7
:10CF5000002383F3118808BD0000000000000000DA
:10CF600038B50E4B9C69A36A606204F128059D42A6
:10CF700007D01A68A2621846FFF752FEA36AAB42B6
:10CF8000F7D1637F9B0704D1636922691A61226923
:10CF900053610F20BDE83840FFF75ABE480C00200F
:10CFA000202383F31188FFF7DBBF00BF00000000E0
:10CFB00010B5054CA369036002465A620320FFF7CF
:10CFC00047FEA369586A10BD480C0020000000000D
:10CFD00003682BB10022026018465962FFF720BE99
:10CFE000704700BF000000000000000000000000CB
:10CFF00069B1084B10B4024644689B69042083E879
:10D000001400236053605DF8044BFFF739BE4FF006
:10D01000FF307047480C00200000000000000000B6
:10D0200038B5036898420BD004460D461A68226052
:10D03000184654605D62FFF7F3FD23689C42F5D10A
:10D0400038BD00BF0000000000000000000000002C
:10D05000014B5B6883607047001000E00000000037
:10D060000F4B10495A688368F0B48F6FC6684168E7
:10D07000D0E90445D31ADB1BE41845F1000501365D
:10D080008B42C6608360C0E9044505D802689342BC
:10D0900038BF0360F0BC70474360F0BC704700BF0E
:10D0A000001000E0480C002000000000000000001C
:10D0B000D0B50C4C86B000234FF0FF3268460026F6
:10D0C0000027A3670193029303930092CDE90467BD
:10D0D000FFF7BEFF6846FFF7C3FF029BA36706B0DA
:10D0E000D0BD00BF480C0020000000000000000080
:10D0F0000023006040608360704700BF00000000B4
:10D10000836B027F19430A2A816309D00B2A00D05E
:10D110007047436A8B43FBD100234362FFF780BD16
:10D12000436A1942F8D17047000000000000000077
:10D1300070B50468A0420FD006460D46E3682B4345
:10D14000E36015B12269134203D0A1686068FFF75C
:10D15000D7FF2468A642F1D170BD00BF00000000D7
:10D1600030B4029C046200250A44856002610060BC
:10D170004060C16081614161C36130BC704700BFE4
:10D180000021C2688160826142616FF00101FFF796
:10D1900047BF00BF000000000000000000000000CA
:10D1A00070B520230E46044683F31188C3692BB162
:10D1B000984703E0FFF71CFF002815DBA568314600
:10D1C0002046002DF6D0A169A36825694A1C013BC1
:10D1D000AA42A360A26128BFE368087828BFA361C0
:10D1E000002383F3118870BD85F3118870BD00BFE3
:10D1F0002DE9F04F044683B0894693461D46D0F88A
:10D200001C80202787F3118800260197B246B8F1C9
:10D21000000F05D02046C04702E0FFF7E9FEE0B965
:10D22000A76829462046002FF7D0A269A368511CA1
:10D23000013BA161A360137809F8013B2369A2694E
:10D240009A4224BFE368A3618AF311880136B3458B
:10D2500005D0019B83F31188D9E787F31188304605
:10D2600003B0BDE8F08F00BF000000000000000028
:10D2700030B4029C04628D180561006040608260D9
:10D28000C16081614161C36130BC70470000000032
:10D2900010B40269C4688461121B44616FF001011B
:10D2A00082605DF8044BFFF7BBBE00BF00000000CA
:10D2B000F8B504460F461646202383F3118803E091
:10D2C000FFF796FE002819DBA56831462046002DA1
:10D2D000F6D06269A368511C013B6161A3601770BD
:10D2E000236962699A4224BFE3686361E3690BB111
:10D2F00020469847002080F31188F8BD85F31188F7
:10D30000F8BD00BF000000000000000000000000A9
:10D310002DE9F04F83B004460D4616460193D0F830
:10D320001C804FF0200989F311880027BA46A368B2
:10D3300005F1010B204603B36169A3684A1C013B58
:10D340006261A3602B780B7023696169994224BFE5
:10D35000E3686361B8F1000F00D0C0478AF3118819
:10D36000013E07F1010712D089F31188A3685D46D9
:10D3700005F1010B2046002BDED1019900932046D8
:10D38000FFF736FE009B0028D1D083F31188384682
:10D3900003B0BDE8F08F00BF0000000000000000F7
:10D3A000054A064B0648074922F0070223F0070307
:10D3B00002600B60704700BFA7230020000002201E
:10D3C000A40E0020A00E00200000000000000000BD
:10D3D00010B4202383F31188094C0A4B2268196882
:10D3E000C31D23F00703891A8B429DBF9B1823603E
:10D3F00010460020002383F311885DF8044B70472A
:10D40000A40E0020A00E002000000000000000007C
:10D41000044B054A1A6003F1100000229A60DA609A
:10D42000FFF766BEA80E0020D1D300080000000060
:10D43000064A536823F001035360EFF3098368330E
:10D4400083F30988002383F31188704730EF00E0ED
:10D45000202383F31188124B5B6813F4006302D11D
:10D4600083F31188704710B5F1EE103AEFF3098499
:10D470000C4B4FF08072DB6844F8083C44F84C2CAD
:10D48000A4F1680383F30988FFF752FC18B1064B37
:10D4900044F8503C10BD054B44F8503C10BD00BF53
:10D4A00000ED00E030EF00E039C100083CC10008A9
:10D4B00008B500F08DFF0B4801F0A2F900F018F854
:10D4C00000F03EF800F06CF800F07AF800F048FA4E
:10D4D00000F056FA00F02CF902F032FBBDE80840EB
:10D4E00000F036BAC02D0108000000000000000066
:10D4F00001F06EB900000000000000000000000014
:10D50000F0B40122002300F1180700F11C0600F11D
:10D51000200500F1240400F128010270436000F1AD
:10D52000080200F110038761C661056244628162EE
:10D530008260C26003614361F0BC7047000000007C
:10D5400002F08EB9000000000000000000000000A2
:10D550000122002302704360704700BF00000000FA
:10D5600010B52023044683F31188416002F088F946
:10D5700002232370002383F3118810BD00000000F4
:10D5800008B5202282F311880322027002F0B0F95C
:10D59000002383F3118808BD000000000000000094
:10D5A00001F056BB00000000000000000000000079
:10D5B00001220023027043600C30FFF799BD00BFC9
:10D5C00002F0FEB9000000000000000000000000B2
:10D5D0000122002302704360704700BF000000007A
:10D5E00010B5046AD4F8542213681978042900D0BD
:10D5F00010BD217A0229FBD110791989012202FA82
:10D6000000F313EA0102F3D1216CE36BA06BCB1A98
:10D610001B1AEDD082F31188D4F8542211791068C6
:10D6200004F1300200F004FA202383F31188D4F8C7
:10D630005432BDE810401979186800F019BA00BFDB
:10D6400038B5046AD4F8542213681978042900D034
:10D6500038BD217A0229FBD15079598901228240B3
:10D660000A40F5D103EB8003A169E069DB686569D5
:10D670005B8A401A411B8B42EAD882F31188B1FBC6
:10D68000F3F1D4F8542203FB01F31068517904F14B
:10D690000C0200F0BDF9202383F31188D4F8543232
:10D6A00059791868BDE8384000F0D2B90000000090
:10D6B0000C30FFF79DBD00BF00000000000000001F
:10D6C0000C304FF0FF33FFF793BD00BF00000000A8
:10D6D0003030FFF71DBE00BF00000000000000005A
:10D6E00030304FF0FF33FFF713BE00BF00000000E3
:10D6F0000C30FFF755BD00BF000000000000000027
:10D700000C304FF0FF31FFF74BBD00BF00000000B1
:10D710003030FFF7CDBD00BF00000000000000006A
:10D7200030304FF0FF32FFF7C3BD00BF00000000F4
:10D73000704700BF00000000000000000000000073
:10D7400010B503460E4A43F8042B82B0012204466A
:10D75000009000F15401436002720A4B0C304FF408
:10D760008072FFF7FDFC009404F5AA7104F130000B
:10D77000054B4FF48072FFF77BFD02B010BD00BF78
:10D78000602C010841D60008E1D500080000000027
:10D790000B68202282F311880A7903EB82029061E0
:10D7A0004A79093243F822008A7912B103EB8203E5
:10D7B000986102230372C0F85412002383F3118886
:10D7C000704700BF000000000000000000000000E3
:10D7D00070B5D0F8543200F10C06044630461D688E
:10D7E000FFF7CEFC04F13000FFF752FD201D0121B0
:10D7F000FFF79EFCD4F85432597905EB8103284693
:10D80000DB6832465B8A00F003F9D4F854322846CC
:10D810005979BDE8704000F01BB900BF000000005E
:10D8200090F8443003F06003202B01D000207047B3
:10D8300090F84530212B03D0222B09D0202BF5D195
:10D84000064B836307220023C263036401207047F1
:10D8500000238363C3630364012070470008002032
:10D86000F8B500EB81039C69BCB10E460546202744
:10D8700087F311880821201DFFF75AFC226CE36B07
:10D88000A16BD31A5B1A10D105EB8603DB685A69CA
:10D8900052681AB9002383F31188F8BD1B8A013B33
:10D8A0001340F7D183F3118802E0002282F311883C
:10D8B00004F130023146284600F0BAF887F31188A7
:10D8C0003146284600F0D4F8E4E700BF000000002D
:10D8D0002DE9F84301F1090350F82360BEB18046F9
:10D8E0000F464FF0200989F3118804217018FFF7C3
:10D8F0001FFC08EB8703B469DA68F5697369518A1C
:10D900002D1BEC1AA14204D9002383F31188BDE832
:10D91000F883002383F31188B4FBF1F306F10C02C2
:10D9200001FB03F34046394600F072F889F3118891
:10D930003946404600F08CF8E6E700BF00000000E2
:10D94000704700BF00000000000000000000000061
:10D9500002F056B8000000000000000000000000C7
:10D9600002F0BEB80000000000000000000000004F
:10D97000002301220270437083704360704700BF30
:10D9800001F05EBB0000000000000000000000008D
:10D990000023012202704360C36183620362C36299
:10D9A0004362036303814381704700BF00000000AE
:10D9B00038B50446202383F3118800254160C560F3
:10D9C00005614561856101F053FB0223237085F3F6
:10D9D000118838BD000000000000000000000000B9
:10D9E000536910B42BB100241C605C609C60DC6047
:10D9F0001C6193692BB100241C605C609C60DC603E
:10DA00001C6100EB81035DF8044BDA6001F020BC7F
:10DA100070B400EB81040126E468A4690025E2608B
:10DA200063602670A56070BC01F0FABC00000000C5
:10DA300070B400EB81040126E46864690025E260AB
:10DA400063602670A56070BC01F06ABD0000000034
:10DA500070B50123448903FA01F214EA020601D0E9
:10DA6000184670BD2243428101F072FE304670BDFF
:10DA700070B50123048903FA01F214EA020601D009
:10DA8000184670BD2243028101F072FE304670BD1F
:10DA9000002202210170A0F84C2080F84E2080F86E
:10DAA0004F2002814281C26002614261826180F83E
:10DAB000342001F055BB00BF000000000000000052
:10DAC000F8B50023044680F8343000F1440201F038
:10DAD00097FC63689B68002B36D020469847002847
:10DAE00032D0E06B94F8443094F84B1094F84A200C
:10DAF00042EA012282423CBFE26310461A0600F16C
:10DB0000AB80002800F08B80E368A56B9B69002246
:10DB1000042184F834101146DD6058601A709A6050
:10DB2000204601F07DFC202383F31188638913F0E4
:10DB3000010105D143F001036381204601F008FE95
:10DB4000002383F31188F8BD94F8443013F0600784
:10DB50001E4611D00021204601F032FE0021204651
:10DB600001F01EFE63681B6813B10521204698472B
:10DB7000062384F83430F8BD94F8450003F07F02A2
:10DB800042EA0025B5F5407F00F0EB8016D9B5F5E7
:10DB9000C06F00F0CE802FD9B5F5106F76D040F66B
:10DBA0000242954200F0EF80B5F5006FD2D104F14A
:10DBB0004F0201202764A263E06395E7022D00F085
:10DBC000A28040F29780B5F5807F00F08480B5F5A3
:10DBD000817FBFD194F84630002BBBD194F84830F8
:10DBE00013F00F0115D01E06204600F1F48001F05D
:10DBF000F7FD94F844600CE040F202339D4257D0A8
:10DC0000B5F5A06FA6D1B4F84430B3F5A06F00F01D
:10DC1000D0800023A363E363236433062AD4E3683C
:10DC20005A690521002384F8341019461370D36013
:10DC300053609360204601F073FC202383F3118826
:10DC4000238913F001017FF47BAF43F001032381AB
:10DC5000204601F08DFD73E760B1E368A56B5B6959
:10DC60000022012184F834101146DD6058601A70DA
:10DC70009A60DFE7E3689A690321002384F834108F
:10DC800019461370D3605360936049E794F84630A7
:10DC900084F84F30002B7DD10323237063681B6809
:10DCA000002BB6D002212046984794F84460B0E794
:10DCB00094F84630002B7FF44DAF94F8483013F0C1
:10DCC0000F01A6D01D06204600F18A8001F068FDF4
:10DCD00094F844609DE794F84630012B7FF43AAF06
:10DCE000B4F84C30A76323F00203E7632764A4F879
:10DCF0004C3092E7002D43D104F14C020220256400
:10DD0000A263E063F0E694F8481011F0800F20461B
:10DD100001F00F0141D101F053FB012841D002284D
:10DD20007FF418AF314BA363E063276494F8443069
:10DD3000DAE694F84900616894F848304D6894F840
:10DD4000462094F8471043EA00232046A8470028BD
:10DD50003FF400AF09C82764A363E06394F844303C
:10DD6000C2E694F84630012B7FF4F4AEB4F84C30A0
:10DD7000A76343F00203E7632764A4F84C304CE741
:10DD8000012D7FF4E7AE1A4AA26302200022E0636D
:10DD90002264A9E60423237080E701F021FB012817
:10DDA000BDD1144BA363E5632764284694F844303F
:10DDB0009AE694F8463084F84E30204601F038FA5E
:10DDC00063681B6813B1012120469847032394F828
:10DDD000446023701DE701F013FD94F8446018E7D8
:10DDE00001F0EEFC94F8446013E700BF902C0108AA
:10DDF000802C0108A02C0108000000000000000099
:10DE000090F8343010B50446062B15D8DFE803F03F
:10DE1000043B1C0404150400002101F0D1FC002186
:10DE2000204601F0BDFC63681B6813B10521204644
:10DE30009847062384F8343010BD036C03B198472B
:10DE4000002384F8343010BDC3689A69032100238D
:10DE500084F83410204619461370D36053609360E1
:10DE600001F0DEFA202383F31188638913F00101A6
:10DE700005D143F001036381204601F069FC0023D2
:10DE800083F3118810BD90F84B1090F84A30C26BA4
:10DE900043EA01239342C368D7D9188AB2FBF0F151
:10DEA00000FB1122002AD0D15B6911461A70DA609A
:10DEB0005A609A60204601F033FB202383F31188D7
:10DEC000238913F0010105D143F00103238120468A
:10DED00001F04EFC002383F31188022384F83430D0
:10DEE00010BD00BF000000000000000000000000A6
:10DEF00090F83420062A0CD80123934013F0670FC2
:10DF000010B5044612D113F0080203D1DB061ED46B
:10DF100010BD7047C3689B699B68002BF8D1036CE8
:10DF200003B19847002384F8343010BD002101F07C
:10DF300047FC0021204601F033FC63681B6813B1E5
:10DF4000052120469847062384F8343010BDC36865
:10DF50005B69052180F834101A70DA605A609A60A3
:10DF6000114601F0DDFA202383F31188238913F091
:10DF7000010103D0002383F3118810BD43F0010396
:10DF80002381204601F0F4FBF4E700BF000000000D
:10DF900043099B0010B403F1604300F1604404F5B1
:10DFA000614403F56143090100F01F00012202FAF8
:10DFB00000F0C9B284F80013C3F8800118605DF85E
:10DFC000044B70470000000000000000000000004B
:10DFD00000F1604000F56D400901C9B2017670475B
:10DFE00008B5074B074A196801F03D0199601368AD
:10DFF0000BB150689847BDE80840FFF729BA00BF49
:10E0000000600240C80E0020000000000000000078
:10E01000084B094819688268890901F03D0110B56B
:10E020008C019C600AB1C0689047BDE81040FFF7C2
:10E030000FBA00BF00600240C80E002000000000C0
:10E04000084B094819680269090C01F03D0110B537
:10E050000C049C600AB140699047BDE81040FFF78E
:10E06000F7B900BF00600240C80E002000000000A9
:10E07000084B094819688269890D01F03D0110B506
:10E080008C059C600AB1C0699047BDE81040FFF75D
:10E09000DFB900BF00600240C80E00200000000091
:10E0A00008B5074B07485968026A01F03D01D9607D
:10E0B0000AB1406A9047BDE80840FFF7C9B900BF00
:10E0C00000600240C80E00200000000000000000B8
:10E0D000084B09485968826A890901F03D0110B569
:10E0E0008C01DC600AB1C06A9047BDE81040FFF7C0
:10E0F000AFB900BF00600240C80E00200000000061
:10E10000084B09485968026B090C01F03D0110B534
:10E110000C04DC600AB1406B9047BDE81040FFF78B
:10E1200097B900BF00600240C80E00200000000048
:10E13000084B09485968826B890D01F03D0110B503
:10E140008C05DC600AB1C06B9047BDE81040FFF75A
:10E150007FB900BF00600240C80E00200000000030
:10E1600008B5074B07481968026C01F03D0199603A
:10E170000AB1406C9047BDE80840FFF769B900BF9D
:10E1800000640240C80E00200000000000000000F3
:10E19000084B09481968826C890901F03D0110B5E6
:10E1A0008C019C600AB1C06C9047BDE81040FFF73D
:10E1B0004FB900BF00640240C80E002000000000FC
:10E1C000084B09481968026D090C01F03D0110B5B2
:10E1D0000C049C600AB1406D9047BDE81040FFF709
:10E1E00037B900BF00640240C80E002000000000E4
:10E1F000084B09481968826D890D01F03D0110B581
:10E200008C059C600AB1C06D9047BDE81040FFF7D7
:10E210001FB900BF00640240C80E002000000000CB
:10E2200008B5074B07485968026E01F03D01D960F7
:10E230000AB1406E9047BDE80840FFF709B900BF3A
:10E2400000640240C80E0020000000000000000032
:10E25000084B09485968826E890901F03D0110B5E3
:10E260008C01DC600AB1C06E9047BDE81040FFF73A
:10E27000EFB800BF00640240C80E0020000000009C
:10E28000084B09485968026F090C01F03D0110B5AF
:10E290000C04DC600AB1406F9047BDE81040FFF706
:10E2A000D7B800BF00640240C80E00200000000084
:10E2B000084B09485968826F890D01F03D0110B57E
:10E2C0008C05DC600AB1C06F9047BDE81040FFF7D5
:10E2D000BFB800BF00640240C80E0020000000006C
:10E2E0000E490F4A0F48002310B40B600E4C19461C
:10E2F00001E052F80C0C016044F833100133102B8C
:10E3000002F10C02F5D10949094A5DF8044B4FF0BE
:10E31000FF338B60CB609360D3607047480F002061
:10E32000BC2C010810600240C80E002000600240B2
:10E330000064024000000000000000000000000037
:10E34000F8B51F4F467A3D68012404FA06FE1EEA1E
:10E35000050F31D11B4C4EEA050504EBC60E15F036
:10E36000FF0F3D6044F83620CEF8043004D0164C40
:10E37000236B43F40013236315F47F4F16D1056814
:10E380002B6823F01F032B602B6813F00104FBD1D3
:10E39000077A46683D23BB40212733602C606F61BC
:10E3A00062B1807AFFF7F4FD2046F8BD064C236B7E
:10E3B00043F480032363E2E72046F8BD1046F8BD2E
:10E3C000480F0020C80E0020003802400000000066
:10E3D000174B4FF0FF311A69002210B419611A610E
:10E3E000586959615A61186A124C60F0805018627D
:10E3F0001A62586A59625A62196C41F08051196464
:10E40000216841F480712160196F01F44071B1F508
:10E41000007F03D04FF4803119671A67054A5DF811
:10E42000044B536823F400735360FFF759BF00BFD8
:10E4300000380240007000400000000000000000B2
:10E440002C492D4B4FF080504FF4404208641A6025
:10E450000B6843F001030B600A68264B9007FBD55D
:10E460009A6822F003029A609A689A6019468B684B
:10E47000204A13F00C03FAD1116801F0F901116080
:10E480009360136843F4803313601168194B890358
:10E49000FBD55A6F42F001025A675A6F154990072F
:10E4A000FBD5164B4B600B68134A43F080730B602F
:10E4B00053685904FCD50F490A680E4B9201FBD5ED
:10E4C0000F4A1049996040F2057111609A6842F054
:10E4D00002029A601A469368064903F00C03082B5F
:10E4E000F9D14B6C43F480434B644B6E43F480434F
:10E4F0004B667047003802400070004008544007E7
:10E50000003C0240009408380000000000000000B9
:10E51000F0B5434C434D236C43F000732364D5F8AE
:10E5200000321B0C1B0443F0010343EA0023C5F82F
:10E53000003200295AD00023C5F81C321846C5F80D
:10E5400004321C46C5F80C32C5F81432C30003F17E
:10E55000804303F5C84301301C28C3F84042C3F888
:10E560004442F3D12F4D0026012710681479C300CF
:10E5700003F1804314F0010F03F5C84306F10106CF
:10E5800007FA00F005D0D5F804E240EA0E0EC5F80F
:10E5900004E214F0020F05D0D5F80CE240EA0E0EAA
:10E5A000C5F80CE2640704D5D5F814420443C5F855
:10E5B00014429468C3F84042D468C3F84442D5F882
:10E5C0001C32B14240EA030002F11002C5F81C02FD
:10E5D000CBD11449124AD1F8003223F00103C1F81B
:10E5E0000032136C23F000731364F0BDC20002F11B
:10E5F0008042012302F5C842834043F00103C5F87D
:10E600004012C5F84412C2F84012C2F84412C5F8CC
:10E610000412C5F81412C5F80C32C5F81C32D8E73C
:10E6200000380240006400400000000000000000CC
:10E6300010B50C4C0C49E26A2023916083F31188D9
:10E64000002104F10800FEF7EBFC04F11C0001219D
:10E65000FEF76EFD002383F31188BDE81040FEF73E
:10E66000F7BE00BF4C0F00200101010000000000B8
:10E6700038B5164DEB6ADC68A20711D1E3060BD55D
:10E68000EB6A1021D960202383F311881048FEF72C
:10E690004FFD002383F31188BDE83840FEF7D8BE54
:10E6A0005A6922F002025A61202383F31188002163
:10E6B00005F11000FEF7B4FC05F118000121FEF78A
:10E6C00037FD002383F31188D8E700BF4C0F0020EB
:10E6D0006C0F00200000000000000000000000009F
:10E6E00038B5164DEB6A1C69A20711D1E3060BD5AC
:10E6F000EB6A10211961202383F311881048FEF77B
:10E7000017FD002383F31188BDE83840FEF7A0BE53
:10E710005A6922F010025A61202383F311880021E4
:10E7200005F11000FEF77CFC05F118000221FEF750
:10E73000FFFC002383F31188D8E700BF4C0F0020B3
:10E740006C0F00200000000000000000000000002E
:10E7500038B51B4DEB6A5C681C225A6022071DD439
:10E76000630717D5EA6A9369916921F07001916195
:10E7700013F0700F03F0070118BF41F008012022C9
:10E7800082F311880F4841EA0341FEF7D1FC0023D0
:10E7900083F31188BDE83840FEF75ABE1A68284650
:10E7A00022F00202032100F8281B20211A6081F3C5
:10E7B00011880021FEF7BCFC002383F31188CFE70A
:10E7C0004C0F00206C0F0020000000000000000033
:10E7D00010B5064C2046FEF793FE0022044BE36280
:10E7E00011460E20BDE81040FFF792BE4C0F0020EE
:10E7F0000064004000000000000000000000000075
:10E80000F0B4654D654C2F6B6549664A664B40F226
:10E81000FF1637432F632F6D3E432E6545686560B5
:10E820008568A560C568E56005696561456925621B
:10E830008569656205682560046A4C60446A8C607D
:10E84000846ACC60C46A4C61046B0C62446B4C6299
:10E85000C4690C60C16B5160016C9160416CD16006
:10E86000816C5161C16C1162016D5162816B1160EB
:10E87000826D5A60C26D9A60026EDA60426E5A61B1
:10E88000826E1A62C26E5A62426D1A60426FC3F89B
:10E890000424826FC3F80824C26FC3F80C24D0F894
:10E8A0008020C3F81424D0F88420C3F82024D0F8A2
:10E8B0008820C3F82424026FC3F80024D0F89020E5
:10E8C000C3F80428D0F89420C3F80828D0F898207A
:10E8D000C3F80C28D0F89C20C3F81428D0F8A02046
:10E8E000C3F82028D0F8A420C3F82428D0F88C201E
:10E8F000C3F8002803F54063D0F8AC205A60D0F884
:10E90000B0209A60D0F8B420DA60D0F8B8205A610C
:10E91000D0F8BC201A62D0F8C0205A62D0F8A820E3
:10E920001A60D0F8C820C3F80424D0F8CC20C3F86B
:10E930000824D0F8D020C3F80C24D0F8D420C3F891
:10E940001424D0F8D820C3F82024D0F8DC20C3F851
:10E950002424D0F8C420C3F80024D0F8E420C3F85D
:10E960000428D0F8E820C3F80828D0F8EC20C3F831
:10E970000C28D0F8F020C3F81428D0F8F420C3F8FD
:10E980002028D0F8F820C3F82428D0F8E020C3F8D5
:10E990000028F0BC704700BF003802400000024071
:10E9A0000004024000080240000C02400000000089
:10E9B0002DE9F04F4FF00F0C02F0030EC2F3800769
:10E9C000C2F3C106C2F341150024C2F3C3124FF0D3
:10E9D00001094FF0030830E0D0F820B02BEA030320
:10E9E00043EA0A030362436809FA04FA23EA0A03C2
:10E9F0003B4343606300D0F808A008FA03F3DB430D
:10EA00000AEA030A4AEA060AC0F808A0D0F80CA0ED
:10EA100003EA0A0A4AEA050AC0F80CA0D0F800A0E6
:10EA200003EA0A0343EA0E030360490819D07F0092
:10EA3000B600AD004FEA8E0E013404F007039B00D0
:10EA400011F0010F02FA03FA0CFA03F3EDD0072CD0
:10EA5000C2D9D0F824B02BEA030343EA0A03436285
:10EA6000C1E7BDE8F08F00BF00000000000000001B
:10EA70003A483B4A70B5446BA369656945EA03436C
:10EA800023F07F4393424CD01ED8073A93423CD0A8
:10EA90000132934210D16268C36A22F400721B688B
:10EAA00062601A6842F001021A60626842F48052A1
:10EAB00062605B68012B4BD915F00A0F18BFA36980
:10EAC000BDE87040FEF7C4BC264A934212D0023221
:10EAD0009342F1D1C36A1B685E683EB32368028C1F
:10EAE00043F4A06342F0010202842360BDE8704059
:10EAF000FEF7AEBC6368026B23F4007312686360B8
:10EB0000136843F001031360D6E7038C1A0A0BD095
:10EB100003F0010343F0F00302F006021343236104
:10EB2000CAE7038CC3F347032361C5E7636823F493
:10EB300000736360236843F400732360202383F32E
:10EB400011881C303146FEF743FA86F31188B3E78B
:10EB5000236823F480632360AEE700BF7C0F0020AE
:10EB60000800030082000700000000000000000011
:10EB70003348F8B5446B076B66693A68B1B201F483
:10EB80005F43DB436361136823F01F031360136863
:10EB9000DB07FCD43A7AC56A7F683D2393402A6834
:10EBA0003B60136823F01F031360136813F0010325
:10EBB000FBD12F7A6D683D22BA40CF052A6048BF4D
:10EBC00001238D05836044BF43F0020383604A053F
:10EBD0000AD5626822F400726260226843F004037E
:10EBE00042F40072226083600F0544BF43F00803C3
:10EBF00083604D0444BF43F020038360CC0413D5ED
:10EC000043F010033104836016D4202383F311886A
:10EC10006FF001010B48FEF7DBF9002383F3118845
:10EC2000BDE8F840FEF714BC320405D4002BECD14B
:10EC3000BDE8F840FEF70CBC43F040038360E4E716
:10EC40007C0F0020980F0020000000000000000052
:10EC500010B5074C2046FEF7ABFC064B064A626334
:10EC6000002103F13C02E161E362226310BD00BFB9
:10EC70007C0F0020C82C0108005800400000000054
:10EC80002DE9F04FB44BB5499A69D0F85090916195
:10EC900087B0202383F31188019300F16003CA46F3
:10ECA0000593814699F80030012B06D0D9F85C30E5
:10ECB00063B9DAF81430DB0608D4DAF818300598AE
:10ECC00043F01003CAF81830FEF772F9002383F3FB
:10ECD00011889B46DAF8143013F0100324D0D9F8C9
:10ECE0005060336A03F4F012B2F5802F32D0B2F5DF
:10ECF000402FEFD103F00F0209EB8202C3F30A1396
:10ED0000D26803339B08106AE4D006F580560222CD
:10ED1000316812B140F8041B013A013BF8D1DAF82E
:10ED2000143013F01003DAD1D9F85C20012101FA74
:10ED30000BF11142039169D10BF101030293D9F850
:10ED400054309DF808B09B689B45C3D9019B83F361
:10ED50001188A7E703F00F0509EB8505C3F30A1433
:10ED6000EB6899690B78DBB94B688A68C86803332C
:10ED70009A1AE31C9B084FEA920209D006F58056C6
:10ED80008646376812B14EF8047B013A013BF8D150
:10ED90002044C860EB689A6993682344936099E7BC
:10EDA000C86824B3426906F580562746032F06D962
:10EDB00003699A4203D3C2684261032FF8D8D6F898
:10EDC00000E000232EFA03F102F1010CC0F814C098
:10EDD000117002694169914224BFC2684261013FDA
:10EDE00003F1080303D0202B4269EBD1DEE7019B3E
:10EDF00083F311888368234483600021FEF710F9B0
:10EE0000FDF7EEFF002383F31188C3E7019A82F335
:10EE10001188DAF80810D9F85C20039821F0010174
:10EE200022EA0002CAF80810C9F85C2083F31188AE
:10EE300009EB8B07FC68626991685368994280F01E
:10EE4000B580D9F85000268A4FEA4B1800EB080429
:10EE50005B1AD4F818199E4228BF1E468BB2B6EB37
:10EE6000830F0BF1010302932FD81B03CDF810A0E1
:10EE70009A461378002B3DD1F31CD4689B0800EB15
:10EE80000A0E18BF214605D051F8040BCEF8000039
:10EE9000013BF9D13444D460FC68626993685168DD
:10EEA0003344994293607DD9D9F85000248A00EB0D
:10EEB0000805CE1AD5F81839A64228BF26469BB2B7
:10EEC000B6EB830FD5D9DDF810A00022019B83F3A8
:10EED0001188DAF8083043F00103CAF808302AB97B
:10EEE000DAF83438039A1A43CAF83428002383F333
:10EEF000118824E700EB0A0ED068F6B1D0F810C0F4
:10EF0000324691082CD1836900210C465D1C856135
:10EF10001B78654503FA01F344EA030424BFC36880
:10EF20008361013A01F1080103D0202901D08369EE
:10EF3000ECE7CEF80040002AE3D1019B83F311886F
:10EF40008368334483600021FEF76AF8FDF748FFC9
:10EF5000002383F311889FE7480C0020802D0108CF
:10EF60008469BCEB040348BF03339B108B4228BF6A
:10EF70000B464FEA830BCBEB02023BB1214651F823
:10EF8000045BCEF80050013BF9D15C44A445846198
:10EF900004D8C3688361002AB3D1CEE7002ACCD05D
:10EFA0002346B1E7DDF810A001228FE70BF1010342
:10EFB0000293F9E7000000000000000000000000DC
:10EFC000F0B50024D1F808E025464FF0804C4FF012
:10EFD000FF3714E0C1F80059C218C2F81059C2F83E
:10EFE0000879D1F8006B002E17DBC1F8005B0344F1
:10EFF00001347445C3F8105BC3F8087B14D863016F
:10F00000C118D1F80029002AE4DAC1F800C90E4677
:10F01000D6F808299207FBD5DEE7C1F800CBD2F875
:10F02000081BC906FBD5E2E74FF00113C0F81C38F6
:10F03000F0BD00BF00000000000000000000000064
:10F0400010B5064C2046FEF7A3FC4FF0A043044A3F
:10F050002365002362652366636610BDB80F002038
:10F06000702D0108000000000000000000000000FA
:10F070000378012B00D0704770B5314B066D984274
:10F0800082B0054618BF34463AD000232D482E4999
:10F09000EB654FF43412F060C6F800182020C6F873
:10F0A000003EB263FDF71CFD012323612369DB07EA
:10F0B000FCD40C20FDF714FD2369002BFCDA00249E
:10F0C000B460696D286DFFF77BFF6B68C6F8104868
:10F0D000DB68C6F81448C6F81C486BB143F2080355
:10F0E000B3616B6E4FF0FF327261D3B1B36843F01E
:10F0F0000103B36002B070BD4FF44053B361F0E759
:10F10000124B5A6B42F080025A635A69002042F057
:10F1100080025A610E2158614320FEF739FF2C6DA1
:10F12000B3E70B4B009502224FF4067105F168001E
:10F13000FDF79EFE6866FDF773FDFDF751FED5E70E
:10F14000B80F0020401400400300200200380240A5
:10F1500081EC00080000000000000000000000003A
:10F16000F8B5056D202307462B612B6913F02004A9
:10F17000FBD10C20FDF7B4FCD7F854E0DEF80860B2
:10F1800023464FF00060FF2105EB43120133B342E9
:10F19000C2F80009C2F8000BC2F80819C2F8081B2F
:10F1A000F2D9DEF800304FF0FF324FF00111C5F810
:10F1B00018283A6DC5F81C18BB65DEF800306B6284
:10F1C00010231361136913F01004FBD10C20FDF719
:10F1D00087FCD5F80038114A114823F4FE63C5F8BE
:10F1E0000038AB6943F4402343F010030921AB61BD
:10F1F000C5F81018C5F81418F860C5F8104BC5F814
:10F20000002BC5F81049C5F80029BB6D03F11002A9
:10F2100043F48013BA65AB62F8BD00BF40800010B4
:10F22000902D010800000000000000000000000018
:10F23000026D90F84E10D2F8003823F4FE6343EAD2
:10F240000113C2F800387047000000000000000001
:10F250002DE9F8430FFA81F800EB88070D46FB68AB
:10F260001A6802F00302022A5ED0032A5ED04C4ED6
:10F270004C49012A18BF0E46046DD9686A0104EB97
:10F28000020E4FF0000CCEF810CB002973D0B3F86B
:10F2900012E005F1580149014EEA060E44F801E07A
:10F2A00005F1100CD4F81C184FF0010E0EFA0CFEEC
:10F2B0004EEA0101C4F81C18224499684FF0000E70
:10F2C000C2F810E9002933D0998B1A8A01294FEA34
:10F2D0009203826D88BF4B4305F13F0103EB020EA1
:10F2E00004EB810142EA0343AA0142F02002C0F884
:10F2F00058E04B60226123699A06FCD40C20FDF78C
:10F30000EFFBFB681A8A05F1480342EA85525B016C
:10F310003243E2500121D4F81C3801FA05F51D43AF
:10F32000C4F81C58BDE8F8831F4EA5E71F4EA3E79D
:10F3300005F13F0204EB8202AB011D49516043F02D
:10F340002003236123699B06FCD404EB48180C209E
:10F35000FDF7C6FBD8F8003923F40043C8F800399C
:10F36000D4F81C38012202FA05F523EA0503C4F893
:10F370001C38BDE8F88304EB481105F11009D1F8F9
:10F3800000CB2CF4004CC1F800CBD4F81C184FF083
:10F39000010E0EFA09FE21EA0E01C4F81C188BE7D3
:10F3A00000800410008000100080081000800C1005
:10F3B0000004000200000000000000000000000047
:10F3C0005831036D49015B5813F4004004D013F425
:10F3D000001F14BF01200220704700BF0000000082
:10F3E0004831036D49015B5813F4004004D013F415
:10F3F000001F14BF01200220704700BF0000000062
:10F4000000EB8101CB681B6A19685B68536011606F
:10F41000704700BF00000000000000000000000076
:10F4200000EB810330B4DD68AC696368236131B9F6
:10F43000402B04D940236360094A3F2402E05C1E4C
:10F4400043F0C042006D6D8A00EB41112B19B3FBF4
:10F45000F5F342EAC343C1F8103B30BC704700BF2C
:10F4600040000060000000000000000000000000FC
:10F470002DE9F041264E376D07EB40130546D3F8D2
:10F48000084BC3F8084B200703D5D7F814381907E1
:10F490001DD4E20719D5D7F81438DB0715D506EBCC
:10F4A00085061B4CF1688B6958681A69904216D31F
:10F4B0006289CE680123AB4022EA030363812946B7
:10F4C00020463346BDE8F0411847BDE8F08106EB21
:10F4D00085032946DB6830465B689847D9E7121AEE
:10F4E00000265A609E6029462046FFF799FF202398
:10F4F00083F31188236D03EB4515D5F8003B43F0EA
:10F500008063C5F8003B86F31188BDE8F08100BF39
:10F51000B80F002000000000000000000000000004
:10F5200000EB810310B4DC68626953681361ABB10E
:10F5300071B15A1E006D248A00EB41112244B2FBC6
:10F54000F4F243EAC243C1F810395DF8044B704746
:10F55000402BEED9402353603F22EBE7036D5DF86B
:10F56000044B03EB41114FF40023C1F810397047ED
:10F570002DE9F041314F3D6D05EB40130646D3F8C0
:10F580000849C3F80849E10703D5D5F81038DA0768
:10F590000AD4230606D50123D5F8342803FA06F643
:10F5A000164229D1BDE8F08107EB8003D9684B6989
:10F5B00058681A69904234D2121A4FF000085A6003
:10F5C000C3F8088031463846FFF7AAFF202383F3AB
:10F5D00011883B6D03EB46100122D0F8001941F071
:10F5E0000441C0F80019D3F83418B2400A43C3F8F4
:10F5F000342888F31188CCE7202383F31188D5F8C9
:10F600003438FA6D0E4823EA0603C5F83438164339
:10F610000021FE65FDF7DCFC002383F31188BDE8C3
:10F62000F0813A89D1F808800123B34022EA03032C
:10F630003B8131463846C047ABE700BFB80F0020DA
:10F640001810002000000000000000000000000072
:10F6500070B53A4D2E6D7469B3691C40E104746154
:10F660002DD4A20448BFD6F80838230704D56B6808
:10F67000DB680BB131489847E5062BD46003D6F818
:10F68000185807D5E90745D4AA0748D46B074BD4C7
:10F690002E074ED4240307D5E80330D4A90333D46E
:10F6A0006A0326D42B0303D4BDE87040FDF7D0BE17
:10F6B0000320FFF7DDFEBDE87040FDF7C9BE284618
:10F6C000FEF7E6F96B681B68002BCAD000212846BC
:10F6D0009847C6E7202383F31188B369184823F0BD
:10F6E0001003B3610021FDF773FC002383F311883D
:10F6F000C4E70220FFF7BCFE2B03D5D5D8E70020D6
:10F70000FFF7B6FEA903CBD50120FFF7B1FE6A03D0
:10F71000C8D5EEE70020FFF72BFFAA07B6D50120DA
:10F72000FFF726FF6B07B3D50220FFF721FF2E0757
:10F73000B0D50320FFF71CFFACE700BFB80F0020D7
:10F740001810002000000000000000000000000071
:10F75000036D03EB4111D1F8003B43F08063C1F826
:10F76000003B7047000000000000000000000000A7
:10F77000036D10B403EB41140120D4F8002942F0CA
:10F780000442C4F80029D3F834285DF8044B00FA89
:10F7900001F11143C3F83418704700BF00000000A6
:10F7A000036D03EB4111D1F8003B43F40013C1F8A2
:10F7B000003B704700000000000000000000000057
:10F7C000036D03EB4111D1F8003943F40013C1F884
:10F7D0000039704700000000000000000000000039
:10F7E000036D03EB4111D1F8003B23F40013C1F882
:10F7F000003B704700000000000000000000000017
:10F80000036D03EB4111D1F8003923F40013C1F863
:10F8100000397047000000000000000000000000F8
:10F8200008B50B4B1878DA6800210428116107D15C
:10F830000220187011601161D16821F0FF01D160C0
:10F840005B6803485B689847BDE80840FDF700BE69
:10F850005412002000000000000000000000000022
:10F860000248034BC360FDF773BE00BF5412002073
:10F87000000C00400000000000000000000000003C
:10F8800038B50378012B044612D06068A368C168BC
:10F890000568E268B3FBF5F3013B84689BB2002086
:10F8A00021F0FF011060546093621061D16038BD97
:10F8B0000A4B9842E9D10A4B1A6C42F008021A64CA
:10F8C0001A6A002042F008021A62072118623220E8
:10F8D000FEF75EFB034BA360D7E700BF5412002086
:10F8E0000038024000BD01050000000000000000DB
:10F8F0004268C36850680139D96200220121596108
:10F900005A621A6110B1DA680A43DA6005221A6095
:10F91000704700BF00000000000000000000000071
:10F9200038B5254DEB6869681C69DA68087D1440B4
:10F93000E2B2D2431A6190B960072FD52B78042B1D
:10F9400028D0A10712D4E40705D56B681A481B69B3
:10F95000984703232B70BDE83840FDF779BDA20717
:10F960000BD52B78042B04D06307ECD504232B7024
:10F97000E9E78B68E3B1284698476307E3D52B781E
:10F980000D4A042BF2D15168CB68002BEED00A4807
:10F990009847EBE78B6843B128469847A107D2D533
:10F9A0002B78054A042BE1D1EDE7A007ECD4CAE798
:10F9B0006207E9D4C7E700BF64120020000000001E
:10F9C00010B5034C2046FDF703FE024BE36010BD6B
:10F9D000641200200004004000000000000000004D
:10F9E00008B5202383F31188FDF74AF8002383F339
:10F9F0001188BDE80840FDF72BBD00BF00000000E6
:10FA0000054B44F29F11002007225960986008219D
:10FA10000B201A60FEF7DCBA10E000E000000000E6
:10FA20002DE9F0418468E7682668626840F20F13A8
:10FA300033400546EBB143681A696FF48073236065
:10FA4000BAB1B3B213F0080F0CBF00211021D807D0
:10FA500048BF41F00401980748BF41F0080158072A
:10FA600048BF41F02001D80548BF41F04001284679
:10FA7000904772060ED57B060CD56B685B6827F045
:10FA800040076FF040022260E7601BB12846BDE8E6
:10FA9000F0411847BDE8F0810000000000000000C0
:10FAA00008B50348FFF7BCFFBDE80840FDF7D0BC30
:10FAB0007C12002000000000000000000000000098
:10FAC00008B50348FFF7ACFFBDE80840FDF7C0BC30
:10FAD000981200200000000000000000000000005C
:10FAE00070B50C4D0C4C0D4E2846FDF741FF0C4BEC
:10FAF000AB60062204F1180330462C616B61EA60AA
:10FB0000FDF736FF074BB36004F16C03A834336193
:10FB1000746170BD7C120020BC2C0108981200207A
:10FB200000480040001401400000000000000000F8
:10FB3000FEF786BC0000000000000000000000008E
:10FB4000704700BF0000000000000000000000003F
:10FB500008B5044B044A9B699A616420FDF7F0F9EB
:10FB6000FBE700BF480C0020C02F01080000000088
:10FB700000B5ADB0FDF79CFCFCF72AFF42F2107017
:10FB8000FDF7DEF901F07CFA684600F071FA01F049
:10FB900047FA00202DB05DF804FB00BF0000000014
:10FBA00000B583B000240A4B009440224FF4B361A7
:10FBB0000848FDF78DF90094074B084840224FF4A0
:10FBC0000671FDF785F90A20FDF7BAF9FBE700BFDA
:10FBD00051FB000840190020C1FE0008B8120020A7
:10FBE00070B5384AADF5A26D93798DF812015C219C
:10FBF0005D20ADF810018DF81311591C9171FE2490
:10FC000009207922449E8DF80240DC2504218DF8DC
:10FC100005008DF806208DF8043002968DF8075007
:10FC20008DF803100DF103000DF107044FF6FF727C
:10FC300001E010F8011F514081EA0111C9B20B091E
:10FC400083EA122242EA0122A04282EAC102F0D1F2
:10FC5000ADF8002002A803AC10F8013B534083EA42
:10FC60000313DBB2190981EA122282EA032282EA33
:10FC7000C3031BB29AB2A042ADF80020ECD183F0CE
:10FC8000250484EA0414E4B2DDF80200DDF806106D
:10FC9000BDF80A50230983EA122244AB03C382EA67
:10FCA000042282EAC40424B21D80C4F3072244A8BB
:10FCB0000C218DF81B218DF81A4101F059F90DF531
:10FCC000A26D70BD101900200000000000000000AF
:10FCD000784BDA780021F0B419700A2A00F2D58046
:10FCE000DFE802F02B2B3347596B7D91AB06060002
:10FCF0000A2A714C04D02288B0EB122F00F0C28087
:10FD0000022119701A796B4D6B4E224401275072F3
:10FD1000B942E279DF7040F0B980298930796871A1
:10FD200001B969810024A2F1DC000131B0FA80F050
:10FD30009C7040091981F0BC7047FE2800F0988043
:10FD400000229A700020F0BC70475B490C88C87094
:10FD5000604080EA0010C0B2020982EA142242EA3E
:10FD6000002282EAC0000024042208801C71DA709C
:10FD7000E6E751490C884871604080EA0010C0B243
:10FD8000020982EA142242EA002282EAC000052225
:10FD90000880DA70D4E748490C880871604080EA2E
:10FDA0000010C0B2020982EA142242EA002282EA6A
:10FDB000C00003220880DA70C2E73F490C888871CE
:10FDC000604080EA0010C0B2020982EA142242EACE
:10FDD000002282EAC00006220880DA70B0E73649C5
:10FDE0000C88C871604080EA0010C0B2020982EA43
:10FDF000142242EA0022CD7882EAC0000880CDB108
:10FE00000722DA709CE72C4C1A79A118013208728B
:10FE10002588E678684080EA0010C0B2010981EACE
:10FE20001521D2B241EA002181EAC00096421A713E
:10FE3000208085D10822DA7082E71F4C1F49E279C1
:10FE400025888A5C6A4082EA0212D2B2110981EAEC
:10FE5000152141EA022181EAC202D1B28842228000
:10FE600014BF0A220922DA701A791444207267E753
:10FE7000114A00254FF6FF7402219070D57014804E
:10FE8000D9705DE7012119703CE7002100240229A7
:10FE90009C70084B7FF456AF0122FE281C709A70AC
:10FEA00001D0DA704EE7044AD9704FF6FF73D47070
:10FEB000138047E710190020D0140020C02E01083D
:10FEC00008B5084B084A9B69084C9A6101F060F834
:10FED0002070FFF7FDFE0028F8D00120FFF780FE1C
:10FEE000F4E700BF480C0020D02F0108B412002016
:10FEF000044B05490020402248621A8364205A833B
:10FF000001F026BF0004024000180040000000007D
:10FF100010B5174CDFED177A2DED048B94ED048AA4
:10FF2000D4ED038AD4ED009AC4ED058A38EE088A30
:10FF3000B0EE690A28EE278AA8EEA78A84ED068A21
:10FF400001F01EFFB0EE409AB0EE690A01F060FFCA
:10FF500068EE097A28EE008AE8EEC07AA8EE898A6F
:10FF6000C4ED087A84ED078ABDEC048B10BD00BF98
:10FF70005C2000203ACD133F00000000000000008C
:10FF800090ED067A90ED076AD0ED007AD0ED015A37
:10FF9000D0ED046A37EE466AB0EE677AA6EE257AAF
:10FFA000B4EEE67AF1EE10FA0BDCD0ED056AB4EEB1
:10FFB000E67AF1EE10FA04D4F0EE476A80ED087AA2
:10FFC00001E0C0ED086A90ED025AD0ED035AE6EE6A
:10FFD000057A37EE667AE7EE657AC0ED007A70470B
:10FFE000F0B51848184C1949194A1A4D1A4EDFF83D
:10FFF00074E01A4FC0F804E000234761C4F804E03D
:020000040801F1
:100000008660DFF864E0C560056167610360144FD6
:1000100003624FF08040A660E560256123602362A3
:100020008E60CD600B600B629660D56013601362CA
:1000300048605060C1F810E0C2F810E04F615761AD
:10004000F0BD00BF5C1F0020001F0020381F0020F3
:10005000A81F002058FF7F3F0AD7233C58FF7FBFCF
:10006000333373BFCDCC4C3D3333733F00000000BE
:100070002DE9F04FA7B000F0E3FFD94BD94EDA4F8E
:10008000DFF894B300241C70D84B30461C7001F08C
:100090003FFB384601F03CFB0121084674627C625C
:1000A000012501F005FB4FF0200E304601A9DBF8D9
:1000B0000020ADF806E0ADF80440ADF80C40CC4BA4
:1000C0008DF80E5093FBF2F3029301F001FCF36AFA
:1000D000ADF83250EB400E934FF060034FF004093F
:1000E0004FF4807830460CA9ADF830304FF40073EF
:1000F000ADF84230ADF83C40ADF83E40ADF834903C
:10010000ADF8408001F054FC0CA9304601F090FCA1
:100110000CA9304601F0CCFC0CA9304601F010FDD2
:100120003046082101F044FD3046082101F048FD29
:100130003046082101F054FD3046082101F058FDF9
:1001400050234FF4006A304604A9ADF816304FF43E
:100150000053ADF81A30ADF810A0ADF812A0ADF80C
:100160001440ADF81840ADF81C4001F051FD29468F
:10017000304601F075FD2946304601F0F9FB29466D
:100180009C4801F075FA29464FF4E06001F090FABE
:100190002346994A99480321FEF7D2F84FF40051BB
:1001A000DFF878C2964B9748CDF878A04FF00C0E48
:1001B0004FF480621F914FF4003A17A9CDF860C048
:1001C000CDF86CE019931D9217941A941C94CDF8F5
:1001D00080802294239424942594CDF884A001F067
:1001E000CFF92946874801F0FBF910212A468548B6
:1001F00001F006FA16224FF4804308A808920A93E9
:1002000009940B9401F0C4F84FF050634FF0005282
:1002100011A97D481493139211948DF848508DF8CC
:10022000494015948DF8589001F08AF811A9774843
:100230001394149401F084F811A9754801F080F822
:1002400000F0E6FF284601F01BF94FF440216E480C
:1002500001F05EF94FF450216C4801F059F94FF468
:100260000011694801F05CF94FF40011674801F092
:1002700057F92946644801F043F92946634801F0DB
:100280003FF940F207412A465F4801F061F9032334
:10029000122268468DF800208DF801308DF802306A
:1002A0008DF8035001F014F82946574801F088F8FA
:1002B0002946564801F084F82946554801F080F84F
:1002C0002946022001F0F4F90DEB09013846DBF86C
:1002D0000020ADF80440ADF80640ADF80C408DF8B4
:1002E0000E404C4B93FBF2F3029301F0F1FA4FF006
:1002F0006002F36AADF830200CA94FF40072384662
:10030000ADF842200E93ADF83250ADF83C40ADF858
:100310003E40ADF8408001F04BFB3846082101F02B
:1003200047FC0CA9384601F083FB3846082101F050
:1003300047FC0CA9384601F0BBFB3846082101F008
:100340004FFC2946384601F013FB2946384601F098
:1003500087FC2946384601F073FC2021304601F025
:100360009FFC3046802101F0BBFC2146384601F05D
:100370008FFC4946384601F0A3FC2946384601F077
:1003800007FB2946304601F003FB2946304601F0C1
:1003900057FC2946284601F07BF94FF0FF325323E2
:1003A0000DEB09014FF080400292ADF80430ADF83A
:1003B0000C40ADF8064001F08BFA29464FF0804022
:1003C00001F0E6FA00F03CFE336843F002033360CC
:1003D0003B684FF4FA7243F002033B607A631FE01C
:1003E000D820002000000140000401408C1F0020A4
:1003F00000BD010505004000F1FE0008402D010888
:10040000DC1E0020706402400020014000210140F9
:1004100000220140007A030A080800200823014056
:10042000F36ABB63F36AFB63336823F00203336050
:100430003B6823F002033B6000F012FE3E4B3F4A54
:100440008021402018835983A3F81A8019831369E7
:10045000DB04FCD542F21070FCF772FD384C3948D1
:1004600039490023236003600B600B68364AB3F5FB
:100470007A6FFADB354F364E2368116893FBF1F340
:100480002D493B600368126893FBF2F3012533604A
:100490008022304B4A834020294600241D7001F001
:1004A000F7F84FF0FF32072301A92B480292ADF86D
:1004B0000430ADF80C40ADF8064001F009FA2946C9
:1004C000254801F065FA29464FF4006001F0E0F894
:1004D000204601F015FCFF2001F022FC642001F011
:1004E0003FFC1E4BDFED1E6A1B8A9FED1E6A1E4DF0
:1004F0001E4807EE903A1E4BB8EE677AC3ED006ACD
:1005000067EE267AC3ED026A39683268194E67EEE3
:10051000867A09B212B299809A81C6ED007AEB6AA6
:100520000360FFF75DFD144B02221C801A7000F07F
:100530009FFC27B0BDE8F08F000802400004024095
:10054000D02000202C1F0020841F0020941F00209A
:10055000CC2000208C1F002000180040DC1E002052
:100560006740533A74D1954100000140A02000201B
:10057000E4200020E41F0020801F00200000000075
:10058000144A154B92ED007AD3ED007AB4EEE77A77
:10059000F1EE10FA11DC93ED007AD2ED007AB4EEB0
:1005A000E77AF1EE10FA07DDD2ED006A93ED007AFA
:1005B000C6EE877A20EE270A7047D2ED007A93EDD7
:1005C000007AD3ED006A77EEC77A87EEA67AA7EEB7
:1005D000000A7047E41F0020E01F00200000000018
:1005E000F8B5354B354F1B88002B54D0344D354C66
:1005F000354E2378F1696A68580744BF2B68AB60B1
:10060000324B1846D9619A61FFF7BAFC227893ED14
:10061000080A11073AD486ED090A20EE000A2C4B8D
:10062000DFED2C7A83ED000A93ED000A37EEC00A65
:10063000F1EEC07AF4EE677AF1EE10FA37D1264B7C
:10064000316AAA68D961B1EE677A18469A61C3ED3A
:10065000047A83ED057AFFF793FC22781A49120792
:100660000DD41B6A8B62D7ED187AF5EEC07AF1EEE5
:1006700010FA03D523786FF341032370F8BD93ED8F
:10068000080AFFF77DFF81ED0A0AECE7FFF778FF24
:1006900086ED090AC1E7114BF96D114AD961184677
:1006A0009A61FFF76DFC064D1B6AAB609FE701F096
:1006B000FFFBF0EE407AC2E7EC1F0020F81F00209D
:1006C000F41E0020801F00205C200020001F00205E
:1006D000DC1F00203D0A673F5C1F0020381F002000
:1006E0000AD7233C000000000000000000000000CA
:1006F00010B5114C2DED048B94ED009A94ED098A00
:10070000B0EE490A01F03CFBF0EE408AB0EE490A37
:1007100001F07EFBD4ED0A7A20EE677A68EEA77AC4
:10072000A8EE287AE8EE007ABDEC048B84ED0B7A13
:10073000C4ED0C7A10BD00BF5C200020000000005A
:10074000184B194ADB6A92ED046AD2ED056A136010
:1007500007EE903AF8EE677AB6EE007A27EE866AF0
:1007600067EEA66A77EEC67A82ED046A77EEE67ADD
:10077000C2ED056A67EE877AFCEEE77AB8EE677A33
:10078000C2ED087A77EE067AFCEEE77AB8EE677A81
:10079000C2ED077A77EE267AFCEEE77AC2ED067AAA
:1007A000704700BF00000140A020002000000000B2
:1007B0002DE9F041164680460F4600F041FC0D4BF6
:1007C0000D4C1D6845F002051D60256845F00205C9
:1007D0002560C3F834809F63DE631A6822F002024A
:1007E0001A60236823F002032360BDE8F04100F0A3
:1007F00037BC00BF000001400004014000000000C1
:100800003E48D0ED017AF5EEC07AF1EE10FA08B567
:1008100026DB90ED027AB5EEC07AF1EE10FA13DA2B
:10082000D0ED036AF5EEC06AF1EE10FA44DBC0EDDC
:10083000057AC0ED046AFFF783FFBDE80840C2698E
:100840008169006AFFF7B4BF80ED057AC0ED047AD4
:10085000FFF776FF183007C8BDE80840FFF7A8BFCC
:10086000D0ED026AF5EEC06AF1EE10FA35DB90EDDC
:10087000037AB5EEC07AF1EE10FA0CDB80ED057A62
:10088000C0ED046AFFF75CFFBDE808408269016AB9
:10089000C069FFF78DBFB1EE477AF1EE677A80ED60
:1008A000057AC0ED047AFFF74BFFBDE80840C26946
:1008B000016A8069FFF77CBFB1EE477AF1EE666AA4
:1008C00080ED057AC0ED046AFFF73AFFBDE8084005
:1008D000026A8169C069FFF76BBFF1EE677AF1EEDA
:1008E000666AC0ED057AC0ED046AFFF729FFBDE82E
:1008F00008408269C169006AFFF75ABFA020002042
:10090000974B9FED986A9A885B88DFED976A07EEB0
:10091000102A07EE903AF0B5B8EE477AF8EE677A0B
:1009200037EE467A77EEC67A2DED048B87EE268A6F
:100930008E4C8F4A8F4B904D904F83B00646C7EE3A
:10094000A68A94ED000A82ED008AF0EE089A20EE65
:10095000290AC3ED008A01F013FAB0EE409A94ED33
:10096000000A874B20EE290A83ED009A01F050FA25
:10097000844B95ED004A93ED003A834A834992ED0A
:10098000006A91ED005A824B824893ED007ADFF8BD
:1009900050E2F0EE407A68EE273A68EEA75A63EE2E
:1009A000833A68EE094A65EE835A64EE834A33EE71
:1009B000844A68EE896A35EE866A66EE836A67EE77
:1009C000842A34EE855AC0ED007A36EE877A67EED7
:1009D000867A29EE053A38EE628A6F48C7ED003A0A
:1009E00029EE079A85ED004AC0ED002A78EEE78AE5
:1009F00038EE438A694F6A4D6A48C7ED004A81ED77
:100A0000005A85ED008A80ED003A67496748684DD5
:100A1000684F94ED000A82ED006A78EEC98AC5ED50
:100A2000006A83ED007AC0ED008A81ED009AC7ED7F
:100A3000007ACEED005A01F0A3F95F4B5F4DB0EEA6
:100A4000409A94ED000A83ED009A01F0E1F928EE56
:100A5000098A68EE808A5A4A9FED5A6AD2ED007A76
:100A600085ED008A38EE688A574B5848D3ED006A06
:100A70005749C0ED008AD8EE067AB2EE047A77EED6
:100A8000A67A81ED000AC3ED007AD3ED007AF4EE88
:100A9000C77AF1EE10FA0ADCD3ED007ABAEE047AE6
:100AA000F4EEC77AF1EE10FA58BF93ED007A83EDB9
:100AB000007A82ED008AD3ED007AD4ED006A9FEDD2
:100AC000457A2A4A77EEA67AC4ED007AD4ED007A08
:100AD000F4EEC77AF1EE10FAD2ED007A2EDD37EEA1
:100AE000C77A82ED007A94ED007ADFED3B7ADFED94
:100AF000396A77EE277AF4EEE67AF1EE10FA29DC1D
:100B0000F5EEC07AF1EE10FA48BF77EEA67AC6EDA0
:100B1000167A1B689FED317AD4ED007AF36567EEA3
:100B2000877AFDEEE77ACDED017ABDF9040003B0D6
:100B3000BDEC048BBDE8F04000F0B2B9F5EEC07A30
:100B4000F1EE10FACFD5D2ED007A37EE877A82ED4A
:100B5000007AC8E777EEE67AC6ED167AD9E700BFE5
:100B6000DC1E002000209B4400F07F45F41F002085
:100B7000DC200020E0200020D41F0020F4200020F2
:100B8000C82000200C080020301F0020241F002057
:100B9000F01F00209C1F0020D81E0020CC1F00202A
:100BA000A01F0020281F0020E81F0020D01F0020C9
:100BB000981F0020341F00209C200020A41F00202C
:100BC000901F00200C02803FD4200020881F0020AE
:100BD000D81F0020DB0FC9409A99993E0000484376
:100BE000C420002000000000000000000000000001
:100BF000F8B53C4B3C483D4E00275F62142100F0A5
:100C000097FC142105463A4800F092FC0446394806
:100C100039490368394A2B4403600B683848234438
:100C20000B60136801331360FFF76AFE33789A078D
:100C300051D53449344A354B4020088380211183F3
:100C400098889A89324993ED006AD3ED026A0B883D
:100C500000B212B2A21A281A07EE100A07EE902A62
:100C6000B8EEC77AF8EEE77A01339BB227EE067A40
:100C7000284C67EEA67A102B14BF0B800F8084EDF2
:100C8000037AC4ED047AFFF743F93378DB0726D5FE
:100C9000FFF72EFDD4ED0C6AD4ED0B5A9FED1E6AC2
:100CA0001E4BF1EE667AB0EE677AA5EE867AE5EE37
:100CB000C67AB6EE006A27EE067A67EE867AC3ED4C
:100CC000016A83ED027AC3ED037AFFF799FD0E4BBB
:100CD00080225A83F8BD0B4B40225A83F8BDFFF7A0
:100CE0007FFCD5E70018004000200140801F002055
:100CF00000210140D02000202C1F0020841F002054
:100D0000F81F00200008024000040240E4200020F8
:100D1000EC1F00205C200020D7B3DD3FA020002086
:100D2000704700BF0000000000000000000000004D
:100D300010B4204A83B093689907FCD51E4B1F4A14
:100D4000DB684FF400415183596A5A6A9142FCD0E2
:100D50001A4A4FF400411183596A5A6A9142FCD0F1
:100D60001649144A4FF400444C83D16840F4804043
:100D700009B2ADF806101146D0608A68D207FCD5DA
:100D8000596A5A6A9142FCD00C4A4FF400411183CF
:100D9000596A5A6A9142FCD0094A10215183596A12
:100DA0005A6A9142FCD0064B10221A8303B05DF8B8
:100DB000044B7047003001405412002000000240F4
:100DC00000040240000000000000000000000000DD
:100DD00010B5064C06492046FCF7C2FB20464FF0F2
:100DE000FF31BDE81040FCF7CBBB00BF5412002020
:100DF000E02F0108000000000000000000000000DB
:100E000038B501214FF4805000F052FC144D154CC0
:100E100001214FF4805000F06BFC00214FF4805012
:100E200000F066FC284619224FF40041FDF7C0FD92
:100E3000204619221021FDF7BBFD10234FF400427C
:100E40002A832046238340F29A220821FDF7B0FD31
:100E5000204640F2BA222021BDE83840FDF7A8BD67
:100E600000000240000402400000000000000000FA
:100E700008B5FFF7C5FFFFF7ABFF054B042240F6AF
:100E8000270119605A601A6842F040021A6008BDD2
:100E900000300140000000000000000000000000E1
:100EA000C0F30B0040F44050FFF742BF00000000C9
:100EB000022906D0032906D00129064818BF0020C0
:100EC000704705487047032A9ABF044B03EBC200E2
:100ED00000207047A031010820300108703101085E
:100EE000022915D138B505460C46202383F3118815
:100EF000084A0121FCF774FD21462846064AFCF702
:100F00006FFD0648FCF764FC002383F3118838BDAD
:100F1000704700BFF02F0108303001080C2100207D
:100F200038B50E4D0E4C2846FCF70AFC0D492846F4
:100F3000FCF72EFC226D936B23F40023936343F69E
:100F40009820FBF7FDFF20460749FCF731FD226D95
:100F5000936B43F40023936338BD00BF0C21002042
:100F6000B80F002090310108603001080000000037
:100F7000054B10B41C6824680A46014618462346EF
:100F80005DF8044B184700BF0C2100200000000052
:100F900000B506480368A1B05B680122694698471E
:100FA0009DF8000021B05DF804FB00BF0C2100207B
:100FB00008B50121034800F063FEBDE80840FCF7D6
:100FC00047BA00BF0014004000000000000000000D
:100FD00008B540F20741044800F0CAFAFFF708FEDE
:100FE000BDE80840FCF734BA0020014000000000D2
:100FF00008B54FF4006000F023FB00B908BD044BB6
:1010000000225A624FF40060BDE8084000F028BB9F
:101010000008004000000000000000000000000088
:1010200008B5FFF77DFF0248BDE80840FCF760B84F
:101030008C230020000000000000000000000000E1
:10104000044B1A6812B9202282F311881A680132FF
:101050001A6070479C230020000000000000000080
:10106000054B1A6832B11A68013A1A601B680BB94D
:1010700083F31188704700BF9C230020000000000C
:1010800001212DE9F84308465E4E5F4C5F4D00F0AC
:10109000EFFA0121022000F0EBFA0121042000F018
:1010A000E7FA304619224021FDF782FC802188466C
:1010B000402730461922FDF77BFC778339462046CE
:1010C000A6F81A801922FDF773FC4FF48079414687
:1010D000204667831922FDF76BFC204649461922FA
:1010E000FDF766FC3046A4F81A9020224FF4805198
:1010F000FDF75EFC494628469A22FDF759FC284632
:101100009A224FF40071FDF753FC28469A224FF4BF
:101110008061FDF74DFC30469A224FF40051FDF7F7
:1011200047FC30469A224FF48041FDF741FC30469F
:101130009A224FF40041FDF73BFC204620224FF459
:101140000051FDF735FC204620224FF48041FDF789
:101150002FFC204620224FF40041FDF729FC2846B1
:1011600003220121FDF724FC284603220221FDF77A
:101170001FFC284603220421FDF71AFC28460322FF
:101180000821FDF715FC284603221021FDF710FC6D
:10119000284603222021FDF70BFC3946284603226E
:1011A000FDF706FC414628460322FDF701FC3046C8
:1011B00003220121FDF7FCFB304603220221FDF74B
:1011C000F7FB204603220121FDF7F2FB2046032214
:1011D0000221FDF7EDFB204603220421FDF7E8FB89
:1011E000204603220821FDF7E3FB204603221021BD
:1011F000FDF7DEFB204603222021BDE8F843FDF782
:10120000D7BB00BF000402400008024000000240BB
:1012100070B52C4D2C4C2D4E012328461A4600212A
:1012200000F0DEF8284601230222072100F0D8F85A
:101230002846012303220A2100F0D2F8042228467E
:101240001146012300F0CCF8012320461A46194626
:1012500000F0C6F8204601230222082100F0C0F861
:101260002046012303220B2100F0BAF82046012377
:1012700004220F2100F0B4F8012330461A4602215F
:1012800000F0AEF8304601230222032100F0A8F856
:101290003046012303220C2100F0A2F8304601233E
:1012A0000422052100F09CF8012328461A46082153
:1012B00000F0F6F8012320461A460921BDE87040E7
:1012C00000F0EEB800200140002101400022014062
:1012D000C3785BB9037818485A09203203F01F031A
:1012E000012101FA03F340F822307047134BF0B4A8
:1012F000D9684778827804780F4EC943C1F3022138
:10130000C1F10405EDB20F2307FA05F50B41EDB26B
:1013100013402B4304F1604202F561421B01DBB232
:1013200082F800330378012203F01F015B098A4031
:1013300046F82320F0BC704700E100E000ED00E03B
:10134000F0B544680A680E79D1F810E0CD680F4B0B
:1013500024F0407424F48074224342EA062242605E
:1013600087688A684E794EEA050422433B4013435E
:1013700043EA460383600A7DC36A013AD2B223F48A
:10138000700343EA0253C362F0BD00BFFDF7FFC024
:1013900070B442680668064D8468C168054B686889
:1013A000324322430A43034013436B6070BC7047CF
:1013B00000230140E030FCFF0000000000000000BE
:1013C000836819B923F001038360704743F0010378
:1013D0008360704700000000000000000000000073
:1013E000092970B41DD9A1F10A0606EB4606C568A5
:1013F0000724B440B34025EA04042343062AC3600B
:101400001BD90C2A27D90D3A02EB8202C36A1F248A
:10141000944001FA02F223EA04010A43C26270BC5A
:10142000704701EB410605690724B440B34025EA43
:1014300004042343062A0361E3D8013A02EB820243
:10144000436B1F24944001FA02F223EA04010A4389
:10145000426370BC7047073A02EB8202036B1F24A1
:10146000944001FA02F223EA04010A43026370BCC9
:10147000704700BF000000000000000000000000F6
:10148000054A536818B923F400535360704743F476
:1014900000535360704700BF00230140000000006C
:1014A000092970B41BD801EB410605690724B44033
:1014B000B34025EA040423430361836B0232C3F380
:1014C0000154121BD2B202EB82021F24944023EA81
:1014D000040301FA02F21343836370BC7047A1F165
:1014E0000A0606EB4606C5680724B440B34025EA61
:1014F00004042343C360E0E7000000000000000094
:10150000836B013923F4401343EA0151816370472F
:10151000836823F470231943816070470000000042
:10152000836823F440131943816070470000000072
:1015300082B0002301930190019B2833194401914B
:10154000019B186880B202B0704700BF0000000025
:10155000C9B201238B4041681AB921EA03034360F1
:1015600070470B434360704700000000000000001C
:101570006FEA1121016070470000000000000000C8
:1015800001F11802F0B48CCACD680E684C692E4384
:10159000264316431E434A6A8B6A4D6B8C6B3E434F
:1015A00016431E430B4A0368CF6A35432C431A4047
:1015B000224302600B6B42690D694C6889683B43AA
:1015C00022F007021343436145608460C160F0BCB0
:1015D000704700BF3F801CF00000000000000000CA
:1015E000036819B923F001030360704743F0010356
:1015F00003607047000000000000000000000000D1
:101600000B060CD54369AAB143F0800380294361DE
:101610000FD0036801F01E01194301607047802953
:1016200007D0002AF5D1036801F01E0123EA010169
:101630000160704723F0800380294361F3D1704734
:10164000034B5B69034214BF01200020704700BFB9
:10165000003C01400000000000000000000000000D
:10166000014B5861704700BF003C01400000000082
:1016700029B9054A136B23EA000010637047024B37
:101680001A6B1043186370470038024000000000D6
:1016900029B9054A136C23EA000010647047024B15
:1016A0001A6C1043186470470038024000000000B4
:1016B00029B9054A536C23EA000050647047024B75
:1016C0005A6C104358647047003802400000000014
:1016D00029B9054A136A23EA000010627047024BD9
:1016E0001A6A104318627047003802400000000078
:1016F00029B9054A536A23EA000050627047024B39
:101700005A6A1043586270470038024000000000D7
:1017100008B5604B984235D0B0F1804F3CD05E4B5D
:10172000984243D05D4B98424AD05D4B984251D08D
:101730005C4B984258D05C4B98425FD05B4B9842D0
:1017400066D05B4B98426DD05A4B984276D05A4B3C
:1017500098427FD0594B984200F08880584B98426D
:1017600000F08E80574B984200D008BD01214FF405
:101770008070FFF7ADFF00214FF48070BDE8084096
:10178000FFF7A6BF01210846FFF7B2FF00210120A5
:10179000BDE80840FFF7ACBF01210846FFF798FFFE
:1017A00000210120BDE80840FFF792BF012102207F
:1017B000FFF78EFF00210220BDE80840FFF788BF39
:1017C00001210420FFF784FF00210420BDE8084028
:1017D000FFF77EBF01210820FFF77AFF00210820D4
:1017E000BDE80840FFF774BF01211020FFF770FF2C
:1017F00000211020BDE80840FFF76ABF012120202A
:10180000FFF766FF00212020BDE80840FFF760BF1A
:1018100001210220FFF76CFF00210220BDE80840F3
:10182000FFF766BF01214FF48030FFF761FF002111
:101830004FF48030BDE80840FFF75ABF01214FF454
:101840000030FFF755FF00214FF40030BDE808409D
:10185000FFF74EBF01214FF48020FFF749FF002121
:101860004FF48020BDE80840FFF742BF012140202F
:10187000FFF72EFF00214020BDE80840FFF728BFFA
:1018800001218020FFF724FF00218020BDE80840CF
:10189000FFF71EBF000001400004004000080040A8
:1018A000000C004000100040001400400004014003
:1018B0000040014000440140004801400018004041
:1018C000001C00400020004000000000000000005C
:1018D000224A036890429BB212D002F58062904285
:1018E0000ED0B0F1804F0BD0A2F58032904207D0DD
:1018F00002F58062904203D002F58062904203D1EB
:101900004A8823F070031343154A90421ED002F513
