:020000040800F2
:100000000004002001C0000851CC000851CC0008B9
:1000100051CC000851CC000851CC000851CC00084C
:1000200051CC000851CC000851CC0008D1D60008B2
:1000300051CC000851CC000851CC000861F20008F6
:1000400051CC000851CC000851CC000851CC00081C
:1000500051CC000851CC000851CC000851CC00080C
:1000600051CC000851CC000851CC000831DF000809
:1000700061DF000891DF0008C1DF0008F1DF000840
:1000800021E0000851E00008D114010881E50008D2
:10009000C1E5000831E60008A1E6000851CC0008DF
:1000A00051CC000851CC000851CC000851CC0008BC
:1000B00051CC0008A1F100081115010851CC00082D
:1000C00051CC0008C1E90008C1EA000851CC000881
:1000D00051CC0008B1F2000851CC000851CC000806
:1000E000F114010851CC000851CC000851CC000893
:1000F00051CC000851CC00084115010881E00008EE
:1001000051CC000851CC000851CC000851CC00085B
:1001100051CC000851CC000851CC000851CC00084B
:10012000B1E00008E1E0000811E1000841E1000849
:1001300071E1000851CC000851CC000851CC0008F6
:1001400051CC000851CC000851CC000881EF0008C8
:10015000A1E10008D1E1000801E2000891F40008E3
:1001600051CC000851CC000851CC000851CC0008FB
:1001700051CC000851CC000851CC000851CC0008EB
:1001800051CC000851CC000851CC000851CC0008DB
:1001900051CC000851CC000851CC000851CC0008CB
:1001A00051CC000851CC000851CC000851CC0008BB
:1001B00051CC000851CC000851CC000851CC0008AB
:10C0000072B6334880F3098840F20000CCF2000099
:10C010004EF63471CEF200010860BFF34F8FBFF3CC
:10C020006F8F40F20000C0F2F0004EF68851CEF261
:10C0300000010860BFF34F8FBFF36F8F4FF0000018
:10C04000E1EE100A4EF63C71CEF2000108600620C7
:10C0500080F31488BFF36F8F00F0E2FD03F070FAF5
:10C060004FF055301B491C4A91423CBF41F8040B2C
:10C07000FAE71A49164A91423CBF41F8040BFAE725
:10C080001749184A184B9A423EBF51F8040B42F820
:10C09000040BF8E700201549154A91423CBF41F8CE
:10C0A000040BFAE700F0C4FD124C134DAC4203DA66
:10C0B00054F8041B8847F9E705F06AFB0F4C104D54
:10C0C000AC4203DA54F8041B8847F9E700F0B8BD26
:10C0D00000080020000000200004002000040020D0
:10C0E000904B010800080020440C0020480C002060
:10C0F000882B002000C0000800C0000800C0000815
:10C1000000C0000800000000000000000000000067
:10C110002DE9F04F2DED108AC1F80CD0D0F80CD0DD
:10C12000BDEC108ABDE8F08F002383F31188284608
:10C13000A047002001F044F800F0A2FF00DFFEE776
:10C1400081F0004102E000BF83F0004330B54FEAC8
:10C1500041044FEA430594EA050F08BF90EA020F35
:10C160001FBF54EA000C55EA020C7FEA645C7FEAC8
:10C17000655C00F0E2804FEA5454D4EB5555B8BFEB
:10C180006D420CDD2C4480EA020281EA030382EA5C
:10C19000000083EA010180EA020281EA0303362DEE
:10C1A00088BF30BD11F0004F4FEA01314FF4801CC1
:10C1B0004CEA113102D0404261EB410113F0004FD3
:10C1C0004FEA03334CEA133302D0524263EB43038A
:10C1D00094EA050F00F0A780A4F10104D5F1200E28
:10C1E0000DDB02FA0EFC22FA05F2801841F1000183
:10C1F00003FA0EF2801843FA05F359410EE0A5F157
:10C2000020050EF1200E012A03FA0EFC28BF4CF087
:10C21000020C43FA05F3C01851EBE37101F000453D
:10C2200007D54FF0000EDCF1000C7EEB00006EEB4A
:10C230000101B1F5801F1BD3B1F5001F0CD34908D4
:10C240005FEA30004FEA3C0C04F101044FEA44522B
:10C2500012F5800F80F09A80BCF1004F08BF5FEAB2
:10C26000500C50F1000041EB045141EA050130BD92
:10C270005FEA4C0C404141EB010111F4801FA4F135
:10C280000104E9D191F0000F04BF01460020B1FA8A
:10C2900081F308BF2033A3F10B03B3F120020CDAC2
:10C2A0000C3208DD02F1140CC2F10C0201FA0CF0A0
:10C2B00021FA02F10CE002F11402D8BFC2F1200C05
:10C2C00001FA02F120FA0CFCDCBF41EA0C019040BB
:10C2D000E41AA2BF01EB0451294330BD6FEA040404
:10C2E0001F3C1CDA0C340EDC04F11404C4F12002EF
:10C2F00020FA04F001FA02F340EA030021FA04F301
:10C3000045EA030130BDC4F10C04C4F1200220FA57
:10C3100002F001FA04F340EA0300294630BD21FA95
:10C3200004F0294630BD94F0000F83F4801306BF5B
:10C3300081F480110134013D4EE77FEA645C18BF4F
:10C340007FEA655C29D094EA050F08BF90EA020FE6
:10C3500005D054EA000C04BF1946104630BD91EADE
:10C36000030F1EBF0021002030BD5FEA545C05D1E1
:10C370004000494128BF41F0004130BD14F5800420
:10C380003CBF01F5801130BD01F0004545F0FE4194
:10C3900041F470014FF0000030BD7FEA645C1ABFC9
:10C3A000194610467FEA655C1CBF0B46024650EA00
:10C3B000013406BF52EA033591EA030F41F400212C
:10C3C00030BD00BF90F0000F04BF0021704730B5B2
:10C3D0004FF4806404F132044FF000054FF0000187
:10C3E00050E700BF90F0000F04BF0021704730B548
:10C3F0004FF4806404F1320410F0004548BF40421D
:10C400004FF000013EE700BF42004FEAE2014FEA71
:10C4100031014FEA02701FBF12F07F4393F07F4F4C
:10C4200081F06051704792F0000F14BF93F07F4F7E
:10C43000704730B54FF4607401F0004521F00041C1
:10C4400020E700BF50EA010208BF704730B54FF047
:10C4500000050AE050EA010208BF704730B511F04C
:10C46000004502D5404261EB41014FF4806404F184
:10C4700032045FEA915C3FF4DCAE4FF003025FEA06
:10C48000DC0C18BF03325FEADC0C18BF033202EB8E
:10C49000DC02C2F1200300FA03FC20FA02F001FAE8
:10C4A00003FE40EA0E0021FA02F11444C1E600BF87
:10C4B00070B54FF0FF0C4CF4E06C1CEA11541DBF3A
:10C4C0001CEA135594EA0C0F95EA0C0F00F0DEF805
:10C4D0002C4481EA030621EA4C5123EA4C5350EAEA
:10C4E000013518BF52EA033541F4801143F480133B
:10C4F00038D0A0FB02CE4FF00005E1FB02E506F0CC
:10C500000042E0FB03E54FF00006E1FB03569CF020
:10C51000000F18BF4EF0010EA4F1FF04B6F5007F26
:10C5200064F5407404D25FEA4E0E6D4146EB060698
:10C5300042EAC62141EA55514FEAC52040EA5E5021
:10C540004FEACE2EB4F1FD0C88BFBCF5E06F1ED8CB
:10C55000BEF1004F08BF5FEA500E50F1000041EB02
:10C56000045170BD06F0004646EA010140EA0200AF
:10C5700081EA0301B4EB5C04C2BFD4EB0C0541EAD1
:10C58000045170BD41F480114FF0000E013C00F3E6
:10C59000AB8014F1360FDEBF002001F0004170BD0A
:10C5A000C4F10004203C35DA0C341BDC04F1140423
:10C5B000C4F1200500FA05F320FA04F001FA05F2AF
:10C5C00040EA020001F0004221F0004110EBD3707C
:10C5D00021FA04F642EB06015EEA430E08BF20EAA8
:10C5E000D37070BDC4F10C04C4F1200500FA04F34B
:10C5F00020FA05F001FA04F240EA020001F00041DD
:10C6000010EBD37041F100015EEA430E08BF20EA4F
:10C61000D37070BDC4F1200500FA05F24EEA020E97
:10C6200020FA04F301FA05F243EA020321FA04F0C6
:10C6300001F0004121FA04F220EA020000EBD3707D
:10C640005EEA430E08BF20EAD37070BD94F0000F7D
:10C650000FD101F00046400041EB010111F4801FB1
:10C6600008BF013CF7D041EA060195F0000F18BF62
:10C67000704703F00046520043EB030313F4801F9E
:10C6800008BF013DF7D043EA0603704794EA0C0F58
:10C690000CEA135518BF95EA0C0F0CD050EA41066E
:10C6A00018BF52EA4306D1D181EA030101F00041EB
:10C6B0004FF0000070BD50EA410606BF1046194613
:10C6C00052EA430619D094EA0C0F02D150EA01361F
:10C6D00013D195EA0C0F05D152EA03361CBF104660
:10C6E00019460AD181EA030101F0004141F0FE41FF
:10C6F00041F470014FF0000070BD41F0FE4141F483
:10C70000780170BD70B54FF0FF0C4CF4E06C1CEA82
:10C7100011541DBF1CEA135594EA0C0F95EA0C0F37
:10C7200000F0A7F8A4EB050481EA030E52EA0335F2
:10C730004FEA013100F088804FEA03334FF0805513
:10C7400045EA131343EA12634FEA022245EA111540
:10C7500045EA10654FEA00260EF000419D4208BFF1
:10C76000964244F1FD0404F5407402D25B084FEA9E
:10C770003202B61A65EB03055B084FEA32024FF44A
:10C7800080104FF4002CB6EB020E75EB030E22BFA7
:10C79000B61A754640EA0C005B084FEA3202B6EB67
:10C7A000020E75EB030E22BFB61A754640EA5C0016
:10C7B0005B084FEA3202B6EB020E75EB030E22BFA6
:10C7C000B61A754640EA9C005B084FEA3202B6EBA7
:10C7D000020E75EB030E22BFB61A754640EADC0066
:10C7E00055EA060E18D04FEA051545EA16754FEAC8
:10C7F00006164FEAC30343EA52734FEAC2025FEAE6
:10C800001C1CC0D111F4801F0BD141EA00014FF074
:10C8100000004FF0004CB6E711F4801F04BF014345
:10C820000020B4F1FD0C88BFBCF5E06F3FF6AFAE61
:10C83000B5EB030C04BFB6EB020C5FEA500C50F1F1
:10C84000000041EB045170BD0EF0004E4EEA113174
:10C8500014EB5C04C2BFD4EB0C0541EA045170BD7B
:10C8600041F480114FF0000E013C90E645EA060EBF
:10C870008DE60CEA135594EA0C0F08BF95EA0C0FED
:10C880003FF43BAF94EA0C0F0AD150EA01347FF435
:10C8900034AF95EA0C0F7FF425AF104619462CE70C
:10C8A00095EA0C0F06D152EA03353FF4FDAE10466F
:10C8B000194622E750EA410618BF52EA43067FF4C0
:10C8C000C5AE50EA41047FF40DAF52EA43057FF450
:10C8D000EBAE12E7000000000000000000000000C6
:10C8E0004FF0FF3C06E000BF4FF0010C02E000BF3C
:10C8F0004FF0010C4DF804CD4FEA410C7FEA6C5C1F
:10C900004FEA430C18BF7FEA6C5C1BD001B050EAC1
:10C91000410C0CBF52EA430C91EA030F02BF90EAAC
:10C92000020F0020704710F1000F91EA030F58BF6B
:10C93000994208BF90422CBFD8176FEAE37040F0CD
:10C94000010070474FEA410C7FEA6C5C02D150EA6B
:10C95000013C07D14FEA430C7FEA6C5CD6D152EA26
:10C96000033CD3D05DF8040B704700BF84461046EB
:10C9700062468C461946634600E000BF01B5FFF7EA
:10C98000B7FF002848BF10F1000F01BD4DF808EDBA
:10C99000FFF7F4FF0CBF012000205DF808FB00BF8B
:10C9A0004DF808EDFFF7EAFF34BF012000205DF8E5
:10C9B00008FB00BF4DF808EDFFF7E0FF94BF012032
:10C9C00000205DF808FB00BF4DF808EDFFF7CEFF33
:10C9D00094BF012000205DF808FB00BF4DF808ED72
:10C9E000FFF7C4FF34BF012000205DF808FB00BF43
:10C9F0004FEA410212F5001215D211D56FF4787387
:10CA0000B3EB625212D94FEAC12343F0004343EA29
:10CA1000505311F0004F23FA02F018BF4042704704
:10CA20004FF00000704750EA013005D111F000408E
:10CA300008BF6FF0004070474FF00000704700BF24
:10CA40004FEA4102B2F1E04324BFB3F5001CDCF130
:10CA5000FE5C0DD901F0004C4FEAC0024CEA507068
:10CA6000B2F1004F40EB830008BF20F00100704797
:10CA700011F0804F21D113F13872BCBF01F000409A
:10CA8000704741F480114FEA5252C2F11802C2F1CC
:10CA9000200C10FA0CF320FA02F018BF40F001004D
:10CAA0004FEAC1234FEAD32303FA0CFC40EA0C00FF
:10CAB00023FA02F34FEA4303CCE77FEA625307D13C
:10CAC00050EA01331EBF4FF0FE4040F44000704773
:10CAD00001F0004040F0FE4040F40000704700BF0D
:10CAE000844641EA000313F003036DD1403A41D379
:10CAF00051F8043B40F8043B51F8043B40F8043B38
:10CB000051F8043B40F8043B51F8043B40F8043B27
:10CB100051F8043B40F8043B51F8043B40F8043B17
:10CB200051F8043B40F8043B51F8043B40F8043B07
:10CB300051F8043B40F8043B51F8043B40F8043BF7
:10CB400051F8043B40F8043B51F8043B40F8043BE7
:10CB500051F8043B40F8043B51F8043B40F8043BD7
:10CB600051F8043B40F8043B51F8043B40F8043BC7
:10CB7000403ABDD2303211D351F8043B40F8043B67
:10CB800051F8043B40F8043B51F8043B40F8043BA7
:10CB900051F8043B40F8043B103AEDD20C3205D377
:10CBA00051F8043B40F8043B043AF9D2043208D06F
:10CBB000D2071CBF11F8013B00F8013B01D30B88E1
:10CBC00003806046704700BF082A13D38B078DD0BF
:10CBD00010F003038AD0C3F10403D21ADB071CBF91
:10CBE00011F8013B00F8013B80D331F8023B20F8FB
:10CBF000023B7BE7043AD9D3013A11F8013B00F834
:10CC0000013BF9D20B7803704B7843708B788370BB
:10CC100060467047000000000000000000000000B7
:10CC2000704700BF0000000000000000000000008E
:10CC3000704700BF0000000000000000000000007E
:10CC4000FEE700BF00000000000000000000000040
:10CC5000FEE700BF00000000000000000000000030
:10CC6000FEE700BF00000000000000000000000020
:10CC7000204B214A2148F0B500249C60DF68204EFB
:10CC8000204D4FF6FF0139400A43DA60F26842F066
:10CC90008072F2600268202142F0010210260260D8
:10CCA00083B0DE7783F8221000F0FAF800F078F80D
:10CCB00000F00EFB00F0C4FC00F0FAFC2846402116
:10CCC00000F0EEF9A5F1300301229861027784F3B8
:10CCD000118862B69B690C49996105F15000009476
:10CCE0000A4B4FF4EC7100F003FA094B836103B077
:10CCF000F0BD00BF00ED00E00003FA05001000E009
:10CD0000F0ED00E0780C0020A043010861CC0008A1
:10CD10009043010800000000000000000000000037
:10CD2000F8B5134DAA69D37F0BB1013BD377116AD4
:10CD3000EB69104E01311162AA6AB34202F101029D
:10CD4000AA6213D09C68013C9C607CB920271A68B9
:10CD5000D968DC605660EA6184F3118818698847F5
:10CD600087F31188EB699A68002AF0D0F8BD00BFFC
:10CD7000480C0020640C00200000000000000000AF
:10CD8000034A516853685B1A8342FBD3704700BF64
:10CD9000001000E0000000000000000000000000A3
:10CDA000054B4FF0FF3003F11C02002158629962DD
:10CDB000DA611A62704700BF480C002000000000D2
:10CDC00070B40D4EF469A5680361A942C26004D92C
:10CDD0002468491BA5688D42FAD3636843600460E8
:10CDE000186060608160A3684FF0FF32591AA1603B
:10CDF000726270BC704700BF480C00200000000049
:10CE000003688268416830B49D68064C2A449A6081
:10CE10000B60056800224FF0FF336960C2606362F7
:10CE200030BC7047480C00200000000000000000EB
:10CE300010B4202383F31188037F072B0ED8DFE87B
:10CE400003F0270D0D2308040D08426A936801338F
:10CE5000936090E80C001A60026853604FF0FF3452
:10CE6000002281680D4B446202771B689A688A42EF
:10CE7000FBD25A684260036000211060586081F361
:10CE800011885DF8044B7047436A00221A60E5E799
:10CE9000002383F311885DF8044B7047480C002091
:10CEA000034B00221B605B601B615B619A607047F3
:10CEB000480C0020000000000000000000000000FE
:10CEC00000228168084B10B4044602771B689A68F8
:10CED0008A42FBD25A6862602360204614605C601C
:10CEE0005DF8044B704700BF480C002000000000B4
:10CEF000084B99691A6810B408770420C87710683D
:10CF0000186001244360147710465DF8044B9A6161
:10CF1000FFF7FEB8480C00200000000000000000F1
:10CF200030B54B1C87B012D00C4C0D4AA369054696
:10CF300001A8FFF745FF2846FFF7DAFF049B13B16E
:10CF400001A8FFF75DFFA369586A07B030BD034C25
:10CF5000FFF7CEFFA369586A07B030BD480C002028
:10CF600031CE0008000000000000000000000000BA
:10CF7000144B70B404469D694162A868A16881425F
:10CF80004FF000020BD822771B689A689142FBD9B8
:10CF90005A686260236014605C6070BC70472A77D6
:10CFA0001A46126891688842FBD950686860012669
:10CFB0002A60056055602677294620469C6170BC32
:10CFC000FFF7A6B8480C0020000000000000000099
:10CFD000084B9A691B68D17F9B68906821B983428E
:10CFE00034BF002001207047834294BF00200120FD
:10CFF000704700BF480C0020000000000000000047
:10D000000E4A1068036870B4012194695A600426BE
:10D0100001770025A16813609061E677257700E02D
:10D020001B689A688A42FBD25A6862602360214674
:10D0300014605C6070BCFFF76BB800BF480C002048
:10D040000D4A1068036830B4012194695A600025C4
:10D050000177A16813609061257700E01B689A68EA
:10D060008A42FBD85A6862602360214614605C6083
:10D0700030BCFFF74DB800BF480C00200000000096
:10D08000034B9B69DB7F0BB1FFF7DABFFFF7B8BF3C
:10D09000480C00200000000000000000000000001C
:10D0A000F0B50F4C016465698160022600220677A5
:10D0B00000F12C014FF0040E012700F12806456114
:10D0C000046180F81FE087774277C263826302625F
:10D0D0008261286160618662C1620163F0BD00BF48
:10D0E000480C0020000000000000000000000000CC
:10D0F000F8B51D460446202383F3118864390144A2
:10D10000134E144B7769C1600D64069D4D640B6628
:10D1100002250423826002640577C377002500F1AD
:10D120002C0300F1280201218177066147614577D0
:10D13000C563856305628561294638618262C36281
:10D1400003637061FFF714FF85F311882046F8BD73
:10D15000480C002029C10008000000000000000069
:10D1600008B50146202383F311880820FFF7D8FE75
:10D17000002383F3118808BD0000000000000000B8
:10D1800038B50E4B9C69A36A606204F128059D4284
:10D1900007D01A68A2621846FFF792FEA36AAB4254
:10D1A000F7D1637F9B0704D1636922691A61226901
:10D1B00053610F20BDE83840FFF79ABE480C0020AD
:10D1C000202383F31188FFF7DBBF00BF00000000BE
:10D1D00003682BB10022026018465962FFF770BE47
:10D1E000704700BF000000000000000000000000C9
:10D1F00069B1084B10B4024644689B69042083E877
:10D200001400236053605DF8044BFFF789BE4FF0B4
:10D21000FF307047480C00200000000000000000B4
:10D22000026890420AD010B4146804600346636038
:10D23000516210465DF8044BFFF742BE704700BFD5
:10D2400038B5036898420BD004460D461A68226030
:10D25000184654605D62FFF733FE23689C42F5D1A7
:10D2600038BD00BF0000000000000000000000000A
:10D27000014B5B6883607047001000E00000000015
:10D280000F4B10495A688368F0B48F6FC6684168C5
:10D29000D0E90445D31ADB1BE41845F1000501363B
:10D2A0008B42C6608360C0E9044505D8026893429A
:10D2B00038BF0360F0BC70474360F0BC704700BFEC
:10D2C000001000E0480C00200000000000000000FA
:10D2D000D0B50C4C86B000234FF0FF3268460026D4
:10D2E0000027A3670193029303930092CDE904679B
:10D2F000FFF7BEFF6846FFF7C3FF029BA36706B0B8
:10D30000D0BD00BF480C002000000000000000005D
:10D310000023006040608360704700BF0000000091
:10D32000836B027F19430A2A816309D00B2A00D03C
:10D330007047436A8B43FBD100234362FFF7C0BDB4
:10D34000436A1942F8D17047000000000000000055
:10D3500070B50468A0420FD006460D46E3682B4323
:10D36000E36015B12269134203D0A1686068FFF73A
:10D37000D7FF2468A642F1D170BD00BF00000000B5
:10D3800038B50C4B9D69202383F31188AB6B13EAEE
:10D39000000406D1044668620A20FFF7A9FDAB6BC2
:10D3A0001C4023EA0403AB63002383F31188204667
:10D3B00038BD00BF480C0020000000000000000045
:10D3C00030B4029C046200250A448560026100605A
:10D3D0004060C16081614161C36130BC704700BF82
:10D3E00043698269934210B510D082685C1C013297
:10D3F000826044611970426903699A4201D3C3682B
:10D4000043610021FFF70CFF002010BD8268002A55
:10D41000EBD06FF0030010BD000000000000000022
:10D4200070B520230E46044683F31188C3692BB1DF
:10D43000984703E0FFF7DCFE002815DBA5683146BE
:10D440002046002DF6D0A169A36825694A1C013B3E
:10D45000AA42A360A26128BFE368087828BFA3613D
:10D46000002383F3118870BD85F3118870BD00BF60
:10D470002DE9F04F044683B0894693461D46D0F807
:10D480001C80202787F3118800260197B246B8F147
:10D49000000F05D02046C04702E0FFF7A9FEE0B923
:10D4A000A76829462046002FF7D0A269A368511C1F
:10D4B000013BA161A360137809F8013B2369A269CC
:10D4C0009A4224BFE368A3618AF311880136B34509
:10D4D00005D0019B83F31188D9E787F31188304683
:10D4E00003B0BDE8F08F00BF0000000000000000A6
:10D4F00030B4029C04628D18056100604060826057
:10D50000C16081614161C36130BC704700000000AF
:10D51000F8B504460F461646202383F3118803E02E
:10D52000FFF766FE002819DBA56831462046002D6E
:10D53000F6D06269A368511C013B6161A36017705A
:10D54000236962699A4224BFE3686361E3690BB1AE
:10D5500020469847002080F31188F8BD85F3118894
:10D56000F8BD00BF00000000000000000000000047
:10D5700038B5426983699A420FD082680569591C9F
:10D58000013282608161A9421C7801D3C368836142
:10D590000021FFF745FE204638BD8268002AECD006
:10D5A0006FF0020038BD00BF000000000000000066
:10D5B0002DE9F04F83B004460D4616460193D0F88E
:10D5C0001C804FF0200989F311880027BA46A36810
:10D5D00005F1010B204603B36169A3684A1C013BB6
:10D5E0006261A3602B780B7023696169994224BF43
:10D5F000E3686361B8F1000F00D0C0478AF3118877
:10D60000013E07F1010712D089F31188A3685D4636
:10D6100005F1010B2046002BDED101990093204635
:10D62000FFF7E6FD009B0028D1D083F31188384630
:10D6300003B0BDE8F08F00BF000000000000000054
:10D64000054A064B0648074922F0070223F0070364
:10D6500002600B60704700BF8F2B0020000002208B
:10D66000A40E0020A00E002000000000000000001A
:10D6700010B4202383F31188094C0A4B22681968DF
:10D68000C31D23F00703891A8B429DBF9B1823609B
:10D6900010460020002383F311885DF8044B704787
:10D6A000A40E0020A00E00200000000000000000DA
:10D6B000044B054A1A6003F1100000229A60DA60F8
:10D6C000FFF726BEA80E002071D60008000000005B
:10D6D000064A536823F001035360EFF3098368336C
:10D6E00083F30988002383F31188704730EF00E04B
:10D6F000202383F31188124B5B6813F4006302D17B
:10D7000083F31188704710B5F1EE103AEFF30984F6
:10D710000C4B4FF08072DB6844F8083C44F84C2C0A
:10D72000A4F1680383F30988FFF752FC18B1064B94
:10D7300044F8503C10BD054B44F8503C10BD00BFB0
:10D7400000ED00E030EF00E039C100083CC1000806
:10D7500008B500F0E5FD0C4800F0FAFF00F018F8FD
:10D7600000F03EF800F04CF800F09AF800F0F8F8FD
:10D7700000F00EF900F01CF900F0EAF801F0E8FE04
:10D78000BDE8084000F0FCB820450108000000009A
:10D7900000F0C6BF00000000000000000000000014
:10D7A000F0B40122002300F1180700F11C0600F17B
:10D7B000200500F1240400F128010270436000F10B
:10D7C000080200F110038761C6610562446281624C
:10D7D0008260C26003614361F0BC704700000000DA
:10D7E00001F0DEB9000000000000000000000000B1
:10D7F00001220023027043600C30FFF789BD00BF97
:10D8000001F01EBD0000000000000000000000004C
:10D810000122002302704360704700BF0000000037
:10D820000C30FFF725BE00BF000000000000000024
:10D830000C304FF0FF33FFF71BBE00BF00000000AD
:10D840003030FFF7B5BE00BF000000000000000050
:10D8500030304FF0FF33FFF7ABBE00BF00000000D9
:10D860000C30FFF7DDBD00BF00000000000000002D
:10D870000C304FF0FF31FFF7D3BD00BF00000000B8
:10D880003030FFF745BE00BF000000000000000080
:10D8900030304FF0FF32FFF73BBE00BF000000000A
:10D8A00001F096BD00000000000000000000000034
:10D8B00070B50E4B044682B040F8043B012600943C
:10D8C00015460B46606004F1540104F10C00267209
:10D8D0001022FFF775FD00942B4604F1640104F15A
:10D8E00030001022FFF704FE02B070BDC0430108F3
:10D8F00010B52023044683F3118801F079FD02233B
:10D900002372002383F3118810BD00BF00000000C4
:10D9100038B5436904460D463BB1294604F10C0075
:10D92000FFF75EFD00280BDB38BD04210844FFF73C
:10D930000FFD294604F10C00FFF752FD0028F3DA31
:10D94000201D8021BDE83840FFF702BD0000000027
:10D95000704700BF00000000000000000000000051
:10D9600001F0F6BB00000000000000000000000015
:10D97000002301220270436083600C30FFF7C8BCB3
:10D9800001F07EBC0000000000000000000000006C
:10D9900001F0BEBD0000000000000000000000001B
:10D9A000002301220270437083704360704700BF00
:10D9B00001F00EB9000000000000000000000000AF
:10D9C0000023012202704360C36183620362C36269
:10D9D0004362036303814381704700BF000000007E
:10D9E000002202210170A0F84C2080F84E2080F81F
:10D9F0004F2002814281C26002614261826180F8EF
:10DA0000342001F0FDB800BF00000000000000005D
:10DA1000F8B50023044680F8343000F1440201F0E8
:10DA200087F963689B68002B36D02046984700280A
:10DA300032D0E06B94F8443094F84B1094F84A20BC
:10DA400042EA012282423CBFE26310461A0600F11C
:10DA5000AB80002800F08B80E368A56B9B690022F7
:10DA6000042184F834101146DD6058601A709A6001
:10DA7000204601F06DF9202383F31188638913F0A8
:10DA8000010105D143F001036381204601F0F8FA5A
:10DA9000002383F31188F8BD94F8443013F0600735
:10DAA0001E4611D00021204601F022FB0021204615
:10DAB00001F00EFB63681B6813B1052120469847EF
:10DAC000062384F83430F8BD94F8450003F07F0253
:10DAD00042EA0025B5F5407F00F0EB8016D9B5F598
:10DAE000C06F00F0CE802FD9B5F5106F76D040F61C
:10DAF0000242954200F0EF80B5F5006FD2D104F1FB
:10DB00004F0201202764A263E06395E7022D00F035
:10DB1000A28040F29780B5F5807F00F08480B5F553
:10DB2000817FBFD194F84630002BBBD194F84830A8
:10DB300013F00F0115D01E06204600F1F48001F00D
:10DB4000E7FA94F844600CE040F202339D4257D06B
:10DB5000B5F5A06FA6D1B4F84430B3F5A06F00F0CE
:10DB6000D0800023A363E363236433062AD4E368ED
:10DB70005A690521002384F8341019461370D360C4
:10DB800053609360204601F063F9202383F31188EA
:10DB9000238913F001017FF47BAF43F0010323815C
:10DBA000204601F07DFA73E760B1E368A56B5B691D
:10DBB0000022012184F834101146DD6058601A708B
:10DBC0009A60DFE7E3689A690321002384F8341040
:10DBD00019461370D3605360936049E794F8463058
:10DBE00084F84F30002B7DD10323237063681B68BA
:10DBF000002BB6D002212046984794F84460B0E745
:10DC000094F84630002B7FF44DAF94F8483013F071
:10DC10000F01A6D01D06204600F18A8001F058FAB7
:10DC200094F844609DE794F84630012B7FF43AAFB6
:10DC3000B4F84C30A76323F00203E7632764A4F829
:10DC40004C3092E7002D43D104F14C0202202564B0
:10DC5000A263E063F0E694F8481011F0800F2046CC
:10DC600001F00F0141D101F043F8012841D0022811
:10DC70007FF418AF314BA363E063276494F844301A
:10DC8000DAE694F84900616894F848304D6894F8F1
:10DC9000462094F8471043EA00232046A84700286E
:10DCA0003FF400AF09C82764A363E06394F84430ED
:10DCB000C2E694F84630012B7FF4F4AEB4F84C3051
:10DCC000A76343F00203E7632764A4F84C304CE7F2
:10DCD000012D7FF4E7AE1A4AA26302200022E0631E
:10DCE0002264A9E60423237080E701F011F80128DB
:10DCF000BDD1144BA363E5632764284694F84430F0
:10DD00009AE694F8463084F84E30204600F0E0FF62
:10DD100063681B6813B1012120469847032394F8D8
:10DD2000446023701DE701F003FA94F8446018E79B
:10DD300001F0DEF994F8446013E700BFF0430108F6
:10DD4000E04301080044010800000000000000005A
:10DD500090F8343010B50446062B15D8DFE803F0F0
:10DD6000043B1C0404150400002101F0C1F900214A
:10DD7000204601F0ADF963681B6813B10521204608
:10DD80009847062384F8343010BD036C03B19847DC
:10DD9000002384F8343010BDC3689A69032100233E
:10DDA00084F83410204619461370D3605360936092
:10DDB00000F0CEFF202383F31188638913F0010163
:10DDC00005D143F001036381204601F059F9002396
:10DDD00083F3118810BD90F84B1090F84A30C26B55
:10DDE00043EA01239342C368D7D9188AB2FBF0F102
:10DDF00000FB1122002AD0D15B6911461A70DA604B
:10DE00005A609A60204601F023F8202383F311889A
:10DE1000238913F0010105D143F00103238120463A
:10DE200001F03EF9002383F31188022384F8343093
:10DE300010BD00BF00000000000000000000000056
:10DE400090F83420062A0CD80123934013F0670F72
:10DE500010B5044612D113F0080203D1DB061ED41C
:10DE600010BD7047C3689B699B68002BF8D1036C99
:10DE700003B19847002384F8343010BD002101F02D
:10DE800037F90021204601F023F963681B6813B1BC
:10DE9000052120469847062384F8343010BDC36816
:10DEA0005B69052180F834101A70DA605A609A6054
:10DEB000114600F0CDFF202383F31188238913F04E
:10DEC000010103D0002383F3118810BD43F0010347
:10DED0002381204601F0E4F8F4E700BF00000000D1
:10DEE00043099B0010B403F1604300F1604404F562
:10DEF000614403F56143090100F01F00012202FAA9
:10DF000000F0C9B284F80013C3F8800118605DF80E
:10DF1000044B7047000000000000000000000000FB
:10DF200000F1604000F56D400901C9B2017670470B
:10DF300008B5074B074A196801F03D01996013685D
:10DF40000BB150689847BDE80840FFF7D1BB00BF50
:10DF500000600240C80E0020000000000000000029
:10DF6000084B094819688268890901F03D0110B51C
:10DF70008C019C600AB1C0689047BDE81040FFF773
:10DF8000B7BB00BF00600240C80E002000000000C8
:10DF9000084B094819680269090C01F03D0110B5E8
:10DFA0000C049C600AB140699047BDE81040FFF73F
:10DFB0009FBB00BF00600240C80E002000000000B0
:10DFC000084B094819688269890D01F03D0110B5B7
:10DFD0008C059C600AB1C0699047BDE81040FFF70E
:10DFE00087BB00BF00600240C80E00200000000098
:10DFF00008B5074B07485968026A01F03D01D9602E
:10E000000AB1406A9047BDE80840FFF771BB00BF06
:10E0100000600240C80E0020000000000000000068
:10E02000084B09485968826A890901F03D0110B519
:10E030008C01DC600AB1C06A9047BDE81040FFF770
:10E0400057BB00BF00600240C80E00200000000067
:10E05000084B09485968026B090C01F03D0110B5E5
:10E060000C04DC600AB1406B9047BDE81040FFF73C
:10E070003FBB00BF00600240C80E0020000000004F
:10E08000084B09485968826B890D01F03D0110B5B4
:10E090008C05DC600AB1C06B9047BDE81040FFF70B
:10E0A00027BB00BF00600240C80E00200000000037
:10E0B00008B5074B07481968026C01F03D019960EB
:10E0C0000AB1406C9047BDE80840FFF711BB00BFA4
:10E0D00000640240C80E00200000000000000000A4
:10E0E000084B09481968826C890901F03D0110B597
:10E0F0008C019C600AB1C06C9047BDE81040FFF7EE
:10E10000F7BA00BF00640240C80E00200000000003
:10E11000084B09481968026D090C01F03D0110B562
:10E120000C049C600AB1406D9047BDE81040FFF7B9
:10E13000DFBA00BF00640240C80E002000000000EB
:10E14000084B09481968826D890D01F03D0110B531
:10E150008C059C600AB1C06D9047BDE81040FFF788
:10E16000C7BA00BF00640240C80E002000000000D3
:10E1700008B5074B07485968026E01F03D01D960A8
:10E180000AB1406E9047BDE80840FFF7B1BA00BF42
:10E1900000640240C80E00200000000000000000E3
:10E1A000084B09485968826E890901F03D0110B594
:10E1B0008C01DC600AB1C06E9047BDE81040FFF7EB
:10E1C00097BA00BF00640240C80E002000000000A3
:10E1D000084B09485968026F090C01F03D0110B560
:10E1E0000C04DC600AB1406F9047BDE81040FFF7B7
:10E1F0007FBA00BF00640240C80E0020000000008B
:10E20000084B09485968826F890D01F03D0110B52E
:10E210008C05DC600AB1C06F9047BDE81040FFF785
:10E2200067BA00BF00640240C80E00200000000072
:10E230000E490F4A0F48002310B40B600E4C1946CC
:10E2400001E052F80C0C016044F833100133102B3C
:10E2500002F10C02F5D10949094A5DF8044B4FF06F
:10E26000FF338B60CB609360D3607047480F002012
:10E270001C44010810600240C80E002000600240EB
:10E2800000640240000000000000000000000000E8
:10E29000F8B51F4F467A3D68012404FA06FE1EEACF
:10E2A000050F31D11B4C4EEA050504EBC60E15F0E7
:10E2B000FF0F3D6044F83620CEF8043004D0164CF1
:10E2C000236B43F40013236315F47F4F16D10568C5
:10E2D0002B6823F01F032B602B6813F00104FBD184
:10E2E000077A46683D23BB40212733602C606F616D
:10E2F00062B1807AFFF7F4FD2046F8BD064C236B2F
:10E3000043F480032363E2E72046F8BD1046F8BDDE
:10E31000480F0020C80E0020003802400000000016
:10E32000174B4FF0FF311A69002210B419611A61BE
:10E33000586959615A61186A124C60F0805018622D
:10E340001A62586A59625A62196C41F08051196414
:10E35000216841F480712160196F01F44071B1F5B9
:10E36000007F03D04FF4803119671A67054A5DF8C2
:10E37000044B536823F400735360FFF759BF00BF89
:10E380000038024000700040000000000000000063
:10E390002C492D4B4FF080504FF4404208641A60D6
:10E3A0000B6843F001030B600A68264B9007FBD50E
:10E3B0009A6822F003029A609A689A6019468B68FC
:10E3C000204A13F00C03FAD1116801F0F901116031
:10E3D0009360136843F4803313601168194B890309
:10E3E000FBD55A6F42F001025A675A6F15499007E0
:10E3F000FBD5164B4B600B68134A43F080730B60E0
:10E4000053685904FCD50F490A680E4B9201FBD59D
:10E410000F4A1049996040F2057111609A6842F004
:10E4200002029A601A469368064903F00C03082B0F
:10E43000F9D14B6C43F480434B644B6E43F48043FF
:10E440004B66704700380240007000400854400797
:10E45000003C02400094083800000000000000006A
:10E46000F0B5434C434D236C43F000732364D5F85F
:10E4700000321B0C1B0443F0010343EA0023C5F8E0
:10E48000003200295AD00023C5F81C321846C5F8BE
:10E4900004321C46C5F80C32C5F81432C30003F12F
:10E4A000804303F5C84301301C28C3F84042C3F839
:10E4B0004442F3D12F4D0026012710681479C30080
:10E4C00003F1804314F0010F03F5C84306F1010680
:10E4D00007FA00F005D0D5F804E240EA0E0EC5F8C0
:10E4E00004E214F0020F05D0D5F80CE240EA0E0E5B
:10E4F000C5F80CE2640704D5D5F814420443C5F806
:10E5000014429468C3F84042D468C3F84442D5F832
:10E510001C32B14240EA030002F11002C5F81C02AD
:10E52000CBD11449124AD1F8003223F00103C1F8CB
:10E530000032136C23F000731364F0BDC20002F1CB
:10E540008042012302F5C842834043F00103C5F82D
:10E550004012C5F84412C2F84012C2F84412C5F87D
:10E560000412C5F81412C5F80C32C5F81C32D8E7ED
:10E57000003802400064004000000000000000007D
:10E5800010B50C4C0C49E26A2023916083F311888A
:10E59000002104F10800FEF753FE04F11C000121E4
:10E5A000FEF7D6FE002383F31188BDE81040FFF785
:10E5B0009FB800BF4C0F00200101010000000000C7
:10E5C00038B5164DEB6ADC68A20711D1E3060BD50E
:10E5D000EB6A1021D960202383F311881048FEF7DD
:10E5E000B7FE002383F31188BDE83840FFF780B8F9
:10E5F0005A6922F002025A61202383F31188002114
:10E6000005F11000FEF71CFE05F118000121FEF7D0
:10E610009FFE002383F31188D8E700BF4C0F002032
:10E620006C0F00200000000000000000000000004F
:10E6300038B5164DEB6A1C69A20711D1E3060BD55C
:10E64000EB6A10211961202383F311881048FEF72B
:10E650007FFE002383F31188BDE83840FFF748B8F8
:10E660005A6922F010025A61202383F31188002195
:10E6700005F11000FEF7E4FD05F118000221FEF798
:10E6800067FE002383F31188D8E700BF4C0F0020FA
:10E690006C0F0020000000000000000000000000DF
:10E6A00038B51B4DEB6A5C681C225A6022071DD4EA
:10E6B000630717D5EA6A9369916921F07001916146
:10E6C00013F0700F03F0070118BF41F0080120227A
:10E6D00082F311880F4841EA0341FEF739FE002317
:10E6E00083F31188BDE83840FFF702B81A6828465E
:10E6F00022F00202032100F8281B20211A6081F376
:10E7000011880021FEF724FE002383F31188CFE750
:10E710004C0F00206C0F00200000000000000000E3
:10E7200010B5064C2046FFF73BF80022044BE3628D
:10E7300011460E20BDE81040FFF792BE4C0F00209E
:10E740000064004000000000000000000000000025
:10E75000F0B4654D654C2F6B6549664A664B40F2D7
:10E76000FF1637432F632F6D3E432E654568656066
:10E770008568A560C568E5600569656145692562CC
:10E780008569656205682560046A4C60446A8C602E
:10E79000846ACC60C46A4C61046B0C62446B4C624A
:10E7A000C4690C60C16B5160016C9160416CD160B7
:10E7B000816C5161C16C1162016D5162816B11609C
:10E7C000826D5A60C26D9A60026EDA60426E5A6162
:10E7D000826E1A62C26E5A62426D1A60426FC3F84C
:10E7E0000424826FC3F80824C26FC3F80C24D0F845
:10E7F0008020C3F81424D0F88420C3F82024D0F853
:10E800008820C3F82424026FC3F80024D0F8902095
:10E81000C3F80428D0F89420C3F80828D0F898202A
:10E82000C3F80C28D0F89C20C3F81428D0F8A020F6
:10E83000C3F82028D0F8A420C3F82428D0F88C20CE
:10E84000C3F8002803F54063D0F8AC205A60D0F834
:10E85000B0209A60D0F8B420DA60D0F8B8205A61BD
:10E86000D0F8BC201A62D0F8C0205A62D0F8A82094
:10E870001A60D0F8C820C3F80424D0F8CC20C3F81C
:10E880000824D0F8D020C3F80C24D0F8D420C3F842
:10E890001424D0F8D820C3F82024D0F8DC20C3F802
:10E8A0002424D0F8C420C3F80024D0F8E420C3F80E
:10E8B0000428D0F8E820C3F80828D0F8EC20C3F8E2
:10E8C0000C28D0F8F020C3F81428D0F8F420C3F8AE
:10E8D0002028D0F8F820C3F82428D0F8E020C3F886
:10E8E0000028F0BC704700BF003802400000024022
:10E8F0000004024000080240000C0240000000003A
:10E900002DE9F04F4FF00F0C02F0030EC2F3800719
:10E91000C2F3C106C2F341150024C2F3C3124FF083
:10E9200001094FF0030830E0D0F820B02BEA0303D0
:10E9300043EA0A030362436809FA04FA23EA0A0372
:10E940003B4343606300D0F808A008FA03F3DB43BD
:10E950000AEA030A4AEA060AC0F808A0D0F80CA09E
:10E9600003EA0A0A4AEA050AC0F80CA0D0F800A097
:10E9700003EA0A0343EA0E030360490819D07F0043
:10E98000B600AD004FEA8E0E013404F007039B0081
:10E9900011F0010F02FA03FA0CFA03F3EDD0072C81
:10E9A000C2D9D0F824B02BEA030343EA0A03436236
:10E9B000C1E7BDE8F08F00BF0000000000000000CC
:10E9C0003A483B4A70B5446BA369656945EA03431D
:10E9D00023F07F4393424CD01ED8073A93423CD059
:10E9E0000132934210D16268C36A22F400721B683C
:10E9F00062601A6842F001021A60626842F4805252
:10EA000062605B68012B4BD915F00A0F18BFA36930
:10EA1000BDE87040FEF76CBE264A934212D0023227
:10EA20009342F1D1C36A1B685E683EB32368028CCF
:10EA300043F4A06342F0010202842360BDE8704009
:10EA4000FEF756BE6368026B23F4007312686360BE
:10EA5000136843F001031360D6E7038C1A0A0BD046
:10EA600003F0010343F0F00302F0060213432361B5
:10EA7000CAE7038CC3F347032361C5E7636823F444
:10EA800000736360236843F400732360202383F3DF
:10EA900011881C303146FEF79BFB86F31188B3E7E3
:10EAA000236823F480632360AEE700BF7C0F00205F
:10EAB00008000300820007000000000000000000C2
:10EAC0003348F8B5446B076B66693A68B1B201F434
:10EAD0005F43DB436361136823F01F031360136814
:10EAE000DB07FCD43A7AC56A7F683D2393402A68E5
:10EAF0003B60136823F01F031360136813F00103D6
:10EB0000FBD12F7A6D683D22BA40CF052A6048BFFD
:10EB100001238D05836044BF43F0020383604A05EF
:10EB20000AD5626822F400726260226843F004032E
:10EB300042F40072226083600F0544BF43F0080373
:10EB400083604D0444BF43F020038360CC0413D59D
:10EB500043F010033104836016D4202383F311881B
:10EB60006FF001010B48FEF733FB002383F311889C
:10EB7000BDE8F840FEF7BCBD320405D4002BECD153
:10EB8000BDE8F840FEF7B4BD43F040038360E4E71E
:10EB90007C0F0020980F0020000000000000000003
:10EBA00010B5074C2046FEF723FE064B064A62636B
:10EBB000002103F13C02E161E362226310BD00BF6A
:10EBC0007C0F00202844010800580040000000008D
:10EBD00010B5064C2046FEF7F3FE4FF0A043044A62
:10EBE0002365002362652366636610BDB80F0020AD
:10EBF000D0440108000000000000000000000000F8
:10EC0000F8B5056D202307462B612B6913F020040E
:10EC1000FBD10C20FEF7B4F8D7F854E0DEF808601A
:10EC200023464FF00060FF2105EB43120133B3424E
:10EC3000C2F80009C2F8000BC2F80819C2F8081B94
:10EC4000F2D9DEF800304FF0FF324FF00111C5F875
:10EC500018283A6DC5F81C18BB65DEF800306B62E9
:10EC600010231361136913F01004FBD10C20FEF77D
:10EC700087F8D5F80038114A114823F4FE63C5F827
:10EC80000038AB6943F4402343F010030921AB6122
:10EC9000C5F81018C5F81418F860C5F8104BC5F879
:10ECA000002BC5F81049C5F80029BB6D03F110020F
:10ECB00043F48013BA65AB62F8BD00BF408000101A
:10ECC000E044010800000000000000000000000017
:10ECD000026D90F84E10D2F8003823F4FE6343EA38
:10ECE0000113C2F800387047000000000000000067
:10ECF0005831036D49015B5813F4004004D013F4FC
:10ED0000001F14BF01200220704700BF0000000058
:10ED10004831036D49015B5813F4004004D013F4EB
:10ED2000001F14BF01200220704700BF0000000038
:10ED300000EB8101CB681B6A19685B685360116046
:10ED4000704700BF0000000000000000000000004D
:10ED500000EB810330B4DD68AC696368236131B9CD
:10ED6000402B04D940236360094A3F2402E05C1E23
:10ED700043F0C042006D6D8A00EB41112B19B3FBCB
:10ED8000F5F342EAC343C1F8103B30BC704700BF03
:10ED900040000060000000000000000000000000D3
:10EDA0002DE9F041264E376D07EB40130546D3F8A9
:10EDB000084BC3F8084B200703D5D7F814381907B8
:10EDC0001DD4E20719D5D7F81438DB0715D506EBA3
:10EDD00085061B4CF1688B6958681A69904216D3F6
:10EDE0006289CE680123AB4022EA0303638129468E
:10EDF00020463346BDE8F0411847BDE8F08106EBF8
:10EE000085032946DB6830465B689847D9E7121AC4
:10EE100000265A609E6029462046FFF799FF20236E
:10EE200083F31188236D03EB4515D5F8003B43F0C0
:10EE30008063C5F8003B86F31188BDE8F08100BF10
:10EE4000B80F0020000000000000000000000000DB
:10EE500000EB810310B4DC68626953681361ABB1E5
:10EE600071B15A1E006D248A00EB41112244B2FB9D
:10EE7000F4F243EAC243C1F810395DF8044B70471D
:10EE8000402BEED9402353603F22EBE7036D5DF842
:10EE9000044B03EB41114FF40023C1F810397047C4
:10EEA0002DE9F041314F3D6D05EB40130646D3F897
:10EEB0000849C3F80849E10703D5D5F81038DA073F
:10EEC0000AD4230606D50123D5F8342803FA06F61A
:10EED000164229D1BDE8F08107EB8003D9684B6960
:10EEE00058681A69904234D2121A4FF000085A60DA
:10EEF000C3F8088031463846FFF7AAFF202383F382
:10EF000011883B6D03EB46100122D0F8001941F047
:10EF10000441C0F80019D3F83418B2400A43C3F8CA
:10EF2000342888F31188CCE7202383F31188D5F89F
:10EF30003438FA6D0E4823EA0603C5F83438164310
:10EF40000021FE65FEF744F9002383F31188BDE834
:10EF5000F0813A89D1F808800123B34022EA030303
:10EF60003B8131463846C047ABE700BFB80F0020B1
:10EF70001810002000000000000000000000000049
:10EF800070B53A4D2E6D7469B3691C40E10474612B
:10EF90002DD4A20448BFD6F80838230704D56B68DF
:10EFA000DB680BB131489847E5062BD46003D6F8EF
:10EFB000185807D5E90745D4AA0748D46B074BD49E
:10EFC0002E074ED4240307D5E80330D4A90333D445
:10EFD0006A0326D42B0303D4BDE87040FEF788BB38
:10EFE0000320FFF7DDFEBDE87040FEF781BB284639
:10EFF000FEF7F6FC6B681B68002BCAD00021284680
:10F000009847C6E7202383F31188B369184823F093
:10F010001003B3610021FEF7DBF8002383F31188AE
:10F02000C4E70220FFF7BCFE2B03D5D5D8E70020AC
:10F03000FFF7B6FEA903CBD50120FFF7B1FE6A03A7
:10F04000C8D5EEE70020FFF72BFFAA07B6D50120B1
:10F05000FFF726FF6B07B3D50220FFF721FF2E072E
:10F06000B0D50320FFF71CFFACE700BFB80F0020AE
:10F070001810002000000000000000000000000048
:10F08000036D03EB4111D1F8003B43F08063C1F8FD
:10F09000003B70470000000000000000000000007E
:10F0A000036D10B403EB41140120D4F8002942F0A1
:10F0B0000442C4F80029D3F834285DF8044B00FA60
:10F0C00001F11143C3F83418704700BF000000007D
:10F0D000036D03EB4111D1F8003B43F40013C1F879
:10F0E000003B70470000000000000000000000002E
:10F0F000036D03EB4111D1F8003943F40013C1F85B
:10F10000003970470000000000000000000000000F
:10F11000036D03EB4111D1F8003B23F40013C1F858
:10F12000003B7047000000000000000000000000ED
:10F13000036D03EB4111D1F8003923F40013C1F83A
:10F1400000397047000000000000000000000000CF
:10F1500010B50A4C0A4B4FF6FF7220461A80FEF794
:10F1600007FC084B08480949094AE06103F12400FB
:10F1700023626062A162E26210BD00BF58120020EB
:10F1800054120020704401080030014016000106AE
:10F190004600010600000000000000000000000022
:10F1A00038B5254DEB6869681C69DA68087D14403C
:10F1B000E2B2D2431A6190B960072FD52B78042BA5
:10F1C00028D0A10712D4E40705D56B681A481B693B
:10F1D000984703232B70BDE83840FEF789BAA20791
:10F1E0000BD52B78042B04D06307ECD504232B70AC
:10F1F000E9E78B68E3B1284698476307E3D52B78A6
:10F200000D4A042BF2D15168CB68002BEED00A488E
:10F210009847EBE78B6843B128469847A107D2D5BA
:10F220002B78054A042BE1D1EDE7A007ECD4CAE71F
:10F230006207E9D4C7E700BF881200200000000081
:10F2400010B5034C2046FEF7E3FA024BE36010BD15
:10F2500088120020000400400000000000000000B0
:10F2600008B5202383F31188FDF75AFD002383F3AB
:10F270001188BDE80840FEF73BBA00BF000000005F
:10F28000054B44F29F110020072259609860082125
:10F290000B201A60FEF744BE10E000E00000000002
:10F2A000024AD36843F08003D360704700100140E6
:10F2B000F8B5434E756FEF682B68DA059CB24FD4F2
:10F2C000202383F3118814F02F0F08D129E0A00622
:10F2D00069681DD42C68A4B214F02F0F21D0230725
:10F2E000F5D014F0080F0CBF00218021E00748BFC3
:10F2F00041F02001A20748BF41F04001630748BF29
:10F3000041F480712F48FEF723F8A0066968E1D523
:10F31000C9B22B48FEF7FCFA2C68A4B214F02F0FE8
:10F32000DDD1002383F31188390601D5220626D4C6
:10F33000630611D5202383F31188726CB36C2048C7
:10F340009A4229D04FF6BF733B406FF04002EB600A
:10F3500000232A6083F31188BDE8F840FEF7C8B99E
:10F36000202383F311884FF40071301DFDF7F0FF67
:10F370006FF480732B60002383F31188A0E72023B0
:10F3800083F311881048FEF7F3F800280CDB68605F
:10F39000002383F31188CBE7836B002BD2D004309A
:10F3A0001021FDF7D5FFCDE708210648FDF7D0FF76
:10F3B0004FF63F733B4043F04003EB60E8E700BF8C
:10F3C000A0120020A4120020D01200200000000093
:10F3D00010B5044C044A20460021FEF769FA034B9D
:10F3E000636710BDA0120020A1F2000800100140C8
:10F3F00038B51F4C037A002918BF0C46012B05466F
:10F4000022D06B6F1B4A93422BD002F5806293424D
:10F4100027D02168184AB2FBF1F29A60A288E088EE
:10F42000218942F4045240F0400042F02C0241F0A5
:10F43000010192B280B289B2002418615961DA6088
:10F440001C601A685B6838BD0C4B9842D9D10C4AD5
:10F45000536C43F0100353640C212520FEF740FD4C
:10F46000CFE72168074AB2FBF1F29A60D6E700BF06
:10F47000104501080010014080DE8002A01200202B
:10F480000038024000BD010500000000000000003F
:10F49000F8B51D4EB468E7682568636840F20F133D
:10F4A0002B40EBB173681A696FF480732360BAB1B3
:10F4B000ABB213F0080F0CBF00211021D80748BFD2
:10F4C00041F00401980748BF41F00801580748BFC0
:10F4D00041F02001D80548BF41F040010A4890475B
:10F4E0006A060CD57B060AD573685B6827F040076F
:10F4F0006FF040022260E7600BB103489847BDE817
:10F50000F840FEF7F5B800BF181300200000000017
:10F5100010B5064C2046FEF743FA054B054AA2609B
:10F5200003F13C022361626110BD00BF181300208B
:10F5300088440108001401400000000000000000A1
:10F54000FEF726BF000000000000000000000000E1
:10F55000704700BF00000000000000000000000035
:10F56000F0B400F10B073C460D46B1FBF2F602FB8E
:10F57000161101F13003392BC8BF01F13703DBB29B
:10F5800004F8013DB5FBF2F53146002DEDD13A1BF3
:10F59000024401E014F8013F00F8013B9042F9D128
:10F5A000F0BC7047000000000000000000000000F8
:10F5B0002DE9F04F2DED028B91B0002306468B46CE
:10F5C000924600939BF800100BF1010379B12529B5
:10F5D00013D0009C32689B469268304601340094F8
:10F5E00090479BF800100BF101030029EFD1009820
:10F5F00011B0BDEC028BBDE8F08F9BF801202D2AE5
:10F6000003BF9BF802200BF1020301210021302AE5
:10F6100008BF5A78019106BF013330272027591CB3
:10F62000002408E09AF800300AF1040A9BF8002050
:10F6300003EB40040131A2F13003DBB2092B8B460E
:10F6400004EB8400F2D92A2AECD02E2A4FF00008CD
:10F6500045D002F0DF034C2B50D0A2F14403342BF1
:10F6600000F2C981DFE813F0B701C701C701C70184
:10F67000C701B701C701C701C701C701C701B5016C
:10F68000C701C701C701C701C7010601C701C701FB
:10F690008D00C701C701C701C701C701C701C70165
:10F6A000C701C701C701A701B701C7010801C70109
:10F6B000C701B701C701C701C701C701C701B5012C
:10F6C000C701C701C701DB00C7010601C701C701A8
:10F6D0008D009AF800300AF1040A03EB41081BF888
:10F6E000012BA2F13003DBB2092B08EB8801F4D91E
:10F6F0002A2AEED002F0DF034C2BAED19BF800108B
:10F70000002900F07881A1F144030BF1010B342BA7
:10F7100000F27081DFE813F05F016E016E016E018F
:10F720006E015F016E016E016E016E016E015D0181
:10F730006E016E016E016E016E01AE006E016E0112
:10F7400035006E016E016E016E016E016E016E017B
:10F750006E016E016E014F015F016E01B0006E011E
:10F760006E015F016E016E016E016E016E015D0141
:10F770006E016E016E0183006E01AE006E016E01BE
:10F78000350010220AADDAF800102846FFF7E8FE2F
:10F79000401B0AF1040A00F1FF38019B241A24EAF5
:10F7A000E474002B62D1C4F10009B9F1000F00F03C
:10F7B0002B8129782D2900F03A81336839469B68DE
:10F7C0003046984719F10109F7D1009BB8F1000FB5
:10F7D00023440093FFF6F6AE4C46C146336815F855
:10F7E000011B9B6809F1FF3930469847B9F1FF3F8B
:10F7F000F4D1009B0133B8F1000FA8BF434400933C
:10F80000002C3FF4DFAE2546336839469B6830460E
:10F810009847013DF8D1009B23440093D2E6DAF8E3
:10F8200000509B4B002D08BF1D460AF1040A2B789F
:10F83000B8F1000F00F0EE80002B00F0F08008F12E
:10F84000FF38284602E0B8F1FF3F05D010F8013F2D
:10F8500008F1FF38002BF6D1401B019B241A00F160
:10F86000FF38202724EAE474002B9CD0B8F1000F65
:10F87000B3DAC5E70A2285E70AF1070A2AF0070A80
:10F88000DAE90001FDF7DCF808EE100AB5EEC08AEF
:10F89000F1EE10FA0AF1080A00F1E8800AAD2A46F2
:10F8A00018EE100A0492FCF7AFFD08F1FF38B8F12A
:10F8B000080FCDE90201049A00F2C780754B53F896
:10F8C00028804046FCF77EFD734B049AA3FB083862
:10F8D000CDE906014FEAD80309939846FDEEC87AB0
:10F8E00002F10B0317EE901A17EE90EACDED047AB1
:10F8F000059318460892684BA3FB0E23DB0803EB25
:10F900008309654A9C46AEEB49033033A2FB0121D3
:10F91000DBB2C90800F8013DE646ECD10599089A2A
:10F92000C0EB0109914401E010F8013F02F8013BEE
:10F930004A45F9D14A462E2302F80C3B049804921A
:10F94000FCF750FD02460B46DDE90201FCF7FCFB2B
:10F95000DDE90623FCF7ACFDFDF74AF80999049AA6
:10F96000002908BF804609F1010E4B4BA3FB001391
:10F97000DB0803EB830C1946A0EB4C0346483033FD
:10F98000A0FB0808DBB25FEAD80802F8013D084690
:10F99000EBD10499891A481C8144704601E012F8A1
:10F9A000013F00F8013B8145F9D10EEB0100401BFE
:10F9B00000F1FF38F1E610ADDAF8003005F8183D37
:10F9C0000DF12900401B0AF1040A00F1FF3820273D
:10F9D000E3E60822D6E6DAF8001000290AF1040A64
:10F9E0003CDB0AAD28460A22FFF7BAFD401B00F1B6
:10F9F000FF38D2E60A4610AD0DF1290005F8182DA2
:10FA0000401B00F1FF38C8E6B8F1000FFFF6DAAD91
:10FA10004C46E2E647F6FE78002B7FF412AF019BDE
:10FA200024EAE4745BBB4FF0FF382027BBE6302F9D
:10FA30007FF4C3AE336830469B689847009B013320
:10FA40000135009308F1FF38B7E69FED0F7BDFF833
:10FA50004C80CDF824808DED067B3FE72D23494275
:10FA60008DF828300DF129000AADBCE72D23B1EE49
:10FA7000488A8DF828300DF129020AAD10E72027B9
:10FA8000BEE600BFAFF300800000000065CDCD41B1
:10FA90002046010830460108CDCCCCCC00E1F5056C
:10FAA00001212DE9F84308464B4C4C4E4C4D02F0D9
:10FAB000DFF80121022002F0DBF80121042002F02E
:10FAC000D7F82027204619221021FEF719FF4FF4FE
:10FAD0008069204639464FF010081922FEF710FFC2
:10FAE000678320464946A4F81A801922FEF708FFCA
:10FAF0003046A4F81A9019224FF48051FEF700FF07
:10FB000028469A224FF48071FEF7FAFE28469A2280
:10FB10004FF40071FEF7F4FE494628469A22FEF79C
:10FB2000EFFE30469A224FF40051FEF7E9FE3046D0
:10FB30009A224FF48041FEF7E3FE30469A224FF4BA
:10FB40000041FEF7DDFE3A4620464FF48051FEF7B5
:10FB5000D7FE284603220121FEF7D2FE28460322C3
:10FB60000221FEF7CDFE284603220421FEF7C8FE3F
:10FB7000284603220821FEF7C3FE414628460322F9
:10FB8000FEF7BEFE394628460322FEF7B9FE284698
:10FB900003224021FEF7B4FE304603220121FEF786
:10FBA000AFFE304603220221FEF7AAFE20460322C2
:10FBB0000121FEF7A5FE204603220221FEF7A0FE4A
:10FBC000204603220421FEF79BFE20460322082143
:10FBD000BDE8F843FEF794BE00080240000402406E
:10FBE00000000240000000000000000000000000D3
:10FBF00070B5264E264D274C012330461A4600216B
:10FC000001F066FE304601230222082101F060FE69
:10FC1000304601230322112101F05AFE042230460E
:10FC20001146012301F054FE012328461A461946C5
:10FC300001F04EFE284601230222092101F048FE70
:10FC4000284601230322062101F042FE2846012313
:10FC50000422052101F03CFE012320461A46022120
:10FC600001F036FE204601230222032101F030FE7E
:10FC70002046012303220C2101F02AFE2046012305
:10FC800004220321BDE8704001F022BE00200140A3
:10FC9000002101400022014000000000000000009F
:10FCA00008B54FF4A07200210F4804F021FB0F4962
:10FCB0004FF47A7301F1A00221F8023F01338A4226
:10FCC0009BB2F9D10A494FF4FA6322F8023F01339B
:10FCD00091429BB2F9D101F01BFFF22001F028FF05
:10FCE000BDE8084001F034BB4C1300204A1300204B
:10FCF0008A14002000000000000000000000000046
:10FD0000F8B5D4220446002104F0F2FA184D194A3D
:10FD100019491A4B1A4F1B4E1B482262E1631B4ABA
:10FD20001B49E56501256362A7621A4B1A4F2663DA
:10FD300060631A4E1A48216422661A49A57200228D
:10FD400084F848504FF08245E2722273627384F85F
:10FD500084202361A361E366636767612767E661C7
:10FD6000A667A5636564E06460652165A165F8BD6B
:10FD70000AD7A33B00000243000064420050C3C7FF
:10FD80000050C347000096430080BB443333733FA9
:10FD90000000204100007042000070C2000020C23C
:10FDA0000000A0420000C842000000000000000067
:10FDB000F0B5074683B0451C4FF47A7440F25246C2
:10FDC00009E0BDF80630B4424FEA132205F8012CD1
:10FDD00005F8023B0BD020460DF1060101F080FA38
:10FDE0000134A4B20028ECD03846FFF789FF03B0F5
:10FDF000F0BD00BF00000000000000000000000097
:10FE00002DE9F04F794B7A4A9B697A4D2DED068B9F
:10FE1000DFED799A9FED799ADFED798A9FED798A06
:10FE20009A618FB04FF47A70FDF79AF9764BDFED57
:10FE300077AA5B89764C07EE103AB8EEC77A724B18
:10FE400088EE870A1B8A07EE903AF8EE677A30EE62
:10FE5000480A67EEA97A6E4B67EE897A80EE080A47
:10FE6000C3ED007A02F014FC80EE2A0A694B6A495D
:10FE70006A48DFED6B7AD5ED055A93ED267A95ED5C
:10FE800006AAD5ED040A95ED031AD5ED071A95EDEE
:10FE9000082AD5ED092A95ED0A3AD5ED0B3A95EDEC
:10FEA0000C4AD5ED004A93ED205A9FED5E6ADFEDD6
:10FEB0005E6A65EEA75A60EEA70A21EE271A61EE88
:10FEC000A71A22EE272A62EEA72A23EE273A63EE2C
:10FED000A73A24EE274A64EEA74A25EE275A2AEECF
:10FEE00027AA67EE277ABDEEE57A30EE060A8DED99
:10FEF000017ABDEECA7AF7EE00AA8DED027ABDEE68
:10FF0000E07A8AEE806ABDF904A0BDF908B08DEDF3
:10FF10000C7ABDEEC17A76EE666A8DED0D7ABDEE95
:10FF2000E17AFDEEE77A8DED037ABDEEC27AC4ED9B
:10FF3000016A8DED047ABDEEE27ABDF90C408DEDDB
:10FF4000057ABDEEC37ACDED0B7A8DED067ABDEE66
:10FF5000E37ABDF930308DED077ABDEEC47ABDF994
:10FF600034208DED087ABDEEE47A8DED097ABDEE90
:10FF7000C57A8DED0A7A0194BDF924E0BDF91060CF
:10FF8000BDF91470BDF91840029603970494BDF9A9
:10FF90001C60BDF92070BDF92890BDF92C80744615
:10FFA00001F0AEFB5B4652461B491C4801F0A8FB22
:10FFB000029B019A1849194801F0A2FB049B039A7D
:10FFC0001549164801F09CFB3B463246124913483E
:10FFD00001F096FB22464B460F49104801F090FB7A
:10FFE000424612490D4801F08BFB1BE7480C0020EC
:10FFF00060460108782100206740533A0000CA4259
:020000040801F1
:100000003C361C4C00401C463413002000A05645D2
:10001000F0210020282200206C460108A0120020B8
:100020000000C8420FCF5B3B3393884374460108FE
:10003000F8B5B04AB04C12782368032A03F10103E3
:100040002DED028B236000F0CD801A0700F0C680F2
:1000500013F0010340F0A780A849A94A4B62137826
:100060005B0740F1A780A74D02232B702B78002B54
:1000700000F0D5802B78012B00F0F2802B78022B3A
:1000800000F010812B78032B00F02581DFED9E7AA4
:100090009E4B9F4CC3ED017AC4ED007AB0EE670A27
:1000A000C3ED027AB7EE008A9A499B484B8A0289CF
:1000B000B1F810E0C0882F78D1ED036A9FED976A00
:1000C000D1ED025A924ED31A9BB21DB207EE905A4E
:1000D000CEEB0002B8EEE77A92B210B267EE266A73
:1000E00007EE900A36EEA67AF8EEE77A27EE067A61
:1000F00067EEA57AC4ED046AA7EE867A13445B42E4
:100100008B8027EE086A67EE005AF0EE466AE7EE4B
:10011000885A08804D80E7EEC06A7A4B84ED067AF3
:10012000C4ED037AC4ED057AC4ED075AC4ED086A3C
:1001300087B11B78042B0DD000F0FAFBD6ED008AB6
:10014000B0EE680A02F07CF9B0EE408AB0EE680AC0
:1001500002F0EEF9D4ED0A7A94ED097ADFED705AE7
:10016000704B67EE886A60EE677AE7EE006AE7EE4A
:10017000087AB1EE667AB0EE476AA7EEA56AA7EEF6
:10018000E57AF6EE005A26EE256A27EE257AC4EDCA
:100190000B7AC4ED0C6AC3ED016A83ED026A83ED4C
:1001A000037A00F0CDFCBDEC028B6420BDE8F84082
:1001B00002F036B9574B584A988B5D699C69D188D3
:1001C0001289BDEC028B0130294422449883596185
:1001D0009A616420BDE8F84002F022B900F0F0FB1B
:1001E000236835E74C4A9FED506A91885288DFEDCD
:1001F0004F6A07EE902A07EE101AF8EE677AB8EE0B
:10020000477A77EEC67A37EE467A494A87EE266A0B
:1002100087EEA67A82ED046A82ED057A15E73C4CFA
:10022000DFED448AD4ED007A9FED437A434A62625F
:1002300077EEA88A0023F4EEC78AF1EE10FAA8BF81
:1002400077EE688AA362B0EE680AC4ED008A02F015
:10025000F7F8B0EE408AB0EE680A02F069F923E7D9
:100260002B4CDFED348AD4ED007A9FED337A274BA7
:100270003249596077EEA88A0022F4EEC78AF1EE7F
:1002800010FAA8BF77EE688A9A60B0EE680AC4EDEB
:10029000008A02F0D5F8B0EE408AB0EE680A02F0AB
:1002A00047F901E7224A264BD2ED208A186A184CFA
:1002B000164B2449C4ED008A0022B0EE680A98600B
:1002C00019605A6002F0BCF8B0EE408AB0EE680ADD
:1002D00002F02EF9E8E60E4CD4ED008AB0EE680A82
:1002E00002F0AEF8B0EE408AB0EE680A02F020F9F3
:1002F000DAE600BF20220020281A00200018004063
:10030000EC2100208C14002000000000DC210020E3
:1003100078210020FC210020341300203ACD133F27
:10032000D7B3DD3F3421002000209B4400F07F45FF
:100330002822002017B75139DB0FC940CDCC4C3EE5
:10034000102100206F12833A00000000000000001E
:100350002DE9F04FDA4EDB4FDB49DC48DFF884A3B0
:10036000ABB0FFF725F901F01BF9304601F0E8FCCE
:100370003846002401F0E4FC0121746208467C62E6
:10038000012501F095FC4FF02002304605A941F20D
:100390008243ADF81620ADF81440ADF81C4006932A
:1003A0008DF81E5001F0ACFDF36AADF84250EB4001
:1003B00012934FF06003ADF840304FF480734FF06C
:1003C0000409304610A9ADF850304FF40073ADF871
:1003D0005230ADF84C40ADF84E40ADF8449001F0CD
:1003E00007FE10A9304601F043FE10A9304601F087
:1003F0007FFE10A9304601F0C3FE3046082101F00F
:10040000F7FE3046082101F0FBFE3046082101F0DE
:1004100007FF3046082101F00BFF4FF4006850231E
:1004200030464FF4005B08A9ADF82630ADF8244003
:10043000ADF82840ADF82C40ADF82AB0ADF82080DA
:10044000ADF8228001F004FF2946304601F028FF74
:100450002946304601F0ACFD29469D4801F008FCD4
:1004600029464FF4E06001F023FC2346994A9A485C
:100470000321FDF70DFF9949DFF86CC21C914FF481
:1004800080724FF00C0E4FF48063504624921BA9EB
:100490004FF40032CDF874C0CDF87CE02193039383
:1004A0002592CDF88CB01B941E942094269427940A
:1004B00028942994CDF8888001F072FA2946504694
:1004C00001F09EFA2A465046102101F0A9FA1621A1
:1004D0004FF480420CA8DFF814B20D940F940C91E5
:1004E0000E9201F0CDF94FF0005215A91792DFF8E6
:1004F00000A27B4815944FF0506218928DF8585026
:100500008DF8594019948DF8689001F091F915A96A
:10051000584601F08DF915A9504601F089F9FFF709
:1005200067FB284601F024FA29466D4801F0C0F91E
:100530002946584601F0BCF92946504601F0B8F961
:100540002946022001F0B4FB05A9384642F6041200
:10055000ADF81440ADF81640ADF81C408DF81E40C3
:10056000069201F0CDFC4FF06003F26AADF8403026
:100570004FF4807310A93846ADF850304FF4007333
:10058000ADF852301292ADF84250ADF84C40ADF893
:100590004E4001F02DFD3846082101F029FE10A93A
:1005A000384601F065FD3846082101F029FE10A902
:1005B000384601F09DFD3846082101F031FE2946FC
:1005C000384601F0F5FC2946384601F069FE294617
:1005D000384601F055FE3046202101F0A9FE304694
:1005E000802101F0C5FE2146384601F099FE4946BA
:1005F000384601F0ADFE2946384601F0E9FC2946AF
:10060000304601F0E5FC2946304601F039FE294626
:10061000284601F03DFB4FF0FF3A532205A94FF069
:100620008040ADF81420ADF81C40ADF81640CDF870
:1006300018A001F065FC29464FF0804001F0C8FC8D
:100640003268DFF8B09042F0020232603A6842F05D
:1006500002023A60F26A7A63F26ABA63F26AFA6391
:10066000326822F0020232603A6822F002023A60F6
:1006700000F0A6FF2946402001F00AFB072205A949
:100680004846ADF81420ADF81C40ADF81640CDF842
:1006900018A001F035FC2946484601F099FC29468E
:1006A000404601F0F5FA204601F092FEFF2001F0ED
:1006B0009FFE642001F0BCFE00F09AF91CE000BF30
:1006C00000000140000401407C460108A012002007
:1006D0000500400031000108A04401080823014042
:1006E00000200140706402403413002000210140CA
:1006F00000220140001800400C49039B0C4A0B8368
:100700004FF4805353830B4D00F0A2FA00942C78E1
:10071000094B60F3820440224FF4B3612C70074808
:10072000FCF7E6FC2BB0BDE8F08F00BF00080240EC
:1007300000040240EC21002001FE0008901400207B
:100740002DE9F041164680460F4600F029FF0D4B7B
:100750000D4C1D6845F002051D60256845F0020539
:100760002560C3F834809F63DE631A6822F00202BA
:100770001A60236823F002032360BDE8F04100F013
:100780001FBF00BF00000140000401400000000046
:1007900008B5044B044A9B699A610120FCF7F0FDFF
:1007A000FBE700BF480C0020A04601080000000045
:1007B000F0B52E4D2E4F2F4E83B00146D422284641
:1007C000FCF78EF92C482D4A2D49DFF8F4C0DFF8EC
:1007D000F4E000240094046014702A480C702A4A43
:1007E0002A4900233B603360294F0360294E136080
:1007F00029480B60294A2A493B603360294F03602E
:10080000294E136029480B60294A2A4934704FF455
:100810007A73CCF800300123CEF800300226036052
:100820001460254B0C6025483C603F224FF4B361B7
:1008300085F88460FCF75CFC95F88430DBB2012B12
:1008400009D0B34201D100F09BFA084803B0BDE8DB
:10085000F040FFF77DBDD5F8880000F031FA03487D
:1008600003B0BDE8F040FFF773BD00BF541A00208D
:10087000341B00204C1A00202C1B0020DC20002000
:100880003C1A0020401A0020301A00203C1B002097
:10089000481A0020E0200020381B0020381A0020D1
:1008A000441A0020341A0020281B0020301B00208E
:1008B000D8200020E420002091070108401B0020E0
:1008C000501A00202C1A0020000000000000000038
:1008D00090ED067A90ED076AD0ED007AD0ED015ADE
:1008E000D0ED046A37EE466AB0EE677AA6EE257A56
:1008F000B4EEE67AF1EE10FA0BDCD0ED056AB4EE58
:10090000E67AF1EE10FA04D4F0EE476A80ED087A48
:1009100001E0C0ED086A90ED025AD0ED035AE6EE10
:10092000057A37EE667AE7EE657AC0ED007A7047B1
:1009300038B51A4B1A4C1B4DE1696A68D9611846E3
:100940009A61FFF7C5FFD3ED087A9FED170AC4ED52
:10095000097A67EEA77A154B30EE670AC3ED007A85
:10096000F1EEC07AF4EE677AF1EE10FA10D1104B86
:10097000A968226A9961B1EE677A1846C3ED047AD4
:1009800083ED057ADA61FFF7A3FF1B6AA36238BD26
:1009900002F096F8F0EE407AE9E700BFB8210020B7
:1009A00078210020DC2100203D0A673FE82000205C
:1009B000EC2000200000000000000000000000000B
:1009C000054B0649064AD1F898101268D9611846B5
:1009D0009A61FFF77DBF00BF102100202822002070
:1009E000DC210020000000000000000000000000EA
:1009F000F0B52249224E234DDFF8BCE0224CF66AC6
:100A00002248234AC1F808E00023C1F80CE04FF067
:100A1000000EA1F810E0A1F812E026601D491E4C5E
:100A20001E4F1F4E2B606B60AB604FF07F555560C3
:100A3000876097605661136013621A4FD460146127
:100A4000194A4560466103600362C4600461174D42
:100A500017488F60DFF864E0164ECC604FF0804797
:100A60000B600B62C1F804E00D614861576096604D
:100A7000D4601561506113601362F0BDFC21002049
:100A800000000140DC21002034210020B82100209A
:100A9000EC2000201021002058FF7F3F6F12833A86
:100AA00058FF7FBF0AD7233B542100203333733FC5
:100AB000333373BF0AD7233C6740533ACDCCCC3D88
:100AC0001D4BD3ED007AD3ED046A93ED057AF8EE71
:100AD000677AB6EE006A67EEA66A27EE877A77EE47
:100AE000E67A82B077EEC77AC3ED046A67EE867A5B
:100AF00083ED057AFCEEE77ACDED017ABDF80420AE
:100B00009A8307EE902AF8EEE77A77EEA66AFCEE73
:100B1000E67ACDED017ABDF804205A8307EE902ADB
:100B2000F8EEE77A77EE877AFCEEE77A17EE902A0E
:100B30001A8302B0704700BF34210020000000007B
:100B40003F48D0ED017AF5EEC07AF1EE10FA08B523
:100B500027DB90ED027AB5EEC07AF1EE10FA13DAE7
:100B6000D0ED036AF5EEC06AF1EE10FA45DBC0ED98
:100B7000057AC0ED046AFFF7A3FFBDE80840428B89
:100B8000018B808BFFF7DCBD80ED057AC0ED047A28
:100B9000FFF796FFBDE80840828B418B008BFFF783
:100BA000CFBDD0ED026AF5EEC06AF1EE10FA35DB8A
:100BB00090ED037AB5EEC07AF1EE10FA0CDB80ED21
:100BC000057AC0ED046AFFF77BFFBDE80840028BA1
:100BD000818B408BFFF7B4BDB1EE477AF1EE677AB7
:100BE00080ED057AC0ED047AFFF76AFFBDE80840A2
:100BF000428B818B008BFFF7A3BDB1EE477AF1EEFC
:100C0000666A80ED057AC0ED046AFFF759FFBDE81A
:100C10000840828B018B408BFFF792BDF1EE677A23
:100C2000F1EE666AC0ED057AC0ED046AFFF748FF91
:100C3000BDE80840028B418B808BFFF781BD00BF70
:100C4000342100200000000000000000000000002F
:100C500038B5184B184D4FF480521A832B69DB04BA
:100C600058BF05240DD442F21070FCF779FA2B69B5
:100C7000013C13F4805FA4B203D1002CF3D12046D1
:100C800038BD0E4C002342F210706361A361A38350
:100C9000FCF766FA0748A18B6269A369B2FBF1F21F
:100CA0004FF4805522824583B3FBF1F30120638228
:100CB00038BD00BF0004024000080240FC210020B3
:100CC00070B5284E284C294B306082B00025204654
:100CD0004FF4817240211D70FDF712FE4FF48172B6
:100CE00020468021FDF70CFE01210420A4F5FE34EE
:100CF00000F0CEFF01214FF4804000F0D9FF2A46DA
:100D00002B462046032101F043FB31682046013980
:100D100001F046F9A36943F4C04343F06003A361C3
:100D2000E36943F06003E3612046012101F050F9DB
:100D30000B21022000F0ECFF01244FF40062082395
:100D400068468DF8053000928DF804508DF8064005
:100D500000F086FE29462820FDF7C2F8044B1C70DF
:100D600002B070BD0008002000040240CC22002028
:100D70002022002000000000000000000000000011
:100D800030B5214C214D85B0204600224021FDF791
:100D9000B7FD204619222021FDF7B2FD2046192279
:100DA0001021FDF7ADFD204619228021FDF7A8FD99
:100DB000802323830121042000F06AFF00232846BA
:100DC00042F2CF0201A9ADF80430ADF80630ADF81B
:100DD0000C308DF80E30029201F092F8012211468B
:100DE000284601F095FA2846012101F0F1F8062184
:100DF0001E20FDF775F80649064B022001220870F7
:100E00001A7005B030BD00BF00000240000800406D
:100E100020220020CC220020000000000000000062
:100E200000BF00BF00BF00BF174B1B691B051AD5D1
:100E3000164A17491378486AB3B11649164B096820
:100E400000B5A3FB01E31B09C91A884212D89842D6
:100E500010D312490B680133052B0B6011DD002301
:100E600013705DF804FB70470C484B62012103606E
:100E7000117070470649094A00234B6213605DF800
:100E800004FB5DF804FB00BF00080240CC220020F8
:100E90000008004000080020CDCCCCCC242200204B
:100EA00010B5364B43602DED028BD0ED228A4FF00A
:100EB00080430360B0EE680A044601F0C1FAB0EE68
:100EC000408A84ED168AB0EE680A01F031FB94ED99
:100ED000046AD4ED056A94ED037A84ED170A28EECE
:100EE000068A20EE260ADFED265AD4ED027A84ED3A
:100EF000078A37EE077A78EE406AB2EE046A96EE19
:100F0000A57A84ED080A77EE277AF4EEC67AF1EE38
:100F100010FA27DCBAEE047AF4EE477AF1EE10FA12
:100F200048BFF0EE477A94ED217A9FED166AC4ED42
:100F3000027A37EE877AC4ED036AB4EEC67AF1EE30
:100F400010FAC4ED267A10DCBDEC028BB5EEC07A47
:100F5000F1EE10FA48BF37EE067A84ED217A84ED7F
:100F6000227A10BDF0EE467ADDE7BDEC028B37EE5B
:100F7000467A84ED217A84ED227A10BD17B7D138F4
:100F8000A3010040DB0FC94000000000000000008A
:100F90002DE9F0416C4B1B78022B2DED028B29D0F3
:100FA000032B00F08480042B03D0BDEC028BBDE842
:100FB000F081664B1A699007F7D5DA689107F4D586
:100FC000634964480A884FF6FD7401320A801C6147
:100FD0000269520600F1A9805F495A6B09885F488F
:100FE0005F4C92B2511A02801A6A218042F00202CA
:100FF0001A62DAE7574D102620276E83B846002480
:1010000000BF00BF00BF00BFA5F8188000BF00BF31
:1010100000BF00BF286900BF296900BF2A696400BA
:10102000C1F38011C0F38010C2F38012A4B200F0AB
:1010300097FA08B144F001046F83464B00BF00BF2C
:1010400000BF00BF013EDBD1C4F30D02DFED458AD6
:10105000454D00EE102A1022F0EE680A1A83B8EE11
:10106000400A01F0B5FADFED417A20EE270A80EE62
:10107000288AB0EE480A85ED068A01F059FA85ED16
:10108000040AB0EE480A01F0DBF9284685ED050AAE
:10109000FFF706FF95ED217ADFED357ADFED356A52
:1010A00077EE677A77EEE67AC5ED207A7DE7324B08
:1010B0009FED326A9A885B88DFED316A2A4C07EE31
:1010C000102A07EE903AB8EE477AF8EE677A37EED4
:1010D000467A77EEC67A87EE266A204687EEA67AAB
:1010E00084ED046A84ED057AFFF7DAFE9FED1F6A4E
:1010F000D4ED024A9FED235A9FED237AD4ED216A65
:10110000DFED225AC4EE867A76EEA56A67EE857A1E
:10111000B1EE0C6A27EE877AC4ED206AC7EE066A44
:10112000C4ED257AC4ED276A3FE719485A6B018858
:10113000094C184D92B2511A028022801A6A2980F5
:1011400022F002021A6230E720220020000800404C
:101150001C22002000000240C82200201E22002085
:10116000CA220020DB46124528220020DB0FC9409E
:10117000DB0F4940F366DF3E3413002000209B4420
:1011800000F07F4500409C460000F0429A99993E4D
:10119000D0220020CE22002000000000000000002D
:1011A00038B5124A124D2DED028B00239FED118AA6
:1011B00013601C46536007EE904AB8EEE70ADFED75
:1011C0000E0A80EE080A01F0E3FA013420EE080A64
:1011D00001F07EF9FDEEC07AC92C17EE903A05F8C1
:1011E000013FE8D1BDEC028B38BD00BFD422002006
:1011F000DB22002000004843E4380E4000000000DD
:1012000038B51B4A1B4B12881B889CB292B2ECB9B2
:101210004EF6EE63D31A18BF012303F50054164AA5
:10122000013301349B03A4031A44944203D317E00F
:101230000434A24214D923680133F9D1054620466B
:1012400000F0F6FC09280DD080B238BD32B94EF658
:10125000EE63E31AB3FA83F35B09DEE7AB2038BD34
:10126000802038BD2946A01C00F0E2FCECE700BF5E
:101270000040000800800008FE3F00080000000059
:1012800010B5044600F00CF900F57F523F320138EA
:1012900001E0904209D010F8013FFF2BF9D0204621
:1012A000022100F085FC80B210BD092010BD00BFF6
:1012B00008B50820FFF7E4FFC0B2092800D008BD38
:1012C0000021054800F0B4FC0928F8D11020FFF7F0
:1012D000D7FFC0B2F3E700BF0040000800000000E5
:1012E000154B164A1B8812889BB210B42BB192B2D0
:1012F000B2B9134B134C1A4602E0134B134C1A4667
:10130000128892B2904204D10EE01A8892B28242C0
:101310000AD0043B9C42F8D301205DF8044B70478F
:10132000AB205DF8044B704733F8023C0B80002083
:101330005DF8044B704700BF0040000800800008C3
:10134000FEBF000802800008FE7F0008024000087F
:101350002DE9F0414A4D4B4E2C883388A4B24EF60D
:10136000EE6294429BB23FD04FF6FF718C422BD07D
:1013700024B1FFF79DFF80B2BDE8F081002BF8D0CB
:101380008B4278D0404D414E414F4FF0FF3801E045
:10139000A02C5DD0338835F8022F3D499BB2934293
:1013A00008BF0FFA84F84445104604F10104EFD059
:1013B000FFF796FF0128EBD039882888FFF720FF38
:1013C0000928E5D0BDE8F081002B48D09342D0D168
:1013D0000820FFF755FF0928CED13046002100F044
:1013E00027FC80B2BDE8F08113BB274D294E284F62
:1013F0001C464FF0FF3801E0A02C35D0338835F87B
:10140000022F23499BB2934208BF0FFA84F8444548
:10141000104604F10104EFD0FFF762FF0128EBD082
:1014200039882888FFF7ECFE0928E5D0BDE8F0816F
:101430004FF6FF7293429CD11020FFF721FF09283D
:101440009AD12846002100F0F3FB80B2BDE8F0817C
:1014500000210C4800F0ECFB80B209288CD1082058
:10146000BDE8F041FFF70CBF0021054800F0E0FBAC
:1014700080B2092880D11020BDE8F041FFF700BFFD
:1014800000400008008000084A1300200680000881
:10149000A623002006400008000000000000000015
:1014A00000220849134601E031F8022F824204D09D
:1014B00001330C2BF8D100207047034A52F8230067
:1014C000704700BFB0460108D04601080000000088
:1014D00008B540F20521034800F05AFABDE808407B
:1014E000FCF706B9002001400000000000000000E9
:1014F00008B54FF4006000F0F3FA00B908BDFFF73B
:101500008FFC4FF40060BDE8084000F0F9BA00BF5E
:1015100008B50121064800F0D3FE00B908BDFFF769
:1015200037FD01210248BDE8084000F0D9BE00BFE8
:101530000008004000000000000000000000000063
:1015400008B50221054800F0BBFE00B908BD022124
:101550000248BDE8084000F0C3BE00BF00040140DF
:10156000884205DD91420BDD8842A8BF08467047DE
:10157000904209DD8842F5DA8842A8BF08467047E4
:101580009042A8BF104670479142A8BF1146084636
:10159000704700BF000000000000000000000000D5
:1015A000044B1A6812B9202282F311881A6801329A
:1015B0001A607047A823002000000000000000000F
:1015C000054B1A6832B11A68013A1A601B680BB9E8
:1015D00083F31188704700BFA8230020000000009B
:1015E00080B5144F144CBB69144ADFF858A0144D51
:1015F000DFF854909A61A046002614E0DAF8001053
:10160000BA6AD8F8000003FB00F303F2E733521A7A
:10161000A9FB0313B2EB931F4FF0010308D92B7002
:101620006420FBF79DFD226842F21073002AE5D189
:101630002E70F5E7480C00205027002000470108D5
:101640004C27002048270020D34D621000000000E6
:10165000014B1860704700BF5027002000000000B9
:10166000F0B50A490A4E0B4D0B4B0C4883B00024D1
:101670004FF47A77009440220F604FF46671346023
:101680002C70FBF735FD03B0F0BD00BF50270020E4
:10169000482700204C270020E1150108B023002036
:1016A0000EB400B582B003AA52F8041B0192FDF7F4
:1016B0007FFF02B05DF804EB03B07047000000004C
:1016C00010B5094C09490A48FCF712F9204640F2C6
:1016D00082324021FDF714F9204640F28232802107
:1016E000BDE81040FDF70CB90004024004080020DA
:1016F000A012002000000000000000000000000018
:101700000EB400B50199FFF7CBFF5DF804EB03B011
:10171000704700BF00000000000000000000000053
:1017200008B5044B044A9B699A610A20FBF718FD2F
:10173000FBE700BF480C0020104701080000000034
:1017400008B50E4B0E4A9B690E4C9A6110252E4629
:1017500026834FF4FA70FBF703FD65834FF4FA70AC
:10176000FBF7FEFC25834FF4FA70FBF7F9FC658369
:1017700042F23410FBF7F4FCEAE700BF480C00200B
:101780001C470108000802400000000000000000A3
:1017900010B5B8B0FBF7DCFFFBF76AFA42F2107045
:1017A000FBF7DEFCFEF77CF9FEF77AFAFFF7F8FCB0
:1017B000FFF786FF14491548FDF7FAFE1449134850
:1017C000FDF7F6FE03A8FEF7F3FA03A8FEF7F0FF15
:1017D0000024FFF745FF4FF47A70FFF739FF0D4BF8
:1017E000009440224FF406710B48FBF781FC0094F3
:1017F0000A4B0B4840224FF40671FBF779FC64203A
:10180000FBF7AEFCFBE700BF2C470108A01200204D
:1018100038470108411701087029002021170108E5
:101820005827002000000000000000000000000019
:10183000F0B544680A680E79D1F810E0CD680F4B16
:1018400024F0407424F48074224342EA0622426069
:1018500087688A684E794EEA050422433B40134369
:1018600043EA460383600A7DC36A013AD2B223F495
:10187000700343EA0253C362F0BD00BFFDF7FFC02F
:1018800070B442680668064D8468C168054B686894
:10189000324322430A43034013436B6070BC7047DA
:1018A00000230140E030FCFF0000000000000000C9
:1018B000836819B923F001038360704743F0010383
:1018C000836070470000000000000000000000007E
:1018D000092970B41DD9A1F10A0606EB4606C568B0
:1018E0000724B440B34025EA04042343062AC36016
:1018F0001BD90C2A27D90D3A02EB8202C36A1F2496
:10190000944001FA02F223EA04010A43C26270BC65
