:020000040800F2
:100000000004002001C0000801CA000801CA00085D
:1000100001CA000801CA000801CA000801CA000894
:1000200001CA000801CA000801CA000841D400083A
:1000300001CA000801CA000801CA0008C1F100088D
:1000400001CA000801CA000801CA000801CA000864
:1000500001CA000801CA000801CA000801CA000854
:1000600001CA000801CA000801CA000801DD000831
:1000700031DD000861DD000891DD0008C1DD000808
:10008000F1DD000821DE000801CA000851E3000884
:1000900091E3000801E4000871E4000801CA0008C7
:1000A00001CA000801CA000801CA000801CA000804
:1000B00001CA000821F0000801CA000801CA0008AE
:1000C00001CA000891E7000891E8000801CA000889
:1000D00001CA000801CA000801CA000811F200089C
:1000E000A10D010801CA000801CA000801CA0008E0
:1000F00001CA000801CA000801CA000851DE000850
:1001000001CA000801CA000821EF000801CA00085E
:1001100001CA000801CA000801CA0008810D0108CF
:1001200081DE0008B1DE0008E1DE000811DF000812
:1001300041DF000801CA000801CA000801CA00081E
:1001400001CA000801CA000801CA000851ED0008F0
:1001500071DF0008A1DF0008D1DF000801CA000834
:1001600001CA000801CA000801CA000801CA000843
:1001700001CA000801CA000801CA000801CA000833
:1001800001CA000801CA000801CA000801CA000823
:1001900001CA000801CA000801CA000801CA000813
:1001A00001CA000801CA000801CA000801CA000803
:1001B00001CA000801CA000801CA000801CA0008F3
:10C0000072B6334880F3098840F20000CCF2000099
:10C010004EF63471CEF200010860BFF34F8FBFF3CC
:10C020006F8F40F20000C0F2F0004EF68851CEF261
:10C0300000010860BFF34F8FBFF36F8F4FF0000018
:10C04000E1EE100A4EF63C71CEF2000108600620C7
:10C0500080F31488BFF36F8F00F0BAFC03F0D0F9BF
:10C060004FF055301B491C4A91423CBF41F8040B2C
:10C07000FAE71A49164A91423CBF41F8040BFAE725
:10C080001749184A184B9A423EBF51F8040B42F820
:10C09000040BF8E700201549154A91423CBF41F8CE
:10C0A000040BFAE700F09CFC124C134DAC4203DA8F
:10C0B00054F8041B8847F9E705F0EAFB0F4C104DD4
:10C0C000AC4203DA54F8041B8847F9E700F090BC4F
:10C0D00000080020000000200004002000040020D0
:10C0E000682F0108000800206C0C0020700C002054
:10C0F0008424002000C0000800C0000800C0000820
:10C1000000C0000800000000000000000000000067
:10C110002DE9F04F2DED108AC1F80CD0D0F80CD0DD
:10C12000BDEC108ABDE8F08F002383F31188284608
:10C13000A047002000F01CFF00F07AFE00DFFEE7C1
:10C1400081F0004102E000BF83F0004330B54FEAC8
:10C1500041044FEA430594EA050F08BF90EA020F35
:10C160001FBF54EA000C55EA020C7FEA645C7FEAC8
:10C17000655C00F0E2804FEA5454D4EB5555B8BFEB
:10C180006D420CDD2C4480EA020281EA030382EA5C
:10C19000000083EA010180EA020281EA0303362DEE
:10C1A00088BF30BD11F0004F4FEA01314FF4801CC1
:10C1B0004CEA113102D0404261EB410113F0004FD3
:10C1C0004FEA03334CEA133302D0524263EB43038A
:10C1D00094EA050F00F0A780A4F10104D5F1200E28
:10C1E0000DDB02FA0EFC22FA05F2801841F1000183
:10C1F00003FA0EF2801843FA05F359410EE0A5F157
:10C2000020050EF1200E012A03FA0EFC28BF4CF087
:10C21000020C43FA05F3C01851EBE37101F000453D
:10C2200007D54FF0000EDCF1000C7EEB00006EEB4A
:10C230000101B1F5801F1BD3B1F5001F0CD34908D4
:10C240005FEA30004FEA3C0C04F101044FEA44522B
:10C2500012F5800F80F09A80BCF1004F08BF5FEAB2
:10C26000500C50F1000041EB045141EA050130BD92
:10C270005FEA4C0C404141EB010111F4801FA4F135
:10C280000104E9D191F0000F04BF01460020B1FA8A
:10C2900081F308BF2033A3F10B03B3F120020CDAC2
:10C2A0000C3208DD02F1140CC2F10C0201FA0CF0A0
:10C2B00021FA02F10CE002F11402D8BFC2F1200C05
:10C2C00001FA02F120FA0CFCDCBF41EA0C019040BB
:10C2D000E41AA2BF01EB0451294330BD6FEA040404
:10C2E0001F3C1CDA0C340EDC04F11404C4F12002EF
:10C2F00020FA04F001FA02F340EA030021FA04F301
:10C3000045EA030130BDC4F10C04C4F1200220FA57
:10C3100002F001FA04F340EA0300294630BD21FA95
:10C3200004F0294630BD94F0000F83F4801306BF5B
:10C3300081F480110134013D4EE77FEA645C18BF4F
:10C340007FEA655C29D094EA050F08BF90EA020FE6
:10C3500005D054EA000C04BF1946104630BD91EADE
:10C36000030F1EBF0021002030BD5FEA545C05D1E1
:10C370004000494128BF41F0004130BD14F5800420
:10C380003CBF01F5801130BD01F0004545F0FE4194
:10C3900041F470014FF0000030BD7FEA645C1ABFC9
:10C3A000194610467FEA655C1CBF0B46024650EA00
:10C3B000013406BF52EA033591EA030F41F400212C
:10C3C00030BD00BF90F0000F04BF0021704730B5B2
:10C3D0004FF4806404F132044FF000054FF0000187
:10C3E00050E700BF90F0000F04BF0021704730B548
:10C3F0004FF4806404F1320410F0004548BF40421D
:10C400004FF000013EE700BF42004FEAE2014FEA71
:10C4100031014FEA02701FBF12F07F4393F07F4F4C
:10C4200081F06051704792F0000F14BF93F07F4F7E
:10C43000704730B54FF4607401F0004521F00041C1
:10C4400020E700BF50EA010208BF704730B54FF047
:10C4500000050AE050EA010208BF704730B511F04C
:10C46000004502D5404261EB41014FF4806404F184
:10C4700032045FEA915C3FF4DCAE4FF003025FEA06
:10C48000DC0C18BF03325FEADC0C18BF033202EB8E
:10C49000DC02C2F1200300FA03FC20FA02F001FAE8
:10C4A00003FE40EA0E0021FA02F11444C1E600BF87
:10C4B00070B54FF0FF0C4CF4E06C1CEA11541DBF3A
:10C4C0001CEA135594EA0C0F95EA0C0F00F0DEF805
:10C4D0002C4481EA030621EA4C5123EA4C5350EAEA
:10C4E000013518BF52EA033541F4801143F480133B
:10C4F00038D0A0FB02CE4FF00005E1FB02E506F0CC
:10C500000042E0FB03E54FF00006E1FB03569CF020
:10C51000000F18BF4EF0010EA4F1FF04B6F5007F26
:10C5200064F5407404D25FEA4E0E6D4146EB060698
:10C5300042EAC62141EA55514FEAC52040EA5E5021
:10C540004FEACE2EB4F1FD0C88BFBCF5E06F1ED8CB
:10C55000BEF1004F08BF5FEA500E50F1000041EB02
:10C56000045170BD06F0004646EA010140EA0200AF
:10C5700081EA0301B4EB5C04C2BFD4EB0C0541EAD1
:10C58000045170BD41F480114FF0000E013C00F3E6
:10C59000AB8014F1360FDEBF002001F0004170BD0A
:10C5A000C4F10004203C35DA0C341BDC04F1140423
:10C5B000C4F1200500FA05F320FA04F001FA05F2AF
:10C5C00040EA020001F0004221F0004110EBD3707C
:10C5D00021FA04F642EB06015EEA430E08BF20EAA8
:10C5E000D37070BDC4F10C04C4F1200500FA04F34B
:10C5F00020FA05F001FA04F240EA020001F00041DD
:10C6000010EBD37041F100015EEA430E08BF20EA4F
:10C61000D37070BDC4F1200500FA05F24EEA020E97
:10C6200020FA04F301FA05F243EA020321FA04F0C6
:10C6300001F0004121FA04F220EA020000EBD3707D
:10C640005EEA430E08BF20EAD37070BD94F0000F7D
:10C650000FD101F00046400041EB010111F4801FB1
:10C6600008BF013CF7D041EA060195F0000F18BF62
:10C67000704703F00046520043EB030313F4801F9E
:10C6800008BF013DF7D043EA0603704794EA0C0F58
:10C690000CEA135518BF95EA0C0F0CD050EA41066E
:10C6A00018BF52EA4306D1D181EA030101F00041EB
:10C6B0004FF0000070BD50EA410606BF1046194613
:10C6C00052EA430619D094EA0C0F02D150EA01361F
:10C6D00013D195EA0C0F05D152EA03361CBF104660
:10C6E00019460AD181EA030101F0004141F0FE41FF
:10C6F00041F470014FF0000070BD41F0FE4141F483
:10C70000780170BD70B54FF0FF0C4CF4E06C1CEA82
:10C7100011541DBF1CEA135594EA0C0F95EA0C0F37
:10C7200000F0A7F8A4EB050481EA030E52EA0335F2
:10C730004FEA013100F088804FEA03334FF0805513
:10C7400045EA131343EA12634FEA022245EA111540
:10C7500045EA10654FEA00260EF000419D4208BFF1
:10C76000964244F1FD0404F5407402D25B084FEA9E
:10C770003202B61A65EB03055B084FEA32024FF44A
:10C7800080104FF4002CB6EB020E75EB030E22BFA7
:10C79000B61A754640EA0C005B084FEA3202B6EB67
:10C7A000020E75EB030E22BFB61A754640EA5C0016
:10C7B0005B084FEA3202B6EB020E75EB030E22BFA6
:10C7C000B61A754640EA9C005B084FEA3202B6EBA7
:10C7D000020E75EB030E22BFB61A754640EADC0066
:10C7E00055EA060E18D04FEA051545EA16754FEAC8
:10C7F00006164FEAC30343EA52734FEAC2025FEAE6
:10C800001C1CC0D111F4801F0BD141EA00014FF074
:10C8100000004FF0004CB6E711F4801F04BF014345
:10C820000020B4F1FD0C88BFBCF5E06F3FF6AFAE61
:10C83000B5EB030C04BFB6EB020C5FEA500C50F1F1
:10C84000000041EB045170BD0EF0004E4EEA113174
:10C8500014EB5C04C2BFD4EB0C0541EA045170BD7B
:10C8600041F480114FF0000E013C90E645EA060EBF
:10C870008DE60CEA135594EA0C0F08BF95EA0C0FED
:10C880003FF43BAF94EA0C0F0AD150EA01347FF435
:10C8900034AF95EA0C0F7FF425AF104619462CE70C
:10C8A00095EA0C0F06D152EA03353FF4FDAE10466F
:10C8B000194622E750EA410618BF52EA43067FF4C0
:10C8C000C5AE50EA41047FF40DAF52EA43057FF450
:10C8D000EBAE12E7000000000000000000000000C6
:10C8E0004FEA410212F5001215D211D56FF4787398
:10C8F000B3EB625212D94FEAC12343F0004343EA3B
:10C90000505311F0004F23FA02F018BF4042704715
:10C910004FF00000704750EA013005D111F000409F
:10C9200008BF6FF0004070474FF00000704700BF35
:10C930004FEA4102B2F1E04324BFB3F5001CDCF141
:10C94000FE5C0DD901F0004C4FEAC0024CEA507079
:10C95000B2F1004F40EB830008BF20F001007047A8
:10C9600011F0804F21D113F13872BCBF01F00040AB
:10C97000704741F480114FEA5252C2F11802C2F1DD
:10C98000200C10FA0CF320FA02F018BF40F001005E
:10C990004FEAC1234FEAD32303FA0CFC40EA0C0010
:10C9A00023FA02F34FEA4303CCE77FEA625307D14D
:10C9B00050EA01331EBF4FF0FE4040F44000704784
:10C9C00001F0004040F0FE4040F40000704700BF1E
:10C9D000704700BF000000000000000000000000E1
:10C9E000704700BF000000000000000000000000D1
:10C9F000FEE700BF00000000000000000000000093
:10CA0000FEE700BF00000000000000000000000082
:10CA1000FEE700BF00000000000000000000000072
:10CA2000204B214A2148F0B500249C60DF68204E4D
:10CA3000204D4FF6FF0139400A43DA60F26842F0B8
:10CA40008072F2600268202142F00102102602602A
:10CA500083B0DE7783F8221000F0FAF800F078F85F
:10CA600000F00EFB00F0A4FC00F0DAFC28464021A8
:10CA700000F0EEF9A5F1300301229861027784F30A
:10CA8000118862B69B690C49996105F150000094C8
:10CA90000A4B4FF4EC7100F003FA094B836103B0C9
:10CAA000F0BD00BF00ED00E00003FA05001000E05B
:10CAB000F0ED00E0A00C0020C027010811CA00081A
:10CAC000B027010800000000000000000000000086
:10CAD000F8B5134DAA69D37F0BB1013BD377116A27
:10CAE000EB69104E01311162AA6AB34202F10102F0
:10CAF000AA6213D09C68013C9C607CB920271A680C
:10CB0000D968DC605660EA6184F311881869884747
:10CB100087F31188EB699A68002AF0D0F8BD00BF4E
:10CB2000700C00208C0C00200000000000000000B1
:10CB3000034A516853685B1A8342FBD3704700BFB6
:10CB4000001000E0000000000000000000000000F5
:10CB5000054B4FF0FF3003F11C020021586299622F
:10CB6000DA611A62704700BF700C002000000000FC
:10CB700070B40D4EF469A5680361A942C26004D97E
:10CB80002468491BA5688D42FAD36368436004603A
:10CB9000186060608160A3684FF0FF32591AA1608D
:10CBA000726270BC704700BF700C00200000000073
:10CBB00003688268416830B49D68064C2A449A60D4
:10CBC0000B60056800224FF0FF336960C26063624A
:10CBD00030BC7047700C0020000000000000000016
:10CBE00010B4202383F31188037F072B0ED8DFE8CE
:10CBF00003F0270D0D2308040D08426A93680133E2
:10CC0000936090E80C001A60026853604FF0FF34A4
:10CC1000002281680D4B446202771B689A688A4241
:10CC2000FBD25A684260036000211060586081F3B3
:10CC300011885DF8044B7047436A00221A60E5E7EB
:10CC4000002383F311885DF8044B7047700C0020BB
:10CC5000034B00221B605B601B615B619A60704745
:10CC6000700C002000000000000000000000000028
:10CC700000228168084B10B4044602771B689A684A
:10CC80008A42FBD25A6862602360204614605C606E
:10CC90005DF8044B704700BF700C002000000000DE
:10CCA000084B99691A6810B408770420C87710688F
:10CCB000186001244360147710465DF8044B9A61B4
:10CCC000FFF726BA700C00200000000000000000F2
:10CCD00030B54B1C87B012D00C4C0D4AA3690546E9
:10CCE00001A8FFF745FF2846FFF7DAFF049B13B1C1
:10CCF00001A8FFF75DFFA369586A07B030BD034C78
:10CD0000FFF7CEFFA369586A07B030BD700C002052
:10CD1000E1CB00080000000000000000000000005F
:10CD2000144B70B404469D694162A868A1688142B1
:10CD30004FF000020BD822771B689A689142FBD90A
:10CD40005A686260236014605C6070BC70472A7728
:10CD50001A46126891688842FBD9506868600126BB
:10CD60002A60056055602677294620469C6170BC84
:10CD7000FFF7CEB9700C002000000000000000009A
:10CD8000084B9A691B68D17F9B68906821B98342E0
:10CD900034BF002001207047834294BF002001204F
:10CDA000704700BF700C0020000000000000000071
:10CDB0000E4A1068036870B4012194695A60042611
:10CDC00001770025A16813609061E677257700E080
:10CDD0001B689A688A42FBD25A68626023602146C7
:10CDE00014605C6070BCFFF793B900BF700C00204A
:10CDF0000D4A1068036830B4012194695A60002517
:10CE00000177A16813609061257700E01B689A683C
:10CE10008A42FBD85A6862602360214614605C60D5
:10CE200030BCFFF775B900BF700C00200000000097
:10CE3000034B9B69DB7F0BB1FFF7DABFFFF7B8BF8E
:10CE4000700C002000000000000000000000000046
:10CE5000F0B50F4C016465698160022600220677F7
:10CE600000F12C014FF0040E012700F12806456166
:10CE7000046180F81FE087774277C26382630262B1
:10CE80008261286160618662C1620163F0BD00BF9A
:10CE9000700C0020000000000000000000000000F6
:10CEA000F8B51D460446202383F3118864390144F4
:10CEB000134E144B7769C1600D64069D4D640B667B
:10CEC00002250423826002640577C377002500F100
:10CED0002C0300F128020121817706614761457723
:10CEE000C563856305628561294638618262C362D4
:10CEF00003637061FFF714FF85F311882046F8BDC6
:10CF0000700C002029C10008000000000000000093
:10CF100008B50146202383F311880820FFF7D8FEC7
:10CF2000002383F3118808BD00000000000000000A
:10CF300038B50E4B9C69A36A606204F128059D42D6
:10CF400007D01A68A2621846FFF792FEA36AAB42A6
:10CF5000F7D1637F9B0704D1636922691A61226953
:10CF600053610F20BDE83840FFF79ABE700C0020D7
:10CF7000202383F31188FFF7DBBF00BF0000000010
:10CF800003682BB10022026018465962FFF770BE99
:10CF9000704700BF0000000000000000000000001B
:10CFA00069B1084B10B4024644689B69042083E8C9
:10CFB0001400236053605DF8044BFFF789BE4FF007
:10CFC000FF307047700C00200000000000000000DF
:10CFD000026890420AD010B414680460034663608B
:10CFE000516210465DF8044BFFF742BE704700BF28
:10CFF00038B5036898420BD004460D461A68226083
:10D00000184654605D62FFF733FE23689C42F5D1F9
:10D0100038BD00BF0000000000000000000000005C
:10D02000014B5B6883607047001000E00000000067
:10D030000F4B10495A688368F0B48F6FC668416817
:10D04000D0E90445D31ADB1BE41845F1000501368D
:10D050008B42C6608360C0E9044505D802689342EC
:10D0600038BF0360F0BC70474360F0BC704700BF3E
:10D07000001000E0700C0020000000000000000024
:10D08000D0B50C4C86B000234FF0FF326846002626
:10D090000027A3670193029303930092CDE90467ED
:10D0A000FFF7BEFF6846FFF7C3FF029BA36706B00A
:10D0B000D0BD00BF700C0020000000000000000088
:10D0C0000023006040608360704700BF00000000E4
:10D0D000836B027F19430A2A816309D00B2A00D08F
:10D0E0007047436A8B43FBD100234362FFF7C0BD07
:10D0F000436A1942F8D170470000000000000000A8
:10D1000070B50468A0420FD006460D46E3682B4375
:10D11000E36015B12269134203D0A1686068FFF78C
:10D12000D7FF2468A642F1D170BD00BF0000000007
:10D1300030B4029C046200250A44856002610060EC
:10D140004060C16081614161C36130BC704700BF14
:10D1500043698269934210B510D082685C1C013229
:10D16000826044611970426903699A4201D3C368BD
:10D1700043610021FFF72CFF002010BD8268002AC8
:10D18000EBD06FF0030010BD0000000000000000B5
:10D1900070B520230E46044683F31188C3692BB172
:10D1A000984703E0FFF7FCFE002815DBA568314631
:10D1B0002046002DF6D0A169A36825694A1C013BD1
:10D1C000AA42A360A26128BFE368087828BFA361D0
:10D1D000002383F3118870BD85F3118870BD00BFF3
:10D1E0002DE9F04F044683B0894693461D46D0F89A
:10D1F0001C80202787F3118800260197B246B8F1DA
:10D20000000F05D02046C04702E0FFF7C9FEE0B995
:10D21000A76829462046002FF7D0A269A368511CB1
:10D22000013BA161A360137809F8013B2369A2695E
:10D230009A4224BFE368A3618AF311880136B3459B
:10D2400005D0019B83F31188D9E787F31188304615
:10D2500003B0BDE8F08F00BF000000000000000038
:10D2600030B4029C04628D180561006040608260E9
:10D27000C16081614161C36130BC70470000000042
:10D28000F8B504460F461646202383F3118803E0C1
:10D29000FFF786FE002819DBA56831462046002DE1
:10D2A000F6D06269A368511C013B6161A3601770ED
:10D2B000236962699A4224BFE3686361E3690BB141
:10D2C00020469847002080F31188F8BD85F3118827
:10D2D000F8BD00BF000000000000000000000000DA
:10D2E00038B5426983699A420FD082680569591C32
:10D2F000013282608161A9421C7801D3C3688361D5
:10D300000021FFF765FE204638BD8268002AECD078
:10D310006FF0020038BD00BF0000000000000000F8
:10D320002DE9F04F83B004460D4616460193D0F820
:10D330001C804FF0200989F311880027BA46A368A2
:10D3400005F1010B204603B36169A3684A1C013B48
:10D350006261A3602B780B7023696169994224BFD5
:10D36000E3686361B8F1000F00D0C0478AF3118809
:10D37000013E07F1010712D089F31188A3685D46C9
:10D3800005F1010B2046002BDED1019900932046C8
:10D39000FFF706FE009B0028D1D083F311883846A2
:10D3A00003B0BDE8F08F00BF0000000000000000E7
:10D3B000054A064B0648074922F0070223F00703F7
:10D3C00002600B60704700BF8B2400200000022029
:10D3D000CC0E0020C80E002000000000000000005D
:10D3E00010B4202383F31188094C0A4B2268196872
:10D3F000C31D23F00703891A8B429DBF9B1823602E
:10D4000010460020002383F311885DF8044B704719
:10D41000CC0E0020C80E002000000000000000001C
:10D42000044B054A1A6003F1100000229A60DA608A
:10D43000FFF746BED00E0020E1D300080000000038
:10D44000064A536823F001035360EFF309836833FE
:10D4500083F30988002383F31188704730EF00E0DD
:10D46000202383F31188124B5B6813F4006302D10D
:10D4700083F31188704710B5F1EE103AEFF3098489
:10D480000C4B4FF08072DB6844F8083C44F84C2C9D
:10D49000A4F1680383F30988FFF772FC18B1064B07
:10D4A00044F8503C10BD054B44F8503C10BD00BF43
:10D4B00000ED00E030EF00E039C100083CC1000899
:10D4C00008B500F015FE0A4801F02AF800F018F837
:10D4D00000F03EF800F06CF800F07AF800F0E8F8A0
:10D4E00000F04EF901F094FFBDE8084000F040B9AB
:10D4F00040290108000000000000000000000000BA
:10D5000000F0F6BF00000000000000000000000076
:10D51000F0B40122002300F1180700F11C0600F10D
:10D52000200500F1240400F128010270436000F19D
:10D53000080200F110038761C661056244628162DE
:10D540008260C26003614361F0BC7047000000006C
:10D5500001F006BD00000000000000000000000017
:10D560000122002302704360704700BF00000000EA
:10D5700010B52023044683F31188416001F000FDBB
:10D5800002232370002383F3118810BD00000000E4
:10D5900008B5202282F311880322027001F028FDD1
:10D5A000002383F3118808BD000000000000000084
:10D5B00001F0DEB9000000000000000000000000E3
:10D5C00001220023027043600C30FFF779BD00BFD9
:10D5D00001F076BD00000000000000000000000027
:10D5E0000122002302704360704700BF000000006A
:10D5F00010B52023044683F31188416001F070FDCB
:10D6000002232370002383F3118810BD0000000063
:10D6100010B52023044683F3118801F0C1FD0323D4
:10D620002370002383F3118810BD00BF00000000A9
:10D630000C30FFF7D5BD00BF000000000000000067
:10D640000C304FF0FF33FFF7CBBD00BF00000000F0
:10D650003030FFF765BE00BF000000000000000092
:10D6600030304FF0FF33FFF75BBE00BF000000001B
:10D670000C30FFF78DBD00BF00000000000000006F
:10D680000C304FF0FF31FFF783BD00BF00000000FA
:10D690003030FFF7F5BD00BF0000000000000000C3
:10D6A00030304FF0FF32FFF7EBBD00BF000000004D
:10D6B00001F03EBE0000000000000000000000007D
:10D6C00070B50F4B044682B040F8043B012600942D
:10D6D00015460B46606004F1540104F10C002672FB
:10D6E0004FF48072FFF724FD00942B4604F5AA71D5
:10D6F00004F130004FF48072FFF7B2FD02B070BD4C
:10D70000E027010800000000000000000000000009
:10D7100010B52023044683F3118801F021FE022373
:10D720002372002383F3118810BD00BF00000000A6
:10D7300038B5436904460D463BB1294604F10C0057
:10D74000FFF706FD00280BDB38BD04210844FFF776
:10D75000D7FC294604F10C00FFF7FAFC0028F3DAA5
:10D76000201D8021BDE83840FFF7CABC0000000042
:10D7700001F036BD000000000000000000000000C5
:10D7800001F00EB9000000000000000000000000E1
:10D790000023012202704360C36183620362C3629B
:10D7A0004362036303814381704700BF00000000B0
:10D7B000002202210170A0F84C2080F84E2080F851
:10D7C0004F2002814281C26002614261826180F821
:10D7D000342001F0FDB800BF000000000000000090
:10D7E000F8B50023044680F8343000F1440201F01B
:10D7F00087F963689B68002B36D02046984700283D
:10D8000032D0E06B94F8443094F84B1094F84A20EE
:10D8100042EA012282423CBFE26310461A0600F14E
:10D82000AB80002800F08B80E368A56B9B69002229
:10D83000042184F834101146DD6058601A709A6033
:10D84000204601F06DF9202383F31188638913F0DA
:10D85000010105D143F001036381204601F0F8FA8C
:10D86000002383F31188F8BD94F8443013F0600767
:10D870001E4611D00021204601F022FB0021204647
:10D8800001F00EFB63681B6813B105212046984721
:10D89000062384F83430F8BD94F8450003F07F0285
:10D8A00042EA0025B5F5407F00F0EB8016D9B5F5CA
:10D8B000C06F00F0CE802FD9B5F5106F76D040F64E
:10D8C0000242954200F0EF80B5F5006FD2D104F12D
:10D8D0004F0201202764A263E06395E7022D00F068
:10D8E000A28040F29780B5F5807F00F08480B5F586
:10D8F000817FBFD194F84630002BBBD194F84830DB
:10D9000013F00F0115D01E06204600F1F48001F03F
:10D91000E7FA94F844600CE040F202339D4257D09D
:10D92000B5F5A06FA6D1B4F84430B3F5A06F00F000
:10D93000D0800023A363E363236433062AD4E3681F
:10D940005A690521002384F8341019461370D360F6
:10D9500053609360204601F063F9202383F311881C
:10D96000238913F001017FF47BAF43F0010323818E
:10D97000204601F07DFA73E760B1E368A56B5B694F
:10D980000022012184F834101146DD6058601A70BD
:10D990009A60DFE7E3689A690321002384F8341072
:10D9A00019461370D3605360936049E794F846308A
:10D9B00084F84F30002B7DD10323237063681B68EC
:10D9C000002BB6D002212046984794F84460B0E777
:10D9D00094F84630002B7FF44DAF94F8483013F0A4
:10D9E0000F01A6D01D06204600F18A8001F058FAEA
:10D9F00094F844609DE794F84630012B7FF43AAFE9
:10DA0000B4F84C30A76323F00203E7632764A4F85B
:10DA10004C3092E7002D43D104F14C0202202564E2
:10DA2000A263E063F0E694F8481011F0800F2046FE
:10DA300001F00F0141D101F043F8012841D0022843
:10DA40007FF418AF314BA363E063276494F844304C
:10DA5000DAE694F84900616894F848304D6894F823
:10DA6000462094F8471043EA00232046A8470028A0
:10DA70003FF400AF09C82764A363E06394F844301F
:10DA8000C2E694F84630012B7FF4F4AEB4F84C3083
:10DA9000A76343F00203E7632764A4F84C304CE724
:10DAA000012D7FF4E7AE1A4AA26302200022E06350
:10DAB0002264A9E60423237080E701F011F801280D
:10DAC000BDD1144BA363E5632764284694F8443022
:10DAD0009AE694F8463084F84E30204600F0E0FF95
:10DAE00063681B6813B1012120469847032394F80B
:10DAF000446023701DE701F003FA94F8446018E7CE
:10DB000001F0DEF994F8446013E700BF1028010823
:10DB10000028010820280108000000000000000083
:10DB200090F8343010B50446062B15D8DFE803F022
:10DB3000043B1C0404150400002101F0C1F900217C
:10DB4000204601F0ADF963681B6813B1052120463A
:10DB50009847062384F8343010BD036C03B198470E
:10DB6000002384F8343010BDC3689A690321002370
:10DB700084F83410204619461370D36053609360C4
:10DB800000F0CEFF202383F31188638913F0010195
:10DB900005D143F001036381204601F059F90023C8
:10DBA00083F3118810BD90F84B1090F84A30C26B87
:10DBB00043EA01239342C368D7D9188AB2FBF0F134
:10DBC00000FB1122002AD0D15B6911461A70DA607D
:10DBD0005A609A60204601F023F8202383F31188CD
:10DBE000238913F0010105D143F00103238120466D
:10DBF00001F03EF9002383F31188022384F83430C6
:10DC000010BD00BF00000000000000000000000088
:10DC100090F83420062A0CD80123934013F0670FA4
:10DC200010B5044612D113F0080203D1DB061ED44E
:10DC300010BD7047C3689B699B68002BF8D1036CCB
:10DC400003B19847002384F8343010BD002101F05F
:10DC500037F90021204601F023F963681B6813B1EE
:10DC6000052120469847062384F8343010BDC36848
:10DC70005B69052180F834101A70DA605A609A6086
:10DC8000114600F0CDFF202383F31188238913F080
:10DC9000010103D0002383F3118810BD43F0010379
:10DCA0002381204601F0E4F8F4E700BF0000000003
:10DCB00043099B0010B403F1604300F1604404F594
:10DCC000614403F56143090100F01F00012202FADB
:10DCD00000F0C9B284F80013C3F8800118605DF841
:10DCE000044B70470000000000000000000000002E
:10DCF00000F1604000F56D400901C9B2017670473E
:10DD000008B5074B074A196801F03D01996013688F
:10DD10000BB150689847BDE80840FFF7A1BB00BFB2
:10DD200000600240F00E0020000000000000000033
:10DD3000084B094819688268890901F03D0110B54E
:10DD40008C019C600AB1C0689047BDE81040FFF7A5
:10DD500087BB00BF00600240F00E00200000000002
:10DD6000084B094819680269090C01F03D0110B51A
:10DD70000C049C600AB140699047BDE81040FFF771
:10DD80006FBB00BF00600240F00E002000000000EA
:10DD9000084B094819688269890D01F03D0110B5E9
:10DDA0008C059C600AB1C0699047BDE81040FFF740
:10DDB00057BB00BF00600240F00E002000000000D2
:10DDC00008B5074B07485968026A01F03D01D96060
:10DDD0000AB1406A9047BDE80840FFF741BB00BF69
:10DDE00000600240F00E0020000000000000000073
:10DDF000084B09485968826A890901F03D0110B54C
:10DE00008C01DC600AB1C06A9047BDE81040FFF7A2
:10DE100027BB00BF00600240F00E002000000000A1
:10DE2000084B09485968026B090C01F03D0110B517
:10DE30000C04DC600AB1406B9047BDE81040FFF76E
:10DE40000FBB00BF00600240F00E00200000000089
:10DE5000084B09485968826B890D01F03D0110B5E6
:10DE60008C05DC600AB1C06B9047BDE81040FFF73D
:10DE7000F7BA00BF00600240F00E00200000000072
:10DE800008B5074B07481968026C01F03D0199601D
:10DE90000AB1406C9047BDE80840FFF7E1BA00BF07
:10DEA00000640240F00E00200000000000000000AE
:10DEB000084B09481968826C890901F03D0110B5C9
:10DEC0008C019C600AB1C06C9047BDE81040FFF720
:10DED000C7BA00BF00640240F00E0020000000003E
:10DEE000084B09481968026D090C01F03D0110B595
:10DEF0000C049C600AB1406D9047BDE81040FFF7EC
:10DF0000AFBA00BF00640240F00E00200000000025
:10DF1000084B09481968826D890D01F03D0110B563
:10DF20008C059C600AB1C06D9047BDE81040FFF7BA
:10DF300097BA00BF00640240F00E0020000000000D
:10DF400008B5074B07485968026E01F03D01D960DA
:10DF50000AB1406E9047BDE80840FFF781BA00BFA4
:10DF600000640240F00E00200000000000000000ED
:10DF7000084B09485968826E890901F03D0110B5C6
:10DF80008C01DC600AB1C06E9047BDE81040FFF71D
:10DF900067BA00BF00640240F00E002000000000DD
:10DFA000084B09485968026F090C01F03D0110B592
:10DFB0000C04DC600AB1406F9047BDE81040FFF7E9
:10DFC0004FBA00BF00640240F00E002000000000C5
:10DFD000084B09485968826F890D01F03D0110B561
:10DFE0008C05DC600AB1C06F9047BDE81040FFF7B8
:10DFF00037BA00BF00640240F00E002000000000AD
:10E000000E490F4A0F48002310B40B600E4C1946FE
:10E0100001E052F80C0C016044F833100133102B6E
:10E0200002F10C02F5D10949094A5DF8044B4FF0A1
:10E03000FF338B60CB609360D3607047700F00201C
:10E040003C28010810600240F00E002000600240F1
:10E05000006402400000000000000000000000001A
:10E06000F8B51F4F467A3D68012404FA06FE1EEA01
:10E07000050F31D11B4C4EEA050504EBC60E15F019
:10E08000FF0F3D6044F83620CEF8043004D0164C23
:10E09000236B43F40013236315F47F4F16D10568F7
:10E0A0002B6823F01F032B602B6813F00104FBD1B6
:10E0B000077A46683D23BB40212733602C606F619F
:10E0C00062B1807AFFF7F4FD2046F8BD064C236B61
:10E0D00043F480032363E2E72046F8BD1046F8BD11
:10E0E000700F0020F00E00200038024000000000F9
:10E0F000174B4FF0FF311A69002210B419611A61F1
:10E10000586959615A61186A124C60F0805018625F
:10E110001A62586A59625A62196C41F08051196446
:10E12000216841F480712160196F01F44071B1F5EB
:10E13000007F03D04FF4803119671A67054A5DF8F4
:10E14000044B536823F400735360FFF759BF00BFBB
:10E150000038024000700040000000000000000095
:10E160002C492D4B4FF080504FF4404208641A6008
:10E170000B6843F001030B600A68264B9007FBD540
:10E180009A6822F003029A609A689A6019468B682E
:10E19000204A13F00C03FAD1116801F0F901116063
:10E1A0009360136843F4803313601168194B89033B
:10E1B000FBD55A6F42F001025A675A6F1549900712
:10E1C000FBD5164B4B600B68134A43F080730B6012
:10E1D00053685904FCD50F490A680E4B9201FBD5D0
:10E1E0000F4A1049996040F2057111609A6842F037
:10E1F00002029A601A469368064903F00C03082B42
:10E20000F9D14B6C43F480434B644B6E43F4804331
:10E210004B667047003802400070004008544007C9
:10E22000003C02400094083800000000000000009C
:10E23000F0B5434C434D236C43F000732364D5F891
:10E2400000321B0C1B0443F0010343EA0023C5F812
:10E25000003200295AD00023C5F81C321846C5F8F0
:10E2600004321C46C5F80C32C5F81432C30003F161
:10E27000804303F5C84301301C28C3F84042C3F86B
:10E280004442F3D12F4D0026012710681479C300B2
:10E2900003F1804314F0010F03F5C84306F10106B2
:10E2A00007FA00F005D0D5F804E240EA0E0EC5F8F2
:10E2B00004E214F0020F05D0D5F80CE240EA0E0E8D
:10E2C000C5F80CE2640704D5D5F814420443C5F838
:10E2D00014429468C3F84042D468C3F84442D5F865
:10E2E0001C32B14240EA030002F11002C5F81C02E0
:10E2F000CBD11449124AD1F8003223F00103C1F8FE
:10E300000032136C23F000731364F0BDC20002F1FD
:10E310008042012302F5C842834043F00103C5F85F
:10E320004012C5F84412C2F84012C2F84412C5F8AF
:10E330000412C5F81412C5F80C32C5F81C32D8E71F
:10E3400000380240006400400000000000000000AF
:10E3500010B50C4C0C49E26A2023916083F31188BC
:10E36000002104F10800FEF743FE04F11C00012126
:10E37000FEF7C6FE002383F31188BDE81040FFF7C7
:10E380006FB800BF740F0020010101000000000001
:10E3900038B5164DEB6ADC68A20711D1E3060BD540
:10E3A000EB6A1021D960202383F311881048FEF70F
:10E3B000A7FE002383F31188BDE83840FFF750B86B
:10E3C0005A6922F002025A61202383F31188002146
:10E3D00005F11000FEF70CFE05F118000121FEF713
:10E3E0008FFE002383F31188D8E700BF740F00204D
:10E3F000940F00200000000000000000000000005A
:10E4000038B5164DEB6A1C69A20711D1E3060BD58E
:10E41000EB6A10211961202383F311881048FEF75D
:10E420006FFE002383F31188BDE83840FFF718B86A
:10E430005A6922F010025A61202383F311880021C7
:10E4400005F11000FEF7D4FD05F118000221FEF7DA
:10E4500057FE002383F31188D8E700BF740F002014
:10E46000940F0020000000000000000000000000E9
:10E4700038B51B4DEB6A5C681C225A6022071DD41C
:10E48000630717D5EA6A9369916921F07001916178
:10E4900013F0700F03F0070118BF41F008012022AC
:10E4A00082F311880F4841EA0341FEF729FE002359
:10E4B00083F31188BDE83840FEF7D2BF1A682846BA
:10E4C00022F00202032100F8281B20211A6081F3A8
:10E4D00011880021FEF714FE002383F31188CFE793
:10E4E000740F0020940F00200000000000000000C6
:10E4F00010B5064C2046FFF70BF80022044BE362F0
:10E5000011460E20BDE81040FFF792BE740F0020A8
:10E510000064004000000000000000000000000057
:10E52000F0B4654D654C2F6B6549664A664B40F209
:10E53000FF1637432F632F6D3E432E654568656098
:10E540008568A560C568E5600569656145692562FE
:10E550008569656205682560046A4C60446A8C6060
:10E56000846ACC60C46A4C61046B0C62446B4C627C
:10E57000C4690C60C16B5160016C9160416CD160E9
:10E58000816C5161C16C1162016D5162816B1160CE
:10E59000826D5A60C26D9A60026EDA60426E5A6194
:10E5A000826E1A62C26E5A62426D1A60426FC3F87E
:10E5B0000424826FC3F80824C26FC3F80C24D0F877
:10E5C0008020C3F81424D0F88420C3F82024D0F885
:10E5D0008820C3F82424026FC3F80024D0F89020C8
:10E5E000C3F80428D0F89420C3F80828D0F898205D
:10E5F000C3F80C28D0F89C20C3F81428D0F8A02029
:10E60000C3F82028D0F8A420C3F82428D0F88C2000
:10E61000C3F8002803F54063D0F8AC205A60D0F866
:10E62000B0209A60D0F8B420DA60D0F8B8205A61EF
:10E63000D0F8BC201A62D0F8C0205A62D0F8A820C6
:10E640001A60D0F8C820C3F80424D0F8CC20C3F84E
:10E650000824D0F8D020C3F80C24D0F8D420C3F874
:10E660001424D0F8D820C3F82024D0F8DC20C3F834
:10E670002424D0F8C420C3F80024D0F8E420C3F840
:10E680000428D0F8E820C3F80828D0F8EC20C3F814
:10E690000C28D0F8F020C3F81428D0F8F420C3F8E0
:10E6A0002028D0F8F820C3F82428D0F8E020C3F8B8
:10E6B0000028F0BC704700BF003802400000024054
:10E6C0000004024000080240000C0240000000006C
:10E6D0002DE9F04F4FF00F0C02F0030EC2F380074C
:10E6E000C2F3C106C2F341150024C2F3C3124FF0B6
:10E6F00001094FF0030830E0D0F820B02BEA030303
:10E7000043EA0A030362436809FA04FA23EA0A03A4
:10E710003B4343606300D0F808A008FA03F3DB43EF
:10E720000AEA030A4AEA060AC0F808A0D0F80CA0D0
:10E7300003EA0A0A4AEA050AC0F80CA0D0F800A0C9
:10E7400003EA0A0343EA0E030360490819D07F0075
:10E75000B600AD004FEA8E0E013404F007039B00B3
:10E7600011F0010F02FA03FA0CFA03F3EDD0072CB3
:10E77000C2D9D0F824B02BEA030343EA0A03436268
:10E78000C1E7BDE8F08F00BF0000000000000000FE
:10E790003A483B4A70B5446BA369656945EA03434F
:10E7A00023F07F4393424CD01ED8073A93423CD08B
:10E7B0000132934210D16268C36A22F400721B686E
:10E7C00062601A6842F001021A60626842F4805284
:10E7D00062605B68012B4BD915F00A0F18BFA36963
:10E7E000BDE87040FEF73CBE264A934212D002328A
:10E7F0009342F1D1C36A1B685E683EB32368028C02
:10E8000043F4A06342F0010202842360BDE870403B
:10E81000FEF726BE6368026B23F400731268636020
:10E82000136843F001031360D6E7038C1A0A0BD078
:10E8300003F0010343F0F00302F0060213432361E7
:10E84000CAE7038CC3F347032361C5E7636823F476
:10E8500000736360236843F400732360202383F311
:10E8600011881C303146FEF78BFB86F31188B3E725
:10E87000236823F480632360AEE700BFA40F002069
:10E8800008000300820007000000000000000000F4
:10E890003348F8B5446B076B66693A68B1B201F466
:10E8A0005F43DB436361136823F01F031360136846
:10E8B000DB07FCD43A7AC56A7F683D2393402A6817
:10E8C0003B60136823F01F031360136813F0010308
:10E8D000FBD12F7A6D683D22BA40CF052A6048BF30
:10E8E00001238D05836044BF43F0020383604A0522
:10E8F0000AD5626822F400726260226843F0040361
:10E9000042F40072226083600F0544BF43F00803A5
:10E9100083604D0444BF43F020038360CC0413D5CF
:10E9200043F010033104836016D4202383F311884D
:10E930006FF001010B48FEF723FB002383F31188DE
:10E94000BDE8F840FEF78CBD320405D4002BECD1B5
:10E95000BDE8F840FEF784BD43F040038360E4E780
:10E96000A40F0020C00F00200000000000000000E5
:10E9700010B5074C2046FEF723FE064B064A62639D
:10E98000002103F13C02E161E362226310BD00BF9C
:10E99000A40F002048280108005800400000000093
:10E9A00010B5064C2046FEF7F3FE4FF0A043044A94
:10E9B0002365002362652366636610BDE00F0020B7
:10E9C000F028010800000000000000000000000026
:10E9D000F8B5056D202307462B612B6913F0200441
:10E9E000FBD10C20FEF7A4F8D7F854E0DEF808605D
:10E9F00023464FF00060FF2105EB43120133B34281
:10EA0000C2F80009C2F8000BC2F80819C2F8081BC6
:10EA1000F2D9DEF800304FF0FF324FF00111C5F8A7
:10EA200018283A6DC5F81C18BB65DEF800306B621B
:10EA300010231361136913F01004FBD10C20FEF7AF
:10EA400077F8D5F80038114A114823F4FE63C5F869
:10EA50000038AB6943F4402343F010030921AB6154
:10EA6000C5F81018C5F81418F860C5F8104BC5F8AB
:10EA7000002BC5F81049C5F80029BB6D03F1100241
:10EA800043F48013BA65AB62F8BD00BF408000104C
:10EA90000029010800000000000000000000000044
:10EAA000026D90F84E10D2F8003823F4FE6343EA6A
:10EAB0000113C2F800387047000000000000000099
:10EAC0005831036D49015B5813F4004004D013F42E
:10EAD000001F14BF01200220704700BF000000008B
:10EAE0004831036D49015B5813F4004004D013F41E
:10EAF000001F14BF01200220704700BF000000006B
:10EB000000EB8101CB681B6A19685B685360116078
:10EB1000704700BF0000000000000000000000007F
:10EB200000EB810330B4DD68AC696368236131B9FF
:10EB3000402B04D940236360094A3F2402E05C1E55
:10EB400043F0C042006D6D8A00EB41112B19B3FBFD
:10EB5000F5F342EAC343C1F8103B30BC704700BF35
:10EB60004000006000000000000000000000000005
:10EB70002DE9F041264E376D07EB40130546D3F8DB
:10EB8000084BC3F8084B200703D5D7F814381907EA
:10EB90001DD4E20719D5D7F81438DB0715D506EBD5
:10EBA00085061B4CF1688B6958681A69904216D328
:10EBB0006289CE680123AB4022EA030363812946C0
:10EBC00020463346BDE8F0411847BDE8F08106EB2A
:10EBD00085032946DB6830465B689847D9E7121AF7
:10EBE00000265A609E6029462046FFF799FF2023A1
:10EBF00083F31188236D03EB4515D5F8003B43F0F3
:10EC00008063C5F8003B86F31188BDE8F08100BF42
:10EC1000E00F0020000000000000000000000000E5
:10EC200000EB810310B4DC68626953681361ABB117
:10EC300071B15A1E006D248A00EB41112244B2FBCF
:10EC4000F4F243EAC243C1F810395DF8044B70474F
:10EC5000402BEED9402353603F22EBE7036D5DF874
:10EC6000044B03EB41114FF40023C1F810397047F6
:10EC70002DE9F041314F3D6D05EB40130646D3F8C9
:10EC80000849C3F80849E10703D5D5F81038DA0771
:10EC90000AD4230606D50123D5F8342803FA06F64C
:10ECA000164229D1BDE8F08107EB8003D9684B6992
:10ECB00058681A69904234D2121A4FF000085A600C
:10ECC000C3F8088031463846FFF7AAFF202383F3B4
:10ECD00011883B6D03EB46100122D0F8001941F07A
:10ECE0000441C0F80019D3F83418B2400A43C3F8FD
:10ECF000342888F31188CCE7202383F31188D5F8D2
:10ED00003438FA6D0E4823EA0603C5F83438164342
:10ED10000021FE65FEF734F9002383F31188BDE876
:10ED2000F0813A89D1F808800123B34022EA030335
:10ED30003B8131463846C047ABE700BFE00F0020BB
:10ED40004010002000000000000000000000000053
:10ED500070B53A4D2E6D7469B3691C40E10474615D
:10ED60002DD4A20448BFD6F80838230704D56B6811
:10ED7000DB680BB131489847E5062BD46003D6F821
:10ED8000185807D5E90745D4AA0748D46B074BD4D0
:10ED90002E074ED4240307D5E80330D4A90333D477
:10EDA0006A0326D42B0303D4BDE87040FEF758BB9A
:10EDB0000320FFF7DDFEBDE87040FEF751BB28469B
:10EDC000FEF7F6FC6B681B68002BCAD000212846B2
:10EDD0009847C6E7202383F31188B369184823F0C6
:10EDE0001003B3610021FEF7CBF8002383F31188F1
:10EDF000C4E70220FFF7BCFE2B03D5D5D8E70020DF
:10EE0000FFF7B6FEA903CBD50120FFF7B1FE6A03D9
:10EE1000C8D5EEE70020FFF72BFFAA07B6D50120E3
:10EE2000FFF726FF6B07B3D50220FFF721FF2E0760
:10EE3000B0D50320FFF71CFFACE700BFE00F0020B8
:10EE40004010002000000000000000000000000052
:10EE5000036D03EB4111D1F8003B43F08063C1F82F
:10EE6000003B7047000000000000000000000000B0
:10EE7000036D10B403EB41140120D4F8002942F0D3
:10EE80000442C4F80029D3F834285DF8044B00FA92
:10EE900001F11143C3F83418704700BF00000000AF
:10EEA000036D03EB4111D1F8003B43F40013C1F8AB
:10EEB000003B704700000000000000000000000060
:10EEC000036D03EB4111D1F8003943F40013C1F88D
:10EED0000039704700000000000000000000000042
:10EEE000036D03EB4111D1F8003B23F40013C1F88B
:10EEF000003B704700000000000000000000000020
:10EF0000036D03EB4111D1F8003923F40013C1F86C
:10EF10000039704700000000000000000000000001
:10EF200008B50B4B1878DA6800210428116107D165
:10EF30000220187011601161D16821F0FF01D160C9
:10EF40005B6803485B689847BDE80840FEF788BAED
:10EF50007C12002000000000000000000000000003
:10EF60000248034BC360FEF7FBBA00BF7C120020CF
:10EF7000000C004000000000000000000000000045
:10EF800038B50378012B044612D06068A368C168C5
:10EF90000568E268B3FBF5F3013B84689BB200208F
:10EFA00021F0FF011060546093621061D16038BDA0
:10EFB0000A4B9842E9D10A4B1A6C42F008021A64D3
:10EFC0001A6A002042F008021A62072118623220F1
:10EFD000FEF76EFE034BA360D7E700BF7C12002054
:10EFE0000038024000BD01050000000000000000E4
:10EFF0004268C36850680139D96200220121596111
:10F000005A621A6110B1DA680A43DA6005221A609E
:10F01000704700BF0000000000000000000000007A
:10F0200038B5254DEB6869681C69DA68087D1440BD
:10F03000E2B2D2431A6190B960072FD52B78042B26
:10F0400028D0A10712D4E40705D56B681A481B69BC
:10F05000984703232B70BDE83840FEF701BAA2079A
:10F060000BD52B78042B04D06307ECD504232B702D
:10F07000E9E78B68E3B1284698476307E3D52B7827
:10F080000D4A042BF2D15168CB68002BEED00A4810
:10F090009847EBE78B6843B128469847A107D2D53C
:10F0A0002B78054A042BE1D1EDE7A007ECD4CAE7A1
:10F0B0006207E9D4C7E700BF8C12002000000000FF
:10F0C00010B5034C2046FEF78BFA024BE36010BDEF
:10F0D0008C1200200004004000000000000000002E
:10F0E000F8B50378012B04463AD0C36800221A60B1
:10F0F0005A639A635A626168A26888690D7D4E6896
:10F10000B2FBF6F220F0FF00013A00274FF6FF763F
:10F110001F61D8609A62DE620A786DB940F2012000
:10F12000542198619960C2B113221A6203F1380226
:10F13000343322616361F8BD4FF4817064219861BA
:10F1400099603AB131221A6203F1340238332261F4
:10F150006361F8BD13221A62F6E731221A62E5E70D
:10F160000B4B984201D0E368C5E70A4B1A6C42F09A
:10F1700002021A641A6A002042F002021A6207218F
:10F1800018621D20FEF794FD034BA360EBE700BF60
:10F190008C1200200038024000BD01050000000074
:10F1A000C3685A69002042F0010205215A611861C2
:10F1B000196070470000000000000000000000001F
:10F1C00008B5202383F31188FDF782FC002383F325
:10F1D0001188BDE80840FEF743B900BF00000000F9
:10F1E000054B44F29F1100200722596098600821C6
:10F1F0000B201A60FEF77CBD10E000E0000000006C
:10F20000024AD36843F08003D3607047004800404F
:10F21000F8B5434ED6F85452EF682B68DA059CB225
:10F220004FD4202383F3118814F02F0F08D129E045
:10F23000A00669681DD42C68A4B214F02F0F21D049
:10F240002307F5D014F0080F0CBF00218021E00740
:10F2500048BF41F02001A20748BF41F040016307C9
:10F2600048BF41F480712F48FDF74AFFA006696846
:10F27000E1D5C9B22A48FEF75BFA2C68A4B214F0B3
:10F280002F0FDDD1002383F31188390601D5220623
:10F2900026D4630611D5202383F31188726CB36CD6
:10F2A0001F489A4229D04FF6BF733B406FF040028F
:10F2B000EB6000232A6083F31188BDE8F840FEF775
:10F2C000CFB8202383F311884FF40071301DFDF770
:10F2D00017FF6FF480732B60002383F31188A0E77E
:10F2E000202383F311881048FDF7FAFF00280CDB78
:10F2F0006860002383F31188CBE7836B002BD2D0A7
:10F3000004301021FDF7FCFECDE708210548FDF78C
:10F31000F7FE4FF63F733B4043F04003EB60E8E7F6
:10F32000A4120020A8120020D41200200000000027
:10F3300010B5054C054A20460021FEF7C1F9044BE3
:10F34000C4F8543210BD00BFA412002001F200081E
:10F350000048004000000000000000000000000025
:10F3600038B51F4C037A002918BF0C46012B0546FF
:10F3700023D0D5F854321B4A93422BD002F5806239
:10F38000934227D02168184AB2FBF1F29A60A28812
:10F39000E088218942F4045240F0400042F02C02FF
:10F3A00041F0010192B280B289B200241861596122
:10F3B000DA601C601A685B6838BD0C4B9842D8D183
:10F3C0000B4A136C43F4802313640C212720FEF7AF
:10F3D0006FFCCEE72168074AB2FBF1F29A60D6E7EC
:10F3E000302901080010014080DE8002A4120020B4
:10F3F0000038024000BD01050000000000000000D0
:10F40000FEF7AEBE0000000000000000000000009B
:10F41000704700BF00000000000000000000000076
:10F42000F0B400F10B073C460D46B1FBF2F602FBCF
:10F43000161101F13003392BC8BF01F13703DBB2DC
:10F4400004F8013DB5FBF2F53146002DEDD13A1B34
:10F45000024401E014F8013F00F8013B9042F9D169
:10F46000F0BC704700000000000000000000000039
:10F470002DE9F04F2DED028B91B0002306468B460F
:10F48000924600939BF800100BF1010379B12529F6
:10F4900013D0009C32689B46926830460134009439
:10F4A00090479BF800100BF101030029EFD1009861
:10F4B00011B0BDEC028BBDE8F08F9BF801202D2A26
:10F4C00003BF9BF802200BF1020301210021302A27
:10F4D00008BF5A78019106BF013330272027591CF5
:10F4E000002408E09AF800300AF1040A9BF8002092
:10F4F00003EB40040131A2F13003DBB2092B8B4650
:10F5000004EB8400F2D92A2AECD02E2A4FF000080E
:10F5100045D002F0DF034C2B50D0A2F14403342B32
:10F5200000F2C981DFE813F0B701C701C701C701C5
:10F53000C701B701C701C701C701C701C701B501AD
:10F54000C701C701C701C701C7010601C701C7013C
:10F550008D00C701C701C701C701C701C701C701A6
:10F56000C701C701C701A701B701C7010801C7014A
:10F57000C701B701C701C701C701C701C701B5016D
:10F58000C701C701C701DB00C7010601C701C701E9
:10F590008D009AF800300AF1040A03EB41081BF8C9
:10F5A000012BA2F13003DBB2092B08EB8801F4D95F
:10F5B0002A2AEED002F0DF034C2BAED19BF80010CC
:10F5C000002900F07881A1F144030BF1010B342BE9
:10F5D00000F27081DFE813F05F016E016E016E01D1
:10F5E0006E015F016E016E016E016E016E015D01C3
:10F5F0006E016E016E016E016E01AE006E016E0154
:10F6000035006E016E016E016E016E016E016E01BC
:10F610006E016E016E014F015F016E01B0006E015F
:10F620006E015F016E016E016E016E016E015D0182
:10F630006E016E016E0183006E01AE006E016E01FF
:10F64000350010220AADDAF800102846FFF7E8FE70
:10F65000401B0AF1040A00F1FF38019B241A24EA36
:10F66000E474002B62D1C4F10009B9F1000F00F07D
:10F670002B8129782D2900F03A81336839469B681F
:10F680003046984719F10109F7D1009BB8F1000FF6
:10F6900023440093FFF6F6AE4C46C146336815F896
:10F6A000011B9B6809F1FF3930469847B9F1FF3FCC
:10F6B000F4D1009B0133B8F1000FA8BF434400937D
:10F6C000002C3FF4DFAE2546336839469B68304650
:10F6D0009847013DF8D1009B23440093D2E6DAF825
:10F6E00000509B4B002D08BF1D460AF1040A2B78E1
:10F6F000B8F1000F00F0EE80002B00F0F08008F170
:10F70000FF38284602E0B8F1FF3F05D010F8013F6E
:10F7100008F1FF38002BF6D1401B019B241A00F1A1
:10F72000FF38202724EAE474002B9CD0B8F1000FA6
:10F73000B3DAC5E70A2285E70AF1070A2AF0070AC1
:10F74000DAE90001FDF7F4F808EE100AB5EEC08A18
:10F75000F1EE10FA0AF1080A00F1E8800AAD2A4633
:10F7600018EE100A0492FCF74FFE08F1FF38B8F1CA
:10F77000080FCDE90201049A00F2C780754B53F8D7
:10F7800028804046FCF71EFE734B049AA3FB083802
:10F79000CDE906014FEAD80309939846FDEEC87AF1
:10F7A00002F10B0317EE901A17EE90EACDED047AF2
:10F7B000059318460892684BA3FB0E23DB0803EB66
:10F7C0008309654A9C46AEEB49033033A2FB012115
:10F7D000DBB2C90800F8013DE646ECD10599089A6C
:10F7E000C0EB0109914401E010F8013F02F8013B30
:10F7F0004A45F9D14A462E2302F80C3B049804925C
:10F80000FCF7F0FD02460B46DDE90201FCF79CFC2B
:10F81000DDE90623FCF74CFEFDF762F80999049A2E
:10F82000002908BF804609F1010E4B4BA3FB0013D2
:10F83000DB0803EB830C1946A0EB4C03464830333E
:10F84000A0FB0808DBB25FEAD80802F8013D0846D1
:10F85000EBD10499891A481C8144704601E012F8E2
:10F86000013F00F8013B8145F9D10EEB0100401B3F
:10F8700000F1FF38F1E610ADDAF8003005F8183D78
:10F880000DF12900401B0AF1040A00F1FF3820277E
:10F89000E3E60822D6E6DAF8001000290AF1040AA5
:10F8A0003CDB0AAD28460A22FFF7BAFD401B00F1F7
:10F8B000FF38D2E60A4610AD0DF1290005F8182DE3
:10F8C000401B00F1FF38C8E6B8F1000FFFF6DAADD3
:10F8D0004C46E2E647F6FE78002B7FF412AF019B20
:10F8E00024EAE4745BBB4FF0FF382027BBE6302FDF
:10F8F0007FF4C3AE336830469B689847009B013362
:10F900000135009308F1FF38B7E69FED0F7BDFF874
:10F910004C80CDF824808DED067B3FE72D234942B6
:10F920008DF828300DF129000AADBCE72D23B1EE8A
:10F93000488A8DF828300DF129020AAD10E72027FA
:10F94000BEE600BFAFF300800000000065CDCD41F2
:10F95000402A0108502A0108CDCCCCCC00E1F505A5
:10F9600001212DE9F84308465E4E5F4C5F4D01F0E2
:10F970000FFC0121022001F00BFC0121042001F009
:10F9800007FC304619224021FEF7A2FE802188465E
:10F99000402730461922FEF79BFE778339462046E2
:10F9A000A6F81A801922FEF793FE4FF4807941469B
:10F9B000204667831922FEF78BFE2046494619220E
:10F9C000FEF786FE3046A4F81A9020224FF48051AC
:10F9D000FEF77EFE494628469A22FEF779FE284623
:10F9E0009A224FF40071FEF773FE28469A224FF4D4
:10F9F0008061FEF76DFE30469A224FF40051FEF70B
:10FA000067FE30469A224FF48041FEF761FE304691
:10FA10009A224FF40041FEF75BFE204620224FF46D
:10FA20000051FEF755FE204620224FF48041FEF79C
:10FA30004FFE204620224FF40041FEF749FE2846A3
:10FA400003220121FEF744FE284603220221FEF78D
:10FA50003FFE284603220421FEF73AFE28460322F1
:10FA60000821FEF735FE284603221021FEF730FE5E
:10FA7000284603222021FEF72BFE39462846032282
:10FA8000FEF726FE414628460322FEF721FE3046B9
:10FA900003220121FEF71CFE304603220221FEF75D
:10FAA00017FE204603220121FEF712FE2046032204
:10FAB0000221FEF70DFE204603220421FEF708FE78
:10FAC000204603220821FEF703FE204603221021D0
:10FAD000FEF7FEFD204603222021BDE8F843FEF795
:10FAE000F7BD00BF000402400008024000000240D1
:10FAF00070B5264E264D274C012330461A4600216C
:10FB000001F06EFA304601230222082101F068FA62
:10FB10003046012303220A2101F062FA0422304612
:10FB20001146012301F05CFA012328461A461946C2
:10FB300001F056FA284601230222092101F050FA69
:10FB40002846012303220B2101F04AFA284601230B
:10FB500004220F2101F044FA012320461A46022113
:10FB600001F03EFA204601230222032101F038FA77
:10FB70002046012303220C2101F032FA2046012302
:10FB800004220521BDE8704001F02ABA002001409E
:10FB900000210140002201400000000000000000A0
:10FBA00008B51D4B1D4A9B691D499A611D481E4C95
:10FBB00001F0D6F82068FCF727FC02460B461948EE
:10FBC0001A4901F0CDF86069FCF71EFC02460B46AD
:10FBD0001448164901F0C4F8A069FCF715FC024668
:10FBE0000B461048114901F0BBF8E069FCF70CFC2A
:10FBF00002460B460B480D4901F0B2F8206AFCF7AB
:10FC000003FC02460B460748094901F0A9F80A20FF
:10FC1000FDF77EF9CEE700BF700C0020802A0108B6
:10FC2000902A0108A4120020001E0020A82A010822
:10FC3000B02A0108000000000000000000000000E1
:10FC400008B50B4B0B4A9B690B499A610B480C4C4E
:10FC500001F086F840252E46268341F28830FDF7D4
:10FC600057F9658341F28830FDF752F9F4E700BF98
:10FC7000700C0020BC2A0108CC2A0108A412002024
:10FC8000000402400000000000000000000000002E
:10FC900008B5FDF715FCFCF7C3FE42F21070FDF746
:10FCA00037F9FFF75DFE01F03BF80649064801F021
:10FCB00057F800F00DFF642000F02AFF00F0F8F87C
:10FCC000002008BDE02A0108A41200200000000066
:10FCD00000B583B000240A4B009440224FF4B36176
:10FCE0000848FDF7DDF84FF406710094064B07480D
:10FCF0004022FDF7D5F80649064801F031F8FEE745
:10FD000041FC000818170020A1FB00080015002086
:10FD1000F02A0108A41200200000000000000000EA
:10FD2000F8B51B4B1B4A802119831369DB04FCD5F2
:10FD300042F21070FDF7ECF8174D184818490023EF
:10FD40002B6003600B600B68154AB3F57A6FFADB22
:10FD50001449154C0E4F154E2B68156893FBF5F39F
:10FD60004FF0800E0B6001250368126893FBF2F3DD
:10FD70002360A7F81AE035700A680D480D4900F0B5
:10FD8000EFFF22680C490A48BDE8F84000F0E8BFE0
:10FD900000080240000402406C1E0020141D0020D8
:10FDA0004C1D0020B01C0020681E0020541D0020A7
:10FDB000A4120020002B0108142B010800000000F1
:10FDC00090ED067A90ED076AD0ED007AD0ED015AF9
:10FDD000D0ED046A37EE466AB0EE677AA6EE257A71
:10FDE000B4EEE67AF1EE10FA0BDCD0ED056AB4EE73
:10FDF000E67AF1EE10FA04D4F0EE476A80ED087A64
:10FE000001E0C0ED086A90ED025AD0ED035AE6EE2B
:10FE1000057A37EE667AE7EE657AC0ED007A7047CC
:10FE2000F0B51748174C184A1849194D194E1A4F72
:10FE3000E5602561C5600561D560CD60174DDFF8CF
:10FE400068E0676000234760A660154F8660966093
:10FE50004D60144EC4F814E04FF08045C0F814E033
:10FE600023602362036003620B600B621360136202
:10FE70008D6055600F6117614E615661F0BD00BF26
:10FE8000241D0020CC1C0020601D0020F01C002040
:10FE900058FF7F3F0AD7233CCDCC4C3D000040416A
:10FEA0003333733F333373BF58FF7FBF000000000D
:10FEB0002DE9F04FD64DD74FDFF89093A7B000F063
:10FEC00087FFD54B002428461C7001F0B1F9384655
:10FED00001F0AEF901216C6208467C6201F078F90C
:10FEE000CE4BADF8044001264FF0200E284601A964
:10FEF0001A68ADF806E08DF80E60ADF80C40C84BFE
:10FF000093FBF2F3029301F073FAEB6AADF83260FF
:10FF1000F3400E934FF06003ADF830304FF0040320
:10FF20004FF4807B28460CA9ADF834304FF40073B1
:10FF3000ADF84230ADF83C40ADF83E40ADF840B0D1
:10FF400001F0C6FA0CA9284601F002FB0CA92846CC
:10FF500001F03EFB0CA9284601F082FB284608214F
:10FF600001F0B6FB2846082101F0BAFB284608211B
:10FF700001F0C6FB2846082101F0CAFB4FF40068D7
:10FF8000502328464FF4005A04A9ADF81630ADF8B6
:10FF90001AA0ADF81440ADF81840ADF81C40ADF80B
:10FFA0001080ADF8128001F0C3FB3146284601F005
:10FFB000E7FB3146284601F06BFA3146994801F0DB
:10FFC000E7F831464FF4E06001F002F92346964A23
:10FFD00096480321FEF744F89549964B18914FF047
:10FFE0000C0E4FF4003C4FF48062484617A9CDF840
:10FFF0006CE0CDF884C019931D92CDF87CA01794C5
:020000040801F1
:100000001A941C94CDF87880CDF880B02294239473
:100010002494259401F044F83146484601F070F8E4
:1000200032464846102101F07BF816224FF48043F7
:1000300008A8DFF81CA208920A9309940B9400F018
:10004000A7FF4FF000534FF0040211A91393DFF8FC
:10005000049279488DF858204FF0506314938DF82E
:10006000486011948DF84940159400F069FF11A97A
:10007000504600F065FF11A9484600F061FFFFF708
:1000800037FD304600F0FCFF31466B4800F098FF2A
:100090003146504600F094FF3146484600F090FF4C
:1000A0003146022001F094F85C4BADF8044001A900
:1000B00038461A68ADF80640ADF80C408DF80E4091
:1000C0005E4B93FBF2F3029301F092F94FF0600262
:1000D000EB6AADF830200CA94FF400723846ADF849
:1000E00042200E93ADF83260ADF83C40ADF83E4092
:1000F000ADF840B001F0ECF93846082101F0E8FA1B
:100100000CA9384601F024FA3846082101F0E8FA33
:100110000CA9384601F05CFA3846082101F0F0FAE3
:100120003146384601F0B4F93146384601F028FB33
:100130003146384601F014FB2846202101F040FBEF
:100140002846802101F05CFB2146384601F030FB57
:100150003846042101F044FB3146384601F0A8F945
:100160003146284601F0A4F93146284601F0F8FA54
:100170003146304601F01CF84FF0FF3A532301A9F5
:100180004FF08040ADF80430ADF80C40ADF80640BB
:10019000CDF808A001F02CF931464FF0804001F075
:1001A00087F900F015FE2B6843F002032B603B68D3
:1001B00043F002033B60EB6A7B63EB6ABB63EB6A71
:1001C000FB632B6823F002032B603B6823F00203E0
:1001D0003B6000F00DFE1A4B802240271F835A839C
:1001E000A3F81AB0FFF79CFD1649174800F0B8FDB8
:1001F000A9F585393146384600F0DAFF072301A911
:100200004846ADF80430CDF808A0ADF80C4023E026
:100210000000014000040140541D0020000800209F
:1002200000BD010505004000B1070108C028010814
:1002300008230140B41C002000200140007A030A7A
:1002400000080240282B0108A4120020706402401C
:100250000021014000220140ADF8064001F0C8F83D
:100260003146484601F024F93146404600F0A0FFEF
:10027000204601F0D5FAFF2001F0E2FA642001F0F7
:10028000FFFA154B9FED157A1B8A1549154A164E34
:10029000164807EE903A164BF8EE677A83ED007A2F
:1002A00067EE877A83ED027A09681268B3EE007A06
:1002B00067EE877A89B292B299809A81C6ED007A08
:1002C000EB6A0360FFF7ACFD0A4B02221C801A7038
:1002D00027B0BDE8F08F00BFB41C00206740533A40
:1002E000B01C0020681E0020901D0020441E00202D
:1002F0007C1E0020481D00200000000000000000BF
:10030000144A154B92ED007AD3ED007AB4EEE77AF9
:10031000F1EE10FA11DC93ED007AD2ED007AB4EE32
:10032000E77AF1EE10FA07DDD2ED006A93ED007A7C
:10033000C6EE877A20EE270A7047D2ED007A93ED59
:10034000007AD3ED006A77EEC77A87EEA67AA7EE39
:10035000000A7047901D00208C1D00200000000046
:10036000304B1B8870B5002B3DD02F4E2F4C304D9D
:100370002378E969580744BF3368B3602D4B0022E6
:100380001846D9619A61FFF71BFD227893ED080AA0
:10039000110735D485ED090A20EE000A264BDFED62
:1003A000277A83ED000A93ED000A37EEC00AF1EEDA
:1003B000C07AF4EE677AF1EE10FA2DD1204B296A5B
:1003C000B268D961B1EE677A18469A61C3ED047AD2
:1003D00083ED057AFFF7F4FC22781549120714D44F
:1003E0001B6A8B6270BD174B174A0F4ED16D174AAF
:1003F000D96118469A61FFF7E3FC1B6AB360B5E761
:10040000FFF77EFF85ED090AC6E793ED080AFFF7BF
:1004100077FF81ED0A0A70BD01F0E2FAF0EE407A52
:10042000CCE700BF941D0020181D0020481D0020AF
:10043000001E0020CC1C0020881D00203D0A673FC4
:10044000241D0020F01C00209C1D0020CDCCCC3DA4
:10045000184B194ADB6A92ED046AD2ED056A136003
:1004600007EE903AF8EE677AB6EE007A27EE866AE3
:1004700067EEA66A77EEC67A82ED046A77EEE67AD0
:10048000C2ED056A67EE877AFCEEE77AB8EE677A26
:10049000C2ED087A77EE067AFCEEE77AB8EE677A74
:1004A000C2ED077A77EE267AFCEEE77AC2ED067A9D
:1004B000704700BF00000140441E00200000000003
:1004C0002DE9F041164680460F4600F081FC0D4BA9
:1004D0000D4C1D6845F002051D60256845F00205BC
:1004E0002560C3F834809F63DE631A6822F002023D
:1004F0001A60236823F002032360BDE8F04100F096
:1005000077BC00BF00000140000401400000000073
:100510003E48D0ED017AF5EEC07AF1EE10FA08B55A
:1005200026DB90ED027AB5EEC07AF1EE10FA13DA1E
:10053000D0ED036AF5EEC06AF1EE10FA44DBC0EDCF
:10054000057AC0ED046AFFF783FFBDE80840C26981
:100550008169006AFFF7B4BF80ED057AC0ED047AC7
:10056000FFF776FF183007C8BDE80840FFF7A8BFBF
:10057000D0ED026AF5EEC06AF1EE10FA35DB90EDCF
:10058000037AB5EEC07AF1EE10FA0CDB80ED057A55
:10059000C0ED046AFFF75CFFBDE808408269016AAC
:1005A000C069FFF78DBFB1EE477AF1EE677A80ED53
:1005B000057AC0ED047AFFF74BFFBDE80840C26939
:1005C000016A8069FFF77CBFB1EE477AF1EE666A97
:1005D00080ED057AC0ED046AFFF73AFFBDE80840F8
:1005E000026A8169C069FFF76BBFF1EE677AF1EECD
:1005F000666AC0ED057AC0ED046AFFF729FFBDE821
:1006000008408269C169006AFFF75ABF441E002092
:10061000554B9FED566A9A885B88DFED556A07EE69
:10062000102A07EE903A70B5B8EE477AF8EE677A7E
:1006300037EE467A77EEC67A2DED048B87EE268A62
:100640004C4C4D4A4D4B4E4E0546C7EEA68A94ED96
:10065000000A82ED008AC3ED008A01F029F9494BB6
:10066000B0EE409A94ED000A83ED009A01F068F92B
:1006700028EE098A68EE808A434A9FED446AD2EDEB
:10068000007A86ED008A38EE688A414B4148D3ED06
:10069000006A4149C0ED008AD8EE067AB2EE047ACB
:1006A00077EEA67A81ED000AC3ED007AD3ED007AE9
:1006B000F4EEC77AF1EE10FA0ADCD3ED007ABAEE66
:1006C000047AF4EEC77AF1EE10FA58BF93ED007A8F
:1006D00083ED007A82ED008AD3ED007AD4ED006AD2
:1006E0009FED2E7A234A77EEA67AC4ED007AD4EDF8
:1006F000007AF4EEC77AF1EE10FAD2ED007A1EDD40
:1007000037EEC77A82ED007A94ED007ADFED247A35
:10071000DFED226A77EE277AF4EEE67AF1EE10FA50
:1007200019DCBDEC048BF5EEC07AF1EE10FA48BF8F
:1007300077EEA67A1B68C5ED167AEB6570BDF5EE0F
:10074000C07AF1EE10FADFD5D2ED007A37EE877A73
:1007500082ED007AD8E7BDEC048B77EEE67A1B6871
:10076000C5ED167AEB6570BDB41C002000209B44DB
:1007700000F07F45981D0020741E0020781E002088
:100780005C1D0020401E0020581D00200C02803FF0
:10079000701E0020501D0020841D0020DB0FC9406A
:1007A0009A99993E0000000000000000000000003F
:1007B000F8B55F4A5F4C604F2389B4F806E05F48A4
:1007C0005F4E00252DED048B55623968013139608B
:1007D00002685C4F1A4402603368384673443360E1
:1007E000FFF716FF584A137843F0020313709B0774
:1007F00040F19380554E2289E388554897ED169A2B
:100800005449554F40243483802404838E8888893A
:1008100091ED007AD1ED027A504C398884ED009A3E
:1008200000B21B1A08EE103A36B2B8EEC88A921B14
:1008300008EE902A28EE278AF8EEE88ADFED487A5B
:1008400084ED048A38EE088A68EE878A28EE278AC3
:100850004B1CA8EEA78A9BB2102BB0EE490A14BF1E
:100860003B803D80C4ED038AC4ED058A84ED068A91
:1008700001F01EF8F0EE409AB0EE490A01F060F87F
:1008800068EE297A28EE008AE8EE807AA8EEE98AF6
:10089000C4ED087A84ED078AFFF762FDD4ED009A73
:1008A00094ED099AB0EE690A01F002F894ED0A8A13
:1008B000F0EE408AB0EE690A01F042F868EE886A0C
:1008C00060EE487AE9EE006A264BE9EE287ADFED21
:1008D000265AC4ED0B7AB1EE667AB0EE476AA7EEFF
:1008E000A56AA7EEE57AF6EE005A66EE257A27EEBF
:1008F000257AC4ED0C6AC3ED016AC3ED027A83ED7B
:10090000037AFFF705FE124B80225A83BDEC048B5D
:100910006420BDE8F84000F0ABBF0C4B40225A8386
:10092000BDEC048B6420BDE8F84000F0A1BF00BF1F
:1009300000180040B41C00204C1D00206C1E00203C
:10094000141D00209C1D0020481D002000080240AE
:10095000000402407C1E0020941D0020001E002088
:100960003ACD133F441E0020D7B3DD3F0000000006
:10097000704700BF00000000000000000000000001
:1009800030B5234C2349226883B00546224800F045
:10099000E7F9224693689907FCD5204B204ADB688B
:1009A0004FF400415183596A5A6A9142FCD01C4A63
:1009B0004FF400411183596A5A6A9142FCD0184998
:1009C000134A4FF400404883D16845F4804589B20A
:1009D000ADF806101146D5608A68D207FCD5596A71
:1009E0005A6A9142FCD00E4A4FF400411183596A71
:1009F0005A6A9142FCD00B4A10215183596A5A6AB3
:100A00009142FCD0074B10221A8303B030BD00BFC7
:100A100000300140302B0108A41200207C1200207D
:100A2000000002400004024000000000000000003E
:100A300010B5064C06492046FCF79AFD20464FF0BB
:100A4000FF31BDE81040FCF7A3BD00BF7C120020C1
:100A5000502B010800000000000000000000000012
:100A600038B501214FF4805000F0B2FB144D154C05
:100A700001214FF4805000F0CBFB00214FF4805057
:100A800000F0C6FB284619224FF40041FDF720FE76
:100A9000204619221021FDF71BFE10234FF40042BF
:100AA0002A832046238340F29A220821FDF710FE74
:100AB000204640F2BA222021BDE83840FDF708BEAA
:100AC000000002400004024000000000000000009E
:100AD00010B50A4CFFF7C4FFFFF7AAFF40F6270343
:100AE000236022680649074800F03AF9042363604E
:100AF000236843F04003236010BD00BF0030014075
:100B00003C2B0108A412002000000000000000009F
:100B1000C0F30B0040F40050FFF732BF00000000AC
:100B20000369DFED4B6A1B684A494B4A4B48013366
:100B300007EE903AF8EE677A87EEA67A81ED007AB2
:100B400091ED007A92ED006AD0ED007AD2ED006A64
:100B500037EE467A77EEE67AB4EEE77AF1EE10FAFF
:100B60000ADDDFED3F6A67EEA66AB4EEE67AF1EEE3
:100B700010FA45D5B0EE677AB5EEC07AF1EE10FA0C
:100B80003EDD384B1B78F0EE006AB3B9B0EE676A11
:100B900097EE266A344B86EE277A83ED007A20237F
:100BA00083F31188314A0023916A83F31188304B13
:100BB000304A1B6811601BB31847F0EE675AD7EE36
:100BC000265A2D4B2D4AD3ED006A92ED006A85EE30
:100BD000A77AB4EEE67AF1EE10FA12D8B4EEC67A3D
:100BE000F1EE10FA2CD9B4EEE67AF1EE10FA04DB4D
:100BF000F4EEC66AF1EE10FA09D9B0EE476A17E0D2
:100C000070470CDBF4EEC66AF1EE10FA07D8B4EECA
:100C1000467AF1EE10FA98BFB0EE476A08E0B4EEFB
:100C2000E67AF1EE10FA8CBFB0EE666AB0EE476A73
:100C30000D49C2ED006A83ED007A81ED006AAEE7EE
:100C4000F4EE466AF1EE10FA98BFB0EE666AEFE78E
:100C500000007A44941E0020100800200C08002098
:100C60009A99993F981E00208C1E0020700C00203D
:100C70009C1E0020901E0020080800200408002070
:100C8000704700BF000000000000000000000000EE
:100C900038B50C4C0C4905462046FCF7A9FC4FF42E
:100CA00081724FF400710948FDF712FD2046FCF7F0
:100CB000AFFC07480749084A056000230B60136032
:100CC00038BD00BF8C12002014080020000802402C
:100CD0009C1E00208C1E0020941E0020000000009E
:100CE0000449054A054B81ED000AC2ED000A18705F
:100CF000704700BF100800200C080020981E00203C
:100D00000EB400B582B003AA52F8041B0192FEF79C
:100D1000AFFB02B05DF804EB03B0704700000000C9
:100D200010B50A4C0A490B48FCF7F2FC204640F289
:100D300082324FF48061FDF7CBFC204640F28232D4
:100D40004FF40061BDE81040FDF7C2BC000802404E
:100D500030080020A4120020000000000000000065
:100D60000EB400B50199FFF7CBFF5DF804EB03B0BB
:100D7000704700BF000000000000000000000000FD
:100D800008B50121034800F00BFDBDE80840FCF761
:100D900067BB00BF0014004000000000000000001E
:100DA00008B54FF4006000F0DBF900B908BD044B52
:100DB00000225A624FF40060BDE8084000F0E0B93C
:100DC00000080040000000000000000000000000DB
:100DD000044B1A6812B9202282F311881A68013272
:100DE0001A607047A01E00200000000000000000F4
:100DF000054B1A6832B11A68013A1A601B680BB9C0
:100E000083F31188704700BFA01E0020000000007F
:100E1000024A034B926A1A60704700BF700C0020B0
:100E2000A41E0020000000000000000000000000E0
:100E30000A4A0B49926908B50A4B916193ED030A7E
:100E4000D3ED040A187D084B1A60FFF749FF0748E5
:100E5000FFF71EFF064B01221A70FEE7700C002000
:100E6000602B01085C240020AC1E0020810E0108CC
:100E7000A81E00200000000000000000000000008C
:100E800008B5202383F31188FFF7C2FF044B01212B
:100E90001868FCF71DF9002383F3118808BD00BF13
:100EA000AC1E002000000000000000000000000058
:100EB00010B52023044683F311880A48C3680BB198
:100EC000FBF776FE2346084A06481421FBF750FE3E
:100ED000064B01211868FCF7FBF8002383F3118807
:100EE00010BD00BF48240020B10E0108AC1E002038
:100EF00000B583B00023009340220D4B0D484FF402
:100F0000B361FBF7CDFF202383F311880A48C36840
:100F10000BB1FBF74DFE0023084A07480A21FBF7F7
:100F200027FE002383F3118803B05DF804FB00BFA4
:100F3000310E0108B01E002048240020B10E010827
:100F4000F0B544680A680E79D1F810E0CD680F4B0F
:100F500024F0407424F48074224342EA0622426062
:100F600087688A684E794EEA050422433B40134362
:100F700043EA460383600A7DC36A013AD2B223F48E
:100F8000700343EA0253C362F0BD00BFFDF7FFC028
:100F900070B442680668064D8468C168054B68688D
:100FA000324322430A43034013436B6070BC7047D3
:100FB00000230140E030FCFF0000000000000000C2
:100FC000836819B923F001038360704743F001037C
:100FD0008360704700000000000000000000000077
:100FE000092970B41DD9A1F10A0606EB4606C568A9
:100FF0000724B440B34025EA04042343062AC3600F
:101000001BD90C2A27D90D3A02EB8202C36A1F248E
:10101000944001FA02F223EA04010A43C26270BC5E
:10102000704701EB410605690724B440B34025EA47
:1010300004042343062A0361E3D8013A02EB820247
:10104000436B1F24944001FA02F223EA04010A438D
:10105000426370BC7047073A02EB8202036B1F24A5
:10106000944001FA02F223EA04010A43026370BCCD
:10107000704700BF000000000000000000000000FA
:10108000054A536818B923F400535360704743F47A
:1010900000535360704700BF002301400000000070
:1010A00001F11802F0B48CCACD680E684C692E4369
:1010B000264316431E434A6A8B6A4D6B8C6B3E4334
:1010C00016431E430B4A0368CF6A35432C431A402C
:1010D000224302600B6B42690D694C6889683B438F
:1010E00022F007021343436145608460C160F0BC95
:1010F000704700BF3F801CF00000000000000000AF
:10110000036819B923F001030360704743F001033A
:1011100003607047000000000000000000000000B5
:101120000B060CD54369AAB143F0800380294361C3
:101130000FD0036801F01E01194301607047802938
:1011400007D0002AF5D1036801F01E0123EA01014E
:101150000160704723F0800380294361F3D1704719
:10116000034B5B69034214BF01200020704700BF9E
:10117000003C0140000000000000000000000000F2
:10118000014B5861704700BF003C01400000000067
:1011900029B9054A136B23EA000010637047024B1C
:1011A0001A6B1043186370470038024000000000BB
:1011B00029B9054A136C23EA000010647047024BFA
:1011C0001A6C104318647047003802400000000099
:1011D00029B9054A536C23EA000050647047024B5A
:1011E0005A6C1043586470470038024000000000F9
:1011F00029B9054A136A23EA000010627047024BBE
:101200001A6A10431862704700380240000000005C
:1012100029B9054A536A23EA000050627047024B1D
:101220005A6A1043586270470038024000000000BC
:1012300008B5604B984235D0B0F1804F3CD05E4B42
:10124000984243D05D4B98424AD05D4B984251D072
:101250005C4B984258D05C4B98425FD05B4B9842B5
:1012600066D05B4B98426DD05A4B984276D05A4B21
:1012700098427FD0594B984200F08880584B984252
:1012800000F08E80574B984200D008BD01214FF4EA
:101290008070FFF7ADFF00214FF48070BDE808407B
:1012A000FFF7A6BF01210846FFF7B2FF002101208A
:1012B000BDE80840FFF7ACBF01210846FFF798FFE3
:1012C00000210120BDE80840FFF792BF0121022064
:1012D000FFF78EFF00210220BDE80840FFF788BF1E
:1012E00001210420FFF784FF00210420BDE808400D
:1012F000FFF77EBF01210820FFF77AFF00210820B9
:10130000BDE80840FFF774BF01211020FFF770FF10
:1013100000211020BDE80840FFF76ABF012120200E
:10132000FFF766FF00212020BDE80840FFF760BFFF
:1013300001210220FFF76CFF00210220BDE80840D8
:10134000FFF766BF01214FF48030FFF761FF0021F6
:101350004FF48030BDE80840FFF75ABF01214FF439
:101360000030FFF755FF00214FF40030BDE8084082
:10137000FFF74EBF01214FF48020FFF749FF002106
:101380004FF48020BDE80840FFF742BF0121402014
:10139000FFF72EFF00214020BDE80840FFF728BFDF
:1013A00001218020FFF724FF00218020BDE80840B4
:1013B000FFF71EBF0000014000040040000800408D
:1013C000000C0040001000400014004000040140E8
:1013D0000040014000440140004801400018004026
:1013E000001C004000200040000000000000000041
:1013F000224A036890429BB212D002F5806290426A
:101400000ED0B0F1804F0BD0A2F58032904207D0C1
:1014100002F58062904203D002F58062904203D1CF
:101420004A8823F070031343154A90421ED002F5F8
:10143000806290421AD00A8970B423F440730F4C32
:101440004E680D889BB21343A0420360C66285625A
:1014500006D00C4B984203D00123436170BC704707
:101460008B7A03630123436170BC704703604A6851
:101470000B88C26283620123436170470000014010
:1014800000100040000401400000000000000000C7
:1014900029B902684FF67F731340036070470368F1
:1014A00043F080030360704700000000000000006C
:1014B00029B902684FF6FE73134003607047036852
:1014C00043F00103036070470000000000000000CB
:1014D000026A4FF6FE7313400362F0B54A88056A4C
:1014E0008B894468154FD0F818E04FF6FD762E40F2
:1014F000134333434FF68C750E880EEA0505B84248
:10150000A2B29BB245EA060408D00D4DA84205D010
:1015100089684260846141630362F0BDCE890F8AAD
:101520004D8A23F00803334322F440728E883D43F2
:1015300023F004032A43334392B2E9E70000014059
:101540000004014000000000000000000000000056
:10155000026A4FF6EF731340F0B503624A888C8934
:10156000D0F820E046688769184D144348F6FF42DA
:101570003A404FF6DF730F880EEA030343EA041381
:1015800042EA0722A8429BB2B4B292B209D005F552
:101590008065A84205D089684460826181630362E6
:1015A000F0BDCD890F8A4E8A23F0800343EA0513EC
:1015B0004FF6BF751D408B8824F440643E4345EAD6
:1015C000031344EA86049BB2A4B2E4E7000001409E
:1015D000026A4FF6FF6313400362F0B54A88D0F801
:1015E00020E08C8945681A4EC7694FF6FF531443B3
:1015F0000EEA030343EA04234FF68C720C883A4048
:10160000B0429BB2ADB242EA040209D006F5806650
:10161000B04205D089684560C261C1630362F0BD14
:10162000CE890C8AB1F812E023F4006343EA062362
:101630004FF6FF361E408B8825F4405744EA0E05CE
:1016400046EA032347EA05159BB2ADB2E2E700BFC5
:101650000000014000000000000000000000000049
:10166000026A4EF6FF731340F0B503624A888D8913
:10167000D0F820E04468C769114E154348F6FF4290
:101680003A404DF6FF730F880EEA030343EA053331
:1016900042EA0722B0429BB2A4B292B208D0094DEE
:1016A000A84205D089684460C26101640362F0BD4C
:1016B0000D8A24F4804444EA8514A4B2F2E700BF02
:1016C0000000014000040140000000000000000094
:1016D00082694FF6F773134019438161704700BF69
:1016E00082694FF2FF73134043EA012189B281619D
:1016F000704700BF00000000000000000000000074
:10170000C2694FF6F77313401943C161704700BFB8
:10171000C2694FF2FF73134043EA012189B2C161EC
:10172000704700BF00000000000000000000000043
:10173000F0B54B88B1F800E08F88CE880D894C89D0
:101740008A894EEA03033B4333432B43234313432A
:101750009BB24364F0BD00BF000000000000000029
:10176000436C19B9C3F30E034364704743F4004359
:10177000436470470000000000000000000000000B
:1017800029B942684FF6FE731340436070474368BF
:1017900043F00103436070470000000000000000B8
:1017A000C94389B2016170470000000000000000D9
:1017B00082684FF68F73134019438160704700BFF2
:1017C00042684FF68F73134043604368194341608A
:1017D000704700BF00000000000000000000000093
:1017E00082684FF6F8731340836083681943816001
:1017F000704700BF00000000000000000000000073
:1018000082684FF67F731340836083681943816059
:10181000704700BF00000000000000000000000052
:10182000034A536823F4C07318435060704700BFE5
:10183000002C00400000000000000000000000003C
:1018400082B0084A00230193536823F07F03019379
:10185000019B00F07F0003430193019B536002B0A2
:10186000704700BF002C0040000000000000000096
:10187000024B00F07F001860704700BF002C004052
:10188000024B40F080001860704700BF002C004001
:1018900008B5FEF7FDF9FEF71BFAFFF729FB00205C
:1018A00008BD00BF000000000000000000000000B4
:1018B00000B510EE103A204A23F00043934283B063
:1018C00019DDB3F1FF4F04DB30EE400A03B05DF8E1
:1018D00004FB684600F0E4F800F0030001281AD089
:1018E00002280FD000B30120DDED010A9DED000AB2
:1018F00000F01EFEEAE7DFED110A00F079FA03B00E
:101900005DF804FBDDED010A9DED000A00F070FAC0
